{
  "_format": "hh-sol-artifact-1",
  "contractName": "CarbonExchange",
  "sourceName": "contracts/CarbonExchange.sol",
  "abi": [
    {
      "inputs": [
        {
          "internalType": "address",
          "name": "admin",
          "type": "address"
        },
        {
          "internalType": "address",
          "name": "trustedForwarder",
          "type": "address"
        },
        {
          "internalType": "address",
          "name": "_idrcToken",
          "type": "address"
        },
        {
          "internalType": "address",
          "name": "_speToken",
          "type": "address"
        }
      ],
      "stateMutability": "nonpayable",
      "type": "constructor"
    },
    {
      "inputs": [],
      "name": "AccessControlBadConfirmation",
      "type": "error"
    },
    {
      "inputs": [
        {
          "internalType": "address",
          "name": "account",
          "type": "address"
        },
        {
          "internalType": "bytes32",
          "name": "neededRole",
          "type": "bytes32"
        }
      ],
      "name": "AccessControlUnauthorizedAccount",
      "type": "error"
    },
    {
      "inputs": [],
      "name": "InsufficientBalance",
      "type": "error"
    },
    {
      "inputs": [],
      "name": "InvalidAmount",
      "type": "error"
    },
    {
      "inputs": [],
      "name": "InvalidPrice",
      "type": "error"
    },
    {
      "inputs": [],
      "name": "MarketMismatch",
      "type": "error"
    },
    {
      "inputs": [],
      "name": "NotOrderOwner",
      "type": "error"
    },
    {
      "inputs": [],
      "name": "OrderAlreadyFilled",
      "type": "error"
    },
    {
      "inputs": [],
      "name": "OrderNotActive",
      "type": "error"
    },
    {
      "inputs": [],
      "name": "OrderNotFound",
      "type": "error"
    },
    {
      "inputs": [],
      "name": "ReentrancyGuardReentrantCall",
      "type": "error"
    },
    {
      "inputs": [
        {
          "internalType": "address",
          "name": "token",
          "type": "address"
        }
      ],
      "name": "SafeERC20FailedOperation",
      "type": "error"
    },
    {
      "inputs": [],
      "name": "SameSideTrade",
      "type": "error"
    },
    {
      "anonymous": false,
      "inputs": [
        {
          "indexed": true,
          "internalType": "bytes32",
          "name": "marketKey",
          "type": "bytes32"
        },
        {
          "indexed": false,
          "internalType": "uint256",
          "name": "clearingPrice",
          "type": "uint256"
        },
        {
          "indexed": false,
          "internalType": "uint256",
          "name": "totalVolume",
          "type": "uint256"
        },
        {
          "indexed": false,
          "internalType": "uint256",
          "name": "matchCount",
          "type": "uint256"
        }
      ],
      "name": "AuctionSettled",
      "type": "event"
    },
    {
      "anonymous": false,
      "inputs": [
        {
          "indexed": true,
          "internalType": "uint256",
          "name": "orderId",
          "type": "uint256"
        },
        {
          "indexed": true,
          "internalType": "address",
          "name": "trader",
          "type": "address"
        }
      ],
      "name": "OrderCancelled",
      "type": "event"
    },
    {
      "anonymous": false,
      "inputs": [
        {
          "indexed": true,
          "internalType": "uint256",
          "name": "orderId",
          "type": "uint256"
        },
        {
          "indexed": true,
          "internalType": "address",
          "name": "trader",
          "type": "address"
        },
        {
          "indexed": false,
          "internalType": "enum CarbonExchange.MarketType",
          "name": "marketType",
          "type": "uint8"
        },
        {
          "indexed": true,
          "internalType": "bytes32",
          "name": "marketKey",
          "type": "bytes32"
        },
        {
          "indexed": false,
          "internalType": "enum CarbonExchange.Side",
          "name": "side",
          "type": "uint8"
        },
        {
          "indexed": false,
          "internalType": "uint256",
          "name": "price",
          "type": "uint256"
        },
        {
          "indexed": false,
          "internalType": "uint256",
          "name": "amount",
          "type": "uint256"
        }
      ],
      "name": "OrderCreated",
      "type": "event"
    },
    {
      "anonymous": false,
      "inputs": [
        {
          "indexed": true,
          "internalType": "bytes32",
          "name": "role",
          "type": "bytes32"
        },
        {
          "indexed": true,
          "internalType": "bytes32",
          "name": "previousAdminRole",
          "type": "bytes32"
        },
        {
          "indexed": true,
          "internalType": "bytes32",
          "name": "newAdminRole",
          "type": "bytes32"
        }
      ],
      "name": "RoleAdminChanged",
      "type": "event"
    },
    {
      "anonymous": false,
      "inputs": [
        {
          "indexed": true,
          "internalType": "bytes32",
          "name": "role",
          "type": "bytes32"
        },
        {
          "indexed": true,
          "internalType": "address",
          "name": "account",
          "type": "address"
        },
        {
          "indexed": true,
          "internalType": "address",
          "name": "sender",
          "type": "address"
        }
      ],
      "name": "RoleGranted",
      "type": "event"
    },
    {
      "anonymous": false,
      "inputs": [
        {
          "indexed": true,
          "internalType": "bytes32",
          "name": "role",
          "type": "bytes32"
        },
        {
          "indexed": true,
          "internalType": "address",
          "name": "account",
          "type": "address"
        },
        {
          "indexed": true,
          "internalType": "address",
          "name": "sender",
          "type": "address"
        }
      ],
      "name": "RoleRevoked",
      "type": "event"
    },
    {
      "anonymous": false,
      "inputs": [
        {
          "indexed": true,
          "internalType": "uint256",
          "name": "buyOrderId",
          "type": "uint256"
        },
        {
          "indexed": true,
          "internalType": "uint256",
          "name": "sellOrderId",
          "type": "uint256"
        },
        {
          "indexed": true,
          "internalType": "bytes32",
          "name": "marketKey",
          "type": "bytes32"
        },
        {
          "indexed": false,
          "internalType": "uint256",
          "name": "clearingPrice",
          "type": "uint256"
        },
        {
          "indexed": false,
          "internalType": "uint256",
          "name": "amount",
          "type": "uint256"
        }
      ],
      "name": "TradeExecuted",
      "type": "event"
    },
    {
      "inputs": [],
      "name": "DEFAULT_ADMIN_ROLE",
      "outputs": [
        {
          "internalType": "bytes32",
          "name": "",
          "type": "bytes32"
        }
      ],
      "stateMutability": "view",
      "type": "function"
    },
    {
      "inputs": [],
      "name": "MATCHER_ROLE",
      "outputs": [
        {
          "internalType": "bytes32",
          "name": "",
          "type": "bytes32"
        }
      ],
      "stateMutability": "view",
      "type": "function"
    },
    {
      "inputs": [
        {
          "internalType": "uint256[]",
          "name": "orderIds",
          "type": "uint256[]"
        }
      ],
      "name": "batchCancelOrders",
      "outputs": [],
      "stateMutability": "nonpayable",
      "type": "function"
    },
    {
      "inputs": [
        {
          "internalType": "uint256",
          "name": "orderId",
          "type": "uint256"
        }
      ],
      "name": "cancelOrder",
      "outputs": [],
      "stateMutability": "nonpayable",
      "type": "function"
    },
    {
      "inputs": [
        {
          "internalType": "address",
          "name": "ptbaeToken",
          "type": "address"
        },
        {
          "internalType": "uint256",
          "name": "period",
          "type": "uint256"
        },
        {
          "internalType": "enum CarbonExchange.Side",
          "name": "side",
          "type": "uint8"
        },
        {
          "internalType": "uint256",
          "name": "price",
          "type": "uint256"
        },
        {
          "internalType": "uint256",
          "name": "amount",
          "type": "uint256"
        }
      ],
      "name": "createPTBAEOrder",
      "outputs": [
        {
          "internalType": "uint256",
          "name": "",
          "type": "uint256"
        }
      ],
      "stateMutability": "nonpayable",
      "type": "function"
    },
    {
      "inputs": [
        {
          "internalType": "uint256",
          "name": "tokenId",
          "type": "uint256"
        },
        {
          "internalType": "enum CarbonExchange.Side",
          "name": "side",
          "type": "uint8"
        },
        {
          "internalType": "uint256",
          "name": "price",
          "type": "uint256"
        },
        {
          "internalType": "uint256",
          "name": "amount",
          "type": "uint256"
        }
      ],
      "name": "createSPEOrder",
      "outputs": [
        {
          "internalType": "uint256",
          "name": "",
          "type": "uint256"
        }
      ],
      "stateMutability": "nonpayable",
      "type": "function"
    },
    {
      "inputs": [
        {
          "internalType": "uint256",
          "name": "",
          "type": "uint256"
        }
      ],
      "name": "escrowedAmount",
      "outputs": [
        {
          "internalType": "uint256",
          "name": "",
          "type": "uint256"
        }
      ],
      "stateMutability": "view",
      "type": "function"
    },
    {
      "inputs": [
        {
          "internalType": "uint256",
          "name": "orderId",
          "type": "uint256"
        }
      ],
      "name": "getOrder",
      "outputs": [
        {
          "components": [
            {
              "internalType": "uint256",
              "name": "id",
              "type": "uint256"
            },
            {
              "internalType": "address",
              "name": "trader",
              "type": "address"
            },
            {
              "internalType": "enum CarbonExchange.MarketType",
              "name": "marketType",
              "type": "uint8"
            },
            {
              "internalType": "bytes32",
              "name": "marketKey",
              "type": "bytes32"
            },
            {
              "internalType": "enum CarbonExchange.Side",
              "name": "side",
              "type": "uint8"
            },
            {
              "internalType": "uint256",
              "name": "tokenId",
              "type": "uint256"
            },
            {
              "internalType": "address",
              "name": "ptbaeToken",
              "type": "address"
            },
            {
              "internalType": "uint256",
              "name": "price",
              "type": "uint256"
            },
            {
              "internalType": "uint256",
              "name": "amount",
              "type": "uint256"
            },
            {
              "internalType": "uint256",
              "name": "filledAmount",
              "type": "uint256"
            },
            {
              "internalType": "bool",
              "name": "active",
              "type": "bool"
            },
            {
              "internalType": "uint256",
              "name": "createdAt",
              "type": "uint256"
            }
          ],
          "internalType": "struct CarbonExchange.Order",
          "name": "",
          "type": "tuple"
        }
      ],
      "stateMutability": "view",
      "type": "function"
    },
    {
      "inputs": [
        {
          "internalType": "uint256",
          "name": "period",
          "type": "uint256"
        }
      ],
      "name": "getPTBAEMarketKey",
      "outputs": [
        {
          "internalType": "bytes32",
          "name": "",
          "type": "bytes32"
        }
      ],
      "stateMutability": "pure",
      "type": "function"
    },
    {
      "inputs": [
        {
          "internalType": "uint256",
          "name": "orderId",
          "type": "uint256"
        }
      ],
      "name": "getRemainingAmount",
      "outputs": [
        {
          "internalType": "uint256",
          "name": "",
          "type": "uint256"
        }
      ],
      "stateMutability": "view",
      "type": "function"
    },
    {
      "inputs": [
        {
          "internalType": "bytes32",
          "name": "role",
          "type": "bytes32"
        }
      ],
      "name": "getRoleAdmin",
      "outputs": [
        {
          "internalType": "bytes32",
          "name": "",
          "type": "bytes32"
        }
      ],
      "stateMutability": "view",
      "type": "function"
    },
    {
      "inputs": [
        {
          "internalType": "uint256",
          "name": "tokenId",
          "type": "uint256"
        }
      ],
      "name": "getSPEMarketKey",
      "outputs": [
        {
          "internalType": "bytes32",
          "name": "",
          "type": "bytes32"
        }
      ],
      "stateMutability": "pure",
      "type": "function"
    },
    {
      "inputs": [
        {
          "internalType": "bytes32",
          "name": "role",
          "type": "bytes32"
        },
        {
          "internalType": "address",
          "name": "account",
          "type": "address"
        }
      ],
      "name": "grantRole",
      "outputs": [],
      "stateMutability": "nonpayable",
      "type": "function"
    },
    {
      "inputs": [
        {
          "internalType": "bytes32",
          "name": "role",
          "type": "bytes32"
        },
        {
          "internalType": "address",
          "name": "account",
          "type": "address"
        }
      ],
      "name": "hasRole",
      "outputs": [
        {
          "internalType": "bool",
          "name": "",
          "type": "bool"
        }
      ],
      "stateMutability": "view",
      "type": "function"
    },
    {
      "inputs": [],
      "name": "idrcToken",
      "outputs": [
        {
          "internalType": "contract IERC20",
          "name": "",
          "type": "address"
        }
      ],
      "stateMutability": "view",
      "type": "function"
    },
    {
      "inputs": [
        {
          "internalType": "address",
          "name": "forwarder",
          "type": "address"
        }
      ],
      "name": "isTrustedForwarder",
      "outputs": [
        {
          "internalType": "bool",
          "name": "",
          "type": "bool"
        }
      ],
      "stateMutability": "view",
      "type": "function"
    },
    {
      "inputs": [],
      "name": "nextOrderId",
      "outputs": [
        {
          "internalType": "uint256",
          "name": "",
          "type": "uint256"
        }
      ],
      "stateMutability": "view",
      "type": "function"
    },
    {
      "inputs": [
        {
          "internalType": "address",
          "name": "",
          "type": "address"
        },
        {
          "internalType": "address",
          "name": "",
          "type": "address"
        },
        {
          "internalType": "uint256[]",
          "name": "",
          "type": "uint256[]"
        },
        {
          "internalType": "uint256[]",
          "name": "",
          "type": "uint256[]"
        },
        {
          "internalType": "bytes",
          "name": "",
          "type": "bytes"
        }
      ],
      "name": "onERC1155BatchReceived",
      "outputs": [
        {
          "internalType": "bytes4",
          "name": "",
          "type": "bytes4"
        }
      ],
      "stateMutability": "nonpayable",
      "type": "function"
    },
    {
      "inputs": [
        {
          "internalType": "address",
          "name": "",
          "type": "address"
        },
        {
          "internalType": "address",
          "name": "",
          "type": "address"
        },
        {
          "internalType": "uint256",
          "name": "",
          "type": "uint256"
        },
        {
          "internalType": "uint256",
          "name": "",
          "type": "uint256"
        },
        {
          "internalType": "bytes",
          "name": "",
          "type": "bytes"
        }
      ],
      "name": "onERC1155Received",
      "outputs": [
        {
          "internalType": "bytes4",
          "name": "",
          "type": "bytes4"
        }
      ],
      "stateMutability": "nonpayable",
      "type": "function"
    },
    {
      "inputs": [
        {
          "internalType": "uint256",
          "name": "",
          "type": "uint256"
        }
      ],
      "name": "orders",
      "outputs": [
        {
          "internalType": "uint256",
          "name": "id",
          "type": "uint256"
        },
        {
          "internalType": "address",
          "name": "trader",
          "type": "address"
        },
        {
          "internalType": "enum CarbonExchange.MarketType",
          "name": "marketType",
          "type": "uint8"
        },
        {
          "internalType": "bytes32",
          "name": "marketKey",
          "type": "bytes32"
        },
        {
          "internalType": "enum CarbonExchange.Side",
          "name": "side",
          "type": "uint8"
        },
        {
          "internalType": "uint256",
          "name": "tokenId",
          "type": "uint256"
        },
        {
          "internalType": "address",
          "name": "ptbaeToken",
          "type": "address"
        },
        {
          "internalType": "uint256",
          "name": "price",
          "type": "uint256"
        },
        {
          "internalType": "uint256",
          "name": "amount",
          "type": "uint256"
        },
        {
          "internalType": "uint256",
          "name": "filledAmount",
          "type": "uint256"
        },
        {
          "internalType": "bool",
          "name": "active",
          "type": "bool"
        },
        {
          "internalType": "uint256",
          "name": "createdAt",
          "type": "uint256"
        }
      ],
      "stateMutability": "view",
      "type": "function"
    },
    {
      "inputs": [
        {
          "internalType": "bytes32",
          "name": "role",
          "type": "bytes32"
        },
        {
          "internalType": "address",
          "name": "callerConfirmation",
          "type": "address"
        }
      ],
      "name": "renounceRole",
      "outputs": [],
      "stateMutability": "nonpayable",
      "type": "function"
    },
    {
      "inputs": [
        {
          "internalType": "bytes32",
          "name": "role",
          "type": "bytes32"
        },
        {
          "internalType": "address",
          "name": "account",
          "type": "address"
        }
      ],
      "name": "revokeRole",
      "outputs": [],
      "stateMutability": "nonpayable",
      "type": "function"
    },
    {
      "inputs": [
        {
          "internalType": "bytes32",
          "name": "marketKey",
          "type": "bytes32"
        },
        {
          "internalType": "uint256",
          "name": "clearingPrice",
          "type": "uint256"
        },
        {
          "internalType": "uint256[]",
          "name": "buyOrderIds",
          "type": "uint256[]"
        },
        {
          "internalType": "uint256[]",
          "name": "sellOrderIds",
          "type": "uint256[]"
        },
        {
          "internalType": "uint256[]",
          "name": "tradeAmounts",
          "type": "uint256[]"
        }
      ],
      "name": "settleBatch",
      "outputs": [],
      "stateMutability": "nonpayable",
      "type": "function"
    },
    {
      "inputs": [],
      "name": "speToken",
      "outputs": [
        {
          "internalType": "contract IERC1155",
          "name": "",
          "type": "address"
        }
      ],
      "stateMutability": "view",
      "type": "function"
    },
    {
      "inputs": [
        {
          "internalType": "bytes4",
          "name": "interfaceId",
          "type": "bytes4"
        }
      ],
      "name": "supportsInterface",
      "outputs": [
        {
          "internalType": "bool",
          "name": "",
          "type": "bool"
        }
      ],
      "stateMutability": "view",
      "type": "function"
    },
    {
      "inputs": [],
      "name": "trustedForwarder",
      "outputs": [
        {
          "internalType": "address",
          "name": "",
          "type": "address"
        }
      ],
      "stateMutability": "view",
      "type": "function"
    }
  ],
  "bytecode": "0x60e060405260016002553480156200001657600080fd5b50604051620042d3380380620042d383398181016040528101906200003c919062000426565b828073ffffffffffffffffffffffffffffffffffffffff1660808173ffffffffffffffffffffffffffffffffffffffff168152505050600180819055506200008e6000801b856200013460201b60201c565b50620000c17fdf91394c13c48ebd5370100f1eb84afe3c6c47a78f9f9f874d5a9ec6afe0ae6b856200013460201b60201c565b508173ffffffffffffffffffffffffffffffffffffffff1660a08173ffffffffffffffffffffffffffffffffffffffff16815250508073ffffffffffffffffffffffffffffffffffffffff1660c08173ffffffffffffffffffffffffffffffffffffffff1681525050505050506200058d565b60006200014883836200023760201b60201c565b6200022c57600160008085815260200190815260200160002060000160008473ffffffffffffffffffffffffffffffffffffffff1673ffffffffffffffffffffffffffffffffffffffff16815260200190815260200160002060006101000a81548160ff021916908315150217905550620001c8620002a160201b60201c565b73ffffffffffffffffffffffffffffffffffffffff168273ffffffffffffffffffffffffffffffffffffffff16847f2f8788117e7eff1d82e926ec794901d17c78024a50270940304540a733656f0d60405160405180910390a46001905062000231565b600090505b92915050565b600080600084815260200190815260200160002060000160008373ffffffffffffffffffffffffffffffffffffffff1673ffffffffffffffffffffffffffffffffffffffff16815260200190815260200160002060009054906101000a900460ff16905092915050565b6000620002b3620002b860201b60201c565b905090565b600080600036905090506000620002d46200034360201b60201c565b9050808210158015620002f45750620002f3336200035a60201b60201c565b5b156200032b576000368284039080926200031193929190620004a2565b906200031e919062000527565b60601c9250505062000340565b6200033b620003a160201b60201c565b925050505b90565b600062000355620003a960201b60201c565b905090565b60006200036c620003b260201b60201c565b73ffffffffffffffffffffffffffffffffffffffff168273ffffffffffffffffffffffffffffffffffffffff16149050919050565b600033905090565b60006014905090565b6000608051905090565b600080fd5b600073ffffffffffffffffffffffffffffffffffffffff82169050919050565b6000620003ee82620003c1565b9050919050565b6200040081620003e1565b81146200040c57600080fd5b50565b6000815190506200042081620003f5565b92915050565b60008060008060808587031215620004435762000442620003bc565b5b600062000453878288016200040f565b945050602062000466878288016200040f565b935050604062000479878288016200040f565b92505060606200048c878288016200040f565b91505092959194509250565b600080fd5b600080fd5b60008085851115620004b957620004b862000498565b5b83861115620004cd57620004cc6200049d565b5b6001850283019150848603905094509492505050565b600082905092915050565b60007fffffffffffffffffffffffffffffffffffffffff00000000000000000000000082169050919050565b600082821b905092915050565b6000620005358383620004e3565b82620005428135620004ee565b925060148210156200058557620005807fffffffffffffffffffffffffffffffffffffffff000000000000000000000000836014036008026200051a565b831692505b505092915050565b60805160a05160c051613cd062000603600039600081816105ae0152818161095c01528181610cae01528181611fa901526124800152600081816108d301528181610c49015281816112f40152818161180b01528181611f20015281816125db0152612688015260006110600152613cd06000f3fe608060405234801561001057600080fd5b506004361061018e5760003560e01c80638ff8867f116100de578063bc197c8111610097578063d547741f11610071578063d547741f14610502578063d9f7ccc11461051e578063f23a6e611461053a578063f6252ff21461056a5761018e565b8063bc197c8114610484578063d09ef241146104b4578063d1b072c4146104e45761018e565b80638ff8867f1461037d57806391d14854146103ad578063a217fddf146103dd578063a85c38ef146103fb578063ab03c92f14610436578063b2194ff5146104665761018e565b80632f2ff15d1161014b578063572b6c0511610125578063572b6c05146102e35780636438e9c4146103135780637d4feb72146103435780637da0a8771461035f5761018e565b80632f2ff15d1461028f57806336568abe146102ab578063514fcac7146102c75761018e565b806301ffc9a7146101935780630680a20e146101c35780630f55e9f2146101e157806322129e6914610211578063248a9ca3146102415780632a58b33014610271575b600080fd5b6101ad60048036038101906101a89190612a9e565b61059a565b6040516101ba9190612ae6565b60405180910390f35b6101cb6105ac565b6040516101d89190612b80565b60405180910390f35b6101fb60048036038101906101f69190612bd1565b6105d0565b6040516102089190612c0d565b60405180910390f35b61022b60048036038101906102269190612bd1565b6105e8565b6040516102389190612c41565b60405180910390f35b61025b60048036038101906102569190612c88565b610618565b6040516102689190612c41565b60405180910390f35b610279610637565b6040516102869190612c0d565b60405180910390f35b6102a960048036038101906102a49190612cf3565b61063d565b005b6102c560048036038101906102c09190612cf3565b61065f565b005b6102e160048036038101906102dc9190612bd1565b6106da565b005b6102fd60048036038101906102f89190612d33565b610b02565b60405161030a9190612ae6565b60405180910390f35b61032d60048036038101906103289190612d85565b610b41565b60405161033a9190612c0d565b60405180910390f35b61035d60048036038101906103589190612e51565b610fd9565b005b61036761105c565b6040516103749190612ead565b60405180910390f35b61039760048036038101906103929190612bd1565b611084565b6040516103a49190612c41565b60405180910390f35b6103c760048036038101906103c29190612cf3565b6110b4565b6040516103d49190612ae6565b60405180910390f35b6103e561111e565b6040516103f29190612c41565b60405180910390f35b61041560048036038101906104109190612bd1565b611125565b60405161042d9c9b9a99989796959493929190612f87565b60405180910390f35b610450600480360381019061044b9190613041565b6111ec565b60405161045d9190612c0d565b60405180910390f35b61046e61161f565b60405161047b9190612c41565b60405180910390f35b61049e600480360381019061049991906132c0565b611643565b6040516104ab919061339e565b60405180910390f35b6104ce60048036038101906104c99190612bd1565b611658565b6040516104db9190613509565b60405180910390f35b6104ec611809565b6040516104f99190613546565b60405180910390f35b61051c60048036038101906105179190612cf3565b61182d565b005b61053860048036038101906105339190613561565b61184f565b005b610554600480360381019061054f919061363d565b6119ce565b604051610561919061339e565b60405180910390f35b610584600480360381019061057f9190612bd1565b6119e3565b6040516105919190612c0d565b60405180910390f35b60006105a582611a38565b9050919050565b7f000000000000000000000000000000000000000000000000000000000000000081565b60046020528060005260406000206000915090505481565b6000816040516020016105fb9190613731565b604051602081830303815290604052805190602001209050919050565b6000806000838152602001908152602001600020600101549050919050565b60025481565b61064682610618565b61064f81611ab2565b6106598383611ac6565b50505050565b610667611bb7565b73ffffffffffffffffffffffffffffffffffffffff168173ffffffffffffffffffffffffffffffffffffffff16146106cb576040517f6697b23200000000000000000000000000000000000000000000000000000000815260040160405180910390fd5b6106d58282611bc6565b505050565b6106e2611cb8565b60006003600083815260200190815260200160002090506000816000015403610737576040517fd36d896500000000000000000000000000000000000000000000000000000000815260040160405180910390fd5b8060090160009054906101000a900460ff1661077f576040517f1d4ecc5b00000000000000000000000000000000000000000000000000000000815260040160405180910390fd5b610787611bb7565b73ffffffffffffffffffffffffffffffffffffffff168160010160009054906101000a900473ffffffffffffffffffffffffffffffffffffffff1673ffffffffffffffffffffffffffffffffffffffff161461080f576040517ff6412b5a00000000000000000000000000000000000000000000000000000000815260040160405180910390fd5b60008160090160006101000a81548160ff021916908315150217905550600081600801548260070154610842919061378e565b90506000600181111561085857610857612ec8565b5b8260030160009054906101000a900460ff16600181111561087c5761087b612ec8565b5b0361091d576000670de0b6b3a764000082846006015461089c91906137c2565b6108a69190613833565b90506109178360010160009054906101000a900473ffffffffffffffffffffffffffffffffffffffff16827f000000000000000000000000000000000000000000000000000000000000000073ffffffffffffffffffffffffffffffffffffffff16611cfe9092919063ffffffff16565b50610a8d565b6000600181111561093157610930612ec8565b5b8260010160149054906101000a900460ff16600181111561095557610954612ec8565b5b03610a18577f000000000000000000000000000000000000000000000000000000000000000073ffffffffffffffffffffffffffffffffffffffff1663f242432a308460010160009054906101000a900473ffffffffffffffffffffffffffffffffffffffff168560040154856040518563ffffffff1660e01b81526004016109e1949392919061389b565b600060405180830381600087803b1580156109fb57600080fd5b505af1158015610a0f573d6000803e3d6000fd5b50505050610a8c565b610a8b8260010160009054906101000a900473ffffffffffffffffffffffffffffffffffffffff16828460050160009054906101000a900473ffffffffffffffffffffffffffffffffffffffff1673ffffffffffffffffffffffffffffffffffffffff16611cfe9092919063ffffffff16565b5b5b8160010160009054906101000a900473ffffffffffffffffffffffffffffffffffffffff1673ffffffffffffffffffffffffffffffffffffffff16837fc0362da6f2ff36b382b34aec0814f6b3cdf89f5ef282a1d1f114d0c0b036d59660405160405180910390a35050610aff611d7d565b50565b6000610b0c61105c565b73ffffffffffffffffffffffffffffffffffffffff168273ffffffffffffffffffffffffffffffffffffffff16149050919050565b6000610b4b611cb8565b60008203610b85576040517f2c5211c600000000000000000000000000000000000000000000000000000000815260040160405180910390fd5b60008303610bbe576040517ebfc92100000000000000000000000000000000000000000000000000000000815260040160405180910390fd5b6000610bc9866105e8565b90506000610bd5611bb7565b9050600060026000815480929190610bec906138f3565b91905055905060006001811115610c0657610c05612ec8565b5b876001811115610c1957610c18612ec8565b5b03610cac576000670de0b6b3a76400008688610c3591906137c2565b610c3f9190613833565b9050610c8e8330837f000000000000000000000000000000000000000000000000000000000000000073ffffffffffffffffffffffffffffffffffffffff16611d86909392919063ffffffff16565b80600460008481526020019081526020016000208190555050610d56565b7f000000000000000000000000000000000000000000000000000000000000000073ffffffffffffffffffffffffffffffffffffffff1663f242432a83308b896040518563ffffffff1660e01b8152600401610d0b949392919061389b565b600060405180830381600087803b158015610d2557600080fd5b505af1158015610d39573d6000803e3d6000fd5b505050508460046000838152602001908152602001600020819055505b6040518061018001604052808281526020018373ffffffffffffffffffffffffffffffffffffffff16815260200160006001811115610d9857610d97612ec8565b5b8152602001848152602001886001811115610db657610db5612ec8565b5b8152602001898152602001600073ffffffffffffffffffffffffffffffffffffffff1681526020018781526020018681526020016000815260200160011515815260200142815250600360008381526020019081526020016000206000820151816000015560208201518160010160006101000a81548173ffffffffffffffffffffffffffffffffffffffff021916908373ffffffffffffffffffffffffffffffffffffffff16021790555060408201518160010160146101000a81548160ff02191690836001811115610e8d57610e8c612ec8565b5b02179055506060820151816002015560808201518160030160006101000a81548160ff02191690836001811115610ec757610ec6612ec8565b5b021790555060a0820151816004015560c08201518160050160006101000a81548173ffffffffffffffffffffffffffffffffffffffff021916908373ffffffffffffffffffffffffffffffffffffffff16021790555060e08201518160060155610100820151816007015561012082015181600801556101408201518160090160006101000a81548160ff02191690831515021790555061016082015181600a0155905050828273ffffffffffffffffffffffffffffffffffffffff16827f9b6371b802f8cd15d59d1a75d1091eb872d79e61297047ff7e4bff1db2d4519160008b8b8b604051610fbb949392919061393b565b60405180910390a4809350505050610fd1611d7d565b949350505050565b610fe1611cb8565b7fdf91394c13c48ebd5370100f1eb84afe3c6c47a78f9f9f874d5a9ec6afe0ae6b61100b81611ab2565b60005b8383905081101561104e5761103b84848381811061102f5761102e613980565b5b90506020020135611e08565b8080611046906138f3565b91505061100e565b5050611058611d7d565b5050565b60007f0000000000000000000000000000000000000000000000000000000000000000905090565b60008160405160200161109791906139fb565b604051602081830303815290604052805190602001209050919050565b600080600084815260200190815260200160002060000160008373ffffffffffffffffffffffffffffffffffffffff1673ffffffffffffffffffffffffffffffffffffffff16815260200190815260200160002060009054906101000a900460ff16905092915050565b6000801b81565b60036020528060005260406000206000915090508060000154908060010160009054906101000a900473ffffffffffffffffffffffffffffffffffffffff16908060010160149054906101000a900460ff16908060020154908060030160009054906101000a900460ff16908060040154908060050160009054906101000a900473ffffffffffffffffffffffffffffffffffffffff16908060060154908060070154908060080154908060090160009054906101000a900460ff169080600a015490508c565b60006111f6611cb8565b60008203611230576040517f2c5211c600000000000000000000000000000000000000000000000000000000815260040160405180910390fd5b60008303611269576040517ebfc92100000000000000000000000000000000000000000000000000000000815260040160405180910390fd5b600061127486611084565b90506000611280611bb7565b9050600060026000815480929190611297906138f3565b919050559050600060018111156112b1576112b0612ec8565b5b8760018111156112c4576112c3612ec8565b5b03611357576000670de0b6b3a764000086886112e091906137c2565b6112ea9190613833565b90506113398330837f000000000000000000000000000000000000000000000000000000000000000073ffffffffffffffffffffffffffffffffffffffff16611d86909392919063ffffffff16565b8060046000848152602001908152602001600020819055505061139d565b6113848230878c73ffffffffffffffffffffffffffffffffffffffff16611d86909392919063ffffffff16565b8460046000838152602001908152602001600020819055505b6040518061018001604052808281526020018373ffffffffffffffffffffffffffffffffffffffff1681526020016001808111156113de576113dd612ec8565b5b81526020018481526020018860018111156113fc576113fb612ec8565b5b81526020018981526020018a73ffffffffffffffffffffffffffffffffffffffff1681526020018781526020018681526020016000815260200160011515815260200142815250600360008381526020019081526020016000206000820151816000015560208201518160010160006101000a81548173ffffffffffffffffffffffffffffffffffffffff021916908373ffffffffffffffffffffffffffffffffffffffff16021790555060408201518160010160146101000a81548160ff021916908360018111156114d2576114d1612ec8565b5b02179055506060820151816002015560808201518160030160006101000a81548160ff0219169083600181111561150c5761150b612ec8565b5b021790555060a0820151816004015560c08201518160050160006101000a81548173ffffffffffffffffffffffffffffffffffffffff021916908373ffffffffffffffffffffffffffffffffffffffff16021790555060e08201518160060155610100820151816007015561012082015181600801556101408201518160090160006101000a81548160ff02191690831515021790555061016082015181600a0155905050828273ffffffffffffffffffffffffffffffffffffffff16827f9b6371b802f8cd15d59d1a75d1091eb872d79e61297047ff7e4bff1db2d4519160018b8b8b604051611600949392919061393b565b60405180910390a4809350505050611616611d7d565b95945050505050565b7fdf91394c13c48ebd5370100f1eb84afe3c6c47a78f9f9f874d5a9ec6afe0ae6b81565b600063bc197c8160e01b905095945050505050565b61166061297c565b6003600083815260200190815260200160002060405180610180016040529081600082015481526020016001820160009054906101000a900473ffffffffffffffffffffffffffffffffffffffff1673ffffffffffffffffffffffffffffffffffffffff1673ffffffffffffffffffffffffffffffffffffffff1681526020016001820160149054906101000a900460ff16600181111561170457611703612ec8565b5b600181111561171657611715612ec8565b5b8152602001600282015481526020016003820160009054906101000a900460ff16600181111561174957611748612ec8565b5b600181111561175b5761175a612ec8565b5b8152602001600482015481526020016005820160009054906101000a900473ffffffffffffffffffffffffffffffffffffffff1673ffffffffffffffffffffffffffffffffffffffff1673ffffffffffffffffffffffffffffffffffffffff1681526020016006820154815260200160078201548152602001600882015481526020016009820160009054906101000a900460ff16151515158152602001600a820154815250509050919050565b7f000000000000000000000000000000000000000000000000000000000000000081565b61183682610618565b61183f81611ab2565b6118498383611bc6565b50505050565b611857611cb8565b7fdf91394c13c48ebd5370100f1eb84afe3c6c47a78f9f9f874d5a9ec6afe0ae6b61188181611ab2565b848490508787905014801561189b57508282905085859050145b6118da576040517f08c379a00000000000000000000000000000000000000000000000000000000081526004016118d190613a75565b60405180910390fd5b6000805b8888905081101561197a576119408989838181106118ff576118fe613980565b5b9050602002013588888481811061191957611918613980565b5b9050602002013587878581811061193357611932613980565b5b905060200201358d612148565b84848281811061195357611952613980565b5b90506020020135826119659190613a95565b91508080611972906138f3565b9150506118de565b50897fe0d52745f670b3e6aa749837327ba5887ab750b6f56a0aab947241c6d4002b358a838b8b90506040516119b293929190613ac9565b60405180910390a250506119c4611d7d565b5050505050505050565b600063f23a6e6160e01b905095945050505050565b6000806003600084815260200190815260200160002090508060090160009054906101000a900460ff16611a1b576000915050611a33565b80600801548160070154611a2f919061378e565b9150505b919050565b60007f4e2312e0000000000000000000000000000000000000000000000000000000007bffffffffffffffffffffffffffffffffffffffffffffffffffffffff1916827bffffffffffffffffffffffffffffffffffffffffffffffffffffffff19161480611aab5750611aaa82612719565b5b9050919050565b611ac381611abe611bb7565b612793565b50565b6000611ad283836110b4565b611bac57600160008085815260200190815260200160002060000160008473ffffffffffffffffffffffffffffffffffffffff1673ffffffffffffffffffffffffffffffffffffffff16815260200190815260200160002060006101000a81548160ff021916908315150217905550611b49611bb7565b73ffffffffffffffffffffffffffffffffffffffff168273ffffffffffffffffffffffffffffffffffffffff16847f2f8788117e7eff1d82e926ec794901d17c78024a50270940304540a733656f0d60405160405180910390a460019050611bb1565b600090505b92915050565b6000611bc16127e4565b905090565b6000611bd283836110b4565b15611cad57600080600085815260200190815260200160002060000160008473ffffffffffffffffffffffffffffffffffffffff1673ffffffffffffffffffffffffffffffffffffffff16815260200190815260200160002060006101000a81548160ff021916908315150217905550611c4a611bb7565b73ffffffffffffffffffffffffffffffffffffffff168273ffffffffffffffffffffffffffffffffffffffff16847ff6391f5c32d9c69d2a47ea670b442974b53935d1edc7fd64eb21e047a839171b60405160405180910390a460019050611cb2565b600090505b92915050565b600260015403611cf4576040517f3ee5aeb500000000000000000000000000000000000000000000000000000000815260040160405180910390fd5b6002600181905550565b611d78838473ffffffffffffffffffffffffffffffffffffffff1663a9059cbb8585604051602401611d31929190613b00565b604051602081830303815290604052915060e01b6020820180517bffffffffffffffffffffffffffffffffffffffffffffffffffffffff8381831617835250505050612850565b505050565b60018081905550565b611e02848573ffffffffffffffffffffffffffffffffffffffff166323b872dd868686604051602401611dbb93929190613b29565b604051602081830303815290604052915060e01b6020820180517bffffffffffffffffffffffffffffffffffffffffffffffffffffffff8381831617835250505050612850565b50505050565b60006003600083815260200190815260200160002090506000816000015403611e315750612145565b8060090160009054906101000a900460ff16611e4d5750612145565b60008160090160006101000a81548160ff021916908315150217905550600081600801548260070154611e80919061378e565b905060008103611e91575050612145565b60006001811115611ea557611ea4612ec8565b5b8260030160009054906101000a900460ff166001811115611ec957611ec8612ec8565b5b03611f6a576000670de0b6b3a7640000828460060154611ee991906137c2565b611ef39190613833565b9050611f648360010160009054906101000a900473ffffffffffffffffffffffffffffffffffffffff16827f000000000000000000000000000000000000000000000000000000000000000073ffffffffffffffffffffffffffffffffffffffff16611cfe9092919063ffffffff16565b506120da565b60006001811115611f7e57611f7d612ec8565b5b8260010160149054906101000a900460ff166001811115611fa257611fa1612ec8565b5b03612065577f000000000000000000000000000000000000000000000000000000000000000073ffffffffffffffffffffffffffffffffffffffff1663f242432a308460010160009054906101000a900473ffffffffffffffffffffffffffffffffffffffff168560040154856040518563ffffffff1660e01b815260040161202e949392919061389b565b600060405180830381600087803b15801561204857600080fd5b505af115801561205c573d6000803e3d6000fd5b505050506120d9565b6120d88260010160009054906101000a900473ffffffffffffffffffffffffffffffffffffffff16828460050160009054906101000a900473ffffffffffffffffffffffffffffffffffffffff1673ffffffffffffffffffffffffffffffffffffffff16611cfe9092919063ffffffff16565b5b5b8160010160009054906101000a900473ffffffffffffffffffffffffffffffffffffffff1673ffffffffffffffffffffffffffffffffffffffff16837fc0362da6f2ff36b382b34aec0814f6b3cdf89f5ef282a1d1f114d0c0b036d59660405160405180910390a350505b50565b6000600360008681526020019081526020016000209050600060036000868152602001908152602001600020905060008260000154148061218d575060008160000154145b156121c4576040517fd36d896500000000000000000000000000000000000000000000000000000000815260040160405180910390fd5b8160090160009054906101000a900460ff1615806121f157508060090160009054906101000a900460ff16155b15612228576040517f1d4ecc5b00000000000000000000000000000000000000000000000000000000815260040160405180910390fd5b6000600181111561223c5761223b612ec8565b5b8260030160009054906101000a900460ff1660018111156122605761225f612ec8565b5b1415806122a2575060018081111561227b5761227a612ec8565b5b8160030160009054906101000a900460ff16600181111561229f5761229e612ec8565b5b14155b156122d9576040517f0f6723d900000000000000000000000000000000000000000000000000000000815260040160405180910390fd5b806002015482600201541461231a576040517f2c7d83fd00000000000000000000000000000000000000000000000000000000815260040160405180910390fd5b600082600801548360070154612330919061378e565b9050600082600801548360070154612348919061378e565b90508186118061235757508086115b1561238e576040517f2c5211c600000000000000000000000000000000000000000000000000000000815260040160405180910390fd5b6000670de0b6b3a764000087876123a591906137c2565b6123af9190613833565b9050868560080160008282546123c59190613a95565b92505081905550868460080160008282546123e09190613a95565b9250508190555084600701548560080154106124145760008560090160006101000a81548160ff0219169083151502179055505b83600701548460080154106124415760008460090160006101000a81548160ff0219169083151502179055505b6000600181111561245557612454612ec8565b5b8560010160149054906101000a900460ff16600181111561247957612478612ec8565b5b0361253c577f000000000000000000000000000000000000000000000000000000000000000073ffffffffffffffffffffffffffffffffffffffff1663f242432a308760010160009054906101000a900473ffffffffffffffffffffffffffffffffffffffff1688600401548b6040518563ffffffff1660e01b8152600401612505949392919061389b565b600060405180830381600087803b15801561251f57600080fd5b505af1158015612533573d6000803e3d6000fd5b505050506125b0565b6125af8560010160009054906101000a900473ffffffffffffffffffffffffffffffffffffffff16888660050160009054906101000a900473ffffffffffffffffffffffffffffffffffffffff1673ffffffffffffffffffffffffffffffffffffffff16611cfe9092919063ffffffff16565b5b61261f8460010160009054906101000a900473ffffffffffffffffffffffffffffffffffffffff16827f000000000000000000000000000000000000000000000000000000000000000073ffffffffffffffffffffffffffffffffffffffff16611cfe9092919063ffffffff16565b85856006015411156126ce576000670de0b6b3a764000088888860060154612647919061378e565b61265191906137c2565b61265b9190613833565b90506126cc8660010160009054906101000a900473ffffffffffffffffffffffffffffffffffffffff16827f000000000000000000000000000000000000000000000000000000000000000073ffffffffffffffffffffffffffffffffffffffff16611cfe9092919063ffffffff16565b505b8460020154888a7fa6fb9cb0a5a82578a1e0461ba72efa44673c350c0e32a724e6a5555ebeb627f7898b604051612706929190613b60565b60405180910390a4505050505050505050565b60007f7965db0b000000000000000000000000000000000000000000000000000000007bffffffffffffffffffffffffffffffffffffffffffffffffffffffff1916827bffffffffffffffffffffffffffffffffffffffffffffffffffffffff1916148061278c575061278b826128f2565b5b9050919050565b61279d82826110b4565b6127e05780826040517fe2517d3f0000000000000000000000000000000000000000000000000000000081526004016127d7929190613b89565b60405180910390fd5b5050565b6000806000369050905060006127f861295c565b905080821015801561280f575061280e33610b02565b5b156128405760003682840390809261282993929190613bbc565b906128349190613c3b565b60601c9250505061284d565b61284861296b565b925050505b90565b600080602060008451602086016000885af180612873576040513d6000823e3d81fd5b3d92506000519150506000821461288e5760018114156128aa565b60008473ffffffffffffffffffffffffffffffffffffffff163b145b156128ec57836040517f5274afe70000000000000000000000000000000000000000000000000000000081526004016128e39190612ead565b60405180910390fd5b50505050565b60007f01ffc9a7000000000000000000000000000000000000000000000000000000007bffffffffffffffffffffffffffffffffffffffffffffffffffffffff1916827bffffffffffffffffffffffffffffffffffffffffffffffffffffffff1916149050919050565b6000612966612973565b905090565b600033905090565b60006014905090565b60405180610180016040528060008152602001600073ffffffffffffffffffffffffffffffffffffffff168152602001600060018111156129c0576129bf612ec8565b5b815260200160008019168152602001600060018111156129e3576129e2612ec8565b5b815260200160008152602001600073ffffffffffffffffffffffffffffffffffffffff168152602001600081526020016000815260200160008152602001600015158152602001600081525090565b6000604051905090565b600080fd5b600080fd5b60007fffffffff0000000000000000000000000000000000000000000000000000000082169050919050565b612a7b81612a46565b8114612a8657600080fd5b50565b600081359050612a9881612a72565b92915050565b600060208284031215612ab457612ab3612a3c565b5b6000612ac284828501612a89565b91505092915050565b60008115159050919050565b612ae081612acb565b82525050565b6000602082019050612afb6000830184612ad7565b92915050565b600073ffffffffffffffffffffffffffffffffffffffff82169050919050565b6000819050919050565b6000612b46612b41612b3c84612b01565b612b21565b612b01565b9050919050565b6000612b5882612b2b565b9050919050565b6000612b6a82612b4d565b9050919050565b612b7a81612b5f565b82525050565b6000602082019050612b956000830184612b71565b92915050565b6000819050919050565b612bae81612b9b565b8114612bb957600080fd5b50565b600081359050612bcb81612ba5565b92915050565b600060208284031215612be757612be6612a3c565b5b6000612bf584828501612bbc565b91505092915050565b612c0781612b9b565b82525050565b6000602082019050612c226000830184612bfe565b92915050565b6000819050919050565b612c3b81612c28565b82525050565b6000602082019050612c566000830184612c32565b92915050565b612c6581612c28565b8114612c7057600080fd5b50565b600081359050612c8281612c5c565b92915050565b600060208284031215612c9e57612c9d612a3c565b5b6000612cac84828501612c73565b91505092915050565b6000612cc082612b01565b9050919050565b612cd081612cb5565b8114612cdb57600080fd5b50565b600081359050612ced81612cc7565b92915050565b60008060408385031215612d0a57612d09612a3c565b5b6000612d1885828601612c73565b9250506020612d2985828601612cde565b9150509250929050565b600060208284031215612d4957612d48612a3c565b5b6000612d5784828501612cde565b91505092915050565b60028110612d6d57600080fd5b50565b600081359050612d7f81612d60565b92915050565b60008060008060808587031215612d9f57612d9e612a3c565b5b6000612dad87828801612bbc565b9450506020612dbe87828801612d70565b9350506040612dcf87828801612bbc565b9250506060612de087828801612bbc565b91505092959194509250565b600080fd5b600080fd5b600080fd5b60008083601f840112612e1157612e10612dec565b5b8235905067ffffffffffffffff811115612e2e57612e2d612df1565b5b602083019150836020820283011115612e4a57612e49612df6565b5b9250929050565b60008060208385031215612e6857612e67612a3c565b5b600083013567ffffffffffffffff811115612e8657612e85612a41565b5b612e9285828601612dfb565b92509250509250929050565b612ea781612cb5565b82525050565b6000602082019050612ec26000830184612e9e565b92915050565b7f4e487b7100000000000000000000000000000000000000000000000000000000600052602160045260246000fd5b60028110612f0857612f07612ec8565b5b50565b6000819050612f1982612ef7565b919050565b6000612f2982612f0b565b9050919050565b612f3981612f1e565b82525050565b60028110612f5057612f4f612ec8565b5b50565b6000819050612f6182612f3f565b919050565b6000612f7182612f53565b9050919050565b612f8181612f66565b82525050565b600061018082019050612f9d600083018f612bfe565b612faa602083018e612e9e565b612fb7604083018d612f30565b612fc4606083018c612c32565b612fd1608083018b612f78565b612fde60a083018a612bfe565b612feb60c0830189612e9e565b612ff860e0830188612bfe565b613006610100830187612bfe565b613014610120830186612bfe565b613022610140830185612ad7565b613030610160830184612bfe565b9d9c50505050505050505050505050565b600080600080600060a0868803121561305d5761305c612a3c565b5b600061306b88828901612cde565b955050602061307c88828901612bbc565b945050604061308d88828901612d70565b935050606061309e88828901612bbc565b92505060806130af88828901612bbc565b9150509295509295909350565b6000601f19601f8301169050919050565b7f4e487b7100000000000000000000000000000000000000000000000000000000600052604160045260246000fd5b613105826130bc565b810181811067ffffffffffffffff82111715613124576131236130cd565b5b80604052505050565b6000613137612a32565b905061314382826130fc565b919050565b600067ffffffffffffffff821115613163576131626130cd565b5b602082029050602081019050919050565b600061318761318284613148565b61312d565b905080838252602082019050602084028301858111156131aa576131a9612df6565b5b835b818110156131d357806131bf8882612bbc565b8452602084019350506020810190506131ac565b5050509392505050565b600082601f8301126131f2576131f1612dec565b5b8135613202848260208601613174565b91505092915050565b600080fd5b600067ffffffffffffffff82111561322b5761322a6130cd565b5b613234826130bc565b9050602081019050919050565b82818337600083830152505050565b600061326361325e84613210565b61312d565b90508281526020810184848401111561327f5761327e61320b565b5b61328a848285613241565b509392505050565b600082601f8301126132a7576132a6612dec565b5b81356132b7848260208601613250565b91505092915050565b600080600080600060a086880312156132dc576132db612a3c565b5b60006132ea88828901612cde565b95505060206132fb88828901612cde565b945050604086013567ffffffffffffffff81111561331c5761331b612a41565b5b613328888289016131dd565b935050606086013567ffffffffffffffff81111561334957613348612a41565b5b613355888289016131dd565b925050608086013567ffffffffffffffff81111561337657613375612a41565b5b61338288828901613292565b9150509295509295909350565b61339881612a46565b82525050565b60006020820190506133b3600083018461338f565b92915050565b6133c281612b9b565b82525050565b6133d181612cb5565b82525050565b6133e081612f1e565b82525050565b6133ef81612c28565b82525050565b6133fe81612f66565b82525050565b61340d81612acb565b82525050565b6101808201600082015161342a60008501826133b9565b50602082015161343d60208501826133c8565b50604082015161345060408501826133d7565b50606082015161346360608501826133e6565b50608082015161347660808501826133f5565b5060a082015161348960a08501826133b9565b5060c082015161349c60c08501826133c8565b5060e08201516134af60e08501826133b9565b506101008201516134c46101008501826133b9565b506101208201516134d96101208501826133b9565b506101408201516134ee610140850182613404565b506101608201516135036101608501826133b9565b50505050565b60006101808201905061351f6000830184613413565b92915050565b600061353082612b4d565b9050919050565b61354081613525565b82525050565b600060208201905061355b6000830184613537565b92915050565b60008060008060008060008060a0898b03121561358157613580612a3c565b5b600061358f8b828c01612c73565b98505060206135a08b828c01612bbc565b975050604089013567ffffffffffffffff8111156135c1576135c0612a41565b5b6135cd8b828c01612dfb565b9650965050606089013567ffffffffffffffff8111156135f0576135ef612a41565b5b6135fc8b828c01612dfb565b9450945050608089013567ffffffffffffffff81111561361f5761361e612a41565b5b61362b8b828c01612dfb565b92509250509295985092959890939650565b600080600080600060a0868803121561365957613658612a3c565b5b600061366788828901612cde565b955050602061367888828901612cde565b945050604061368988828901612bbc565b935050606061369a88828901612bbc565b925050608086013567ffffffffffffffff8111156136bb576136ba612a41565b5b6136c788828901613292565b9150509295509295909350565b600082825260208201905092915050565b7f5350450000000000000000000000000000000000000000000000000000000000600082015250565b600061371b6003836136d4565b9150613726826136e5565b602082019050919050565b6000604082019050818103600083015261374a8161370e565b90506137596020830184612bfe565b92915050565b7f4e487b7100000000000000000000000000000000000000000000000000000000600052601160045260246000fd5b600061379982612b9b565b91506137a483612b9b565b92508282039050818111156137bc576137bb61375f565b5b92915050565b60006137cd82612b9b565b91506137d883612b9b565b92508282026137e681612b9b565b915082820484148315176137fd576137fc61375f565b5b5092915050565b7f4e487b7100000000000000000000000000000000000000000000000000000000600052601260045260246000fd5b600061383e82612b9b565b915061384983612b9b565b92508261385957613858613804565b5b828204905092915050565b600082825260208201905092915050565b50565b6000613885600083613864565b915061389082613875565b600082019050919050565b600060a0820190506138b06000830187612e9e565b6138bd6020830186612e9e565b6138ca6040830185612bfe565b6138d76060830184612bfe565b81810360808301526138e881613878565b905095945050505050565b60006138fe82612b9b565b91507fffffffffffffffffffffffffffffffffffffffffffffffffffffffffffffffff82036139305761392f61375f565b5b600182019050919050565b60006080820190506139506000830187612f30565b61395d6020830186612f78565b61396a6040830185612bfe565b6139776060830184612bfe565b95945050505050565b7f4e487b7100000000000000000000000000000000000000000000000000000000600052603260045260246000fd5b7f5054424145000000000000000000000000000000000000000000000000000000600082015250565b60006139e56005836136d4565b91506139f0826139af565b602082019050919050565b60006040820190508181036000830152613a14816139d8565b9050613a236020830184612bfe565b92915050565b7f4172726179206c656e677468206d69736d617463680000000000000000000000600082015250565b6000613a5f6015836136d4565b9150613a6a82613a29565b602082019050919050565b60006020820190508181036000830152613a8e81613a52565b9050919050565b6000613aa082612b9b565b9150613aab83612b9b565b9250828201905080821115613ac357613ac261375f565b5b92915050565b6000606082019050613ade6000830186612bfe565b613aeb6020830185612bfe565b613af86040830184612bfe565b949350505050565b6000604082019050613b156000830185612e9e565b613b226020830184612bfe565b9392505050565b6000606082019050613b3e6000830186612e9e565b613b4b6020830185612e9e565b613b586040830184612bfe565b949350505050565b6000604082019050613b756000830185612bfe565b613b826020830184612bfe565b9392505050565b6000604082019050613b9e6000830185612e9e565b613bab6020830184612c32565b9392505050565b600080fd5b600080fd5b60008085851115613bd057613bcf613bb2565b5b83861115613be157613be0613bb7565b5b6001850283019150848603905094509492505050565b600082905092915050565b60007fffffffffffffffffffffffffffffffffffffffff00000000000000000000000082169050919050565b600082821b905092915050565b6000613c478383613bf7565b82613c528135613c02565b92506014821015613c9257613c8d7fffffffffffffffffffffffffffffffffffffffff00000000000000000000000083601403600802613c2e565b831692505b50509291505056fea2646970667358221220954b35c469553e824d83f0dc71d232f6d7373fd5a1cf275a23e8fcd06ec2c01264736f6c63430008140033",
  "linkReferences": {},
  "deployedLinkReferences": {}
}