{
  "_format": "hh-sol-artifact-1",
  "contractName": "CarbonExchange",
  "sourceName": "contracts/CarbonExchange.sol",
  "abi": [
    {
      "inputs": [
        {
          "internalType": "address",
          "name": "admin",
          "type": "address"
        },
        {
          "internalType": "address",
          "name": "trustedForwarder",
          "type": "address"
        },
        {
          "internalType": "address",
          "name": "_idrcToken",
          "type": "address"
        },
        {
          "internalType": "address",
          "name": "_speToken",
          "type": "address"
        }
      ],
      "stateMutability": "nonpayable",
      "type": "constructor"
    },
    {
      "inputs": [],
      "name": "AccessControlBadConfirmation",
      "type": "error"
    },
    {
      "inputs": [
        {
          "internalType": "address",
          "name": "account",
          "type": "address"
        },
        {
          "internalType": "bytes32",
          "name": "neededRole",
          "type": "bytes32"
        }
      ],
      "name": "AccessControlUnauthorizedAccount",
      "type": "error"
    },
    {
      "inputs": [],
      "name": "InsufficientBalance",
      "type": "error"
    },
    {
      "inputs": [],
      "name": "InvalidAmount",
      "type": "error"
    },
    {
      "inputs": [],
      "name": "InvalidPrice",
      "type": "error"
    },
    {
      "inputs": [],
      "name": "MarketMismatch",
      "type": "error"
    },
    {
      "inputs": [],
      "name": "NotOrderOwner",
      "type": "error"
    },
    {
      "inputs": [],
      "name": "OrderAlreadyFilled",
      "type": "error"
    },
    {
      "inputs": [],
      "name": "OrderNotActive",
      "type": "error"
    },
    {
      "inputs": [],
      "name": "OrderNotFound",
      "type": "error"
    },
    {
      "inputs": [],
      "name": "ReentrancyGuardReentrantCall",
      "type": "error"
    },
    {
      "inputs": [
        {
          "internalType": "address",
          "name": "token",
          "type": "address"
        }
      ],
      "name": "SafeERC20FailedOperation",
      "type": "error"
    },
    {
      "inputs": [],
      "name": "SameSideTrade",
      "type": "error"
    },
    {
      "anonymous": false,
      "inputs": [
        {
          "indexed": true,
          "internalType": "bytes32",
          "name": "marketKey",
          "type": "bytes32"
        },
        {
          "indexed": false,
          "internalType": "uint256",
          "name": "clearingPrice",
          "type": "uint256"
        },
        {
          "indexed": false,
          "internalType": "uint256",
          "name": "totalVolume",
          "type": "uint256"
        },
        {
          "indexed": false,
          "internalType": "uint256",
          "name": "matchCount",
          "type": "uint256"
        }
      ],
      "name": "AuctionSettled",
      "type": "event"
    },
    {
      "anonymous": false,
      "inputs": [
        {
          "indexed": true,
          "internalType": "uint256",
          "name": "orderId",
          "type": "uint256"
        },
        {
          "indexed": true,
          "internalType": "address",
          "name": "trader",
          "type": "address"
        }
      ],
      "name": "OrderCancelled",
      "type": "event"
    },
    {
      "anonymous": false,
      "inputs": [
        {
          "indexed": true,
          "internalType": "uint256",
          "name": "orderId",
          "type": "uint256"
        },
        {
          "indexed": true,
          "internalType": "address",
          "name": "trader",
          "type": "address"
        },
        {
          "indexed": false,
          "internalType": "enum CarbonExchange.MarketType",
          "name": "marketType",
          "type": "uint8"
        },
        {
          "indexed": true,
          "internalType": "bytes32",
          "name": "marketKey",
          "type": "bytes32"
        },
        {
          "indexed": false,
          "internalType": "enum CarbonExchange.Side",
          "name": "side",
          "type": "uint8"
        },
        {
          "indexed": false,
          "internalType": "uint256",
          "name": "price",
          "type": "uint256"
        },
        {
          "indexed": false,
          "internalType": "uint256",
          "name": "amount",
          "type": "uint256"
        }
      ],
      "name": "OrderCreated",
      "type": "event"
    },
    {
      "anonymous": false,
      "inputs": [
        {
          "indexed": true,
          "internalType": "bytes32",
          "name": "role",
          "type": "bytes32"
        },
        {
          "indexed": true,
          "internalType": "bytes32",
          "name": "previousAdminRole",
          "type": "bytes32"
        },
        {
          "indexed": true,
          "internalType": "bytes32",
          "name": "newAdminRole",
          "type": "bytes32"
        }
      ],
      "name": "RoleAdminChanged",
      "type": "event"
    },
    {
      "anonymous": false,
      "inputs": [
        {
          "indexed": true,
          "internalType": "bytes32",
          "name": "role",
          "type": "bytes32"
        },
        {
          "indexed": true,
          "internalType": "address",
          "name": "account",
          "type": "address"
        },
        {
          "indexed": true,
          "internalType": "address",
          "name": "sender",
          "type": "address"
        }
      ],
      "name": "RoleGranted",
      "type": "event"
    },
    {
      "anonymous": false,
      "inputs": [
        {
          "indexed": true,
          "internalType": "bytes32",
          "name": "role",
          "type": "bytes32"
        },
        {
          "indexed": true,
          "internalType": "address",
          "name": "account",
          "type": "address"
        },
        {
          "indexed": true,
          "internalType": "address",
          "name": "sender",
          "type": "address"
        }
      ],
      "name": "RoleRevoked",
      "type": "event"
    },
    {
      "anonymous": false,
      "inputs": [
        {
          "indexed": true,
          "internalType": "uint256",
          "name": "buyOrderId",
          "type": "uint256"
        },
        {
          "indexed": true,
          "internalType": "uint256",
          "name": "sellOrderId",
          "type": "uint256"
        },
        {
          "indexed": true,
          "internalType": "bytes32",
          "name": "marketKey",
          "type": "bytes32"
        },
        {
          "indexed": false,
          "internalType": "uint256",
          "name": "clearingPrice",
          "type": "uint256"
        },
        {
          "indexed": false,
          "internalType": "uint256",
          "name": "amount",
          "type": "uint256"
        }
      ],
      "name": "TradeExecuted",
      "type": "event"
    },
    {
      "inputs": [],
      "name": "DEFAULT_ADMIN_ROLE",
      "outputs": [
        {
          "internalType": "bytes32",
          "name": "",
          "type": "bytes32"
        }
      ],
      "stateMutability": "view",
      "type": "function"
    },
    {
      "inputs": [],
      "name": "MATCHER_ROLE",
      "outputs": [
        {
          "internalType": "bytes32",
          "name": "",
          "type": "bytes32"
        }
      ],
      "stateMutability": "view",
      "type": "function"
    },
    {
      "inputs": [
        {
          "internalType": "uint256[]",
          "name": "orderIds",
          "type": "uint256[]"
        }
      ],
      "name": "batchCancelOrders",
      "outputs": [],
      "stateMutability": "nonpayable",
      "type": "function"
    },
    {
      "inputs": [
        {
          "internalType": "uint256",
          "name": "orderId",
          "type": "uint256"
        }
      ],
      "name": "cancelOrder",
      "outputs": [],
      "stateMutability": "nonpayable",
      "type": "function"
    },
    {
      "inputs": [
        {
          "internalType": "address",
          "name": "ptbaeToken",
          "type": "address"
        },
        {
          "internalType": "uint256",
          "name": "period",
          "type": "uint256"
        },
        {
          "internalType": "enum CarbonExchange.Side",
          "name": "side",
          "type": "uint8"
        },
        {
          "internalType": "uint256",
          "name": "price",
          "type": "uint256"
        },
        {
          "internalType": "uint256",
          "name": "amount",
          "type": "uint256"
        }
      ],
      "name": "createPTBAEOrder",
      "outputs": [
        {
          "internalType": "uint256",
          "name": "",
          "type": "uint256"
        }
      ],
      "stateMutability": "nonpayable",
      "type": "function"
    },
    {
      "inputs": [
        {
          "internalType": "uint256",
          "name": "tokenId",
          "type": "uint256"
        },
        {
          "internalType": "enum CarbonExchange.Side",
          "name": "side",
          "type": "uint8"
        },
        {
          "internalType": "uint256",
          "name": "price",
          "type": "uint256"
        },
        {
          "internalType": "uint256",
          "name": "amount",
          "type": "uint256"
        }
      ],
      "name": "createSPEOrder",
      "outputs": [
        {
          "internalType": "uint256",
          "name": "",
          "type": "uint256"
        }
      ],
      "stateMutability": "nonpayable",
      "type": "function"
    },
    {
      "inputs": [
        {
          "internalType": "uint256",
          "name": "",
          "type": "uint256"
        }
      ],
      "name": "escrowedAmount",
      "outputs": [
        {
          "internalType": "uint256",
          "name": "",
          "type": "uint256"
        }
      ],
      "stateMutability": "view",
      "type": "function"
    },
    {
      "inputs": [
        {
          "internalType": "uint256",
          "name": "orderId",
          "type": "uint256"
        }
      ],
      "name": "getOrder",
      "outputs": [
        {
          "components": [
            {
              "internalType": "uint256",
              "name": "id",
              "type": "uint256"
            },
            {
              "internalType": "address",
              "name": "trader",
              "type": "address"
            },
            {
              "internalType": "enum CarbonExchange.MarketType",
              "name": "marketType",
              "type": "uint8"
            },
            {
              "internalType": "bytes32",
              "name": "marketKey",
              "type": "bytes32"
            },
            {
              "internalType": "enum CarbonExchange.Side",
              "name": "side",
              "type": "uint8"
            },
            {
              "internalType": "uint256",
              "name": "tokenId",
              "type": "uint256"
            },
            {
              "internalType": "address",
              "name": "ptbaeToken",
              "type": "address"
            },
            {
              "internalType": "uint256",
              "name": "price",
              "type": "uint256"
            },
            {
              "internalType": "uint256",
              "name": "amount",
              "type": "uint256"
            },
            {
              "internalType": "uint256",
              "name": "filledAmount",
              "type": "uint256"
            },
            {
              "internalType": "bool",
              "name": "active",
              "type": "bool"
            },
            {
              "internalType": "uint256",
              "name": "createdAt",
              "type": "uint256"
            }
          ],
          "internalType": "struct CarbonExchange.Order",
          "name": "",
          "type": "tuple"
        }
      ],
      "stateMutability": "view",
      "type": "function"
    },
    {
      "inputs": [
        {
          "internalType": "uint256",
          "name": "period",
          "type": "uint256"
        }
      ],
      "name": "getPTBAEMarketKey",
      "outputs": [
        {
          "internalType": "bytes32",
          "name": "",
          "type": "bytes32"
        }
      ],
      "stateMutability": "pure",
      "type": "function"
    },
    {
      "inputs": [
        {
          "internalType": "uint256",
          "name": "orderId",
          "type": "uint256"
        }
      ],
      "name": "getRemainingAmount",
      "outputs": [
        {
          "internalType": "uint256",
          "name": "",
          "type": "uint256"
        }
      ],
      "stateMutability": "view",
      "type": "function"
    },
    {
      "inputs": [
        {
          "internalType": "bytes32",
          "name": "role",
          "type": "bytes32"
        }
      ],
      "name": "getRoleAdmin",
      "outputs": [
        {
          "internalType": "bytes32",
          "name": "",
          "type": "bytes32"
        }
      ],
      "stateMutability": "view",
      "type": "function"
    },
    {
      "inputs": [
        {
          "internalType": "uint256",
          "name": "tokenId",
          "type": "uint256"
        }
      ],
      "name": "getSPEMarketKey",
      "outputs": [
        {
          "internalType": "bytes32",
          "name": "",
          "type": "bytes32"
        }
      ],
      "stateMutability": "pure",
      "type": "function"
    },
    {
      "inputs": [
        {
          "internalType": "bytes32",
          "name": "role",
          "type": "bytes32"
        },
        {
          "internalType": "address",
          "name": "account",
          "type": "address"
        }
      ],
      "name": "grantRole",
      "outputs": [],
      "stateMutability": "nonpayable",
      "type": "function"
    },
    {
      "inputs": [
        {
          "internalType": "bytes32",
          "name": "role",
          "type": "bytes32"
        },
        {
          "internalType": "address",
          "name": "account",
          "type": "address"
        }
      ],
      "name": "hasRole",
      "outputs": [
        {
          "internalType": "bool",
          "name": "",
          "type": "bool"
        }
      ],
      "stateMutability": "view",
      "type": "function"
    },
    {
      "inputs": [],
      "name": "idrcToken",
      "outputs": [
        {
          "internalType": "contract IERC20",
          "name": "",
          "type": "address"
        }
      ],
      "stateMutability": "view",
      "type": "function"
    },
    {
      "inputs": [
        {
          "internalType": "address",
          "name": "forwarder",
          "type": "address"
        }
      ],
      "name": "isTrustedForwarder",
      "outputs": [
        {
          "internalType": "bool",
          "name": "",
          "type": "bool"
        }
      ],
      "stateMutability": "view",
      "type": "function"
    },
    {
      "inputs": [],
      "name": "nextOrderId",
      "outputs": [
        {
          "internalType": "uint256",
          "name": "",
          "type": "uint256"
        }
      ],
      "stateMutability": "view",
      "type": "function"
    },
    {
      "inputs": [
        {
          "internalType": "address",
          "name": "",
          "type": "address"
        },
        {
          "internalType": "address",
          "name": "",
          "type": "address"
        },
        {
          "internalType": "uint256[]",
          "name": "",
          "type": "uint256[]"
        },
        {
          "internalType": "uint256[]",
          "name": "",
          "type": "uint256[]"
        },
        {
          "internalType": "bytes",
          "name": "",
          "type": "bytes"
        }
      ],
      "name": "onERC1155BatchReceived",
      "outputs": [
        {
          "internalType": "bytes4",
          "name": "",
          "type": "bytes4"
        }
      ],
      "stateMutability": "nonpayable",
      "type": "function"
    },
    {
      "inputs": [
        {
          "internalType": "address",
          "name": "",
          "type": "address"
        },
        {
          "internalType": "address",
          "name": "",
          "type": "address"
        },
        {
          "internalType": "uint256",
          "name": "",
          "type": "uint256"
        },
        {
          "internalType": "uint256",
          "name": "",
          "type": "uint256"
        },
        {
          "internalType": "bytes",
          "name": "",
          "type": "bytes"
        }
      ],
      "name": "onERC1155Received",
      "outputs": [
        {
          "internalType": "bytes4",
          "name": "",
          "type": "bytes4"
        }
      ],
      "stateMutability": "nonpayable",
      "type": "function"
    },
    {
      "inputs": [
        {
          "internalType": "uint256",
          "name": "",
          "type": "uint256"
        }
      ],
      "name": "orders",
      "outputs": [
        {
          "internalType": "uint256",
          "name": "id",
          "type": "uint256"
        },
        {
          "internalType": "address",
          "name": "trader",
          "type": "address"
        },
        {
          "internalType": "enum CarbonExchange.MarketType",
          "name": "marketType",
          "type": "uint8"
        },
        {
          "internalType": "bytes32",
          "name": "marketKey",
          "type": "bytes32"
        },
        {
          "internalType": "enum CarbonExchange.Side",
          "name": "side",
          "type": "uint8"
        },
        {
          "internalType": "uint256",
          "name": "tokenId",
          "type": "uint256"
        },
        {
          "internalType": "address",
          "name": "ptbaeToken",
          "type": "address"
        },
        {
          "internalType": "uint256",
          "name": "price",
          "type": "uint256"
        },
        {
          "internalType": "uint256",
          "name": "amount",
          "type": "uint256"
        },
        {
          "internalType": "uint256",
          "name": "filledAmount",
          "type": "uint256"
        },
        {
          "internalType": "bool",
          "name": "active",
          "type": "bool"
        },
        {
          "internalType": "uint256",
          "name": "createdAt",
          "type": "uint256"
        }
      ],
      "stateMutability": "view",
      "type": "function"
    },
    {
      "inputs": [
        {
          "internalType": "bytes32",
          "name": "role",
          "type": "bytes32"
        },
        {
          "internalType": "address",
          "name": "callerConfirmation",
          "type": "address"
        }
      ],
      "name": "renounceRole",
      "outputs": [],
      "stateMutability": "nonpayable",
      "type": "function"
    },
    {
      "inputs": [
        {
          "internalType": "bytes32",
          "name": "role",
          "type": "bytes32"
        },
        {
          "internalType": "address",
          "name": "account",
          "type": "address"
        }
      ],
      "name": "revokeRole",
      "outputs": [],
      "stateMutability": "nonpayable",
      "type": "function"
    },
    {
      "inputs": [
        {
          "internalType": "bytes32",
          "name": "marketKey",
          "type": "bytes32"
        },
        {
          "internalType": "uint256",
          "name": "clearingPrice",
          "type": "uint256"
        },
        {
          "internalType": "uint256[]",
          "name": "buyOrderIds",
          "type": "uint256[]"
        },
        {
          "internalType": "uint256[]",
          "name": "sellOrderIds",
          "type": "uint256[]"
        },
        {
          "internalType": "uint256[]",
          "name": "tradeAmounts",
          "type": "uint256[]"
        }
      ],
      "name": "settleBatch",
      "outputs": [],
      "stateMutability": "nonpayable",
      "type": "function"
    },
    {
      "inputs": [],
      "name": "speToken",
      "outputs": [
        {
          "internalType": "contract IERC1155",
          "name": "",
          "type": "address"
        }
      ],
      "stateMutability": "view",
      "type": "function"
    },
    {
      "inputs": [
        {
          "internalType": "bytes4",
          "name": "interfaceId",
          "type": "bytes4"
        }
      ],
      "name": "supportsInterface",
      "outputs": [
        {
          "internalType": "bool",
          "name": "",
          "type": "bool"
        }
      ],
      "stateMutability": "view",
      "type": "function"
    },
    {
      "inputs": [],
      "name": "trustedForwarder",
      "outputs": [
        {
          "internalType": "address",
          "name": "",
          "type": "address"
        }
      ],
      "stateMutability": "view",
      "type": "function"
    }
  ],
  "bytecode": "0x60e060405260016002553480156200001657600080fd5b5060405162002715380380620027158339810160408190526200003991620001f6565b6001600160a01b0383166080526001805562000057600085620000a0565b50620000847fdf91394c13c48ebd5370100f1eb84afe3c6c47a78f9f9f874d5a9ec6afe0ae6b85620000a0565b506001600160a01b0391821660a0521660c05250620002b09050565b6000828152602081815260408083206001600160a01b038516845290915281205460ff1662000147576000838152602081815260408083206001600160a01b03861684529091529020805460ff19166001179055620000fe62000151565b6001600160a01b0316826001600160a01b0316847f2f8788117e7eff1d82e926ec794901d17c78024a50270940304540a733656f0d60405160405180910390a45060016200014b565b5060005b92915050565b60006200015d62000162565b905090565b60003660148082108015906200017e57506200017e33620001b2565b15620001aa57620001953682840381600062000253565b620001a0916200027f565b60601c9250505090565b339250505090565b6000620001be60805190565b6001600160a01b0316826001600160a01b0316149050919050565b80516001600160a01b0381168114620001f157600080fd5b919050565b600080600080608085870312156200020d57600080fd5b6200021885620001d9565b93506200022860208601620001d9565b92506200023860408601620001d9565b91506200024860608601620001d9565b905092959194509250565b600080858511156200026457600080fd5b838611156200027257600080fd5b5050820193919092039150565b6001600160601b03198135818116916014851015620002a85780818660140360031b1b83161692505b505092915050565b60805160a05160c0516123e162000334600039600081816101c00152818161075b015281816109500152818161161c015261191f015260008181610489015281816106e3015281816108fd01528181610d4b015281816115a4015281816119c60152611a410152600081816102b20152818161030a0152611b3901526123e16000f3fe608060405234801561001057600080fd5b506004361061018e5760003560e01c80638ff8867f116100de578063bc197c8111610097578063d547741f11610071578063d547741f146104ab578063d9f7ccc1146104be578063f23a6e61146104d1578063f6252ff2146104f057600080fd5b8063bc197c811461042c578063d09ef24114610464578063d1b072c41461048457600080fd5b80638ff8867f1461032e57806391d1485414610341578063a217fddf14610354578063a85c38ef1461035c578063ab03c92f146103f2578063b2194ff51461040557600080fd5b80632f2ff15d1161014b578063572b6c0511610125578063572b6c05146102a25780636438e9c4146102e25780637d4feb72146102f55780637da0a8771461030857600080fd5b80632f2ff15d1461026757806336568abe1461027c578063514fcac71461028f57600080fd5b806301ffc9a7146101935780630680a20e146101bb5780630f55e9f2146101fa57806322129e6914610228578063248a9ca31461023b5780632a58b3301461025e575b600080fd5b6101a66101a1366004611c04565b610503565b60405190151581526020015b60405180910390f35b6101e27f000000000000000000000000000000000000000000000000000000000000000081565b6040516001600160a01b0390911681526020016101b2565b61021a610208366004611c2e565b60046020526000908152604090205481565b6040519081526020016101b2565b61021a610236366004611c2e565b610514565b61021a610249366004611c2e565b60009081526020819052604090206001015490565b61021a60025481565b61027a610275366004611c63565b61055c565b005b61027a61028a366004611c63565b610587565b61027a61029d366004611c2e565b6105cf565b6101a66102b0366004611c8f565b7f00000000000000000000000000000000000000000000000000000000000000006001600160a01b0390811691161490565b61021a6102f0366004611cb9565b610839565b61027a610303366004611d40565b610bae565b7f00000000000000000000000000000000000000000000000000000000000000006101e2565b61021a61033c366004611c2e565b610c2d565b6101a661034f366004611c63565b610c5e565b61021a600081565b6103da61036a366004611c2e565b600360208190526000918252604090912080546001820154600283015493830154600484015460058501546006860154600787015460088801546009890154600a9099015497996001600160a01b038089169a60ff600160a01b909a048a169a929998891698969091169516908c565b6040516101b29c9b9a99989796959493929190611dc3565b61021a610400366004611e42565b610c87565b61021a7fdf91394c13c48ebd5370100f1eb84afe3c6c47a78f9f9f874d5a9ec6afe0ae6b81565b61044b61043a366004611fc7565b63bc197c8160e01b95945050505050565b6040516001600160e01b031990911681526020016101b2565b610477610472366004611c2e565b610f90565b6040516101b29190612071565b6101e27f000000000000000000000000000000000000000000000000000000000000000081565b61027a6104b9366004611c63565b6110ed565b61027a6104cc36600461212a565b611112565b61044b6104df3660046121d7565b63f23a6e6160e01b95945050505050565b61021a6104fe366004611c2e565b61128c565b600061050e826112ca565b92915050565b6040805160208101829052600360608201526253504560e81b608082015290810182905260009060a0015b604051602081830303815290604052805190602001209050919050565b600082815260208190526040902060010154610577816112ef565b6105818383611300565b50505050565b61058f611393565b6001600160a01b0316816001600160a01b0316146105c05760405163334bd91960e11b815260040160405180910390fd5b6105ca82826113a2565b505050565b6105d761142b565b600081815260036020526040812080549091036106075760405163d36d896560e01b815260040160405180910390fd5b600981015460ff1661062c57604051631d4ecc5b60e01b815260040160405180910390fd5b610634611393565b60018201546001600160a01b0390811691161461066457604051637b2095ad60e11b815260040160405180910390fd5b60098101805460ff191690556008810154600782015460009161068691612252565b90506000600383015460ff1660018111156106a3576106a3611d82565b03610712576000670de0b6b3a76400008284600601546106c39190612265565b6106cd919061227c565b600184015490915061070c906001600160a01b037f00000000000000000000000000000000000000000000000000000000000000008116911683611455565b506107ef565b6000600183810154600160a01b900460ff169081111561073457610734611d82565b036107ce576001820154600480840154604051637921219560e11b81526001600160a01b037f000000000000000000000000000000000000000000000000000000000000000081169463f242432a9461079794309492909316929188910161229e565b600060405180830381600087803b1580156107b157600080fd5b505af11580156107c5573d6000803e3d6000fd5b505050506107ef565b600182015460058301546107ef916001600160a01b03918216911683611455565b60018201546040516001600160a01b039091169084907fc0362da6f2ff36b382b34aec0814f6b3cdf89f5ef282a1d1f114d0c0b036d59690600090a3505061083660018055565b50565b600061084361142b565b816000036108645760405163162908e360e11b815260040160405180910390fd5b826000036108845760405162bfc92160e01b815260040160405180910390fd5b600061088f86610514565b9050600061089b611393565b6002805491925060009190826108b0836122d6565b90915550905060008760018111156108ca576108ca611d82565b03610939576000670de0b6b3a76400006108e48789612265565b6108ee919061227c565b90506109256001600160a01b037f0000000000000000000000000000000000000000000000000000000000000000168430846114b4565b6000828152600460205260409020556109cf565b604051637921219560e11b81526001600160a01b037f0000000000000000000000000000000000000000000000000000000000000000169063f242432a9061098b90859030908d908b9060040161229e565b600060405180830381600087803b1580156109a557600080fd5b505af11580156109b9573d6000803e3d6000fd5b5050506000828152600460205260409020869055505b60408051610180810182528281526001600160a01b038416602082015290810160008152602001848152602001886001811115610a0e57610a0e611d82565b815260208082018b905260006040808401829052606084018b9052608084018a905260a08401829052600160c085018190524260e0909501949094528582526003835290819020845181559184015182840180546001600160a01b031981166001600160a01b03909316928317825592860151939490926001600160a81b03191690911790600160a01b908490811115610aaa57610aaa611d82565b021790555060608201516002820155608082015160038201805460ff191660018381811115610adb57610adb611d82565b021790555060a0820151600482015560c08201516005820180546001600160a01b0319166001600160a01b0392831617905560e083015160068301556101008301516007830155610120830151600883015561014083015160098301805460ff191691151591909117905561016090920151600a90910155604051849184169083907f9b6371b802f8cd15d59d1a75d1091eb872d79e61297047ff7e4bff1db2d4519190610b91906000908d908d908d906122ef565b60405180910390a492505050610ba660018055565b949350505050565b610bb661142b565b7fdf91394c13c48ebd5370100f1eb84afe3c6c47a78f9f9f874d5a9ec6afe0ae6b610be0816112ef565b60005b82811015610c1e57610c0c848483818110610c0057610c00612323565b905060200201356114ed565b80610c16816122d6565b915050610be3565b5050610c2960018055565b5050565b60408051602081018290526005606082015264505442414560d81b608082015290810182905260009060a00161053f565b6000918252602082815260408084206001600160a01b0393909316845291905290205460ff1690565b6000610c9161142b565b81600003610cb25760405163162908e360e11b815260040160405180910390fd5b82600003610cd25760405162bfc92160e01b815260040160405180910390fd5b6000610cdd86610c2d565b90506000610ce9611393565b600280549192506000919082610cfe836122d6565b9091555090506000876001811115610d1857610d18611d82565b03610d87576000670de0b6b3a7640000610d328789612265565b610d3c919061227c565b9050610d736001600160a01b037f0000000000000000000000000000000000000000000000000000000000000000168430846114b4565b600082815260046020526040902055610dae565b610d9c6001600160a01b038a168330886114b4565b60008181526004602052604090208590555b60408051610180810182528281526001600160a01b038416602082015290810160018152602001848152602001886001811115610ded57610ded611d82565b815260208082018b90526001600160a01b038c8116604080850191909152606084018b9052608084018a9052600060a08501819052600160c086018190524260e09096019590955286815260038452819020855181559285015183850180546001600160a01b0319811692909416918217815591860151939491926001600160a81b0319161790600160a01b908490811115610e8b57610e8b611d82565b021790555060608201516002820155608082015160038201805460ff191660018381811115610ebc57610ebc611d82565b021790555060a0820151600482015560c08201516005820180546001600160a01b0319166001600160a01b0392831617905560e083015160068301556101008301516007830155610120830151600883015561014083015160098301805460ff191691151591909117905561016090920151600a90910155604051849184169083907f9b6371b802f8cd15d59d1a75d1091eb872d79e61297047ff7e4bff1db2d4519190610f72906001908d908d908d906122ef565b60405180910390a492505050610f8760018055565b95945050505050565b60408051610180808201835260008083526020808401829052838501829052606084018290526080840182905260a0840182905260c0840182905260e084018290526101008401829052610120840182905261014084018290526101608401829052858252600381529084902084519283018552805483526001808201546001600160a01b03811693850193909352939492939092840191600160a01b900460ff169081111561104257611042611d82565b600181111561105357611053611d82565b815260028201546020820152600382015460409091019060ff16600181111561107e5761107e611d82565b600181111561108f5761108f611d82565b81526004820154602082015260058201546001600160a01b031660408201526006820154606082015260078201546080820152600882015460a0820152600982015460ff16151560c0820152600a9091015460e09091015292915050565b600082815260208190526040902060010154611108816112ef565b61058183836113a2565b61111a61142b565b7fdf91394c13c48ebd5370100f1eb84afe3c6c47a78f9f9f874d5a9ec6afe0ae6b611144816112ef565b858414801561115257508382145b61119b5760405162461bcd60e51b8152602060048201526015602482015274082e4e4c2f240d8cadccee8d040dad2e6dac2e8c6d605b1b60448201526064015b60405180910390fd5b6000805b87811015611233576111fb8989838181106111bc576111bc612323565b905060200201358888848181106111d5576111d5612323565b905060200201358787858181106111ee576111ee612323565b905060200201358d6116f1565b84848281811061120d5761120d612323565b905060200201358261121f9190612339565b91508061122b816122d6565b91505061119f565b50604080518a8152602081018390529081018890528a907fe0d52745f670b3e6aa749837327ba5887ab750b6f56a0aab947241c6d4002b359060600160405180910390a2505061128260018055565b5050505050505050565b6000818152600360205260408120600981015460ff166112af5750600092915050565b806008015481600701546112c39190612252565b9392505050565b60006001600160e01b03198216630271189760e51b148061050e575061050e82611ab9565b610836816112fb611393565b611aee565b600061130c8383610c5e565b61138b576000838152602081815260408083206001600160a01b03861684529091529020805460ff19166001179055611343611393565b6001600160a01b0316826001600160a01b0316847f2f8788117e7eff1d82e926ec794901d17c78024a50270940304540a733656f0d60405160405180910390a450600161050e565b50600061050e565b600061139d611b27565b905090565b60006113ae8383610c5e565b1561138b576000838152602081815260408083206001600160a01b03861684529091529020805460ff191690556113e3611393565b6001600160a01b0316826001600160a01b0316847ff6391f5c32d9c69d2a47ea670b442974b53935d1edc7fd64eb21e047a839171b60405160405180910390a450600161050e565b60026001540361144e57604051633ee5aeb560e01b815260040160405180910390fd5b6002600155565b6040516001600160a01b038381166024830152604482018390526105ca91859182169063a9059cbb906064015b604051602081830303815290604052915060e01b6020820180516001600160e01b038381831617835250505050611b93565b6040516001600160a01b0384811660248301528381166044830152606482018390526105819186918216906323b872dd90608401611482565b60008181526003602052604081208054909103611508575050565b600981015460ff16611518575050565b60098101805460ff191690556008810154600782015460009161153a91612252565b90508060000361154957505050565b6000600383015460ff16600181111561156457611564611d82565b036115d3576000670de0b6b3a76400008284600601546115849190612265565b61158e919061227c565b60018401549091506115cd906001600160a01b037f00000000000000000000000000000000000000000000000000000000000000008116911683611455565b506116b0565b6000600183810154600160a01b900460ff16908111156115f5576115f5611d82565b0361168f576001820154600480840154604051637921219560e11b81526001600160a01b037f000000000000000000000000000000000000000000000000000000000000000081169463f242432a9461165894309492909316929188910161229e565b600060405180830381600087803b15801561167257600080fd5b505af1158015611686573d6000803e3d6000fd5b505050506116b0565b600182015460058301546116b0916001600160a01b03918216911683611455565b60018201546040516001600160a01b039091169084907fc0362da6f2ff36b382b34aec0814f6b3cdf89f5ef282a1d1f114d0c0b036d59690600090a3505050565b60008481526003602052604080822085835291208154158061171257508054155b156117305760405163d36d896560e01b815260040160405180910390fd5b600982015460ff1615806117495750600981015460ff16155b1561176757604051631d4ecc5b60e01b815260040160405180910390fd5b6000600383015460ff16600181111561178257611782611d82565b1415806117a857506001600382015460ff1660018111156117a5576117a5611d82565b14155b156117c657604051630f6723d960e01b815260040160405180910390fd5b80600201548260020154146117ee57604051632c7d83fd60e01b815260040160405180910390fd5b6000826008015483600701546118049190612252565b905060008260080154836007015461181c9190612252565b90508186118061182b57508086115b156118495760405163162908e360e11b815260040160405180910390fd5b6000670de0b6b3a764000061185e8888612265565b611868919061227c565b90508685600801600082825461187e9190612339565b92505081905550868460080160008282546118999190612339565b909155505060078501546008860154106118ba5760098501805460ff191690555b83600701548460080154106118d65760098401805460ff191690555b6000600186810154600160a01b900460ff16908111156118f8576118f8611d82565b03611992576001850154600480870154604051637921219560e11b81526001600160a01b037f000000000000000000000000000000000000000000000000000000000000000081169463f242432a9461195b9430949290931692918e910161229e565b600060405180830381600087803b15801561197557600080fd5b505af1158015611989573d6000803e3d6000fd5b505050506119b3565b600185015460058501546119b3916001600160a01b03918216911689611455565b60018401546119ef906001600160a01b037f00000000000000000000000000000000000000000000000000000000000000008116911683611455565b8585600601541115611a6c576000670de0b6b3a764000088888860060154611a179190612252565b611a219190612265565b611a2b919061227c565b6001870154909150611a6a906001600160a01b037f00000000000000000000000000000000000000000000000000000000000000008116911683611455565b505b600285015460408051888152602081018a90528a918c917fa6fb9cb0a5a82578a1e0461ba72efa44673c350c0e32a724e6a5555ebeb627f7910160405180910390a4505050505050505050565b60006001600160e01b03198216637965db0b60e01b148061050e57506301ffc9a760e01b6001600160e01b031983161461050e565b611af88282610c5e565b610c295760405163e2517d3f60e01b81526001600160a01b038216600482015260248101839052604401611192565b6000366014808210801590611b6457507f00000000000000000000000000000000000000000000000000000000000000006001600160a01b031633145b15611b8b57611b783682840381600061234c565b611b8191612376565b60601c9250505090565b339250505090565b600080602060008451602086016000885af180611bb6576040513d6000823e3d81fd5b50506000513d91508115611bce578060011415611bdb565b6001600160a01b0384163b155b1561058157604051635274afe760e01b81526001600160a01b0385166004820152602401611192565b600060208284031215611c1657600080fd5b81356001600160e01b0319811681146112c357600080fd5b600060208284031215611c4057600080fd5b5035919050565b80356001600160a01b0381168114611c5e57600080fd5b919050565b60008060408385031215611c7657600080fd5b82359150611c8660208401611c47565b90509250929050565b600060208284031215611ca157600080fd5b6112c382611c47565b803560028110611c5e57600080fd5b60008060008060808587031215611ccf57600080fd5b84359350611cdf60208601611caa565b93969395505050506040820135916060013590565b60008083601f840112611d0657600080fd5b50813567ffffffffffffffff811115611d1e57600080fd5b6020830191508360208260051b8501011115611d3957600080fd5b9250929050565b60008060208385031215611d5357600080fd5b823567ffffffffffffffff811115611d6a57600080fd5b611d7685828601611cf4565b90969095509350505050565b634e487b7160e01b600052602160045260246000fd5b6002811061083657634e487b7160e01b600052602160045260246000fd5b611dbf81611d98565b9052565b8c81526001600160a01b038c81166020830152610180820190611de58d611d98565b8c60408401528b6060840152611dfa8b611d98565b608083019a909a5260a08201989098529590971660c086015260e085019390935261010084019190915261012083015215156101408201526101600191909152949350505050565b600080600080600060a08688031215611e5a57600080fd5b611e6386611c47565b945060208601359350611e7860408701611caa565b94979396509394606081013594506080013592915050565b634e487b7160e01b600052604160045260246000fd5b604051601f8201601f1916810167ffffffffffffffff81118282101715611ecf57611ecf611e90565b604052919050565b600082601f830112611ee857600080fd5b8135602067ffffffffffffffff821115611f0457611f04611e90565b8160051b611f13828201611ea6565b9283528481018201928281019087851115611f2d57600080fd5b83870192505b84831015611f4c57823582529183019190830190611f33565b979650505050505050565b600082601f830112611f6857600080fd5b813567ffffffffffffffff811115611f8257611f82611e90565b611f95601f8201601f1916602001611ea6565b818152846020838601011115611faa57600080fd5b816020850160208301376000918101602001919091529392505050565b600080600080600060a08688031215611fdf57600080fd5b611fe886611c47565b9450611ff660208701611c47565b9350604086013567ffffffffffffffff8082111561201357600080fd5b61201f89838a01611ed7565b9450606088013591508082111561203557600080fd5b61204189838a01611ed7565b9350608088013591508082111561205757600080fd5b5061206488828901611f57565b9150509295509295909350565b81518152602080830151610180830191612095908401826001600160a01b03169052565b5060408301516120a86040840182611db6565b506060830151606083015260808301516120c56080840182611db6565b5060a083015160a083015260c08301516120ea60c08401826001600160a01b03169052565b5060e08381015190830152610100808401519083015261012080840151908301526101408084015180151582850152505061016092830151919092015290565b60008060008060008060008060a0898b03121561214657600080fd5b8835975060208901359650604089013567ffffffffffffffff8082111561216c57600080fd5b6121788c838d01611cf4565b909850965060608b013591508082111561219157600080fd5b61219d8c838d01611cf4565b909650945060808b01359150808211156121b657600080fd5b506121c38b828c01611cf4565b999c989b5096995094979396929594505050565b600080600080600060a086880312156121ef57600080fd5b6121f886611c47565b945061220660208701611c47565b93506040860135925060608601359150608086013567ffffffffffffffff81111561223057600080fd5b61206488828901611f57565b634e487b7160e01b600052601160045260246000fd5b8181038181111561050e5761050e61223c565b808202811582820484141761050e5761050e61223c565b60008261229957634e487b7160e01b600052601260045260246000fd5b500490565b6001600160a01b0394851681529290931660208301526040820152606081019190915260a06080820181905260009082015260c00190565b6000600182016122e8576122e861223c565b5060010190565b608081016122fc86611d98565b85825261230885611d98565b84602083015283604083015282606083015295945050505050565b634e487b7160e01b600052603260045260246000fd5b8082018082111561050e5761050e61223c565b6000808585111561235c57600080fd5b8386111561236957600080fd5b5050820193919092039150565b6bffffffffffffffffffffffff1981358181169160148510156123a35780818660140360031b1b83161692505b50509291505056fea26469706673582212208b9fc7670177152408568d8b24006299fe48b61763edec8d0f3fd09c08e7739764736f6c63430008140033",
  "linkReferences": {},
  "deployedLinkReferences": {}
}