{
  "_format": "hh-sol-artifact-1",
  "contractName": "EmissionSubmission",
  "sourceName": "contracts/EmissionSubmission.sol",
  "abi": [
    {
      "inputs": [
        {
          "internalType": "address",
          "name": "admin",
          "type": "address"
        },
        {
          "internalType": "address",
          "name": "regulator",
          "type": "address"
        },
        {
          "internalType": "address",
          "name": "trustedForwarder",
          "type": "address"
        }
      ],
      "stateMutability": "nonpayable",
      "type": "constructor"
    },
    {
      "inputs": [],
      "name": "AccessControlBadConfirmation",
      "type": "error"
    },
    {
      "inputs": [
        {
          "internalType": "address",
          "name": "account",
          "type": "address"
        },
        {
          "internalType": "bytes32",
          "name": "neededRole",
          "type": "bytes32"
        }
      ],
      "name": "AccessControlUnauthorizedAccount",
      "type": "error"
    },
    {
      "anonymous": false,
      "inputs": [
        {
          "indexed": true,
          "internalType": "address",
          "name": "user",
          "type": "address"
        },
        {
          "indexed": true,
          "internalType": "uint32",
          "name": "period",
          "type": "uint32"
        },
        {
          "indexed": false,
          "internalType": "string",
          "name": "ipfsHash",
          "type": "string"
        },
        {
          "indexed": false,
          "internalType": "uint256",
          "name": "timestamp",
          "type": "uint256"
        }
      ],
      "name": "EmissionSubmitted",
      "type": "event"
    },
    {
      "anonymous": false,
      "inputs": [
        {
          "indexed": true,
          "internalType": "bytes32",
          "name": "role",
          "type": "bytes32"
        },
        {
          "indexed": true,
          "internalType": "bytes32",
          "name": "previousAdminRole",
          "type": "bytes32"
        },
        {
          "indexed": true,
          "internalType": "bytes32",
          "name": "newAdminRole",
          "type": "bytes32"
        }
      ],
      "name": "RoleAdminChanged",
      "type": "event"
    },
    {
      "anonymous": false,
      "inputs": [
        {
          "indexed": true,
          "internalType": "bytes32",
          "name": "role",
          "type": "bytes32"
        },
        {
          "indexed": true,
          "internalType": "address",
          "name": "account",
          "type": "address"
        },
        {
          "indexed": true,
          "internalType": "address",
          "name": "sender",
          "type": "address"
        }
      ],
      "name": "RoleGranted",
      "type": "event"
    },
    {
      "anonymous": false,
      "inputs": [
        {
          "indexed": true,
          "internalType": "bytes32",
          "name": "role",
          "type": "bytes32"
        },
        {
          "indexed": true,
          "internalType": "address",
          "name": "account",
          "type": "address"
        },
        {
          "indexed": true,
          "internalType": "address",
          "name": "sender",
          "type": "address"
        }
      ],
      "name": "RoleRevoked",
      "type": "event"
    },
    {
      "anonymous": false,
      "inputs": [
        {
          "indexed": true,
          "internalType": "address",
          "name": "user",
          "type": "address"
        },
        {
          "indexed": true,
          "internalType": "uint32",
          "name": "period",
          "type": "uint32"
        },
        {
          "indexed": false,
          "internalType": "string",
          "name": "reason",
          "type": "string"
        }
      ],
      "name": "SubmissionRejected",
      "type": "event"
    },
    {
      "anonymous": false,
      "inputs": [
        {
          "indexed": true,
          "internalType": "address",
          "name": "user",
          "type": "address"
        },
        {
          "indexed": true,
          "internalType": "uint32",
          "name": "period",
          "type": "uint32"
        },
        {
          "indexed": false,
          "internalType": "uint256",
          "name": "verifiedEmission",
          "type": "uint256"
        }
      ],
      "name": "SubmissionVerified",
      "type": "event"
    },
    {
      "inputs": [],
      "name": "DEFAULT_ADMIN_ROLE",
      "outputs": [
        {
          "internalType": "bytes32",
          "name": "",
          "type": "bytes32"
        }
      ],
      "stateMutability": "view",
      "type": "function"
    },
    {
      "inputs": [],
      "name": "REGULATOR_ROLE",
      "outputs": [
        {
          "internalType": "bytes32",
          "name": "",
          "type": "bytes32"
        }
      ],
      "stateMutability": "view",
      "type": "function"
    },
    {
      "inputs": [
        {
          "internalType": "uint32",
          "name": "period",
          "type": "uint32"
        }
      ],
      "name": "getPendingCount",
      "outputs": [
        {
          "internalType": "uint256",
          "name": "count",
          "type": "uint256"
        }
      ],
      "stateMutability": "view",
      "type": "function"
    },
    {
      "inputs": [
        {
          "internalType": "bytes32",
          "name": "role",
          "type": "bytes32"
        }
      ],
      "name": "getRoleAdmin",
      "outputs": [
        {
          "internalType": "bytes32",
          "name": "",
          "type": "bytes32"
        }
      ],
      "stateMutability": "view",
      "type": "function"
    },
    {
      "inputs": [
        {
          "internalType": "uint32",
          "name": "period",
          "type": "uint32"
        },
        {
          "internalType": "address",
          "name": "user",
          "type": "address"
        }
      ],
      "name": "getSubmission",
      "outputs": [
        {
          "internalType": "string",
          "name": "ipfsHash",
          "type": "string"
        },
        {
          "internalType": "uint256",
          "name": "submittedAt",
          "type": "uint256"
        },
        {
          "internalType": "enum EmissionSubmission.SubmissionStatus",
          "name": "status",
          "type": "uint8"
        },
        {
          "internalType": "uint256",
          "name": "verifiedEmission",
          "type": "uint256"
        }
      ],
      "stateMutability": "view",
      "type": "function"
    },
    {
      "inputs": [
        {
          "internalType": "uint32",
          "name": "period",
          "type": "uint32"
        }
      ],
      "name": "getSubmitters",
      "outputs": [
        {
          "internalType": "address[]",
          "name": "",
          "type": "address[]"
        }
      ],
      "stateMutability": "view",
      "type": "function"
    },
    {
      "inputs": [
        {
          "internalType": "bytes32",
          "name": "role",
          "type": "bytes32"
        },
        {
          "internalType": "address",
          "name": "account",
          "type": "address"
        }
      ],
      "name": "grantRole",
      "outputs": [],
      "stateMutability": "nonpayable",
      "type": "function"
    },
    {
      "inputs": [
        {
          "internalType": "bytes32",
          "name": "role",
          "type": "bytes32"
        },
        {
          "internalType": "address",
          "name": "account",
          "type": "address"
        }
      ],
      "name": "hasRole",
      "outputs": [
        {
          "internalType": "bool",
          "name": "",
          "type": "bool"
        }
      ],
      "stateMutability": "view",
      "type": "function"
    },
    {
      "inputs": [
        {
          "internalType": "uint32",
          "name": "",
          "type": "uint32"
        },
        {
          "internalType": "address",
          "name": "",
          "type": "address"
        }
      ],
      "name": "hasSubmitted",
      "outputs": [
        {
          "internalType": "bool",
          "name": "",
          "type": "bool"
        }
      ],
      "stateMutability": "view",
      "type": "function"
    },
    {
      "inputs": [
        {
          "internalType": "address",
          "name": "forwarder",
          "type": "address"
        }
      ],
      "name": "isTrustedForwarder",
      "outputs": [
        {
          "internalType": "bool",
          "name": "",
          "type": "bool"
        }
      ],
      "stateMutability": "view",
      "type": "function"
    },
    {
      "inputs": [
        {
          "internalType": "uint32",
          "name": "period",
          "type": "uint32"
        },
        {
          "internalType": "address",
          "name": "user",
          "type": "address"
        },
        {
          "internalType": "string",
          "name": "reason",
          "type": "string"
        }
      ],
      "name": "markRejected",
      "outputs": [],
      "stateMutability": "nonpayable",
      "type": "function"
    },
    {
      "inputs": [
        {
          "internalType": "uint32",
          "name": "period",
          "type": "uint32"
        },
        {
          "internalType": "address",
          "name": "user",
          "type": "address"
        },
        {
          "internalType": "uint256",
          "name": "verifiedEmission",
          "type": "uint256"
        }
      ],
      "name": "markVerified",
      "outputs": [],
      "stateMutability": "nonpayable",
      "type": "function"
    },
    {
      "inputs": [
        {
          "internalType": "uint32",
          "name": "",
          "type": "uint32"
        },
        {
          "internalType": "uint256",
          "name": "",
          "type": "uint256"
        }
      ],
      "name": "periodSubmitters",
      "outputs": [
        {
          "internalType": "address",
          "name": "",
          "type": "address"
        }
      ],
      "stateMutability": "view",
      "type": "function"
    },
    {
      "inputs": [
        {
          "internalType": "bytes32",
          "name": "role",
          "type": "bytes32"
        },
        {
          "internalType": "address",
          "name": "callerConfirmation",
          "type": "address"
        }
      ],
      "name": "renounceRole",
      "outputs": [],
      "stateMutability": "nonpayable",
      "type": "function"
    },
    {
      "inputs": [
        {
          "internalType": "bytes32",
          "name": "role",
          "type": "bytes32"
        },
        {
          "internalType": "address",
          "name": "account",
          "type": "address"
        }
      ],
      "name": "revokeRole",
      "outputs": [],
      "stateMutability": "nonpayable",
      "type": "function"
    },
    {
      "inputs": [
        {
          "internalType": "uint32",
          "name": "",
          "type": "uint32"
        },
        {
          "internalType": "address",
          "name": "",
          "type": "address"
        }
      ],
      "name": "submissions",
      "outputs": [
        {
          "internalType": "string",
          "name": "ipfsHash",
          "type": "string"
        },
        {
          "internalType": "uint256",
          "name": "submittedAt",
          "type": "uint256"
        },
        {
          "internalType": "enum EmissionSubmission.SubmissionStatus",
          "name": "status",
          "type": "uint8"
        },
        {
          "internalType": "uint256",
          "name": "verifiedEmission",
          "type": "uint256"
        }
      ],
      "stateMutability": "view",
      "type": "function"
    },
    {
      "inputs": [
        {
          "internalType": "uint32",
          "name": "period",
          "type": "uint32"
        },
        {
          "internalType": "string",
          "name": "ipfsHash",
          "type": "string"
        }
      ],
      "name": "submitEmission",
      "outputs": [],
      "stateMutability": "nonpayable",
      "type": "function"
    },
    {
      "inputs": [
        {
          "internalType": "bytes4",
          "name": "interfaceId",
          "type": "bytes4"
        }
      ],
      "name": "supportsInterface",
      "outputs": [
        {
          "internalType": "bool",
          "name": "",
          "type": "bool"
        }
      ],
      "stateMutability": "view",
      "type": "function"
    },
    {
      "inputs": [],
      "name": "trustedForwarder",
      "outputs": [
        {
          "internalType": "address",
          "name": "",
          "type": "address"
        }
      ],
      "stateMutability": "view",
      "type": "function"
    }
  ],
  "bytecode": "0x60a06040523480156200001157600080fd5b5060405162001848380380620018488339810160408190526200003491620001db565b6001600160a01b0381166080526200004e60008462000085565b506200007b7f20b5f7ac978e5d6199de06401411960dfa81d2f762655f6206bdc61d46fc19e68362000085565b5050505062000282565b6000828152602081815260408083206001600160a01b038516845290915281205460ff166200012c576000838152602081815260408083206001600160a01b03861684529091529020805460ff19166001179055620000e362000136565b6001600160a01b0316826001600160a01b0316847f2f8788117e7eff1d82e926ec794901d17c78024a50270940304540a733656f0d60405160405180910390a450600162000130565b5060005b92915050565b60006200014262000147565b905090565b6000366014808210801590620001635750620001633362000197565b156200018f576200017a3682840381600062000225565b620001859162000251565b60601c9250505090565b339250505090565b6000620001a360805190565b6001600160a01b0316826001600160a01b0316149050919050565b80516001600160a01b0381168114620001d657600080fd5b919050565b600080600060608486031215620001f157600080fd5b620001fc84620001be565b92506200020c60208501620001be565b91506200021c60408501620001be565b90509250925092565b600080858511156200023657600080fd5b838611156200024457600080fd5b5050820193919092039150565b6001600160601b031981358181169160148510156200027a5780818660140360031b1b83161692505b505092915050565b60805161159c620002ac6000396000818161022f015281816102b20152610f5f015261159c6000f3fe608060405234801561001057600080fd5b50600436106101215760003560e01c80635fb1365c116100ad578063a217fddf11610071578063a217fddf14610309578063b0551b4814610311578063bd406b3614610324578063d547741f14610337578063f81ffa181461034a57600080fd5b80635fb1365c1461027257806360cdb6cc1461029d5780637da0a877146102b05780639044265a146102d657806391d14854146102f657600080fd5b80632f2ff15d116100f45780632f2ff15d146101d457806336568abe146101e957806341302599146101fc578063572b6c051461021f57806357d9e86f1461025f57600080fd5b806301694dae1461012657806301ffc9a714610169578063144bf5891461017c578063248a9ca3146101b1575b600080fd5b610154610134366004610fe9565b600360209081526000928352604080842090915290825290205460ff1681565b60405190151581526020015b60405180910390f35b61015461017736600461101c565b61035d565b6101a37f20b5f7ac978e5d6199de06401411960dfa81d2f762655f6206bdc61d46fc19e681565b604051908152602001610160565b6101a36101bf36600461104d565b60009081526020819052604090206001015490565b6101e76101e2366004611066565b610394565b005b6101e76101f7366004611066565b6103bf565b61020f61020a366004610fe9565b610407565b604051610160949392919061109f565b61015461022d36600461111d565b7f00000000000000000000000000000000000000000000000000000000000000006001600160a01b0390811691161490565b6101e761026d366004611138565b6104c8565b610285610280366004611174565b61065e565b6040516001600160a01b039091168152602001610160565b61020f6102ab366004610fe9565b610696565b7f0000000000000000000000000000000000000000000000000000000000000000610285565b6102e96102e436600461119e565b6107d0565b60405161016091906111b9565b610154610304366004611066565b610843565b6101a3600081565b6101a361031f36600461119e565b61086c565b6101e761033236600461124f565b610976565b6101e7610345366004611066565b610b07565b6101e76103583660046112b0565b610b2c565b60006001600160e01b03198216637965db0b60e01b148061038e57506301ffc9a760e01b6001600160e01b03198316145b92915050565b6000828152602081905260409020600101546103af81610dd1565b6103b98383610de5565b50505050565b6103c7610e78565b6001600160a01b0316816001600160a01b0316146103f85760405163334bd91960e11b815260040160405180910390fd5b6104028282610e87565b505050565b600160209081526000928352604080842090915290825290208054819061042d90611303565b80601f016020809104026020016040519081016040528092919081815260200182805461045990611303565b80156104a65780601f1061047b576101008083540402835291602001916104a6565b820191906000526020600020905b81548152906001019060200180831161048957829003601f168201915b50505050600183015460028401546003909401549293909260ff909116915084565b7f20b5f7ac978e5d6199de06401411960dfa81d2f762655f6206bdc61d46fc19e66104f281610dd1565b63ffffffff841660009081526003602090815260408083206001600160a01b038716845290915290205460ff166105665760405162461bcd60e51b8152602060048201526013602482015272139bc81cdd589b5a5cdcda5bdb88199bdd5b99606a1b60448201526064015b60405180910390fd5b63ffffffff841660009081526001602090815260408083206001600160a01b0387168452909152812060029081015460ff16908111156105a8576105a8611089565b146105e35760405162461bcd60e51b815260206004820152600b60248201526a4e6f742070656e64696e6760a81b604482015260640161055d565b63ffffffff841660008181526001602081815260408084206001600160a01b0389168086529083529381902060028101805460ff19169094179093556003909201869055815186815291517f6f136da30f160a89fe5010afee49df4deda5d9683ab06a7955d6b92282f51d3d9281900390910190a350505050565b6002602052816000526040600020818154811061067a57600080fd5b6000918252602090912001546001600160a01b03169150829050565b63ffffffff821660009081526001602090815260408083206001600160a01b03851684529091528082208151608081019092528054606093928392839283929190829082906106e490611303565b80601f016020809104026020016040519081016040528092919081815260200182805461071090611303565b801561075d5780601f106107325761010080835404028352916020019161075d565b820191906000526020600020905b81548152906001019060200180831161074057829003601f168201915b50505091835250506001820154602082015260028083015460409092019160ff169081111561078e5761078e611089565b600281111561079f5761079f611089565b8152600391909101546020918201528151908201516040830151606090930151919a90995091975095509350505050565b63ffffffff811660009081526002602090815260409182902080548351818402810184019094528084526060939283018282801561083757602002820191906000526020600020905b81546001600160a01b03168152600190910190602001808311610819575b50505050509050919050565b6000918252602082815260408084206001600160a01b0393909316845291905290205460ff1690565b63ffffffff81166000908152600260209081526040808320805482518185028101850190935280835284938301828280156108d057602002820191906000526020600020905b81546001600160a01b031681526001909101906020018083116108b2575b5050505050905060005b815181101561096f5763ffffffff841660009081526001602052604081208351829085908590811061090e5761090e61133d565b6020908102919091018101516001600160a01b0316825281019190915260400160002060029081015460ff169081111561094a5761094a611089565b0361095d578261095981611353565b9350505b8061096781611353565b9150506108da565b5050919050565b7f20b5f7ac978e5d6199de06401411960dfa81d2f762655f6206bdc61d46fc19e66109a081610dd1565b63ffffffff851660009081526003602090815260408083206001600160a01b038816845290915290205460ff16610a0f5760405162461bcd60e51b8152602060048201526013602482015272139bc81cdd589b5a5cdcda5bdb88199bdd5b99606a1b604482015260640161055d565b63ffffffff851660009081526001602090815260408083206001600160a01b0388168452909152812060029081015460ff1690811115610a5157610a51611089565b14610a8c5760405162461bcd60e51b815260206004820152600b60248201526a4e6f742070656e64696e6760a81b604482015260640161055d565b63ffffffff851660008181526001602090815260408083206001600160a01b0389168085529252918290206002908101805460ff1916909117905590517fc1f279e647b3a4113712e73bc1bff8106e8a435474807e90d606bc780f5f7d7590610af890879087906113a3565b60405180910390a35050505050565b600082815260208190526040902060010154610b2281610dd1565b6103b98383610e87565b80610b6e5760405162461bcd60e51b815260206004820152601260248201527112541194c81a185cda081c995c5d5a5c995960721b604482015260640161055d565b63ffffffff8316600090815260036020526040812090610b8c610e78565b6001600160a01b0316815260208101919091526040016000205460ff1615610c005760405162461bcd60e51b815260206004820152602160248201527f416c7265616479207375626d697474656420666f72207468697320706572696f6044820152601960fa1b606482015260840161055d565b604051806080016040528083838080601f016020809104026020016040519081016040528093929190818152602001838380828437600092018290525093855250504260208401525060409091019081526000602091820181905263ffffffff8616815260019091526040812090610c76610e78565b6001600160a01b03168152602081019190915260400160002081518190610c9d9082611423565b506020820151816001015560408201518160020160006101000a81548160ff02191690836002811115610cd257610cd2611089565b02179055506060919091015160039091015563ffffffff83166000908152600260205260409020610d01610e78565b8154600180820184556000938452602080852090920180546001600160a01b0319166001600160a01b03949094169390931790925563ffffffff8616835260039052604082209091610d51610e78565b6001600160a01b031681526020810191909152604001600020805460ff191691151591909117905563ffffffff8316610d88610e78565b6001600160a01b03167fb6459cfc17d50e12d57cdd15896c37993163875c58085507fdd4038016426ad7848442604051610dc4939291906114e3565b60405180910390a3505050565b610de281610ddd610e78565b610f10565b50565b6000610df18383610843565b610e70576000838152602081815260408083206001600160a01b03861684529091529020805460ff19166001179055610e28610e78565b6001600160a01b0316826001600160a01b0316847f2f8788117e7eff1d82e926ec794901d17c78024a50270940304540a733656f0d60405160405180910390a450600161038e565b50600061038e565b6000610e82610f4d565b905090565b6000610e938383610843565b15610e70576000838152602081815260408083206001600160a01b03861684529091529020805460ff19169055610ec8610e78565b6001600160a01b0316826001600160a01b0316847ff6391f5c32d9c69d2a47ea670b442974b53935d1edc7fd64eb21e047a839171b60405160405180910390a450600161038e565b610f1a8282610843565b610f495760405163e2517d3f60e01b81526001600160a01b03821660048201526024810183905260440161055d565b5050565b6000366014808210801590610f8a57507f00000000000000000000000000000000000000000000000000000000000000006001600160a01b031633145b15610fb157610f9e36828403816000611507565b610fa791611531565b60601c9250505090565b339250505090565b803563ffffffff81168114610fcd57600080fd5b919050565b80356001600160a01b0381168114610fcd57600080fd5b60008060408385031215610ffc57600080fd5b61100583610fb9565b915061101360208401610fd2565b90509250929050565b60006020828403121561102e57600080fd5b81356001600160e01b03198116811461104657600080fd5b9392505050565b60006020828403121561105f57600080fd5b5035919050565b6000806040838503121561107957600080fd5b8235915061101360208401610fd2565b634e487b7160e01b600052602160045260246000fd5b608081526000855180608084015260005b818110156110cd57602081890181015160a08684010152016110b0565b50600060a0828501015260a0601f19601f8301168401019150508460208301526003841061110b57634e487b7160e01b600052602160045260246000fd5b60408201939093526060015292915050565b60006020828403121561112f57600080fd5b61104682610fd2565b60008060006060848603121561114d57600080fd5b61115684610fb9565b925061116460208501610fd2565b9150604084013590509250925092565b6000806040838503121561118757600080fd5b61119083610fb9565b946020939093013593505050565b6000602082840312156111b057600080fd5b61104682610fb9565b6020808252825182820181905260009190848201906040850190845b818110156111fa5783516001600160a01b0316835292840192918401916001016111d5565b50909695505050505050565b60008083601f84011261121857600080fd5b50813567ffffffffffffffff81111561123057600080fd5b60208301915083602082850101111561124857600080fd5b9250929050565b6000806000806060858703121561126557600080fd5b61126e85610fb9565b935061127c60208601610fd2565b9250604085013567ffffffffffffffff81111561129857600080fd5b6112a487828801611206565b95989497509550505050565b6000806000604084860312156112c557600080fd5b6112ce84610fb9565b9250602084013567ffffffffffffffff8111156112ea57600080fd5b6112f686828701611206565b9497909650939450505050565b600181811c9082168061131757607f821691505b60208210810361133757634e487b7160e01b600052602260045260246000fd5b50919050565b634e487b7160e01b600052603260045260246000fd5b60006001820161137357634e487b7160e01b600052601160045260246000fd5b5060010190565b81835281816020850137506000828201602090810191909152601f909101601f19169091010190565b6020815260006113b760208301848661137a565b949350505050565b634e487b7160e01b600052604160045260246000fd5b601f82111561040257600081815260208120601f850160051c810160208610156113fc5750805b601f850160051c820191505b8181101561141b57828155600101611408565b505050505050565b815167ffffffffffffffff81111561143d5761143d6113bf565b6114518161144b8454611303565b846113d5565b602080601f831160018114611486576000841561146e5750858301515b600019600386901b1c1916600185901b17855561141b565b600085815260208120601f198616915b828110156114b557888601518255948401946001909101908401611496565b50858210156114d35787850151600019600388901b60f8161c191681555b5050505050600190811b01905550565b6040815260006114f760408301858761137a565b9050826020830152949350505050565b6000808585111561151757600080fd5b8386111561152457600080fd5b5050820193919092039150565b6bffffffffffffffffffffffff19813581811691601485101561155e5780818660140360031b1b83161692505b50509291505056fea2646970667358221220b33da28b3abef394a0bca5f4ec790d98ccf346f70ea7b25f5306f3972833b23e64736f6c63430008140033",
  "linkReferences": {},
  "deployedLinkReferences": {}
}