{
  "_format": "hh-sol-artifact-1",
  "contractName": "EmissionSubmission",
  "sourceName": "contracts/EmissionSubmission.sol",
  "abi": [
    {
      "inputs": [
        {
          "internalType": "address",
          "name": "admin",
          "type": "address"
        },
        {
          "internalType": "address",
          "name": "regulator",
          "type": "address"
        },
        {
          "internalType": "address",
          "name": "trustedForwarder",
          "type": "address"
        }
      ],
      "stateMutability": "nonpayable",
      "type": "constructor"
    },
    {
      "inputs": [],
      "name": "AccessControlBadConfirmation",
      "type": "error"
    },
    {
      "inputs": [
        {
          "internalType": "address",
          "name": "account",
          "type": "address"
        },
        {
          "internalType": "bytes32",
          "name": "neededRole",
          "type": "bytes32"
        }
      ],
      "name": "AccessControlUnauthorizedAccount",
      "type": "error"
    },
    {
      "anonymous": false,
      "inputs": [
        {
          "indexed": true,
          "internalType": "address",
          "name": "user",
          "type": "address"
        },
        {
          "indexed": true,
          "internalType": "uint32",
          "name": "period",
          "type": "uint32"
        },
        {
          "indexed": false,
          "internalType": "string",
          "name": "ipfsHash",
          "type": "string"
        },
        {
          "indexed": false,
          "internalType": "uint256",
          "name": "timestamp",
          "type": "uint256"
        }
      ],
      "name": "EmissionSubmitted",
      "type": "event"
    },
    {
      "anonymous": false,
      "inputs": [
        {
          "indexed": true,
          "internalType": "bytes32",
          "name": "role",
          "type": "bytes32"
        },
        {
          "indexed": true,
          "internalType": "bytes32",
          "name": "previousAdminRole",
          "type": "bytes32"
        },
        {
          "indexed": true,
          "internalType": "bytes32",
          "name": "newAdminRole",
          "type": "bytes32"
        }
      ],
      "name": "RoleAdminChanged",
      "type": "event"
    },
    {
      "anonymous": false,
      "inputs": [
        {
          "indexed": true,
          "internalType": "bytes32",
          "name": "role",
          "type": "bytes32"
        },
        {
          "indexed": true,
          "internalType": "address",
          "name": "account",
          "type": "address"
        },
        {
          "indexed": true,
          "internalType": "address",
          "name": "sender",
          "type": "address"
        }
      ],
      "name": "RoleGranted",
      "type": "event"
    },
    {
      "anonymous": false,
      "inputs": [
        {
          "indexed": true,
          "internalType": "bytes32",
          "name": "role",
          "type": "bytes32"
        },
        {
          "indexed": true,
          "internalType": "address",
          "name": "account",
          "type": "address"
        },
        {
          "indexed": true,
          "internalType": "address",
          "name": "sender",
          "type": "address"
        }
      ],
      "name": "RoleRevoked",
      "type": "event"
    },
    {
      "anonymous": false,
      "inputs": [
        {
          "indexed": true,
          "internalType": "address",
          "name": "user",
          "type": "address"
        },
        {
          "indexed": true,
          "internalType": "uint32",
          "name": "period",
          "type": "uint32"
        },
        {
          "indexed": false,
          "internalType": "string",
          "name": "reason",
          "type": "string"
        }
      ],
      "name": "SubmissionRejected",
      "type": "event"
    },
    {
      "anonymous": false,
      "inputs": [
        {
          "indexed": true,
          "internalType": "address",
          "name": "user",
          "type": "address"
        },
        {
          "indexed": true,
          "internalType": "uint32",
          "name": "period",
          "type": "uint32"
        },
        {
          "indexed": false,
          "internalType": "uint256",
          "name": "verifiedEmission",
          "type": "uint256"
        }
      ],
      "name": "SubmissionVerified",
      "type": "event"
    },
    {
      "inputs": [],
      "name": "DEFAULT_ADMIN_ROLE",
      "outputs": [
        {
          "internalType": "bytes32",
          "name": "",
          "type": "bytes32"
        }
      ],
      "stateMutability": "view",
      "type": "function"
    },
    {
      "inputs": [],
      "name": "REGULATOR_ROLE",
      "outputs": [
        {
          "internalType": "bytes32",
          "name": "",
          "type": "bytes32"
        }
      ],
      "stateMutability": "view",
      "type": "function"
    },
    {
      "inputs": [
        {
          "internalType": "uint32",
          "name": "period",
          "type": "uint32"
        }
      ],
      "name": "getPendingCount",
      "outputs": [
        {
          "internalType": "uint256",
          "name": "count",
          "type": "uint256"
        }
      ],
      "stateMutability": "view",
      "type": "function"
    },
    {
      "inputs": [
        {
          "internalType": "bytes32",
          "name": "role",
          "type": "bytes32"
        }
      ],
      "name": "getRoleAdmin",
      "outputs": [
        {
          "internalType": "bytes32",
          "name": "",
          "type": "bytes32"
        }
      ],
      "stateMutability": "view",
      "type": "function"
    },
    {
      "inputs": [
        {
          "internalType": "uint32",
          "name": "period",
          "type": "uint32"
        },
        {
          "internalType": "address",
          "name": "user",
          "type": "address"
        }
      ],
      "name": "getSubmission",
      "outputs": [
        {
          "internalType": "string",
          "name": "ipfsHash",
          "type": "string"
        },
        {
          "internalType": "uint256",
          "name": "submittedAt",
          "type": "uint256"
        },
        {
          "internalType": "enum EmissionSubmission.SubmissionStatus",
          "name": "status",
          "type": "uint8"
        },
        {
          "internalType": "uint256",
          "name": "verifiedEmission",
          "type": "uint256"
        }
      ],
      "stateMutability": "view",
      "type": "function"
    },
    {
      "inputs": [
        {
          "internalType": "uint32",
          "name": "period",
          "type": "uint32"
        }
      ],
      "name": "getSubmitters",
      "outputs": [
        {
          "internalType": "address[]",
          "name": "",
          "type": "address[]"
        }
      ],
      "stateMutability": "view",
      "type": "function"
    },
    {
      "inputs": [
        {
          "internalType": "bytes32",
          "name": "role",
          "type": "bytes32"
        },
        {
          "internalType": "address",
          "name": "account",
          "type": "address"
        }
      ],
      "name": "grantRole",
      "outputs": [],
      "stateMutability": "nonpayable",
      "type": "function"
    },
    {
      "inputs": [
        {
          "internalType": "bytes32",
          "name": "role",
          "type": "bytes32"
        },
        {
          "internalType": "address",
          "name": "account",
          "type": "address"
        }
      ],
      "name": "hasRole",
      "outputs": [
        {
          "internalType": "bool",
          "name": "",
          "type": "bool"
        }
      ],
      "stateMutability": "view",
      "type": "function"
    },
    {
      "inputs": [
        {
          "internalType": "uint32",
          "name": "",
          "type": "uint32"
        },
        {
          "internalType": "address",
          "name": "",
          "type": "address"
        }
      ],
      "name": "hasSubmitted",
      "outputs": [
        {
          "internalType": "bool",
          "name": "",
          "type": "bool"
        }
      ],
      "stateMutability": "view",
      "type": "function"
    },
    {
      "inputs": [
        {
          "internalType": "address",
          "name": "forwarder",
          "type": "address"
        }
      ],
      "name": "isTrustedForwarder",
      "outputs": [
        {
          "internalType": "bool",
          "name": "",
          "type": "bool"
        }
      ],
      "stateMutability": "view",
      "type": "function"
    },
    {
      "inputs": [
        {
          "internalType": "uint32",
          "name": "period",
          "type": "uint32"
        },
        {
          "internalType": "address",
          "name": "user",
          "type": "address"
        },
        {
          "internalType": "string",
          "name": "reason",
          "type": "string"
        }
      ],
      "name": "markRejected",
      "outputs": [],
      "stateMutability": "nonpayable",
      "type": "function"
    },
    {
      "inputs": [
        {
          "internalType": "uint32",
          "name": "period",
          "type": "uint32"
        },
        {
          "internalType": "address",
          "name": "user",
          "type": "address"
        },
        {
          "internalType": "uint256",
          "name": "verifiedEmission",
          "type": "uint256"
        }
      ],
      "name": "markVerified",
      "outputs": [],
      "stateMutability": "nonpayable",
      "type": "function"
    },
    {
      "inputs": [
        {
          "internalType": "uint32",
          "name": "",
          "type": "uint32"
        },
        {
          "internalType": "uint256",
          "name": "",
          "type": "uint256"
        }
      ],
      "name": "periodSubmitters",
      "outputs": [
        {
          "internalType": "address",
          "name": "",
          "type": "address"
        }
      ],
      "stateMutability": "view",
      "type": "function"
    },
    {
      "inputs": [
        {
          "internalType": "bytes32",
          "name": "role",
          "type": "bytes32"
        },
        {
          "internalType": "address",
          "name": "callerConfirmation",
          "type": "address"
        }
      ],
      "name": "renounceRole",
      "outputs": [],
      "stateMutability": "nonpayable",
      "type": "function"
    },
    {
      "inputs": [
        {
          "internalType": "bytes32",
          "name": "role",
          "type": "bytes32"
        },
        {
          "internalType": "address",
          "name": "account",
          "type": "address"
        }
      ],
      "name": "revokeRole",
      "outputs": [],
      "stateMutability": "nonpayable",
      "type": "function"
    },
    {
      "inputs": [
        {
          "internalType": "uint32",
          "name": "",
          "type": "uint32"
        },
        {
          "internalType": "address",
          "name": "",
          "type": "address"
        }
      ],
      "name": "submissions",
      "outputs": [
        {
          "internalType": "string",
          "name": "ipfsHash",
          "type": "string"
        },
        {
          "internalType": "uint256",
          "name": "submittedAt",
          "type": "uint256"
        },
        {
          "internalType": "enum EmissionSubmission.SubmissionStatus",
          "name": "status",
          "type": "uint8"
        },
        {
          "internalType": "uint256",
          "name": "verifiedEmission",
          "type": "uint256"
        }
      ],
      "stateMutability": "view",
      "type": "function"
    },
    {
      "inputs": [
        {
          "internalType": "uint32",
          "name": "period",
          "type": "uint32"
        },
        {
          "internalType": "string",
          "name": "ipfsHash",
          "type": "string"
        }
      ],
      "name": "submitEmission",
      "outputs": [],
      "stateMutability": "nonpayable",
      "type": "function"
    },
    {
      "inputs": [
        {
          "internalType": "bytes4",
          "name": "interfaceId",
          "type": "bytes4"
        }
      ],
      "name": "supportsInterface",
      "outputs": [
        {
          "internalType": "bool",
          "name": "",
          "type": "bool"
        }
      ],
      "stateMutability": "view",
      "type": "function"
    },
    {
      "inputs": [],
      "name": "trustedForwarder",
      "outputs": [
        {
          "internalType": "address",
          "name": "",
          "type": "address"
        }
      ],
      "stateMutability": "view",
      "type": "function"
    }
  ],
  "bytecode": "0x60a06040523480156200001157600080fd5b5060405162002b8538038062002b858339818101604052810190620000379190620003b1565b808073ffffffffffffffffffffffffffffffffffffffff1660808173ffffffffffffffffffffffffffffffffffffffff168152505050620000826000801b84620000bf60201b60201c565b50620000b57f20b5f7ac978e5d6199de06401411960dfa81d2f762655f6206bdc61d46fc19e683620000bf60201b60201c565b5050505062000502565b6000620000d38383620001c260201b60201c565b620001b757600160008085815260200190815260200160002060000160008473ffffffffffffffffffffffffffffffffffffffff1673ffffffffffffffffffffffffffffffffffffffff16815260200190815260200160002060006101000a81548160ff021916908315150217905550620001536200022c60201b60201c565b73ffffffffffffffffffffffffffffffffffffffff168273ffffffffffffffffffffffffffffffffffffffff16847f2f8788117e7eff1d82e926ec794901d17c78024a50270940304540a733656f0d60405160405180910390a460019050620001bc565b600090505b92915050565b600080600084815260200190815260200160002060000160008373ffffffffffffffffffffffffffffffffffffffff1673ffffffffffffffffffffffffffffffffffffffff16815260200190815260200160002060009054906101000a900460ff16905092915050565b60006200023e6200024360201b60201c565b905090565b6000806000369050905060006200025f620002ce60201b60201c565b90508082101580156200027f57506200027e33620002e560201b60201c565b5b15620002b6576000368284039080926200029c9392919062000417565b90620002a991906200049c565b60601c92505050620002cb565b620002c66200032c60201b60201c565b925050505b90565b6000620002e06200033460201b60201c565b905090565b6000620002f76200033d60201b60201c565b73ffffffffffffffffffffffffffffffffffffffff168273ffffffffffffffffffffffffffffffffffffffff16149050919050565b600033905090565b60006014905090565b6000608051905090565b600080fd5b600073ffffffffffffffffffffffffffffffffffffffff82169050919050565b600062000379826200034c565b9050919050565b6200038b816200036c565b81146200039757600080fd5b50565b600081519050620003ab8162000380565b92915050565b600080600060608486031215620003cd57620003cc62000347565b5b6000620003dd868287016200039a565b9350506020620003f0868287016200039a565b925050604062000403868287016200039a565b9150509250925092565b600080fd5b600080fd5b600080858511156200042e576200042d6200040d565b5b8386111562000442576200044162000412565b5b6001850283019150848603905094509492505050565b600082905092915050565b60007fffffffffffffffffffffffffffffffffffffffff00000000000000000000000082169050919050565b600082821b905092915050565b6000620004aa838362000458565b82620004b7813562000463565b92506014821015620004fa57620004f57fffffffffffffffffffffffffffffffffffffffff000000000000000000000000836014036008026200048f565b831692505b505092915050565b6080516126676200051e6000396000610b5e01526126676000f3fe608060405234801561001057600080fd5b50600436106101215760003560e01c80635fb1365c116100ad578063a217fddf11610071578063a217fddf1461036c578063b0551b481461038a578063bd406b36146103ba578063d547741f146103d6578063f81ffa18146103f257610121565b80635fb1365c1461028b57806360cdb6cc146102bb5780637da0a877146102ee5780639044265a1461030c57806391d148541461033c57610121565b80632f2ff15d116100f45780632f2ff15d146101d457806336568abe146101f0578063413025991461020c578063572b6c051461023f57806357d9e86f1461026f57610121565b806301694dae1461012657806301ffc9a714610156578063144bf58914610186578063248a9ca3146101a4575b600080fd5b610140600480360381019061013b9190611867565b61040e565b60405161014d91906118c2565b60405180910390f35b610170600480360381019061016b9190611935565b61043d565b60405161017d91906118c2565b60405180910390f35b61018e6104b7565b60405161019b919061197b565b60405180910390f35b6101be60048036038101906101b991906119c2565b6104db565b6040516101cb919061197b565b60405180910390f35b6101ee60048036038101906101e991906119ef565b6104fa565b005b61020a600480360381019061020591906119ef565b61051c565b005b61022660048036038101906102219190611867565b610597565b6040516102369493929190611b4f565b60405180910390f35b61025960048036038101906102549190611b9b565b610669565b60405161026691906118c2565b60405180910390f35b61028960048036038101906102849190611bf4565b6106a8565b005b6102a560048036038101906102a09190611c47565b610994565b6040516102b29190611c96565b60405180910390f35b6102d560048036038101906102d09190611867565b6109e2565b6040516102e59493929190611b4f565b60405180910390f35b6102f6610b5a565b6040516103039190611c96565b60405180910390f35b61032660048036038101906103219190611cb1565b610b82565b6040516103339190611d9c565b60405180910390f35b610356600480360381019061035191906119ef565b610c2f565b60405161036391906118c2565b60405180910390f35b610374610c99565b604051610381919061197b565b60405180910390f35b6103a4600480360381019061039f9190611cb1565b610ca0565b6040516103b19190611dbe565b60405180910390f35b6103d460048036038101906103cf9190611e3e565b610e30565b005b6103f060048036038101906103eb91906119ef565b6110bc565b005b61040c60048036038101906104079190611eb2565b6110de565b005b60036020528160005260406000206020528060005260406000206000915091509054906101000a900460ff1681565b60007f7965db0b000000000000000000000000000000000000000000000000000000007bffffffffffffffffffffffffffffffffffffffffffffffffffffffff1916827bffffffffffffffffffffffffffffffffffffffffffffffffffffffff191614806104b057506104af82611476565b5b9050919050565b7f20b5f7ac978e5d6199de06401411960dfa81d2f762655f6206bdc61d46fc19e681565b6000806000838152602001908152602001600020600101549050919050565b610503826104db565b61050c816114e0565b61051683836114f4565b50505050565b6105246115e5565b73ffffffffffffffffffffffffffffffffffffffff168173ffffffffffffffffffffffffffffffffffffffff1614610588576040517f6697b23200000000000000000000000000000000000000000000000000000000815260040160405180910390fd5b61059282826115f4565b505050565b6001602052816000526040600020602052806000526040600020600091509150508060000180546105c790611f41565b80601f01602080910402602001604051908101604052809291908181526020018280546105f390611f41565b80156106405780601f1061061557610100808354040283529160200191610640565b820191906000526020600020905b81548152906001019060200180831161062357829003601f168201915b5050505050908060010154908060020160009054906101000a900460ff16908060030154905084565b6000610673610b5a565b73ffffffffffffffffffffffffffffffffffffffff168273ffffffffffffffffffffffffffffffffffffffff16149050919050565b7f20b5f7ac978e5d6199de06401411960dfa81d2f762655f6206bdc61d46fc19e66106d2816114e0565b600360008563ffffffff1663ffffffff16815260200190815260200160002060008473ffffffffffffffffffffffffffffffffffffffff1673ffffffffffffffffffffffffffffffffffffffff16815260200190815260200160002060009054906101000a900460ff1661077b576040517f08c379a000000000000000000000000000000000000000000000000000000000815260040161077290611fbe565b60405180910390fd5b6000600281111561078f5761078e611ad8565b5b600160008663ffffffff1663ffffffff16815260200190815260200160002060008573ffffffffffffffffffffffffffffffffffffffff1673ffffffffffffffffffffffffffffffffffffffff16815260200190815260200160002060020160009054906101000a900460ff16600281111561080e5761080d611ad8565b5b1461084e576040517f08c379a00000000000000000000000000000000000000000000000000000000081526004016108459061202a565b60405180910390fd5b60018060008663ffffffff1663ffffffff16815260200190815260200160002060008573ffffffffffffffffffffffffffffffffffffffff1673ffffffffffffffffffffffffffffffffffffffff16815260200190815260200160002060020160006101000a81548160ff021916908360028111156108d0576108cf611ad8565b5b021790555081600160008663ffffffff1663ffffffff16815260200190815260200160002060008573ffffffffffffffffffffffffffffffffffffffff1673ffffffffffffffffffffffffffffffffffffffff168152602001908152602001600020600301819055508363ffffffff168373ffffffffffffffffffffffffffffffffffffffff167f6f136da30f160a89fe5010afee49df4deda5d9683ab06a7955d6b92282f51d3d846040516109869190611dbe565b60405180910390a350505050565b600260205281600052604060002081815481106109b057600080fd5b906000526020600020016000915091509054906101000a900473ffffffffffffffffffffffffffffffffffffffff1681565b6060600080600080600160008863ffffffff1663ffffffff16815260200190815260200160002060008773ffffffffffffffffffffffffffffffffffffffff1673ffffffffffffffffffffffffffffffffffffffff168152602001908152602001600020604051806080016040529081600082018054610a6190611f41565b80601f0160208091040260200160405190810160405280929190818152602001828054610a8d90611f41565b8015610ada5780601f10610aaf57610100808354040283529160200191610ada565b820191906000526020600020905b815481529060010190602001808311610abd57829003601f168201915b50505050508152602001600182015481526020016002820160009054906101000a900460ff166002811115610b1257610b11611ad8565b5b6002811115610b2457610b23611ad8565b5b81526020016003820154815250509050806000015181602001518260400151836060015194509450945094505092959194509250565b60007f0000000000000000000000000000000000000000000000000000000000000000905090565b6060600260008363ffffffff1663ffffffff168152602001908152602001600020805480602002602001604051908101604052809291908181526020018280548015610c2357602002820191906000526020600020905b8160009054906101000a900473ffffffffffffffffffffffffffffffffffffffff1673ffffffffffffffffffffffffffffffffffffffff1681526020019060010190808311610bd9575b50505050509050919050565b600080600084815260200190815260200160002060000160008373ffffffffffffffffffffffffffffffffffffffff1673ffffffffffffffffffffffffffffffffffffffff16815260200190815260200160002060009054906101000a900460ff16905092915050565b6000801b81565b600080600260008463ffffffff1663ffffffff168152602001908152602001600020805480602002602001604051908101604052809291908181526020018280548015610d4257602002820191906000526020600020905b8160009054906101000a900473ffffffffffffffffffffffffffffffffffffffff1673ffffffffffffffffffffffffffffffffffffffff1681526020019060010190808311610cf8575b5050505050905060005b8151811015610e295760006002811115610d6957610d68611ad8565b5b600160008663ffffffff1663ffffffff1681526020019081526020016000206000848481518110610d9d57610d9c61204a565b5b602002602001015173ffffffffffffffffffffffffffffffffffffffff1673ffffffffffffffffffffffffffffffffffffffff16815260200190815260200160002060020160009054906101000a900460ff166002811115610e0257610e01611ad8565b5b03610e16578280610e12906120a8565b9350505b8080610e21906120a8565b915050610d4c565b5050919050565b7f20b5f7ac978e5d6199de06401411960dfa81d2f762655f6206bdc61d46fc19e6610e5a816114e0565b600360008663ffffffff1663ffffffff16815260200190815260200160002060008573ffffffffffffffffffffffffffffffffffffffff1673ffffffffffffffffffffffffffffffffffffffff16815260200190815260200160002060009054906101000a900460ff16610f03576040517f08c379a0000000000000000000000000000000000000000000000000000000008152600401610efa90611fbe565b60405180910390fd5b60006002811115610f1757610f16611ad8565b5b600160008763ffffffff1663ffffffff16815260200190815260200160002060008673ffffffffffffffffffffffffffffffffffffffff1673ffffffffffffffffffffffffffffffffffffffff16815260200190815260200160002060020160009054906101000a900460ff166002811115610f9657610f95611ad8565b5b14610fd6576040517f08c379a0000000000000000000000000000000000000000000000000000000008152600401610fcd9061202a565b60405180910390fd5b6002600160008763ffffffff1663ffffffff16815260200190815260200160002060008673ffffffffffffffffffffffffffffffffffffffff1673ffffffffffffffffffffffffffffffffffffffff16815260200190815260200160002060020160006101000a81548160ff0219169083600281111561105957611058611ad8565b5b02179055508463ffffffff168473ffffffffffffffffffffffffffffffffffffffff167fc1f279e647b3a4113712e73bc1bff8106e8a435474807e90d606bc780f5f7d7585856040516110ad92919061212c565b60405180910390a35050505050565b6110c5826104db565b6110ce816114e0565b6110d883836115f4565b50505050565b60008282905011611124576040517f08c379a000000000000000000000000000000000000000000000000000000000815260040161111b9061219c565b60405180910390fd5b600360008463ffffffff1663ffffffff168152602001908152602001600020600061114d6115e5565b73ffffffffffffffffffffffffffffffffffffffff1673ffffffffffffffffffffffffffffffffffffffff16815260200190815260200160002060009054906101000a900460ff16156111d5576040517f08c379a00000000000000000000000000000000000000000000000000000000081526004016111cc9061222e565b60405180910390fd5b604051806080016040528083838080601f016020809104026020016040519081016040528093929190818152602001838380828437600081840152601f19601f8201169050808301925050505050505081526020014281526020016000600281111561124457611243611ad8565b5b81526020016000815250600160008563ffffffff1663ffffffff16815260200190815260200160002060006112776115e5565b73ffffffffffffffffffffffffffffffffffffffff1673ffffffffffffffffffffffffffffffffffffffff16815260200190815260200160002060008201518160000190816112c69190612429565b506020820151816001015560408201518160020160006101000a81548160ff021916908360028111156112fc576112fb611ad8565b5b021790555060608201518160030155905050600260008463ffffffff1663ffffffff1681526020019081526020016000206113356115e5565b9080600181540180825580915050600190039060005260206000200160009091909190916101000a81548173ffffffffffffffffffffffffffffffffffffffff021916908373ffffffffffffffffffffffffffffffffffffffff1602179055506001600360008563ffffffff1663ffffffff16815260200190815260200160002060006113c06115e5565b73ffffffffffffffffffffffffffffffffffffffff1673ffffffffffffffffffffffffffffffffffffffff16815260200190815260200160002060006101000a81548160ff0219169083151502179055508263ffffffff166114206115e5565b73ffffffffffffffffffffffffffffffffffffffff167fb6459cfc17d50e12d57cdd15896c37993163875c58085507fdd4038016426ad7848442604051611469939291906124fb565b60405180910390a3505050565b60007f01ffc9a7000000000000000000000000000000000000000000000000000000007bffffffffffffffffffffffffffffffffffffffffffffffffffffffff1916827bffffffffffffffffffffffffffffffffffffffffffffffffffffffff1916149050919050565b6114f1816114ec6115e5565b6116e6565b50565b60006115008383610c2f565b6115da57600160008085815260200190815260200160002060000160008473ffffffffffffffffffffffffffffffffffffffff1673ffffffffffffffffffffffffffffffffffffffff16815260200190815260200160002060006101000a81548160ff0219169083151502179055506115776115e5565b73ffffffffffffffffffffffffffffffffffffffff168273ffffffffffffffffffffffffffffffffffffffff16847f2f8788117e7eff1d82e926ec794901d17c78024a50270940304540a733656f0d60405160405180910390a4600190506115df565b600090505b92915050565b60006115ef611737565b905090565b60006116008383610c2f565b156116db57600080600085815260200190815260200160002060000160008473ffffffffffffffffffffffffffffffffffffffff1673ffffffffffffffffffffffffffffffffffffffff16815260200190815260200160002060006101000a81548160ff0219169083151502179055506116786115e5565b73ffffffffffffffffffffffffffffffffffffffff168273ffffffffffffffffffffffffffffffffffffffff16847ff6391f5c32d9c69d2a47ea670b442974b53935d1edc7fd64eb21e047a839171b60405160405180910390a4600190506116e0565b600090505b92915050565b6116f08282610c2f565b6117335780826040517fe2517d3f00000000000000000000000000000000000000000000000000000000815260040161172a92919061252d565b60405180910390fd5b5050565b60008060003690509050600061174b6117a3565b9050808210158015611762575061176133610669565b5b156117935760003682840390809261177c93929190612560565b9061178791906125d2565b60601c925050506117a0565b61179b6117b2565b925050505b90565b60006117ad6117ba565b905090565b600033905090565b60006014905090565b600080fd5b600080fd5b600063ffffffff82169050919050565b6117e6816117cd565b81146117f157600080fd5b50565b600081359050611803816117dd565b92915050565b600073ffffffffffffffffffffffffffffffffffffffff82169050919050565b600061183482611809565b9050919050565b61184481611829565b811461184f57600080fd5b50565b6000813590506118618161183b565b92915050565b6000806040838503121561187e5761187d6117c3565b5b600061188c858286016117f4565b925050602061189d85828601611852565b9150509250929050565b60008115159050919050565b6118bc816118a7565b82525050565b60006020820190506118d760008301846118b3565b92915050565b60007fffffffff0000000000000000000000000000000000000000000000000000000082169050919050565b611912816118dd565b811461191d57600080fd5b50565b60008135905061192f81611909565b92915050565b60006020828403121561194b5761194a6117c3565b5b600061195984828501611920565b91505092915050565b6000819050919050565b61197581611962565b82525050565b6000602082019050611990600083018461196c565b92915050565b61199f81611962565b81146119aa57600080fd5b50565b6000813590506119bc81611996565b92915050565b6000602082840312156119d8576119d76117c3565b5b60006119e6848285016119ad565b91505092915050565b60008060408385031215611a0657611a056117c3565b5b6000611a14858286016119ad565b9250506020611a2585828601611852565b9150509250929050565b600081519050919050565b600082825260208201905092915050565b60005b83811015611a69578082015181840152602081019050611a4e565b60008484015250505050565b6000601f19601f8301169050919050565b6000611a9182611a2f565b611a9b8185611a3a565b9350611aab818560208601611a4b565b611ab481611a75565b840191505092915050565b6000819050919050565b611ad281611abf565b82525050565b7f4e487b7100000000000000000000000000000000000000000000000000000000600052602160045260246000fd5b60038110611b1857611b17611ad8565b5b50565b6000819050611b2982611b07565b919050565b6000611b3982611b1b565b9050919050565b611b4981611b2e565b82525050565b60006080820190508181036000830152611b698187611a86565b9050611b786020830186611ac9565b611b856040830185611b40565b611b926060830184611ac9565b95945050505050565b600060208284031215611bb157611bb06117c3565b5b6000611bbf84828501611852565b91505092915050565b611bd181611abf565b8114611bdc57600080fd5b50565b600081359050611bee81611bc8565b92915050565b600080600060608486031215611c0d57611c0c6117c3565b5b6000611c1b868287016117f4565b9350506020611c2c86828701611852565b9250506040611c3d86828701611bdf565b9150509250925092565b60008060408385031215611c5e57611c5d6117c3565b5b6000611c6c858286016117f4565b9250506020611c7d85828601611bdf565b9150509250929050565b611c9081611829565b82525050565b6000602082019050611cab6000830184611c87565b92915050565b600060208284031215611cc757611cc66117c3565b5b6000611cd5848285016117f4565b91505092915050565b600081519050919050565b600082825260208201905092915050565b6000819050602082019050919050565b611d1381611829565b82525050565b6000611d258383611d0a565b60208301905092915050565b6000602082019050919050565b6000611d4982611cde565b611d538185611ce9565b9350611d5e83611cfa565b8060005b83811015611d8f578151611d768882611d19565b9750611d8183611d31565b925050600181019050611d62565b5085935050505092915050565b60006020820190508181036000830152611db68184611d3e565b905092915050565b6000602082019050611dd36000830184611ac9565b92915050565b600080fd5b600080fd5b600080fd5b60008083601f840112611dfe57611dfd611dd9565b5b8235905067ffffffffffffffff811115611e1b57611e1a611dde565b5b602083019150836001820283011115611e3757611e36611de3565b5b9250929050565b60008060008060608587031215611e5857611e576117c3565b5b6000611e66878288016117f4565b9450506020611e7787828801611852565b935050604085013567ffffffffffffffff811115611e9857611e976117c8565b5b611ea487828801611de8565b925092505092959194509250565b600080600060408486031215611ecb57611eca6117c3565b5b6000611ed9868287016117f4565b935050602084013567ffffffffffffffff811115611efa57611ef96117c8565b5b611f0686828701611de8565b92509250509250925092565b7f4e487b7100000000000000000000000000000000000000000000000000000000600052602260045260246000fd5b60006002820490506001821680611f5957607f821691505b602082108103611f6c57611f6b611f12565b5b50919050565b7f4e6f207375626d697373696f6e20666f756e6400000000000000000000000000600082015250565b6000611fa8601383611a3a565b9150611fb382611f72565b602082019050919050565b60006020820190508181036000830152611fd781611f9b565b9050919050565b7f4e6f742070656e64696e67000000000000000000000000000000000000000000600082015250565b6000612014600b83611a3a565b915061201f82611fde565b602082019050919050565b6000602082019050818103600083015261204381612007565b9050919050565b7f4e487b7100000000000000000000000000000000000000000000000000000000600052603260045260246000fd5b7f4e487b7100000000000000000000000000000000000000000000000000000000600052601160045260246000fd5b60006120b382611abf565b91507fffffffffffffffffffffffffffffffffffffffffffffffffffffffffffffffff82036120e5576120e4612079565b5b600182019050919050565b82818337600083830152505050565b600061210b8385611a3a565b93506121188385846120f0565b61212183611a75565b840190509392505050565b600060208201905081810360008301526121478184866120ff565b90509392505050565b7f4950465320686173682072657175697265640000000000000000000000000000600082015250565b6000612186601283611a3a565b915061219182612150565b602082019050919050565b600060208201905081810360008301526121b581612179565b9050919050565b7f416c7265616479207375626d697474656420666f72207468697320706572696f60008201527f6400000000000000000000000000000000000000000000000000000000000000602082015250565b6000612218602183611a3a565b9150612223826121bc565b604082019050919050565b600060208201905081810360008301526122478161220b565b9050919050565b7f4e487b7100000000000000000000000000000000000000000000000000000000600052604160045260246000fd5b60008190508160005260206000209050919050565b60006020601f8301049050919050565b600082821b905092915050565b6000600883026122df7fffffffffffffffffffffffffffffffffffffffffffffffffffffffffffffffff826122a2565b6122e986836122a2565b95508019841693508086168417925050509392505050565b6000819050919050565b600061232661232161231c84611abf565b612301565b611abf565b9050919050565b6000819050919050565b6123408361230b565b61235461234c8261232d565b8484546122af565b825550505050565b600090565b61236961235c565b612374818484612337565b505050565b5b818110156123985761238d600082612361565b60018101905061237a565b5050565b601f8211156123dd576123ae8161227d565b6123b784612292565b810160208510156123c6578190505b6123da6123d285612292565b830182612379565b50505b505050565b600082821c905092915050565b6000612400600019846008026123e2565b1980831691505092915050565b600061241983836123ef565b9150826002028217905092915050565b61243282611a2f565b67ffffffffffffffff81111561244b5761244a61224e565b5b6124558254611f41565b61246082828561239c565b600060209050601f8311600181146124935760008415612481578287015190505b61248b858261240d565b8655506124f3565b601f1984166124a18661227d565b60005b828110156124c9578489015182556001820191506020850194506020810190506124a4565b868310156124e657848901516124e2601f8916826123ef565b8355505b6001600288020188555050505b505050505050565b600060408201905081810360008301526125168185876120ff565b90506125256020830184611ac9565b949350505050565b60006040820190506125426000830185611c87565b61254f602083018461196c565b9392505050565b600080fd5b600080fd5b6000808585111561257457612573612556565b5b838611156125855761258461255b565b5b6001850283019150848603905094509492505050565b600082905092915050565b60007fffffffffffffffffffffffffffffffffffffffff00000000000000000000000082169050919050565b60006125de838361259b565b826125e981356125a6565b92506014821015612629576126247fffffffffffffffffffffffffffffffffffffffff000000000000000000000000836014036008026122a2565b831692505b50509291505056fea2646970667358221220ef8ed026271c2d3d2be3f989d3c5731f4cd9efad82ea589304f90266354acf9364736f6c63430008140033",
  "linkReferences": {},
  "deployedLinkReferences": {}
}