{
  "_format": "hh-sol-artifact-1",
  "contractName": "Forwarder",
  "sourceName": "contracts/Forwarder.sol",
  "abi": [
    {
      "inputs": [],
      "stateMutability": "nonpayable",
      "type": "constructor"
    },
    {
      "inputs": [
        {
          "internalType": "uint48",
          "name": "deadline",
          "type": "uint48"
        }
      ],
      "name": "ERC2771ForwarderExpiredRequest",
      "type": "error"
    },
    {
      "inputs": [
        {
          "internalType": "address",
          "name": "signer",
          "type": "address"
        },
        {
          "internalType": "address",
          "name": "from",
          "type": "address"
        }
      ],
      "name": "ERC2771ForwarderInvalidSigner",
      "type": "error"
    },
    {
      "inputs": [
        {
          "internalType": "uint256",
          "name": "requestedValue",
          "type": "uint256"
        },
        {
          "internalType": "uint256",
          "name": "msgValue",
          "type": "uint256"
        }
      ],
      "name": "ERC2771ForwarderMismatchedValue",
      "type": "error"
    },
    {
      "inputs": [
        {
          "internalType": "address",
          "name": "target",
          "type": "address"
        },
        {
          "internalType": "address",
          "name": "forwarder",
          "type": "address"
        }
      ],
      "name": "ERC2771UntrustfulTarget",
      "type": "error"
    },
    {
      "inputs": [],
      "name": "FailedCall",
      "type": "error"
    },
    {
      "inputs": [
        {
          "internalType": "uint256",
          "name": "balance",
          "type": "uint256"
        },
        {
          "internalType": "uint256",
          "name": "needed",
          "type": "uint256"
        }
      ],
      "name": "InsufficientBalance",
      "type": "error"
    },
    {
      "inputs": [
        {
          "internalType": "address",
          "name": "account",
          "type": "address"
        },
        {
          "internalType": "uint256",
          "name": "currentNonce",
          "type": "uint256"
        }
      ],
      "name": "InvalidAccountNonce",
      "type": "error"
    },
    {
      "inputs": [],
      "name": "InvalidShortString",
      "type": "error"
    },
    {
      "inputs": [
        {
          "internalType": "string",
          "name": "str",
          "type": "string"
        }
      ],
      "name": "StringTooLong",
      "type": "error"
    },
    {
      "anonymous": false,
      "inputs": [],
      "name": "EIP712DomainChanged",
      "type": "event"
    },
    {
      "anonymous": false,
      "inputs": [
        {
          "indexed": true,
          "internalType": "address",
          "name": "signer",
          "type": "address"
        },
        {
          "indexed": false,
          "internalType": "uint256",
          "name": "nonce",
          "type": "uint256"
        },
        {
          "indexed": false,
          "internalType": "bool",
          "name": "success",
          "type": "bool"
        }
      ],
      "name": "ExecutedForwardRequest",
      "type": "event"
    },
    {
      "inputs": [],
      "name": "eip712Domain",
      "outputs": [
        {
          "internalType": "bytes1",
          "name": "fields",
          "type": "bytes1"
        },
        {
          "internalType": "string",
          "name": "name",
          "type": "string"
        },
        {
          "internalType": "string",
          "name": "version",
          "type": "string"
        },
        {
          "internalType": "uint256",
          "name": "chainId",
          "type": "uint256"
        },
        {
          "internalType": "address",
          "name": "verifyingContract",
          "type": "address"
        },
        {
          "internalType": "bytes32",
          "name": "salt",
          "type": "bytes32"
        },
        {
          "internalType": "uint256[]",
          "name": "extensions",
          "type": "uint256[]"
        }
      ],
      "stateMutability": "view",
      "type": "function"
    },
    {
      "inputs": [
        {
          "components": [
            {
              "internalType": "address",
              "name": "from",
              "type": "address"
            },
            {
              "internalType": "address",
              "name": "to",
              "type": "address"
            },
            {
              "internalType": "uint256",
              "name": "value",
              "type": "uint256"
            },
            {
              "internalType": "uint256",
              "name": "gas",
              "type": "uint256"
            },
            {
              "internalType": "uint48",
              "name": "deadline",
              "type": "uint48"
            },
            {
              "internalType": "bytes",
              "name": "data",
              "type": "bytes"
            },
            {
              "internalType": "bytes",
              "name": "signature",
              "type": "bytes"
            }
          ],
          "internalType": "struct ERC2771Forwarder.ForwardRequestData",
          "name": "request",
          "type": "tuple"
        }
      ],
      "name": "execute",
      "outputs": [],
      "stateMutability": "payable",
      "type": "function"
    },
    {
      "inputs": [
        {
          "components": [
            {
              "internalType": "address",
              "name": "from",
              "type": "address"
            },
            {
              "internalType": "address",
              "name": "to",
              "type": "address"
            },
            {
              "internalType": "uint256",
              "name": "value",
              "type": "uint256"
            },
            {
              "internalType": "uint256",
              "name": "gas",
              "type": "uint256"
            },
            {
              "internalType": "uint48",
              "name": "deadline",
              "type": "uint48"
            },
            {
              "internalType": "bytes",
              "name": "data",
              "type": "bytes"
            },
            {
              "internalType": "bytes",
              "name": "signature",
              "type": "bytes"
            }
          ],
          "internalType": "struct ERC2771Forwarder.ForwardRequestData[]",
          "name": "requests",
          "type": "tuple[]"
        },
        {
          "internalType": "address payable",
          "name": "refundReceiver",
          "type": "address"
        }
      ],
      "name": "executeBatch",
      "outputs": [],
      "stateMutability": "payable",
      "type": "function"
    },
    {
      "inputs": [
        {
          "internalType": "address",
          "name": "owner",
          "type": "address"
        }
      ],
      "name": "nonces",
      "outputs": [
        {
          "internalType": "uint256",
          "name": "",
          "type": "uint256"
        }
      ],
      "stateMutability": "view",
      "type": "function"
    },
    {
      "inputs": [
        {
          "components": [
            {
              "internalType": "address",
              "name": "from",
              "type": "address"
            },
            {
              "internalType": "address",
              "name": "to",
              "type": "address"
            },
            {
              "internalType": "uint256",
              "name": "value",
              "type": "uint256"
            },
            {
              "internalType": "uint256",
              "name": "gas",
              "type": "uint256"
            },
            {
              "internalType": "uint48",
              "name": "deadline",
              "type": "uint48"
            },
            {
              "internalType": "bytes",
              "name": "data",
              "type": "bytes"
            },
            {
              "internalType": "bytes",
              "name": "signature",
              "type": "bytes"
            }
          ],
          "internalType": "struct ERC2771Forwarder.ForwardRequestData",
          "name": "request",
          "type": "tuple"
        }
      ],
      "name": "verify",
      "outputs": [
        {
          "internalType": "bool",
          "name": "",
          "type": "bool"
        }
      ],
      "stateMutability": "view",
      "type": "function"
    }
  ],
  "bytecode": "0x6101606040523480156200001257600080fd5b506040518060400160405280600981526020017f466f727761726465720000000000000000000000000000000000000000000000815250806040518060400160405280600181526020017f3100000000000000000000000000000000000000000000000000000000000000815250620000966000836200013760201b90919060201c565b6101208181525050620000b46001826200013760201b90919060201c565b6101408181525050818051906020012060e08181525050808051906020012061010081815250504660a08181525050620000f36200018f60201b60201c565b608081815250503073ffffffffffffffffffffffffffffffffffffffff1660c08173ffffffffffffffffffffffffffffffffffffffff1681525050505050620007e7565b60006020835110156200015d576200015583620001ec60201b60201c565b905062000189565b826200016f836200025960201b60201c565b6000019081620001809190620004dd565b5060ff60001b90505b92915050565b60007f8b73c3c69bb8fe3d512ecc4cf759cc79239f7b179b0ffacaa9a75d522b39400f60e051610100514630604051602001620001d195949392919062000635565b60405160208183030381529060405280519060200120905090565b600080829050601f815111156200023c57826040517f305a27a900000000000000000000000000000000000000000000000000000000815260040162000233919062000721565b60405180910390fd5b8051816200024a9062000777565b60001c1760001b915050919050565b6000819050919050565b600081519050919050565b7f4e487b7100000000000000000000000000000000000000000000000000000000600052604160045260246000fd5b7f4e487b7100000000000000000000000000000000000000000000000000000000600052602260045260246000fd5b60006002820490506001821680620002e557607f821691505b602082108103620002fb57620002fa6200029d565b5b50919050565b60008190508160005260206000209050919050565b60006020601f8301049050919050565b600082821b905092915050565b600060088302620003657fffffffffffffffffffffffffffffffffffffffffffffffffffffffffffffffff8262000326565b62000371868362000326565b95508019841693508086168417925050509392505050565b6000819050919050565b6000819050919050565b6000620003be620003b8620003b28462000389565b62000393565b62000389565b9050919050565b6000819050919050565b620003da836200039d565b620003f2620003e982620003c5565b84845462000333565b825550505050565b600090565b62000409620003fa565b62000416818484620003cf565b505050565b5b818110156200043e5762000432600082620003ff565b6001810190506200041c565b5050565b601f8211156200048d57620004578162000301565b620004628462000316565b8101602085101562000472578190505b6200048a620004818562000316565b8301826200041b565b50505b505050565b600082821c905092915050565b6000620004b26000198460080262000492565b1980831691505092915050565b6000620004cd83836200049f565b9150826002028217905092915050565b620004e88262000263565b67ffffffffffffffff8111156200050457620005036200026e565b5b620005108254620002cc565b6200051d82828562000442565b600060209050601f83116001811462000555576000841562000540578287015190505b6200054c8582620004bf565b865550620005bc565b601f198416620005658662000301565b60005b828110156200058f5784890151825560018201915060208501945060208101905062000568565b86831015620005af5784890151620005ab601f8916826200049f565b8355505b6001600288020188555050505b505050505050565b6000819050919050565b620005d981620005c4565b82525050565b620005ea8162000389565b82525050565b600073ffffffffffffffffffffffffffffffffffffffff82169050919050565b60006200061d82620005f0565b9050919050565b6200062f8162000610565b82525050565b600060a0820190506200064c6000830188620005ce565b6200065b6020830187620005ce565b6200066a6040830186620005ce565b620006796060830185620005df565b62000688608083018462000624565b9695505050505050565b600082825260208201905092915050565b60005b83811015620006c3578082015181840152602081019050620006a6565b60008484015250505050565b6000601f19601f8301169050919050565b6000620006ed8262000263565b620006f9818562000692565b93506200070b818560208601620006a3565b6200071681620006cf565b840191505092915050565b600060208201905081810360008301526200073d8184620006e0565b905092915050565b600081519050919050565b6000819050602082019050919050565b60006200076e8251620005c4565b80915050919050565b6000620007848262000745565b82620007908462000750565b90506200079d8162000760565b92506020821015620007e057620007db7fffffffffffffffffffffffffffffffffffffffffffffffffffffffffffffffff8360200360080262000326565b831692505b5050919050565b60805160a05160c05160e051610100516101205161014051611a72620008426000396000610535015260006104fa01526000610f5401526000610f3301526000610cd601526000610d2c01526000610d550152611a726000f3fe60806040526004361061004a5760003560e01c806319d8d38c1461004f5780637ecebe001461008c57806384b0196e146100c9578063ccf96b4a146100fa578063df905caf14610116575b600080fd5b34801561005b57600080fd5b5061007660048036038101906100719190610fd2565b610132565b6040516100839190611036565b60405180910390f35b34801561009857600080fd5b506100b360048036038101906100ae91906110af565b610165565b6040516100c091906110f5565b60405180910390f35b3480156100d557600080fd5b506100de6101ae565b6040516100f197969594939291906112c1565b60405180910390f35b610114600480360381019061010f91906113e8565b610258565b005b610130600480360381019061012b9190610fd2565b6103b4565b005b60008060008061014185610446565b509250925092508280156101525750815b801561015b5750805b9350505050919050565b6000600260008373ffffffffffffffffffffffffffffffffffffffff1673ffffffffffffffffffffffffffffffffffffffff168152602001908152602001600020549050919050565b6000606080600080600060606101c26104f1565b6101ca61052c565b46306000801b600067ffffffffffffffff8111156101eb576101ea611448565b5b6040519080825280602002602001820160405280156102195781602001602082028036833780820191505090505b507f0f00000000000000000000000000000000000000000000000000000000000000959493929190965096509650965096509650965090919293949596565b60008073ffffffffffffffffffffffffffffffffffffffff168273ffffffffffffffffffffffffffffffffffffffff1614905060008060005b86869050811015610352578686828181106102af576102ae611477565b5b90506020028101906102c191906114b5565b60400135836102d0919061150c565b925060006103028888848181106102ea576102e9611477565b5b90506020028101906102fc91906114b5565b86610567565b9050806103405787878381811061031c5761031b611477565b5b905060200281019061032e91906114b5565b604001358361033d919061150c565b92505b508061034b90611540565b9050610291565b503482146103995781346040517f70647f79000000000000000000000000000000000000000000000000000000008152600401610390929190611588565b60405180910390fd5b600081146103ac576103ab848261079c565b5b505050505050565b80604001353414610402578060400135346040517f70647f790000000000000000000000000000000000000000000000000000000081526004016103f9929190611588565b60405180910390fd5b61040d816001610567565b610443576040517fd6bda27500000000000000000000000000000000000000000000000000000000815260040160405180910390fd5b50565b60008060008060008061045887610866565b9150915061047787602001602081019061047291906110af565b6109e3565b4288608001602081019061048b91906115ef565b65ffffffffffff1610158380156104df57508860000160208101906104b091906110af565b73ffffffffffffffffffffffffffffffffffffffff168373ffffffffffffffffffffffffffffffffffffffff16145b83955095509550955050509193509193565b606061052760007f0000000000000000000000000000000000000000000000000000000000000000610a7f90919063ffffffff16565b905090565b606061056260017f0000000000000000000000000000000000000000000000000000000000000000610a7f90919063ffffffff16565b905090565b600080600080600061057887610446565b9350935093509350851561068757836105dc5786602001602081019061059e91906110af565b306040517fd2650cd10000000000000000000000000000000000000000000000000000000081526004016105d392919061161c565b60405180910390fd5b82610630578660800160208101906105f491906115ef565b6040517f94eef58a0000000000000000000000000000000000000000000000000000000081526004016106279190611654565b60405180910390fd5b81610686578087600001602081019061064991906110af565b6040517fc845a05600000000000000000000000000000000000000000000000000000000815260040161067d92919061161c565b60405180910390fd5b5b8380156106915750815b801561069a5750825b156107925760006106aa82610b2f565b905060008860600135905060008960200160208101906106ca91906110af565b905060008a60400135905060008b8060a001906106e7919061166f565b8d60000160208101906106fa91906110af565b60405160200161070c93929190611759565b6040516020818303038152906040529050600080600083516020850186888af19a505a905061073b818e610b86565b8673ffffffffffffffffffffffffffffffffffffffff167f842fb24a83793558587a3dab2be7674da4a51d09c5542d6dd354e5d0ea70813c878d604051610783929190611783565b60405180910390a25050505050505b5050505092915050565b804710156107e35747816040517fcf4791810000000000000000000000000000000000000000000000000000000081526004016107da929190611588565b60405180910390fd5b6000808373ffffffffffffffffffffffffffffffffffffffff168360405161080a906117d2565b60006040518083038185875af1925050503d8060008114610847576040519150601f19603f3d011682016040523d82523d6000602084013e61084c565b606091505b5091509150816108605761085f81610ba4565b5b50505050565b6000806000806109aa858060c0019061087f919061166f565b8080601f016020809104026020016040519081016040528093929190818152602001838380828437600081840152601f19601f8201169050808301925050505050505061099c7f7f96328b83274ebc7c1cf4f7a3abda602b51a78b7fa1d86a2ce353d75e587cac8860000160208101906108f991906110af565b89602001602081019061090c91906110af565b8a604001358b606001356109318d600001602081019061092c91906110af565b610165565b8d608001602081019061094491906115ef565b8e8060a00190610954919061166f565b6040516109629291906117e7565b6040518091039020604051602001610981989796959493929190611800565b60405160208183030381529060405280519060200120610be8565b610c0290919063ffffffff16565b5091509150600060038111156109c3576109c261187e565b5b8160038111156109d6576109d561187e565b5b1482935093505050915091565b600080306040516024016109f791906118ad565b60405160208183030381529060405263572b6c0560e01b6020820180517bffffffffffffffffffffffffffffffffffffffffffffffffffffffff83818316178352505050509050600080600060206000855160208701895afa92503d91506000519050828015610a68575060208210155b8015610a745750600081115b945050505050919050565b606060ff60001b8314610a9c57610a9583610c5e565b9050610b29565b818054610aa8906118f7565b80601f0160208091040260200160405190810160405280929190818152602001828054610ad4906118f7565b8015610b215780601f10610af657610100808354040283529160200191610b21565b820191906000526020600020905b815481529060010190602001808311610b0457829003601f168201915b505050505090505b92915050565b6000600260008373ffffffffffffffffffffffffffffffffffffffff1673ffffffffffffffffffffffffffffffffffffffff1681526020019081526020016000206000815480929190600101919050559050919050565b603f8160600135610b979190611957565b821015610ba057fe5b5050565b600081511115610bb657805160208201fd5b6040517fd6bda27500000000000000000000000000000000000000000000000000000000815260040160405180910390fd5b6000610bfb610bf5610cd2565b83610d89565b9050919050565b60008060006041845103610c475760008060006020870151925060408701519150606087015160001a9050610c3988828585610dca565b955095509550505050610c57565b60006002855160001b9250925092505b9250925092565b60606000610c6b83610ebe565b90506000602067ffffffffffffffff811115610c8a57610c89611448565b5b6040519080825280601f01601f191660200182016040528015610cbc5781602001600182028036833780820191505090505b5090508181528360208201528092505050919050565b60007f000000000000000000000000000000000000000000000000000000000000000073ffffffffffffffffffffffffffffffffffffffff163073ffffffffffffffffffffffffffffffffffffffff16148015610d4e57507f000000000000000000000000000000000000000000000000000000000000000046145b15610d7b577f00000000000000000000000000000000000000000000000000000000000000009050610d86565b610d83610f0e565b90505b90565b60006040517f190100000000000000000000000000000000000000000000000000000000000081528360028201528260228201526042812091505092915050565b60008060007f7fffffffffffffffffffffffffffffff5d576e7357a4501ddfe92f46681b20a08460001c1115610e0a576000600385925092509250610eb4565b600060018888888860405160008152602001604052604051610e2f94939291906119a4565b6020604051602081039080840390855afa158015610e51573d6000803e3d6000fd5b505050602060405103519050600073ffffffffffffffffffffffffffffffffffffffff168173ffffffffffffffffffffffffffffffffffffffff1603610ea557600060016000801b93509350935050610eb4565b8060008060001b935093509350505b9450945094915050565b60008060ff8360001c169050601f811115610f05576040517fb3512b0c00000000000000000000000000000000000000000000000000000000815260040160405180910390fd5b80915050919050565b60007f8b73c3c69bb8fe3d512ecc4cf759cc79239f7b179b0ffacaa9a75d522b39400f7f00000000000000000000000000000000000000000000000000000000000000007f00000000000000000000000000000000000000000000000000000000000000004630604051602001610f899594939291906119e9565b60405160208183030381529060405280519060200120905090565b600080fd5b600080fd5b600080fd5b600060e08284031215610fc957610fc8610fae565b5b81905092915050565b600060208284031215610fe857610fe7610fa4565b5b600082013567ffffffffffffffff81111561100657611005610fa9565b5b61101284828501610fb3565b91505092915050565b60008115159050919050565b6110308161101b565b82525050565b600060208201905061104b6000830184611027565b92915050565b600073ffffffffffffffffffffffffffffffffffffffff82169050919050565b600061107c82611051565b9050919050565b61108c81611071565b811461109757600080fd5b50565b6000813590506110a981611083565b92915050565b6000602082840312156110c5576110c4610fa4565b5b60006110d38482850161109a565b91505092915050565b6000819050919050565b6110ef816110dc565b82525050565b600060208201905061110a60008301846110e6565b92915050565b60007fff0000000000000000000000000000000000000000000000000000000000000082169050919050565b61114581611110565b82525050565b600081519050919050565b600082825260208201905092915050565b60005b8381101561118557808201518184015260208101905061116a565b60008484015250505050565b6000601f19601f8301169050919050565b60006111ad8261114b565b6111b78185611156565b93506111c7818560208601611167565b6111d081611191565b840191505092915050565b6111e481611071565b82525050565b6000819050919050565b6111fd816111ea565b82525050565b600081519050919050565b600082825260208201905092915050565b6000819050602082019050919050565b611238816110dc565b82525050565b600061124a838361122f565b60208301905092915050565b6000602082019050919050565b600061126e82611203565b611278818561120e565b93506112838361121f565b8060005b838110156112b457815161129b888261123e565b97506112a683611256565b925050600181019050611287565b5085935050505092915050565b600060e0820190506112d6600083018a61113c565b81810360208301526112e881896111a2565b905081810360408301526112fc81886111a2565b905061130b60608301876110e6565b61131860808301866111db565b61132560a08301856111f4565b81810360c08301526113378184611263565b905098975050505050505050565b600080fd5b600080fd5b600080fd5b60008083601f84011261136a57611369611345565b5b8235905067ffffffffffffffff8111156113875761138661134a565b5b6020830191508360208202830111156113a3576113a261134f565b5b9250929050565b60006113b582611051565b9050919050565b6113c5816113aa565b81146113d057600080fd5b50565b6000813590506113e2816113bc565b92915050565b60008060006040848603121561140157611400610fa4565b5b600084013567ffffffffffffffff81111561141f5761141e610fa9565b5b61142b86828701611354565b9350935050602061143e868287016113d3565b9150509250925092565b7f4e487b7100000000000000000000000000000000000000000000000000000000600052604160045260246000fd5b7f4e487b7100000000000000000000000000000000000000000000000000000000600052603260045260246000fd5b600080fd5b600080fd5b600080fd5b60008235600160e0038336030381126114d1576114d06114a6565b5b80830191505092915050565b7f4e487b7100000000000000000000000000000000000000000000000000000000600052601160045260246000fd5b6000611517826110dc565b9150611522836110dc565b925082820190508082111561153a576115396114dd565b5b92915050565b600061154b826110dc565b91507fffffffffffffffffffffffffffffffffffffffffffffffffffffffffffffffff820361157d5761157c6114dd565b5b600182019050919050565b600060408201905061159d60008301856110e6565b6115aa60208301846110e6565b9392505050565b600065ffffffffffff82169050919050565b6115cc816115b1565b81146115d757600080fd5b50565b6000813590506115e9816115c3565b92915050565b60006020828403121561160557611604610fa4565b5b6000611613848285016115da565b91505092915050565b600060408201905061163160008301856111db565b61163e60208301846111db565b9392505050565b61164e816115b1565b82525050565b60006020820190506116696000830184611645565b92915050565b6000808335600160200384360303811261168c5761168b6114a6565b5b80840192508235915067ffffffffffffffff8211156116ae576116ad6114ab565b5b6020830192506001820236038313156116ca576116c96114b0565b5b509250929050565b600081905092915050565b82818337600083830152505050565b60006116f883856116d2565b93506117058385846116dd565b82840190509392505050565b60008160601b9050919050565b600061172982611711565b9050919050565b600061173b8261171e565b9050919050565b61175361174e82611071565b611730565b82525050565b60006117668285876116ec565b91506117728284611742565b601482019150819050949350505050565b600060408201905061179860008301856110e6565b6117a56020830184611027565b9392505050565b50565b60006117bc6000836116d2565b91506117c7826117ac565b600082019050919050565b60006117dd826117af565b9150819050919050565b60006117f48284866116ec565b91508190509392505050565b600061010082019050611816600083018b6111f4565b611823602083018a6111db565b61183060408301896111db565b61183d60608301886110e6565b61184a60808301876110e6565b61185760a08301866110e6565b61186460c0830185611645565b61187160e08301846111f4565b9998505050505050505050565b7f4e487b7100000000000000000000000000000000000000000000000000000000600052602160045260246000fd5b60006020820190506118c260008301846111db565b92915050565b7f4e487b7100000000000000000000000000000000000000000000000000000000600052602260045260246000fd5b6000600282049050600182168061190f57607f821691505b602082108103611922576119216118c8565b5b50919050565b7f4e487b7100000000000000000000000000000000000000000000000000000000600052601260045260246000fd5b6000611962826110dc565b915061196d836110dc565b92508261197d5761197c611928565b5b828204905092915050565b600060ff82169050919050565b61199e81611988565b82525050565b60006080820190506119b960008301876111f4565b6119c66020830186611995565b6119d360408301856111f4565b6119e060608301846111f4565b95945050505050565b600060a0820190506119fe60008301886111f4565b611a0b60208301876111f4565b611a1860408301866111f4565b611a2560608301856110e6565b611a3260808301846111db565b969550505050505056fea264697066735822122064e9fe954cbd96ee50cd52cb095aa6b6696413987541806babc0054462796b0464736f6c63430008140033",
  "linkReferences": {},
  "deployedLinkReferences": {}
}