{
  "_format": "hh-sol-artifact-1",
  "contractName": "GreenProjectRegistry",
  "sourceName": "contracts/GreenProjectRegistry.sol",
  "abi": [
    {
      "inputs": [
        {
          "internalType": "address",
          "name": "admin",
          "type": "address"
        },
        {
          "internalType": "address",
          "name": "regulator",
          "type": "address"
        },
        {
          "internalType": "address",
          "name": "trustedForwarder",
          "type": "address"
        }
      ],
      "stateMutability": "nonpayable",
      "type": "constructor"
    },
    {
      "inputs": [],
      "name": "AccessControlBadConfirmation",
      "type": "error"
    },
    {
      "inputs": [
        {
          "internalType": "address",
          "name": "account",
          "type": "address"
        },
        {
          "internalType": "bytes32",
          "name": "neededRole",
          "type": "bytes32"
        }
      ],
      "name": "AccessControlUnauthorizedAccount",
      "type": "error"
    },
    {
      "anonymous": false,
      "inputs": [
        {
          "indexed": true,
          "internalType": "address",
          "name": "user",
          "type": "address"
        },
        {
          "indexed": true,
          "internalType": "uint256",
          "name": "submissionIndex",
          "type": "uint256"
        },
        {
          "indexed": false,
          "internalType": "string",
          "name": "reason",
          "type": "string"
        }
      ],
      "name": "ProjectRejected",
      "type": "event"
    },
    {
      "anonymous": false,
      "inputs": [
        {
          "indexed": true,
          "internalType": "address",
          "name": "user",
          "type": "address"
        },
        {
          "indexed": true,
          "internalType": "uint256",
          "name": "submissionIndex",
          "type": "uint256"
        },
        {
          "indexed": false,
          "internalType": "string",
          "name": "ipfsHash",
          "type": "string"
        },
        {
          "indexed": false,
          "internalType": "uint256",
          "name": "timestamp",
          "type": "uint256"
        }
      ],
      "name": "ProjectSubmitted",
      "type": "event"
    },
    {
      "anonymous": false,
      "inputs": [
        {
          "indexed": true,
          "internalType": "address",
          "name": "user",
          "type": "address"
        },
        {
          "indexed": true,
          "internalType": "uint256",
          "name": "submissionIndex",
          "type": "uint256"
        },
        {
          "indexed": false,
          "internalType": "uint256",
          "name": "verifiedAmount",
          "type": "uint256"
        }
      ],
      "name": "ProjectVerified",
      "type": "event"
    },
    {
      "anonymous": false,
      "inputs": [
        {
          "indexed": true,
          "internalType": "bytes32",
          "name": "role",
          "type": "bytes32"
        },
        {
          "indexed": true,
          "internalType": "bytes32",
          "name": "previousAdminRole",
          "type": "bytes32"
        },
        {
          "indexed": true,
          "internalType": "bytes32",
          "name": "newAdminRole",
          "type": "bytes32"
        }
      ],
      "name": "RoleAdminChanged",
      "type": "event"
    },
    {
      "anonymous": false,
      "inputs": [
        {
          "indexed": true,
          "internalType": "bytes32",
          "name": "role",
          "type": "bytes32"
        },
        {
          "indexed": true,
          "internalType": "address",
          "name": "account",
          "type": "address"
        },
        {
          "indexed": true,
          "internalType": "address",
          "name": "sender",
          "type": "address"
        }
      ],
      "name": "RoleGranted",
      "type": "event"
    },
    {
      "anonymous": false,
      "inputs": [
        {
          "indexed": true,
          "internalType": "bytes32",
          "name": "role",
          "type": "bytes32"
        },
        {
          "indexed": true,
          "internalType": "address",
          "name": "account",
          "type": "address"
        },
        {
          "indexed": true,
          "internalType": "address",
          "name": "sender",
          "type": "address"
        }
      ],
      "name": "RoleRevoked",
      "type": "event"
    },
    {
      "inputs": [],
      "name": "DEFAULT_ADMIN_ROLE",
      "outputs": [
        {
          "internalType": "bytes32",
          "name": "",
          "type": "bytes32"
        }
      ],
      "stateMutability": "view",
      "type": "function"
    },
    {
      "inputs": [],
      "name": "REGULATOR_ROLE",
      "outputs": [
        {
          "internalType": "bytes32",
          "name": "",
          "type": "bytes32"
        }
      ],
      "stateMutability": "view",
      "type": "function"
    },
    {
      "inputs": [],
      "name": "getMySubmissions",
      "outputs": [
        {
          "components": [
            {
              "internalType": "string",
              "name": "ipfsHash",
              "type": "string"
            },
            {
              "internalType": "uint256",
              "name": "submittedAt",
              "type": "uint256"
            },
            {
              "internalType": "enum GreenProjectRegistry.ProjectStatus",
              "name": "status",
              "type": "uint8"
            },
            {
              "internalType": "uint256",
              "name": "verifiedAmount",
              "type": "uint256"
            }
          ],
          "internalType": "struct GreenProjectRegistry.ProjectSubmission[]",
          "name": "",
          "type": "tuple[]"
        }
      ],
      "stateMutability": "view",
      "type": "function"
    },
    {
      "inputs": [
        {
          "internalType": "bytes32",
          "name": "role",
          "type": "bytes32"
        }
      ],
      "name": "getRoleAdmin",
      "outputs": [
        {
          "internalType": "bytes32",
          "name": "",
          "type": "bytes32"
        }
      ],
      "stateMutability": "view",
      "type": "function"
    },
    {
      "inputs": [
        {
          "internalType": "address",
          "name": "user",
          "type": "address"
        }
      ],
      "name": "getUserSubmissions",
      "outputs": [
        {
          "components": [
            {
              "internalType": "string",
              "name": "ipfsHash",
              "type": "string"
            },
            {
              "internalType": "uint256",
              "name": "submittedAt",
              "type": "uint256"
            },
            {
              "internalType": "enum GreenProjectRegistry.ProjectStatus",
              "name": "status",
              "type": "uint8"
            },
            {
              "internalType": "uint256",
              "name": "verifiedAmount",
              "type": "uint256"
            }
          ],
          "internalType": "struct GreenProjectRegistry.ProjectSubmission[]",
          "name": "",
          "type": "tuple[]"
        }
      ],
      "stateMutability": "view",
      "type": "function"
    },
    {
      "inputs": [
        {
          "internalType": "bytes32",
          "name": "role",
          "type": "bytes32"
        },
        {
          "internalType": "address",
          "name": "account",
          "type": "address"
        }
      ],
      "name": "grantRole",
      "outputs": [],
      "stateMutability": "nonpayable",
      "type": "function"
    },
    {
      "inputs": [
        {
          "internalType": "bytes32",
          "name": "role",
          "type": "bytes32"
        },
        {
          "internalType": "address",
          "name": "account",
          "type": "address"
        }
      ],
      "name": "hasRole",
      "outputs": [
        {
          "internalType": "bool",
          "name": "",
          "type": "bool"
        }
      ],
      "stateMutability": "view",
      "type": "function"
    },
    {
      "inputs": [
        {
          "internalType": "address",
          "name": "",
          "type": "address"
        }
      ],
      "name": "isSubmitter",
      "outputs": [
        {
          "internalType": "bool",
          "name": "",
          "type": "bool"
        }
      ],
      "stateMutability": "view",
      "type": "function"
    },
    {
      "inputs": [
        {
          "internalType": "address",
          "name": "forwarder",
          "type": "address"
        }
      ],
      "name": "isTrustedForwarder",
      "outputs": [
        {
          "internalType": "bool",
          "name": "",
          "type": "bool"
        }
      ],
      "stateMutability": "view",
      "type": "function"
    },
    {
      "inputs": [
        {
          "internalType": "address",
          "name": "user",
          "type": "address"
        },
        {
          "internalType": "uint256",
          "name": "index",
          "type": "uint256"
        },
        {
          "internalType": "string",
          "name": "reason",
          "type": "string"
        }
      ],
      "name": "markRejected",
      "outputs": [],
      "stateMutability": "nonpayable",
      "type": "function"
    },
    {
      "inputs": [
        {
          "internalType": "address",
          "name": "user",
          "type": "address"
        },
        {
          "internalType": "uint256",
          "name": "index",
          "type": "uint256"
        },
        {
          "internalType": "uint256",
          "name": "amount",
          "type": "uint256"
        }
      ],
      "name": "markVerified",
      "outputs": [],
      "stateMutability": "nonpayable",
      "type": "function"
    },
    {
      "inputs": [
        {
          "internalType": "uint256",
          "name": "",
          "type": "uint256"
        }
      ],
      "name": "projectSubmitters",
      "outputs": [
        {
          "internalType": "address",
          "name": "",
          "type": "address"
        }
      ],
      "stateMutability": "view",
      "type": "function"
    },
    {
      "inputs": [
        {
          "internalType": "bytes32",
          "name": "role",
          "type": "bytes32"
        },
        {
          "internalType": "address",
          "name": "callerConfirmation",
          "type": "address"
        }
      ],
      "name": "renounceRole",
      "outputs": [],
      "stateMutability": "nonpayable",
      "type": "function"
    },
    {
      "inputs": [
        {
          "internalType": "bytes32",
          "name": "role",
          "type": "bytes32"
        },
        {
          "internalType": "address",
          "name": "account",
          "type": "address"
        }
      ],
      "name": "revokeRole",
      "outputs": [],
      "stateMutability": "nonpayable",
      "type": "function"
    },
    {
      "inputs": [
        {
          "internalType": "string",
          "name": "ipfsHash",
          "type": "string"
        }
      ],
      "name": "submitProject",
      "outputs": [],
      "stateMutability": "nonpayable",
      "type": "function"
    },
    {
      "inputs": [
        {
          "internalType": "bytes4",
          "name": "interfaceId",
          "type": "bytes4"
        }
      ],
      "name": "supportsInterface",
      "outputs": [
        {
          "internalType": "bool",
          "name": "",
          "type": "bool"
        }
      ],
      "stateMutability": "view",
      "type": "function"
    },
    {
      "inputs": [],
      "name": "trustedForwarder",
      "outputs": [
        {
          "internalType": "address",
          "name": "",
          "type": "address"
        }
      ],
      "stateMutability": "view",
      "type": "function"
    },
    {
      "inputs": [
        {
          "internalType": "address",
          "name": "",
          "type": "address"
        },
        {
          "internalType": "uint256",
          "name": "",
          "type": "uint256"
        }
      ],
      "name": "userSubmissions",
      "outputs": [
        {
          "internalType": "string",
          "name": "ipfsHash",
          "type": "string"
        },
        {
          "internalType": "uint256",
          "name": "submittedAt",
          "type": "uint256"
        },
        {
          "internalType": "enum GreenProjectRegistry.ProjectStatus",
          "name": "status",
          "type": "uint8"
        },
        {
          "internalType": "uint256",
          "name": "verifiedAmount",
          "type": "uint256"
        }
      ],
      "stateMutability": "view",
      "type": "function"
    }
  ],
  "bytecode": "0x60a06040523480156200001157600080fd5b506040516200184a3803806200184a8339810160408190526200003491620001db565b6001600160a01b0381166080526200004e60008462000085565b506200007b7f20b5f7ac978e5d6199de06401411960dfa81d2f762655f6206bdc61d46fc19e68362000085565b5050505062000282565b6000828152602081815260408083206001600160a01b038516845290915281205460ff166200012c576000838152602081815260408083206001600160a01b03861684529091529020805460ff19166001179055620000e362000136565b6001600160a01b0316826001600160a01b0316847f2f8788117e7eff1d82e926ec794901d17c78024a50270940304540a733656f0d60405160405180910390a450600162000130565b5060005b92915050565b60006200014262000147565b905090565b6000366014808210801590620001635750620001633362000197565b156200018f576200017a3682840381600062000225565b620001859162000251565b60601c9250505090565b339250505090565b6000620001a360805190565b6001600160a01b0316826001600160a01b0316149050919050565b80516001600160a01b0381168114620001d657600080fd5b919050565b600080600060608486031215620001f157600080fd5b620001fc84620001be565b92506200020c60208501620001be565b91506200021c60408501620001be565b90509250925092565b600080858511156200023657600080fd5b838611156200024457600080fd5b5050820193919092039150565b6001600160601b031981358181169160148510156200027a5780818660140360031b1b83161692505b505092915050565b60805161159e620002ac600039600081816101d3015281816102300152610f78015261159e6000f3fe608060405234801561001057600080fd5b50600436106101165760003560e01c80638e2b0ff4116100a2578063a7b8614d11610071578063a7b8614d146102ba578063a926fdbc146102cd578063b21f9bd0146102f0578063d547741f14610303578063febf7f831461031657600080fd5b80638e2b0ff41461026757806391d148541461027c5780639b7e01801461028f578063a217fddf146102b257600080fd5b806336568abe116100e957806336568abe146101b0578063572b6c05146101c35780636412950a146102035780637da0a8771461022e578063832cc51f1461025457600080fd5b806301ffc9a71461011b578063144bf58914610143578063248a9ca3146101785780632f2ff15d1461019b575b600080fd5b61012e610129366004610fd2565b610329565b60405190151581526020015b60405180910390f35b61016a7f20b5f7ac978e5d6199de06401411960dfa81d2f762655f6206bdc61d46fc19e681565b60405190815260200161013a565b61016a610186366004611003565b60009081526020819052604090206001015490565b6101ae6101a9366004611038565b610360565b005b6101ae6101be366004611038565b61038b565b61012e6101d1366004611064565b7f00000000000000000000000000000000000000000000000000000000000000006001600160a01b0390811691161490565b610216610211366004611003565b6103d3565b6040516001600160a01b03909116815260200161013a565b7f0000000000000000000000000000000000000000000000000000000000000000610216565b6101ae6102623660046110c8565b6103fd565b61026f610657565b60405161013a9190611188565b61012e61028a366004611038565b6107b9565b6102a261029d36600461121d565b6107e2565b60405161013a9493929190611247565b61016a600081565b61026f6102c8366004611064565b6108bd565b61012e6102db366004611064565b60036020526000908152604090205460ff1681565b6101ae6102fe36600461127e565b610a0b565b6101ae610311366004611038565b610bcf565b6101ae6103243660046112d8565b610bf4565b60006001600160e01b03198216637965db0b60e01b148061035a57506301ffc9a760e01b6001600160e01b03198316145b92915050565b60008281526020819052604090206001015461037b81610dea565b6103858383610dfe565b50505050565b610393610e91565b6001600160a01b0316816001600160a01b0316146103c45760405163334bd91960e11b815260040160405180910390fd5b6103ce8282610ea0565b505050565b600281815481106103e357600080fd5b6000918252602090912001546001600160a01b0316905081565b806104445760405162461bcd60e51b815260206004820152601260248201527112541194c81a185cda081c995c5d5a5c995960721b60448201526064015b60405180910390fd5b6040805160a06020601f850181900402820181019092526080810183815260009282919086908690819085018382808284376000920182905250938552505042602084015250604090910190815260200160008152509050600160006104a8610e91565b6001600160a01b0316815260208082019290925260400160009081208054600181018255908252919020825183926004029091019081906104e990826113a9565b506020820151816001015560408201518160020160006101000a81548160ff0219169083600281111561051e5761051e611150565b02179055506060820151816003015550506000600180600061053e610e91565b6001600160a01b031681526020810191909152604001600020546105629190611469565b905060036000610570610e91565b6001600160a01b0316815260208101919091526040016000205460ff1661060457600261059b610e91565b81546001808201845560009384526020842090910180546001600160a01b0319166001600160a01b039390931692909217909155906003906105db610e91565b6001600160a01b031681526020810191909152604001600020805460ff19169115159190911790555b8061060d610e91565b6001600160a01b03167f8f0f14212881ec65136c584c035274888d2c601945aeb2d0b6e095a3e39ee765868642604051610649939291906114b3565b60405180910390a350505050565b606060016000610665610e91565b6001600160a01b03166001600160a01b03168152602001908152602001600020805480602002602001604051908101604052809291908181526020016000905b828210156107b057838290600052602060002090600402016040518060800160405290816000820180546106d890611321565b80601f016020809104026020016040519081016040528092919081815260200182805461070490611321565b80156107515780601f1061072657610100808354040283529160200191610751565b820191906000526020600020905b81548152906001019060200180831161073457829003601f168201915b50505091835250506001820154602082015260028083015460409092019160ff169081111561078257610782611150565b600281111561079357610793611150565b8152602001600382015481525050815260200190600101906106a5565b50505050905090565b6000918252602082815260408084206001600160a01b0393909316845291905290205460ff1690565b600160205281600052604060002081815481106107fe57600080fd5b90600052602060002090600402016000915091505080600001805461082290611321565b80601f016020809104026020016040519081016040528092919081815260200182805461084e90611321565b801561089b5780601f106108705761010080835404028352916020019161089b565b820191906000526020600020905b81548152906001019060200180831161087e57829003601f168201915b50505050600183015460028401546003909401549293909260ff909116915084565b6001600160a01b0381166000908152600160209081526040808320805482518185028101850190935280835260609492939192909184015b82821015610a00578382906000526020600020906004020160405180608001604052908160008201805461092890611321565b80601f016020809104026020016040519081016040528092919081815260200182805461095490611321565b80156109a15780601f10610976576101008083540402835291602001916109a1565b820191906000526020600020905b81548152906001019060200180831161098457829003601f168201915b50505091835250506001820154602082015260028083015460409092019160ff16908111156109d2576109d2611150565b60028111156109e3576109e3611150565b8152602001600382015481525050815260200190600101906108f5565b505050509050919050565b7f20b5f7ac978e5d6199de06401411960dfa81d2f762655f6206bdc61d46fc19e6610a3581610dea565b6001600160a01b0385166000908152600160205260409020548410610a925760405162461bcd60e51b8152602060048201526013602482015272496e646578206f7574206f6620626f756e647360681b604482015260640161043b565b6001600160a01b0385166000908152600160205260408120805486908110610abc57610abc6114d7565b60009182526020909120600260049092020181015460ff1690811115610ae457610ae4611150565b14610b1f5760405162461bcd60e51b815260206004820152600b60248201526a4e6f742070656e64696e6760a81b604482015260640161043b565b6001600160a01b038516600090815260016020526040902080546002919086908110610b4d57610b4d6114d7565b906000526020600020906004020160020160006101000a81548160ff02191690836002811115610b7f57610b7f611150565b021790555083856001600160a01b03167f8b7eb271471d9e44c29a93d02c607dede34c3535b25e9dd01e994da105dfb37c8585604051610bc09291906114ed565b60405180910390a35050505050565b600082815260208190526040902060010154610bea81610dea565b6103858383610ea0565b7f20b5f7ac978e5d6199de06401411960dfa81d2f762655f6206bdc61d46fc19e6610c1e81610dea565b6001600160a01b0384166000908152600160205260409020548310610c7b5760405162461bcd60e51b8152602060048201526013602482015272496e646578206f7574206f6620626f756e647360681b604482015260640161043b565b6001600160a01b0384166000908152600160205260408120805485908110610ca557610ca56114d7565b60009182526020909120600260049092020181015460ff1690811115610ccd57610ccd611150565b14610d085760405162461bcd60e51b815260206004820152600b60248201526a4e6f742070656e64696e6760a81b604482015260640161043b565b6001600160a01b0384166000908152600160208190526040909120805485908110610d3557610d356114d7565b906000526020600020906004020160020160006101000a81548160ff02191690836002811115610d6757610d67611150565b02179055506001600160a01b0384166000908152600160205260409020805483919085908110610d9957610d996114d7565b90600052602060002090600402016003018190555082846001600160a01b03167fffd53d1269159d018d781fbcbca91d379a4f2ec73dfce64a0fb009fbadd4e4258460405161064991815260200190565b610dfb81610df6610e91565b610f29565b50565b6000610e0a83836107b9565b610e89576000838152602081815260408083206001600160a01b03861684529091529020805460ff19166001179055610e41610e91565b6001600160a01b0316826001600160a01b0316847f2f8788117e7eff1d82e926ec794901d17c78024a50270940304540a733656f0d60405160405180910390a450600161035a565b50600061035a565b6000610e9b610f66565b905090565b6000610eac83836107b9565b15610e89576000838152602081815260408083206001600160a01b03861684529091529020805460ff19169055610ee1610e91565b6001600160a01b0316826001600160a01b0316847ff6391f5c32d9c69d2a47ea670b442974b53935d1edc7fd64eb21e047a839171b60405160405180910390a450600161035a565b610f3382826107b9565b610f625760405163e2517d3f60e01b81526001600160a01b03821660048201526024810183905260440161043b565b5050565b6000366014808210801590610fa357507f00000000000000000000000000000000000000000000000000000000000000006001600160a01b031633145b15610fca57610fb736828403816000611509565b610fc091611533565b60601c9250505090565b339250505090565b600060208284031215610fe457600080fd5b81356001600160e01b031981168114610ffc57600080fd5b9392505050565b60006020828403121561101557600080fd5b5035919050565b80356001600160a01b038116811461103357600080fd5b919050565b6000806040838503121561104b57600080fd5b8235915061105b6020840161101c565b90509250929050565b60006020828403121561107657600080fd5b610ffc8261101c565b60008083601f84011261109157600080fd5b50813567ffffffffffffffff8111156110a957600080fd5b6020830191508360208285010111156110c157600080fd5b9250929050565b600080602083850312156110db57600080fd5b823567ffffffffffffffff8111156110f257600080fd5b6110fe8582860161107f565b90969095509350505050565b6000815180845260005b8181101561113057602081850181015186830182015201611114565b506000602082860101526020601f19601f83011685010191505092915050565b634e487b7160e01b600052602160045260246000fd5b6003811061118457634e487b7160e01b600052602160045260246000fd5b9052565b60006020808301818452808551808352604092508286019150828160051b87010184880160005b8381101561120f57603f198984030185528151608081518186526111d58287018261110a565b9150508882015189860152878201516111f089870182611166565b50606091820151949091019390935293860193908601906001016111af565b509098975050505050505050565b6000806040838503121561123057600080fd5b6112398361101c565b946020939093013593505050565b60808152600061125a608083018761110a565b905084602083015261126f6040830185611166565b82606083015295945050505050565b6000806000806060858703121561129457600080fd5b61129d8561101c565b935060208501359250604085013567ffffffffffffffff8111156112c057600080fd5b6112cc8782880161107f565b95989497509550505050565b6000806000606084860312156112ed57600080fd5b6112f68461101c565b95602085013595506040909401359392505050565b634e487b7160e01b600052604160045260246000fd5b600181811c9082168061133557607f821691505b60208210810361135557634e487b7160e01b600052602260045260246000fd5b50919050565b601f8211156103ce57600081815260208120601f850160051c810160208610156113825750805b601f850160051c820191505b818110156113a15782815560010161138e565b505050505050565b815167ffffffffffffffff8111156113c3576113c361130b565b6113d7816113d18454611321565b8461135b565b602080601f83116001811461140c57600084156113f45750858301515b600019600386901b1c1916600185901b1785556113a1565b600085815260208120601f198616915b8281101561143b5788860151825594840194600190910190840161141c565b50858210156114595787850151600019600388901b60f8161c191681555b5050505050600190811b01905550565b8181038181111561035a57634e487b7160e01b600052601160045260246000fd5b81835281816020850137506000828201602090810191909152601f909101601f19169091010190565b6040815260006114c760408301858761148a565b9050826020830152949350505050565b634e487b7160e01b600052603260045260246000fd5b60208152600061150160208301848661148a565b949350505050565b6000808585111561151957600080fd5b8386111561152657600080fd5b5050820193919092039150565b6bffffffffffffffffffffffff1981358181169160148510156115605780818660140360031b1b83161692505b50509291505056fea264697066735822122015750b2b6a5656ad4529d3013d6d5ec19e743d41fd78c607d499f54e92ee9a7164736f6c63430008140033",
  "linkReferences": {},
  "deployedLinkReferences": {}
}