{
  "_format": "hh-sol-artifact-1",
  "contractName": "GreenProjectRegistry",
  "sourceName": "contracts/GreenProjectRegistry.sol",
  "abi": [
    {
      "inputs": [
        {
          "internalType": "address",
          "name": "admin",
          "type": "address"
        },
        {
          "internalType": "address",
          "name": "regulator",
          "type": "address"
        },
        {
          "internalType": "address",
          "name": "trustedForwarder",
          "type": "address"
        }
      ],
      "stateMutability": "nonpayable",
      "type": "constructor"
    },
    {
      "inputs": [],
      "name": "AccessControlBadConfirmation",
      "type": "error"
    },
    {
      "inputs": [
        {
          "internalType": "address",
          "name": "account",
          "type": "address"
        },
        {
          "internalType": "bytes32",
          "name": "neededRole",
          "type": "bytes32"
        }
      ],
      "name": "AccessControlUnauthorizedAccount",
      "type": "error"
    },
    {
      "anonymous": false,
      "inputs": [
        {
          "indexed": true,
          "internalType": "address",
          "name": "user",
          "type": "address"
        },
        {
          "indexed": true,
          "internalType": "uint256",
          "name": "submissionIndex",
          "type": "uint256"
        },
        {
          "indexed": false,
          "internalType": "string",
          "name": "reason",
          "type": "string"
        }
      ],
      "name": "ProjectRejected",
      "type": "event"
    },
    {
      "anonymous": false,
      "inputs": [
        {
          "indexed": true,
          "internalType": "address",
          "name": "user",
          "type": "address"
        },
        {
          "indexed": true,
          "internalType": "uint256",
          "name": "submissionIndex",
          "type": "uint256"
        },
        {
          "indexed": false,
          "internalType": "string",
          "name": "ipfsHash",
          "type": "string"
        },
        {
          "indexed": false,
          "internalType": "uint256",
          "name": "timestamp",
          "type": "uint256"
        }
      ],
      "name": "ProjectSubmitted",
      "type": "event"
    },
    {
      "anonymous": false,
      "inputs": [
        {
          "indexed": true,
          "internalType": "address",
          "name": "user",
          "type": "address"
        },
        {
          "indexed": true,
          "internalType": "uint256",
          "name": "submissionIndex",
          "type": "uint256"
        },
        {
          "indexed": false,
          "internalType": "uint256",
          "name": "verifiedAmount",
          "type": "uint256"
        }
      ],
      "name": "ProjectVerified",
      "type": "event"
    },
    {
      "anonymous": false,
      "inputs": [
        {
          "indexed": true,
          "internalType": "bytes32",
          "name": "role",
          "type": "bytes32"
        },
        {
          "indexed": true,
          "internalType": "bytes32",
          "name": "previousAdminRole",
          "type": "bytes32"
        },
        {
          "indexed": true,
          "internalType": "bytes32",
          "name": "newAdminRole",
          "type": "bytes32"
        }
      ],
      "name": "RoleAdminChanged",
      "type": "event"
    },
    {
      "anonymous": false,
      "inputs": [
        {
          "indexed": true,
          "internalType": "bytes32",
          "name": "role",
          "type": "bytes32"
        },
        {
          "indexed": true,
          "internalType": "address",
          "name": "account",
          "type": "address"
        },
        {
          "indexed": true,
          "internalType": "address",
          "name": "sender",
          "type": "address"
        }
      ],
      "name": "RoleGranted",
      "type": "event"
    },
    {
      "anonymous": false,
      "inputs": [
        {
          "indexed": true,
          "internalType": "bytes32",
          "name": "role",
          "type": "bytes32"
        },
        {
          "indexed": true,
          "internalType": "address",
          "name": "account",
          "type": "address"
        },
        {
          "indexed": true,
          "internalType": "address",
          "name": "sender",
          "type": "address"
        }
      ],
      "name": "RoleRevoked",
      "type": "event"
    },
    {
      "inputs": [],
      "name": "DEFAULT_ADMIN_ROLE",
      "outputs": [
        {
          "internalType": "bytes32",
          "name": "",
          "type": "bytes32"
        }
      ],
      "stateMutability": "view",
      "type": "function"
    },
    {
      "inputs": [],
      "name": "REGULATOR_ROLE",
      "outputs": [
        {
          "internalType": "bytes32",
          "name": "",
          "type": "bytes32"
        }
      ],
      "stateMutability": "view",
      "type": "function"
    },
    {
      "inputs": [],
      "name": "getMySubmissions",
      "outputs": [
        {
          "components": [
            {
              "internalType": "string",
              "name": "ipfsHash",
              "type": "string"
            },
            {
              "internalType": "uint256",
              "name": "submittedAt",
              "type": "uint256"
            },
            {
              "internalType": "enum GreenProjectRegistry.ProjectStatus",
              "name": "status",
              "type": "uint8"
            },
            {
              "internalType": "uint256",
              "name": "verifiedAmount",
              "type": "uint256"
            }
          ],
          "internalType": "struct GreenProjectRegistry.ProjectSubmission[]",
          "name": "",
          "type": "tuple[]"
        }
      ],
      "stateMutability": "view",
      "type": "function"
    },
    {
      "inputs": [
        {
          "internalType": "bytes32",
          "name": "role",
          "type": "bytes32"
        }
      ],
      "name": "getRoleAdmin",
      "outputs": [
        {
          "internalType": "bytes32",
          "name": "",
          "type": "bytes32"
        }
      ],
      "stateMutability": "view",
      "type": "function"
    },
    {
      "inputs": [
        {
          "internalType": "address",
          "name": "user",
          "type": "address"
        }
      ],
      "name": "getUserSubmissions",
      "outputs": [
        {
          "components": [
            {
              "internalType": "string",
              "name": "ipfsHash",
              "type": "string"
            },
            {
              "internalType": "uint256",
              "name": "submittedAt",
              "type": "uint256"
            },
            {
              "internalType": "enum GreenProjectRegistry.ProjectStatus",
              "name": "status",
              "type": "uint8"
            },
            {
              "internalType": "uint256",
              "name": "verifiedAmount",
              "type": "uint256"
            }
          ],
          "internalType": "struct GreenProjectRegistry.ProjectSubmission[]",
          "name": "",
          "type": "tuple[]"
        }
      ],
      "stateMutability": "view",
      "type": "function"
    },
    {
      "inputs": [
        {
          "internalType": "bytes32",
          "name": "role",
          "type": "bytes32"
        },
        {
          "internalType": "address",
          "name": "account",
          "type": "address"
        }
      ],
      "name": "grantRole",
      "outputs": [],
      "stateMutability": "nonpayable",
      "type": "function"
    },
    {
      "inputs": [
        {
          "internalType": "bytes32",
          "name": "role",
          "type": "bytes32"
        },
        {
          "internalType": "address",
          "name": "account",
          "type": "address"
        }
      ],
      "name": "hasRole",
      "outputs": [
        {
          "internalType": "bool",
          "name": "",
          "type": "bool"
        }
      ],
      "stateMutability": "view",
      "type": "function"
    },
    {
      "inputs": [
        {
          "internalType": "address",
          "name": "",
          "type": "address"
        }
      ],
      "name": "isSubmitter",
      "outputs": [
        {
          "internalType": "bool",
          "name": "",
          "type": "bool"
        }
      ],
      "stateMutability": "view",
      "type": "function"
    },
    {
      "inputs": [
        {
          "internalType": "address",
          "name": "forwarder",
          "type": "address"
        }
      ],
      "name": "isTrustedForwarder",
      "outputs": [
        {
          "internalType": "bool",
          "name": "",
          "type": "bool"
        }
      ],
      "stateMutability": "view",
      "type": "function"
    },
    {
      "inputs": [
        {
          "internalType": "address",
          "name": "user",
          "type": "address"
        },
        {
          "internalType": "uint256",
          "name": "index",
          "type": "uint256"
        },
        {
          "internalType": "string",
          "name": "reason",
          "type": "string"
        }
      ],
      "name": "markRejected",
      "outputs": [],
      "stateMutability": "nonpayable",
      "type": "function"
    },
    {
      "inputs": [
        {
          "internalType": "address",
          "name": "user",
          "type": "address"
        },
        {
          "internalType": "uint256",
          "name": "index",
          "type": "uint256"
        },
        {
          "internalType": "uint256",
          "name": "amount",
          "type": "uint256"
        }
      ],
      "name": "markVerified",
      "outputs": [],
      "stateMutability": "nonpayable",
      "type": "function"
    },
    {
      "inputs": [
        {
          "internalType": "uint256",
          "name": "",
          "type": "uint256"
        }
      ],
      "name": "projectSubmitters",
      "outputs": [
        {
          "internalType": "address",
          "name": "",
          "type": "address"
        }
      ],
      "stateMutability": "view",
      "type": "function"
    },
    {
      "inputs": [
        {
          "internalType": "bytes32",
          "name": "role",
          "type": "bytes32"
        },
        {
          "internalType": "address",
          "name": "callerConfirmation",
          "type": "address"
        }
      ],
      "name": "renounceRole",
      "outputs": [],
      "stateMutability": "nonpayable",
      "type": "function"
    },
    {
      "inputs": [
        {
          "internalType": "bytes32",
          "name": "role",
          "type": "bytes32"
        },
        {
          "internalType": "address",
          "name": "account",
          "type": "address"
        }
      ],
      "name": "revokeRole",
      "outputs": [],
      "stateMutability": "nonpayable",
      "type": "function"
    },
    {
      "inputs": [
        {
          "internalType": "string",
          "name": "ipfsHash",
          "type": "string"
        }
      ],
      "name": "submitProject",
      "outputs": [],
      "stateMutability": "nonpayable",
      "type": "function"
    },
    {
      "inputs": [
        {
          "internalType": "bytes4",
          "name": "interfaceId",
          "type": "bytes4"
        }
      ],
      "name": "supportsInterface",
      "outputs": [
        {
          "internalType": "bool",
          "name": "",
          "type": "bool"
        }
      ],
      "stateMutability": "view",
      "type": "function"
    },
    {
      "inputs": [],
      "name": "trustedForwarder",
      "outputs": [
        {
          "internalType": "address",
          "name": "",
          "type": "address"
        }
      ],
      "stateMutability": "view",
      "type": "function"
    },
    {
      "inputs": [
        {
          "internalType": "address",
          "name": "",
          "type": "address"
        },
        {
          "internalType": "uint256",
          "name": "",
          "type": "uint256"
        }
      ],
      "name": "userSubmissions",
      "outputs": [
        {
          "internalType": "string",
          "name": "ipfsHash",
          "type": "string"
        },
        {
          "internalType": "uint256",
          "name": "submittedAt",
          "type": "uint256"
        },
        {
          "internalType": "enum GreenProjectRegistry.ProjectStatus",
          "name": "status",
          "type": "uint8"
        },
        {
          "internalType": "uint256",
          "name": "verifiedAmount",
          "type": "uint256"
        }
      ],
      "stateMutability": "view",
      "type": "function"
    }
  ],
  "bytecode": "0x60a06040523480156200001157600080fd5b506040516200299a3803806200299a8339818101604052810190620000379190620003b1565b808073ffffffffffffffffffffffffffffffffffffffff1660808173ffffffffffffffffffffffffffffffffffffffff168152505050620000826000801b84620000bf60201b60201c565b50620000b57f20b5f7ac978e5d6199de06401411960dfa81d2f762655f6206bdc61d46fc19e683620000bf60201b60201c565b5050505062000502565b6000620000d38383620001c260201b60201c565b620001b757600160008085815260200190815260200160002060000160008473ffffffffffffffffffffffffffffffffffffffff1673ffffffffffffffffffffffffffffffffffffffff16815260200190815260200160002060006101000a81548160ff021916908315150217905550620001536200022c60201b60201c565b73ffffffffffffffffffffffffffffffffffffffff168273ffffffffffffffffffffffffffffffffffffffff16847f2f8788117e7eff1d82e926ec794901d17c78024a50270940304540a733656f0d60405160405180910390a460019050620001bc565b600090505b92915050565b600080600084815260200190815260200160002060000160008373ffffffffffffffffffffffffffffffffffffffff1673ffffffffffffffffffffffffffffffffffffffff16815260200190815260200160002060009054906101000a900460ff16905092915050565b60006200023e6200024360201b60201c565b905090565b6000806000369050905060006200025f620002ce60201b60201c565b90508082101580156200027f57506200027e33620002e560201b60201c565b5b15620002b6576000368284039080926200029c9392919062000417565b90620002a991906200049c565b60601c92505050620002cb565b620002c66200032c60201b60201c565b925050505b90565b6000620002e06200033460201b60201c565b905090565b6000620002f76200033d60201b60201c565b73ffffffffffffffffffffffffffffffffffffffff168273ffffffffffffffffffffffffffffffffffffffff16149050919050565b600033905090565b60006014905090565b6000608051905090565b600080fd5b600073ffffffffffffffffffffffffffffffffffffffff82169050919050565b600062000379826200034c565b9050919050565b6200038b816200036c565b81146200039757600080fd5b50565b600081519050620003ab8162000380565b92915050565b600080600060608486031215620003cd57620003cc62000347565b5b6000620003dd868287016200039a565b9350506020620003f0868287016200039a565b925050604062000403868287016200039a565b9150509250925092565b600080fd5b600080fd5b600080858511156200042e576200042d6200040d565b5b8386111562000442576200044162000412565b5b6001850283019150848603905094509492505050565b600082905092915050565b60007fffffffffffffffffffffffffffffffffffffffff00000000000000000000000082169050919050565b600082821b905092915050565b6000620004aa838362000458565b82620004b7813562000463565b92506014821015620004fa57620004f57fffffffffffffffffffffffffffffffffffffffff000000000000000000000000836014036008026200048f565b831692505b505092915050565b60805161247c6200051e600039600061059a015261247c6000f3fe608060405234801561001057600080fd5b50600436106101165760003560e01c80638e2b0ff4116100a2578063a7b8614d11610071578063a7b8614d1461030a578063a926fdbc1461033a578063b21f9bd01461036a578063d547741f14610386578063febf7f83146103a257610116565b80638e2b0ff41461026b57806391d14854146102895780639b7e0180146102b9578063a217fddf146102ec57610116565b806336568abe116100e957806336568abe146101b5578063572b6c05146101d15780636412950a146102015780637da0a87714610231578063832cc51f1461024f57610116565b806301ffc9a71461011b578063144bf5891461014b578063248a9ca3146101695780632f2ff15d14610199575b600080fd5b610135600480360381019061013091906116a0565b6103be565b60405161014291906116e8565b60405180910390f35b610153610438565b604051610160919061171c565b60405180910390f35b610183600480360381019061017e9190611763565b61045c565b604051610190919061171c565b60405180910390f35b6101b360048036038101906101ae91906117ee565b61047b565b005b6101cf60048036038101906101ca91906117ee565b61049d565b005b6101eb60048036038101906101e6919061182e565b610518565b6040516101f891906116e8565b60405180910390f35b61021b60048036038101906102169190611891565b610557565b60405161022891906118cd565b60405180910390f35b610239610596565b60405161024691906118cd565b60405180910390f35b6102696004803603810190610264919061194d565b6105be565b005b610273610928565b6040516102809190611bd5565b60405180910390f35b6102a3600480360381019061029e91906117ee565b610aac565b6040516102b091906116e8565b60405180910390f35b6102d360048036038101906102ce9190611bf7565b610b16565b6040516102e39493929190611c9f565b60405180910390f35b6102f4610bf8565b604051610301919061171c565b60405180910390f35b610324600480360381019061031f919061182e565b610bff565b6040516103319190611bd5565b60405180910390f35b610354600480360381019061034f919061182e565b610d7e565b60405161036191906116e8565b60405180910390f35b610384600480360381019061037f9190611ceb565b610d9e565b005b6103a0600480360381019061039b91906117ee565b611005565b005b6103bc60048036038101906103b79190611d5f565b611027565b005b60007f7965db0b000000000000000000000000000000000000000000000000000000007bffffffffffffffffffffffffffffffffffffffffffffffffffffffff1916827bffffffffffffffffffffffffffffffffffffffffffffffffffffffff191614806104315750610430826112f1565b5b9050919050565b7f20b5f7ac978e5d6199de06401411960dfa81d2f762655f6206bdc61d46fc19e681565b6000806000838152602001908152602001600020600101549050919050565b6104848261045c565b61048d8161135b565b610497838361136f565b50505050565b6104a5611460565b73ffffffffffffffffffffffffffffffffffffffff168173ffffffffffffffffffffffffffffffffffffffff1614610509576040517f6697b23200000000000000000000000000000000000000000000000000000000815260040160405180910390fd5b610513828261146f565b505050565b6000610522610596565b73ffffffffffffffffffffffffffffffffffffffff168273ffffffffffffffffffffffffffffffffffffffff16149050919050565b6002818154811061056757600080fd5b906000526020600020016000915054906101000a900473ffffffffffffffffffffffffffffffffffffffff1681565b60007f0000000000000000000000000000000000000000000000000000000000000000905090565b60008282905011610604576040517f08c379a00000000000000000000000000000000000000000000000000000000081526004016105fb90611dfe565b60405180910390fd5b6000604051806080016040528084848080601f016020809104026020016040519081016040528093929190818152602001838380828437600081840152601f19601f8201169050808301925050505050505081526020014281526020016000600281111561067557610674611a65565b5b8152602001600081525090506001600061068d611460565b73ffffffffffffffffffffffffffffffffffffffff1673ffffffffffffffffffffffffffffffffffffffff16815260200190815260200160002081908060018154018082558091505060019003906000526020600020906004020160009091909190915060008201518160000190816107069190612059565b506020820151816001015560408201518160020160006101000a81548160ff0219169083600281111561073c5761073b611a65565b5b02179055506060820151816003015550506000600180600061075c611460565b73ffffffffffffffffffffffffffffffffffffffff1673ffffffffffffffffffffffffffffffffffffffff168152602001908152602001600020805490506107a4919061215a565b9050600360006107b2611460565b73ffffffffffffffffffffffffffffffffffffffff1673ffffffffffffffffffffffffffffffffffffffff16815260200190815260200160002060009054906101000a900460ff166108c8576002610808611460565b9080600181540180825580915050600190039060005260206000200160009091909190916101000a81548173ffffffffffffffffffffffffffffffffffffffff021916908373ffffffffffffffffffffffffffffffffffffffff160217905550600160036000610876611460565b73ffffffffffffffffffffffffffffffffffffffff1673ffffffffffffffffffffffffffffffffffffffff16815260200190815260200160002060006101000a81548160ff0219169083151502179055505b806108d1611460565b73ffffffffffffffffffffffffffffffffffffffff167f8f0f14212881ec65136c584c035274888d2c601945aeb2d0b6e095a3e39ee76586864260405161091a939291906121ca565b60405180910390a350505050565b606060016000610936611460565b73ffffffffffffffffffffffffffffffffffffffff1673ffffffffffffffffffffffffffffffffffffffff168152602001908152602001600020805480602002602001604051908101604052809291908181526020016000905b82821015610aa357838290600052602060002090600402016040518060800160405290816000820180546109c390611e7c565b80601f01602080910402602001604051908101604052809291908181526020018280546109ef90611e7c565b8015610a3c5780601f10610a1157610100808354040283529160200191610a3c565b820191906000526020600020905b815481529060010190602001808311610a1f57829003601f168201915b50505050508152602001600182015481526020016002820160009054906101000a900460ff166002811115610a7457610a73611a65565b5b6002811115610a8657610a85611a65565b5b815260200160038201548152505081526020019060010190610990565b50505050905090565b600080600084815260200190815260200160002060000160008373ffffffffffffffffffffffffffffffffffffffff1673ffffffffffffffffffffffffffffffffffffffff16815260200190815260200160002060009054906101000a900460ff16905092915050565b60016020528160005260406000208181548110610b3257600080fd5b906000526020600020906004020160009150915050806000018054610b5690611e7c565b80601f0160208091040260200160405190810160405280929190818152602001828054610b8290611e7c565b8015610bcf5780601f10610ba457610100808354040283529160200191610bcf565b820191906000526020600020905b815481529060010190602001808311610bb257829003601f168201915b5050505050908060010154908060020160009054906101000a900460ff16908060030154905084565b6000801b81565b6060600160008373ffffffffffffffffffffffffffffffffffffffff1673ffffffffffffffffffffffffffffffffffffffff168152602001908152602001600020805480602002602001604051908101604052809291908181526020016000905b82821015610d735783829060005260206000209060040201604051806080016040529081600082018054610c9390611e7c565b80601f0160208091040260200160405190810160405280929190818152602001828054610cbf90611e7c565b8015610d0c5780601f10610ce157610100808354040283529160200191610d0c565b820191906000526020600020905b815481529060010190602001808311610cef57829003601f168201915b50505050508152602001600182015481526020016002820160009054906101000a900460ff166002811115610d4457610d43611a65565b5b6002811115610d5657610d55611a65565b5b815260200160038201548152505081526020019060010190610c60565b505050509050919050565b60036020528060005260406000206000915054906101000a900460ff1681565b7f20b5f7ac978e5d6199de06401411960dfa81d2f762655f6206bdc61d46fc19e6610dc88161135b565b600160008673ffffffffffffffffffffffffffffffffffffffff1673ffffffffffffffffffffffffffffffffffffffff168152602001908152602001600020805490508410610e4c576040517f08c379a0000000000000000000000000000000000000000000000000000000008152600401610e4390612248565b60405180910390fd5b60006002811115610e6057610e5f611a65565b5b600160008773ffffffffffffffffffffffffffffffffffffffff1673ffffffffffffffffffffffffffffffffffffffff1681526020019081526020016000208581548110610eb157610eb0612268565b5b906000526020600020906004020160020160009054906101000a900460ff166002811115610ee257610ee1611a65565b5b14610f22576040517f08c379a0000000000000000000000000000000000000000000000000000000008152600401610f19906122e3565b60405180910390fd5b6002600160008773ffffffffffffffffffffffffffffffffffffffff1673ffffffffffffffffffffffffffffffffffffffff1681526020019081526020016000208581548110610f7557610f74612268565b5b906000526020600020906004020160020160006101000a81548160ff02191690836002811115610fa857610fa7611a65565b5b0217905550838573ffffffffffffffffffffffffffffffffffffffff167f8b7eb271471d9e44c29a93d02c607dede34c3535b25e9dd01e994da105dfb37c8585604051610ff6929190612303565b60405180910390a35050505050565b61100e8261045c565b6110178161135b565b611021838361146f565b50505050565b7f20b5f7ac978e5d6199de06401411960dfa81d2f762655f6206bdc61d46fc19e66110518161135b565b600160008573ffffffffffffffffffffffffffffffffffffffff1673ffffffffffffffffffffffffffffffffffffffff1681526020019081526020016000208054905083106110d5576040517f08c379a00000000000000000000000000000000000000000000000000000000081526004016110cc90612248565b60405180910390fd5b600060028111156110e9576110e8611a65565b5b600160008673ffffffffffffffffffffffffffffffffffffffff1673ffffffffffffffffffffffffffffffffffffffff168152602001908152602001600020848154811061113a57611139612268565b5b906000526020600020906004020160020160009054906101000a900460ff16600281111561116b5761116a611a65565b5b146111ab576040517f08c379a00000000000000000000000000000000000000000000000000000000081526004016111a2906122e3565b60405180910390fd5b60018060008673ffffffffffffffffffffffffffffffffffffffff1673ffffffffffffffffffffffffffffffffffffffff16815260200190815260200160002084815481106111fd576111fc612268565b5b906000526020600020906004020160020160006101000a81548160ff021916908360028111156112305761122f611a65565b5b021790555081600160008673ffffffffffffffffffffffffffffffffffffffff1673ffffffffffffffffffffffffffffffffffffffff168152602001908152602001600020848154811061128757611286612268565b5b906000526020600020906004020160030181905550828473ffffffffffffffffffffffffffffffffffffffff167fffd53d1269159d018d781fbcbca91d379a4f2ec73dfce64a0fb009fbadd4e425846040516112e39190612327565b60405180910390a350505050565b60007f01ffc9a7000000000000000000000000000000000000000000000000000000007bffffffffffffffffffffffffffffffffffffffffffffffffffffffff1916827bffffffffffffffffffffffffffffffffffffffffffffffffffffffff1916149050919050565b61136c81611367611460565b611561565b50565b600061137b8383610aac565b61145557600160008085815260200190815260200160002060000160008473ffffffffffffffffffffffffffffffffffffffff1673ffffffffffffffffffffffffffffffffffffffff16815260200190815260200160002060006101000a81548160ff0219169083151502179055506113f2611460565b73ffffffffffffffffffffffffffffffffffffffff168273ffffffffffffffffffffffffffffffffffffffff16847f2f8788117e7eff1d82e926ec794901d17c78024a50270940304540a733656f0d60405160405180910390a46001905061145a565b600090505b92915050565b600061146a6115b2565b905090565b600061147b8383610aac565b1561155657600080600085815260200190815260200160002060000160008473ffffffffffffffffffffffffffffffffffffffff1673ffffffffffffffffffffffffffffffffffffffff16815260200190815260200160002060006101000a81548160ff0219169083151502179055506114f3611460565b73ffffffffffffffffffffffffffffffffffffffff168273ffffffffffffffffffffffffffffffffffffffff16847ff6391f5c32d9c69d2a47ea670b442974b53935d1edc7fd64eb21e047a839171b60405160405180910390a46001905061155b565b600090505b92915050565b61156b8282610aac565b6115ae5780826040517fe2517d3f0000000000000000000000000000000000000000000000000000000081526004016115a5929190612342565b60405180910390fd5b5050565b6000806000369050905060006115c661161e565b90508082101580156115dd57506115dc33610518565b5b1561160e576000368284039080926115f793929190612375565b9061160291906123e7565b60601c9250505061161b565b61161661162d565b925050505b90565b6000611628611635565b905090565b600033905090565b60006014905090565b600080fd5b600080fd5b60007fffffffff0000000000000000000000000000000000000000000000000000000082169050919050565b61167d81611648565b811461168857600080fd5b50565b60008135905061169a81611674565b92915050565b6000602082840312156116b6576116b561163e565b5b60006116c48482850161168b565b91505092915050565b60008115159050919050565b6116e2816116cd565b82525050565b60006020820190506116fd60008301846116d9565b92915050565b6000819050919050565b61171681611703565b82525050565b6000602082019050611731600083018461170d565b92915050565b61174081611703565b811461174b57600080fd5b50565b60008135905061175d81611737565b92915050565b6000602082840312156117795761177861163e565b5b60006117878482850161174e565b91505092915050565b600073ffffffffffffffffffffffffffffffffffffffff82169050919050565b60006117bb82611790565b9050919050565b6117cb816117b0565b81146117d657600080fd5b50565b6000813590506117e8816117c2565b92915050565b600080604083850312156118055761180461163e565b5b60006118138582860161174e565b9250506020611824858286016117d9565b9150509250929050565b6000602082840312156118445761184361163e565b5b6000611852848285016117d9565b91505092915050565b6000819050919050565b61186e8161185b565b811461187957600080fd5b50565b60008135905061188b81611865565b92915050565b6000602082840312156118a7576118a661163e565b5b60006118b58482850161187c565b91505092915050565b6118c7816117b0565b82525050565b60006020820190506118e260008301846118be565b92915050565b600080fd5b600080fd5b600080fd5b60008083601f84011261190d5761190c6118e8565b5b8235905067ffffffffffffffff81111561192a576119296118ed565b5b602083019150836001820283011115611946576119456118f2565b5b9250929050565b600080602083850312156119645761196361163e565b5b600083013567ffffffffffffffff81111561198257611981611643565b5b61198e858286016118f7565b92509250509250929050565b600081519050919050565b600082825260208201905092915050565b6000819050602082019050919050565b600081519050919050565b600082825260208201905092915050565b60005b83811015611a005780820151818401526020810190506119e5565b60008484015250505050565b6000601f19601f8301169050919050565b6000611a28826119c6565b611a3281856119d1565b9350611a428185602086016119e2565b611a4b81611a0c565b840191505092915050565b611a5f8161185b565b82525050565b7f4e487b7100000000000000000000000000000000000000000000000000000000600052602160045260246000fd5b60038110611aa557611aa4611a65565b5b50565b6000819050611ab682611a94565b919050565b6000611ac682611aa8565b9050919050565b611ad681611abb565b82525050565b60006080830160008301518482036000860152611af98282611a1d565b9150506020830151611b0e6020860182611a56565b506040830151611b216040860182611acd565b506060830151611b346060860182611a56565b508091505092915050565b6000611b4b8383611adc565b905092915050565b6000602082019050919050565b6000611b6b8261199a565b611b7581856119a5565b935083602082028501611b87856119b6565b8060005b85811015611bc35784840389528151611ba48582611b3f565b9450611baf83611b53565b925060208a01995050600181019050611b8b565b50829750879550505050505092915050565b60006020820190508181036000830152611bef8184611b60565b905092915050565b60008060408385031215611c0e57611c0d61163e565b5b6000611c1c858286016117d9565b9250506020611c2d8582860161187c565b9150509250929050565b600082825260208201905092915050565b6000611c53826119c6565b611c5d8185611c37565b9350611c6d8185602086016119e2565b611c7681611a0c565b840191505092915050565b611c8a8161185b565b82525050565b611c9981611abb565b82525050565b60006080820190508181036000830152611cb98187611c48565b9050611cc86020830186611c81565b611cd56040830185611c90565b611ce26060830184611c81565b95945050505050565b60008060008060608587031215611d0557611d0461163e565b5b6000611d13878288016117d9565b9450506020611d248782880161187c565b935050604085013567ffffffffffffffff811115611d4557611d44611643565b5b611d51878288016118f7565b925092505092959194509250565b600080600060608486031215611d7857611d7761163e565b5b6000611d86868287016117d9565b9350506020611d978682870161187c565b9250506040611da88682870161187c565b9150509250925092565b7f4950465320686173682072657175697265640000000000000000000000000000600082015250565b6000611de8601283611c37565b9150611df382611db2565b602082019050919050565b60006020820190508181036000830152611e1781611ddb565b9050919050565b7f4e487b7100000000000000000000000000000000000000000000000000000000600052604160045260246000fd5b7f4e487b7100000000000000000000000000000000000000000000000000000000600052602260045260246000fd5b60006002820490506001821680611e9457607f821691505b602082108103611ea757611ea6611e4d565b5b50919050565b60008190508160005260206000209050919050565b60006020601f8301049050919050565b600082821b905092915050565b600060088302611f0f7fffffffffffffffffffffffffffffffffffffffffffffffffffffffffffffffff82611ed2565b611f198683611ed2565b95508019841693508086168417925050509392505050565b6000819050919050565b6000611f56611f51611f4c8461185b565b611f31565b61185b565b9050919050565b6000819050919050565b611f7083611f3b565b611f84611f7c82611f5d565b848454611edf565b825550505050565b600090565b611f99611f8c565b611fa4818484611f67565b505050565b5b81811015611fc857611fbd600082611f91565b600181019050611faa565b5050565b601f82111561200d57611fde81611ead565b611fe784611ec2565b81016020851015611ff6578190505b61200a61200285611ec2565b830182611fa9565b50505b505050565b600082821c905092915050565b600061203060001984600802612012565b1980831691505092915050565b6000612049838361201f565b9150826002028217905092915050565b612062826119c6565b67ffffffffffffffff81111561207b5761207a611e1e565b5b6120858254611e7c565b612090828285611fcc565b600060209050601f8311600181146120c357600084156120b1578287015190505b6120bb858261203d565b865550612123565b601f1984166120d186611ead565b60005b828110156120f9578489015182556001820191506020850194506020810190506120d4565b868310156121165784890151612112601f89168261201f565b8355505b6001600288020188555050505b505050505050565b7f4e487b7100000000000000000000000000000000000000000000000000000000600052601160045260246000fd5b60006121658261185b565b91506121708361185b565b92508282039050818111156121885761218761212b565b5b92915050565b82818337600083830152505050565b60006121a98385611c37565b93506121b683858461218e565b6121bf83611a0c565b840190509392505050565b600060408201905081810360008301526121e581858761219d565b90506121f46020830184611c81565b949350505050565b7f496e646578206f7574206f6620626f756e647300000000000000000000000000600082015250565b6000612232601383611c37565b915061223d826121fc565b602082019050919050565b6000602082019050818103600083015261226181612225565b9050919050565b7f4e487b7100000000000000000000000000000000000000000000000000000000600052603260045260246000fd5b7f4e6f742070656e64696e67000000000000000000000000000000000000000000600082015250565b60006122cd600b83611c37565b91506122d882612297565b602082019050919050565b600060208201905081810360008301526122fc816122c0565b9050919050565b6000602082019050818103600083015261231e81848661219d565b90509392505050565b600060208201905061233c6000830184611c81565b92915050565b600060408201905061235760008301856118be565b612364602083018461170d565b9392505050565b600080fd5b600080fd5b600080858511156123895761238861236b565b5b8386111561239a57612399612370565b5b6001850283019150848603905094509492505050565b600082905092915050565b60007fffffffffffffffffffffffffffffffffffffffff00000000000000000000000082169050919050565b60006123f383836123b0565b826123fe81356123bb565b9250601482101561243e576124397fffffffffffffffffffffffffffffffffffffffff00000000000000000000000083601403600802611ed2565b831692505b50509291505056fea2646970667358221220a995f6b51a00910d77966fd7812ae0a8f9e2933358e239e5a5bb2bd1016ef7b964736f6c63430008140033",
  "linkReferences": {},
  "deployedLinkReferences": {}
}