{
  "_format": "hh-sol-artifact-1",
  "contractName": "IDRStable",
  "sourceName": "contracts/IDRStable.sol",
  "abi": [
    {
      "inputs": [
        {
          "internalType": "address",
          "name": "admin",
          "type": "address"
        },
        {
          "internalType": "address",
          "name": "trustedForwarder",
          "type": "address"
        }
      ],
      "stateMutability": "nonpayable",
      "type": "constructor"
    },
    {
      "inputs": [],
      "name": "AccessControlBadConfirmation",
      "type": "error"
    },
    {
      "inputs": [
        {
          "internalType": "address",
          "name": "account",
          "type": "address"
        },
        {
          "internalType": "bytes32",
          "name": "neededRole",
          "type": "bytes32"
        }
      ],
      "name": "AccessControlUnauthorizedAccount",
      "type": "error"
    },
    {
      "inputs": [
        {
          "internalType": "address",
          "name": "spender",
          "type": "address"
        },
        {
          "internalType": "uint256",
          "name": "allowance",
          "type": "uint256"
        },
        {
          "internalType": "uint256",
          "name": "needed",
          "type": "uint256"
        }
      ],
      "name": "ERC20InsufficientAllowance",
      "type": "error"
    },
    {
      "inputs": [
        {
          "internalType": "address",
          "name": "sender",
          "type": "address"
        },
        {
          "internalType": "uint256",
          "name": "balance",
          "type": "uint256"
        },
        {
          "internalType": "uint256",
          "name": "needed",
          "type": "uint256"
        }
      ],
      "name": "ERC20InsufficientBalance",
      "type": "error"
    },
    {
      "inputs": [
        {
          "internalType": "address",
          "name": "approver",
          "type": "address"
        }
      ],
      "name": "ERC20InvalidApprover",
      "type": "error"
    },
    {
      "inputs": [
        {
          "internalType": "address",
          "name": "receiver",
          "type": "address"
        }
      ],
      "name": "ERC20InvalidReceiver",
      "type": "error"
    },
    {
      "inputs": [
        {
          "internalType": "address",
          "name": "sender",
          "type": "address"
        }
      ],
      "name": "ERC20InvalidSender",
      "type": "error"
    },
    {
      "inputs": [
        {
          "internalType": "address",
          "name": "spender",
          "type": "address"
        }
      ],
      "name": "ERC20InvalidSpender",
      "type": "error"
    },
    {
      "anonymous": false,
      "inputs": [
        {
          "indexed": true,
          "internalType": "address",
          "name": "owner",
          "type": "address"
        },
        {
          "indexed": true,
          "internalType": "address",
          "name": "spender",
          "type": "address"
        },
        {
          "indexed": false,
          "internalType": "uint256",
          "name": "value",
          "type": "uint256"
        }
      ],
      "name": "Approval",
      "type": "event"
    },
    {
      "anonymous": false,
      "inputs": [
        {
          "indexed": true,
          "internalType": "address",
          "name": "user",
          "type": "address"
        },
        {
          "indexed": false,
          "internalType": "uint256",
          "name": "amount",
          "type": "uint256"
        }
      ],
      "name": "FaucetClaimed",
      "type": "event"
    },
    {
      "anonymous": false,
      "inputs": [
        {
          "indexed": true,
          "internalType": "bytes32",
          "name": "role",
          "type": "bytes32"
        },
        {
          "indexed": true,
          "internalType": "bytes32",
          "name": "previousAdminRole",
          "type": "bytes32"
        },
        {
          "indexed": true,
          "internalType": "bytes32",
          "name": "newAdminRole",
          "type": "bytes32"
        }
      ],
      "name": "RoleAdminChanged",
      "type": "event"
    },
    {
      "anonymous": false,
      "inputs": [
        {
          "indexed": true,
          "internalType": "bytes32",
          "name": "role",
          "type": "bytes32"
        },
        {
          "indexed": true,
          "internalType": "address",
          "name": "account",
          "type": "address"
        },
        {
          "indexed": true,
          "internalType": "address",
          "name": "sender",
          "type": "address"
        }
      ],
      "name": "RoleGranted",
      "type": "event"
    },
    {
      "anonymous": false,
      "inputs": [
        {
          "indexed": true,
          "internalType": "bytes32",
          "name": "role",
          "type": "bytes32"
        },
        {
          "indexed": true,
          "internalType": "address",
          "name": "account",
          "type": "address"
        },
        {
          "indexed": true,
          "internalType": "address",
          "name": "sender",
          "type": "address"
        }
      ],
      "name": "RoleRevoked",
      "type": "event"
    },
    {
      "anonymous": false,
      "inputs": [
        {
          "indexed": true,
          "internalType": "address",
          "name": "from",
          "type": "address"
        },
        {
          "indexed": true,
          "internalType": "address",
          "name": "to",
          "type": "address"
        },
        {
          "indexed": false,
          "internalType": "uint256",
          "name": "value",
          "type": "uint256"
        }
      ],
      "name": "Transfer",
      "type": "event"
    },
    {
      "inputs": [],
      "name": "DEFAULT_ADMIN_ROLE",
      "outputs": [
        {
          "internalType": "bytes32",
          "name": "",
          "type": "bytes32"
        }
      ],
      "stateMutability": "view",
      "type": "function"
    },
    {
      "inputs": [],
      "name": "FAUCET_AMOUNT",
      "outputs": [
        {
          "internalType": "uint256",
          "name": "",
          "type": "uint256"
        }
      ],
      "stateMutability": "view",
      "type": "function"
    },
    {
      "inputs": [],
      "name": "FAUCET_COOLDOWN",
      "outputs": [
        {
          "internalType": "uint256",
          "name": "",
          "type": "uint256"
        }
      ],
      "stateMutability": "view",
      "type": "function"
    },
    {
      "inputs": [],
      "name": "MINTER_ROLE",
      "outputs": [
        {
          "internalType": "bytes32",
          "name": "",
          "type": "bytes32"
        }
      ],
      "stateMutability": "view",
      "type": "function"
    },
    {
      "inputs": [
        {
          "internalType": "address",
          "name": "owner",
          "type": "address"
        },
        {
          "internalType": "address",
          "name": "spender",
          "type": "address"
        }
      ],
      "name": "allowance",
      "outputs": [
        {
          "internalType": "uint256",
          "name": "",
          "type": "uint256"
        }
      ],
      "stateMutability": "view",
      "type": "function"
    },
    {
      "inputs": [
        {
          "internalType": "address",
          "name": "spender",
          "type": "address"
        },
        {
          "internalType": "uint256",
          "name": "value",
          "type": "uint256"
        }
      ],
      "name": "approve",
      "outputs": [
        {
          "internalType": "bool",
          "name": "",
          "type": "bool"
        }
      ],
      "stateMutability": "nonpayable",
      "type": "function"
    },
    {
      "inputs": [
        {
          "internalType": "address",
          "name": "account",
          "type": "address"
        }
      ],
      "name": "balanceOf",
      "outputs": [
        {
          "internalType": "uint256",
          "name": "",
          "type": "uint256"
        }
      ],
      "stateMutability": "view",
      "type": "function"
    },
    {
      "inputs": [],
      "name": "claimFaucet",
      "outputs": [],
      "stateMutability": "nonpayable",
      "type": "function"
    },
    {
      "inputs": [],
      "name": "decimals",
      "outputs": [
        {
          "internalType": "uint8",
          "name": "",
          "type": "uint8"
        }
      ],
      "stateMutability": "view",
      "type": "function"
    },
    {
      "inputs": [
        {
          "internalType": "bytes32",
          "name": "role",
          "type": "bytes32"
        }
      ],
      "name": "getRoleAdmin",
      "outputs": [
        {
          "internalType": "bytes32",
          "name": "",
          "type": "bytes32"
        }
      ],
      "stateMutability": "view",
      "type": "function"
    },
    {
      "inputs": [
        {
          "internalType": "bytes32",
          "name": "role",
          "type": "bytes32"
        },
        {
          "internalType": "address",
          "name": "account",
          "type": "address"
        }
      ],
      "name": "grantRole",
      "outputs": [],
      "stateMutability": "nonpayable",
      "type": "function"
    },
    {
      "inputs": [
        {
          "internalType": "bytes32",
          "name": "role",
          "type": "bytes32"
        },
        {
          "internalType": "address",
          "name": "account",
          "type": "address"
        }
      ],
      "name": "hasRole",
      "outputs": [
        {
          "internalType": "bool",
          "name": "",
          "type": "bool"
        }
      ],
      "stateMutability": "view",
      "type": "function"
    },
    {
      "inputs": [
        {
          "internalType": "address",
          "name": "forwarder",
          "type": "address"
        }
      ],
      "name": "isTrustedForwarder",
      "outputs": [
        {
          "internalType": "bool",
          "name": "",
          "type": "bool"
        }
      ],
      "stateMutability": "view",
      "type": "function"
    },
    {
      "inputs": [
        {
          "internalType": "address",
          "name": "",
          "type": "address"
        }
      ],
      "name": "lastFaucetClaim",
      "outputs": [
        {
          "internalType": "uint256",
          "name": "",
          "type": "uint256"
        }
      ],
      "stateMutability": "view",
      "type": "function"
    },
    {
      "inputs": [
        {
          "internalType": "address",
          "name": "to",
          "type": "address"
        },
        {
          "internalType": "uint256",
          "name": "amount",
          "type": "uint256"
        }
      ],
      "name": "mint",
      "outputs": [],
      "stateMutability": "nonpayable",
      "type": "function"
    },
    {
      "inputs": [],
      "name": "name",
      "outputs": [
        {
          "internalType": "string",
          "name": "",
          "type": "string"
        }
      ],
      "stateMutability": "view",
      "type": "function"
    },
    {
      "inputs": [
        {
          "internalType": "address",
          "name": "user",
          "type": "address"
        }
      ],
      "name": "nextFaucetClaim",
      "outputs": [
        {
          "internalType": "uint256",
          "name": "",
          "type": "uint256"
        }
      ],
      "stateMutability": "view",
      "type": "function"
    },
    {
      "inputs": [
        {
          "internalType": "bytes32",
          "name": "role",
          "type": "bytes32"
        },
        {
          "internalType": "address",
          "name": "callerConfirmation",
          "type": "address"
        }
      ],
      "name": "renounceRole",
      "outputs": [],
      "stateMutability": "nonpayable",
      "type": "function"
    },
    {
      "inputs": [
        {
          "internalType": "bytes32",
          "name": "role",
          "type": "bytes32"
        },
        {
          "internalType": "address",
          "name": "account",
          "type": "address"
        }
      ],
      "name": "revokeRole",
      "outputs": [],
      "stateMutability": "nonpayable",
      "type": "function"
    },
    {
      "inputs": [
        {
          "internalType": "bytes4",
          "name": "interfaceId",
          "type": "bytes4"
        }
      ],
      "name": "supportsInterface",
      "outputs": [
        {
          "internalType": "bool",
          "name": "",
          "type": "bool"
        }
      ],
      "stateMutability": "view",
      "type": "function"
    },
    {
      "inputs": [],
      "name": "symbol",
      "outputs": [
        {
          "internalType": "string",
          "name": "",
          "type": "string"
        }
      ],
      "stateMutability": "view",
      "type": "function"
    },
    {
      "inputs": [],
      "name": "totalSupply",
      "outputs": [
        {
          "internalType": "uint256",
          "name": "",
          "type": "uint256"
        }
      ],
      "stateMutability": "view",
      "type": "function"
    },
    {
      "inputs": [
        {
          "internalType": "address",
          "name": "to",
          "type": "address"
        },
        {
          "internalType": "uint256",
          "name": "value",
          "type": "uint256"
        }
      ],
      "name": "transfer",
      "outputs": [
        {
          "internalType": "bool",
          "name": "",
          "type": "bool"
        }
      ],
      "stateMutability": "nonpayable",
      "type": "function"
    },
    {
      "inputs": [
        {
          "internalType": "address",
          "name": "from",
          "type": "address"
        },
        {
          "internalType": "address",
          "name": "to",
          "type": "address"
        },
        {
          "internalType": "uint256",
          "name": "value",
          "type": "uint256"
        }
      ],
      "name": "transferFrom",
      "outputs": [
        {
          "internalType": "bool",
          "name": "",
          "type": "bool"
        }
      ],
      "stateMutability": "nonpayable",
      "type": "function"
    },
    {
      "inputs": [],
      "name": "trustedForwarder",
      "outputs": [
        {
          "internalType": "address",
          "name": "",
          "type": "address"
        }
      ],
      "stateMutability": "view",
      "type": "function"
    }
  ],
  "bytecode": "0x60a06040523480156200001157600080fd5b50604051620029573803806200295783398181016040528101906200003791906200071e565b806040518060400160405280600d81526020017f436172626f6e20527570696168000000000000000000000000000000000000008152506040518060400160405280600481526020017f49445243000000000000000000000000000000000000000000000000000000008152508160039081620000b59190620009df565b508060049081620000c79190620009df565b5050508073ffffffffffffffffffffffffffffffffffffffff1660808173ffffffffffffffffffffffffffffffffffffffff168152505050620001146000801b836200016d60201b60201c565b50620001477f9f2df0fed2c77648de5860a4cc508cd0818c85b8b8a1ab4ceeef8d981c8956a6836200016d60201b60201c565b5062000165826a52b7d2dcc80cd2e40000006200027160201b60201c565b505062000cb1565b6000620001818383620002fe60201b60201c565b620002665760016005600085815260200190815260200160002060000160008473ffffffffffffffffffffffffffffffffffffffff1673ffffffffffffffffffffffffffffffffffffffff16815260200190815260200160002060006101000a81548160ff021916908315150217905550620002026200036960201b60201c565b73ffffffffffffffffffffffffffffffffffffffff168273ffffffffffffffffffffffffffffffffffffffff16847f2f8788117e7eff1d82e926ec794901d17c78024a50270940304540a733656f0d60405160405180910390a4600190506200026b565b600090505b92915050565b600073ffffffffffffffffffffffffffffffffffffffff168273ffffffffffffffffffffffffffffffffffffffff1603620002e65760006040517fec442f05000000000000000000000000000000000000000000000000000000008152600401620002dd919062000ad7565b60405180910390fd5b620002fa600083836200038060201b60201c565b5050565b60006005600084815260200190815260200160002060000160008373ffffffffffffffffffffffffffffffffffffffff1673ffffffffffffffffffffffffffffffffffffffff16815260200190815260200160002060009054906101000a900460ff16905092915050565b60006200037b620005b060201b60201c565b905090565b600073ffffffffffffffffffffffffffffffffffffffff168373ffffffffffffffffffffffffffffffffffffffff1603620003d6578060026000828254620003c9919062000b23565b92505081905550620004ac565b60008060008573ffffffffffffffffffffffffffffffffffffffff1673ffffffffffffffffffffffffffffffffffffffff1681526020019081526020016000205490508181101562000465578381836040517fe450d38c0000000000000000000000000000000000000000000000000000000081526004016200045c9392919062000b6f565b60405180910390fd5b8181036000808673ffffffffffffffffffffffffffffffffffffffff1673ffffffffffffffffffffffffffffffffffffffff16815260200190815260200160002081905550505b600073ffffffffffffffffffffffffffffffffffffffff168273ffffffffffffffffffffffffffffffffffffffff1603620004f7578060026000828254039250508190555062000544565b806000808473ffffffffffffffffffffffffffffffffffffffff1673ffffffffffffffffffffffffffffffffffffffff168152602001908152602001600020600082825401925050819055505b8173ffffffffffffffffffffffffffffffffffffffff168373ffffffffffffffffffffffffffffffffffffffff167fddf252ad1be2c89b69c2b068fc378daa952ba7f163c4a11628f55a4df523b3ef83604051620005a3919062000bac565b60405180910390a3505050565b600080600036905090506000620005cc6200063b60201b60201c565b9050808210158015620005ec5750620005eb336200065260201b60201c565b5b156200062357600036828403908092620006099392919062000bd3565b9062000616919062000c4b565b60601c9250505062000638565b620006336200069960201b60201c565b925050505b90565b60006200064d620006a160201b60201c565b905090565b600062000664620006aa60201b60201c565b73ffffffffffffffffffffffffffffffffffffffff168273ffffffffffffffffffffffffffffffffffffffff16149050919050565b600033905090565b60006014905090565b6000608051905090565b600080fd5b600073ffffffffffffffffffffffffffffffffffffffff82169050919050565b6000620006e682620006b9565b9050919050565b620006f881620006d9565b81146200070457600080fd5b50565b6000815190506200071881620006ed565b92915050565b60008060408385031215620007385762000737620006b4565b5b6000620007488582860162000707565b92505060206200075b8582860162000707565b9150509250929050565b600081519050919050565b7f4e487b7100000000000000000000000000000000000000000000000000000000600052604160045260246000fd5b7f4e487b7100000000000000000000000000000000000000000000000000000000600052602260045260246000fd5b60006002820490506001821680620007e757607f821691505b602082108103620007fd57620007fc6200079f565b5b50919050565b60008190508160005260206000209050919050565b60006020601f8301049050919050565b600082821b905092915050565b600060088302620008677fffffffffffffffffffffffffffffffffffffffffffffffffffffffffffffffff8262000828565b62000873868362000828565b95508019841693508086168417925050509392505050565b6000819050919050565b6000819050919050565b6000620008c0620008ba620008b4846200088b565b62000895565b6200088b565b9050919050565b6000819050919050565b620008dc836200089f565b620008f4620008eb82620008c7565b84845462000835565b825550505050565b600090565b6200090b620008fc565b62000918818484620008d1565b505050565b5b8181101562000940576200093460008262000901565b6001810190506200091e565b5050565b601f8211156200098f57620009598162000803565b620009648462000818565b8101602085101562000974578190505b6200098c620009838562000818565b8301826200091d565b50505b505050565b600082821c905092915050565b6000620009b46000198460080262000994565b1980831691505092915050565b6000620009cf8383620009a1565b9150826002028217905092915050565b620009ea8262000765565b67ffffffffffffffff81111562000a065762000a0562000770565b5b62000a128254620007ce565b62000a1f82828562000944565b600060209050601f83116001811462000a57576000841562000a42578287015190505b62000a4e8582620009c1565b86555062000abe565b601f19841662000a678662000803565b60005b8281101562000a915784890151825560018201915060208501945060208101905062000a6a565b8683101562000ab1578489015162000aad601f891682620009a1565b8355505b6001600288020188555050505b505050505050565b62000ad181620006d9565b82525050565b600060208201905062000aee600083018462000ac6565b92915050565b7f4e487b7100000000000000000000000000000000000000000000000000000000600052601160045260246000fd5b600062000b30826200088b565b915062000b3d836200088b565b925082820190508082111562000b585762000b5762000af4565b5b92915050565b62000b69816200088b565b82525050565b600060608201905062000b86600083018662000ac6565b62000b95602083018562000b5e565b62000ba4604083018462000b5e565b949350505050565b600060208201905062000bc3600083018462000b5e565b92915050565b600080fd5b600080fd5b6000808585111562000bea5762000be962000bc9565b5b8386111562000bfe5762000bfd62000bce565b5b6001850283019150848603905094509492505050565b600082905092915050565b60007fffffffffffffffffffffffffffffffffffffffff00000000000000000000000082169050919050565b600062000c59838362000c14565b8262000c66813562000c1f565b9250601482101562000ca95762000ca47fffffffffffffffffffffffffffffffffffffffff0000000000000000000000008360140360080262000828565b831692505b505092915050565b608051611c8a62000ccd600039600061096d0152611c8a6000f3fe608060405234801561001057600080fd5b50600436106101735760003560e01c8063572b6c05116100de57806391d1485411610097578063a9059cbb11610071578063a9059cbb14610476578063d5391393146104a6578063d547741f146104c4578063dd62ed3e146104e057610173565b806391d148541461040a57806395d89b411461043a578063a217fddf1461045857610173565b8063572b6c051461032057806370a082311461035057806376697640146103805780637d1d5d191461039e5780637da0a877146103bc5780638a877205146103da57610173565b80632f2ff15d116101305780632f2ff15d14610274578063313ce5671461029057806336568abe146102ae57806340c10f19146102ca5780634fe15335146102e65780635534c425146102f057610173565b806301ffc9a71461017857806306fdde03146101a8578063095ea7b3146101c657806318160ddd146101f657806323b872dd14610214578063248a9ca314610244575b600080fd5b610192600480360381019061018d91906115dc565b610510565b60405161019f9190611624565b60405180910390f35b6101b0610522565b6040516101bd91906116cf565b60405180910390f35b6101e060048036038101906101db9190611785565b6105b4565b6040516101ed9190611624565b60405180910390f35b6101fe6105d7565b60405161020b91906117d4565b60405180910390f35b61022e600480360381019061022991906117ef565b6105e1565b60405161023b9190611624565b60405180910390f35b61025e60048036038101906102599190611878565b610610565b60405161026b91906118b4565b60405180910390f35b61028e600480360381019061028991906118cf565b610630565b005b610298610652565b6040516102a5919061192b565b60405180910390f35b6102c860048036038101906102c391906118cf565b61065b565b005b6102e460048036038101906102df9190611785565b6106d6565b005b6102ee61070f565b005b61030a60048036038101906103059190611946565b61085e565b60405161031791906117d4565b60405180910390f35b61033a60048036038101906103359190611946565b6108cd565b6040516103479190611624565b60405180910390f35b61036a60048036038101906103659190611946565b61090c565b60405161037791906117d4565b60405180910390f35b610388610954565b60405161039591906117d4565b60405180910390f35b6103a6610962565b6040516103b391906117d4565b60405180910390f35b6103c4610969565b6040516103d19190611982565b60405180910390f35b6103f460048036038101906103ef9190611946565b610991565b60405161040191906117d4565b60405180910390f35b610424600480360381019061041f91906118cf565b6109a9565b6040516104319190611624565b60405180910390f35b610442610a14565b60405161044f91906116cf565b60405180910390f35b610460610aa6565b60405161046d91906118b4565b60405180910390f35b610490600480360381019061048b9190611785565b610aad565b60405161049d9190611624565b60405180910390f35b6104ae610ad0565b6040516104bb91906118b4565b60405180910390f35b6104de60048036038101906104d991906118cf565b610af4565b005b6104fa60048036038101906104f5919061199d565b610b16565b60405161050791906117d4565b60405180910390f35b600061051b82610b9d565b9050919050565b60606003805461053190611a0c565b80601f016020809104026020016040519081016040528092919081815260200182805461055d90611a0c565b80156105aa5780601f1061057f576101008083540402835291602001916105aa565b820191906000526020600020905b81548152906001019060200180831161058d57829003601f168201915b5050505050905090565b6000806105bf610c17565b90506105cc818585610c26565b600191505092915050565b6000600254905090565b6000806105ec610c17565b90506105f9858285610c38565b610604858585610ccd565b60019150509392505050565b600060056000838152602001908152602001600020600101549050919050565b61063982610610565b61064281610dc1565b61064c8383610dd5565b50505050565b60006012905090565b610663610c17565b73ffffffffffffffffffffffffffffffffffffffff168173ffffffffffffffffffffffffffffffffffffffff16146106c7576040517f6697b23200000000000000000000000000000000000000000000000000000000815260040160405180910390fd5b6106d18282610ec7565b505050565b7f9f2df0fed2c77648de5860a4cc508cd0818c85b8b8a1ab4ceeef8d981c8956a661070081610dc1565b61070a8383610fba565b505050565b6000610719610c17565b905062015180600660008373ffffffffffffffffffffffffffffffffffffffff1673ffffffffffffffffffffffffffffffffffffffff168152602001908152602001600020546107699190611a6c565b4210156107ab576040517f08c379a00000000000000000000000000000000000000000000000000000000081526004016107a290611aec565b60405180910390fd5b42600660008373ffffffffffffffffffffffffffffffffffffffff1673ffffffffffffffffffffffffffffffffffffffff168152602001908152602001600020819055506108038169d3c21bcecceda1000000610fba565b8073ffffffffffffffffffffffffffffffffffffffff167f5d4f415c63cd8a5874d9d291cdd64cec37e5dc236d90d659c958d109d78074b369d3c21bcecceda100000060405161085391906117d4565b60405180910390a250565b600080600660008473ffffffffffffffffffffffffffffffffffffffff1673ffffffffffffffffffffffffffffffffffffffff168152602001908152602001600020549050600081036108b55760009150506108c8565b62015180816108c49190611a6c565b9150505b919050565b60006108d7610969565b73ffffffffffffffffffffffffffffffffffffffff168273ffffffffffffffffffffffffffffffffffffffff16149050919050565b60008060008373ffffffffffffffffffffffffffffffffffffffff1673ffffffffffffffffffffffffffffffffffffffff168152602001908152602001600020549050919050565b69d3c21bcecceda100000081565b6201518081565b60007f0000000000000000000000000000000000000000000000000000000000000000905090565b60066020528060005260406000206000915090505481565b60006005600084815260200190815260200160002060000160008373ffffffffffffffffffffffffffffffffffffffff1673ffffffffffffffffffffffffffffffffffffffff16815260200190815260200160002060009054906101000a900460ff16905092915050565b606060048054610a2390611a0c565b80601f0160208091040260200160405190810160405280929190818152602001828054610a4f90611a0c565b8015610a9c5780601f10610a7157610100808354040283529160200191610a9c565b820191906000526020600020905b815481529060010190602001808311610a7f57829003601f168201915b5050505050905090565b6000801b81565b600080610ab8610c17565b9050610ac5818585610ccd565b600191505092915050565b7f9f2df0fed2c77648de5860a4cc508cd0818c85b8b8a1ab4ceeef8d981c8956a681565b610afd82610610565b610b0681610dc1565b610b108383610ec7565b50505050565b6000600160008473ffffffffffffffffffffffffffffffffffffffff1673ffffffffffffffffffffffffffffffffffffffff16815260200190815260200160002060008373ffffffffffffffffffffffffffffffffffffffff1673ffffffffffffffffffffffffffffffffffffffff16815260200190815260200160002054905092915050565b60007f7965db0b000000000000000000000000000000000000000000000000000000007bffffffffffffffffffffffffffffffffffffffffffffffffffffffff1916827bffffffffffffffffffffffffffffffffffffffffffffffffffffffff19161480610c105750610c0f8261103c565b5b9050919050565b6000610c216110a6565b905090565b610c338383836001611112565b505050565b6000610c448484610b16565b90507fffffffffffffffffffffffffffffffffffffffffffffffffffffffffffffffff811015610cc75781811015610cb7578281836040517ffb8f41b2000000000000000000000000000000000000000000000000000000008152600401610cae93929190611b0c565b60405180910390fd5b610cc684848484036000611112565b5b50505050565b600073ffffffffffffffffffffffffffffffffffffffff168373ffffffffffffffffffffffffffffffffffffffff1603610d3f5760006040517f96c6fd1e000000000000000000000000000000000000000000000000000000008152600401610d369190611982565b60405180910390fd5b600073ffffffffffffffffffffffffffffffffffffffff168273ffffffffffffffffffffffffffffffffffffffff1603610db15760006040517fec442f05000000000000000000000000000000000000000000000000000000008152600401610da89190611982565b60405180910390fd5b610dbc8383836112e9565b505050565b610dd281610dcd610c17565b61150e565b50565b6000610de183836109a9565b610ebc5760016005600085815260200190815260200160002060000160008473ffffffffffffffffffffffffffffffffffffffff1673ffffffffffffffffffffffffffffffffffffffff16815260200190815260200160002060006101000a81548160ff021916908315150217905550610e59610c17565b73ffffffffffffffffffffffffffffffffffffffff168273ffffffffffffffffffffffffffffffffffffffff16847f2f8788117e7eff1d82e926ec794901d17c78024a50270940304540a733656f0d60405160405180910390a460019050610ec1565b600090505b92915050565b6000610ed383836109a9565b15610faf5760006005600085815260200190815260200160002060000160008473ffffffffffffffffffffffffffffffffffffffff1673ffffffffffffffffffffffffffffffffffffffff16815260200190815260200160002060006101000a81548160ff021916908315150217905550610f4c610c17565b73ffffffffffffffffffffffffffffffffffffffff168273ffffffffffffffffffffffffffffffffffffffff16847ff6391f5c32d9c69d2a47ea670b442974b53935d1edc7fd64eb21e047a839171b60405160405180910390a460019050610fb4565b600090505b92915050565b600073ffffffffffffffffffffffffffffffffffffffff168273ffffffffffffffffffffffffffffffffffffffff160361102c5760006040517fec442f050000000000000000000000000000000000000000000000000000000081526004016110239190611982565b60405180910390fd5b611038600083836112e9565b5050565b60007f01ffc9a7000000000000000000000000000000000000000000000000000000007bffffffffffffffffffffffffffffffffffffffffffffffffffffffff1916827bffffffffffffffffffffffffffffffffffffffffffffffffffffffff1916149050919050565b6000806000369050905060006110ba61155f565b90508082101580156110d157506110d0336108cd565b5b15611102576000368284039080926110eb93929190611b4d565b906110f69190611bcc565b60601c9250505061110f565b61110a61156e565b925050505b90565b600073ffffffffffffffffffffffffffffffffffffffff168473ffffffffffffffffffffffffffffffffffffffff16036111845760006040517fe602df0500000000000000000000000000000000000000000000000000000000815260040161117b9190611982565b60405180910390fd5b600073ffffffffffffffffffffffffffffffffffffffff168373ffffffffffffffffffffffffffffffffffffffff16036111f65760006040517f94280d620000000000000000000000000000000000000000000000000000000081526004016111ed9190611982565b60405180910390fd5b81600160008673ffffffffffffffffffffffffffffffffffffffff1673ffffffffffffffffffffffffffffffffffffffff16815260200190815260200160002060008573ffffffffffffffffffffffffffffffffffffffff1673ffffffffffffffffffffffffffffffffffffffff1681526020019081526020016000208190555080156112e3578273ffffffffffffffffffffffffffffffffffffffff168473ffffffffffffffffffffffffffffffffffffffff167f8c5be1e5ebec7d5bd14f71427d1e84f3dd0314c0f7b2291e5b200ac8c7c3b925846040516112da91906117d4565b60405180910390a35b50505050565b600073ffffffffffffffffffffffffffffffffffffffff168373ffffffffffffffffffffffffffffffffffffffff160361133b57806002600082825461132f9190611a6c565b9250508190555061140e565b60008060008573ffffffffffffffffffffffffffffffffffffffff1673ffffffffffffffffffffffffffffffffffffffff168152602001908152602001600020549050818110156113c7578381836040517fe450d38c0000000000000000000000000000000000000000000000000000000081526004016113be93929190611b0c565b60405180910390fd5b8181036000808673ffffffffffffffffffffffffffffffffffffffff1673ffffffffffffffffffffffffffffffffffffffff16815260200190815260200160002081905550505b600073ffffffffffffffffffffffffffffffffffffffff168273ffffffffffffffffffffffffffffffffffffffff160361145757806002600082825403925050819055506114a4565b806000808473ffffffffffffffffffffffffffffffffffffffff1673ffffffffffffffffffffffffffffffffffffffff168152602001908152602001600020600082825401925050819055505b8173ffffffffffffffffffffffffffffffffffffffff168373ffffffffffffffffffffffffffffffffffffffff167fddf252ad1be2c89b69c2b068fc378daa952ba7f163c4a11628f55a4df523b3ef8360405161150191906117d4565b60405180910390a3505050565b61151882826109a9565b61155b5780826040517fe2517d3f000000000000000000000000000000000000000000000000000000008152600401611552929190611c2b565b60405180910390fd5b5050565b6000611569611576565b905090565b600033905090565b60006014905090565b600080fd5b60007fffffffff0000000000000000000000000000000000000000000000000000000082169050919050565b6115b981611584565b81146115c457600080fd5b50565b6000813590506115d6816115b0565b92915050565b6000602082840312156115f2576115f161157f565b5b6000611600848285016115c7565b91505092915050565b60008115159050919050565b61161e81611609565b82525050565b60006020820190506116396000830184611615565b92915050565b600081519050919050565b600082825260208201905092915050565b60005b8381101561167957808201518184015260208101905061165e565b60008484015250505050565b6000601f19601f8301169050919050565b60006116a18261163f565b6116ab818561164a565b93506116bb81856020860161165b565b6116c481611685565b840191505092915050565b600060208201905081810360008301526116e98184611696565b905092915050565b600073ffffffffffffffffffffffffffffffffffffffff82169050919050565b600061171c826116f1565b9050919050565b61172c81611711565b811461173757600080fd5b50565b60008135905061174981611723565b92915050565b6000819050919050565b6117628161174f565b811461176d57600080fd5b50565b60008135905061177f81611759565b92915050565b6000806040838503121561179c5761179b61157f565b5b60006117aa8582860161173a565b92505060206117bb85828601611770565b9150509250929050565b6117ce8161174f565b82525050565b60006020820190506117e960008301846117c5565b92915050565b6000806000606084860312156118085761180761157f565b5b60006118168682870161173a565b93505060206118278682870161173a565b925050604061183886828701611770565b9150509250925092565b6000819050919050565b61185581611842565b811461186057600080fd5b50565b6000813590506118728161184c565b92915050565b60006020828403121561188e5761188d61157f565b5b600061189c84828501611863565b91505092915050565b6118ae81611842565b82525050565b60006020820190506118c960008301846118a5565b92915050565b600080604083850312156118e6576118e561157f565b5b60006118f485828601611863565b92505060206119058582860161173a565b9150509250929050565b600060ff82169050919050565b6119258161190f565b82525050565b6000602082019050611940600083018461191c565b92915050565b60006020828403121561195c5761195b61157f565b5b600061196a8482850161173a565b91505092915050565b61197c81611711565b82525050565b60006020820190506119976000830184611973565b92915050565b600080604083850312156119b4576119b361157f565b5b60006119c28582860161173a565b92505060206119d38582860161173a565b9150509250929050565b7f4e487b7100000000000000000000000000000000000000000000000000000000600052602260045260246000fd5b60006002820490506001821680611a2457607f821691505b602082108103611a3757611a366119dd565b5b50919050565b7f4e487b7100000000000000000000000000000000000000000000000000000000600052601160045260246000fd5b6000611a778261174f565b9150611a828361174f565b9250828201905080821115611a9a57611a99611a3d565b5b92915050565b7f4661756365743a20636f6f6c646f776e206e6f74206578706972656400000000600082015250565b6000611ad6601c8361164a565b9150611ae182611aa0565b602082019050919050565b60006020820190508181036000830152611b0581611ac9565b9050919050565b6000606082019050611b216000830186611973565b611b2e60208301856117c5565b611b3b60408301846117c5565b949350505050565b600080fd5b600080fd5b60008085851115611b6157611b60611b43565b5b83861115611b7257611b71611b48565b5b6001850283019150848603905094509492505050565b600082905092915050565b60007fffffffffffffffffffffffffffffffffffffffff00000000000000000000000082169050919050565b600082821b905092915050565b6000611bd88383611b88565b82611be38135611b93565b92506014821015611c2357611c1e7fffffffffffffffffffffffffffffffffffffffff00000000000000000000000083601403600802611bbf565b831692505b505092915050565b6000604082019050611c406000830185611973565b611c4d60208301846118a5565b939250505056fea2646970667358221220e0c7b7b840f9c4f72efa13dcc47a8285d784820bfd0c4434a85c8c1db976b90364736f6c63430008140033",
  "linkReferences": {},
  "deployedLinkReferences": {}
}