{
  "_format": "hh-sol-artifact-1",
  "contractName": "IDRStable",
  "sourceName": "contracts/IDRStable.sol",
  "abi": [
    {
      "inputs": [
        {
          "internalType": "address",
          "name": "admin",
          "type": "address"
        },
        {
          "internalType": "address",
          "name": "trustedForwarder",
          "type": "address"
        }
      ],
      "stateMutability": "nonpayable",
      "type": "constructor"
    },
    {
      "inputs": [],
      "name": "AccessControlBadConfirmation",
      "type": "error"
    },
    {
      "inputs": [
        {
          "internalType": "address",
          "name": "account",
          "type": "address"
        },
        {
          "internalType": "bytes32",
          "name": "neededRole",
          "type": "bytes32"
        }
      ],
      "name": "AccessControlUnauthorizedAccount",
      "type": "error"
    },
    {
      "inputs": [
        {
          "internalType": "address",
          "name": "spender",
          "type": "address"
        },
        {
          "internalType": "uint256",
          "name": "allowance",
          "type": "uint256"
        },
        {
          "internalType": "uint256",
          "name": "needed",
          "type": "uint256"
        }
      ],
      "name": "ERC20InsufficientAllowance",
      "type": "error"
    },
    {
      "inputs": [
        {
          "internalType": "address",
          "name": "sender",
          "type": "address"
        },
        {
          "internalType": "uint256",
          "name": "balance",
          "type": "uint256"
        },
        {
          "internalType": "uint256",
          "name": "needed",
          "type": "uint256"
        }
      ],
      "name": "ERC20InsufficientBalance",
      "type": "error"
    },
    {
      "inputs": [
        {
          "internalType": "address",
          "name": "approver",
          "type": "address"
        }
      ],
      "name": "ERC20InvalidApprover",
      "type": "error"
    },
    {
      "inputs": [
        {
          "internalType": "address",
          "name": "receiver",
          "type": "address"
        }
      ],
      "name": "ERC20InvalidReceiver",
      "type": "error"
    },
    {
      "inputs": [
        {
          "internalType": "address",
          "name": "sender",
          "type": "address"
        }
      ],
      "name": "ERC20InvalidSender",
      "type": "error"
    },
    {
      "inputs": [
        {
          "internalType": "address",
          "name": "spender",
          "type": "address"
        }
      ],
      "name": "ERC20InvalidSpender",
      "type": "error"
    },
    {
      "anonymous": false,
      "inputs": [
        {
          "indexed": true,
          "internalType": "address",
          "name": "owner",
          "type": "address"
        },
        {
          "indexed": true,
          "internalType": "address",
          "name": "spender",
          "type": "address"
        },
        {
          "indexed": false,
          "internalType": "uint256",
          "name": "value",
          "type": "uint256"
        }
      ],
      "name": "Approval",
      "type": "event"
    },
    {
      "anonymous": false,
      "inputs": [
        {
          "indexed": true,
          "internalType": "address",
          "name": "user",
          "type": "address"
        },
        {
          "indexed": false,
          "internalType": "uint256",
          "name": "amount",
          "type": "uint256"
        }
      ],
      "name": "FaucetClaimed",
      "type": "event"
    },
    {
      "anonymous": false,
      "inputs": [
        {
          "indexed": true,
          "internalType": "bytes32",
          "name": "role",
          "type": "bytes32"
        },
        {
          "indexed": true,
          "internalType": "bytes32",
          "name": "previousAdminRole",
          "type": "bytes32"
        },
        {
          "indexed": true,
          "internalType": "bytes32",
          "name": "newAdminRole",
          "type": "bytes32"
        }
      ],
      "name": "RoleAdminChanged",
      "type": "event"
    },
    {
      "anonymous": false,
      "inputs": [
        {
          "indexed": true,
          "internalType": "bytes32",
          "name": "role",
          "type": "bytes32"
        },
        {
          "indexed": true,
          "internalType": "address",
          "name": "account",
          "type": "address"
        },
        {
          "indexed": true,
          "internalType": "address",
          "name": "sender",
          "type": "address"
        }
      ],
      "name": "RoleGranted",
      "type": "event"
    },
    {
      "anonymous": false,
      "inputs": [
        {
          "indexed": true,
          "internalType": "bytes32",
          "name": "role",
          "type": "bytes32"
        },
        {
          "indexed": true,
          "internalType": "address",
          "name": "account",
          "type": "address"
        },
        {
          "indexed": true,
          "internalType": "address",
          "name": "sender",
          "type": "address"
        }
      ],
      "name": "RoleRevoked",
      "type": "event"
    },
    {
      "anonymous": false,
      "inputs": [
        {
          "indexed": true,
          "internalType": "address",
          "name": "from",
          "type": "address"
        },
        {
          "indexed": true,
          "internalType": "address",
          "name": "to",
          "type": "address"
        },
        {
          "indexed": false,
          "internalType": "uint256",
          "name": "value",
          "type": "uint256"
        }
      ],
      "name": "Transfer",
      "type": "event"
    },
    {
      "inputs": [],
      "name": "DEFAULT_ADMIN_ROLE",
      "outputs": [
        {
          "internalType": "bytes32",
          "name": "",
          "type": "bytes32"
        }
      ],
      "stateMutability": "view",
      "type": "function"
    },
    {
      "inputs": [],
      "name": "FAUCET_AMOUNT",
      "outputs": [
        {
          "internalType": "uint256",
          "name": "",
          "type": "uint256"
        }
      ],
      "stateMutability": "view",
      "type": "function"
    },
    {
      "inputs": [],
      "name": "FAUCET_COOLDOWN",
      "outputs": [
        {
          "internalType": "uint256",
          "name": "",
          "type": "uint256"
        }
      ],
      "stateMutability": "view",
      "type": "function"
    },
    {
      "inputs": [],
      "name": "MINTER_ROLE",
      "outputs": [
        {
          "internalType": "bytes32",
          "name": "",
          "type": "bytes32"
        }
      ],
      "stateMutability": "view",
      "type": "function"
    },
    {
      "inputs": [
        {
          "internalType": "address",
          "name": "owner",
          "type": "address"
        },
        {
          "internalType": "address",
          "name": "spender",
          "type": "address"
        }
      ],
      "name": "allowance",
      "outputs": [
        {
          "internalType": "uint256",
          "name": "",
          "type": "uint256"
        }
      ],
      "stateMutability": "view",
      "type": "function"
    },
    {
      "inputs": [
        {
          "internalType": "address",
          "name": "spender",
          "type": "address"
        },
        {
          "internalType": "uint256",
          "name": "value",
          "type": "uint256"
        }
      ],
      "name": "approve",
      "outputs": [
        {
          "internalType": "bool",
          "name": "",
          "type": "bool"
        }
      ],
      "stateMutability": "nonpayable",
      "type": "function"
    },
    {
      "inputs": [
        {
          "internalType": "address",
          "name": "account",
          "type": "address"
        }
      ],
      "name": "balanceOf",
      "outputs": [
        {
          "internalType": "uint256",
          "name": "",
          "type": "uint256"
        }
      ],
      "stateMutability": "view",
      "type": "function"
    },
    {
      "inputs": [],
      "name": "claimFaucet",
      "outputs": [],
      "stateMutability": "nonpayable",
      "type": "function"
    },
    {
      "inputs": [],
      "name": "decimals",
      "outputs": [
        {
          "internalType": "uint8",
          "name": "",
          "type": "uint8"
        }
      ],
      "stateMutability": "view",
      "type": "function"
    },
    {
      "inputs": [
        {
          "internalType": "bytes32",
          "name": "role",
          "type": "bytes32"
        }
      ],
      "name": "getRoleAdmin",
      "outputs": [
        {
          "internalType": "bytes32",
          "name": "",
          "type": "bytes32"
        }
      ],
      "stateMutability": "view",
      "type": "function"
    },
    {
      "inputs": [
        {
          "internalType": "bytes32",
          "name": "role",
          "type": "bytes32"
        },
        {
          "internalType": "address",
          "name": "account",
          "type": "address"
        }
      ],
      "name": "grantRole",
      "outputs": [],
      "stateMutability": "nonpayable",
      "type": "function"
    },
    {
      "inputs": [
        {
          "internalType": "bytes32",
          "name": "role",
          "type": "bytes32"
        },
        {
          "internalType": "address",
          "name": "account",
          "type": "address"
        }
      ],
      "name": "hasRole",
      "outputs": [
        {
          "internalType": "bool",
          "name": "",
          "type": "bool"
        }
      ],
      "stateMutability": "view",
      "type": "function"
    },
    {
      "inputs": [
        {
          "internalType": "address",
          "name": "forwarder",
          "type": "address"
        }
      ],
      "name": "isTrustedForwarder",
      "outputs": [
        {
          "internalType": "bool",
          "name": "",
          "type": "bool"
        }
      ],
      "stateMutability": "view",
      "type": "function"
    },
    {
      "inputs": [
        {
          "internalType": "address",
          "name": "",
          "type": "address"
        }
      ],
      "name": "lastFaucetClaim",
      "outputs": [
        {
          "internalType": "uint256",
          "name": "",
          "type": "uint256"
        }
      ],
      "stateMutability": "view",
      "type": "function"
    },
    {
      "inputs": [
        {
          "internalType": "address",
          "name": "to",
          "type": "address"
        },
        {
          "internalType": "uint256",
          "name": "amount",
          "type": "uint256"
        }
      ],
      "name": "mint",
      "outputs": [],
      "stateMutability": "nonpayable",
      "type": "function"
    },
    {
      "inputs": [],
      "name": "name",
      "outputs": [
        {
          "internalType": "string",
          "name": "",
          "type": "string"
        }
      ],
      "stateMutability": "view",
      "type": "function"
    },
    {
      "inputs": [
        {
          "internalType": "address",
          "name": "user",
          "type": "address"
        }
      ],
      "name": "nextFaucetClaim",
      "outputs": [
        {
          "internalType": "uint256",
          "name": "",
          "type": "uint256"
        }
      ],
      "stateMutability": "view",
      "type": "function"
    },
    {
      "inputs": [
        {
          "internalType": "bytes32",
          "name": "role",
          "type": "bytes32"
        },
        {
          "internalType": "address",
          "name": "callerConfirmation",
          "type": "address"
        }
      ],
      "name": "renounceRole",
      "outputs": [],
      "stateMutability": "nonpayable",
      "type": "function"
    },
    {
      "inputs": [
        {
          "internalType": "bytes32",
          "name": "role",
          "type": "bytes32"
        },
        {
          "internalType": "address",
          "name": "account",
          "type": "address"
        }
      ],
      "name": "revokeRole",
      "outputs": [],
      "stateMutability": "nonpayable",
      "type": "function"
    },
    {
      "inputs": [
        {
          "internalType": "bytes4",
          "name": "interfaceId",
          "type": "bytes4"
        }
      ],
      "name": "supportsInterface",
      "outputs": [
        {
          "internalType": "bool",
          "name": "",
          "type": "bool"
        }
      ],
      "stateMutability": "view",
      "type": "function"
    },
    {
      "inputs": [],
      "name": "symbol",
      "outputs": [
        {
          "internalType": "string",
          "name": "",
          "type": "string"
        }
      ],
      "stateMutability": "view",
      "type": "function"
    },
    {
      "inputs": [],
      "name": "totalSupply",
      "outputs": [
        {
          "internalType": "uint256",
          "name": "",
          "type": "uint256"
        }
      ],
      "stateMutability": "view",
      "type": "function"
    },
    {
      "inputs": [
        {
          "internalType": "address",
          "name": "to",
          "type": "address"
        },
        {
          "internalType": "uint256",
          "name": "value",
          "type": "uint256"
        }
      ],
      "name": "transfer",
      "outputs": [
        {
          "internalType": "bool",
          "name": "",
          "type": "bool"
        }
      ],
      "stateMutability": "nonpayable",
      "type": "function"
    },
    {
      "inputs": [
        {
          "internalType": "address",
          "name": "from",
          "type": "address"
        },
        {
          "internalType": "address",
          "name": "to",
          "type": "address"
        },
        {
          "internalType": "uint256",
          "name": "value",
          "type": "uint256"
        }
      ],
      "name": "transferFrom",
      "outputs": [
        {
          "internalType": "bool",
          "name": "",
          "type": "bool"
        }
      ],
      "stateMutability": "nonpayable",
      "type": "function"
    },
    {
      "inputs": [],
      "name": "trustedForwarder",
      "outputs": [
        {
          "internalType": "address",
          "name": "",
          "type": "address"
        }
      ],
      "stateMutability": "view",
      "type": "function"
    }
  ],
  "bytecode": "0x60a06040523480156200001157600080fd5b506040516200151f3803806200151f8339810160408190526200003491620003d0565b806040518060400160405280600d81526020016c086c2e4c4dedc40a4eae0d2c2d609b1b815250604051806040016040528060048152602001634944524360e01b8152508160039081620000899190620004ad565b506004620000988282620004ad565b5050506001600160a01b0316608052620000b460008362000101565b50620000e17f9f2df0fed2c77648de5860a4cc508cd0818c85b8b8a1ab4ceeef8d981c8956a68362000101565b50620000f9826a52b7d2dcc80cd2e4000000620001b6565b5050620005f8565b60008281526005602090815260408083206001600160a01b038516845290915281205460ff16620001ac5760008381526005602090815260408083206001600160a01b03861684529091529020805460ff1916600117905562000163620001f8565b6001600160a01b0316826001600160a01b0316847f2f8788117e7eff1d82e926ec794901d17c78024a50270940304540a733656f0d60405160405180910390a4506001620001b0565b5060005b92915050565b6001600160a01b038216620001e65760405163ec442f0560e01b8152600060048201526024015b60405180910390fd5b620001f46000838362000209565b5050565b6000620002046200033c565b905090565b6001600160a01b038316620002385780600260008282546200022c919062000579565b90915550620002ac9050565b6001600160a01b038316600090815260208190526040902054818110156200028d5760405163391434e360e21b81526001600160a01b03851660048201526024810182905260448101839052606401620001dd565b6001600160a01b03841660009081526020819052604090209082900390555b6001600160a01b038216620002ca57600280548290039055620002e9565b6001600160a01b03821660009081526020819052604090208054820190555b816001600160a01b0316836001600160a01b03167fddf252ad1be2c89b69c2b068fc378daa952ba7f163c4a11628f55a4df523b3ef836040516200032f91815260200190565b60405180910390a3505050565b600036601480821080159062000358575062000358336200038c565b1562000384576200036f368284038160006200059b565b6200037a91620005c7565b60601c9250505090565b339250505090565b60006200039860805190565b6001600160a01b0316826001600160a01b0316149050919050565b80516001600160a01b0381168114620003cb57600080fd5b919050565b60008060408385031215620003e457600080fd5b620003ef83620003b3565b9150620003ff60208401620003b3565b90509250929050565b634e487b7160e01b600052604160045260246000fd5b600181811c908216806200043357607f821691505b6020821081036200045457634e487b7160e01b600052602260045260246000fd5b50919050565b601f821115620004a857600081815260208120601f850160051c81016020861015620004835750805b601f850160051c820191505b81811015620004a4578281556001016200048f565b5050505b505050565b81516001600160401b03811115620004c957620004c962000408565b620004e181620004da84546200041e565b846200045a565b602080601f831160018114620005195760008415620005005750858301515b600019600386901b1c1916600185901b178555620004a4565b600085815260208120601f198616915b828110156200054a5788860151825594840194600190910190840162000529565b5085821015620005695787850151600019600388901b60f8161c191681555b5050505050600190811b01905550565b80820180821115620001b057634e487b7160e01b600052601160045260246000fd5b60008085851115620005ac57600080fd5b83861115620005ba57600080fd5b5050820193919092039150565b6001600160601b03198135818116916014851015620005f05780818660140360031b1b83161692505b505092915050565b608051610efd62000622600039600081816102850152818161030601526109f70152610efd6000f3fe608060405234801561001057600080fd5b50600436106101735760003560e01c8063572b6c05116100de57806391d1485411610097578063a9059cbb11610071578063a9059cbb14610373578063d539139314610386578063d547741f146103ad578063dd62ed3e146103c057600080fd5b806391d148541461035057806395d89b4114610363578063a217fddf1461036b57600080fd5b8063572b6c051461027557806370a08231146102b557806376697640146102de5780637d1d5d19146102ef5780637da0a877146102f95780638a8772051461033057600080fd5b80632f2ff15d116101305780632f2ff15d14610210578063313ce5671461022557806336568abe1461023457806340c10f19146102475780634fe153351461025a5780635534c4251461026257600080fd5b806301ffc9a71461017857806306fdde03146101a0578063095ea7b3146101b557806318160ddd146101c857806323b872dd146101da578063248a9ca3146101ed575b600080fd5b61018b610186366004610c89565b6103f9565b60405190151581526020015b60405180910390f35b6101a861040a565b6040516101979190610cb3565b61018b6101c3366004610d1d565b61049c565b6002545b604051908152602001610197565b61018b6101e8366004610d47565b6104be565b6101cc6101fb366004610d83565b60009081526005602052604090206001015490565b61022361021e366004610d9c565b6104ec565b005b60405160128152602001610197565b610223610242366004610d9c565b610517565b610223610255366004610d1d565b61055f565b610223610593565b6101cc610270366004610dc8565b61069a565b61018b610283366004610dc8565b7f00000000000000000000000000000000000000000000000000000000000000006001600160a01b0390811691161490565b6101cc6102c3366004610dc8565b6001600160a01b031660009081526020819052604090205490565b6101cc69d3c21bcecceda100000081565b6101cc6201518081565b6040516001600160a01b037f0000000000000000000000000000000000000000000000000000000000000000168152602001610197565b6101cc61033e366004610dc8565b60066020526000908152604090205481565b61018b61035e366004610d9c565b6106d7565b6101a8610702565b6101cc600081565b61018b610381366004610d1d565b610711565b6101cc7f9f2df0fed2c77648de5860a4cc508cd0818c85b8b8a1ab4ceeef8d981c8956a681565b6102236103bb366004610d9c565b610729565b6101cc6103ce366004610de3565b6001600160a01b03918216600090815260016020908152604080832093909416825291909152205490565b60006104048261074e565b92915050565b60606003805461041990610e0d565b80601f016020809104026020016040519081016040528092919081815260200182805461044590610e0d565b80156104925780601f1061046757610100808354040283529160200191610492565b820191906000526020600020905b81548152906001019060200180831161047557829003601f168201915b5050505050905090565b6000806104a7610783565b90506104b4818585610792565b5060019392505050565b6000806104c9610783565b90506104d685828561079f565b6104e1858585610818565b506001949350505050565b60008281526005602052604090206001015461050781610877565b610511838361088b565b50505050565b61051f610783565b6001600160a01b0316816001600160a01b0316146105505760405163334bd91960e11b815260040160405180910390fd5b61055a8282610920565b505050565b7f9f2df0fed2c77648de5860a4cc508cd0818c85b8b8a1ab4ceeef8d981c8956a661058981610877565b61055a83836109ab565b600061059d610783565b6001600160a01b0381166000908152600660205260409020549091506105c7906201518090610e47565b42101561061b5760405162461bcd60e51b815260206004820152601c60248201527f4661756365743a20636f6f6c646f776e206e6f7420657870697265640000000060448201526064015b60405180910390fd5b6001600160a01b038116600090815260066020526040902042905561064a8169d3c21bcecceda10000006109ab565b806001600160a01b03167f5d4f415c63cd8a5874d9d291cdd64cec37e5dc236d90d659c958d109d78074b369d3c21bcecceda100000060405161068f91815260200190565b60405180910390a250565b6001600160a01b0381166000908152600660205260408120548082036106c35750600092915050565b6106d06201518082610e47565b9392505050565b60009182526005602090815260408084206001600160a01b0393909316845291905290205460ff1690565b60606004805461041990610e0d565b60008061071c610783565b90506104b4818585610818565b60008281526005602052604090206001015461074481610877565b6105118383610920565b60006001600160e01b03198216637965db0b60e01b148061040457506301ffc9a760e01b6001600160e01b0319831614610404565b600061078d6109e5565b905090565b61055a8383836001610a51565b6001600160a01b03838116600090815260016020908152604080832093861683529290522054600019811015610511578181101561080957604051637dc7a0d960e11b81526001600160a01b03841660048201526024810182905260448101839052606401610612565b61051184848484036000610a51565b6001600160a01b03831661084257604051634b637e8f60e11b815260006004820152602401610612565b6001600160a01b03821661086c5760405163ec442f0560e01b815260006004820152602401610612565b61055a838383610b26565b61088881610883610783565b610c50565b50565b600061089783836106d7565b6109185760008381526005602090815260408083206001600160a01b03861684529091529020805460ff191660011790556108d0610783565b6001600160a01b0316826001600160a01b0316847f2f8788117e7eff1d82e926ec794901d17c78024a50270940304540a733656f0d60405160405180910390a4506001610404565b506000610404565b600061092c83836106d7565b156109185760008381526005602090815260408083206001600160a01b03861684529091529020805460ff19169055610963610783565b6001600160a01b0316826001600160a01b0316847ff6391f5c32d9c69d2a47ea670b442974b53935d1edc7fd64eb21e047a839171b60405160405180910390a4506001610404565b6001600160a01b0382166109d55760405163ec442f0560e01b815260006004820152602401610612565b6109e160008383610b26565b5050565b6000366014808210801590610a2257507f00000000000000000000000000000000000000000000000000000000000000006001600160a01b031633145b15610a4957610a3636828403816000610e68565b610a3f91610e92565b60601c9250505090565b339250505090565b6001600160a01b038416610a7b5760405163e602df0560e01b815260006004820152602401610612565b6001600160a01b038316610aa557604051634a1406b160e11b815260006004820152602401610612565b6001600160a01b038085166000908152600160209081526040808320938716835292905220829055801561051157826001600160a01b0316846001600160a01b03167f8c5be1e5ebec7d5bd14f71427d1e84f3dd0314c0f7b2291e5b200ac8c7c3b92584604051610b1891815260200190565b60405180910390a350505050565b6001600160a01b038316610b51578060026000828254610b469190610e47565b90915550610bc39050565b6001600160a01b03831660009081526020819052604090205481811015610ba45760405163391434e360e21b81526001600160a01b03851660048201526024810182905260448101839052606401610612565b6001600160a01b03841660009081526020819052604090209082900390555b6001600160a01b038216610bdf57600280548290039055610bfe565b6001600160a01b03821660009081526020819052604090208054820190555b816001600160a01b0316836001600160a01b03167fddf252ad1be2c89b69c2b068fc378daa952ba7f163c4a11628f55a4df523b3ef83604051610c4391815260200190565b60405180910390a3505050565b610c5a82826106d7565b6109e15760405163e2517d3f60e01b81526001600160a01b038216600482015260248101839052604401610612565b600060208284031215610c9b57600080fd5b81356001600160e01b0319811681146106d057600080fd5b600060208083528351808285015260005b81811015610ce057858101830151858201604001528201610cc4565b506000604082860101526040601f19601f8301168501019250505092915050565b80356001600160a01b0381168114610d1857600080fd5b919050565b60008060408385031215610d3057600080fd5b610d3983610d01565b946020939093013593505050565b600080600060608486031215610d5c57600080fd5b610d6584610d01565b9250610d7360208501610d01565b9150604084013590509250925092565b600060208284031215610d9557600080fd5b5035919050565b60008060408385031215610daf57600080fd5b82359150610dbf60208401610d01565b90509250929050565b600060208284031215610dda57600080fd5b6106d082610d01565b60008060408385031215610df657600080fd5b610dff83610d01565b9150610dbf60208401610d01565b600181811c90821680610e2157607f821691505b602082108103610e4157634e487b7160e01b600052602260045260246000fd5b50919050565b8082018082111561040457634e487b7160e01b600052601160045260246000fd5b60008085851115610e7857600080fd5b83861115610e8557600080fd5b5050820193919092039150565b6bffffffffffffffffffffffff198135818116916014851015610ebf5780818660140360031b1b83161692505b50509291505056fea26469706673582212205b391c1eecce49a0797156402246ab74008b09549f2edcbae9e4747ebdcca6dd64736f6c63430008140033",
  "linkReferences": {},
  "deployedLinkReferences": {}
}