{
  "_format": "hh-sol-artifact-1",
  "contractName": "MRVOracle",
  "sourceName": "contracts/MRVOracle.sol",
  "abi": [
    {
      "inputs": [
        {
          "internalType": "address",
          "name": "admin",
          "type": "address"
        },
        {
          "internalType": "address",
          "name": "operator",
          "type": "address"
        }
      ],
      "stateMutability": "nonpayable",
      "type": "constructor"
    },
    {
      "inputs": [],
      "name": "AccessControlBadConfirmation",
      "type": "error"
    },
    {
      "inputs": [
        {
          "internalType": "address",
          "name": "account",
          "type": "address"
        },
        {
          "internalType": "bytes32",
          "name": "neededRole",
          "type": "bytes32"
        }
      ],
      "name": "AccessControlUnauthorizedAccount",
      "type": "error"
    },
    {
      "anonymous": false,
      "inputs": [
        {
          "indexed": true,
          "internalType": "uint32",
          "name": "period",
          "type": "uint32"
        },
        {
          "indexed": true,
          "internalType": "address",
          "name": "user",
          "type": "address"
        },
        {
          "indexed": false,
          "internalType": "uint256",
          "name": "tonCO2",
          "type": "uint256"
        },
        {
          "indexed": false,
          "internalType": "bytes32",
          "name": "attestationId",
          "type": "bytes32"
        }
      ],
      "name": "EmissionVerified",
      "type": "event"
    },
    {
      "anonymous": false,
      "inputs": [
        {
          "indexed": true,
          "internalType": "bytes32",
          "name": "attestationId",
          "type": "bytes32"
        },
        {
          "indexed": false,
          "internalType": "bytes32",
          "name": "docHash",
          "type": "bytes32"
        },
        {
          "indexed": false,
          "internalType": "bytes32",
          "name": "metaHash",
          "type": "bytes32"
        },
        {
          "indexed": false,
          "internalType": "address",
          "name": "operator",
          "type": "address"
        }
      ],
      "name": "MRVAttested",
      "type": "event"
    },
    {
      "anonymous": false,
      "inputs": [
        {
          "indexed": true,
          "internalType": "bytes32",
          "name": "role",
          "type": "bytes32"
        },
        {
          "indexed": true,
          "internalType": "bytes32",
          "name": "previousAdminRole",
          "type": "bytes32"
        },
        {
          "indexed": true,
          "internalType": "bytes32",
          "name": "newAdminRole",
          "type": "bytes32"
        }
      ],
      "name": "RoleAdminChanged",
      "type": "event"
    },
    {
      "anonymous": false,
      "inputs": [
        {
          "indexed": true,
          "internalType": "bytes32",
          "name": "role",
          "type": "bytes32"
        },
        {
          "indexed": true,
          "internalType": "address",
          "name": "account",
          "type": "address"
        },
        {
          "indexed": true,
          "internalType": "address",
          "name": "sender",
          "type": "address"
        }
      ],
      "name": "RoleGranted",
      "type": "event"
    },
    {
      "anonymous": false,
      "inputs": [
        {
          "indexed": true,
          "internalType": "bytes32",
          "name": "role",
          "type": "bytes32"
        },
        {
          "indexed": true,
          "internalType": "address",
          "name": "account",
          "type": "address"
        },
        {
          "indexed": true,
          "internalType": "address",
          "name": "sender",
          "type": "address"
        }
      ],
      "name": "RoleRevoked",
      "type": "event"
    },
    {
      "inputs": [],
      "name": "DEFAULT_ADMIN_ROLE",
      "outputs": [
        {
          "internalType": "bytes32",
          "name": "",
          "type": "bytes32"
        }
      ],
      "stateMutability": "view",
      "type": "function"
    },
    {
      "inputs": [],
      "name": "OPERATOR_ROLE",
      "outputs": [
        {
          "internalType": "bytes32",
          "name": "",
          "type": "bytes32"
        }
      ],
      "stateMutability": "view",
      "type": "function"
    },
    {
      "inputs": [
        {
          "internalType": "bytes32",
          "name": "attestationId",
          "type": "bytes32"
        },
        {
          "internalType": "bytes32",
          "name": "mrvDocHash",
          "type": "bytes32"
        },
        {
          "internalType": "bytes32",
          "name": "metaHash",
          "type": "bytes32"
        }
      ],
      "name": "attestMRV",
      "outputs": [],
      "stateMutability": "nonpayable",
      "type": "function"
    },
    {
      "inputs": [
        {
          "internalType": "bytes32",
          "name": "",
          "type": "bytes32"
        }
      ],
      "name": "attestations",
      "outputs": [
        {
          "internalType": "bytes32",
          "name": "docHash",
          "type": "bytes32"
        },
        {
          "internalType": "bytes32",
          "name": "metaHash",
          "type": "bytes32"
        },
        {
          "internalType": "bool",
          "name": "valid",
          "type": "bool"
        },
        {
          "internalType": "uint64",
          "name": "attestedAt",
          "type": "uint64"
        }
      ],
      "stateMutability": "view",
      "type": "function"
    },
    {
      "inputs": [
        {
          "internalType": "uint32",
          "name": "",
          "type": "uint32"
        },
        {
          "internalType": "address",
          "name": "",
          "type": "address"
        }
      ],
      "name": "emissionDocumentIPFS",
      "outputs": [
        {
          "internalType": "string",
          "name": "",
          "type": "string"
        }
      ],
      "stateMutability": "view",
      "type": "function"
    },
    {
      "inputs": [
        {
          "internalType": "bytes32",
          "name": "attestationId",
          "type": "bytes32"
        }
      ],
      "name": "getAttestation",
      "outputs": [
        {
          "internalType": "bytes32",
          "name": "docHash",
          "type": "bytes32"
        },
        {
          "internalType": "bytes32",
          "name": "metaHash",
          "type": "bytes32"
        },
        {
          "internalType": "bool",
          "name": "valid",
          "type": "bool"
        },
        {
          "internalType": "uint64",
          "name": "attestedAt",
          "type": "uint64"
        }
      ],
      "stateMutability": "view",
      "type": "function"
    },
    {
      "inputs": [
        {
          "internalType": "uint32",
          "name": "period",
          "type": "uint32"
        },
        {
          "internalType": "address",
          "name": "user",
          "type": "address"
        }
      ],
      "name": "getEmissionDocuments",
      "outputs": [
        {
          "internalType": "string",
          "name": "docIPFS",
          "type": "string"
        },
        {
          "internalType": "string",
          "name": "reportIPFS",
          "type": "string"
        }
      ],
      "stateMutability": "view",
      "type": "function"
    },
    {
      "inputs": [
        {
          "internalType": "bytes32",
          "name": "role",
          "type": "bytes32"
        }
      ],
      "name": "getRoleAdmin",
      "outputs": [
        {
          "internalType": "bytes32",
          "name": "",
          "type": "bytes32"
        }
      ],
      "stateMutability": "view",
      "type": "function"
    },
    {
      "inputs": [
        {
          "internalType": "uint32",
          "name": "period",
          "type": "uint32"
        },
        {
          "internalType": "address",
          "name": "user",
          "type": "address"
        }
      ],
      "name": "getVerifiedEmission",
      "outputs": [
        {
          "internalType": "uint256",
          "name": "",
          "type": "uint256"
        }
      ],
      "stateMutability": "view",
      "type": "function"
    },
    {
      "inputs": [
        {
          "internalType": "bytes32",
          "name": "role",
          "type": "bytes32"
        },
        {
          "internalType": "address",
          "name": "account",
          "type": "address"
        }
      ],
      "name": "grantRole",
      "outputs": [],
      "stateMutability": "nonpayable",
      "type": "function"
    },
    {
      "inputs": [
        {
          "internalType": "bytes32",
          "name": "role",
          "type": "bytes32"
        },
        {
          "internalType": "address",
          "name": "account",
          "type": "address"
        }
      ],
      "name": "hasRole",
      "outputs": [
        {
          "internalType": "bool",
          "name": "",
          "type": "bool"
        }
      ],
      "stateMutability": "view",
      "type": "function"
    },
    {
      "inputs": [
        {
          "internalType": "bytes32",
          "name": "role",
          "type": "bytes32"
        },
        {
          "internalType": "address",
          "name": "callerConfirmation",
          "type": "address"
        }
      ],
      "name": "renounceRole",
      "outputs": [],
      "stateMutability": "nonpayable",
      "type": "function"
    },
    {
      "inputs": [
        {
          "internalType": "bytes32",
          "name": "role",
          "type": "bytes32"
        },
        {
          "internalType": "address",
          "name": "account",
          "type": "address"
        }
      ],
      "name": "revokeRole",
      "outputs": [],
      "stateMutability": "nonpayable",
      "type": "function"
    },
    {
      "inputs": [
        {
          "internalType": "uint32",
          "name": "period",
          "type": "uint32"
        },
        {
          "internalType": "address",
          "name": "user",
          "type": "address"
        },
        {
          "internalType": "uint256",
          "name": "tonCO2",
          "type": "uint256"
        },
        {
          "internalType": "bytes32",
          "name": "attestationId",
          "type": "bytes32"
        }
      ],
      "name": "setVerifiedEmission",
      "outputs": [],
      "stateMutability": "nonpayable",
      "type": "function"
    },
    {
      "inputs": [
        {
          "internalType": "uint32",
          "name": "period",
          "type": "uint32"
        },
        {
          "internalType": "address",
          "name": "user",
          "type": "address"
        },
        {
          "internalType": "uint256",
          "name": "tonCO2",
          "type": "uint256"
        },
        {
          "internalType": "bytes32",
          "name": "attestationId",
          "type": "bytes32"
        },
        {
          "internalType": "string",
          "name": "docIPFS",
          "type": "string"
        },
        {
          "internalType": "string",
          "name": "reportIPFS",
          "type": "string"
        }
      ],
      "name": "setVerifiedEmissionWithIPFS",
      "outputs": [],
      "stateMutability": "nonpayable",
      "type": "function"
    },
    {
      "inputs": [
        {
          "internalType": "bytes4",
          "name": "interfaceId",
          "type": "bytes4"
        }
      ],
      "name": "supportsInterface",
      "outputs": [
        {
          "internalType": "bool",
          "name": "",
          "type": "bool"
        }
      ],
      "stateMutability": "view",
      "type": "function"
    },
    {
      "inputs": [
        {
          "internalType": "uint32",
          "name": "",
          "type": "uint32"
        },
        {
          "internalType": "address",
          "name": "",
          "type": "address"
        }
      ],
      "name": "verificationReportIPFS",
      "outputs": [
        {
          "internalType": "string",
          "name": "",
          "type": "string"
        }
      ],
      "stateMutability": "view",
      "type": "function"
    },
    {
      "inputs": [
        {
          "internalType": "uint32",
          "name": "",
          "type": "uint32"
        },
        {
          "internalType": "address",
          "name": "",
          "type": "address"
        }
      ],
      "name": "verifiedEmissions",
      "outputs": [
        {
          "internalType": "uint256",
          "name": "",
          "type": "uint256"
        }
      ],
      "stateMutability": "view",
      "type": "function"
    }
  ],
  "bytecode": "0x60806040523480156200001157600080fd5b506040516200210f3803806200210f833981810160405281019062000037919062000267565b6200004c6000801b836200008860201b60201c565b506200007f7f97667070c54ef182b0f5858b034beac1b6f3089aa2d3188bb1e8929f4fa9b929826200008860201b60201c565b505050620002ae565b60006200009c83836200018b60201b60201c565b6200018057600160008085815260200190815260200160002060000160008473ffffffffffffffffffffffffffffffffffffffff1673ffffffffffffffffffffffffffffffffffffffff16815260200190815260200160002060006101000a81548160ff0219169083151502179055506200011c620001f560201b60201c565b73ffffffffffffffffffffffffffffffffffffffff168273ffffffffffffffffffffffffffffffffffffffff16847f2f8788117e7eff1d82e926ec794901d17c78024a50270940304540a733656f0d60405160405180910390a46001905062000185565b600090505b92915050565b600080600084815260200190815260200160002060000160008373ffffffffffffffffffffffffffffffffffffffff1673ffffffffffffffffffffffffffffffffffffffff16815260200190815260200160002060009054906101000a900460ff16905092915050565b600033905090565b600080fd5b600073ffffffffffffffffffffffffffffffffffffffff82169050919050565b60006200022f8262000202565b9050919050565b620002418162000222565b81146200024d57600080fd5b50565b600081519050620002618162000236565b92915050565b60008060408385031215620002815762000280620001fd565b5b6000620002918582860162000250565b9250506020620002a48582860162000250565b9150509250929050565b611e5180620002be6000396000f3fe608060405234801561001057600080fd5b50600436106101165760003560e01c806387a855db116100a2578063a3112a6411610071578063a3112a6414610319578063c0718dda1461034c578063d4c1a8d51461037c578063d547741f146103ac578063f5b541a6146103c857610116565b806387a855db1461026757806391d1485414610298578063940992a3146102c8578063a217fddf146102fb57610116565b806336568abe116100e957806336568abe146101b357806345e1b42c146101cf5780634b65ae73146101ff578063507640ba1461021b57806366c8353c1461024b57610116565b806301ffc9a71461011b578063248a9ca31461014b5780632f2ff15d1461017b578063335a7adc14610197575b600080fd5b61013560048036038101906101309190611380565b6103e6565b60405161014291906113c8565b60405180910390f35b61016560048036038101906101609190611419565b610460565b6040516101729190611455565b60405180910390f35b610195600480360381019061019091906114ce565b61047f565b005b6101b160048036038101906101ac919061150e565b6104a1565b005b6101cd60048036038101906101c891906114ce565b61061e565b005b6101e960048036038101906101e4919061159d565b610699565b6040516101f691906115f6565b60405180910390f35b6102196004803603810190610214919061163d565b610700565b005b6102356004803603810190610230919061159d565b6108bb565b60405161024291906115f6565b60405180910390f35b61026560048036038101906102609190611709565b6108e0565b005b610281600480360381019061027c919061159d565b610b77565b60405161028f929190611868565b60405180910390f35b6102b260048036038101906102ad91906114ce565b610d55565b6040516102bf91906113c8565b60405180910390f35b6102e260048036038101906102dd9190611419565b610dbf565b6040516102f294939291906118c2565b60405180910390f35b610303610e10565b6040516103109190611455565b60405180910390f35b610333600480360381019061032e9190611419565b610e17565b60405161034394939291906118c2565b60405180910390f35b6103666004803603810190610361919061159d565b610ec4565b6040516103739190611907565b60405180910390f35b6103966004803603810190610391919061159d565b610f71565b6040516103a39190611907565b60405180910390f35b6103c660048036038101906103c191906114ce565b61101e565b005b6103d0611040565b6040516103dd9190611455565b60405180910390f35b60007f7965db0b000000000000000000000000000000000000000000000000000000007bffffffffffffffffffffffffffffffffffffffffffffffffffffffff1916827bffffffffffffffffffffffffffffffffffffffffffffffffffffffff19161480610459575061045882611064565b5b9050919050565b6000806000838152602001908152602001600020600101549050919050565b61048882610460565b610491816110ce565b61049b83836110e2565b50505050565b7f97667070c54ef182b0f5858b034beac1b6f3089aa2d3188bb1e8929f4fa9b9296104cb816110ce565b60006001600086815260200190815260200160002090508060020160009054906101000a900460ff1615610534576040517f08c379a000000000000000000000000000000000000000000000000000000000815260040161052b90611975565b60405180910390fd5b60405180608001604052808581526020018481526020016001151581526020014267ffffffffffffffff1681525060016000878152602001908152602001600020600082015181600001556020820151816001015560408201518160020160006101000a81548160ff02191690831515021790555060608201518160020160016101000a81548167ffffffffffffffff021916908367ffffffffffffffff160217905550905050847fc1aa563a298a560d1982f9c96f5cb3db00880b8a5e28052e38a44eba47ee068c85853360405161060f939291906119a4565b60405180910390a25050505050565b6106266111d3565b73ffffffffffffffffffffffffffffffffffffffff168173ffffffffffffffffffffffffffffffffffffffff161461068a576040517f6697b23200000000000000000000000000000000000000000000000000000000815260040160405180910390fd5b61069482826111db565b505050565b6000600260008463ffffffff1663ffffffff16815260200190815260200160002060008373ffffffffffffffffffffffffffffffffffffffff1673ffffffffffffffffffffffffffffffffffffffff16815260200190815260200160002054905092915050565b7f97667070c54ef182b0f5858b034beac1b6f3089aa2d3188bb1e8929f4fa9b92961072a816110ce565b6001600083815260200190815260200160002060020160009054906101000a900460ff1661078d576040517f08c379a000000000000000000000000000000000000000000000000000000000815260040161078490611a27565b60405180910390fd5b600073ffffffffffffffffffffffffffffffffffffffff168473ffffffffffffffffffffffffffffffffffffffff16036107fc576040517f08c379a00000000000000000000000000000000000000000000000000000000081526004016107f390611a93565b60405180910390fd5b82600260008763ffffffff1663ffffffff16815260200190815260200160002060008673ffffffffffffffffffffffffffffffffffffffff1673ffffffffffffffffffffffffffffffffffffffff168152602001908152602001600020819055508373ffffffffffffffffffffffffffffffffffffffff168563ffffffff167ff7c6623e2bac9c2157eeef78781693254268e5e0fad3108d60cf029c60371ca185856040516108ac929190611ab3565b60405180910390a35050505050565b6002602052816000526040600020602052806000526040600020600091509150505481565b7f97667070c54ef182b0f5858b034beac1b6f3089aa2d3188bb1e8929f4fa9b92961090a816110ce565b6001600087815260200190815260200160002060020160009054906101000a900460ff1661096d576040517f08c379a000000000000000000000000000000000000000000000000000000000815260040161096490611a27565b60405180910390fd5b600073ffffffffffffffffffffffffffffffffffffffff168873ffffffffffffffffffffffffffffffffffffffff16036109dc576040517f08c379a00000000000000000000000000000000000000000000000000000000081526004016109d390611a93565b60405180910390fd5b86600260008b63ffffffff1663ffffffff16815260200190815260200160002060008a73ffffffffffffffffffffffffffffffffffffffff1673ffffffffffffffffffffffffffffffffffffffff168152602001908152602001600020819055508484600360008c63ffffffff1663ffffffff16815260200190815260200160002060008b73ffffffffffffffffffffffffffffffffffffffff1673ffffffffffffffffffffffffffffffffffffffff1681526020019081526020016000209182610aa8929190611d22565b508282600460008c63ffffffff1663ffffffff16815260200190815260200160002060008b73ffffffffffffffffffffffffffffffffffffffff1673ffffffffffffffffffffffffffffffffffffffff1681526020019081526020016000209182610b14929190611d22565b508773ffffffffffffffffffffffffffffffffffffffff168963ffffffff167ff7c6623e2bac9c2157eeef78781693254268e5e0fad3108d60cf029c60371ca18989604051610b64929190611ab3565b60405180910390a3505050505050505050565b606080600360008563ffffffff1663ffffffff16815260200190815260200160002060008473ffffffffffffffffffffffffffffffffffffffff1673ffffffffffffffffffffffffffffffffffffffff168152602001908152602001600020600460008663ffffffff1663ffffffff16815260200190815260200160002060008573ffffffffffffffffffffffffffffffffffffffff1673ffffffffffffffffffffffffffffffffffffffff168152602001908152602001600020818054610c3e90611b45565b80601f0160208091040260200160405190810160405280929190818152602001828054610c6a90611b45565b8015610cb75780601f10610c8c57610100808354040283529160200191610cb7565b820191906000526020600020905b815481529060010190602001808311610c9a57829003601f168201915b50505050509150808054610cca90611b45565b80601f0160208091040260200160405190810160405280929190818152602001828054610cf690611b45565b8015610d435780601f10610d1857610100808354040283529160200191610d43565b820191906000526020600020905b815481529060010190602001808311610d2657829003601f168201915b50505050509050915091509250929050565b600080600084815260200190815260200160002060000160008373ffffffffffffffffffffffffffffffffffffffff1673ffffffffffffffffffffffffffffffffffffffff16815260200190815260200160002060009054906101000a900460ff16905092915050565b60016020528060005260406000206000915090508060000154908060010154908060020160009054906101000a900460ff16908060020160019054906101000a900467ffffffffffffffff16905084565b6000801b81565b60008060008060006001600087815260200190815260200160002060405180608001604052908160008201548152602001600182015481526020016002820160009054906101000a900460ff161515151581526020016002820160019054906101000a900467ffffffffffffffff1667ffffffffffffffff1667ffffffffffffffff1681525050905080600001518160200151826040015183606001519450945094509450509193509193565b6004602052816000526040600020602052806000526040600020600091509150508054610ef090611b45565b80601f0160208091040260200160405190810160405280929190818152602001828054610f1c90611b45565b8015610f695780601f10610f3e57610100808354040283529160200191610f69565b820191906000526020600020905b815481529060010190602001808311610f4c57829003601f168201915b505050505081565b6003602052816000526040600020602052806000526040600020600091509150508054610f9d90611b45565b80601f0160208091040260200160405190810160405280929190818152602001828054610fc990611b45565b80156110165780601f10610feb57610100808354040283529160200191611016565b820191906000526020600020905b815481529060010190602001808311610ff957829003601f168201915b505050505081565b61102782610460565b611030816110ce565b61103a83836111db565b50505050565b7f97667070c54ef182b0f5858b034beac1b6f3089aa2d3188bb1e8929f4fa9b92981565b60007f01ffc9a7000000000000000000000000000000000000000000000000000000007bffffffffffffffffffffffffffffffffffffffffffffffffffffffff1916827bffffffffffffffffffffffffffffffffffffffffffffffffffffffff1916149050919050565b6110df816110da6111d3565b6112cd565b50565b60006110ee8383610d55565b6111c857600160008085815260200190815260200160002060000160008473ffffffffffffffffffffffffffffffffffffffff1673ffffffffffffffffffffffffffffffffffffffff16815260200190815260200160002060006101000a81548160ff0219169083151502179055506111656111d3565b73ffffffffffffffffffffffffffffffffffffffff168273ffffffffffffffffffffffffffffffffffffffff16847f2f8788117e7eff1d82e926ec794901d17c78024a50270940304540a733656f0d60405160405180910390a4600190506111cd565b600090505b92915050565b600033905090565b60006111e78383610d55565b156112c257600080600085815260200190815260200160002060000160008473ffffffffffffffffffffffffffffffffffffffff1673ffffffffffffffffffffffffffffffffffffffff16815260200190815260200160002060006101000a81548160ff02191690831515021790555061125f6111d3565b73ffffffffffffffffffffffffffffffffffffffff168273ffffffffffffffffffffffffffffffffffffffff16847ff6391f5c32d9c69d2a47ea670b442974b53935d1edc7fd64eb21e047a839171b60405160405180910390a4600190506112c7565b600090505b92915050565b6112d78282610d55565b61131a5780826040517fe2517d3f000000000000000000000000000000000000000000000000000000008152600401611311929190611df2565b60405180910390fd5b5050565b600080fd5b600080fd5b60007fffffffff0000000000000000000000000000000000000000000000000000000082169050919050565b61135d81611328565b811461136857600080fd5b50565b60008135905061137a81611354565b92915050565b6000602082840312156113965761139561131e565b5b60006113a48482850161136b565b91505092915050565b60008115159050919050565b6113c2816113ad565b82525050565b60006020820190506113dd60008301846113b9565b92915050565b6000819050919050565b6113f6816113e3565b811461140157600080fd5b50565b600081359050611413816113ed565b92915050565b60006020828403121561142f5761142e61131e565b5b600061143d84828501611404565b91505092915050565b61144f816113e3565b82525050565b600060208201905061146a6000830184611446565b92915050565b600073ffffffffffffffffffffffffffffffffffffffff82169050919050565b600061149b82611470565b9050919050565b6114ab81611490565b81146114b657600080fd5b50565b6000813590506114c8816114a2565b92915050565b600080604083850312156114e5576114e461131e565b5b60006114f385828601611404565b9250506020611504858286016114b9565b9150509250929050565b6000806000606084860312156115275761152661131e565b5b600061153586828701611404565b935050602061154686828701611404565b925050604061155786828701611404565b9150509250925092565b600063ffffffff82169050919050565b61157a81611561565b811461158557600080fd5b50565b60008135905061159781611571565b92915050565b600080604083850312156115b4576115b361131e565b5b60006115c285828601611588565b92505060206115d3858286016114b9565b9150509250929050565b6000819050919050565b6115f0816115dd565b82525050565b600060208201905061160b60008301846115e7565b92915050565b61161a816115dd565b811461162557600080fd5b50565b60008135905061163781611611565b92915050565b600080600080608085870312156116575761165661131e565b5b600061166587828801611588565b9450506020611676878288016114b9565b935050604061168787828801611628565b925050606061169887828801611404565b91505092959194509250565b600080fd5b600080fd5b600080fd5b60008083601f8401126116c9576116c86116a4565b5b8235905067ffffffffffffffff8111156116e6576116e56116a9565b5b602083019150836001820283011115611702576117016116ae565b5b9250929050565b60008060008060008060008060c0898b0312156117295761172861131e565b5b60006117378b828c01611588565b98505060206117488b828c016114b9565b97505060406117598b828c01611628565b965050606061176a8b828c01611404565b955050608089013567ffffffffffffffff81111561178b5761178a611323565b5b6117978b828c016116b3565b945094505060a089013567ffffffffffffffff8111156117ba576117b9611323565b5b6117c68b828c016116b3565b92509250509295985092959890939650565b600081519050919050565b600082825260208201905092915050565b60005b838110156118125780820151818401526020810190506117f7565b60008484015250505050565b6000601f19601f8301169050919050565b600061183a826117d8565b61184481856117e3565b93506118548185602086016117f4565b61185d8161181e565b840191505092915050565b60006040820190508181036000830152611882818561182f565b90508181036020830152611896818461182f565b90509392505050565b600067ffffffffffffffff82169050919050565b6118bc8161189f565b82525050565b60006080820190506118d76000830187611446565b6118e46020830186611446565b6118f160408301856113b9565b6118fe60608301846118b3565b95945050505050565b60006020820190508181036000830152611921818461182f565b905092915050565b7f6174746573746174696f6e206578697374730000000000000000000000000000600082015250565b600061195f6012836117e3565b915061196a82611929565b602082019050919050565b6000602082019050818103600083015261198e81611952565b9050919050565b61199e81611490565b82525050565b60006060820190506119b96000830186611446565b6119c66020830185611446565b6119d36040830184611995565b949350505050565b7f6174746573746174696f6e20696e76616c696400000000000000000000000000600082015250565b6000611a116013836117e3565b9150611a1c826119db565b602082019050919050565b60006020820190508181036000830152611a4081611a04565b9050919050565b7f757365723d300000000000000000000000000000000000000000000000000000600082015250565b6000611a7d6006836117e3565b9150611a8882611a47565b602082019050919050565b60006020820190508181036000830152611aac81611a70565b9050919050565b6000604082019050611ac860008301856115e7565b611ad56020830184611446565b9392505050565b600082905092915050565b7f4e487b7100000000000000000000000000000000000000000000000000000000600052604160045260246000fd5b7f4e487b7100000000000000000000000000000000000000000000000000000000600052602260045260246000fd5b60006002820490506001821680611b5d57607f821691505b602082108103611b7057611b6f611b16565b5b50919050565b60008190508160005260206000209050919050565b60006020601f8301049050919050565b600082821b905092915050565b600060088302611bd87fffffffffffffffffffffffffffffffffffffffffffffffffffffffffffffffff82611b9b565b611be28683611b9b565b95508019841693508086168417925050509392505050565b6000819050919050565b6000611c1f611c1a611c15846115dd565b611bfa565b6115dd565b9050919050565b6000819050919050565b611c3983611c04565b611c4d611c4582611c26565b848454611ba8565b825550505050565b600090565b611c62611c55565b611c6d818484611c30565b505050565b5b81811015611c9157611c86600082611c5a565b600181019050611c73565b5050565b601f821115611cd657611ca781611b76565b611cb084611b8b565b81016020851015611cbf578190505b611cd3611ccb85611b8b565b830182611c72565b50505b505050565b600082821c905092915050565b6000611cf960001984600802611cdb565b1980831691505092915050565b6000611d128383611ce8565b9150826002028217905092915050565b611d2c8383611adc565b67ffffffffffffffff811115611d4557611d44611ae7565b5b611d4f8254611b45565b611d5a828285611c95565b6000601f831160018114611d895760008415611d77578287013590505b611d818582611d06565b865550611de9565b601f198416611d9786611b76565b60005b82811015611dbf57848901358255600182019150602085019450602081019050611d9a565b86831015611ddc5784890135611dd8601f891682611ce8565b8355505b6001600288020188555050505b50505050505050565b6000604082019050611e076000830185611995565b611e146020830184611446565b939250505056fea2646970667358221220ebe381050940cd90441bcd546f902ca27e17eb744c3f80366ab949793732609464736f6c63430008140033",
  "linkReferences": {},
  "deployedLinkReferences": {}
}