{
  "_format": "hh-sol-artifact-1",
  "contractName": "MRVOracle",
  "sourceName": "contracts/MRVOracle.sol",
  "abi": [
    {
      "inputs": [
        {
          "internalType": "address",
          "name": "admin",
          "type": "address"
        },
        {
          "internalType": "address",
          "name": "operator",
          "type": "address"
        }
      ],
      "stateMutability": "nonpayable",
      "type": "constructor"
    },
    {
      "inputs": [],
      "name": "AccessControlBadConfirmation",
      "type": "error"
    },
    {
      "inputs": [
        {
          "internalType": "address",
          "name": "account",
          "type": "address"
        },
        {
          "internalType": "bytes32",
          "name": "neededRole",
          "type": "bytes32"
        }
      ],
      "name": "AccessControlUnauthorizedAccount",
      "type": "error"
    },
    {
      "anonymous": false,
      "inputs": [
        {
          "indexed": true,
          "internalType": "bytes32",
          "name": "attestationId",
          "type": "bytes32"
        },
        {
          "indexed": false,
          "internalType": "address",
          "name": "consumer",
          "type": "address"
        }
      ],
      "name": "AttestationConsumed",
      "type": "event"
    },
    {
      "anonymous": false,
      "inputs": [
        {
          "indexed": true,
          "internalType": "uint32",
          "name": "period",
          "type": "uint32"
        },
        {
          "indexed": true,
          "internalType": "address",
          "name": "user",
          "type": "address"
        },
        {
          "indexed": false,
          "internalType": "uint256",
          "name": "tonCO2",
          "type": "uint256"
        },
        {
          "indexed": false,
          "internalType": "bytes32",
          "name": "attestationId",
          "type": "bytes32"
        }
      ],
      "name": "EmissionFinalized",
      "type": "event"
    },
    {
      "anonymous": false,
      "inputs": [
        {
          "indexed": true,
          "internalType": "bytes32",
          "name": "attestationId",
          "type": "bytes32"
        },
        {
          "indexed": false,
          "internalType": "uint256",
          "name": "amount",
          "type": "uint256"
        },
        {
          "indexed": false,
          "internalType": "bytes32",
          "name": "docHash",
          "type": "bytes32"
        },
        {
          "indexed": false,
          "internalType": "bytes32",
          "name": "metaHash",
          "type": "bytes32"
        },
        {
          "indexed": false,
          "internalType": "uint64",
          "name": "expiresAt",
          "type": "uint64"
        },
        {
          "indexed": false,
          "internalType": "address",
          "name": "operator",
          "type": "address"
        }
      ],
      "name": "MRVAttested",
      "type": "event"
    },
    {
      "anonymous": false,
      "inputs": [
        {
          "indexed": true,
          "internalType": "bytes32",
          "name": "role",
          "type": "bytes32"
        },
        {
          "indexed": true,
          "internalType": "bytes32",
          "name": "previousAdminRole",
          "type": "bytes32"
        },
        {
          "indexed": true,
          "internalType": "bytes32",
          "name": "newAdminRole",
          "type": "bytes32"
        }
      ],
      "name": "RoleAdminChanged",
      "type": "event"
    },
    {
      "anonymous": false,
      "inputs": [
        {
          "indexed": true,
          "internalType": "bytes32",
          "name": "role",
          "type": "bytes32"
        },
        {
          "indexed": true,
          "internalType": "address",
          "name": "account",
          "type": "address"
        },
        {
          "indexed": true,
          "internalType": "address",
          "name": "sender",
          "type": "address"
        }
      ],
      "name": "RoleGranted",
      "type": "event"
    },
    {
      "anonymous": false,
      "inputs": [
        {
          "indexed": true,
          "internalType": "bytes32",
          "name": "role",
          "type": "bytes32"
        },
        {
          "indexed": true,
          "internalType": "address",
          "name": "account",
          "type": "address"
        },
        {
          "indexed": true,
          "internalType": "address",
          "name": "sender",
          "type": "address"
        }
      ],
      "name": "RoleRevoked",
      "type": "event"
    },
    {
      "inputs": [],
      "name": "CONSUMER_ROLE",
      "outputs": [
        {
          "internalType": "bytes32",
          "name": "",
          "type": "bytes32"
        }
      ],
      "stateMutability": "view",
      "type": "function"
    },
    {
      "inputs": [],
      "name": "DEFAULT_ADMIN_ROLE",
      "outputs": [
        {
          "internalType": "bytes32",
          "name": "",
          "type": "bytes32"
        }
      ],
      "stateMutability": "view",
      "type": "function"
    },
    {
      "inputs": [],
      "name": "OPERATOR_ROLE",
      "outputs": [
        {
          "internalType": "bytes32",
          "name": "",
          "type": "bytes32"
        }
      ],
      "stateMutability": "view",
      "type": "function"
    },
    {
      "inputs": [
        {
          "internalType": "bytes32",
          "name": "attestationId",
          "type": "bytes32"
        },
        {
          "internalType": "uint256",
          "name": "approvedAmount",
          "type": "uint256"
        },
        {
          "internalType": "bytes32",
          "name": "docHash",
          "type": "bytes32"
        },
        {
          "internalType": "bytes32",
          "name": "metaHash",
          "type": "bytes32"
        },
        {
          "internalType": "uint64",
          "name": "expiryDuration",
          "type": "uint64"
        }
      ],
      "name": "attestProject",
      "outputs": [],
      "stateMutability": "nonpayable",
      "type": "function"
    },
    {
      "inputs": [
        {
          "internalType": "bytes32",
          "name": "",
          "type": "bytes32"
        }
      ],
      "name": "attestations",
      "outputs": [
        {
          "internalType": "uint256",
          "name": "amount",
          "type": "uint256"
        },
        {
          "internalType": "bytes32",
          "name": "docHash",
          "type": "bytes32"
        },
        {
          "internalType": "bytes32",
          "name": "metaHash",
          "type": "bytes32"
        },
        {
          "internalType": "bool",
          "name": "valid",
          "type": "bool"
        },
        {
          "internalType": "bool",
          "name": "isUsed",
          "type": "bool"
        },
        {
          "internalType": "uint64",
          "name": "attestedAt",
          "type": "uint64"
        },
        {
          "internalType": "uint64",
          "name": "expiresAt",
          "type": "uint64"
        }
      ],
      "stateMutability": "view",
      "type": "function"
    },
    {
      "inputs": [
        {
          "internalType": "bytes32",
          "name": "attestationId",
          "type": "bytes32"
        }
      ],
      "name": "consumeAttestation",
      "outputs": [],
      "stateMutability": "nonpayable",
      "type": "function"
    },
    {
      "inputs": [
        {
          "internalType": "uint32",
          "name": "",
          "type": "uint32"
        },
        {
          "internalType": "address",
          "name": "",
          "type": "address"
        }
      ],
      "name": "emissionDocumentIPFS",
      "outputs": [
        {
          "internalType": "string",
          "name": "",
          "type": "string"
        }
      ],
      "stateMutability": "view",
      "type": "function"
    },
    {
      "inputs": [
        {
          "internalType": "uint32",
          "name": "period",
          "type": "uint32"
        },
        {
          "internalType": "address",
          "name": "user",
          "type": "address"
        },
        {
          "internalType": "uint256",
          "name": "tonCO2",
          "type": "uint256"
        },
        {
          "internalType": "bytes32",
          "name": "docHash",
          "type": "bytes32"
        },
        {
          "internalType": "bytes32",
          "name": "metaHash",
          "type": "bytes32"
        },
        {
          "internalType": "string",
          "name": "docIPFS",
          "type": "string"
        },
        {
          "internalType": "string",
          "name": "reportIPFS",
          "type": "string"
        }
      ],
      "name": "finalizeEmission",
      "outputs": [],
      "stateMutability": "nonpayable",
      "type": "function"
    },
    {
      "inputs": [
        {
          "internalType": "bytes32",
          "name": "attestationId",
          "type": "bytes32"
        }
      ],
      "name": "getAttestation",
      "outputs": [
        {
          "components": [
            {
              "internalType": "uint256",
              "name": "amount",
              "type": "uint256"
            },
            {
              "internalType": "bytes32",
              "name": "docHash",
              "type": "bytes32"
            },
            {
              "internalType": "bytes32",
              "name": "metaHash",
              "type": "bytes32"
            },
            {
              "internalType": "bool",
              "name": "valid",
              "type": "bool"
            },
            {
              "internalType": "bool",
              "name": "isUsed",
              "type": "bool"
            },
            {
              "internalType": "uint64",
              "name": "attestedAt",
              "type": "uint64"
            },
            {
              "internalType": "uint64",
              "name": "expiresAt",
              "type": "uint64"
            }
          ],
          "internalType": "struct MRVOracle.Attestation",
          "name": "",
          "type": "tuple"
        }
      ],
      "stateMutability": "view",
      "type": "function"
    },
    {
      "inputs": [
        {
          "internalType": "uint32",
          "name": "period",
          "type": "uint32"
        },
        {
          "internalType": "address",
          "name": "user",
          "type": "address"
        }
      ],
      "name": "getEmissionDocuments",
      "outputs": [
        {
          "internalType": "string",
          "name": "",
          "type": "string"
        },
        {
          "internalType": "string",
          "name": "",
          "type": "string"
        }
      ],
      "stateMutability": "view",
      "type": "function"
    },
    {
      "inputs": [
        {
          "internalType": "bytes32",
          "name": "role",
          "type": "bytes32"
        }
      ],
      "name": "getRoleAdmin",
      "outputs": [
        {
          "internalType": "bytes32",
          "name": "",
          "type": "bytes32"
        }
      ],
      "stateMutability": "view",
      "type": "function"
    },
    {
      "inputs": [
        {
          "internalType": "uint32",
          "name": "period",
          "type": "uint32"
        },
        {
          "internalType": "address",
          "name": "user",
          "type": "address"
        }
      ],
      "name": "getVerifiedEmission",
      "outputs": [
        {
          "internalType": "uint256",
          "name": "",
          "type": "uint256"
        }
      ],
      "stateMutability": "view",
      "type": "function"
    },
    {
      "inputs": [
        {
          "internalType": "bytes32",
          "name": "role",
          "type": "bytes32"
        },
        {
          "internalType": "address",
          "name": "account",
          "type": "address"
        }
      ],
      "name": "grantRole",
      "outputs": [],
      "stateMutability": "nonpayable",
      "type": "function"
    },
    {
      "inputs": [
        {
          "internalType": "bytes32",
          "name": "role",
          "type": "bytes32"
        },
        {
          "internalType": "address",
          "name": "account",
          "type": "address"
        }
      ],
      "name": "hasRole",
      "outputs": [
        {
          "internalType": "bool",
          "name": "",
          "type": "bool"
        }
      ],
      "stateMutability": "view",
      "type": "function"
    },
    {
      "inputs": [
        {
          "internalType": "uint32",
          "name": "",
          "type": "uint32"
        },
        {
          "internalType": "address",
          "name": "",
          "type": "address"
        }
      ],
      "name": "isFinalized",
      "outputs": [
        {
          "internalType": "bool",
          "name": "",
          "type": "bool"
        }
      ],
      "stateMutability": "view",
      "type": "function"
    },
    {
      "inputs": [
        {
          "internalType": "bytes32",
          "name": "attestationId",
          "type": "bytes32"
        }
      ],
      "name": "isValidAttestation",
      "outputs": [
        {
          "internalType": "bool",
          "name": "",
          "type": "bool"
        }
      ],
      "stateMutability": "view",
      "type": "function"
    },
    {
      "inputs": [
        {
          "internalType": "bytes32",
          "name": "role",
          "type": "bytes32"
        },
        {
          "internalType": "address",
          "name": "callerConfirmation",
          "type": "address"
        }
      ],
      "name": "renounceRole",
      "outputs": [],
      "stateMutability": "nonpayable",
      "type": "function"
    },
    {
      "inputs": [
        {
          "internalType": "bytes32",
          "name": "role",
          "type": "bytes32"
        },
        {
          "internalType": "address",
          "name": "account",
          "type": "address"
        }
      ],
      "name": "revokeRole",
      "outputs": [],
      "stateMutability": "nonpayable",
      "type": "function"
    },
    {
      "inputs": [
        {
          "internalType": "bytes4",
          "name": "interfaceId",
          "type": "bytes4"
        }
      ],
      "name": "supportsInterface",
      "outputs": [
        {
          "internalType": "bool",
          "name": "",
          "type": "bool"
        }
      ],
      "stateMutability": "view",
      "type": "function"
    },
    {
      "inputs": [
        {
          "internalType": "uint32",
          "name": "",
          "type": "uint32"
        },
        {
          "internalType": "address",
          "name": "",
          "type": "address"
        }
      ],
      "name": "verificationReportIPFS",
      "outputs": [
        {
          "internalType": "string",
          "name": "",
          "type": "string"
        }
      ],
      "stateMutability": "view",
      "type": "function"
    },
    {
      "inputs": [
        {
          "internalType": "uint32",
          "name": "",
          "type": "uint32"
        },
        {
          "internalType": "address",
          "name": "",
          "type": "address"
        }
      ],
      "name": "verifiedEmissions",
      "outputs": [
        {
          "internalType": "uint256",
          "name": "",
          "type": "uint256"
        }
      ],
      "stateMutability": "view",
      "type": "function"
    }
  ],
  "bytecode": "0x60806040523480156200001157600080fd5b506040516200175a3803806200175a833981016040819052620000349162000143565b6200004160008362000077565b506200006e7f97667070c54ef182b0f5858b034beac1b6f3089aa2d3188bb1e8929f4fa9b9298262000077565b5050506200017b565b6000828152602081815260408083206001600160a01b038516845290915281205460ff166200011c576000838152602081815260408083206001600160a01b03861684529091529020805460ff19166001179055620000d33390565b6001600160a01b0316826001600160a01b0316847f2f8788117e7eff1d82e926ec794901d17c78024a50270940304540a733656f0d60405160405180910390a450600162000120565b5060005b92915050565b80516001600160a01b03811681146200013e57600080fd5b919050565b600080604083850312156200015757600080fd5b620001628362000126565b9150620001726020840162000126565b90509250929050565b6115cf806200018b6000396000f3fe608060405234801561001057600080fd5b50600436106101375760003560e01c806387a855db116100b8578063c0718dda1161007c578063c0718dda146104a9578063d4c1a8d5146104c9578063d547741f146104dc578063d90ff703146104ef578063dd4d7a9c14610502578063f5b541a61461051557600080fd5b806387a855db146102a157806391d14854146102c2578063940992a3146102d5578063a217fddf14610376578063a3112a641461037e57600080fd5b806336568abe116100ff57806336568abe146101d057806345e1b42c146101e35780634bc02da614610221578063507640ba14610248578063537d218c1461027357600080fd5b806301ffc9a71461013c578063072d4c6f14610164578063248a9ca3146101795780632f2ff15d146101aa57806331e2f24b146101bd575b600080fd5b61014f61014a366004611166565b61053c565b60405190151581526020015b60405180910390f35b610177610172366004611208565b610573565b005b61019c6101873660046112b7565b60009081526020819052604090206001015490565b60405190815260200161015b565b6101776101b83660046112d0565b610888565b6101776101cb3660046112fc565b6108b3565b6101776101de3660046112d0565b610af6565b61019c6101f1366004611355565b63ffffffff821660009081526003602090815260408083206001600160a01b038516845290915290205492915050565b61019c7f9d56108290ea0bc9c5c59c3ad357dca9d1b29ed7f3ae1443bef2fa2159bdf5e881565b61019c610256366004611355565b600360209081526000928352604080842090915290825290205481565b61014f610281366004611355565b600260209081526000928352604080842090915290825290205460ff1681565b6102b46102af366004611355565b610b2e565b60405161015b9291906113c5565b61014f6102d03660046112d0565b610c97565b6103336102e33660046112b7565b6001602081905260009182526040909120805491810154600282015460039092015490919060ff808216916101008104909116906001600160401b03620100008204811691600160501b90041687565b604080519788526020880196909652948601939093529015156060850152151560808401526001600160401b0390811660a08401521660c082015260e00161015b565b61019c600081565b61044061038c3660046112b7565b6040805160e081018252600080825260208201819052918101829052606081018290526080810182905260a0810182905260c081019190915250600090815260016020818152604092839020835160e08101855281548152928101549183019190915260028101549282019290925260039091015460ff80821615156060840152610100820416151560808301526001600160401b03620100008204811660a0840152600160501b9091041660c082015290565b60405161015b9190600060e08201905082518252602083015160208301526040830151604083015260608301511515606083015260808301511515608083015260a08301516001600160401b0380821660a08501528060c08601511660c0850152505092915050565b6104bc6104b7366004611355565b610cc0565b60405161015b91906113f3565b6104bc6104d7366004611355565b610d65565b6101776104ea3660046112d0565b610d89565b61014f6104fd3660046112b7565b610dae565b6101776105103660046112b7565b610e7e565b61019c7f97667070c54ef182b0f5858b034beac1b6f3089aa2d3188bb1e8929f4fa9b92981565b60006001600160e01b03198216637965db0b60e01b148061056d57506301ffc9a760e01b6001600160e01b03198316145b92915050565b7f97667070c54ef182b0f5858b034beac1b6f3089aa2d3188bb1e8929f4fa9b92961059d8161101f565b63ffffffff8a1660009081526002602090815260408083206001600160a01b038d16845290915290205460ff161561061c5760405162461bcd60e51b815260206004820152601960248201527f4f7261636c653a20416c72656164792066696e616c697a65640000000000000060448201526064015b60405180910390fd5b6001600160a01b0389166106695760405162461bcd60e51b815260206004820152601460248201527327b930b1b6329d1024b73b30b634b2103ab9b2b960611b6044820152606401610613565b6040805164707462616560d81b60208083019190915260e08d901b6001600160e01b031916602583015260608c901b6bffffffffffffffffffffffff191660298301528251601d818403018152603d830180855281519183019190912061011d840185528c8252605d84018c8152607d85018c81526001609d870181815260bd88018281526001600160401b0342811660dd8b01908152600060fd909b018b8152888c52858b528c8c2099518a55965194890194909455935160028801559051600396870180549251935195518516600160501b0267ffffffffffffffff60501b199690951662010000029590951671ffffffffffffffffffffffffffffffff0000199315156101000261ff00199215159290921661ffff199093169290921717919091161717905563ffffffff8f168085529183528484206001600160a01b038f168086529084528585208e90559184526004835284842091845291529190206107d58688836114a4565b5063ffffffff8b1660009081526005602090815260408083206001600160a01b038e168452909152902061080a8486836114a4565b5063ffffffff8b1660008181526002602090815260408083206001600160a01b038f1680855290835292819020805460ff1916600117905580518d81529182018590529192917fa8bbaa5a1ef88205e126de5e2413c3cbaa8e1cf752c0e4be94f55bee82f78ff7910160405180910390a35050505050505050505050565b6000828152602081905260409020600101546108a38161101f565b6108ad838361102c565b50505050565b7f97667070c54ef182b0f5858b034beac1b6f3089aa2d3188bb1e8929f4fa9b9296108dd8161101f565b60008681526001602052604090206003015460ff161561093f5760405162461bcd60e51b815260206004820152601a60248201527f4f7261636c653a204174746573746174696f6e206578697374730000000000006044820152606401610613565b600080836001600160401b031611610958576000610962565b6109628342611564565b90506040518060e00160405280878152602001868152602001858152602001600115158152602001600015158152602001426001600160401b03168152602001826001600160401b03168152506001600089815260200190815260200160002060008201518160000155602082015181600101556040820151816002015560608201518160030160006101000a81548160ff02191690831515021790555060808201518160030160016101000a81548160ff02191690831515021790555060a08201518160030160026101000a8154816001600160401b0302191690836001600160401b0316021790555060c082015181600301600a6101000a8154816001600160401b0302191690836001600160401b03160217905550905050867f92c73dd8647b8859ba0e3006dadfbc52c145c283884b541b6a1b7f46241a91948787878533604051610ae5959493929190948552602085019390935260408401919091526001600160401b031660608301526001600160a01b0316608082015260a00190565b60405180910390a250505050505050565b6001600160a01b0381163314610b1f5760405163334bd91960e11b815260040160405180910390fd5b610b2982826110be565b505050565b63ffffffff821660008181526004602090815260408083206001600160a01b0386168085529083528184209484526005835281842090845290915290208154606092839290918290610b7f9061141c565b80601f0160208091040260200160405190810160405280929190818152602001828054610bab9061141c565b8015610bf85780601f10610bcd57610100808354040283529160200191610bf8565b820191906000526020600020905b815481529060010190602001808311610bdb57829003601f168201915b50505050509150808054610c0b9061141c565b80601f0160208091040260200160405190810160405280929190818152602001828054610c379061141c565b8015610c845780601f10610c5957610100808354040283529160200191610c84565b820191906000526020600020905b815481529060010190602001808311610c6757829003601f168201915b50505050509050915091505b9250929050565b6000918252602082815260408084206001600160a01b0393909316845291905290205460ff1690565b600560209081526000928352604080842090915290825290208054610ce49061141c565b80601f0160208091040260200160405190810160405280929190818152602001828054610d109061141c565b8015610d5d5780601f10610d3257610100808354040283529160200191610d5d565b820191906000526020600020905b815481529060010190602001808311610d4057829003601f168201915b505050505081565b600460209081526000928352604080842090915290825290208054610ce49061141c565b600082815260208190526040902060010154610da48161101f565b6108ad83836110be565b6000818152600160208181526040808420815160e0810183528154815293810154928401929092526002820154908301526003015460ff80821615801560608501526101008304909116151560808401526001600160401b03620100008304811660a0850152600160501b90920490911660c083015280610e30575080608001515b15610e3e5750600092915050565b60008160c001516001600160401b0316118015610e6757508060c001516001600160401b031642115b15610e755750600092915050565b50600192915050565b7f9d56108290ea0bc9c5c59c3ad357dca9d1b29ed7f3ae1443bef2fa2159bdf5e8610ea88161101f565b6000828152600160205260409020600381015460ff16610f0a5760405162461bcd60e51b815260206004820152601b60248201527f4f7261636c653a20496e76616c6964206174746573746174696f6e00000000006044820152606401610613565b6003810154610100900460ff1615610f645760405162461bcd60e51b815260206004820152601860248201527f4f7261636c653a20416c726561647920636f6e73756d656400000000000000006044820152606401610613565b6003810154600160501b90046001600160401b031615610fd4576003810154600160501b90046001600160401b0316421115610fd45760405162461bcd60e51b815260206004820152600f60248201526e13dc9858db194e88115e1c1a5c9959608a1b6044820152606401610613565b60038101805461ff00191661010017905560405133815283907fe71ee6a9ebed140d9b420d8d334745c1d877a99f472ffa59e3af086742efd65b9060200160405180910390a2505050565b6110298133611129565b50565b60006110388383610c97565b6110b6576000838152602081815260408083206001600160a01b03861684529091529020805460ff1916600117905561106e3390565b6001600160a01b0316826001600160a01b0316847f2f8788117e7eff1d82e926ec794901d17c78024a50270940304540a733656f0d60405160405180910390a450600161056d565b50600061056d565b60006110ca8383610c97565b156110b6576000838152602081815260408083206001600160a01b0386168085529252808320805460ff1916905551339286917ff6391f5c32d9c69d2a47ea670b442974b53935d1edc7fd64eb21e047a839171b9190a450600161056d565b6111338282610c97565b6111625760405163e2517d3f60e01b81526001600160a01b038216600482015260248101839052604401610613565b5050565b60006020828403121561117857600080fd5b81356001600160e01b03198116811461119057600080fd5b9392505050565b803563ffffffff811681146111ab57600080fd5b919050565b80356001600160a01b03811681146111ab57600080fd5b60008083601f8401126111d957600080fd5b5081356001600160401b038111156111f057600080fd5b602083019150836020828501011115610c9057600080fd5b600080600080600080600080600060e08a8c03121561122657600080fd5b61122f8a611197565b985061123d60208b016111b0565b975060408a0135965060608a0135955060808a0135945060a08a01356001600160401b038082111561126e57600080fd5b61127a8d838e016111c7565b909650945060c08c013591508082111561129357600080fd5b506112a08c828d016111c7565b915080935050809150509295985092959850929598565b6000602082840312156112c957600080fd5b5035919050565b600080604083850312156112e357600080fd5b823591506112f3602084016111b0565b90509250929050565b600080600080600060a0868803121561131457600080fd5b8535945060208601359350604086013592506060860135915060808601356001600160401b038116811461134757600080fd5b809150509295509295909350565b6000806040838503121561136857600080fd5b61137183611197565b91506112f3602084016111b0565b6000815180845260005b818110156113a557602081850181015186830182015201611389565b506000602082860101526020601f19601f83011685010191505092915050565b6040815260006113d8604083018561137f565b82810360208401526113ea818561137f565b95945050505050565b602081526000611190602083018461137f565b634e487b7160e01b600052604160045260246000fd5b600181811c9082168061143057607f821691505b60208210810361145057634e487b7160e01b600052602260045260246000fd5b50919050565b601f821115610b2957600081815260208120601f850160051c8101602086101561147d5750805b601f850160051c820191505b8181101561149c57828155600101611489565b505050505050565b6001600160401b038311156114bb576114bb611406565b6114cf836114c9835461141c565b83611456565b6000601f84116001811461150357600085156114eb5750838201355b600019600387901b1c1916600186901b17835561155d565b600083815260209020601f19861690835b828110156115345786850135825560209485019460019092019101611514565b50868210156115515760001960f88860031b161c19848701351681555b505060018560011b0183555b5050505050565b6001600160401b0381811683821601908082111561159257634e487b7160e01b600052601160045260246000fd5b509291505056fea2646970667358221220dfec5ce6b159eb1ee9a644f0a4537770aa7dcaeaafcd280add5c145704e4f99564736f6c63430008140033",
  "linkReferences": {},
  "deployedLinkReferences": {}
}