{
  "_format": "hh-sol-artifact-1",
  "contractName": "PTBAEFactory",
  "sourceName": "contracts/PTBAEFactory.sol",
  "abi": [
    {
      "inputs": [
        {
          "internalType": "address",
          "name": "admin",
          "type": "address"
        },
        {
          "internalType": "address",
          "name": "regulator",
          "type": "address"
        },
        {
          "internalType": "uint32",
          "name": "initialPeriod",
          "type": "uint32"
        },
        {
          "internalType": "address",
          "name": "_forwarder",
          "type": "address"
        },
        {
          "internalType": "address",
          "name": "_oracle",
          "type": "address"
        },
        {
          "internalType": "address",
          "name": "_speToken",
          "type": "address"
        }
      ],
      "stateMutability": "nonpayable",
      "type": "constructor"
    },
    {
      "inputs": [],
      "name": "AccessControlBadConfirmation",
      "type": "error"
    },
    {
      "inputs": [
        {
          "internalType": "address",
          "name": "account",
          "type": "address"
        },
        {
          "internalType": "bytes32",
          "name": "neededRole",
          "type": "bytes32"
        }
      ],
      "name": "AccessControlUnauthorizedAccount",
      "type": "error"
    },
    {
      "inputs": [],
      "name": "InvalidOracleAddress",
      "type": "error"
    },
    {
      "inputs": [],
      "name": "InvalidSPEAddress",
      "type": "error"
    },
    {
      "inputs": [
        {
          "internalType": "uint32",
          "name": "period",
          "type": "uint32"
        }
      ],
      "name": "PeriodAlreadyExists",
      "type": "error"
    },
    {
      "anonymous": false,
      "inputs": [
        {
          "indexed": true,
          "internalType": "uint32",
          "name": "period",
          "type": "uint32"
        },
        {
          "indexed": false,
          "internalType": "address",
          "name": "token",
          "type": "address"
        }
      ],
      "name": "PeriodOpened",
      "type": "event"
    },
    {
      "anonymous": false,
      "inputs": [
        {
          "indexed": true,
          "internalType": "bytes32",
          "name": "role",
          "type": "bytes32"
        },
        {
          "indexed": true,
          "internalType": "bytes32",
          "name": "previousAdminRole",
          "type": "bytes32"
        },
        {
          "indexed": true,
          "internalType": "bytes32",
          "name": "newAdminRole",
          "type": "bytes32"
        }
      ],
      "name": "RoleAdminChanged",
      "type": "event"
    },
    {
      "anonymous": false,
      "inputs": [
        {
          "indexed": true,
          "internalType": "bytes32",
          "name": "role",
          "type": "bytes32"
        },
        {
          "indexed": true,
          "internalType": "address",
          "name": "account",
          "type": "address"
        },
        {
          "indexed": true,
          "internalType": "address",
          "name": "sender",
          "type": "address"
        }
      ],
      "name": "RoleGranted",
      "type": "event"
    },
    {
      "anonymous": false,
      "inputs": [
        {
          "indexed": true,
          "internalType": "bytes32",
          "name": "role",
          "type": "bytes32"
        },
        {
          "indexed": true,
          "internalType": "address",
          "name": "account",
          "type": "address"
        },
        {
          "indexed": true,
          "internalType": "address",
          "name": "sender",
          "type": "address"
        }
      ],
      "name": "RoleRevoked",
      "type": "event"
    },
    {
      "inputs": [],
      "name": "DEFAULT_ADMIN_ROLE",
      "outputs": [
        {
          "internalType": "bytes32",
          "name": "",
          "type": "bytes32"
        }
      ],
      "stateMutability": "view",
      "type": "function"
    },
    {
      "inputs": [],
      "name": "REGULATOR_ROLE",
      "outputs": [
        {
          "internalType": "bytes32",
          "name": "",
          "type": "bytes32"
        }
      ],
      "stateMutability": "view",
      "type": "function"
    },
    {
      "inputs": [],
      "name": "currentPeriod",
      "outputs": [
        {
          "internalType": "uint32",
          "name": "",
          "type": "uint32"
        }
      ],
      "stateMutability": "view",
      "type": "function"
    },
    {
      "inputs": [
        {
          "internalType": "bytes32",
          "name": "role",
          "type": "bytes32"
        }
      ],
      "name": "getRoleAdmin",
      "outputs": [
        {
          "internalType": "bytes32",
          "name": "",
          "type": "bytes32"
        }
      ],
      "stateMutability": "view",
      "type": "function"
    },
    {
      "inputs": [
        {
          "internalType": "bytes32",
          "name": "role",
          "type": "bytes32"
        },
        {
          "internalType": "address",
          "name": "account",
          "type": "address"
        }
      ],
      "name": "grantRole",
      "outputs": [],
      "stateMutability": "nonpayable",
      "type": "function"
    },
    {
      "inputs": [
        {
          "internalType": "bytes32",
          "name": "role",
          "type": "bytes32"
        },
        {
          "internalType": "address",
          "name": "account",
          "type": "address"
        }
      ],
      "name": "hasRole",
      "outputs": [
        {
          "internalType": "bool",
          "name": "",
          "type": "bool"
        }
      ],
      "stateMutability": "view",
      "type": "function"
    },
    {
      "inputs": [
        {
          "internalType": "address",
          "name": "forwarder",
          "type": "address"
        }
      ],
      "name": "isTrustedForwarder",
      "outputs": [
        {
          "internalType": "bool",
          "name": "",
          "type": "bool"
        }
      ],
      "stateMutability": "view",
      "type": "function"
    },
    {
      "inputs": [
        {
          "internalType": "uint32",
          "name": "newPeriod",
          "type": "uint32"
        }
      ],
      "name": "openPeriod",
      "outputs": [],
      "stateMutability": "nonpayable",
      "type": "function"
    },
    {
      "inputs": [],
      "name": "oracle",
      "outputs": [
        {
          "internalType": "address",
          "name": "",
          "type": "address"
        }
      ],
      "stateMutability": "view",
      "type": "function"
    },
    {
      "inputs": [
        {
          "internalType": "bytes32",
          "name": "role",
          "type": "bytes32"
        },
        {
          "internalType": "address",
          "name": "callerConfirmation",
          "type": "address"
        }
      ],
      "name": "renounceRole",
      "outputs": [],
      "stateMutability": "nonpayable",
      "type": "function"
    },
    {
      "inputs": [
        {
          "internalType": "bytes32",
          "name": "role",
          "type": "bytes32"
        },
        {
          "internalType": "address",
          "name": "account",
          "type": "address"
        }
      ],
      "name": "revokeRole",
      "outputs": [],
      "stateMutability": "nonpayable",
      "type": "function"
    },
    {
      "inputs": [],
      "name": "speTokenAddress",
      "outputs": [
        {
          "internalType": "address",
          "name": "",
          "type": "address"
        }
      ],
      "stateMutability": "view",
      "type": "function"
    },
    {
      "inputs": [
        {
          "internalType": "bytes4",
          "name": "interfaceId",
          "type": "bytes4"
        }
      ],
      "name": "supportsInterface",
      "outputs": [
        {
          "internalType": "bool",
          "name": "",
          "type": "bool"
        }
      ],
      "stateMutability": "view",
      "type": "function"
    },
    {
      "inputs": [
        {
          "internalType": "uint32",
          "name": "",
          "type": "uint32"
        }
      ],
      "name": "tokenByPeriod",
      "outputs": [
        {
          "internalType": "address",
          "name": "",
          "type": "address"
        }
      ],
      "stateMutability": "view",
      "type": "function"
    },
    {
      "inputs": [],
      "name": "trustedForwarder",
      "outputs": [
        {
          "internalType": "address",
          "name": "",
          "type": "address"
        }
      ],
      "stateMutability": "view",
      "type": "function"
    }
  ],
  "bytecode": "0x60e06040523480156200001157600080fd5b506040516200a6223803806200a622833981810160405281019062000037919062000669565b828073ffffffffffffffffffffffffffffffffffffffff1660808173ffffffffffffffffffffffffffffffffffffffff168152505050600073ffffffffffffffffffffffffffffffffffffffff168273ffffffffffffffffffffffffffffffffffffffff1603620000d4576040517f5521068100000000000000000000000000000000000000000000000000000000815260040160405180910390fd5b600073ffffffffffffffffffffffffffffffffffffffff168173ffffffffffffffffffffffffffffffffffffffff16036200013b576040517f7a2e5b1200000000000000000000000000000000000000000000000000000000815260040160405180910390fd5b8173ffffffffffffffffffffffffffffffffffffffff1660a08173ffffffffffffffffffffffffffffffffffffffff16815250508073ffffffffffffffffffffffffffffffffffffffff1660c08173ffffffffffffffffffffffffffffffffffffffff1681525050620001b86000801b876200020a60201b60201c565b50620001eb7f20b5f7ac978e5d6199de06401411960dfa81d2f762655f6206bdc61d46fc19e6866200020a60201b60201c565b50620001fe84866200030d60201b60201c565b505050505050620008a6565b60006200021e83836200042b60201b60201c565b6200030257600160008085815260200190815260200160002060000160008473ffffffffffffffffffffffffffffffffffffffff1673ffffffffffffffffffffffffffffffffffffffff16815260200190815260200160002060006101000a81548160ff0219169083151502179055506200029e6200049560201b60201c565b73ffffffffffffffffffffffffffffffffffffffff168273ffffffffffffffffffffffffffffffffffffffff16847f2f8788117e7eff1d82e926ec794901d17c78024a50270940304540a733656f0d60405160405180910390a46001905062000307565b600090505b92915050565b81600160006101000a81548163ffffffff021916908363ffffffff160217905550600081828462000343620004ac60201b60201c565b60a05160c0516040516200035790620005b0565b620003689695949392919062000727565b604051809103906000f08015801562000385573d6000803e3d6000fd5b50905080600260008563ffffffff1663ffffffff16815260200190815260200160002060006101000a81548173ffffffffffffffffffffffffffffffffffffffff021916908373ffffffffffffffffffffffffffffffffffffffff1602179055508263ffffffff167f929be4f7daefbf16218cee1dcd5724b20d4b86f59e79b37318ce08f783935bd7826040516200041e919062000794565b60405180910390a2505050565b600080600084815260200190815260200160002060000160008373ffffffffffffffffffffffffffffffffffffffff1673ffffffffffffffffffffffffffffffffffffffff16815260200190815260200160002060009054906101000a900460ff16905092915050565b6000620004a7620004b660201b60201c565b905090565b6000608051905090565b600080600036905090506000620004d26200054160201b60201c565b9050808210158015620004f25750620004f1336200055860201b60201c565b5b1562000529576000368284039080926200050f93929190620007bb565b906200051c919062000840565b60601c925050506200053e565b620005396200059f60201b60201c565b925050505b90565b600062000553620005a760201b60201c565b905090565b60006200056a620004ac60201b60201c565b73ffffffffffffffffffffffffffffffffffffffff168273ffffffffffffffffffffffffffffffffffffffff16149050919050565b600033905090565b60006014905090565b614618806200600a83390190565b600080fd5b600073ffffffffffffffffffffffffffffffffffffffff82169050919050565b6000620005f082620005c3565b9050919050565b6200060281620005e3565b81146200060e57600080fd5b50565b6000815190506200062281620005f7565b92915050565b600063ffffffff82169050919050565b620006438162000628565b81146200064f57600080fd5b50565b600081519050620006638162000638565b92915050565b60008060008060008060c08789031215620006895762000688620005be565b5b60006200069989828a0162000611565b9650506020620006ac89828a0162000611565b9550506040620006bf89828a0162000652565b9450506060620006d289828a0162000611565b9350506080620006e589828a0162000611565b92505060a0620006f889828a0162000611565b9150509295509295509295565b6200071081620005e3565b82525050565b620007218162000628565b82525050565b600060c0820190506200073e600083018962000705565b6200074d602083018862000705565b6200075c604083018762000716565b6200076b606083018662000705565b6200077a608083018562000705565b6200078960a083018462000705565b979650505050505050565b6000602082019050620007ab600083018462000705565b92915050565b600080fd5b600080fd5b60008085851115620007d257620007d1620007b1565b5b83861115620007e657620007e5620007b6565b5b6001850283019150848603905094509492505050565b600082905092915050565b60007fffffffffffffffffffffffffffffffffffffffff00000000000000000000000082169050919050565b600082821b905092915050565b60006200084e8383620007fc565b826200085b813562000807565b925060148210156200089e57620008997fffffffffffffffffffffffffffffffffffffffff0000000000000000000000008360140360080262000833565b831692505b505092915050565b60805160a05160c051615726620008e4600039600081816107140152610a3301526000818161067f0152610a120152600061065901526157266000f3fe60806040523480156200001157600080fd5b50600436106200010c5760003560e01c806344987a4611620000a557806391d14854116200006f57806391d1485414620002d1578063a217fddf1462000307578063c89fb75a1462000329578063d547741f146200034b576200010c565b806344987a461462000237578063572b6c0514620002575780637da0a877146200028d5780637dc0d1d014620002af576200010c565b806315f2b78e11620000e757806315f2b78e146200018b578063248a9ca314620001c15780632f2ff15d14620001f757806336568abe1462000217576200010c565b806301ffc9a71462000111578063060406181462000147578063144bf5891462000169575b600080fd5b6200012f600480360381019062000129919062000c95565b6200036b565b6040516200013e919062000ce4565b60405180910390f35b62000151620003e8565b60405162000160919062000d22565b60405180910390f35b62000173620003fe565b60405162000182919062000d5a565b60405180910390f35b620001a96004803603810190620001a3919062000da8565b62000422565b604051620001b8919062000e1f565b60405180910390f35b620001df6004803603810190620001d9919062000e6d565b62000455565b604051620001ee919062000d5a565b60405180910390f35b6200021560048036038101906200020f919062000ed0565b62000474565b005b6200023560048036038101906200022f919062000ed0565b6200049c565b005b6200025560048036038101906200024f919062000da8565b6200051c565b005b6200027560048036038101906200026f919062000f17565b62000614565b60405162000284919062000ce4565b60405180910390f35b6200029762000655565b604051620002a6919062000e1f565b60405180910390f35b620002b96200067d565b604051620002c8919062000e1f565b60405180910390f35b620002ef6004803603810190620002e9919062000ed0565b620006a1565b604051620002fe919062000ce4565b60405180910390f35b620003116200070b565b60405162000320919062000d5a565b60405180910390f35b6200033362000712565b60405162000342919062000e1f565b60405180910390f35b62000369600480360381019062000363919062000ed0565b62000736565b005b60007f7965db0b000000000000000000000000000000000000000000000000000000007bffffffffffffffffffffffffffffffffffffffffffffffffffffffff1916827bffffffffffffffffffffffffffffffffffffffffffffffffffffffff19161480620003e15750620003e0826200075e565b5b9050919050565b600160009054906101000a900463ffffffff1681565b7f20b5f7ac978e5d6199de06401411960dfa81d2f762655f6206bdc61d46fc19e681565b60026020528060005260406000206000915054906101000a900473ffffffffffffffffffffffffffffffffffffffff1681565b6000806000838152602001908152602001600020600101549050919050565b6200047f8262000455565b6200048a81620007c8565b620004968383620007e0565b50505050565b620004a6620008d7565b73ffffffffffffffffffffffffffffffffffffffff168173ffffffffffffffffffffffffffffffffffffffff16146200050b576040517f6697b23200000000000000000000000000000000000000000000000000000000815260040160405180910390fd5b620005178282620008e8565b505050565b7f20b5f7ac978e5d6199de06401411960dfa81d2f762655f6206bdc61d46fc19e66200054881620007c8565b600073ffffffffffffffffffffffffffffffffffffffff16600260008463ffffffff1663ffffffff16815260200190815260200160002060009054906101000a900473ffffffffffffffffffffffffffffffffffffffff1673ffffffffffffffffffffffffffffffffffffffff1614620005fb57816040517f71439487000000000000000000000000000000000000000000000000000000008152600401620005f2919062000d22565b60405180910390fd5b62000610826200060a620008d7565b620009e0565b5050565b60006200062062000655565b73ffffffffffffffffffffffffffffffffffffffff168273ffffffffffffffffffffffffffffffffffffffff16149050919050565b60007f0000000000000000000000000000000000000000000000000000000000000000905090565b7f000000000000000000000000000000000000000000000000000000000000000081565b600080600084815260200190815260200160002060000160008373ffffffffffffffffffffffffffffffffffffffff1673ffffffffffffffffffffffffffffffffffffffff16815260200190815260200160002060009054906101000a900460ff16905092915050565b6000801b81565b7f000000000000000000000000000000000000000000000000000000000000000081565b620007418262000455565b6200074c81620007c8565b620007588383620008e8565b50505050565b60007f01ffc9a7000000000000000000000000000000000000000000000000000000007bffffffffffffffffffffffffffffffffffffffffffffffffffffffff1916827bffffffffffffffffffffffffffffffffffffffffffffffffffffffff1916149050919050565b620007dd81620007d7620008d7565b62000b34565b50565b6000620007ee8383620006a1565b620008cc57600160008085815260200190815260200160002060000160008473ffffffffffffffffffffffffffffffffffffffff1673ffffffffffffffffffffffffffffffffffffffff16815260200190815260200160002060006101000a81548160ff02191690831515021790555062000868620008d7565b73ffffffffffffffffffffffffffffffffffffffff168273ffffffffffffffffffffffffffffffffffffffff16847f2f8788117e7eff1d82e926ec794901d17c78024a50270940304540a733656f0d60405160405180910390a460019050620008d1565b600090505b92915050565b6000620008e362000b8a565b905090565b6000620008f68383620006a1565b15620009d557600080600085815260200190815260200160002060000160008473ffffffffffffffffffffffffffffffffffffffff1673ffffffffffffffffffffffffffffffffffffffff16815260200190815260200160002060006101000a81548160ff02191690831515021790555062000971620008d7565b73ffffffffffffffffffffffffffffffffffffffff168273ffffffffffffffffffffffffffffffffffffffff16847ff6391f5c32d9c69d2a47ea670b442974b53935d1edc7fd64eb21e047a839171b60405160405180910390a460019050620009da565b600090505b92915050565b81600160006101000a81548163ffffffff021916908363ffffffff160217905550600081828462000a1062000655565b7f00000000000000000000000000000000000000000000000000000000000000007f000000000000000000000000000000000000000000000000000000000000000060405162000a609062000c25565b62000a719695949392919062000f49565b604051809103906000f08015801562000a8e573d6000803e3d6000fd5b50905080600260008563ffffffff1663ffffffff16815260200190815260200160002060006101000a81548173ffffffffffffffffffffffffffffffffffffffff021916908373ffffffffffffffffffffffffffffffffffffffff1602179055508263ffffffff167f929be4f7daefbf16218cee1dcd5724b20d4b86f59e79b37318ce08f783935bd78260405162000b27919062000e1f565b60405180910390a2505050565b62000b408282620006a1565b62000b865780826040517fe2517d3f00000000000000000000000000000000000000000000000000000000815260040162000b7d92919062000fb6565b60405180910390fd5b5050565b60008060003690509050600062000ba062000c03565b905080821015801562000bba575062000bb93362000614565b5b1562000bf15760003682840390809262000bd79392919062000fed565b9062000be4919062001072565b60601c9250505062000c00565b62000bfb62000c14565b925050505b90565b600062000c0f62000c1c565b905090565b600033905090565b60006014905090565b61461880620010d983390190565b600080fd5b60007fffffffff0000000000000000000000000000000000000000000000000000000082169050919050565b62000c6f8162000c38565b811462000c7b57600080fd5b50565b60008135905062000c8f8162000c64565b92915050565b60006020828403121562000cae5762000cad62000c33565b5b600062000cbe8482850162000c7e565b91505092915050565b60008115159050919050565b62000cde8162000cc7565b82525050565b600060208201905062000cfb600083018462000cd3565b92915050565b600063ffffffff82169050919050565b62000d1c8162000d01565b82525050565b600060208201905062000d39600083018462000d11565b92915050565b6000819050919050565b62000d548162000d3f565b82525050565b600060208201905062000d71600083018462000d49565b92915050565b62000d828162000d01565b811462000d8e57600080fd5b50565b60008135905062000da28162000d77565b92915050565b60006020828403121562000dc15762000dc062000c33565b5b600062000dd18482850162000d91565b91505092915050565b600073ffffffffffffffffffffffffffffffffffffffff82169050919050565b600062000e078262000dda565b9050919050565b62000e198162000dfa565b82525050565b600060208201905062000e36600083018462000e0e565b92915050565b62000e478162000d3f565b811462000e5357600080fd5b50565b60008135905062000e678162000e3c565b92915050565b60006020828403121562000e865762000e8562000c33565b5b600062000e968482850162000e56565b91505092915050565b62000eaa8162000dfa565b811462000eb657600080fd5b50565b60008135905062000eca8162000e9f565b92915050565b6000806040838503121562000eea5762000ee962000c33565b5b600062000efa8582860162000e56565b925050602062000f0d8582860162000eb9565b9150509250929050565b60006020828403121562000f305762000f2f62000c33565b5b600062000f408482850162000eb9565b91505092915050565b600060c08201905062000f60600083018962000e0e565b62000f6f602083018862000e0e565b62000f7e604083018762000d11565b62000f8d606083018662000e0e565b62000f9c608083018562000e0e565b62000fab60a083018462000e0e565b979650505050505050565b600060408201905062000fcd600083018562000e0e565b62000fdc602083018462000d49565b9392505050565b600080fd5b600080fd5b6000808585111562001004576200100362000fe3565b5b8386111562001018576200101762000fe8565b5b6001850283019150848603905094509492505050565b600082905092915050565b60007fffffffffffffffffffffffffffffffffffffffff00000000000000000000000082169050919050565b600082821b905092915050565b60006200108083836200102e565b826200108d813562001039565b92506014821015620010d057620010cb7fffffffffffffffffffffffffffffffffffffffff0000000000000000000000008360140360080262001065565b831692505b50509291505056fe6101006040526000600660006101000a81548160ff021916908360028111156200002e576200002d62000489565b5b02179055503480156200004057600080fd5b506040516200461838038062004618833981810160405281019062000066919062000563565b826040518060400160405280601281526020017f50544241452d505520416c6c6f77616e636500000000000000000000000000008152506040518060400160405280600581526020017f50544241450000000000000000000000000000000000000000000000000000008152508160039081620000e4919062000879565b508060049081620000f6919062000879565b5050508073ffffffffffffffffffffffffffffffffffffffff1660808173ffffffffffffffffffffffffffffffffffffffff1681525050508363ffffffff1660a08163ffffffff16815250508173ffffffffffffffffffffffffffffffffffffffff1660c08173ffffffffffffffffffffffffffffffffffffffff16815250508073ffffffffffffffffffffffffffffffffffffffff1660e08173ffffffffffffffffffffffffffffffffffffffff1681525050620001bf6000801b87620001ff60201b60201c565b50620001f27f20b5f7ac978e5d6199de06401411960dfa81d2f762655f6206bdc61d46fc19e686620001ff60201b60201c565b5050505050505062000a48565b60006200021383836200030360201b60201c565b620002f85760016005600085815260200190815260200160002060000160008473ffffffffffffffffffffffffffffffffffffffff1673ffffffffffffffffffffffffffffffffffffffff16815260200190815260200160002060006101000a81548160ff021916908315150217905550620002946200036e60201b60201c565b73ffffffffffffffffffffffffffffffffffffffff168273ffffffffffffffffffffffffffffffffffffffff16847f2f8788117e7eff1d82e926ec794901d17c78024a50270940304540a733656f0d60405160405180910390a460019050620002fd565b600090505b92915050565b60006005600084815260200190815260200160002060000160008373ffffffffffffffffffffffffffffffffffffffff1673ffffffffffffffffffffffffffffffffffffffff16815260200190815260200160002060009054906101000a900460ff16905092915050565b6000620003806200038560201b60201c565b905090565b600080600036905090506000620003a16200041060201b60201c565b9050808210158015620003c15750620003c0336200042760201b60201c565b5b15620003f857600036828403908092620003de939291906200096a565b90620003eb9190620009e2565b60601c925050506200040d565b620004086200046e60201b60201c565b925050505b90565b6000620004226200047660201b60201c565b905090565b6000620004396200047f60201b60201c565b73ffffffffffffffffffffffffffffffffffffffff168273ffffffffffffffffffffffffffffffffffffffff16149050919050565b600033905090565b60006014905090565b6000608051905090565b7f4e487b7100000000000000000000000000000000000000000000000000000000600052602160045260246000fd5b600080fd5b600073ffffffffffffffffffffffffffffffffffffffff82169050919050565b6000620004ea82620004bd565b9050919050565b620004fc81620004dd565b81146200050857600080fd5b50565b6000815190506200051c81620004f1565b92915050565b600063ffffffff82169050919050565b6200053d8162000522565b81146200054957600080fd5b50565b6000815190506200055d8162000532565b92915050565b60008060008060008060c08789031215620005835762000582620004b8565b5b60006200059389828a016200050b565b9650506020620005a689828a016200050b565b9550506040620005b989828a016200054c565b9450506060620005cc89828a016200050b565b9350506080620005df89828a016200050b565b92505060a0620005f289828a016200050b565b9150509295509295509295565b600081519050919050565b7f4e487b7100000000000000000000000000000000000000000000000000000000600052604160045260246000fd5b7f4e487b7100000000000000000000000000000000000000000000000000000000600052602260045260246000fd5b600060028204905060018216806200068157607f821691505b60208210810362000697576200069662000639565b5b50919050565b60008190508160005260206000209050919050565b60006020601f8301049050919050565b600082821b905092915050565b600060088302620007017fffffffffffffffffffffffffffffffffffffffffffffffffffffffffffffffff82620006c2565b6200070d8683620006c2565b95508019841693508086168417925050509392505050565b6000819050919050565b6000819050919050565b60006200075a620007546200074e8462000725565b6200072f565b62000725565b9050919050565b6000819050919050565b620007768362000739565b6200078e620007858262000761565b848454620006cf565b825550505050565b600090565b620007a562000796565b620007b28184846200076b565b505050565b5b81811015620007da57620007ce6000826200079b565b600181019050620007b8565b5050565b601f8211156200082957620007f3816200069d565b620007fe84620006b2565b810160208510156200080e578190505b620008266200081d85620006b2565b830182620007b7565b50505b505050565b600082821c905092915050565b60006200084e600019846008026200082e565b1980831691505092915050565b60006200086983836200083b565b9150826002028217905092915050565b6200088482620005ff565b67ffffffffffffffff811115620008a0576200089f6200060a565b5b620008ac825462000668565b620008b9828285620007de565b600060209050601f831160018114620008f15760008415620008dc578287015190505b620008e885826200085b565b86555062000958565b601f19841662000901866200069d565b60005b828110156200092b5784890151825560018201915060208501945060208101905062000904565b868310156200094b578489015162000947601f8916826200083b565b8355505b6001600288020188555050505b505050505050565b600080fd5b600080fd5b6000808585111562000981576200098062000960565b5b8386111562000995576200099462000965565b5b6001850283019150848603905094509492505050565b600082905092915050565b60007fffffffffffffffffffffffffffffffffffffffff00000000000000000000000082169050919050565b6000620009f08383620009ab565b82620009fd8135620009b6565b9250601482101562000a405762000a3b7fffffffffffffffffffffffffffffffffffffffff00000000000000000000000083601403600802620006c2565b831692505b505092915050565b60805160a05160c05160e051613b4262000ad66000396000818161070f01528181610c2401528181610d630152610dfb01526000818161084c015281816110a10152611c74015260008181610888015281816109e501528181610cca01528181610d0501528181610fa80152818161130f015281816115bf0152611cb00152600061107b0152613b426000f3fe608060405234801561001057600080fd5b50600436106102115760003560e01c806370a0823111610125578063ae4d3b5c116100ad578063d547741f1161007c578063d547741f14610645578063dd62ed3e14610661578063ef78d4fd14610691578063f23a6e61146106af578063f93278b5146106df57610211565b8063ae4d3b5c146105e5578063b71c47a2146105ef578063b78b52df146105f9578063bc197c811461061557610211565b806391d14854116100f457806391d148541461051957806395d89b41146105495780639679f81214610567578063a217fddf14610597578063a9059cbb146105b557610211565b806370a082311461047d5780637da0a877146104ad5780637dc0d1d0146104cb5780638857159a146104e957610211565b806323073b5d116101a8578063313ce56711610177578063313ce567146103ed57806336568abe1461040b57806340f4afd6146104275780634bb278f314610443578063572b6c051461044d57610211565b806323073b5d1461033c57806323b872dd14610371578063248a9ca3146103a15780632f2ff15d146103d157610211565b8063144bf589116101e4578063144bf589146102b25780631586f91b146102d057806318160ddd14610300578063200d2ed21461031e57610211565b806301ffc9a7146102165780630680a20e1461024657806306fdde0314610264578063095ea7b314610282575b600080fd5b610230600480360381019061022b9190612834565b6106fb565b60405161023d919061287c565b60405180910390f35b61024e61070d565b60405161025b9190612916565b60405180910390f35b61026c610731565b60405161027991906129c1565b60405180910390f35b61029c60048036038101906102979190612a57565b6107c3565b6040516102a9919061287c565b60405180910390f35b6102ba6107e6565b6040516102c79190612ab0565b60405180910390f35b6102ea60048036038101906102e59190612acb565b61080a565b6040516102f79190612b07565b60405180910390f35b610308610822565b6040516103159190612b07565b60405180910390f35b61032661082c565b6040516103339190612b99565b60405180910390f35b61035660048036038101906103519190612acb565b61083f565b60405161036896959493929190612c1b565b60405180910390f35b61038b60048036038101906103869190612c7c565b610a2a565b604051610398919061287c565b60405180910390f35b6103bb60048036038101906103b69190612cfb565b610a59565b6040516103c89190612ab0565b60405180910390f35b6103eb60048036038101906103e69190612d28565b610a79565b005b6103f5610a9b565b6040516104029190612d84565b60405180910390f35b61042560048036038101906104209190612d28565b610aa4565b005b610441600480360381019061043c9190612e04565b610b1f565b005b61044b610ec4565b005b61046760048036038101906104629190612acb565b610ff0565b604051610474919061287c565b60405180910390f35b61049760048036038101906104929190612acb565b61102f565b6040516104a49190612b07565b60405180910390f35b6104b5611077565b6040516104c29190612e94565b60405180910390f35b6104d361109f565b6040516104e09190612ed0565b60405180910390f35b61050360048036038101906104fe9190612acb565b6110c3565b604051610510919061287c565b60405180910390f35b610533600480360381019061052e9190612d28565b6110e3565b604051610540919061287c565b60405180910390f35b61055161114e565b60405161055e91906129c1565b60405180910390f35b610581600480360381019061057c9190612acb565b6111e0565b60405161058e9190612eeb565b60405180910390f35b61059f611200565b6040516105ac9190612ab0565b60405180910390f35b6105cf60048036038101906105ca9190612a57565b611207565b6040516105dc919061287c565b60405180910390f35b6105ed61122a565b005b6105f7611357565b005b610613600480360381019061060e9190612a57565b61136b565b005b61062f600480360381019061062a91906130f9565b6114ff565b60405161063c91906131d7565b60405180910390f35b61065f600480360381019061065a9190612d28565b611514565b005b61067b600480360381019061067691906131f2565b611536565b6040516106889190612b07565b60405180910390f35b6106996115bd565b6040516106a69190613232565b60405180910390f35b6106c960048036038101906106c4919061324d565b6115e1565b6040516106d691906131d7565b60405180910390f35b6106f960048036038101906106f4919061333a565b6115f6565b005b6000610706826117e6565b9050919050565b7f000000000000000000000000000000000000000000000000000000000000000081565b606060038054610740906133c9565b80601f016020809104026020016040519081016040528092919081815260200182805461076c906133c9565b80156107b95780601f1061078e576101008083540402835291602001916107b9565b820191906000526020600020905b81548152906001019060200180831161079c57829003601f168201915b5050505050905090565b6000806107ce611860565b90506107db81858561186f565b600191505092915050565b7f20b5f7ac978e5d6199de06401411960dfa81d2f762655f6206bdc61d46fc19e681565b60076020528060005260406000206000915090505481565b6000600254905090565b600660009054906101000a900460ff1681565b60008060008060008060007f000000000000000000000000000000000000000000000000000000000000000073ffffffffffffffffffffffffffffffffffffffff166345e1b42c7f00000000000000000000000000000000000000000000000000000000000000008a6040518363ffffffff1660e01b81526004016108c59291906133fa565b602060405180830381865afa1580156108e2573d6000803e3d6000fd5b505050506040513d601f19601f820116820180604052508101906109069190613438565b90506000600760008a73ffffffffffffffffffffffffffffffffffffffff1673ffffffffffffffffffffffffffffffffffffffff168152602001908152602001600020549050600081831161095c576000610969565b81836109689190613494565b5b90506000600860008c73ffffffffffffffffffffffffffffffffffffffff1673ffffffffffffffffffffffffffffffffffffffff16815260200190815260200160002060009054906101000a900460ff169050600084036109cd57600090506109e3565b8383106109dd57600290506109e2565b600190505b5b7f0000000000000000000000000000000000000000000000000000000000000000610a0d8c61102f565b848685859950995099509950995099505050505091939550919395565b600080610a35611860565b9050610a42858285611881565b610a4d858585611916565b60019150509392505050565b600060056000838152602001908152602001600020600101549050919050565b610a8282610a59565b610a8b81611a0a565b610a958383611a1e565b50505050565b60006012905090565b610aac611860565b73ffffffffffffffffffffffffffffffffffffffff168173ffffffffffffffffffffffffffffffffffffffff1614610b10576040517f6697b23200000000000000000000000000000000000000000000000000000000815260040160405180910390fd5b610b1a8282611b10565b505050565b6000828290508585905014610b60576040517fa24a13a600000000000000000000000000000000000000000000000000000000815260040160405180910390fd5b60016002811115610b7457610b73612b22565b5b600660009054906101000a900460ff166002811115610b9657610b95612b22565b5b14610bcd576040517f114129f000000000000000000000000000000000000000000000000000000000815260040160405180910390fd5b60005b85859050811015610eab576000868683818110610bf057610bef6134c8565b5b9050602002013590506000858584818110610c0e57610c0d6134c8565b5b9050602002013590506000811115610e965760007f000000000000000000000000000000000000000000000000000000000000000073ffffffffffffffffffffffffffffffffffffffff16631655bfbe846040518263ffffffff1660e01b8152600401610c7b9190612b07565b600060405180830381865afa158015610c98573d6000803e3d6000fd5b505050506040513d6000823e3d601f19601f82011682018060405250810190610cc19190613722565b505050505090507f000000000000000000000000000000000000000000000000000000000000000063ffffffff16816020015161ffff161115610d615780602001517f00000000000000000000000000000000000000000000000000000000000000006040517fae75989c000000000000000000000000000000000000000000000000000000008152600401610d589291906137da565b60405180910390fd5b7f000000000000000000000000000000000000000000000000000000000000000073ffffffffffffffffffffffffffffffffffffffff1663f242432a610da5611860565b3086866040518563ffffffff1660e01b8152600401610dc7949392919061383a565b600060405180830381600087803b158015610de157600080fd5b505af1158015610df5573d6000803e3d6000fd5b505050507f000000000000000000000000000000000000000000000000000000000000000073ffffffffffffffffffffffffffffffffffffffff1663437d486284846040518363ffffffff1660e01b8152600401610e54929190613892565b600060405180830381600087803b158015610e6e57600080fd5b505af1158015610e82573d6000803e3d6000fd5b505050508185610e9291906138bb565b9450505b50508080610ea3906138ef565b915050610bd0565b50610ebd610eb7611860565b82611c03565b5050505050565b7f20b5f7ac978e5d6199de06401411960dfa81d2f762655f6206bdc61d46fc19e6610eee81611a0a565b600280811115610f0157610f00612b22565b5b600660009054906101000a900460ff166002811115610f2357610f22612b22565b5b03610f5a576040517f4f9ebfb700000000000000000000000000000000000000000000000000000000815260040160405180910390fd5b6002600660006101000a81548160ff02191690836002811115610f8057610f7f612b22565b5b02179055507f83ff33f831ff8d637dfebe12e813581690e41d25f854fb342d4a2cfe1999e62c7f0000000000000000000000000000000000000000000000000000000000000000600660009054906101000a900460ff16604051610fe5929190613937565b60405180910390a150565b6000610ffa611077565b73ffffffffffffffffffffffffffffffffffffffff168273ffffffffffffffffffffffffffffffffffffffff16149050919050565b60008060008373ffffffffffffffffffffffffffffffffffffffff1673ffffffffffffffffffffffffffffffffffffffff168152602001908152602001600020549050919050565b60007f0000000000000000000000000000000000000000000000000000000000000000905090565b7f000000000000000000000000000000000000000000000000000000000000000081565b60096020528060005260406000206000915054906101000a900460ff1681565b60006005600084815260200190815260200160002060000160008373ffffffffffffffffffffffffffffffffffffffff1673ffffffffffffffffffffffffffffffffffffffff16815260200190815260200160002060009054906101000a900460ff16905092915050565b60606004805461115d906133c9565b80601f0160208091040260200160405190810160405280929190818152602001828054611189906133c9565b80156111d65780601f106111ab576101008083540402835291602001916111d6565b820191906000526020600020905b8154815290600101906020018083116111b957829003601f168201915b5050505050905090565b60086020528060005260406000206000915054906101000a900460ff1681565b6000801b81565b600080611212611860565b905061121f818585611916565b600191505092915050565b7f20b5f7ac978e5d6199de06401411960dfa81d2f762655f6206bdc61d46fc19e661125481611a0a565b6000600281111561126857611267612b22565b5b600660009054906101000a900460ff16600281111561128a57611289612b22565b5b146112c1576040517f80cb55e200000000000000000000000000000000000000000000000000000000815260040160405180910390fd5b6001600660006101000a81548160ff021916908360028111156112e7576112e6612b22565b5b02179055507f83ff33f831ff8d637dfebe12e813581690e41d25f854fb342d4a2cfe1999e62c7f0000000000000000000000000000000000000000000000000000000000000000600660009054906101000a900460ff1660405161134c929190613937565b60405180910390a150565b611369611362611860565b6000611c03565b565b7f20b5f7ac978e5d6199de06401411960dfa81d2f762655f6206bdc61d46fc19e661139581611a0a565b600060028111156113a9576113a8612b22565b5b600660009054906101000a900460ff1660028111156113cb576113ca612b22565b5b14611402576040517f3842dc5400000000000000000000000000000000000000000000000000000000815260040160405180910390fd5b600073ffffffffffffffffffffffffffffffffffffffff168373ffffffffffffffffffffffffffffffffffffffff1603611468576040517f9c8d2cd200000000000000000000000000000000000000000000000000000000815260040160405180910390fd5b600082036114a2576040517f2c5211c600000000000000000000000000000000000000000000000000000000815260040160405180910390fd5b6114ac838361201a565b8273ffffffffffffffffffffffffffffffffffffffff167f472f36e28bb47edb7c69c9e2ac00a77c66b505df54e9c818ac57110b0629e8c3836040516114f29190612b07565b60405180910390a2505050565b600063bc197c8160e01b905095945050505050565b61151d82610a59565b61152681611a0a565b6115308383611b10565b50505050565b6000600160008473ffffffffffffffffffffffffffffffffffffffff1673ffffffffffffffffffffffffffffffffffffffff16815260200190815260200160002060008373ffffffffffffffffffffffffffffffffffffffff1673ffffffffffffffffffffffffffffffffffffffff16815260200190815260200160002054905092915050565b7f000000000000000000000000000000000000000000000000000000000000000081565b600063f23a6e6160e01b905095945050505050565b7f20b5f7ac978e5d6199de06401411960dfa81d2f762655f6206bdc61d46fc19e661162081611a0a565b6000600281111561163457611633612b22565b5b600660009054906101000a900460ff16600281111561165657611655612b22565b5b1461168d576040517f3842dc5400000000000000000000000000000000000000000000000000000000815260040160405180910390fd5b600082036116c7576040517f2c5211c600000000000000000000000000000000000000000000000000000000815260040160405180910390fd5b60008484905003611704576040517f91c0aaa200000000000000000000000000000000000000000000000000000000815260040160405180910390fd5b60005b848490508110156117df576000858583818110611727576117266134c8565b5b905060200201602081019061173c9190612acb565b9050600073ffffffffffffffffffffffffffffffffffffffff168173ffffffffffffffffffffffffffffffffffffffff16146117cb5761177c818561201a565b8073ffffffffffffffffffffffffffffffffffffffff167f472f36e28bb47edb7c69c9e2ac00a77c66b505df54e9c818ac57110b0629e8c3856040516117c29190612b07565b60405180910390a25b5080806117d7906138ef565b915050611707565b5050505050565b60007f4e2312e0000000000000000000000000000000000000000000000000000000007bffffffffffffffffffffffffffffffffffffffffffffffffffffffff1916827bffffffffffffffffffffffffffffffffffffffffffffffffffffffff1916148061185957506118588261209c565b5b9050919050565b600061186a612116565b905090565b61187c8383836001612182565b505050565b600061188d8484611536565b90507fffffffffffffffffffffffffffffffffffffffffffffffffffffffffffffffff8110156119105781811015611900578281836040517ffb8f41b20000000000000000000000000000000000000000000000000000000081526004016118f793929190613960565b60405180910390fd5b61190f84848484036000612182565b5b50505050565b600073ffffffffffffffffffffffffffffffffffffffff168373ffffffffffffffffffffffffffffffffffffffff16036119885760006040517f96c6fd1e00000000000000000000000000000000000000000000000000000000815260040161197f9190612e94565b60405180910390fd5b600073ffffffffffffffffffffffffffffffffffffffff168273ffffffffffffffffffffffffffffffffffffffff16036119fa5760006040517fec442f050000000000000000000000000000000000000000000000000000000081526004016119f19190612e94565b60405180910390fd5b611a05838383612359565b505050565b611a1b81611a16611860565b612446565b50565b6000611a2a83836110e3565b611b055760016005600085815260200190815260200160002060000160008473ffffffffffffffffffffffffffffffffffffffff1673ffffffffffffffffffffffffffffffffffffffff16815260200190815260200160002060006101000a81548160ff021916908315150217905550611aa2611860565b73ffffffffffffffffffffffffffffffffffffffff168273ffffffffffffffffffffffffffffffffffffffff16847f2f8788117e7eff1d82e926ec794901d17c78024a50270940304540a733656f0d60405160405180910390a460019050611b0a565b600090505b92915050565b6000611b1c83836110e3565b15611bf85760006005600085815260200190815260200160002060000160008473ffffffffffffffffffffffffffffffffffffffff1673ffffffffffffffffffffffffffffffffffffffff16815260200190815260200160002060006101000a81548160ff021916908315150217905550611b95611860565b73ffffffffffffffffffffffffffffffffffffffff168273ffffffffffffffffffffffffffffffffffffffff16847ff6391f5c32d9c69d2a47ea670b442974b53935d1edc7fd64eb21e047a839171b60405160405180910390a460019050611bfd565b600090505b92915050565b60016002811115611c1757611c16612b22565b5b600660009054906101000a900460ff166002811115611c3957611c38612b22565b5b14611c70576040517f114129f000000000000000000000000000000000000000000000000000000000815260040160405180910390fd5b60007f000000000000000000000000000000000000000000000000000000000000000073ffffffffffffffffffffffffffffffffffffffff166345e1b42c7f0000000000000000000000000000000000000000000000000000000000000000856040518363ffffffff1660e01b8152600401611ced9291906133fa565b602060405180830381865afa158015611d0a573d6000803e3d6000fd5b505050506040513d601f19601f82011682018060405250810190611d2e9190613438565b905060008103611d6a576040517f68d843f100000000000000000000000000000000000000000000000000000000815260040160405180910390fd5b600960008473ffffffffffffffffffffffffffffffffffffffff1673ffffffffffffffffffffffffffffffffffffffff16815260200190815260200160002060009054906101000a900460ff1615611dee576040517f300dd77900000000000000000000000000000000000000000000000000000000815260040160405180910390fd5b600082821115611e07578282611e049190613494565b90505b6000811115611e70576000611e1b8561102f565b905081811015611e645780826040517fec6bf848000000000000000000000000000000000000000000000000000000008152600401611e5b929190613892565b60405180910390fd5b611e6e8583612497565b505b81600760008673ffffffffffffffffffffffffffffffffffffffff1673ffffffffffffffffffffffffffffffffffffffff168152602001908152602001600020819055506001600960008673ffffffffffffffffffffffffffffffffffffffff1673ffffffffffffffffffffffffffffffffffffffff16815260200190815260200160002060006101000a81548160ff0219169083151502179055506002600860008673ffffffffffffffffffffffffffffffffffffffff1673ffffffffffffffffffffffffffffffffffffffff16815260200190815260200160002060006101000a81548160ff02191690836002811115611f6f57611f6e612b22565b5b02179055508373ffffffffffffffffffffffffffffffffffffffff167fea6c029757711e3bf5e8958ba57d94459b2e5b84a40eed9d21e4390e1e1f6e866002604051611fbb9190612eeb565b60405180910390a28373ffffffffffffffffffffffffffffffffffffffff167fcd3331a9bec0aed59a9fbe480a5b8e9f713e86e4b4105ac2628cfe4b9d6a6e7583600060405161200c9291906139d2565b60405180910390a250505050565b600073ffffffffffffffffffffffffffffffffffffffff168273ffffffffffffffffffffffffffffffffffffffff160361208c5760006040517fec442f050000000000000000000000000000000000000000000000000000000081526004016120839190612e94565b60405180910390fd5b61209860008383612359565b5050565b60007f7965db0b000000000000000000000000000000000000000000000000000000007bffffffffffffffffffffffffffffffffffffffffffffffffffffffff1916827bffffffffffffffffffffffffffffffffffffffffffffffffffffffff1916148061210f575061210e82612519565b5b9050919050565b60008060003690509050600061212a612583565b9050808210158015612141575061214033610ff0565b5b156121725760003682840390809261215b93929190613a05565b906121669190613a84565b60601c9250505061217f565b61217a612592565b925050505b90565b600073ffffffffffffffffffffffffffffffffffffffff168473ffffffffffffffffffffffffffffffffffffffff16036121f45760006040517fe602df050000000000000000000000000000000000000000000000000000000081526004016121eb9190612e94565b60405180910390fd5b600073ffffffffffffffffffffffffffffffffffffffff168373ffffffffffffffffffffffffffffffffffffffff16036122665760006040517f94280d6200000000000000000000000000000000000000000000000000000000815260040161225d9190612e94565b60405180910390fd5b81600160008673ffffffffffffffffffffffffffffffffffffffff1673ffffffffffffffffffffffffffffffffffffffff16815260200190815260200160002060008573ffffffffffffffffffffffffffffffffffffffff1673ffffffffffffffffffffffffffffffffffffffff168152602001908152602001600020819055508015612353578273ffffffffffffffffffffffffffffffffffffffff168473ffffffffffffffffffffffffffffffffffffffff167f8c5be1e5ebec7d5bd14f71427d1e84f3dd0314c0f7b2291e5b200ac8c7c3b9258460405161234a9190612b07565b60405180910390a35b50505050565b600073ffffffffffffffffffffffffffffffffffffffff168373ffffffffffffffffffffffffffffffffffffffff16141580156123c35750600073ffffffffffffffffffffffffffffffffffffffff168273ffffffffffffffffffffffffffffffffffffffff1614155b1561243657600060028111156123dc576123db612b22565b5b600660009054906101000a900460ff1660028111156123fe576123fd612b22565b5b14612435576040517fe827105e00000000000000000000000000000000000000000000000000000000815260040160405180910390fd5b5b61244183838361259a565b505050565b61245082826110e3565b6124935780826040517fe2517d3f00000000000000000000000000000000000000000000000000000000815260040161248a929190613ae3565b60405180910390fd5b5050565b600073ffffffffffffffffffffffffffffffffffffffff168273ffffffffffffffffffffffffffffffffffffffff16036125095760006040517f96c6fd1e0000000000000000000000000000000000000000000000000000000081526004016125009190612e94565b60405180910390fd5b61251582600083612359565b5050565b60007f01ffc9a7000000000000000000000000000000000000000000000000000000007bffffffffffffffffffffffffffffffffffffffffffffffffffffffff1916827bffffffffffffffffffffffffffffffffffffffffffffffffffffffff1916149050919050565b600061258d6127bf565b905090565b600033905090565b600073ffffffffffffffffffffffffffffffffffffffff168373ffffffffffffffffffffffffffffffffffffffff16036125ec5780600260008282546125e091906138bb565b925050819055506126bf565b60008060008573ffffffffffffffffffffffffffffffffffffffff1673ffffffffffffffffffffffffffffffffffffffff16815260200190815260200160002054905081811015612678578381836040517fe450d38c00000000000000000000000000000000000000000000000000000000815260040161266f93929190613960565b60405180910390fd5b8181036000808673ffffffffffffffffffffffffffffffffffffffff1673ffffffffffffffffffffffffffffffffffffffff16815260200190815260200160002081905550505b600073ffffffffffffffffffffffffffffffffffffffff168273ffffffffffffffffffffffffffffffffffffffff16036127085780600260008282540392505081905550612755565b806000808473ffffffffffffffffffffffffffffffffffffffff1673ffffffffffffffffffffffffffffffffffffffff168152602001908152602001600020600082825401925050819055505b8173ffffffffffffffffffffffffffffffffffffffff168373ffffffffffffffffffffffffffffffffffffffff167fddf252ad1be2c89b69c2b068fc378daa952ba7f163c4a11628f55a4df523b3ef836040516127b29190612b07565b60405180910390a3505050565b60006014905090565b6000604051905090565b600080fd5b600080fd5b60007fffffffff0000000000000000000000000000000000000000000000000000000082169050919050565b612811816127dc565b811461281c57600080fd5b50565b60008135905061282e81612808565b92915050565b60006020828403121561284a576128496127d2565b5b60006128588482850161281f565b91505092915050565b60008115159050919050565b61287681612861565b82525050565b6000602082019050612891600083018461286d565b92915050565b600073ffffffffffffffffffffffffffffffffffffffff82169050919050565b6000819050919050565b60006128dc6128d76128d284612897565b6128b7565b612897565b9050919050565b60006128ee826128c1565b9050919050565b6000612900826128e3565b9050919050565b612910816128f5565b82525050565b600060208201905061292b6000830184612907565b92915050565b600081519050919050565b600082825260208201905092915050565b60005b8381101561296b578082015181840152602081019050612950565b60008484015250505050565b6000601f19601f8301169050919050565b600061299382612931565b61299d818561293c565b93506129ad81856020860161294d565b6129b681612977565b840191505092915050565b600060208201905081810360008301526129db8184612988565b905092915050565b60006129ee82612897565b9050919050565b6129fe816129e3565b8114612a0957600080fd5b50565b600081359050612a1b816129f5565b92915050565b6000819050919050565b612a3481612a21565b8114612a3f57600080fd5b50565b600081359050612a5181612a2b565b92915050565b60008060408385031215612a6e57612a6d6127d2565b5b6000612a7c85828601612a0c565b9250506020612a8d85828601612a42565b9150509250929050565b6000819050919050565b612aaa81612a97565b82525050565b6000602082019050612ac56000830184612aa1565b92915050565b600060208284031215612ae157612ae06127d2565b5b6000612aef84828501612a0c565b91505092915050565b612b0181612a21565b82525050565b6000602082019050612b1c6000830184612af8565b92915050565b7f4e487b7100000000000000000000000000000000000000000000000000000000600052602160045260246000fd5b60038110612b6257612b61612b22565b5b50565b6000819050612b7382612b51565b919050565b6000612b8382612b65565b9050919050565b612b9381612b78565b82525050565b6000602082019050612bae6000830184612b8a565b92915050565b600063ffffffff82169050919050565b612bcd81612bb4565b82525050565b60038110612be457612be3612b22565b5b50565b6000819050612bf582612bd3565b919050565b6000612c0582612be7565b9050919050565b612c1581612bfa565b82525050565b600060c082019050612c306000830189612bc4565b612c3d6020830188612af8565b612c4a6040830187612af8565b612c576060830186612af8565b612c646080830185612af8565b612c7160a0830184612c0c565b979650505050505050565b600080600060608486031215612c9557612c946127d2565b5b6000612ca386828701612a0c565b9350506020612cb486828701612a0c565b9250506040612cc586828701612a42565b9150509250925092565b612cd881612a97565b8114612ce357600080fd5b50565b600081359050612cf581612ccf565b92915050565b600060208284031215612d1157612d106127d2565b5b6000612d1f84828501612ce6565b91505092915050565b60008060408385031215612d3f57612d3e6127d2565b5b6000612d4d85828601612ce6565b9250506020612d5e85828601612a0c565b9150509250929050565b600060ff82169050919050565b612d7e81612d68565b82525050565b6000602082019050612d996000830184612d75565b92915050565b600080fd5b600080fd5b600080fd5b60008083601f840112612dc457612dc3612d9f565b5b8235905067ffffffffffffffff811115612de157612de0612da4565b5b602083019150836020820283011115612dfd57612dfc612da9565b5b9250929050565b60008060008060408587031215612e1e57612e1d6127d2565b5b600085013567ffffffffffffffff811115612e3c57612e3b6127d7565b5b612e4887828801612dae565b9450945050602085013567ffffffffffffffff811115612e6b57612e6a6127d7565b5b612e7787828801612dae565b925092505092959194509250565b612e8e816129e3565b82525050565b6000602082019050612ea96000830184612e85565b92915050565b6000612eba826128e3565b9050919050565b612eca81612eaf565b82525050565b6000602082019050612ee56000830184612ec1565b92915050565b6000602082019050612f006000830184612c0c565b92915050565b7f4e487b7100000000000000000000000000000000000000000000000000000000600052604160045260246000fd5b612f3e82612977565b810181811067ffffffffffffffff82111715612f5d57612f5c612f06565b5b80604052505050565b6000612f706127c8565b9050612f7c8282612f35565b919050565b600067ffffffffffffffff821115612f9c57612f9b612f06565b5b602082029050602081019050919050565b6000612fc0612fbb84612f81565b612f66565b90508083825260208201905060208402830185811115612fe357612fe2612da9565b5b835b8181101561300c5780612ff88882612a42565b845260208401935050602081019050612fe5565b5050509392505050565b600082601f83011261302b5761302a612d9f565b5b813561303b848260208601612fad565b91505092915050565b600080fd5b600067ffffffffffffffff82111561306457613063612f06565b5b61306d82612977565b9050602081019050919050565b82818337600083830152505050565b600061309c61309784613049565b612f66565b9050828152602081018484840111156130b8576130b7613044565b5b6130c384828561307a565b509392505050565b600082601f8301126130e0576130df612d9f565b5b81356130f0848260208601613089565b91505092915050565b600080600080600060a08688031215613115576131146127d2565b5b600061312388828901612a0c565b955050602061313488828901612a0c565b945050604086013567ffffffffffffffff811115613155576131546127d7565b5b61316188828901613016565b935050606086013567ffffffffffffffff811115613182576131816127d7565b5b61318e88828901613016565b925050608086013567ffffffffffffffff8111156131af576131ae6127d7565b5b6131bb888289016130cb565b9150509295509295909350565b6131d1816127dc565b82525050565b60006020820190506131ec60008301846131c8565b92915050565b60008060408385031215613209576132086127d2565b5b600061321785828601612a0c565b925050602061322885828601612a0c565b9150509250929050565b60006020820190506132476000830184612bc4565b92915050565b600080600080600060a08688031215613269576132686127d2565b5b600061327788828901612a0c565b955050602061328888828901612a0c565b945050604061329988828901612a42565b93505060606132aa88828901612a42565b925050608086013567ffffffffffffffff8111156132cb576132ca6127d7565b5b6132d7888289016130cb565b9150509295509295909350565b60008083601f8401126132fa576132f9612d9f565b5b8235905067ffffffffffffffff81111561331757613316612da4565b5b60208301915083602082028301111561333357613332612da9565b5b9250929050565b600080600060408486031215613353576133526127d2565b5b600084013567ffffffffffffffff811115613371576133706127d7565b5b61337d868287016132e4565b9350935050602061339086828701612a42565b9150509250925092565b7f4e487b7100000000000000000000000000000000000000000000000000000000600052602260045260246000fd5b600060028204905060018216806133e157607f821691505b6020821081036133f4576133f361339a565b5b50919050565b600060408201905061340f6000830185612bc4565b61341c6020830184612e85565b9392505050565b60008151905061343281612a2b565b92915050565b60006020828403121561344e5761344d6127d2565b5b600061345c84828501613423565b91505092915050565b7f4e487b7100000000000000000000000000000000000000000000000000000000600052601160045260246000fd5b600061349f82612a21565b91506134aa83612a21565b92508282039050818111156134c2576134c1613465565b5b92915050565b7f4e487b7100000000000000000000000000000000000000000000000000000000600052603260045260246000fd5b600080fd5b600080fd5b600067ffffffffffffffff82111561351c5761351b612f06565b5b61352582612977565b9050602081019050919050565b600061354561354084613501565b612f66565b90508281526020810184848401111561356157613560613044565b5b61356c84828561294d565b509392505050565b600082601f83011261358957613588612d9f565b5b8151613599848260208601613532565b91505092915050565b600061ffff82169050919050565b6135b9816135a2565b81146135c457600080fd5b50565b6000815190506135d6816135b0565b92915050565b6000608082840312156135f2576135f16134f7565b5b6135fc6080612f66565b9050600082015167ffffffffffffffff81111561361c5761361b6134fc565b5b61362884828501613574565b600083015250602061363c848285016135c7565b602083015250604082015167ffffffffffffffff8111156136605761365f6134fc565b5b61366c84828501613574565b604083015250606082015167ffffffffffffffff8111156136905761368f6134fc565b5b61369c84828501613574565b60608301525092915050565b600281106136b557600080fd5b50565b6000815190506136c7816136a8565b92915050565b6000815190506136dc81612ccf565b92915050565b600067ffffffffffffffff82169050919050565b6136ff816136e2565b811461370a57600080fd5b50565b60008151905061371c816136f6565b92915050565b60008060008060008060c0878903121561373f5761373e6127d2565b5b600087015167ffffffffffffffff81111561375d5761375c6127d7565b5b61376989828a016135dc565b965050602061377a89828a016136b8565b955050604061378b89828a016136cd565b945050606061379c89828a0161370d565b93505060806137ad89828a0161370d565b92505060a06137be89828a01613423565b9150509295509295509295565b6137d4816135a2565b82525050565b60006040820190506137ef60008301856137cb565b6137fc6020830184612bc4565b9392505050565b600082825260208201905092915050565b50565b6000613824600083613803565b915061382f82613814565b600082019050919050565b600060a08201905061384f6000830187612e85565b61385c6020830186612e85565b6138696040830185612af8565b6138766060830184612af8565b818103608083015261388781613817565b905095945050505050565b60006040820190506138a76000830185612af8565b6138b46020830184612af8565b9392505050565b60006138c682612a21565b91506138d183612a21565b92508282019050808211156138e9576138e8613465565b5b92915050565b60006138fa82612a21565b91507fffffffffffffffffffffffffffffffffffffffffffffffffffffffffffffffff820361392c5761392b613465565b5b600182019050919050565b600060408201905061394c6000830185612bc4565b6139596020830184612b8a565b9392505050565b60006060820190506139756000830186612e85565b6139826020830185612af8565b61398f6040830184612af8565b949350505050565b6000819050919050565b60006139bc6139b76139b284613997565b6128b7565b612a21565b9050919050565b6139cc816139a1565b82525050565b60006040820190506139e76000830185612af8565b6139f460208301846139c3565b9392505050565b600080fd5b600080fd5b60008085851115613a1957613a186139fb565b5b83861115613a2a57613a29613a00565b5b6001850283019150848603905094509492505050565b600082905092915050565b60007fffffffffffffffffffffffffffffffffffffffff00000000000000000000000082169050919050565b600082821b905092915050565b6000613a908383613a40565b82613a9b8135613a4b565b92506014821015613adb57613ad67fffffffffffffffffffffffffffffffffffffffff00000000000000000000000083601403600802613a77565b831692505b505092915050565b6000604082019050613af86000830185612e85565b613b056020830184612aa1565b939250505056fea2646970667358221220fcaeaf6c66dfcd573fee04c17cfc5e23f7ea007e385c391a4ce9c9028a059d1164736f6c63430008140033a2646970667358221220ecf637fd4723706fdda23a3aab0c0da70938c6c27d3361b2227c6c758d4482b064736f6c634300081400336101006040526000600660006101000a81548160ff021916908360028111156200002e576200002d62000489565b5b02179055503480156200004057600080fd5b506040516200461838038062004618833981810160405281019062000066919062000563565b826040518060400160405280601281526020017f50544241452d505520416c6c6f77616e636500000000000000000000000000008152506040518060400160405280600581526020017f50544241450000000000000000000000000000000000000000000000000000008152508160039081620000e4919062000879565b508060049081620000f6919062000879565b5050508073ffffffffffffffffffffffffffffffffffffffff1660808173ffffffffffffffffffffffffffffffffffffffff1681525050508363ffffffff1660a08163ffffffff16815250508173ffffffffffffffffffffffffffffffffffffffff1660c08173ffffffffffffffffffffffffffffffffffffffff16815250508073ffffffffffffffffffffffffffffffffffffffff1660e08173ffffffffffffffffffffffffffffffffffffffff1681525050620001bf6000801b87620001ff60201b60201c565b50620001f27f20b5f7ac978e5d6199de06401411960dfa81d2f762655f6206bdc61d46fc19e686620001ff60201b60201c565b5050505050505062000a48565b60006200021383836200030360201b60201c565b620002f85760016005600085815260200190815260200160002060000160008473ffffffffffffffffffffffffffffffffffffffff1673ffffffffffffffffffffffffffffffffffffffff16815260200190815260200160002060006101000a81548160ff021916908315150217905550620002946200036e60201b60201c565b73ffffffffffffffffffffffffffffffffffffffff168273ffffffffffffffffffffffffffffffffffffffff16847f2f8788117e7eff1d82e926ec794901d17c78024a50270940304540a733656f0d60405160405180910390a460019050620002fd565b600090505b92915050565b60006005600084815260200190815260200160002060000160008373ffffffffffffffffffffffffffffffffffffffff1673ffffffffffffffffffffffffffffffffffffffff16815260200190815260200160002060009054906101000a900460ff16905092915050565b6000620003806200038560201b60201c565b905090565b600080600036905090506000620003a16200041060201b60201c565b9050808210158015620003c15750620003c0336200042760201b60201c565b5b15620003f857600036828403908092620003de939291906200096a565b90620003eb9190620009e2565b60601c925050506200040d565b620004086200046e60201b60201c565b925050505b90565b6000620004226200047660201b60201c565b905090565b6000620004396200047f60201b60201c565b73ffffffffffffffffffffffffffffffffffffffff168273ffffffffffffffffffffffffffffffffffffffff16149050919050565b600033905090565b60006014905090565b6000608051905090565b7f4e487b7100000000000000000000000000000000000000000000000000000000600052602160045260246000fd5b600080fd5b600073ffffffffffffffffffffffffffffffffffffffff82169050919050565b6000620004ea82620004bd565b9050919050565b620004fc81620004dd565b81146200050857600080fd5b50565b6000815190506200051c81620004f1565b92915050565b600063ffffffff82169050919050565b6200053d8162000522565b81146200054957600080fd5b50565b6000815190506200055d8162000532565b92915050565b60008060008060008060c08789031215620005835762000582620004b8565b5b60006200059389828a016200050b565b9650506020620005a689828a016200050b565b9550506040620005b989828a016200054c565b9450506060620005cc89828a016200050b565b9350506080620005df89828a016200050b565b92505060a0620005f289828a016200050b565b9150509295509295509295565b600081519050919050565b7f4e487b7100000000000000000000000000000000000000000000000000000000600052604160045260246000fd5b7f4e487b7100000000000000000000000000000000000000000000000000000000600052602260045260246000fd5b600060028204905060018216806200068157607f821691505b60208210810362000697576200069662000639565b5b50919050565b60008190508160005260206000209050919050565b60006020601f8301049050919050565b600082821b905092915050565b600060088302620007017fffffffffffffffffffffffffffffffffffffffffffffffffffffffffffffffff82620006c2565b6200070d8683620006c2565b95508019841693508086168417925050509392505050565b6000819050919050565b6000819050919050565b60006200075a620007546200074e8462000725565b6200072f565b62000725565b9050919050565b6000819050919050565b620007768362000739565b6200078e620007858262000761565b848454620006cf565b825550505050565b600090565b620007a562000796565b620007b28184846200076b565b505050565b5b81811015620007da57620007ce6000826200079b565b600181019050620007b8565b5050565b601f8211156200082957620007f3816200069d565b620007fe84620006b2565b810160208510156200080e578190505b620008266200081d85620006b2565b830182620007b7565b50505b505050565b600082821c905092915050565b60006200084e600019846008026200082e565b1980831691505092915050565b60006200086983836200083b565b9150826002028217905092915050565b6200088482620005ff565b67ffffffffffffffff811115620008a0576200089f6200060a565b5b620008ac825462000668565b620008b9828285620007de565b600060209050601f831160018114620008f15760008415620008dc578287015190505b620008e885826200085b565b86555062000958565b601f19841662000901866200069d565b60005b828110156200092b5784890151825560018201915060208501945060208101905062000904565b868310156200094b578489015162000947601f8916826200083b565b8355505b6001600288020188555050505b505050505050565b600080fd5b600080fd5b6000808585111562000981576200098062000960565b5b8386111562000995576200099462000965565b5b6001850283019150848603905094509492505050565b600082905092915050565b60007fffffffffffffffffffffffffffffffffffffffff00000000000000000000000082169050919050565b6000620009f08383620009ab565b82620009fd8135620009b6565b9250601482101562000a405762000a3b7fffffffffffffffffffffffffffffffffffffffff00000000000000000000000083601403600802620006c2565b831692505b505092915050565b60805160a05160c05160e051613b4262000ad66000396000818161070f01528181610c2401528181610d630152610dfb01526000818161084c015281816110a10152611c74015260008181610888015281816109e501528181610cca01528181610d0501528181610fa80152818161130f015281816115bf0152611cb00152600061107b0152613b426000f3fe608060405234801561001057600080fd5b50600436106102115760003560e01c806370a0823111610125578063ae4d3b5c116100ad578063d547741f1161007c578063d547741f14610645578063dd62ed3e14610661578063ef78d4fd14610691578063f23a6e61146106af578063f93278b5146106df57610211565b8063ae4d3b5c146105e5578063b71c47a2146105ef578063b78b52df146105f9578063bc197c811461061557610211565b806391d14854116100f457806391d148541461051957806395d89b41146105495780639679f81214610567578063a217fddf14610597578063a9059cbb146105b557610211565b806370a082311461047d5780637da0a877146104ad5780637dc0d1d0146104cb5780638857159a146104e957610211565b806323073b5d116101a8578063313ce56711610177578063313ce567146103ed57806336568abe1461040b57806340f4afd6146104275780634bb278f314610443578063572b6c051461044d57610211565b806323073b5d1461033c57806323b872dd14610371578063248a9ca3146103a15780632f2ff15d146103d157610211565b8063144bf589116101e4578063144bf589146102b25780631586f91b146102d057806318160ddd14610300578063200d2ed21461031e57610211565b806301ffc9a7146102165780630680a20e1461024657806306fdde0314610264578063095ea7b314610282575b600080fd5b610230600480360381019061022b9190612834565b6106fb565b60405161023d919061287c565b60405180910390f35b61024e61070d565b60405161025b9190612916565b60405180910390f35b61026c610731565b60405161027991906129c1565b60405180910390f35b61029c60048036038101906102979190612a57565b6107c3565b6040516102a9919061287c565b60405180910390f35b6102ba6107e6565b6040516102c79190612ab0565b60405180910390f35b6102ea60048036038101906102e59190612acb565b61080a565b6040516102f79190612b07565b60405180910390f35b610308610822565b6040516103159190612b07565b60405180910390f35b61032661082c565b6040516103339190612b99565b60405180910390f35b61035660048036038101906103519190612acb565b61083f565b60405161036896959493929190612c1b565b60405180910390f35b61038b60048036038101906103869190612c7c565b610a2a565b604051610398919061287c565b60405180910390f35b6103bb60048036038101906103b69190612cfb565b610a59565b6040516103c89190612ab0565b60405180910390f35b6103eb60048036038101906103e69190612d28565b610a79565b005b6103f5610a9b565b6040516104029190612d84565b60405180910390f35b61042560048036038101906104209190612d28565b610aa4565b005b610441600480360381019061043c9190612e04565b610b1f565b005b61044b610ec4565b005b61046760048036038101906104629190612acb565b610ff0565b604051610474919061287c565b60405180910390f35b61049760048036038101906104929190612acb565b61102f565b6040516104a49190612b07565b60405180910390f35b6104b5611077565b6040516104c29190612e94565b60405180910390f35b6104d361109f565b6040516104e09190612ed0565b60405180910390f35b61050360048036038101906104fe9190612acb565b6110c3565b604051610510919061287c565b60405180910390f35b610533600480360381019061052e9190612d28565b6110e3565b604051610540919061287c565b60405180910390f35b61055161114e565b60405161055e91906129c1565b60405180910390f35b610581600480360381019061057c9190612acb565b6111e0565b60405161058e9190612eeb565b60405180910390f35b61059f611200565b6040516105ac9190612ab0565b60405180910390f35b6105cf60048036038101906105ca9190612a57565b611207565b6040516105dc919061287c565b60405180910390f35b6105ed61122a565b005b6105f7611357565b005b610613600480360381019061060e9190612a57565b61136b565b005b61062f600480360381019061062a91906130f9565b6114ff565b60405161063c91906131d7565b60405180910390f35b61065f600480360381019061065a9190612d28565b611514565b005b61067b600480360381019061067691906131f2565b611536565b6040516106889190612b07565b60405180910390f35b6106996115bd565b6040516106a69190613232565b60405180910390f35b6106c960048036038101906106c4919061324d565b6115e1565b6040516106d691906131d7565b60405180910390f35b6106f960048036038101906106f4919061333a565b6115f6565b005b6000610706826117e6565b9050919050565b7f000000000000000000000000000000000000000000000000000000000000000081565b606060038054610740906133c9565b80601f016020809104026020016040519081016040528092919081815260200182805461076c906133c9565b80156107b95780601f1061078e576101008083540402835291602001916107b9565b820191906000526020600020905b81548152906001019060200180831161079c57829003601f168201915b5050505050905090565b6000806107ce611860565b90506107db81858561186f565b600191505092915050565b7f20b5f7ac978e5d6199de06401411960dfa81d2f762655f6206bdc61d46fc19e681565b60076020528060005260406000206000915090505481565b6000600254905090565b600660009054906101000a900460ff1681565b60008060008060008060007f000000000000000000000000000000000000000000000000000000000000000073ffffffffffffffffffffffffffffffffffffffff166345e1b42c7f00000000000000000000000000000000000000000000000000000000000000008a6040518363ffffffff1660e01b81526004016108c59291906133fa565b602060405180830381865afa1580156108e2573d6000803e3d6000fd5b505050506040513d601f19601f820116820180604052508101906109069190613438565b90506000600760008a73ffffffffffffffffffffffffffffffffffffffff1673ffffffffffffffffffffffffffffffffffffffff168152602001908152602001600020549050600081831161095c576000610969565b81836109689190613494565b5b90506000600860008c73ffffffffffffffffffffffffffffffffffffffff1673ffffffffffffffffffffffffffffffffffffffff16815260200190815260200160002060009054906101000a900460ff169050600084036109cd57600090506109e3565b8383106109dd57600290506109e2565b600190505b5b7f0000000000000000000000000000000000000000000000000000000000000000610a0d8c61102f565b848685859950995099509950995099505050505091939550919395565b600080610a35611860565b9050610a42858285611881565b610a4d858585611916565b60019150509392505050565b600060056000838152602001908152602001600020600101549050919050565b610a8282610a59565b610a8b81611a0a565b610a958383611a1e565b50505050565b60006012905090565b610aac611860565b73ffffffffffffffffffffffffffffffffffffffff168173ffffffffffffffffffffffffffffffffffffffff1614610b10576040517f6697b23200000000000000000000000000000000000000000000000000000000815260040160405180910390fd5b610b1a8282611b10565b505050565b6000828290508585905014610b60576040517fa24a13a600000000000000000000000000000000000000000000000000000000815260040160405180910390fd5b60016002811115610b7457610b73612b22565b5b600660009054906101000a900460ff166002811115610b9657610b95612b22565b5b14610bcd576040517f114129f000000000000000000000000000000000000000000000000000000000815260040160405180910390fd5b60005b85859050811015610eab576000868683818110610bf057610bef6134c8565b5b9050602002013590506000858584818110610c0e57610c0d6134c8565b5b9050602002013590506000811115610e965760007f000000000000000000000000000000000000000000000000000000000000000073ffffffffffffffffffffffffffffffffffffffff16631655bfbe846040518263ffffffff1660e01b8152600401610c7b9190612b07565b600060405180830381865afa158015610c98573d6000803e3d6000fd5b505050506040513d6000823e3d601f19601f82011682018060405250810190610cc19190613722565b505050505090507f000000000000000000000000000000000000000000000000000000000000000063ffffffff16816020015161ffff161115610d615780602001517f00000000000000000000000000000000000000000000000000000000000000006040517fae75989c000000000000000000000000000000000000000000000000000000008152600401610d589291906137da565b60405180910390fd5b7f000000000000000000000000000000000000000000000000000000000000000073ffffffffffffffffffffffffffffffffffffffff1663f242432a610da5611860565b3086866040518563ffffffff1660e01b8152600401610dc7949392919061383a565b600060405180830381600087803b158015610de157600080fd5b505af1158015610df5573d6000803e3d6000fd5b505050507f000000000000000000000000000000000000000000000000000000000000000073ffffffffffffffffffffffffffffffffffffffff1663437d486284846040518363ffffffff1660e01b8152600401610e54929190613892565b600060405180830381600087803b158015610e6e57600080fd5b505af1158015610e82573d6000803e3d6000fd5b505050508185610e9291906138bb565b9450505b50508080610ea3906138ef565b915050610bd0565b50610ebd610eb7611860565b82611c03565b5050505050565b7f20b5f7ac978e5d6199de06401411960dfa81d2f762655f6206bdc61d46fc19e6610eee81611a0a565b600280811115610f0157610f00612b22565b5b600660009054906101000a900460ff166002811115610f2357610f22612b22565b5b03610f5a576040517f4f9ebfb700000000000000000000000000000000000000000000000000000000815260040160405180910390fd5b6002600660006101000a81548160ff02191690836002811115610f8057610f7f612b22565b5b02179055507f83ff33f831ff8d637dfebe12e813581690e41d25f854fb342d4a2cfe1999e62c7f0000000000000000000000000000000000000000000000000000000000000000600660009054906101000a900460ff16604051610fe5929190613937565b60405180910390a150565b6000610ffa611077565b73ffffffffffffffffffffffffffffffffffffffff168273ffffffffffffffffffffffffffffffffffffffff16149050919050565b60008060008373ffffffffffffffffffffffffffffffffffffffff1673ffffffffffffffffffffffffffffffffffffffff168152602001908152602001600020549050919050565b60007f0000000000000000000000000000000000000000000000000000000000000000905090565b7f000000000000000000000000000000000000000000000000000000000000000081565b60096020528060005260406000206000915054906101000a900460ff1681565b60006005600084815260200190815260200160002060000160008373ffffffffffffffffffffffffffffffffffffffff1673ffffffffffffffffffffffffffffffffffffffff16815260200190815260200160002060009054906101000a900460ff16905092915050565b60606004805461115d906133c9565b80601f0160208091040260200160405190810160405280929190818152602001828054611189906133c9565b80156111d65780601f106111ab576101008083540402835291602001916111d6565b820191906000526020600020905b8154815290600101906020018083116111b957829003601f168201915b5050505050905090565b60086020528060005260406000206000915054906101000a900460ff1681565b6000801b81565b600080611212611860565b905061121f818585611916565b600191505092915050565b7f20b5f7ac978e5d6199de06401411960dfa81d2f762655f6206bdc61d46fc19e661125481611a0a565b6000600281111561126857611267612b22565b5b600660009054906101000a900460ff16600281111561128a57611289612b22565b5b146112c1576040517f80cb55e200000000000000000000000000000000000000000000000000000000815260040160405180910390fd5b6001600660006101000a81548160ff021916908360028111156112e7576112e6612b22565b5b02179055507f83ff33f831ff8d637dfebe12e813581690e41d25f854fb342d4a2cfe1999e62c7f0000000000000000000000000000000000000000000000000000000000000000600660009054906101000a900460ff1660405161134c929190613937565b60405180910390a150565b611369611362611860565b6000611c03565b565b7f20b5f7ac978e5d6199de06401411960dfa81d2f762655f6206bdc61d46fc19e661139581611a0a565b600060028111156113a9576113a8612b22565b5b600660009054906101000a900460ff1660028111156113cb576113ca612b22565b5b14611402576040517f3842dc5400000000000000000000000000000000000000000000000000000000815260040160405180910390fd5b600073ffffffffffffffffffffffffffffffffffffffff168373ffffffffffffffffffffffffffffffffffffffff1603611468576040517f9c8d2cd200000000000000000000000000000000000000000000000000000000815260040160405180910390fd5b600082036114a2576040517f2c5211c600000000000000000000000000000000000000000000000000000000815260040160405180910390fd5b6114ac838361201a565b8273ffffffffffffffffffffffffffffffffffffffff167f472f36e28bb47edb7c69c9e2ac00a77c66b505df54e9c818ac57110b0629e8c3836040516114f29190612b07565b60405180910390a2505050565b600063bc197c8160e01b905095945050505050565b61151d82610a59565b61152681611a0a565b6115308383611b10565b50505050565b6000600160008473ffffffffffffffffffffffffffffffffffffffff1673ffffffffffffffffffffffffffffffffffffffff16815260200190815260200160002060008373ffffffffffffffffffffffffffffffffffffffff1673ffffffffffffffffffffffffffffffffffffffff16815260200190815260200160002054905092915050565b7f000000000000000000000000000000000000000000000000000000000000000081565b600063f23a6e6160e01b905095945050505050565b7f20b5f7ac978e5d6199de06401411960dfa81d2f762655f6206bdc61d46fc19e661162081611a0a565b6000600281111561163457611633612b22565b5b600660009054906101000a900460ff16600281111561165657611655612b22565b5b1461168d576040517f3842dc5400000000000000000000000000000000000000000000000000000000815260040160405180910390fd5b600082036116c7576040517f2c5211c600000000000000000000000000000000000000000000000000000000815260040160405180910390fd5b60008484905003611704576040517f91c0aaa200000000000000000000000000000000000000000000000000000000815260040160405180910390fd5b60005b848490508110156117df576000858583818110611727576117266134c8565b5b905060200201602081019061173c9190612acb565b9050600073ffffffffffffffffffffffffffffffffffffffff168173ffffffffffffffffffffffffffffffffffffffff16146117cb5761177c818561201a565b8073ffffffffffffffffffffffffffffffffffffffff167f472f36e28bb47edb7c69c9e2ac00a77c66b505df54e9c818ac57110b0629e8c3856040516117c29190612b07565b60405180910390a25b5080806117d7906138ef565b915050611707565b5050505050565b60007f4e2312e0000000000000000000000000000000000000000000000000000000007bffffffffffffffffffffffffffffffffffffffffffffffffffffffff1916827bffffffffffffffffffffffffffffffffffffffffffffffffffffffff1916148061185957506118588261209c565b5b9050919050565b600061186a612116565b905090565b61187c8383836001612182565b505050565b600061188d8484611536565b90507fffffffffffffffffffffffffffffffffffffffffffffffffffffffffffffffff8110156119105781811015611900578281836040517ffb8f41b20000000000000000000000000000000000000000000000000000000081526004016118f793929190613960565b60405180910390fd5b61190f84848484036000612182565b5b50505050565b600073ffffffffffffffffffffffffffffffffffffffff168373ffffffffffffffffffffffffffffffffffffffff16036119885760006040517f96c6fd1e00000000000000000000000000000000000000000000000000000000815260040161197f9190612e94565b60405180910390fd5b600073ffffffffffffffffffffffffffffffffffffffff168273ffffffffffffffffffffffffffffffffffffffff16036119fa5760006040517fec442f050000000000000000000000000000000000000000000000000000000081526004016119f19190612e94565b60405180910390fd5b611a05838383612359565b505050565b611a1b81611a16611860565b612446565b50565b6000611a2a83836110e3565b611b055760016005600085815260200190815260200160002060000160008473ffffffffffffffffffffffffffffffffffffffff1673ffffffffffffffffffffffffffffffffffffffff16815260200190815260200160002060006101000a81548160ff021916908315150217905550611aa2611860565b73ffffffffffffffffffffffffffffffffffffffff168273ffffffffffffffffffffffffffffffffffffffff16847f2f8788117e7eff1d82e926ec794901d17c78024a50270940304540a733656f0d60405160405180910390a460019050611b0a565b600090505b92915050565b6000611b1c83836110e3565b15611bf85760006005600085815260200190815260200160002060000160008473ffffffffffffffffffffffffffffffffffffffff1673ffffffffffffffffffffffffffffffffffffffff16815260200190815260200160002060006101000a81548160ff021916908315150217905550611b95611860565b73ffffffffffffffffffffffffffffffffffffffff168273ffffffffffffffffffffffffffffffffffffffff16847ff6391f5c32d9c69d2a47ea670b442974b53935d1edc7fd64eb21e047a839171b60405160405180910390a460019050611bfd565b600090505b92915050565b60016002811115611c1757611c16612b22565b5b600660009054906101000a900460ff166002811115611c3957611c38612b22565b5b14611c70576040517f114129f000000000000000000000000000000000000000000000000000000000815260040160405180910390fd5b60007f000000000000000000000000000000000000000000000000000000000000000073ffffffffffffffffffffffffffffffffffffffff166345e1b42c7f0000000000000000000000000000000000000000000000000000000000000000856040518363ffffffff1660e01b8152600401611ced9291906133fa565b602060405180830381865afa158015611d0a573d6000803e3d6000fd5b505050506040513d601f19601f82011682018060405250810190611d2e9190613438565b905060008103611d6a576040517f68d843f100000000000000000000000000000000000000000000000000000000815260040160405180910390fd5b600960008473ffffffffffffffffffffffffffffffffffffffff1673ffffffffffffffffffffffffffffffffffffffff16815260200190815260200160002060009054906101000a900460ff1615611dee576040517f300dd77900000000000000000000000000000000000000000000000000000000815260040160405180910390fd5b600082821115611e07578282611e049190613494565b90505b6000811115611e70576000611e1b8561102f565b905081811015611e645780826040517fec6bf848000000000000000000000000000000000000000000000000000000008152600401611e5b929190613892565b60405180910390fd5b611e6e8583612497565b505b81600760008673ffffffffffffffffffffffffffffffffffffffff1673ffffffffffffffffffffffffffffffffffffffff168152602001908152602001600020819055506001600960008673ffffffffffffffffffffffffffffffffffffffff1673ffffffffffffffffffffffffffffffffffffffff16815260200190815260200160002060006101000a81548160ff0219169083151502179055506002600860008673ffffffffffffffffffffffffffffffffffffffff1673ffffffffffffffffffffffffffffffffffffffff16815260200190815260200160002060006101000a81548160ff02191690836002811115611f6f57611f6e612b22565b5b02179055508373ffffffffffffffffffffffffffffffffffffffff167fea6c029757711e3bf5e8958ba57d94459b2e5b84a40eed9d21e4390e1e1f6e866002604051611fbb9190612eeb565b60405180910390a28373ffffffffffffffffffffffffffffffffffffffff167fcd3331a9bec0aed59a9fbe480a5b8e9f713e86e4b4105ac2628cfe4b9d6a6e7583600060405161200c9291906139d2565b60405180910390a250505050565b600073ffffffffffffffffffffffffffffffffffffffff168273ffffffffffffffffffffffffffffffffffffffff160361208c5760006040517fec442f050000000000000000000000000000000000000000000000000000000081526004016120839190612e94565b60405180910390fd5b61209860008383612359565b5050565b60007f7965db0b000000000000000000000000000000000000000000000000000000007bffffffffffffffffffffffffffffffffffffffffffffffffffffffff1916827bffffffffffffffffffffffffffffffffffffffffffffffffffffffff1916148061210f575061210e82612519565b5b9050919050565b60008060003690509050600061212a612583565b9050808210158015612141575061214033610ff0565b5b156121725760003682840390809261215b93929190613a05565b906121669190613a84565b60601c9250505061217f565b61217a612592565b925050505b90565b600073ffffffffffffffffffffffffffffffffffffffff168473ffffffffffffffffffffffffffffffffffffffff16036121f45760006040517fe602df050000000000000000000000000000000000000000000000000000000081526004016121eb9190612e94565b60405180910390fd5b600073ffffffffffffffffffffffffffffffffffffffff168373ffffffffffffffffffffffffffffffffffffffff16036122665760006040517f94280d6200000000000000000000000000000000000000000000000000000000815260040161225d9190612e94565b60405180910390fd5b81600160008673ffffffffffffffffffffffffffffffffffffffff1673ffffffffffffffffffffffffffffffffffffffff16815260200190815260200160002060008573ffffffffffffffffffffffffffffffffffffffff1673ffffffffffffffffffffffffffffffffffffffff168152602001908152602001600020819055508015612353578273ffffffffffffffffffffffffffffffffffffffff168473ffffffffffffffffffffffffffffffffffffffff167f8c5be1e5ebec7d5bd14f71427d1e84f3dd0314c0f7b2291e5b200ac8c7c3b9258460405161234a9190612b07565b60405180910390a35b50505050565b600073ffffffffffffffffffffffffffffffffffffffff168373ffffffffffffffffffffffffffffffffffffffff16141580156123c35750600073ffffffffffffffffffffffffffffffffffffffff168273ffffffffffffffffffffffffffffffffffffffff1614155b1561243657600060028111156123dc576123db612b22565b5b600660009054906101000a900460ff1660028111156123fe576123fd612b22565b5b14612435576040517fe827105e00000000000000000000000000000000000000000000000000000000815260040160405180910390fd5b5b61244183838361259a565b505050565b61245082826110e3565b6124935780826040517fe2517d3f00000000000000000000000000000000000000000000000000000000815260040161248a929190613ae3565b60405180910390fd5b5050565b600073ffffffffffffffffffffffffffffffffffffffff168273ffffffffffffffffffffffffffffffffffffffff16036125095760006040517f96c6fd1e0000000000000000000000000000000000000000000000000000000081526004016125009190612e94565b60405180910390fd5b61251582600083612359565b5050565b60007f01ffc9a7000000000000000000000000000000000000000000000000000000007bffffffffffffffffffffffffffffffffffffffffffffffffffffffff1916827bffffffffffffffffffffffffffffffffffffffffffffffffffffffff1916149050919050565b600061258d6127bf565b905090565b600033905090565b600073ffffffffffffffffffffffffffffffffffffffff168373ffffffffffffffffffffffffffffffffffffffff16036125ec5780600260008282546125e091906138bb565b925050819055506126bf565b60008060008573ffffffffffffffffffffffffffffffffffffffff1673ffffffffffffffffffffffffffffffffffffffff16815260200190815260200160002054905081811015612678578381836040517fe450d38c00000000000000000000000000000000000000000000000000000000815260040161266f93929190613960565b60405180910390fd5b8181036000808673ffffffffffffffffffffffffffffffffffffffff1673ffffffffffffffffffffffffffffffffffffffff16815260200190815260200160002081905550505b600073ffffffffffffffffffffffffffffffffffffffff168273ffffffffffffffffffffffffffffffffffffffff16036127085780600260008282540392505081905550612755565b806000808473ffffffffffffffffffffffffffffffffffffffff1673ffffffffffffffffffffffffffffffffffffffff168152602001908152602001600020600082825401925050819055505b8173ffffffffffffffffffffffffffffffffffffffff168373ffffffffffffffffffffffffffffffffffffffff167fddf252ad1be2c89b69c2b068fc378daa952ba7f163c4a11628f55a4df523b3ef836040516127b29190612b07565b60405180910390a3505050565b60006014905090565b6000604051905090565b600080fd5b600080fd5b60007fffffffff0000000000000000000000000000000000000000000000000000000082169050919050565b612811816127dc565b811461281c57600080fd5b50565b60008135905061282e81612808565b92915050565b60006020828403121561284a576128496127d2565b5b60006128588482850161281f565b91505092915050565b60008115159050919050565b61287681612861565b82525050565b6000602082019050612891600083018461286d565b92915050565b600073ffffffffffffffffffffffffffffffffffffffff82169050919050565b6000819050919050565b60006128dc6128d76128d284612897565b6128b7565b612897565b9050919050565b60006128ee826128c1565b9050919050565b6000612900826128e3565b9050919050565b612910816128f5565b82525050565b600060208201905061292b6000830184612907565b92915050565b600081519050919050565b600082825260208201905092915050565b60005b8381101561296b578082015181840152602081019050612950565b60008484015250505050565b6000601f19601f8301169050919050565b600061299382612931565b61299d818561293c565b93506129ad81856020860161294d565b6129b681612977565b840191505092915050565b600060208201905081810360008301526129db8184612988565b905092915050565b60006129ee82612897565b9050919050565b6129fe816129e3565b8114612a0957600080fd5b50565b600081359050612a1b816129f5565b92915050565b6000819050919050565b612a3481612a21565b8114612a3f57600080fd5b50565b600081359050612a5181612a2b565b92915050565b60008060408385031215612a6e57612a6d6127d2565b5b6000612a7c85828601612a0c565b9250506020612a8d85828601612a42565b9150509250929050565b6000819050919050565b612aaa81612a97565b82525050565b6000602082019050612ac56000830184612aa1565b92915050565b600060208284031215612ae157612ae06127d2565b5b6000612aef84828501612a0c565b91505092915050565b612b0181612a21565b82525050565b6000602082019050612b1c6000830184612af8565b92915050565b7f4e487b7100000000000000000000000000000000000000000000000000000000600052602160045260246000fd5b60038110612b6257612b61612b22565b5b50565b6000819050612b7382612b51565b919050565b6000612b8382612b65565b9050919050565b612b9381612b78565b82525050565b6000602082019050612bae6000830184612b8a565b92915050565b600063ffffffff82169050919050565b612bcd81612bb4565b82525050565b60038110612be457612be3612b22565b5b50565b6000819050612bf582612bd3565b919050565b6000612c0582612be7565b9050919050565b612c1581612bfa565b82525050565b600060c082019050612c306000830189612bc4565b612c3d6020830188612af8565b612c4a6040830187612af8565b612c576060830186612af8565b612c646080830185612af8565b612c7160a0830184612c0c565b979650505050505050565b600080600060608486031215612c9557612c946127d2565b5b6000612ca386828701612a0c565b9350506020612cb486828701612a0c565b9250506040612cc586828701612a42565b9150509250925092565b612cd881612a97565b8114612ce357600080fd5b50565b600081359050612cf581612ccf565b92915050565b600060208284031215612d1157612d106127d2565b5b6000612d1f84828501612ce6565b91505092915050565b60008060408385031215612d3f57612d3e6127d2565b5b6000612d4d85828601612ce6565b9250506020612d5e85828601612a0c565b9150509250929050565b600060ff82169050919050565b612d7e81612d68565b82525050565b6000602082019050612d996000830184612d75565b92915050565b600080fd5b600080fd5b600080fd5b60008083601f840112612dc457612dc3612d9f565b5b8235905067ffffffffffffffff811115612de157612de0612da4565b5b602083019150836020820283011115612dfd57612dfc612da9565b5b9250929050565b60008060008060408587031215612e1e57612e1d6127d2565b5b600085013567ffffffffffffffff811115612e3c57612e3b6127d7565b5b612e4887828801612dae565b9450945050602085013567ffffffffffffffff811115612e6b57612e6a6127d7565b5b612e7787828801612dae565b925092505092959194509250565b612e8e816129e3565b82525050565b6000602082019050612ea96000830184612e85565b92915050565b6000612eba826128e3565b9050919050565b612eca81612eaf565b82525050565b6000602082019050612ee56000830184612ec1565b92915050565b6000602082019050612f006000830184612c0c565b92915050565b7f4e487b7100000000000000000000000000000000000000000000000000000000600052604160045260246000fd5b612f3e82612977565b810181811067ffffffffffffffff82111715612f5d57612f5c612f06565b5b80604052505050565b6000612f706127c8565b9050612f7c8282612f35565b919050565b600067ffffffffffffffff821115612f9c57612f9b612f06565b5b602082029050602081019050919050565b6000612fc0612fbb84612f81565b612f66565b90508083825260208201905060208402830185811115612fe357612fe2612da9565b5b835b8181101561300c5780612ff88882612a42565b845260208401935050602081019050612fe5565b5050509392505050565b600082601f83011261302b5761302a612d9f565b5b813561303b848260208601612fad565b91505092915050565b600080fd5b600067ffffffffffffffff82111561306457613063612f06565b5b61306d82612977565b9050602081019050919050565b82818337600083830152505050565b600061309c61309784613049565b612f66565b9050828152602081018484840111156130b8576130b7613044565b5b6130c384828561307a565b509392505050565b600082601f8301126130e0576130df612d9f565b5b81356130f0848260208601613089565b91505092915050565b600080600080600060a08688031215613115576131146127d2565b5b600061312388828901612a0c565b955050602061313488828901612a0c565b945050604086013567ffffffffffffffff811115613155576131546127d7565b5b61316188828901613016565b935050606086013567ffffffffffffffff811115613182576131816127d7565b5b61318e88828901613016565b925050608086013567ffffffffffffffff8111156131af576131ae6127d7565b5b6131bb888289016130cb565b9150509295509295909350565b6131d1816127dc565b82525050565b60006020820190506131ec60008301846131c8565b92915050565b60008060408385031215613209576132086127d2565b5b600061321785828601612a0c565b925050602061322885828601612a0c565b9150509250929050565b60006020820190506132476000830184612bc4565b92915050565b600080600080600060a08688031215613269576132686127d2565b5b600061327788828901612a0c565b955050602061328888828901612a0c565b945050604061329988828901612a42565b93505060606132aa88828901612a42565b925050608086013567ffffffffffffffff8111156132cb576132ca6127d7565b5b6132d7888289016130cb565b9150509295509295909350565b60008083601f8401126132fa576132f9612d9f565b5b8235905067ffffffffffffffff81111561331757613316612da4565b5b60208301915083602082028301111561333357613332612da9565b5b9250929050565b600080600060408486031215613353576133526127d2565b5b600084013567ffffffffffffffff811115613371576133706127d7565b5b61337d868287016132e4565b9350935050602061339086828701612a42565b9150509250925092565b7f4e487b7100000000000000000000000000000000000000000000000000000000600052602260045260246000fd5b600060028204905060018216806133e157607f821691505b6020821081036133f4576133f361339a565b5b50919050565b600060408201905061340f6000830185612bc4565b61341c6020830184612e85565b9392505050565b60008151905061343281612a2b565b92915050565b60006020828403121561344e5761344d6127d2565b5b600061345c84828501613423565b91505092915050565b7f4e487b7100000000000000000000000000000000000000000000000000000000600052601160045260246000fd5b600061349f82612a21565b91506134aa83612a21565b92508282039050818111156134c2576134c1613465565b5b92915050565b7f4e487b7100000000000000000000000000000000000000000000000000000000600052603260045260246000fd5b600080fd5b600080fd5b600067ffffffffffffffff82111561351c5761351b612f06565b5b61352582612977565b9050602081019050919050565b600061354561354084613501565b612f66565b90508281526020810184848401111561356157613560613044565b5b61356c84828561294d565b509392505050565b600082601f83011261358957613588612d9f565b5b8151613599848260208601613532565b91505092915050565b600061ffff82169050919050565b6135b9816135a2565b81146135c457600080fd5b50565b6000815190506135d6816135b0565b92915050565b6000608082840312156135f2576135f16134f7565b5b6135fc6080612f66565b9050600082015167ffffffffffffffff81111561361c5761361b6134fc565b5b61362884828501613574565b600083015250602061363c848285016135c7565b602083015250604082015167ffffffffffffffff8111156136605761365f6134fc565b5b61366c84828501613574565b604083015250606082015167ffffffffffffffff8111156136905761368f6134fc565b5b61369c84828501613574565b60608301525092915050565b600281106136b557600080fd5b50565b6000815190506136c7816136a8565b92915050565b6000815190506136dc81612ccf565b92915050565b600067ffffffffffffffff82169050919050565b6136ff816136e2565b811461370a57600080fd5b50565b60008151905061371c816136f6565b92915050565b60008060008060008060c0878903121561373f5761373e6127d2565b5b600087015167ffffffffffffffff81111561375d5761375c6127d7565b5b61376989828a016135dc565b965050602061377a89828a016136b8565b955050604061378b89828a016136cd565b945050606061379c89828a0161370d565b93505060806137ad89828a0161370d565b92505060a06137be89828a01613423565b9150509295509295509295565b6137d4816135a2565b82525050565b60006040820190506137ef60008301856137cb565b6137fc6020830184612bc4565b9392505050565b600082825260208201905092915050565b50565b6000613824600083613803565b915061382f82613814565b600082019050919050565b600060a08201905061384f6000830187612e85565b61385c6020830186612e85565b6138696040830185612af8565b6138766060830184612af8565b818103608083015261388781613817565b905095945050505050565b60006040820190506138a76000830185612af8565b6138b46020830184612af8565b9392505050565b60006138c682612a21565b91506138d183612a21565b92508282019050808211156138e9576138e8613465565b5b92915050565b60006138fa82612a21565b91507fffffffffffffffffffffffffffffffffffffffffffffffffffffffffffffffff820361392c5761392b613465565b5b600182019050919050565b600060408201905061394c6000830185612bc4565b6139596020830184612b8a565b9392505050565b60006060820190506139756000830186612e85565b6139826020830185612af8565b61398f6040830184612af8565b949350505050565b6000819050919050565b60006139bc6139b76139b284613997565b6128b7565b612a21565b9050919050565b6139cc816139a1565b82525050565b60006040820190506139e76000830185612af8565b6139f460208301846139c3565b9392505050565b600080fd5b600080fd5b60008085851115613a1957613a186139fb565b5b83861115613a2a57613a29613a00565b5b6001850283019150848603905094509492505050565b600082905092915050565b60007fffffffffffffffffffffffffffffffffffffffff00000000000000000000000082169050919050565b600082821b905092915050565b6000613a908383613a40565b82613a9b8135613a4b565b92506014821015613adb57613ad67fffffffffffffffffffffffffffffffffffffffff00000000000000000000000083601403600802613a77565b831692505b505092915050565b6000604082019050613af86000830185612e85565b613b056020830184612aa1565b939250505056fea2646970667358221220fcaeaf6c66dfcd573fee04c17cfc5e23f7ea007e385c391a4ce9c9028a059d1164736f6c63430008140033",
  "linkReferences": {},
  "deployedLinkReferences": {}
}