{
  "_format": "hh-sol-artifact-1",
  "contractName": "PTBAEFactory",
  "sourceName": "contracts/PTBAEFactory.sol",
  "abi": [
    {
      "inputs": [
        {
          "internalType": "address",
          "name": "admin",
          "type": "address"
        },
        {
          "internalType": "address",
          "name": "regulator",
          "type": "address"
        },
        {
          "internalType": "uint32",
          "name": "initialPeriod",
          "type": "uint32"
        }
      ],
      "stateMutability": "nonpayable",
      "type": "constructor"
    },
    {
      "inputs": [],
      "name": "AccessControlBadConfirmation",
      "type": "error"
    },
    {
      "inputs": [
        {
          "internalType": "address",
          "name": "account",
          "type": "address"
        },
        {
          "internalType": "bytes32",
          "name": "neededRole",
          "type": "bytes32"
        }
      ],
      "name": "AccessControlUnauthorizedAccount",
      "type": "error"
    },
    {
      "anonymous": false,
      "inputs": [
        {
          "indexed": true,
          "internalType": "uint32",
          "name": "period",
          "type": "uint32"
        },
        {
          "indexed": false,
          "internalType": "address",
          "name": "token",
          "type": "address"
        }
      ],
      "name": "PeriodOpened",
      "type": "event"
    },
    {
      "anonymous": false,
      "inputs": [
        {
          "indexed": true,
          "internalType": "bytes32",
          "name": "role",
          "type": "bytes32"
        },
        {
          "indexed": true,
          "internalType": "bytes32",
          "name": "previousAdminRole",
          "type": "bytes32"
        },
        {
          "indexed": true,
          "internalType": "bytes32",
          "name": "newAdminRole",
          "type": "bytes32"
        }
      ],
      "name": "RoleAdminChanged",
      "type": "event"
    },
    {
      "anonymous": false,
      "inputs": [
        {
          "indexed": true,
          "internalType": "bytes32",
          "name": "role",
          "type": "bytes32"
        },
        {
          "indexed": true,
          "internalType": "address",
          "name": "account",
          "type": "address"
        },
        {
          "indexed": true,
          "internalType": "address",
          "name": "sender",
          "type": "address"
        }
      ],
      "name": "RoleGranted",
      "type": "event"
    },
    {
      "anonymous": false,
      "inputs": [
        {
          "indexed": true,
          "internalType": "bytes32",
          "name": "role",
          "type": "bytes32"
        },
        {
          "indexed": true,
          "internalType": "address",
          "name": "account",
          "type": "address"
        },
        {
          "indexed": true,
          "internalType": "address",
          "name": "sender",
          "type": "address"
        }
      ],
      "name": "RoleRevoked",
      "type": "event"
    },
    {
      "inputs": [],
      "name": "DEFAULT_ADMIN_ROLE",
      "outputs": [
        {
          "internalType": "bytes32",
          "name": "",
          "type": "bytes32"
        }
      ],
      "stateMutability": "view",
      "type": "function"
    },
    {
      "inputs": [],
      "name": "REGULATOR_ROLE",
      "outputs": [
        {
          "internalType": "bytes32",
          "name": "",
          "type": "bytes32"
        }
      ],
      "stateMutability": "view",
      "type": "function"
    },
    {
      "inputs": [],
      "name": "currentPeriod",
      "outputs": [
        {
          "internalType": "uint32",
          "name": "",
          "type": "uint32"
        }
      ],
      "stateMutability": "view",
      "type": "function"
    },
    {
      "inputs": [
        {
          "internalType": "bytes32",
          "name": "role",
          "type": "bytes32"
        }
      ],
      "name": "getRoleAdmin",
      "outputs": [
        {
          "internalType": "bytes32",
          "name": "",
          "type": "bytes32"
        }
      ],
      "stateMutability": "view",
      "type": "function"
    },
    {
      "inputs": [
        {
          "internalType": "bytes32",
          "name": "role",
          "type": "bytes32"
        },
        {
          "internalType": "address",
          "name": "account",
          "type": "address"
        }
      ],
      "name": "grantRole",
      "outputs": [],
      "stateMutability": "nonpayable",
      "type": "function"
    },
    {
      "inputs": [
        {
          "internalType": "bytes32",
          "name": "role",
          "type": "bytes32"
        },
        {
          "internalType": "address",
          "name": "account",
          "type": "address"
        }
      ],
      "name": "hasRole",
      "outputs": [
        {
          "internalType": "bool",
          "name": "",
          "type": "bool"
        }
      ],
      "stateMutability": "view",
      "type": "function"
    },
    {
      "inputs": [
        {
          "internalType": "uint32",
          "name": "newPeriod",
          "type": "uint32"
        }
      ],
      "name": "openPeriod",
      "outputs": [],
      "stateMutability": "nonpayable",
      "type": "function"
    },
    {
      "inputs": [
        {
          "internalType": "bytes32",
          "name": "role",
          "type": "bytes32"
        },
        {
          "internalType": "address",
          "name": "callerConfirmation",
          "type": "address"
        }
      ],
      "name": "renounceRole",
      "outputs": [],
      "stateMutability": "nonpayable",
      "type": "function"
    },
    {
      "inputs": [
        {
          "internalType": "bytes32",
          "name": "role",
          "type": "bytes32"
        },
        {
          "internalType": "address",
          "name": "account",
          "type": "address"
        }
      ],
      "name": "revokeRole",
      "outputs": [],
      "stateMutability": "nonpayable",
      "type": "function"
    },
    {
      "inputs": [
        {
          "internalType": "bytes4",
          "name": "interfaceId",
          "type": "bytes4"
        }
      ],
      "name": "supportsInterface",
      "outputs": [
        {
          "internalType": "bool",
          "name": "",
          "type": "bool"
        }
      ],
      "stateMutability": "view",
      "type": "function"
    },
    {
      "inputs": [
        {
          "internalType": "uint32",
          "name": "",
          "type": "uint32"
        }
      ],
      "name": "tokenByPeriod",
      "outputs": [
        {
          "internalType": "address",
          "name": "",
          "type": "address"
        }
      ],
      "stateMutability": "view",
      "type": "function"
    }
  ],
  "bytecode": "0x60806040523480156200001157600080fd5b50604051620061cb380380620061cb8339818101604052810190620000379190620003ce565b6200004c6000801b846200009b60201b60201c565b506200007f7f20b5f7ac978e5d6199de06401411960dfa81d2f762655f6206bdc61d46fc19e6836200009b60201b60201c565b506200009281836200019e60201b60201c565b505050620004a6565b6000620000af8383620002a360201b60201c565b6200019357600160008085815260200190815260200160002060000160008473ffffffffffffffffffffffffffffffffffffffff1673ffffffffffffffffffffffffffffffffffffffff16815260200190815260200160002060006101000a81548160ff0219169083151502179055506200012f6200030d60201b60201c565b73ffffffffffffffffffffffffffffffffffffffff168273ffffffffffffffffffffffffffffffffffffffff16847f2f8788117e7eff1d82e926ec794901d17c78024a50270940304540a733656f0d60405160405180910390a46001905062000198565b600090505b92915050565b81600160006101000a81548163ffffffff021916908363ffffffff1602179055506000818284604051620001d29062000315565b620001e0939291906200044c565b604051809103906000f080158015620001fd573d6000803e3d6000fd5b50905080600260008563ffffffff1663ffffffff16815260200190815260200160002060006101000a81548173ffffffffffffffffffffffffffffffffffffffff021916908373ffffffffffffffffffffffffffffffffffffffff1602179055508263ffffffff167f929be4f7daefbf16218cee1dcd5724b20d4b86f59e79b37318ce08f783935bd78260405162000296919062000489565b60405180910390a2505050565b600080600084815260200190815260200160002060000160008373ffffffffffffffffffffffffffffffffffffffff1673ffffffffffffffffffffffffffffffffffffffff16815260200190815260200160002060009054906101000a900460ff16905092915050565b600033905090565b6127bd8062003a0e83390190565b600080fd5b600073ffffffffffffffffffffffffffffffffffffffff82169050919050565b6000620003558262000328565b9050919050565b620003678162000348565b81146200037357600080fd5b50565b60008151905062000387816200035c565b92915050565b600063ffffffff82169050919050565b620003a8816200038d565b8114620003b457600080fd5b50565b600081519050620003c8816200039d565b92915050565b600080600060608486031215620003ea57620003e962000323565b5b6000620003fa8682870162000376565b93505060206200040d8682870162000376565b92505060406200042086828701620003b7565b9150509250925092565b620004358162000348565b82525050565b62000446816200038d565b82525050565b60006060820190506200046360008301866200042a565b6200047260208301856200042a565b6200048160408301846200043b565b949350505050565b6000602082019050620004a060008301846200042a565b92915050565b61355880620004b66000396000f3fe60806040523480156200001157600080fd5b5060043610620000b85760003560e01c80632f2ff15d116200007b5780632f2ff15d14620001a357806336568abe14620001c357806344987a4614620001e357806391d148541462000203578063a217fddf1462000239578063d547741f146200025b57620000b8565b806301ffc9a714620000bd5780630604061814620000f3578063144bf589146200011557806315f2b78e1462000137578063248a9ca3146200016d575b600080fd5b620000db6004803603810190620000d59190620009f6565b6200027b565b604051620000ea919062000a45565b60405180910390f35b620000fd620002f8565b6040516200010c919062000a83565b60405180910390f35b6200011f6200030e565b6040516200012e919062000abb565b60405180910390f35b6200015560048036038101906200014f919062000b09565b62000332565b60405162000164919062000b80565b60405180910390f35b6200018b600480360381019062000185919062000bce565b62000365565b6040516200019a919062000abb565b60405180910390f35b620001c16004803603810190620001bb919062000c31565b62000384565b005b620001e16004803603810190620001db919062000c31565b620003ac565b005b620002016004803603810190620001fb919062000b09565b6200042c565b005b6200022160048036038101906200021b919062000c31565b62000519565b60405162000230919062000a45565b60405180910390f35b6200024362000583565b60405162000252919062000abb565b60405180910390f35b62000279600480360381019062000273919062000c31565b6200058a565b005b60007f7965db0b000000000000000000000000000000000000000000000000000000007bffffffffffffffffffffffffffffffffffffffffffffffffffffffff1916827bffffffffffffffffffffffffffffffffffffffffffffffffffffffff19161480620002f15750620002f082620005b2565b5b9050919050565b600160009054906101000a900463ffffffff1681565b7f20b5f7ac978e5d6199de06401411960dfa81d2f762655f6206bdc61d46fc19e681565b60026020528060005260406000206000915054906101000a900473ffffffffffffffffffffffffffffffffffffffff1681565b6000806000838152602001908152602001600020600101549050919050565b6200038f8262000365565b6200039a816200061c565b620003a6838362000634565b50505050565b620003b66200072b565b73ffffffffffffffffffffffffffffffffffffffff168173ffffffffffffffffffffffffffffffffffffffff16146200041b576040517f6697b23200000000000000000000000000000000000000000000000000000000815260040160405180910390fd5b62000427828262000733565b505050565b7f20b5f7ac978e5d6199de06401411960dfa81d2f762655f6206bdc61d46fc19e662000458816200061c565b600073ffffffffffffffffffffffffffffffffffffffff16600260008463ffffffff1663ffffffff16815260200190815260200160002060009054906101000a900473ffffffffffffffffffffffffffffffffffffffff1673ffffffffffffffffffffffffffffffffffffffff161462000509576040517f08c379a0000000000000000000000000000000000000000000000000000000008152600401620005009062000cd9565b60405180910390fd5b6200051582336200082b565b5050565b600080600084815260200190815260200160002060000160008373ffffffffffffffffffffffffffffffffffffffff1673ffffffffffffffffffffffffffffffffffffffff16815260200190815260200160002060009054906101000a900460ff16905092915050565b6000801b81565b620005958262000365565b620005a0816200061c565b620005ac838362000733565b50505050565b60007f01ffc9a7000000000000000000000000000000000000000000000000000000007bffffffffffffffffffffffffffffffffffffffffffffffffffffffff1916827bffffffffffffffffffffffffffffffffffffffffffffffffffffffff1916149050919050565b62000631816200062b6200072b565b62000930565b50565b600062000642838362000519565b6200072057600160008085815260200190815260200160002060000160008473ffffffffffffffffffffffffffffffffffffffff1673ffffffffffffffffffffffffffffffffffffffff16815260200190815260200160002060006101000a81548160ff021916908315150217905550620006bc6200072b565b73ffffffffffffffffffffffffffffffffffffffff168273ffffffffffffffffffffffffffffffffffffffff16847f2f8788117e7eff1d82e926ec794901d17c78024a50270940304540a733656f0d60405160405180910390a46001905062000725565b600090505b92915050565b600033905090565b600062000741838362000519565b156200082057600080600085815260200190815260200160002060000160008473ffffffffffffffffffffffffffffffffffffffff1673ffffffffffffffffffffffffffffffffffffffff16815260200190815260200160002060006101000a81548160ff021916908315150217905550620007bc6200072b565b73ffffffffffffffffffffffffffffffffffffffff168273ffffffffffffffffffffffffffffffffffffffff16847ff6391f5c32d9c69d2a47ea670b442974b53935d1edc7fd64eb21e047a839171b60405160405180910390a46001905062000825565b600090505b92915050565b81600160006101000a81548163ffffffff021916908363ffffffff16021790555060008182846040516200085f9062000986565b6200086d9392919062000cfb565b604051809103906000f0801580156200088a573d6000803e3d6000fd5b50905080600260008563ffffffff1663ffffffff16815260200190815260200160002060006101000a81548173ffffffffffffffffffffffffffffffffffffffff021916908373ffffffffffffffffffffffffffffffffffffffff1602179055508263ffffffff167f929be4f7daefbf16218cee1dcd5724b20d4b86f59e79b37318ce08f783935bd78260405162000923919062000b80565b60405180910390a2505050565b6200093c828262000519565b620009825780826040517fe2517d3f0000000000000000000000000000000000000000000000000000000081526004016200097992919062000d38565b60405180910390fd5b5050565b6127bd8062000d6683390190565b600080fd5b60007fffffffff0000000000000000000000000000000000000000000000000000000082169050919050565b620009d08162000999565b8114620009dc57600080fd5b50565b600081359050620009f081620009c5565b92915050565b60006020828403121562000a0f5762000a0e62000994565b5b600062000a1f84828501620009df565b91505092915050565b60008115159050919050565b62000a3f8162000a28565b82525050565b600060208201905062000a5c600083018462000a34565b92915050565b600063ffffffff82169050919050565b62000a7d8162000a62565b82525050565b600060208201905062000a9a600083018462000a72565b92915050565b6000819050919050565b62000ab58162000aa0565b82525050565b600060208201905062000ad2600083018462000aaa565b92915050565b62000ae38162000a62565b811462000aef57600080fd5b50565b60008135905062000b038162000ad8565b92915050565b60006020828403121562000b225762000b2162000994565b5b600062000b328482850162000af2565b91505092915050565b600073ffffffffffffffffffffffffffffffffffffffff82169050919050565b600062000b688262000b3b565b9050919050565b62000b7a8162000b5b565b82525050565b600060208201905062000b97600083018462000b6f565b92915050565b62000ba88162000aa0565b811462000bb457600080fd5b50565b60008135905062000bc88162000b9d565b92915050565b60006020828403121562000be75762000be662000994565b5b600062000bf78482850162000bb7565b91505092915050565b62000c0b8162000b5b565b811462000c1757600080fd5b50565b60008135905062000c2b8162000c00565b92915050565b6000806040838503121562000c4b5762000c4a62000994565b5b600062000c5b8582860162000bb7565b925050602062000c6e8582860162000c1a565b9150509250929050565b600082825260208201905092915050565b7f706572696f642065786973747300000000000000000000000000000000000000600082015250565b600062000cc1600d8362000c78565b915062000cce8262000c89565b602082019050919050565b6000602082019050818103600083015262000cf48162000cb2565b9050919050565b600060608201905062000d12600083018662000b6f565b62000d21602083018562000b6f565b62000d30604083018462000a72565b949350505050565b600060408201905062000d4f600083018562000b6f565b62000d5e602083018462000aaa565b939250505056fe60a06040523480156200001157600080fd5b50604051620027bd380380620027bd833981810160405281019062000037919062000351565b6040518060400160405280601281526020017f50544241452d505520416c6c6f77616e636500000000000000000000000000008152506040518060400160405280600581526020017f50544241450000000000000000000000000000000000000000000000000000008152508160039081620000b4919062000627565b508060049081620000c6919062000627565b5050508063ffffffff1660808163ffffffff1681525050620000f26000801b846200012f60201b60201c565b50620001257f20b5f7ac978e5d6199de06401411960dfa81d2f762655f6206bdc61d46fc19e6836200012f60201b60201c565b505050506200070e565b60006200014383836200023360201b60201c565b620002285760016005600085815260200190815260200160002060000160008473ffffffffffffffffffffffffffffffffffffffff1673ffffffffffffffffffffffffffffffffffffffff16815260200190815260200160002060006101000a81548160ff021916908315150217905550620001c46200029e60201b60201c565b73ffffffffffffffffffffffffffffffffffffffff168273ffffffffffffffffffffffffffffffffffffffff16847f2f8788117e7eff1d82e926ec794901d17c78024a50270940304540a733656f0d60405160405180910390a4600190506200022d565b600090505b92915050565b60006005600084815260200190815260200160002060000160008373ffffffffffffffffffffffffffffffffffffffff1673ffffffffffffffffffffffffffffffffffffffff16815260200190815260200160002060009054906101000a900460ff16905092915050565b600033905090565b600080fd5b600073ffffffffffffffffffffffffffffffffffffffff82169050919050565b6000620002d882620002ab565b9050919050565b620002ea81620002cb565b8114620002f657600080fd5b50565b6000815190506200030a81620002df565b92915050565b600063ffffffff82169050919050565b6200032b8162000310565b81146200033757600080fd5b50565b6000815190506200034b8162000320565b92915050565b6000806000606084860312156200036d576200036c620002a6565b5b60006200037d86828701620002f9565b93505060206200039086828701620002f9565b9250506040620003a3868287016200033a565b9150509250925092565b600081519050919050565b7f4e487b7100000000000000000000000000000000000000000000000000000000600052604160045260246000fd5b7f4e487b7100000000000000000000000000000000000000000000000000000000600052602260045260246000fd5b600060028204905060018216806200042f57607f821691505b602082108103620004455762000444620003e7565b5b50919050565b60008190508160005260206000209050919050565b60006020601f8301049050919050565b600082821b905092915050565b600060088302620004af7fffffffffffffffffffffffffffffffffffffffffffffffffffffffffffffffff8262000470565b620004bb868362000470565b95508019841693508086168417925050509392505050565b6000819050919050565b6000819050919050565b60006200050862000502620004fc84620004d3565b620004dd565b620004d3565b9050919050565b6000819050919050565b6200052483620004e7565b6200053c62000533826200050f565b8484546200047d565b825550505050565b600090565b6200055362000544565b6200056081848462000519565b505050565b5b8181101562000588576200057c60008262000549565b60018101905062000566565b5050565b601f821115620005d757620005a1816200044b565b620005ac8462000460565b81016020851015620005bc578190505b620005d4620005cb8562000460565b83018262000565565b50505b505050565b600082821c905092915050565b6000620005fc60001984600802620005dc565b1980831691505092915050565b6000620006178383620005e9565b9150826002028217905092915050565b6200063282620003ad565b67ffffffffffffffff8111156200064e576200064d620003b8565b5b6200065a825462000416565b620006678282856200058c565b600060209050601f8311600181146200069f57600084156200068a578287015190505b62000696858262000609565b86555062000706565b601f198416620006af866200044b565b60005b82811015620006d957848901518255600182019150602085019450602081019050620006b2565b86831015620006f95784890151620006f5601f891682620005e9565b8355505b6001600288020188555050505b505050505050565b60805161208c62000731600039600081816105c20152610a7f015261208c6000f3fe608060405234801561001057600080fd5b506004361061014d5760003560e01c806336568abe116100c3578063b78b52df1161007c578063b78b52df146103f0578063d547741f1461040c578063dd62ed3e14610428578063ef78d4fd14610458578063f93278b514610476578063fd61d10b146104925761014d565b806336568abe1461030857806370a082311461032457806391d148541461035457806395d89b4114610384578063a217fddf146103a2578063a9059cbb146103c05761014d565b806318160ddd1161011557806318160ddd1461021e57806323073b5d1461023c57806323b872dd1461026e578063248a9ca31461029e5780632f2ff15d146102ce578063313ce567146102ea5761014d565b806301ffc9a71461015257806306fdde0314610182578063095ea7b3146101a0578063144bf589146101d05780631586f91b146101ee575b600080fd5b61016c600480360381019061016791906117a8565b6104ae565b60405161017991906117f0565b60405180910390f35b61018a6104c0565b604051610197919061189b565b60405180910390f35b6101ba60048036038101906101b59190611951565b610552565b6040516101c791906117f0565b60405180910390f35b6101d8610575565b6040516101e591906119aa565b60405180910390f35b610208600480360381019061020391906119c5565b610599565b6040516102159190611a01565b60405180910390f35b6102266105b1565b6040516102339190611a01565b60405180910390f35b610256600480360381019061025191906119c5565b6105bb565b60405161026593929190611a3b565b60405180910390f35b61028860048036038101906102839190611a72565b610637565b60405161029591906117f0565b60405180910390f35b6102b860048036038101906102b39190611af1565b610666565b6040516102c591906119aa565b60405180910390f35b6102e860048036038101906102e39190611b1e565b610686565b005b6102f26106a8565b6040516102ff9190611b7a565b60405180910390f35b610322600480360381019061031d9190611b1e565b6106b1565b005b61033e600480360381019061033991906119c5565b61072c565b60405161034b9190611a01565b60405180910390f35b61036e60048036038101906103699190611b1e565b610774565b60405161037b91906117f0565b60405180910390f35b61038c6107df565b604051610399919061189b565b60405180910390f35b6103aa610871565b6040516103b791906119aa565b60405180910390f35b6103da60048036038101906103d59190611951565b610878565b6040516103e791906117f0565b60405180910390f35b61040a60048036038101906104059190611951565b61089b565b005b61042660048036038101906104219190611b1e565b6109d4565b005b610442600480360381019061043d9190611b95565b6109f6565b60405161044f9190611a01565b60405180910390f35b610460610a7d565b60405161046d9190611bd5565b60405180910390f35b610490600480360381019061048b9190611c55565b610aa1565b005b6104ac60048036038101906104a79190611cb5565b610c36565b005b60006104b982610d75565b9050919050565b6060600380546104cf90611d11565b80601f01602080910402602001604051908101604052809291908181526020018280546104fb90611d11565b80156105485780601f1061051d57610100808354040283529160200191610548565b820191906000526020600020905b81548152906001019060200180831161052b57829003601f168201915b5050505050905090565b60008061055d610def565b905061056a818585610df7565b600191505092915050565b7f20b5f7ac978e5d6199de06401411960dfa81d2f762655f6206bdc61d46fc19e681565b60066020528060005260406000206000915090505481565b6000600254905090565b60008060007f00000000000000000000000000000000000000000000000000000000000000006105ea8561072c565b600660008773ffffffffffffffffffffffffffffffffffffffff1673ffffffffffffffffffffffffffffffffffffffff168152602001908152602001600020549250925092509193909250565b600080610642610def565b905061064f858285610e09565b61065a858585610e9e565b60019150509392505050565b600060056000838152602001908152602001600020600101549050919050565b61068f82610666565b61069881610f92565b6106a28383610fa6565b50505050565b60006012905090565b6106b9610def565b73ffffffffffffffffffffffffffffffffffffffff168173ffffffffffffffffffffffffffffffffffffffff161461071d576040517f6697b23200000000000000000000000000000000000000000000000000000000815260040160405180910390fd5b6107278282611098565b505050565b60008060008373ffffffffffffffffffffffffffffffffffffffff1673ffffffffffffffffffffffffffffffffffffffff168152602001908152602001600020549050919050565b60006005600084815260200190815260200160002060000160008373ffffffffffffffffffffffffffffffffffffffff1673ffffffffffffffffffffffffffffffffffffffff16815260200190815260200160002060009054906101000a900460ff16905092915050565b6060600480546107ee90611d11565b80601f016020809104026020016040519081016040528092919081815260200182805461081a90611d11565b80156108675780601f1061083c57610100808354040283529160200191610867565b820191906000526020600020905b81548152906001019060200180831161084a57829003601f168201915b5050505050905090565b6000801b81565b600080610883610def565b9050610890818585610e9e565b600191505092915050565b7f20b5f7ac978e5d6199de06401411960dfa81d2f762655f6206bdc61d46fc19e66108c581610f92565b600073ffffffffffffffffffffffffffffffffffffffff168373ffffffffffffffffffffffffffffffffffffffff1603610934576040517f08c379a000000000000000000000000000000000000000000000000000000000815260040161092b90611d8e565b60405180910390fd5b60008211610977576040517f08c379a000000000000000000000000000000000000000000000000000000000815260040161096e90611dfa565b60405180910390fd5b610981838361118b565b8273ffffffffffffffffffffffffffffffffffffffff167f472f36e28bb47edb7c69c9e2ac00a77c66b505df54e9c818ac57110b0629e8c3836040516109c79190611a01565b60405180910390a2505050565b6109dd82610666565b6109e681610f92565b6109f08383611098565b50505050565b6000600160008473ffffffffffffffffffffffffffffffffffffffff1673ffffffffffffffffffffffffffffffffffffffff16815260200190815260200160002060008373ffffffffffffffffffffffffffffffffffffffff1673ffffffffffffffffffffffffffffffffffffffff16815260200190815260200160002054905092915050565b7f000000000000000000000000000000000000000000000000000000000000000081565b7f20b5f7ac978e5d6199de06401411960dfa81d2f762655f6206bdc61d46fc19e6610acb81610f92565b60008211610b0e576040517f08c379a0000000000000000000000000000000000000000000000000000000008152600401610b0590611dfa565b60405180910390fd5b60008484905011610b54576040517f08c379a0000000000000000000000000000000000000000000000000000000008152600401610b4b90611e66565b60405180910390fd5b60005b84849050811015610c2f576000858583818110610b7757610b76611e86565b5b9050602002016020810190610b8c91906119c5565b9050600073ffffffffffffffffffffffffffffffffffffffff168173ffffffffffffffffffffffffffffffffffffffff1614610c1b57610bcc818561118b565b8073ffffffffffffffffffffffffffffffffffffffff167f472f36e28bb47edb7c69c9e2ac00a77c66b505df54e9c818ac57110b0629e8c385604051610c129190611a01565b60405180910390a25b508080610c2790611ee4565b915050610b57565b5050505050565b60008111610c79576040517f08c379a0000000000000000000000000000000000000000000000000000000008152600401610c7090611dfa565b60405180910390fd5b80610c833361072c565b1015610cc4576040517f08c379a0000000000000000000000000000000000000000000000000000000008152600401610cbb90611f78565b60405180910390fd5b610cce338261120d565b80600660003373ffffffffffffffffffffffffffffffffffffffff1673ffffffffffffffffffffffffffffffffffffffff1681526020019081526020016000206000828254610d1d9190611f98565b925050819055503373ffffffffffffffffffffffffffffffffffffffff167faf0940ae03ab6ebed23efcabc6968bf05f3f50d29eb2f59dd577d1a772ddb8c782604051610d6a9190611a01565b60405180910390a250565b60007f7965db0b000000000000000000000000000000000000000000000000000000007bffffffffffffffffffffffffffffffffffffffffffffffffffffffff1916827bffffffffffffffffffffffffffffffffffffffffffffffffffffffff19161480610de85750610de78261128f565b5b9050919050565b600033905090565b610e0483838360016112f9565b505050565b6000610e1584846109f6565b90507fffffffffffffffffffffffffffffffffffffffffffffffffffffffffffffffff811015610e985781811015610e88578281836040517ffb8f41b2000000000000000000000000000000000000000000000000000000008152600401610e7f93929190611fdb565b60405180910390fd5b610e97848484840360006112f9565b5b50505050565b600073ffffffffffffffffffffffffffffffffffffffff168373ffffffffffffffffffffffffffffffffffffffff1603610f105760006040517f96c6fd1e000000000000000000000000000000000000000000000000000000008152600401610f079190612012565b60405180910390fd5b600073ffffffffffffffffffffffffffffffffffffffff168273ffffffffffffffffffffffffffffffffffffffff1603610f825760006040517fec442f05000000000000000000000000000000000000000000000000000000008152600401610f799190612012565b60405180910390fd5b610f8d8383836114d0565b505050565b610fa381610f9e610def565b6116f5565b50565b6000610fb28383610774565b61108d5760016005600085815260200190815260200160002060000160008473ffffffffffffffffffffffffffffffffffffffff1673ffffffffffffffffffffffffffffffffffffffff16815260200190815260200160002060006101000a81548160ff02191690831515021790555061102a610def565b73ffffffffffffffffffffffffffffffffffffffff168273ffffffffffffffffffffffffffffffffffffffff16847f2f8788117e7eff1d82e926ec794901d17c78024a50270940304540a733656f0d60405160405180910390a460019050611092565b600090505b92915050565b60006110a48383610774565b156111805760006005600085815260200190815260200160002060000160008473ffffffffffffffffffffffffffffffffffffffff1673ffffffffffffffffffffffffffffffffffffffff16815260200190815260200160002060006101000a81548160ff02191690831515021790555061111d610def565b73ffffffffffffffffffffffffffffffffffffffff168273ffffffffffffffffffffffffffffffffffffffff16847ff6391f5c32d9c69d2a47ea670b442974b53935d1edc7fd64eb21e047a839171b60405160405180910390a460019050611185565b600090505b92915050565b600073ffffffffffffffffffffffffffffffffffffffff168273ffffffffffffffffffffffffffffffffffffffff16036111fd5760006040517fec442f050000000000000000000000000000000000000000000000000000000081526004016111f49190612012565b60405180910390fd5b611209600083836114d0565b5050565b600073ffffffffffffffffffffffffffffffffffffffff168273ffffffffffffffffffffffffffffffffffffffff160361127f5760006040517f96c6fd1e0000000000000000000000000000000000000000000000000000000081526004016112769190612012565b60405180910390fd5b61128b826000836114d0565b5050565b60007f01ffc9a7000000000000000000000000000000000000000000000000000000007bffffffffffffffffffffffffffffffffffffffffffffffffffffffff1916827bffffffffffffffffffffffffffffffffffffffffffffffffffffffff1916149050919050565b600073ffffffffffffffffffffffffffffffffffffffff168473ffffffffffffffffffffffffffffffffffffffff160361136b5760006040517fe602df050000000000000000000000000000000000000000000000000000000081526004016113629190612012565b60405180910390fd5b600073ffffffffffffffffffffffffffffffffffffffff168373ffffffffffffffffffffffffffffffffffffffff16036113dd5760006040517f94280d620000000000000000000000000000000000000000000000000000000081526004016113d49190612012565b60405180910390fd5b81600160008673ffffffffffffffffffffffffffffffffffffffff1673ffffffffffffffffffffffffffffffffffffffff16815260200190815260200160002060008573ffffffffffffffffffffffffffffffffffffffff1673ffffffffffffffffffffffffffffffffffffffff1681526020019081526020016000208190555080156114ca578273ffffffffffffffffffffffffffffffffffffffff168473ffffffffffffffffffffffffffffffffffffffff167f8c5be1e5ebec7d5bd14f71427d1e84f3dd0314c0f7b2291e5b200ac8c7c3b925846040516114c19190611a01565b60405180910390a35b50505050565b600073ffffffffffffffffffffffffffffffffffffffff168373ffffffffffffffffffffffffffffffffffffffff16036115225780600260008282546115169190611f98565b925050819055506115f5565b60008060008573ffffffffffffffffffffffffffffffffffffffff1673ffffffffffffffffffffffffffffffffffffffff168152602001908152602001600020549050818110156115ae578381836040517fe450d38c0000000000000000000000000000000000000000000000000000000081526004016115a593929190611fdb565b60405180910390fd5b8181036000808673ffffffffffffffffffffffffffffffffffffffff1673ffffffffffffffffffffffffffffffffffffffff16815260200190815260200160002081905550505b600073ffffffffffffffffffffffffffffffffffffffff168273ffffffffffffffffffffffffffffffffffffffff160361163e578060026000828254039250508190555061168b565b806000808473ffffffffffffffffffffffffffffffffffffffff1673ffffffffffffffffffffffffffffffffffffffff168152602001908152602001600020600082825401925050819055505b8173ffffffffffffffffffffffffffffffffffffffff168373ffffffffffffffffffffffffffffffffffffffff167fddf252ad1be2c89b69c2b068fc378daa952ba7f163c4a11628f55a4df523b3ef836040516116e89190611a01565b60405180910390a3505050565b6116ff8282610774565b6117425780826040517fe2517d3f00000000000000000000000000000000000000000000000000000000815260040161173992919061202d565b60405180910390fd5b5050565b600080fd5b600080fd5b60007fffffffff0000000000000000000000000000000000000000000000000000000082169050919050565b61178581611750565b811461179057600080fd5b50565b6000813590506117a28161177c565b92915050565b6000602082840312156117be576117bd611746565b5b60006117cc84828501611793565b91505092915050565b60008115159050919050565b6117ea816117d5565b82525050565b600060208201905061180560008301846117e1565b92915050565b600081519050919050565b600082825260208201905092915050565b60005b8381101561184557808201518184015260208101905061182a565b60008484015250505050565b6000601f19601f8301169050919050565b600061186d8261180b565b6118778185611816565b9350611887818560208601611827565b61189081611851565b840191505092915050565b600060208201905081810360008301526118b58184611862565b905092915050565b600073ffffffffffffffffffffffffffffffffffffffff82169050919050565b60006118e8826118bd565b9050919050565b6118f8816118dd565b811461190357600080fd5b50565b600081359050611915816118ef565b92915050565b6000819050919050565b61192e8161191b565b811461193957600080fd5b50565b60008135905061194b81611925565b92915050565b6000806040838503121561196857611967611746565b5b600061197685828601611906565b92505060206119878582860161193c565b9150509250929050565b6000819050919050565b6119a481611991565b82525050565b60006020820190506119bf600083018461199b565b92915050565b6000602082840312156119db576119da611746565b5b60006119e984828501611906565b91505092915050565b6119fb8161191b565b82525050565b6000602082019050611a1660008301846119f2565b92915050565b600063ffffffff82169050919050565b611a3581611a1c565b82525050565b6000606082019050611a506000830186611a2c565b611a5d60208301856119f2565b611a6a60408301846119f2565b949350505050565b600080600060608486031215611a8b57611a8a611746565b5b6000611a9986828701611906565b9350506020611aaa86828701611906565b9250506040611abb8682870161193c565b9150509250925092565b611ace81611991565b8114611ad957600080fd5b50565b600081359050611aeb81611ac5565b92915050565b600060208284031215611b0757611b06611746565b5b6000611b1584828501611adc565b91505092915050565b60008060408385031215611b3557611b34611746565b5b6000611b4385828601611adc565b9250506020611b5485828601611906565b9150509250929050565b600060ff82169050919050565b611b7481611b5e565b82525050565b6000602082019050611b8f6000830184611b6b565b92915050565b60008060408385031215611bac57611bab611746565b5b6000611bba85828601611906565b9250506020611bcb85828601611906565b9150509250929050565b6000602082019050611bea6000830184611a2c565b92915050565b600080fd5b600080fd5b600080fd5b60008083601f840112611c1557611c14611bf0565b5b8235905067ffffffffffffffff811115611c3257611c31611bf5565b5b602083019150836020820283011115611c4e57611c4d611bfa565b5b9250929050565b600080600060408486031215611c6e57611c6d611746565b5b600084013567ffffffffffffffff811115611c8c57611c8b61174b565b5b611c9886828701611bff565b93509350506020611cab8682870161193c565b9150509250925092565b600060208284031215611ccb57611cca611746565b5b6000611cd98482850161193c565b91505092915050565b7f4e487b7100000000000000000000000000000000000000000000000000000000600052602260045260246000fd5b60006002820490506001821680611d2957607f821691505b602082108103611d3c57611d3b611ce2565b5b50919050565b7f746f3d3000000000000000000000000000000000000000000000000000000000600082015250565b6000611d78600483611816565b9150611d8382611d42565b602082019050919050565b60006020820190508181036000830152611da781611d6b565b9050919050565b7f616d6f756e743d30000000000000000000000000000000000000000000000000600082015250565b6000611de4600883611816565b9150611def82611dae565b602082019050919050565b60006020820190508181036000830152611e1381611dd7565b9050919050565b7f6e6f20726563697069656e747300000000000000000000000000000000000000600082015250565b6000611e50600d83611816565b9150611e5b82611e1a565b602082019050919050565b60006020820190508181036000830152611e7f81611e43565b9050919050565b7f4e487b7100000000000000000000000000000000000000000000000000000000600052603260045260246000fd5b7f4e487b7100000000000000000000000000000000000000000000000000000000600052601160045260246000fd5b6000611eef8261191b565b91507fffffffffffffffffffffffffffffffffffffffffffffffffffffffffffffffff8203611f2157611f20611eb5565b5b600182019050919050565b7f696e73756666696369656e740000000000000000000000000000000000000000600082015250565b6000611f62600c83611816565b9150611f6d82611f2c565b602082019050919050565b60006020820190508181036000830152611f9181611f55565b9050919050565b6000611fa38261191b565b9150611fae8361191b565b9250828201905080821115611fc657611fc5611eb5565b5b92915050565b611fd5816118dd565b82525050565b6000606082019050611ff06000830186611fcc565b611ffd60208301856119f2565b61200a60408301846119f2565b949350505050565b60006020820190506120276000830184611fcc565b92915050565b60006040820190506120426000830185611fcc565b61204f602083018461199b565b939250505056fea264697066735822122003d7c4a25d0bf4ca87662c8975ef4fe495cb36570a151a5558b6a30362deb33f64736f6c63430008140033a26469706673582212206a2900b1621ed04f7d72d29ad97f70d3db448490f255bde8ae85ac145b61d27364736f6c6343000814003360a06040523480156200001157600080fd5b50604051620027bd380380620027bd833981810160405281019062000037919062000351565b6040518060400160405280601281526020017f50544241452d505520416c6c6f77616e636500000000000000000000000000008152506040518060400160405280600581526020017f50544241450000000000000000000000000000000000000000000000000000008152508160039081620000b4919062000627565b508060049081620000c6919062000627565b5050508063ffffffff1660808163ffffffff1681525050620000f26000801b846200012f60201b60201c565b50620001257f20b5f7ac978e5d6199de06401411960dfa81d2f762655f6206bdc61d46fc19e6836200012f60201b60201c565b505050506200070e565b60006200014383836200023360201b60201c565b620002285760016005600085815260200190815260200160002060000160008473ffffffffffffffffffffffffffffffffffffffff1673ffffffffffffffffffffffffffffffffffffffff16815260200190815260200160002060006101000a81548160ff021916908315150217905550620001c46200029e60201b60201c565b73ffffffffffffffffffffffffffffffffffffffff168273ffffffffffffffffffffffffffffffffffffffff16847f2f8788117e7eff1d82e926ec794901d17c78024a50270940304540a733656f0d60405160405180910390a4600190506200022d565b600090505b92915050565b60006005600084815260200190815260200160002060000160008373ffffffffffffffffffffffffffffffffffffffff1673ffffffffffffffffffffffffffffffffffffffff16815260200190815260200160002060009054906101000a900460ff16905092915050565b600033905090565b600080fd5b600073ffffffffffffffffffffffffffffffffffffffff82169050919050565b6000620002d882620002ab565b9050919050565b620002ea81620002cb565b8114620002f657600080fd5b50565b6000815190506200030a81620002df565b92915050565b600063ffffffff82169050919050565b6200032b8162000310565b81146200033757600080fd5b50565b6000815190506200034b8162000320565b92915050565b6000806000606084860312156200036d576200036c620002a6565b5b60006200037d86828701620002f9565b93505060206200039086828701620002f9565b9250506040620003a3868287016200033a565b9150509250925092565b600081519050919050565b7f4e487b7100000000000000000000000000000000000000000000000000000000600052604160045260246000fd5b7f4e487b7100000000000000000000000000000000000000000000000000000000600052602260045260246000fd5b600060028204905060018216806200042f57607f821691505b602082108103620004455762000444620003e7565b5b50919050565b60008190508160005260206000209050919050565b60006020601f8301049050919050565b600082821b905092915050565b600060088302620004af7fffffffffffffffffffffffffffffffffffffffffffffffffffffffffffffffff8262000470565b620004bb868362000470565b95508019841693508086168417925050509392505050565b6000819050919050565b6000819050919050565b60006200050862000502620004fc84620004d3565b620004dd565b620004d3565b9050919050565b6000819050919050565b6200052483620004e7565b6200053c62000533826200050f565b8484546200047d565b825550505050565b600090565b6200055362000544565b6200056081848462000519565b505050565b5b8181101562000588576200057c60008262000549565b60018101905062000566565b5050565b601f821115620005d757620005a1816200044b565b620005ac8462000460565b81016020851015620005bc578190505b620005d4620005cb8562000460565b83018262000565565b50505b505050565b600082821c905092915050565b6000620005fc60001984600802620005dc565b1980831691505092915050565b6000620006178383620005e9565b9150826002028217905092915050565b6200063282620003ad565b67ffffffffffffffff8111156200064e576200064d620003b8565b5b6200065a825462000416565b620006678282856200058c565b600060209050601f8311600181146200069f57600084156200068a578287015190505b62000696858262000609565b86555062000706565b601f198416620006af866200044b565b60005b82811015620006d957848901518255600182019150602085019450602081019050620006b2565b86831015620006f95784890151620006f5601f891682620005e9565b8355505b6001600288020188555050505b505050505050565b60805161208c62000731600039600081816105c20152610a7f015261208c6000f3fe608060405234801561001057600080fd5b506004361061014d5760003560e01c806336568abe116100c3578063b78b52df1161007c578063b78b52df146103f0578063d547741f1461040c578063dd62ed3e14610428578063ef78d4fd14610458578063f93278b514610476578063fd61d10b146104925761014d565b806336568abe1461030857806370a082311461032457806391d148541461035457806395d89b4114610384578063a217fddf146103a2578063a9059cbb146103c05761014d565b806318160ddd1161011557806318160ddd1461021e57806323073b5d1461023c57806323b872dd1461026e578063248a9ca31461029e5780632f2ff15d146102ce578063313ce567146102ea5761014d565b806301ffc9a71461015257806306fdde0314610182578063095ea7b3146101a0578063144bf589146101d05780631586f91b146101ee575b600080fd5b61016c600480360381019061016791906117a8565b6104ae565b60405161017991906117f0565b60405180910390f35b61018a6104c0565b604051610197919061189b565b60405180910390f35b6101ba60048036038101906101b59190611951565b610552565b6040516101c791906117f0565b60405180910390f35b6101d8610575565b6040516101e591906119aa565b60405180910390f35b610208600480360381019061020391906119c5565b610599565b6040516102159190611a01565b60405180910390f35b6102266105b1565b6040516102339190611a01565b60405180910390f35b610256600480360381019061025191906119c5565b6105bb565b60405161026593929190611a3b565b60405180910390f35b61028860048036038101906102839190611a72565b610637565b60405161029591906117f0565b60405180910390f35b6102b860048036038101906102b39190611af1565b610666565b6040516102c591906119aa565b60405180910390f35b6102e860048036038101906102e39190611b1e565b610686565b005b6102f26106a8565b6040516102ff9190611b7a565b60405180910390f35b610322600480360381019061031d9190611b1e565b6106b1565b005b61033e600480360381019061033991906119c5565b61072c565b60405161034b9190611a01565b60405180910390f35b61036e60048036038101906103699190611b1e565b610774565b60405161037b91906117f0565b60405180910390f35b61038c6107df565b604051610399919061189b565b60405180910390f35b6103aa610871565b6040516103b791906119aa565b60405180910390f35b6103da60048036038101906103d59190611951565b610878565b6040516103e791906117f0565b60405180910390f35b61040a60048036038101906104059190611951565b61089b565b005b61042660048036038101906104219190611b1e565b6109d4565b005b610442600480360381019061043d9190611b95565b6109f6565b60405161044f9190611a01565b60405180910390f35b610460610a7d565b60405161046d9190611bd5565b60405180910390f35b610490600480360381019061048b9190611c55565b610aa1565b005b6104ac60048036038101906104a79190611cb5565b610c36565b005b60006104b982610d75565b9050919050565b6060600380546104cf90611d11565b80601f01602080910402602001604051908101604052809291908181526020018280546104fb90611d11565b80156105485780601f1061051d57610100808354040283529160200191610548565b820191906000526020600020905b81548152906001019060200180831161052b57829003601f168201915b5050505050905090565b60008061055d610def565b905061056a818585610df7565b600191505092915050565b7f20b5f7ac978e5d6199de06401411960dfa81d2f762655f6206bdc61d46fc19e681565b60066020528060005260406000206000915090505481565b6000600254905090565b60008060007f00000000000000000000000000000000000000000000000000000000000000006105ea8561072c565b600660008773ffffffffffffffffffffffffffffffffffffffff1673ffffffffffffffffffffffffffffffffffffffff168152602001908152602001600020549250925092509193909250565b600080610642610def565b905061064f858285610e09565b61065a858585610e9e565b60019150509392505050565b600060056000838152602001908152602001600020600101549050919050565b61068f82610666565b61069881610f92565b6106a28383610fa6565b50505050565b60006012905090565b6106b9610def565b73ffffffffffffffffffffffffffffffffffffffff168173ffffffffffffffffffffffffffffffffffffffff161461071d576040517f6697b23200000000000000000000000000000000000000000000000000000000815260040160405180910390fd5b6107278282611098565b505050565b60008060008373ffffffffffffffffffffffffffffffffffffffff1673ffffffffffffffffffffffffffffffffffffffff168152602001908152602001600020549050919050565b60006005600084815260200190815260200160002060000160008373ffffffffffffffffffffffffffffffffffffffff1673ffffffffffffffffffffffffffffffffffffffff16815260200190815260200160002060009054906101000a900460ff16905092915050565b6060600480546107ee90611d11565b80601f016020809104026020016040519081016040528092919081815260200182805461081a90611d11565b80156108675780601f1061083c57610100808354040283529160200191610867565b820191906000526020600020905b81548152906001019060200180831161084a57829003601f168201915b5050505050905090565b6000801b81565b600080610883610def565b9050610890818585610e9e565b600191505092915050565b7f20b5f7ac978e5d6199de06401411960dfa81d2f762655f6206bdc61d46fc19e66108c581610f92565b600073ffffffffffffffffffffffffffffffffffffffff168373ffffffffffffffffffffffffffffffffffffffff1603610934576040517f08c379a000000000000000000000000000000000000000000000000000000000815260040161092b90611d8e565b60405180910390fd5b60008211610977576040517f08c379a000000000000000000000000000000000000000000000000000000000815260040161096e90611dfa565b60405180910390fd5b610981838361118b565b8273ffffffffffffffffffffffffffffffffffffffff167f472f36e28bb47edb7c69c9e2ac00a77c66b505df54e9c818ac57110b0629e8c3836040516109c79190611a01565b60405180910390a2505050565b6109dd82610666565b6109e681610f92565b6109f08383611098565b50505050565b6000600160008473ffffffffffffffffffffffffffffffffffffffff1673ffffffffffffffffffffffffffffffffffffffff16815260200190815260200160002060008373ffffffffffffffffffffffffffffffffffffffff1673ffffffffffffffffffffffffffffffffffffffff16815260200190815260200160002054905092915050565b7f000000000000000000000000000000000000000000000000000000000000000081565b7f20b5f7ac978e5d6199de06401411960dfa81d2f762655f6206bdc61d46fc19e6610acb81610f92565b60008211610b0e576040517f08c379a0000000000000000000000000000000000000000000000000000000008152600401610b0590611dfa565b60405180910390fd5b60008484905011610b54576040517f08c379a0000000000000000000000000000000000000000000000000000000008152600401610b4b90611e66565b60405180910390fd5b60005b84849050811015610c2f576000858583818110610b7757610b76611e86565b5b9050602002016020810190610b8c91906119c5565b9050600073ffffffffffffffffffffffffffffffffffffffff168173ffffffffffffffffffffffffffffffffffffffff1614610c1b57610bcc818561118b565b8073ffffffffffffffffffffffffffffffffffffffff167f472f36e28bb47edb7c69c9e2ac00a77c66b505df54e9c818ac57110b0629e8c385604051610c129190611a01565b60405180910390a25b508080610c2790611ee4565b915050610b57565b5050505050565b60008111610c79576040517f08c379a0000000000000000000000000000000000000000000000000000000008152600401610c7090611dfa565b60405180910390fd5b80610c833361072c565b1015610cc4576040517f08c379a0000000000000000000000000000000000000000000000000000000008152600401610cbb90611f78565b60405180910390fd5b610cce338261120d565b80600660003373ffffffffffffffffffffffffffffffffffffffff1673ffffffffffffffffffffffffffffffffffffffff1681526020019081526020016000206000828254610d1d9190611f98565b925050819055503373ffffffffffffffffffffffffffffffffffffffff167faf0940ae03ab6ebed23efcabc6968bf05f3f50d29eb2f59dd577d1a772ddb8c782604051610d6a9190611a01565b60405180910390a250565b60007f7965db0b000000000000000000000000000000000000000000000000000000007bffffffffffffffffffffffffffffffffffffffffffffffffffffffff1916827bffffffffffffffffffffffffffffffffffffffffffffffffffffffff19161480610de85750610de78261128f565b5b9050919050565b600033905090565b610e0483838360016112f9565b505050565b6000610e1584846109f6565b90507fffffffffffffffffffffffffffffffffffffffffffffffffffffffffffffffff811015610e985781811015610e88578281836040517ffb8f41b2000000000000000000000000000000000000000000000000000000008152600401610e7f93929190611fdb565b60405180910390fd5b610e97848484840360006112f9565b5b50505050565b600073ffffffffffffffffffffffffffffffffffffffff168373ffffffffffffffffffffffffffffffffffffffff1603610f105760006040517f96c6fd1e000000000000000000000000000000000000000000000000000000008152600401610f079190612012565b60405180910390fd5b600073ffffffffffffffffffffffffffffffffffffffff168273ffffffffffffffffffffffffffffffffffffffff1603610f825760006040517fec442f05000000000000000000000000000000000000000000000000000000008152600401610f799190612012565b60405180910390fd5b610f8d8383836114d0565b505050565b610fa381610f9e610def565b6116f5565b50565b6000610fb28383610774565b61108d5760016005600085815260200190815260200160002060000160008473ffffffffffffffffffffffffffffffffffffffff1673ffffffffffffffffffffffffffffffffffffffff16815260200190815260200160002060006101000a81548160ff02191690831515021790555061102a610def565b73ffffffffffffffffffffffffffffffffffffffff168273ffffffffffffffffffffffffffffffffffffffff16847f2f8788117e7eff1d82e926ec794901d17c78024a50270940304540a733656f0d60405160405180910390a460019050611092565b600090505b92915050565b60006110a48383610774565b156111805760006005600085815260200190815260200160002060000160008473ffffffffffffffffffffffffffffffffffffffff1673ffffffffffffffffffffffffffffffffffffffff16815260200190815260200160002060006101000a81548160ff02191690831515021790555061111d610def565b73ffffffffffffffffffffffffffffffffffffffff168273ffffffffffffffffffffffffffffffffffffffff16847ff6391f5c32d9c69d2a47ea670b442974b53935d1edc7fd64eb21e047a839171b60405160405180910390a460019050611185565b600090505b92915050565b600073ffffffffffffffffffffffffffffffffffffffff168273ffffffffffffffffffffffffffffffffffffffff16036111fd5760006040517fec442f050000000000000000000000000000000000000000000000000000000081526004016111f49190612012565b60405180910390fd5b611209600083836114d0565b5050565b600073ffffffffffffffffffffffffffffffffffffffff168273ffffffffffffffffffffffffffffffffffffffff160361127f5760006040517f96c6fd1e0000000000000000000000000000000000000000000000000000000081526004016112769190612012565b60405180910390fd5b61128b826000836114d0565b5050565b60007f01ffc9a7000000000000000000000000000000000000000000000000000000007bffffffffffffffffffffffffffffffffffffffffffffffffffffffff1916827bffffffffffffffffffffffffffffffffffffffffffffffffffffffff1916149050919050565b600073ffffffffffffffffffffffffffffffffffffffff168473ffffffffffffffffffffffffffffffffffffffff160361136b5760006040517fe602df050000000000000000000000000000000000000000000000000000000081526004016113629190612012565b60405180910390fd5b600073ffffffffffffffffffffffffffffffffffffffff168373ffffffffffffffffffffffffffffffffffffffff16036113dd5760006040517f94280d620000000000000000000000000000000000000000000000000000000081526004016113d49190612012565b60405180910390fd5b81600160008673ffffffffffffffffffffffffffffffffffffffff1673ffffffffffffffffffffffffffffffffffffffff16815260200190815260200160002060008573ffffffffffffffffffffffffffffffffffffffff1673ffffffffffffffffffffffffffffffffffffffff1681526020019081526020016000208190555080156114ca578273ffffffffffffffffffffffffffffffffffffffff168473ffffffffffffffffffffffffffffffffffffffff167f8c5be1e5ebec7d5bd14f71427d1e84f3dd0314c0f7b2291e5b200ac8c7c3b925846040516114c19190611a01565b60405180910390a35b50505050565b600073ffffffffffffffffffffffffffffffffffffffff168373ffffffffffffffffffffffffffffffffffffffff16036115225780600260008282546115169190611f98565b925050819055506115f5565b60008060008573ffffffffffffffffffffffffffffffffffffffff1673ffffffffffffffffffffffffffffffffffffffff168152602001908152602001600020549050818110156115ae578381836040517fe450d38c0000000000000000000000000000000000000000000000000000000081526004016115a593929190611fdb565b60405180910390fd5b8181036000808673ffffffffffffffffffffffffffffffffffffffff1673ffffffffffffffffffffffffffffffffffffffff16815260200190815260200160002081905550505b600073ffffffffffffffffffffffffffffffffffffffff168273ffffffffffffffffffffffffffffffffffffffff160361163e578060026000828254039250508190555061168b565b806000808473ffffffffffffffffffffffffffffffffffffffff1673ffffffffffffffffffffffffffffffffffffffff168152602001908152602001600020600082825401925050819055505b8173ffffffffffffffffffffffffffffffffffffffff168373ffffffffffffffffffffffffffffffffffffffff167fddf252ad1be2c89b69c2b068fc378daa952ba7f163c4a11628f55a4df523b3ef836040516116e89190611a01565b60405180910390a3505050565b6116ff8282610774565b6117425780826040517fe2517d3f00000000000000000000000000000000000000000000000000000000815260040161173992919061202d565b60405180910390fd5b5050565b600080fd5b600080fd5b60007fffffffff0000000000000000000000000000000000000000000000000000000082169050919050565b61178581611750565b811461179057600080fd5b50565b6000813590506117a28161177c565b92915050565b6000602082840312156117be576117bd611746565b5b60006117cc84828501611793565b91505092915050565b60008115159050919050565b6117ea816117d5565b82525050565b600060208201905061180560008301846117e1565b92915050565b600081519050919050565b600082825260208201905092915050565b60005b8381101561184557808201518184015260208101905061182a565b60008484015250505050565b6000601f19601f8301169050919050565b600061186d8261180b565b6118778185611816565b9350611887818560208601611827565b61189081611851565b840191505092915050565b600060208201905081810360008301526118b58184611862565b905092915050565b600073ffffffffffffffffffffffffffffffffffffffff82169050919050565b60006118e8826118bd565b9050919050565b6118f8816118dd565b811461190357600080fd5b50565b600081359050611915816118ef565b92915050565b6000819050919050565b61192e8161191b565b811461193957600080fd5b50565b60008135905061194b81611925565b92915050565b6000806040838503121561196857611967611746565b5b600061197685828601611906565b92505060206119878582860161193c565b9150509250929050565b6000819050919050565b6119a481611991565b82525050565b60006020820190506119bf600083018461199b565b92915050565b6000602082840312156119db576119da611746565b5b60006119e984828501611906565b91505092915050565b6119fb8161191b565b82525050565b6000602082019050611a1660008301846119f2565b92915050565b600063ffffffff82169050919050565b611a3581611a1c565b82525050565b6000606082019050611a506000830186611a2c565b611a5d60208301856119f2565b611a6a60408301846119f2565b949350505050565b600080600060608486031215611a8b57611a8a611746565b5b6000611a9986828701611906565b9350506020611aaa86828701611906565b9250506040611abb8682870161193c565b9150509250925092565b611ace81611991565b8114611ad957600080fd5b50565b600081359050611aeb81611ac5565b92915050565b600060208284031215611b0757611b06611746565b5b6000611b1584828501611adc565b91505092915050565b60008060408385031215611b3557611b34611746565b5b6000611b4385828601611adc565b9250506020611b5485828601611906565b9150509250929050565b600060ff82169050919050565b611b7481611b5e565b82525050565b6000602082019050611b8f6000830184611b6b565b92915050565b60008060408385031215611bac57611bab611746565b5b6000611bba85828601611906565b9250506020611bcb85828601611906565b9150509250929050565b6000602082019050611bea6000830184611a2c565b92915050565b600080fd5b600080fd5b600080fd5b60008083601f840112611c1557611c14611bf0565b5b8235905067ffffffffffffffff811115611c3257611c31611bf5565b5b602083019150836020820283011115611c4e57611c4d611bfa565b5b9250929050565b600080600060408486031215611c6e57611c6d611746565b5b600084013567ffffffffffffffff811115611c8c57611c8b61174b565b5b611c9886828701611bff565b93509350506020611cab8682870161193c565b9150509250925092565b600060208284031215611ccb57611cca611746565b5b6000611cd98482850161193c565b91505092915050565b7f4e487b7100000000000000000000000000000000000000000000000000000000600052602260045260246000fd5b60006002820490506001821680611d2957607f821691505b602082108103611d3c57611d3b611ce2565b5b50919050565b7f746f3d3000000000000000000000000000000000000000000000000000000000600082015250565b6000611d78600483611816565b9150611d8382611d42565b602082019050919050565b60006020820190508181036000830152611da781611d6b565b9050919050565b7f616d6f756e743d30000000000000000000000000000000000000000000000000600082015250565b6000611de4600883611816565b9150611def82611dae565b602082019050919050565b60006020820190508181036000830152611e1381611dd7565b9050919050565b7f6e6f20726563697069656e747300000000000000000000000000000000000000600082015250565b6000611e50600d83611816565b9150611e5b82611e1a565b602082019050919050565b60006020820190508181036000830152611e7f81611e43565b9050919050565b7f4e487b7100000000000000000000000000000000000000000000000000000000600052603260045260246000fd5b7f4e487b7100000000000000000000000000000000000000000000000000000000600052601160045260246000fd5b6000611eef8261191b565b91507fffffffffffffffffffffffffffffffffffffffffffffffffffffffffffffffff8203611f2157611f20611eb5565b5b600182019050919050565b7f696e73756666696369656e740000000000000000000000000000000000000000600082015250565b6000611f62600c83611816565b9150611f6d82611f2c565b602082019050919050565b60006020820190508181036000830152611f9181611f55565b9050919050565b6000611fa38261191b565b9150611fae8361191b565b9250828201905080821115611fc657611fc5611eb5565b5b92915050565b611fd5816118dd565b82525050565b6000606082019050611ff06000830186611fcc565b611ffd60208301856119f2565b61200a60408301846119f2565b949350505050565b60006020820190506120276000830184611fcc565b92915050565b60006040820190506120426000830185611fcc565b61204f602083018461199b565b939250505056fea264697066735822122003d7c4a25d0bf4ca87662c8975ef4fe495cb36570a151a5558b6a30362deb33f64736f6c63430008140033",
  "linkReferences": {},
  "deployedLinkReferences": {}
}