{
  "_format": "hh-sol-artifact-1",
  "contractName": "PTBAEAllowanceToken",
  "sourceName": "contracts/PTBAEAllowanceToken.sol",
  "abi": [
    {
      "inputs": [
        {
          "internalType": "address",
          "name": "admin",
          "type": "address"
        },
        {
          "internalType": "address",
          "name": "regulator",
          "type": "address"
        },
        {
          "internalType": "uint32",
          "name": "_period",
          "type": "uint32"
        }
      ],
      "stateMutability": "nonpayable",
      "type": "constructor"
    },
    {
      "inputs": [],
      "name": "AccessControlBadConfirmation",
      "type": "error"
    },
    {
      "inputs": [
        {
          "internalType": "address",
          "name": "account",
          "type": "address"
        },
        {
          "internalType": "bytes32",
          "name": "neededRole",
          "type": "bytes32"
        }
      ],
      "name": "AccessControlUnauthorizedAccount",
      "type": "error"
    },
    {
      "inputs": [
        {
          "internalType": "address",
          "name": "spender",
          "type": "address"
        },
        {
          "internalType": "uint256",
          "name": "allowance",
          "type": "uint256"
        },
        {
          "internalType": "uint256",
          "name": "needed",
          "type": "uint256"
        }
      ],
      "name": "ERC20InsufficientAllowance",
      "type": "error"
    },
    {
      "inputs": [
        {
          "internalType": "address",
          "name": "sender",
          "type": "address"
        },
        {
          "internalType": "uint256",
          "name": "balance",
          "type": "uint256"
        },
        {
          "internalType": "uint256",
          "name": "needed",
          "type": "uint256"
        }
      ],
      "name": "ERC20InsufficientBalance",
      "type": "error"
    },
    {
      "inputs": [
        {
          "internalType": "address",
          "name": "approver",
          "type": "address"
        }
      ],
      "name": "ERC20InvalidApprover",
      "type": "error"
    },
    {
      "inputs": [
        {
          "internalType": "address",
          "name": "receiver",
          "type": "address"
        }
      ],
      "name": "ERC20InvalidReceiver",
      "type": "error"
    },
    {
      "inputs": [
        {
          "internalType": "address",
          "name": "sender",
          "type": "address"
        }
      ],
      "name": "ERC20InvalidSender",
      "type": "error"
    },
    {
      "inputs": [
        {
          "internalType": "address",
          "name": "spender",
          "type": "address"
        }
      ],
      "name": "ERC20InvalidSpender",
      "type": "error"
    },
    {
      "anonymous": false,
      "inputs": [
        {
          "indexed": true,
          "internalType": "address",
          "name": "to",
          "type": "address"
        },
        {
          "indexed": false,
          "internalType": "uint256",
          "name": "amount",
          "type": "uint256"
        }
      ],
      "name": "Allocated",
      "type": "event"
    },
    {
      "anonymous": false,
      "inputs": [
        {
          "indexed": true,
          "internalType": "address",
          "name": "owner",
          "type": "address"
        },
        {
          "indexed": true,
          "internalType": "address",
          "name": "spender",
          "type": "address"
        },
        {
          "indexed": false,
          "internalType": "uint256",
          "name": "value",
          "type": "uint256"
        }
      ],
      "name": "Approval",
      "type": "event"
    },
    {
      "anonymous": false,
      "inputs": [
        {
          "indexed": true,
          "internalType": "bytes32",
          "name": "role",
          "type": "bytes32"
        },
        {
          "indexed": true,
          "internalType": "bytes32",
          "name": "previousAdminRole",
          "type": "bytes32"
        },
        {
          "indexed": true,
          "internalType": "bytes32",
          "name": "newAdminRole",
          "type": "bytes32"
        }
      ],
      "name": "RoleAdminChanged",
      "type": "event"
    },
    {
      "anonymous": false,
      "inputs": [
        {
          "indexed": true,
          "internalType": "bytes32",
          "name": "role",
          "type": "bytes32"
        },
        {
          "indexed": true,
          "internalType": "address",
          "name": "account",
          "type": "address"
        },
        {
          "indexed": true,
          "internalType": "address",
          "name": "sender",
          "type": "address"
        }
      ],
      "name": "RoleGranted",
      "type": "event"
    },
    {
      "anonymous": false,
      "inputs": [
        {
          "indexed": true,
          "internalType": "bytes32",
          "name": "role",
          "type": "bytes32"
        },
        {
          "indexed": true,
          "internalType": "address",
          "name": "account",
          "type": "address"
        },
        {
          "indexed": true,
          "internalType": "address",
          "name": "sender",
          "type": "address"
        }
      ],
      "name": "RoleRevoked",
      "type": "event"
    },
    {
      "anonymous": false,
      "inputs": [
        {
          "indexed": true,
          "internalType": "address",
          "name": "from",
          "type": "address"
        },
        {
          "indexed": false,
          "internalType": "uint256",
          "name": "amount",
          "type": "uint256"
        }
      ],
      "name": "Surrendered",
      "type": "event"
    },
    {
      "anonymous": false,
      "inputs": [
        {
          "indexed": true,
          "internalType": "address",
          "name": "from",
          "type": "address"
        },
        {
          "indexed": true,
          "internalType": "address",
          "name": "to",
          "type": "address"
        },
        {
          "indexed": false,
          "internalType": "uint256",
          "name": "value",
          "type": "uint256"
        }
      ],
      "name": "Transfer",
      "type": "event"
    },
    {
      "inputs": [],
      "name": "DEFAULT_ADMIN_ROLE",
      "outputs": [
        {
          "internalType": "bytes32",
          "name": "",
          "type": "bytes32"
        }
      ],
      "stateMutability": "view",
      "type": "function"
    },
    {
      "inputs": [],
      "name": "REGULATOR_ROLE",
      "outputs": [
        {
          "internalType": "bytes32",
          "name": "",
          "type": "bytes32"
        }
      ],
      "stateMutability": "view",
      "type": "function"
    },
    {
      "inputs": [
        {
          "internalType": "address",
          "name": "to",
          "type": "address"
        },
        {
          "internalType": "uint256",
          "name": "amount",
          "type": "uint256"
        }
      ],
      "name": "allocate",
      "outputs": [],
      "stateMutability": "nonpayable",
      "type": "function"
    },
    {
      "inputs": [
        {
          "internalType": "address",
          "name": "owner",
          "type": "address"
        },
        {
          "internalType": "address",
          "name": "spender",
          "type": "address"
        }
      ],
      "name": "allowance",
      "outputs": [
        {
          "internalType": "uint256",
          "name": "",
          "type": "uint256"
        }
      ],
      "stateMutability": "view",
      "type": "function"
    },
    {
      "inputs": [
        {
          "internalType": "address",
          "name": "spender",
          "type": "address"
        },
        {
          "internalType": "uint256",
          "name": "value",
          "type": "uint256"
        }
      ],
      "name": "approve",
      "outputs": [
        {
          "internalType": "bool",
          "name": "",
          "type": "bool"
        }
      ],
      "stateMutability": "nonpayable",
      "type": "function"
    },
    {
      "inputs": [
        {
          "internalType": "address",
          "name": "account",
          "type": "address"
        }
      ],
      "name": "balanceOf",
      "outputs": [
        {
          "internalType": "uint256",
          "name": "",
          "type": "uint256"
        }
      ],
      "stateMutability": "view",
      "type": "function"
    },
    {
      "inputs": [],
      "name": "decimals",
      "outputs": [
        {
          "internalType": "uint8",
          "name": "",
          "type": "uint8"
        }
      ],
      "stateMutability": "view",
      "type": "function"
    },
    {
      "inputs": [
        {
          "internalType": "address",
          "name": "account",
          "type": "address"
        }
      ],
      "name": "getCompliance",
      "outputs": [
        {
          "internalType": "uint32",
          "name": "p",
          "type": "uint32"
        },
        {
          "internalType": "uint256",
          "name": "balance",
          "type": "uint256"
        },
        {
          "internalType": "uint256",
          "name": "surrenderedAmt",
          "type": "uint256"
        }
      ],
      "stateMutability": "view",
      "type": "function"
    },
    {
      "inputs": [
        {
          "internalType": "bytes32",
          "name": "role",
          "type": "bytes32"
        }
      ],
      "name": "getRoleAdmin",
      "outputs": [
        {
          "internalType": "bytes32",
          "name": "",
          "type": "bytes32"
        }
      ],
      "stateMutability": "view",
      "type": "function"
    },
    {
      "inputs": [
        {
          "internalType": "bytes32",
          "name": "role",
          "type": "bytes32"
        },
        {
          "internalType": "address",
          "name": "account",
          "type": "address"
        }
      ],
      "name": "grantRole",
      "outputs": [],
      "stateMutability": "nonpayable",
      "type": "function"
    },
    {
      "inputs": [
        {
          "internalType": "bytes32",
          "name": "role",
          "type": "bytes32"
        },
        {
          "internalType": "address",
          "name": "account",
          "type": "address"
        }
      ],
      "name": "hasRole",
      "outputs": [
        {
          "internalType": "bool",
          "name": "",
          "type": "bool"
        }
      ],
      "stateMutability": "view",
      "type": "function"
    },
    {
      "inputs": [],
      "name": "name",
      "outputs": [
        {
          "internalType": "string",
          "name": "",
          "type": "string"
        }
      ],
      "stateMutability": "view",
      "type": "function"
    },
    {
      "inputs": [],
      "name": "period",
      "outputs": [
        {
          "internalType": "uint32",
          "name": "",
          "type": "uint32"
        }
      ],
      "stateMutability": "view",
      "type": "function"
    },
    {
      "inputs": [
        {
          "internalType": "bytes32",
          "name": "role",
          "type": "bytes32"
        },
        {
          "internalType": "address",
          "name": "callerConfirmation",
          "type": "address"
        }
      ],
      "name": "renounceRole",
      "outputs": [],
      "stateMutability": "nonpayable",
      "type": "function"
    },
    {
      "inputs": [
        {
          "internalType": "bytes32",
          "name": "role",
          "type": "bytes32"
        },
        {
          "internalType": "address",
          "name": "account",
          "type": "address"
        }
      ],
      "name": "revokeRole",
      "outputs": [],
      "stateMutability": "nonpayable",
      "type": "function"
    },
    {
      "inputs": [
        {
          "internalType": "bytes4",
          "name": "interfaceId",
          "type": "bytes4"
        }
      ],
      "name": "supportsInterface",
      "outputs": [
        {
          "internalType": "bool",
          "name": "",
          "type": "bool"
        }
      ],
      "stateMutability": "view",
      "type": "function"
    },
    {
      "inputs": [
        {
          "internalType": "uint256",
          "name": "amount",
          "type": "uint256"
        }
      ],
      "name": "surrender",
      "outputs": [],
      "stateMutability": "nonpayable",
      "type": "function"
    },
    {
      "inputs": [
        {
          "internalType": "address",
          "name": "",
          "type": "address"
        }
      ],
      "name": "surrendered",
      "outputs": [
        {
          "internalType": "uint256",
          "name": "",
          "type": "uint256"
        }
      ],
      "stateMutability": "view",
      "type": "function"
    },
    {
      "inputs": [],
      "name": "symbol",
      "outputs": [
        {
          "internalType": "string",
          "name": "",
          "type": "string"
        }
      ],
      "stateMutability": "view",
      "type": "function"
    },
    {
      "inputs": [],
      "name": "totalSupply",
      "outputs": [
        {
          "internalType": "uint256",
          "name": "",
          "type": "uint256"
        }
      ],
      "stateMutability": "view",
      "type": "function"
    },
    {
      "inputs": [
        {
          "internalType": "address",
          "name": "to",
          "type": "address"
        },
        {
          "internalType": "uint256",
          "name": "value",
          "type": "uint256"
        }
      ],
      "name": "transfer",
      "outputs": [
        {
          "internalType": "bool",
          "name": "",
          "type": "bool"
        }
      ],
      "stateMutability": "nonpayable",
      "type": "function"
    },
    {
      "inputs": [
        {
          "internalType": "address",
          "name": "from",
          "type": "address"
        },
        {
          "internalType": "address",
          "name": "to",
          "type": "address"
        },
        {
          "internalType": "uint256",
          "name": "value",
          "type": "uint256"
        }
      ],
      "name": "transferFrom",
      "outputs": [
        {
          "internalType": "bool",
          "name": "",
          "type": "bool"
        }
      ],
      "stateMutability": "nonpayable",
      "type": "function"
    }
  ],
  "bytecode": "0x60a06040523480156200001157600080fd5b506040516200245438038062002454833981810160405281019062000037919062000351565b6040518060400160405280601281526020017f50544241452d505520416c6c6f77616e636500000000000000000000000000008152506040518060400160405280600581526020017f50544241450000000000000000000000000000000000000000000000000000008152508160039081620000b4919062000627565b508060049081620000c6919062000627565b5050508063ffffffff1660808163ffffffff1681525050620000f26000801b846200012f60201b60201c565b50620001257f20b5f7ac978e5d6199de06401411960dfa81d2f762655f6206bdc61d46fc19e6836200012f60201b60201c565b505050506200070e565b60006200014383836200023360201b60201c565b620002285760016005600085815260200190815260200160002060000160008473ffffffffffffffffffffffffffffffffffffffff1673ffffffffffffffffffffffffffffffffffffffff16815260200190815260200160002060006101000a81548160ff021916908315150217905550620001c46200029e60201b60201c565b73ffffffffffffffffffffffffffffffffffffffff168273ffffffffffffffffffffffffffffffffffffffff16847f2f8788117e7eff1d82e926ec794901d17c78024a50270940304540a733656f0d60405160405180910390a4600190506200022d565b600090505b92915050565b60006005600084815260200190815260200160002060000160008373ffffffffffffffffffffffffffffffffffffffff1673ffffffffffffffffffffffffffffffffffffffff16815260200190815260200160002060009054906101000a900460ff16905092915050565b600033905090565b600080fd5b600073ffffffffffffffffffffffffffffffffffffffff82169050919050565b6000620002d882620002ab565b9050919050565b620002ea81620002cb565b8114620002f657600080fd5b50565b6000815190506200030a81620002df565b92915050565b600063ffffffff82169050919050565b6200032b8162000310565b81146200033757600080fd5b50565b6000815190506200034b8162000320565b92915050565b6000806000606084860312156200036d576200036c620002a6565b5b60006200037d86828701620002f9565b93505060206200039086828701620002f9565b9250506040620003a3868287016200033a565b9150509250925092565b600081519050919050565b7f4e487b7100000000000000000000000000000000000000000000000000000000600052604160045260246000fd5b7f4e487b7100000000000000000000000000000000000000000000000000000000600052602260045260246000fd5b600060028204905060018216806200042f57607f821691505b602082108103620004455762000444620003e7565b5b50919050565b60008190508160005260206000209050919050565b60006020601f8301049050919050565b600082821b905092915050565b600060088302620004af7fffffffffffffffffffffffffffffffffffffffffffffffffffffffffffffffff8262000470565b620004bb868362000470565b95508019841693508086168417925050509392505050565b6000819050919050565b6000819050919050565b60006200050862000502620004fc84620004d3565b620004dd565b620004d3565b9050919050565b6000819050919050565b6200052483620004e7565b6200053c62000533826200050f565b8484546200047d565b825550505050565b600090565b6200055362000544565b6200056081848462000519565b505050565b5b8181101562000588576200057c60008262000549565b60018101905062000566565b5050565b601f821115620005d757620005a1816200044b565b620005ac8462000460565b81016020851015620005bc578190505b620005d4620005cb8562000460565b83018262000565565b50505b505050565b600082821c905092915050565b6000620005fc60001984600802620005dc565b1980831691505092915050565b6000620006178383620005e9565b9150826002028217905092915050565b6200063282620003ad565b67ffffffffffffffff8111156200064e576200064d620003b8565b5b6200065a825462000416565b620006678282856200058c565b600060209050601f8311600181146200069f57600084156200068a578287015190505b62000696858262000609565b86555062000706565b601f198416620006af866200044b565b60005b82811015620006d957848901518255600182019150602085019450602081019050620006b2565b86831015620006f95784890151620006f5601f891682620005e9565b8355505b6001600288020188555050505b505050505050565b608051611d23620007316000396000818161059b0152610a580152611d236000f3fe608060405234801561001057600080fd5b50600436106101425760003560e01c806336568abe116100b8578063a9059cbb1161007c578063a9059cbb146103b5578063b78b52df146103e5578063d547741f14610401578063dd62ed3e1461041d578063ef78d4fd1461044d578063fd61d10b1461046b57610142565b806336568abe146102fd57806370a082311461031957806391d148541461034957806395d89b4114610379578063a217fddf1461039757610142565b806318160ddd1161010a57806318160ddd1461021357806323073b5d1461023157806323b872dd14610263578063248a9ca3146102935780632f2ff15d146102c3578063313ce567146102df57610142565b806301ffc9a71461014757806306fdde0314610177578063095ea7b314610195578063144bf589146101c55780631586f91b146101e3575b600080fd5b610161600480360381019061015c91906115e7565b610487565b60405161016e919061162f565b60405180910390f35b61017f610499565b60405161018c91906116da565b60405180910390f35b6101af60048036038101906101aa9190611790565b61052b565b6040516101bc919061162f565b60405180910390f35b6101cd61054e565b6040516101da91906117e9565b60405180910390f35b6101fd60048036038101906101f89190611804565b610572565b60405161020a9190611840565b60405180910390f35b61021b61058a565b6040516102289190611840565b60405180910390f35b61024b60048036038101906102469190611804565b610594565b60405161025a9392919061187a565b60405180910390f35b61027d600480360381019061027891906118b1565b610610565b60405161028a919061162f565b60405180910390f35b6102ad60048036038101906102a89190611930565b61063f565b6040516102ba91906117e9565b60405180910390f35b6102dd60048036038101906102d8919061195d565b61065f565b005b6102e7610681565b6040516102f491906119b9565b60405180910390f35b6103176004803603810190610312919061195d565b61068a565b005b610333600480360381019061032e9190611804565b610705565b6040516103409190611840565b60405180910390f35b610363600480360381019061035e919061195d565b61074d565b604051610370919061162f565b60405180910390f35b6103816107b8565b60405161038e91906116da565b60405180910390f35b61039f61084a565b6040516103ac91906117e9565b60405180910390f35b6103cf60048036038101906103ca9190611790565b610851565b6040516103dc919061162f565b60405180910390f35b6103ff60048036038101906103fa9190611790565b610874565b005b61041b6004803603810190610416919061195d565b6109ad565b005b610437600480360381019061043291906119d4565b6109cf565b6040516104449190611840565b60405180910390f35b610455610a56565b6040516104629190611a14565b60405180910390f35b61048560048036038101906104809190611a2f565b610a7a565b005b600061049282610bb9565b9050919050565b6060600380546104a890611a8b565b80601f01602080910402602001604051908101604052809291908181526020018280546104d490611a8b565b80156105215780601f106104f657610100808354040283529160200191610521565b820191906000526020600020905b81548152906001019060200180831161050457829003601f168201915b5050505050905090565b600080610536610c33565b9050610543818585610c3b565b600191505092915050565b7f20b5f7ac978e5d6199de06401411960dfa81d2f762655f6206bdc61d46fc19e681565b60066020528060005260406000206000915090505481565b6000600254905090565b60008060007f00000000000000000000000000000000000000000000000000000000000000006105c385610705565b600660008773ffffffffffffffffffffffffffffffffffffffff1673ffffffffffffffffffffffffffffffffffffffff168152602001908152602001600020549250925092509193909250565b60008061061b610c33565b9050610628858285610c4d565b610633858585610ce2565b60019150509392505050565b600060056000838152602001908152602001600020600101549050919050565b6106688261063f565b61067181610dd6565b61067b8383610dea565b50505050565b60006012905090565b610692610c33565b73ffffffffffffffffffffffffffffffffffffffff168173ffffffffffffffffffffffffffffffffffffffff16146106f6576040517f6697b23200000000000000000000000000000000000000000000000000000000815260040160405180910390fd5b6107008282610edc565b505050565b60008060008373ffffffffffffffffffffffffffffffffffffffff1673ffffffffffffffffffffffffffffffffffffffff168152602001908152602001600020549050919050565b60006005600084815260200190815260200160002060000160008373ffffffffffffffffffffffffffffffffffffffff1673ffffffffffffffffffffffffffffffffffffffff16815260200190815260200160002060009054906101000a900460ff16905092915050565b6060600480546107c790611a8b565b80601f01602080910402602001604051908101604052809291908181526020018280546107f390611a8b565b80156108405780601f1061081557610100808354040283529160200191610840565b820191906000526020600020905b81548152906001019060200180831161082357829003601f168201915b5050505050905090565b6000801b81565b60008061085c610c33565b9050610869818585610ce2565b600191505092915050565b7f20b5f7ac978e5d6199de06401411960dfa81d2f762655f6206bdc61d46fc19e661089e81610dd6565b600073ffffffffffffffffffffffffffffffffffffffff168373ffffffffffffffffffffffffffffffffffffffff160361090d576040517f08c379a000000000000000000000000000000000000000000000000000000000815260040161090490611b08565b60405180910390fd5b60008211610950576040517f08c379a000000000000000000000000000000000000000000000000000000000815260040161094790611b74565b60405180910390fd5b61095a8383610fcf565b8273ffffffffffffffffffffffffffffffffffffffff167f472f36e28bb47edb7c69c9e2ac00a77c66b505df54e9c818ac57110b0629e8c3836040516109a09190611840565b60405180910390a2505050565b6109b68261063f565b6109bf81610dd6565b6109c98383610edc565b50505050565b6000600160008473ffffffffffffffffffffffffffffffffffffffff1673ffffffffffffffffffffffffffffffffffffffff16815260200190815260200160002060008373ffffffffffffffffffffffffffffffffffffffff1673ffffffffffffffffffffffffffffffffffffffff16815260200190815260200160002054905092915050565b7f000000000000000000000000000000000000000000000000000000000000000081565b60008111610abd576040517f08c379a0000000000000000000000000000000000000000000000000000000008152600401610ab490611b74565b60405180910390fd5b80610ac733610705565b1015610b08576040517f08c379a0000000000000000000000000000000000000000000000000000000008152600401610aff90611be0565b60405180910390fd5b610b123382611051565b80600660003373ffffffffffffffffffffffffffffffffffffffff1673ffffffffffffffffffffffffffffffffffffffff1681526020019081526020016000206000828254610b619190611c2f565b925050819055503373ffffffffffffffffffffffffffffffffffffffff167faf0940ae03ab6ebed23efcabc6968bf05f3f50d29eb2f59dd577d1a772ddb8c782604051610bae9190611840565b60405180910390a250565b60007f7965db0b000000000000000000000000000000000000000000000000000000007bffffffffffffffffffffffffffffffffffffffffffffffffffffffff1916827bffffffffffffffffffffffffffffffffffffffffffffffffffffffff19161480610c2c5750610c2b826110d3565b5b9050919050565b600033905090565b610c48838383600161113d565b505050565b6000610c5984846109cf565b90507fffffffffffffffffffffffffffffffffffffffffffffffffffffffffffffffff811015610cdc5781811015610ccc578281836040517ffb8f41b2000000000000000000000000000000000000000000000000000000008152600401610cc393929190611c72565b60405180910390fd5b610cdb8484848403600061113d565b5b50505050565b600073ffffffffffffffffffffffffffffffffffffffff168373ffffffffffffffffffffffffffffffffffffffff1603610d545760006040517f96c6fd1e000000000000000000000000000000000000000000000000000000008152600401610d4b9190611ca9565b60405180910390fd5b600073ffffffffffffffffffffffffffffffffffffffff168273ffffffffffffffffffffffffffffffffffffffff1603610dc65760006040517fec442f05000000000000000000000000000000000000000000000000000000008152600401610dbd9190611ca9565b60405180910390fd5b610dd1838383611314565b505050565b610de781610de2610c33565b611539565b50565b6000610df6838361074d565b610ed15760016005600085815260200190815260200160002060000160008473ffffffffffffffffffffffffffffffffffffffff1673ffffffffffffffffffffffffffffffffffffffff16815260200190815260200160002060006101000a81548160ff021916908315150217905550610e6e610c33565b73ffffffffffffffffffffffffffffffffffffffff168273ffffffffffffffffffffffffffffffffffffffff16847f2f8788117e7eff1d82e926ec794901d17c78024a50270940304540a733656f0d60405160405180910390a460019050610ed6565b600090505b92915050565b6000610ee8838361074d565b15610fc45760006005600085815260200190815260200160002060000160008473ffffffffffffffffffffffffffffffffffffffff1673ffffffffffffffffffffffffffffffffffffffff16815260200190815260200160002060006101000a81548160ff021916908315150217905550610f61610c33565b73ffffffffffffffffffffffffffffffffffffffff168273ffffffffffffffffffffffffffffffffffffffff16847ff6391f5c32d9c69d2a47ea670b442974b53935d1edc7fd64eb21e047a839171b60405160405180910390a460019050610fc9565b600090505b92915050565b600073ffffffffffffffffffffffffffffffffffffffff168273ffffffffffffffffffffffffffffffffffffffff16036110415760006040517fec442f050000000000000000000000000000000000000000000000000000000081526004016110389190611ca9565b60405180910390fd5b61104d60008383611314565b5050565b600073ffffffffffffffffffffffffffffffffffffffff168273ffffffffffffffffffffffffffffffffffffffff16036110c35760006040517f96c6fd1e0000000000000000000000000000000000000000000000000000000081526004016110ba9190611ca9565b60405180910390fd5b6110cf82600083611314565b5050565b60007f01ffc9a7000000000000000000000000000000000000000000000000000000007bffffffffffffffffffffffffffffffffffffffffffffffffffffffff1916827bffffffffffffffffffffffffffffffffffffffffffffffffffffffff1916149050919050565b600073ffffffffffffffffffffffffffffffffffffffff168473ffffffffffffffffffffffffffffffffffffffff16036111af5760006040517fe602df050000000000000000000000000000000000000000000000000000000081526004016111a69190611ca9565b60405180910390fd5b600073ffffffffffffffffffffffffffffffffffffffff168373ffffffffffffffffffffffffffffffffffffffff16036112215760006040517f94280d620000000000000000000000000000000000000000000000000000000081526004016112189190611ca9565b60405180910390fd5b81600160008673ffffffffffffffffffffffffffffffffffffffff1673ffffffffffffffffffffffffffffffffffffffff16815260200190815260200160002060008573ffffffffffffffffffffffffffffffffffffffff1673ffffffffffffffffffffffffffffffffffffffff16815260200190815260200160002081905550801561130e578273ffffffffffffffffffffffffffffffffffffffff168473ffffffffffffffffffffffffffffffffffffffff167f8c5be1e5ebec7d5bd14f71427d1e84f3dd0314c0f7b2291e5b200ac8c7c3b925846040516113059190611840565b60405180910390a35b50505050565b600073ffffffffffffffffffffffffffffffffffffffff168373ffffffffffffffffffffffffffffffffffffffff160361136657806002600082825461135a9190611c2f565b92505081905550611439565b60008060008573ffffffffffffffffffffffffffffffffffffffff1673ffffffffffffffffffffffffffffffffffffffff168152602001908152602001600020549050818110156113f2578381836040517fe450d38c0000000000000000000000000000000000000000000000000000000081526004016113e993929190611c72565b60405180910390fd5b8181036000808673ffffffffffffffffffffffffffffffffffffffff1673ffffffffffffffffffffffffffffffffffffffff16815260200190815260200160002081905550505b600073ffffffffffffffffffffffffffffffffffffffff168273ffffffffffffffffffffffffffffffffffffffff160361148257806002600082825403925050819055506114cf565b806000808473ffffffffffffffffffffffffffffffffffffffff1673ffffffffffffffffffffffffffffffffffffffff168152602001908152602001600020600082825401925050819055505b8173ffffffffffffffffffffffffffffffffffffffff168373ffffffffffffffffffffffffffffffffffffffff167fddf252ad1be2c89b69c2b068fc378daa952ba7f163c4a11628f55a4df523b3ef8360405161152c9190611840565b60405180910390a3505050565b611543828261074d565b6115865780826040517fe2517d3f00000000000000000000000000000000000000000000000000000000815260040161157d929190611cc4565b60405180910390fd5b5050565b600080fd5b60007fffffffff0000000000000000000000000000000000000000000000000000000082169050919050565b6115c48161158f565b81146115cf57600080fd5b50565b6000813590506115e1816115bb565b92915050565b6000602082840312156115fd576115fc61158a565b5b600061160b848285016115d2565b91505092915050565b60008115159050919050565b61162981611614565b82525050565b60006020820190506116446000830184611620565b92915050565b600081519050919050565b600082825260208201905092915050565b60005b83811015611684578082015181840152602081019050611669565b60008484015250505050565b6000601f19601f8301169050919050565b60006116ac8261164a565b6116b68185611655565b93506116c6818560208601611666565b6116cf81611690565b840191505092915050565b600060208201905081810360008301526116f481846116a1565b905092915050565b600073ffffffffffffffffffffffffffffffffffffffff82169050919050565b6000611727826116fc565b9050919050565b6117378161171c565b811461174257600080fd5b50565b6000813590506117548161172e565b92915050565b6000819050919050565b61176d8161175a565b811461177857600080fd5b50565b60008135905061178a81611764565b92915050565b600080604083850312156117a7576117a661158a565b5b60006117b585828601611745565b92505060206117c68582860161177b565b9150509250929050565b6000819050919050565b6117e3816117d0565b82525050565b60006020820190506117fe60008301846117da565b92915050565b60006020828403121561181a5761181961158a565b5b600061182884828501611745565b91505092915050565b61183a8161175a565b82525050565b60006020820190506118556000830184611831565b92915050565b600063ffffffff82169050919050565b6118748161185b565b82525050565b600060608201905061188f600083018661186b565b61189c6020830185611831565b6118a96040830184611831565b949350505050565b6000806000606084860312156118ca576118c961158a565b5b60006118d886828701611745565b93505060206118e986828701611745565b92505060406118fa8682870161177b565b9150509250925092565b61190d816117d0565b811461191857600080fd5b50565b60008135905061192a81611904565b92915050565b6000602082840312156119465761194561158a565b5b60006119548482850161191b565b91505092915050565b600080604083850312156119745761197361158a565b5b60006119828582860161191b565b925050602061199385828601611745565b9150509250929050565b600060ff82169050919050565b6119b38161199d565b82525050565b60006020820190506119ce60008301846119aa565b92915050565b600080604083850312156119eb576119ea61158a565b5b60006119f985828601611745565b9250506020611a0a85828601611745565b9150509250929050565b6000602082019050611a29600083018461186b565b92915050565b600060208284031215611a4557611a4461158a565b5b6000611a538482850161177b565b91505092915050565b7f4e487b7100000000000000000000000000000000000000000000000000000000600052602260045260246000fd5b60006002820490506001821680611aa357607f821691505b602082108103611ab657611ab5611a5c565b5b50919050565b7f746f3d3000000000000000000000000000000000000000000000000000000000600082015250565b6000611af2600483611655565b9150611afd82611abc565b602082019050919050565b60006020820190508181036000830152611b2181611ae5565b9050919050565b7f616d6f756e743d30000000000000000000000000000000000000000000000000600082015250565b6000611b5e600883611655565b9150611b6982611b28565b602082019050919050565b60006020820190508181036000830152611b8d81611b51565b9050919050565b7f696e73756666696369656e740000000000000000000000000000000000000000600082015250565b6000611bca600c83611655565b9150611bd582611b94565b602082019050919050565b60006020820190508181036000830152611bf981611bbd565b9050919050565b7f4e487b7100000000000000000000000000000000000000000000000000000000600052601160045260246000fd5b6000611c3a8261175a565b9150611c458361175a565b9250828201905080821115611c5d57611c5c611c00565b5b92915050565b611c6c8161171c565b82525050565b6000606082019050611c876000830186611c63565b611c946020830185611831565b611ca16040830184611831565b949350505050565b6000602082019050611cbe6000830184611c63565b92915050565b6000604082019050611cd96000830185611c63565b611ce660208301846117da565b939250505056fea2646970667358221220bc7a35ce865ef357336f3eb30dccea8ea4045a7f88e738e3c5575b8e2299924664736f6c63430008140033",
  "linkReferences": {},
  "deployedLinkReferences": {}
}