{
  "_format": "hh-sol-artifact-1",
  "contractName": "PTBAEAllowanceToken",
  "sourceName": "contracts/PTBAEAllowanceToken.sol",
  "abi": [
    {
      "inputs": [
        {
          "internalType": "address",
          "name": "admin",
          "type": "address"
        },
        {
          "internalType": "address",
          "name": "regulator",
          "type": "address"
        },
        {
          "internalType": "uint32",
          "name": "_period",
          "type": "uint32"
        },
        {
          "internalType": "address",
          "name": "trustedForwarder",
          "type": "address"
        },
        {
          "internalType": "address",
          "name": "_oracle",
          "type": "address"
        },
        {
          "internalType": "address",
          "name": "_speToken",
          "type": "address"
        }
      ],
      "stateMutability": "nonpayable",
      "type": "constructor"
    },
    {
      "inputs": [],
      "name": "AccessControlBadConfirmation",
      "type": "error"
    },
    {
      "inputs": [
        {
          "internalType": "address",
          "name": "account",
          "type": "address"
        },
        {
          "internalType": "bytes32",
          "name": "neededRole",
          "type": "bytes32"
        }
      ],
      "name": "AccessControlUnauthorizedAccount",
      "type": "error"
    },
    {
      "inputs": [],
      "name": "AlreadyEnded",
      "type": "error"
    },
    {
      "inputs": [],
      "name": "AlreadySurrendered",
      "type": "error"
    },
    {
      "inputs": [],
      "name": "ArrayLengthMismatch",
      "type": "error"
    },
    {
      "inputs": [
        {
          "internalType": "address",
          "name": "spender",
          "type": "address"
        },
        {
          "internalType": "uint256",
          "name": "allowance",
          "type": "uint256"
        },
        {
          "internalType": "uint256",
          "name": "needed",
          "type": "uint256"
        }
      ],
      "name": "ERC20InsufficientAllowance",
      "type": "error"
    },
    {
      "inputs": [
        {
          "internalType": "address",
          "name": "sender",
          "type": "address"
        },
        {
          "internalType": "uint256",
          "name": "balance",
          "type": "uint256"
        },
        {
          "internalType": "uint256",
          "name": "needed",
          "type": "uint256"
        }
      ],
      "name": "ERC20InsufficientBalance",
      "type": "error"
    },
    {
      "inputs": [
        {
          "internalType": "address",
          "name": "approver",
          "type": "address"
        }
      ],
      "name": "ERC20InvalidApprover",
      "type": "error"
    },
    {
      "inputs": [
        {
          "internalType": "address",
          "name": "receiver",
          "type": "address"
        }
      ],
      "name": "ERC20InvalidReceiver",
      "type": "error"
    },
    {
      "inputs": [
        {
          "internalType": "address",
          "name": "sender",
          "type": "address"
        }
      ],
      "name": "ERC20InvalidSender",
      "type": "error"
    },
    {
      "inputs": [
        {
          "internalType": "address",
          "name": "spender",
          "type": "address"
        }
      ],
      "name": "ERC20InvalidSpender",
      "type": "error"
    },
    {
      "inputs": [
        {
          "internalType": "uint256",
          "name": "available",
          "type": "uint256"
        },
        {
          "internalType": "uint256",
          "name": "required",
          "type": "uint256"
        }
      ],
      "name": "InsufficientPTBAEBalance",
      "type": "error"
    },
    {
      "inputs": [],
      "name": "InvalidAmount",
      "type": "error"
    },
    {
      "inputs": [],
      "name": "InvalidRecipient",
      "type": "error"
    },
    {
      "inputs": [],
      "name": "NoRecipients",
      "type": "error"
    },
    {
      "inputs": [],
      "name": "NoVerifiedEmissionData",
      "type": "error"
    },
    {
      "inputs": [],
      "name": "NotActive",
      "type": "error"
    },
    {
      "inputs": [],
      "name": "PeriodNotActive",
      "type": "error"
    },
    {
      "inputs": [],
      "name": "SurrenderOnlyInAuditPhase",
      "type": "error"
    },
    {
      "inputs": [],
      "name": "TransferRestricted",
      "type": "error"
    },
    {
      "inputs": [
        {
          "internalType": "uint16",
          "name": "vintage",
          "type": "uint16"
        },
        {
          "internalType": "uint32",
          "name": "period",
          "type": "uint32"
        }
      ],
      "name": "VintageTooNew",
      "type": "error"
    },
    {
      "anonymous": false,
      "inputs": [
        {
          "indexed": true,
          "internalType": "address",
          "name": "to",
          "type": "address"
        },
        {
          "indexed": false,
          "internalType": "uint256",
          "name": "amount",
          "type": "uint256"
        }
      ],
      "name": "Allocated",
      "type": "event"
    },
    {
      "anonymous": false,
      "inputs": [
        {
          "indexed": true,
          "internalType": "address",
          "name": "owner",
          "type": "address"
        },
        {
          "indexed": true,
          "internalType": "address",
          "name": "spender",
          "type": "address"
        },
        {
          "indexed": false,
          "internalType": "uint256",
          "name": "value",
          "type": "uint256"
        }
      ],
      "name": "Approval",
      "type": "event"
    },
    {
      "anonymous": false,
      "inputs": [
        {
          "indexed": true,
          "internalType": "address",
          "name": "user",
          "type": "address"
        },
        {
          "indexed": false,
          "internalType": "enum PTBAEAllowanceToken.ComplianceStatus",
          "name": "status",
          "type": "uint8"
        }
      ],
      "name": "ComplianceUpdated",
      "type": "event"
    },
    {
      "anonymous": false,
      "inputs": [
        {
          "indexed": true,
          "internalType": "bytes32",
          "name": "role",
          "type": "bytes32"
        },
        {
          "indexed": true,
          "internalType": "bytes32",
          "name": "previousAdminRole",
          "type": "bytes32"
        },
        {
          "indexed": true,
          "internalType": "bytes32",
          "name": "newAdminRole",
          "type": "bytes32"
        }
      ],
      "name": "RoleAdminChanged",
      "type": "event"
    },
    {
      "anonymous": false,
      "inputs": [
        {
          "indexed": true,
          "internalType": "bytes32",
          "name": "role",
          "type": "bytes32"
        },
        {
          "indexed": true,
          "internalType": "address",
          "name": "account",
          "type": "address"
        },
        {
          "indexed": true,
          "internalType": "address",
          "name": "sender",
          "type": "address"
        }
      ],
      "name": "RoleGranted",
      "type": "event"
    },
    {
      "anonymous": false,
      "inputs": [
        {
          "indexed": true,
          "internalType": "bytes32",
          "name": "role",
          "type": "bytes32"
        },
        {
          "indexed": true,
          "internalType": "address",
          "name": "account",
          "type": "address"
        },
        {
          "indexed": true,
          "internalType": "address",
          "name": "sender",
          "type": "address"
        }
      ],
      "name": "RoleRevoked",
      "type": "event"
    },
    {
      "anonymous": false,
      "inputs": [
        {
          "indexed": false,
          "internalType": "uint32",
          "name": "period",
          "type": "uint32"
        },
        {
          "indexed": false,
          "internalType": "enum PTBAEAllowanceToken.PeriodStatus",
          "name": "status",
          "type": "uint8"
        }
      ],
      "name": "StatusChanged",
      "type": "event"
    },
    {
      "anonymous": false,
      "inputs": [
        {
          "indexed": true,
          "internalType": "address",
          "name": "from",
          "type": "address"
        },
        {
          "indexed": false,
          "internalType": "uint256",
          "name": "amount",
          "type": "uint256"
        },
        {
          "indexed": false,
          "internalType": "uint256",
          "name": "remaining",
          "type": "uint256"
        }
      ],
      "name": "Surrendered",
      "type": "event"
    },
    {
      "anonymous": false,
      "inputs": [
        {
          "indexed": true,
          "internalType": "address",
          "name": "from",
          "type": "address"
        },
        {
          "indexed": true,
          "internalType": "address",
          "name": "to",
          "type": "address"
        },
        {
          "indexed": false,
          "internalType": "uint256",
          "name": "value",
          "type": "uint256"
        }
      ],
      "name": "Transfer",
      "type": "event"
    },
    {
      "inputs": [],
      "name": "DEFAULT_ADMIN_ROLE",
      "outputs": [
        {
          "internalType": "bytes32",
          "name": "",
          "type": "bytes32"
        }
      ],
      "stateMutability": "view",
      "type": "function"
    },
    {
      "inputs": [],
      "name": "REGULATOR_ROLE",
      "outputs": [
        {
          "internalType": "bytes32",
          "name": "",
          "type": "bytes32"
        }
      ],
      "stateMutability": "view",
      "type": "function"
    },
    {
      "inputs": [
        {
          "internalType": "address",
          "name": "to",
          "type": "address"
        },
        {
          "internalType": "uint256",
          "name": "amount",
          "type": "uint256"
        }
      ],
      "name": "allocate",
      "outputs": [],
      "stateMutability": "nonpayable",
      "type": "function"
    },
    {
      "inputs": [
        {
          "internalType": "address",
          "name": "owner",
          "type": "address"
        },
        {
          "internalType": "address",
          "name": "spender",
          "type": "address"
        }
      ],
      "name": "allowance",
      "outputs": [
        {
          "internalType": "uint256",
          "name": "",
          "type": "uint256"
        }
      ],
      "stateMutability": "view",
      "type": "function"
    },
    {
      "inputs": [
        {
          "internalType": "address",
          "name": "spender",
          "type": "address"
        },
        {
          "internalType": "uint256",
          "name": "value",
          "type": "uint256"
        }
      ],
      "name": "approve",
      "outputs": [
        {
          "internalType": "bool",
          "name": "",
          "type": "bool"
        }
      ],
      "stateMutability": "nonpayable",
      "type": "function"
    },
    {
      "inputs": [
        {
          "internalType": "address",
          "name": "account",
          "type": "address"
        }
      ],
      "name": "balanceOf",
      "outputs": [
        {
          "internalType": "uint256",
          "name": "",
          "type": "uint256"
        }
      ],
      "stateMutability": "view",
      "type": "function"
    },
    {
      "inputs": [
        {
          "internalType": "address[]",
          "name": "recipients",
          "type": "address[]"
        },
        {
          "internalType": "uint256",
          "name": "amount",
          "type": "uint256"
        }
      ],
      "name": "batchAllocate",
      "outputs": [],
      "stateMutability": "nonpayable",
      "type": "function"
    },
    {
      "inputs": [
        {
          "internalType": "address",
          "name": "",
          "type": "address"
        }
      ],
      "name": "complianceStatus",
      "outputs": [
        {
          "internalType": "enum PTBAEAllowanceToken.ComplianceStatus",
          "name": "",
          "type": "uint8"
        }
      ],
      "stateMutability": "view",
      "type": "function"
    },
    {
      "inputs": [],
      "name": "decimals",
      "outputs": [
        {
          "internalType": "uint8",
          "name": "",
          "type": "uint8"
        }
      ],
      "stateMutability": "view",
      "type": "function"
    },
    {
      "inputs": [],
      "name": "finalize",
      "outputs": [],
      "stateMutability": "nonpayable",
      "type": "function"
    },
    {
      "inputs": [
        {
          "internalType": "address",
          "name": "account",
          "type": "address"
        }
      ],
      "name": "getCompliance",
      "outputs": [
        {
          "internalType": "uint32",
          "name": "p",
          "type": "uint32"
        },
        {
          "internalType": "uint256",
          "name": "balance",
          "type": "uint256"
        },
        {
          "internalType": "uint256",
          "name": "surrenderedAmt",
          "type": "uint256"
        },
        {
          "internalType": "uint256",
          "name": "verifiedEmission",
          "type": "uint256"
        },
        {
          "internalType": "uint256",
          "name": "debt",
          "type": "uint256"
        },
        {
          "internalType": "enum PTBAEAllowanceToken.ComplianceStatus",
          "name": "cStatus",
          "type": "uint8"
        }
      ],
      "stateMutability": "view",
      "type": "function"
    },
    {
      "inputs": [
        {
          "internalType": "bytes32",
          "name": "role",
          "type": "bytes32"
        }
      ],
      "name": "getRoleAdmin",
      "outputs": [
        {
          "internalType": "bytes32",
          "name": "",
          "type": "bytes32"
        }
      ],
      "stateMutability": "view",
      "type": "function"
    },
    {
      "inputs": [
        {
          "internalType": "bytes32",
          "name": "role",
          "type": "bytes32"
        },
        {
          "internalType": "address",
          "name": "account",
          "type": "address"
        }
      ],
      "name": "grantRole",
      "outputs": [],
      "stateMutability": "nonpayable",
      "type": "function"
    },
    {
      "inputs": [
        {
          "internalType": "bytes32",
          "name": "role",
          "type": "bytes32"
        },
        {
          "internalType": "address",
          "name": "account",
          "type": "address"
        }
      ],
      "name": "hasRole",
      "outputs": [
        {
          "internalType": "bool",
          "name": "",
          "type": "bool"
        }
      ],
      "stateMutability": "view",
      "type": "function"
    },
    {
      "inputs": [
        {
          "internalType": "address",
          "name": "",
          "type": "address"
        }
      ],
      "name": "hasSurrendered",
      "outputs": [
        {
          "internalType": "bool",
          "name": "",
          "type": "bool"
        }
      ],
      "stateMutability": "view",
      "type": "function"
    },
    {
      "inputs": [
        {
          "internalType": "address",
          "name": "forwarder",
          "type": "address"
        }
      ],
      "name": "isTrustedForwarder",
      "outputs": [
        {
          "internalType": "bool",
          "name": "",
          "type": "bool"
        }
      ],
      "stateMutability": "view",
      "type": "function"
    },
    {
      "inputs": [],
      "name": "name",
      "outputs": [
        {
          "internalType": "string",
          "name": "",
          "type": "string"
        }
      ],
      "stateMutability": "view",
      "type": "function"
    },
    {
      "inputs": [
        {
          "internalType": "address",
          "name": "",
          "type": "address"
        },
        {
          "internalType": "address",
          "name": "",
          "type": "address"
        },
        {
          "internalType": "uint256[]",
          "name": "",
          "type": "uint256[]"
        },
        {
          "internalType": "uint256[]",
          "name": "",
          "type": "uint256[]"
        },
        {
          "internalType": "bytes",
          "name": "",
          "type": "bytes"
        }
      ],
      "name": "onERC1155BatchReceived",
      "outputs": [
        {
          "internalType": "bytes4",
          "name": "",
          "type": "bytes4"
        }
      ],
      "stateMutability": "nonpayable",
      "type": "function"
    },
    {
      "inputs": [
        {
          "internalType": "address",
          "name": "",
          "type": "address"
        },
        {
          "internalType": "address",
          "name": "",
          "type": "address"
        },
        {
          "internalType": "uint256",
          "name": "",
          "type": "uint256"
        },
        {
          "internalType": "uint256",
          "name": "",
          "type": "uint256"
        },
        {
          "internalType": "bytes",
          "name": "",
          "type": "bytes"
        }
      ],
      "name": "onERC1155Received",
      "outputs": [
        {
          "internalType": "bytes4",
          "name": "",
          "type": "bytes4"
        }
      ],
      "stateMutability": "nonpayable",
      "type": "function"
    },
    {
      "inputs": [],
      "name": "oracle",
      "outputs": [
        {
          "internalType": "contract IMRVOracle",
          "name": "",
          "type": "address"
        }
      ],
      "stateMutability": "view",
      "type": "function"
    },
    {
      "inputs": [],
      "name": "period",
      "outputs": [
        {
          "internalType": "uint32",
          "name": "",
          "type": "uint32"
        }
      ],
      "stateMutability": "view",
      "type": "function"
    },
    {
      "inputs": [
        {
          "internalType": "bytes32",
          "name": "role",
          "type": "bytes32"
        },
        {
          "internalType": "address",
          "name": "callerConfirmation",
          "type": "address"
        }
      ],
      "name": "renounceRole",
      "outputs": [],
      "stateMutability": "nonpayable",
      "type": "function"
    },
    {
      "inputs": [
        {
          "internalType": "bytes32",
          "name": "role",
          "type": "bytes32"
        },
        {
          "internalType": "address",
          "name": "account",
          "type": "address"
        }
      ],
      "name": "revokeRole",
      "outputs": [],
      "stateMutability": "nonpayable",
      "type": "function"
    },
    {
      "inputs": [],
      "name": "setAudit",
      "outputs": [],
      "stateMutability": "nonpayable",
      "type": "function"
    },
    {
      "inputs": [],
      "name": "speToken",
      "outputs": [
        {
          "internalType": "contract SPEGRKToken",
          "name": "",
          "type": "address"
        }
      ],
      "stateMutability": "view",
      "type": "function"
    },
    {
      "inputs": [],
      "name": "status",
      "outputs": [
        {
          "internalType": "enum PTBAEAllowanceToken.PeriodStatus",
          "name": "",
          "type": "uint8"
        }
      ],
      "stateMutability": "view",
      "type": "function"
    },
    {
      "inputs": [
        {
          "internalType": "bytes4",
          "name": "interfaceId",
          "type": "bytes4"
        }
      ],
      "name": "supportsInterface",
      "outputs": [
        {
          "internalType": "bool",
          "name": "",
          "type": "bool"
        }
      ],
      "stateMutability": "view",
      "type": "function"
    },
    {
      "inputs": [],
      "name": "surrender",
      "outputs": [],
      "stateMutability": "nonpayable",
      "type": "function"
    },
    {
      "inputs": [
        {
          "internalType": "uint256[]",
          "name": "speIds",
          "type": "uint256[]"
        },
        {
          "internalType": "uint256[]",
          "name": "speAmounts",
          "type": "uint256[]"
        }
      ],
      "name": "surrenderWithOffset",
      "outputs": [],
      "stateMutability": "nonpayable",
      "type": "function"
    },
    {
      "inputs": [
        {
          "internalType": "address",
          "name": "",
          "type": "address"
        }
      ],
      "name": "surrendered",
      "outputs": [
        {
          "internalType": "uint256",
          "name": "",
          "type": "uint256"
        }
      ],
      "stateMutability": "view",
      "type": "function"
    },
    {
      "inputs": [],
      "name": "symbol",
      "outputs": [
        {
          "internalType": "string",
          "name": "",
          "type": "string"
        }
      ],
      "stateMutability": "view",
      "type": "function"
    },
    {
      "inputs": [],
      "name": "totalSupply",
      "outputs": [
        {
          "internalType": "uint256",
          "name": "",
          "type": "uint256"
        }
      ],
      "stateMutability": "view",
      "type": "function"
    },
    {
      "inputs": [
        {
          "internalType": "address",
          "name": "to",
          "type": "address"
        },
        {
          "internalType": "uint256",
          "name": "value",
          "type": "uint256"
        }
      ],
      "name": "transfer",
      "outputs": [
        {
          "internalType": "bool",
          "name": "",
          "type": "bool"
        }
      ],
      "stateMutability": "nonpayable",
      "type": "function"
    },
    {
      "inputs": [
        {
          "internalType": "address",
          "name": "from",
          "type": "address"
        },
        {
          "internalType": "address",
          "name": "to",
          "type": "address"
        },
        {
          "internalType": "uint256",
          "name": "value",
          "type": "uint256"
        }
      ],
      "name": "transferFrom",
      "outputs": [
        {
          "internalType": "bool",
          "name": "",
          "type": "bool"
        }
      ],
      "stateMutability": "nonpayable",
      "type": "function"
    },
    {
      "inputs": [],
      "name": "trustedForwarder",
      "outputs": [
        {
          "internalType": "address",
          "name": "",
          "type": "address"
        }
      ],
      "stateMutability": "view",
      "type": "function"
    }
  ],
  "bytecode": "0x6101006040526000600660006101000a81548160ff021916908360028111156200002e576200002d62000489565b5b02179055503480156200004057600080fd5b50604051620045a6380380620045a6833981810160405281019062000066919062000563565b826040518060400160405280601281526020017f50544241452d505520416c6c6f77616e636500000000000000000000000000008152506040518060400160405280600581526020017f50544241450000000000000000000000000000000000000000000000000000008152508160039081620000e4919062000879565b508060049081620000f6919062000879565b5050508073ffffffffffffffffffffffffffffffffffffffff1660808173ffffffffffffffffffffffffffffffffffffffff1681525050508363ffffffff1660a08163ffffffff16815250508173ffffffffffffffffffffffffffffffffffffffff1660c08173ffffffffffffffffffffffffffffffffffffffff16815250508073ffffffffffffffffffffffffffffffffffffffff1660e08173ffffffffffffffffffffffffffffffffffffffff1681525050620001bf6000801b87620001ff60201b60201c565b50620001f27f20b5f7ac978e5d6199de06401411960dfa81d2f762655f6206bdc61d46fc19e686620001ff60201b60201c565b5050505050505062000a48565b60006200021383836200030360201b60201c565b620002f85760016005600085815260200190815260200160002060000160008473ffffffffffffffffffffffffffffffffffffffff1673ffffffffffffffffffffffffffffffffffffffff16815260200190815260200160002060006101000a81548160ff021916908315150217905550620002946200036e60201b60201c565b73ffffffffffffffffffffffffffffffffffffffff168273ffffffffffffffffffffffffffffffffffffffff16847f2f8788117e7eff1d82e926ec794901d17c78024a50270940304540a733656f0d60405160405180910390a460019050620002fd565b600090505b92915050565b60006005600084815260200190815260200160002060000160008373ffffffffffffffffffffffffffffffffffffffff1673ffffffffffffffffffffffffffffffffffffffff16815260200190815260200160002060009054906101000a900460ff16905092915050565b6000620003806200038560201b60201c565b905090565b600080600036905090506000620003a16200041060201b60201c565b9050808210158015620003c15750620003c0336200042760201b60201c565b5b15620003f857600036828403908092620003de939291906200096a565b90620003eb9190620009e2565b60601c925050506200040d565b620004086200046e60201b60201c565b925050505b90565b6000620004226200047660201b60201c565b905090565b6000620004396200047f60201b60201c565b73ffffffffffffffffffffffffffffffffffffffff168273ffffffffffffffffffffffffffffffffffffffff16149050919050565b600033905090565b60006014905090565b6000608051905090565b7f4e487b7100000000000000000000000000000000000000000000000000000000600052602160045260246000fd5b600080fd5b600073ffffffffffffffffffffffffffffffffffffffff82169050919050565b6000620004ea82620004bd565b9050919050565b620004fc81620004dd565b81146200050857600080fd5b50565b6000815190506200051c81620004f1565b92915050565b600063ffffffff82169050919050565b6200053d8162000522565b81146200054957600080fd5b50565b6000815190506200055d8162000532565b92915050565b60008060008060008060c08789031215620005835762000582620004b8565b5b60006200059389828a016200050b565b9650506020620005a689828a016200050b565b9550506040620005b989828a016200054c565b9450506060620005cc89828a016200050b565b9350506080620005df89828a016200050b565b92505060a0620005f289828a016200050b565b9150509295509295509295565b600081519050919050565b7f4e487b7100000000000000000000000000000000000000000000000000000000600052604160045260246000fd5b7f4e487b7100000000000000000000000000000000000000000000000000000000600052602260045260246000fd5b600060028204905060018216806200068157607f821691505b60208210810362000697576200069662000639565b5b50919050565b60008190508160005260206000209050919050565b60006020601f8301049050919050565b600082821b905092915050565b600060088302620007017fffffffffffffffffffffffffffffffffffffffffffffffffffffffffffffffff82620006c2565b6200070d8683620006c2565b95508019841693508086168417925050509392505050565b6000819050919050565b6000819050919050565b60006200075a620007546200074e8462000725565b6200072f565b62000725565b9050919050565b6000819050919050565b620007768362000739565b6200078e620007858262000761565b848454620006cf565b825550505050565b600090565b620007a562000796565b620007b28184846200076b565b505050565b5b81811015620007da57620007ce6000826200079b565b600181019050620007b8565b5050565b601f8211156200082957620007f3816200069d565b620007fe84620006b2565b810160208510156200080e578190505b620008266200081d85620006b2565b830182620007b7565b50505b505050565b600082821c905092915050565b60006200084e600019846008026200082e565b1980831691505092915050565b60006200086983836200083b565b9150826002028217905092915050565b6200088482620005ff565b67ffffffffffffffff811115620008a0576200089f6200060a565b5b620008ac825462000668565b620008b9828285620007de565b600060209050601f831160018114620008f15760008415620008dc578287015190505b620008e885826200085b565b86555062000958565b601f19841662000901866200069d565b60005b828110156200092b5784890151825560018201915060208501945060208101905062000904565b868310156200094b578489015162000947601f8916826200083b565b8355505b6001600288020188555050505b505050505050565b600080fd5b600080fd5b6000808585111562000981576200098062000960565b5b8386111562000995576200099462000965565b5b6001850283019150848603905094509492505050565b600082905092915050565b60007fffffffffffffffffffffffffffffffffffffffff00000000000000000000000082169050919050565b6000620009f08383620009ab565b82620009fd8135620009b6565b9250601482101562000a405762000a3b7fffffffffffffffffffffffffffffffffffffffff00000000000000000000000083601403600802620006c2565b831692505b505092915050565b60805160a05160c05160e051613ad062000ad66000396000818161070f01528181610c2401528181610d630152610dfb01526000818161084c015281816110a10152611c74015260008181610888015281816109e501528181610cca01528181610d0501528181610fa80152818161130f015281816115bf0152611cb00152600061107b0152613ad06000f3fe608060405234801561001057600080fd5b50600436106102115760003560e01c806370a0823111610125578063ae4d3b5c116100ad578063d547741f1161007c578063d547741f14610645578063dd62ed3e14610661578063ef78d4fd14610691578063f23a6e61146106af578063f93278b5146106df57610211565b8063ae4d3b5c146105e5578063b71c47a2146105ef578063b78b52df146105f9578063bc197c811461061557610211565b806391d14854116100f457806391d148541461051957806395d89b41146105495780639679f81214610567578063a217fddf14610597578063a9059cbb146105b557610211565b806370a082311461047d5780637da0a877146104ad5780637dc0d1d0146104cb5780638857159a146104e957610211565b806323073b5d116101a8578063313ce56711610177578063313ce567146103ed57806336568abe1461040b57806340f4afd6146104275780634bb278f314610443578063572b6c051461044d57610211565b806323073b5d1461033c57806323b872dd14610371578063248a9ca3146103a15780632f2ff15d146103d157610211565b8063144bf589116101e4578063144bf589146102b25780631586f91b146102d057806318160ddd14610300578063200d2ed21461031e57610211565b806301ffc9a7146102165780630680a20e1461024657806306fdde0314610264578063095ea7b314610282575b600080fd5b610230600480360381019061022b91906127c2565b6106fb565b60405161023d919061280a565b60405180910390f35b61024e61070d565b60405161025b91906128a4565b60405180910390f35b61026c610731565b604051610279919061294f565b60405180910390f35b61029c600480360381019061029791906129e5565b6107c3565b6040516102a9919061280a565b60405180910390f35b6102ba6107e6565b6040516102c79190612a3e565b60405180910390f35b6102ea60048036038101906102e59190612a59565b61080a565b6040516102f79190612a95565b60405180910390f35b610308610822565b6040516103159190612a95565b60405180910390f35b61032661082c565b6040516103339190612b27565b60405180910390f35b61035660048036038101906103519190612a59565b61083f565b60405161036896959493929190612ba9565b60405180910390f35b61038b60048036038101906103869190612c0a565b610a2a565b604051610398919061280a565b60405180910390f35b6103bb60048036038101906103b69190612c89565b610a59565b6040516103c89190612a3e565b60405180910390f35b6103eb60048036038101906103e69190612cb6565b610a79565b005b6103f5610a9b565b6040516104029190612d12565b60405180910390f35b61042560048036038101906104209190612cb6565b610aa4565b005b610441600480360381019061043c9190612d92565b610b1f565b005b61044b610ec4565b005b61046760048036038101906104629190612a59565b610ff0565b604051610474919061280a565b60405180910390f35b61049760048036038101906104929190612a59565b61102f565b6040516104a49190612a95565b60405180910390f35b6104b5611077565b6040516104c29190612e22565b60405180910390f35b6104d361109f565b6040516104e09190612e5e565b60405180910390f35b61050360048036038101906104fe9190612a59565b6110c3565b604051610510919061280a565b60405180910390f35b610533600480360381019061052e9190612cb6565b6110e3565b604051610540919061280a565b60405180910390f35b61055161114e565b60405161055e919061294f565b60405180910390f35b610581600480360381019061057c9190612a59565b6111e0565b60405161058e9190612e79565b60405180910390f35b61059f611200565b6040516105ac9190612a3e565b60405180910390f35b6105cf60048036038101906105ca91906129e5565b611207565b6040516105dc919061280a565b60405180910390f35b6105ed61122a565b005b6105f7611357565b005b610613600480360381019061060e91906129e5565b61136b565b005b61062f600480360381019061062a9190613087565b6114ff565b60405161063c9190613165565b60405180910390f35b61065f600480360381019061065a9190612cb6565b611514565b005b61067b60048036038101906106769190613180565b611536565b6040516106889190612a95565b60405180910390f35b6106996115bd565b6040516106a691906131c0565b60405180910390f35b6106c960048036038101906106c491906131db565b6115e1565b6040516106d69190613165565b60405180910390f35b6106f960048036038101906106f491906132c8565b6115f6565b005b6000610706826117e6565b9050919050565b7f000000000000000000000000000000000000000000000000000000000000000081565b60606003805461074090613357565b80601f016020809104026020016040519081016040528092919081815260200182805461076c90613357565b80156107b95780601f1061078e576101008083540402835291602001916107b9565b820191906000526020600020905b81548152906001019060200180831161079c57829003601f168201915b5050505050905090565b6000806107ce611860565b90506107db81858561186f565b600191505092915050565b7f20b5f7ac978e5d6199de06401411960dfa81d2f762655f6206bdc61d46fc19e681565b60076020528060005260406000206000915090505481565b6000600254905090565b600660009054906101000a900460ff1681565b60008060008060008060007f000000000000000000000000000000000000000000000000000000000000000073ffffffffffffffffffffffffffffffffffffffff166345e1b42c7f00000000000000000000000000000000000000000000000000000000000000008a6040518363ffffffff1660e01b81526004016108c5929190613388565b602060405180830381865afa1580156108e2573d6000803e3d6000fd5b505050506040513d601f19601f8201168201806040525081019061090691906133c6565b90506000600760008a73ffffffffffffffffffffffffffffffffffffffff1673ffffffffffffffffffffffffffffffffffffffff168152602001908152602001600020549050600081831161095c576000610969565b81836109689190613422565b5b90506000600860008c73ffffffffffffffffffffffffffffffffffffffff1673ffffffffffffffffffffffffffffffffffffffff16815260200190815260200160002060009054906101000a900460ff169050600084036109cd57600090506109e3565b8383106109dd57600290506109e2565b600190505b5b7f0000000000000000000000000000000000000000000000000000000000000000610a0d8c61102f565b848685859950995099509950995099505050505091939550919395565b600080610a35611860565b9050610a42858285611881565b610a4d858585611916565b60019150509392505050565b600060056000838152602001908152602001600020600101549050919050565b610a8282610a59565b610a8b81611a0a565b610a958383611a1e565b50505050565b60006012905090565b610aac611860565b73ffffffffffffffffffffffffffffffffffffffff168173ffffffffffffffffffffffffffffffffffffffff1614610b10576040517f6697b23200000000000000000000000000000000000000000000000000000000815260040160405180910390fd5b610b1a8282611b10565b505050565b6000828290508585905014610b60576040517fa24a13a600000000000000000000000000000000000000000000000000000000815260040160405180910390fd5b60016002811115610b7457610b73612ab0565b5b600660009054906101000a900460ff166002811115610b9657610b95612ab0565b5b14610bcd576040517f114129f000000000000000000000000000000000000000000000000000000000815260040160405180910390fd5b60005b85859050811015610eab576000868683818110610bf057610bef613456565b5b9050602002013590506000858584818110610c0e57610c0d613456565b5b9050602002013590506000811115610e965760007f000000000000000000000000000000000000000000000000000000000000000073ffffffffffffffffffffffffffffffffffffffff16631655bfbe846040518263ffffffff1660e01b8152600401610c7b9190612a95565b600060405180830381865afa158015610c98573d6000803e3d6000fd5b505050506040513d6000823e3d601f19601f82011682018060405250810190610cc191906136b0565b505050505090507f000000000000000000000000000000000000000000000000000000000000000063ffffffff16816020015161ffff161115610d615780602001517f00000000000000000000000000000000000000000000000000000000000000006040517fae75989c000000000000000000000000000000000000000000000000000000008152600401610d58929190613768565b60405180910390fd5b7f000000000000000000000000000000000000000000000000000000000000000073ffffffffffffffffffffffffffffffffffffffff1663f242432a610da5611860565b3086866040518563ffffffff1660e01b8152600401610dc794939291906137c8565b600060405180830381600087803b158015610de157600080fd5b505af1158015610df5573d6000803e3d6000fd5b505050507f000000000000000000000000000000000000000000000000000000000000000073ffffffffffffffffffffffffffffffffffffffff1663437d486284846040518363ffffffff1660e01b8152600401610e54929190613820565b600060405180830381600087803b158015610e6e57600080fd5b505af1158015610e82573d6000803e3d6000fd5b505050508185610e929190613849565b9450505b50508080610ea39061387d565b915050610bd0565b50610ebd610eb7611860565b82611c03565b5050505050565b7f20b5f7ac978e5d6199de06401411960dfa81d2f762655f6206bdc61d46fc19e6610eee81611a0a565b600280811115610f0157610f00612ab0565b5b600660009054906101000a900460ff166002811115610f2357610f22612ab0565b5b03610f5a576040517f4f9ebfb700000000000000000000000000000000000000000000000000000000815260040160405180910390fd5b6002600660006101000a81548160ff02191690836002811115610f8057610f7f612ab0565b5b02179055507f83ff33f831ff8d637dfebe12e813581690e41d25f854fb342d4a2cfe1999e62c7f0000000000000000000000000000000000000000000000000000000000000000600660009054906101000a900460ff16604051610fe59291906138c5565b60405180910390a150565b6000610ffa611077565b73ffffffffffffffffffffffffffffffffffffffff168273ffffffffffffffffffffffffffffffffffffffff16149050919050565b60008060008373ffffffffffffffffffffffffffffffffffffffff1673ffffffffffffffffffffffffffffffffffffffff168152602001908152602001600020549050919050565b60007f0000000000000000000000000000000000000000000000000000000000000000905090565b7f000000000000000000000000000000000000000000000000000000000000000081565b60096020528060005260406000206000915054906101000a900460ff1681565b60006005600084815260200190815260200160002060000160008373ffffffffffffffffffffffffffffffffffffffff1673ffffffffffffffffffffffffffffffffffffffff16815260200190815260200160002060009054906101000a900460ff16905092915050565b60606004805461115d90613357565b80601f016020809104026020016040519081016040528092919081815260200182805461118990613357565b80156111d65780601f106111ab576101008083540402835291602001916111d6565b820191906000526020600020905b8154815290600101906020018083116111b957829003601f168201915b5050505050905090565b60086020528060005260406000206000915054906101000a900460ff1681565b6000801b81565b600080611212611860565b905061121f818585611916565b600191505092915050565b7f20b5f7ac978e5d6199de06401411960dfa81d2f762655f6206bdc61d46fc19e661125481611a0a565b6000600281111561126857611267612ab0565b5b600660009054906101000a900460ff16600281111561128a57611289612ab0565b5b146112c1576040517f80cb55e200000000000000000000000000000000000000000000000000000000815260040160405180910390fd5b6001600660006101000a81548160ff021916908360028111156112e7576112e6612ab0565b5b02179055507f83ff33f831ff8d637dfebe12e813581690e41d25f854fb342d4a2cfe1999e62c7f0000000000000000000000000000000000000000000000000000000000000000600660009054906101000a900460ff1660405161134c9291906138c5565b60405180910390a150565b611369611362611860565b6000611c03565b565b7f20b5f7ac978e5d6199de06401411960dfa81d2f762655f6206bdc61d46fc19e661139581611a0a565b600060028111156113a9576113a8612ab0565b5b600660009054906101000a900460ff1660028111156113cb576113ca612ab0565b5b14611402576040517f3842dc5400000000000000000000000000000000000000000000000000000000815260040160405180910390fd5b600073ffffffffffffffffffffffffffffffffffffffff168373ffffffffffffffffffffffffffffffffffffffff1603611468576040517f9c8d2cd200000000000000000000000000000000000000000000000000000000815260040160405180910390fd5b600082036114a2576040517f2c5211c600000000000000000000000000000000000000000000000000000000815260040160405180910390fd5b6114ac838361201a565b8273ffffffffffffffffffffffffffffffffffffffff167f472f36e28bb47edb7c69c9e2ac00a77c66b505df54e9c818ac57110b0629e8c3836040516114f29190612a95565b60405180910390a2505050565b600063bc197c8160e01b905095945050505050565b61151d82610a59565b61152681611a0a565b6115308383611b10565b50505050565b6000600160008473ffffffffffffffffffffffffffffffffffffffff1673ffffffffffffffffffffffffffffffffffffffff16815260200190815260200160002060008373ffffffffffffffffffffffffffffffffffffffff1673ffffffffffffffffffffffffffffffffffffffff16815260200190815260200160002054905092915050565b7f000000000000000000000000000000000000000000000000000000000000000081565b600063f23a6e6160e01b905095945050505050565b7f20b5f7ac978e5d6199de06401411960dfa81d2f762655f6206bdc61d46fc19e661162081611a0a565b6000600281111561163457611633612ab0565b5b600660009054906101000a900460ff16600281111561165657611655612ab0565b5b1461168d576040517f3842dc5400000000000000000000000000000000000000000000000000000000815260040160405180910390fd5b600082036116c7576040517f2c5211c600000000000000000000000000000000000000000000000000000000815260040160405180910390fd5b60008484905003611704576040517f91c0aaa200000000000000000000000000000000000000000000000000000000815260040160405180910390fd5b60005b848490508110156117df57600085858381811061172757611726613456565b5b905060200201602081019061173c9190612a59565b9050600073ffffffffffffffffffffffffffffffffffffffff168173ffffffffffffffffffffffffffffffffffffffff16146117cb5761177c818561201a565b8073ffffffffffffffffffffffffffffffffffffffff167f472f36e28bb47edb7c69c9e2ac00a77c66b505df54e9c818ac57110b0629e8c3856040516117c29190612a95565b60405180910390a25b5080806117d79061387d565b915050611707565b5050505050565b60007f4e2312e0000000000000000000000000000000000000000000000000000000007bffffffffffffffffffffffffffffffffffffffffffffffffffffffff1916827bffffffffffffffffffffffffffffffffffffffffffffffffffffffff1916148061185957506118588261209c565b5b9050919050565b600061186a612116565b905090565b61187c8383836001612182565b505050565b600061188d8484611536565b90507fffffffffffffffffffffffffffffffffffffffffffffffffffffffffffffffff8110156119105781811015611900578281836040517ffb8f41b20000000000000000000000000000000000000000000000000000000081526004016118f7939291906138ee565b60405180910390fd5b61190f84848484036000612182565b5b50505050565b600073ffffffffffffffffffffffffffffffffffffffff168373ffffffffffffffffffffffffffffffffffffffff16036119885760006040517f96c6fd1e00000000000000000000000000000000000000000000000000000000815260040161197f9190612e22565b60405180910390fd5b600073ffffffffffffffffffffffffffffffffffffffff168273ffffffffffffffffffffffffffffffffffffffff16036119fa5760006040517fec442f050000000000000000000000000000000000000000000000000000000081526004016119f19190612e22565b60405180910390fd5b611a05838383612359565b505050565b611a1b81611a16611860565b6123d4565b50565b6000611a2a83836110e3565b611b055760016005600085815260200190815260200160002060000160008473ffffffffffffffffffffffffffffffffffffffff1673ffffffffffffffffffffffffffffffffffffffff16815260200190815260200160002060006101000a81548160ff021916908315150217905550611aa2611860565b73ffffffffffffffffffffffffffffffffffffffff168273ffffffffffffffffffffffffffffffffffffffff16847f2f8788117e7eff1d82e926ec794901d17c78024a50270940304540a733656f0d60405160405180910390a460019050611b0a565b600090505b92915050565b6000611b1c83836110e3565b15611bf85760006005600085815260200190815260200160002060000160008473ffffffffffffffffffffffffffffffffffffffff1673ffffffffffffffffffffffffffffffffffffffff16815260200190815260200160002060006101000a81548160ff021916908315150217905550611b95611860565b73ffffffffffffffffffffffffffffffffffffffff168273ffffffffffffffffffffffffffffffffffffffff16847ff6391f5c32d9c69d2a47ea670b442974b53935d1edc7fd64eb21e047a839171b60405160405180910390a460019050611bfd565b600090505b92915050565b60016002811115611c1757611c16612ab0565b5b600660009054906101000a900460ff166002811115611c3957611c38612ab0565b5b14611c70576040517f114129f000000000000000000000000000000000000000000000000000000000815260040160405180910390fd5b60007f000000000000000000000000000000000000000000000000000000000000000073ffffffffffffffffffffffffffffffffffffffff166345e1b42c7f0000000000000000000000000000000000000000000000000000000000000000856040518363ffffffff1660e01b8152600401611ced929190613388565b602060405180830381865afa158015611d0a573d6000803e3d6000fd5b505050506040513d601f19601f82011682018060405250810190611d2e91906133c6565b905060008103611d6a576040517f68d843f100000000000000000000000000000000000000000000000000000000815260040160405180910390fd5b600960008473ffffffffffffffffffffffffffffffffffffffff1673ffffffffffffffffffffffffffffffffffffffff16815260200190815260200160002060009054906101000a900460ff1615611dee576040517f300dd77900000000000000000000000000000000000000000000000000000000815260040160405180910390fd5b600082821115611e07578282611e049190613422565b90505b6000811115611e70576000611e1b8561102f565b905081811015611e645780826040517fec6bf848000000000000000000000000000000000000000000000000000000008152600401611e5b929190613820565b60405180910390fd5b611e6e8583612425565b505b81600760008673ffffffffffffffffffffffffffffffffffffffff1673ffffffffffffffffffffffffffffffffffffffff168152602001908152602001600020819055506001600960008673ffffffffffffffffffffffffffffffffffffffff1673ffffffffffffffffffffffffffffffffffffffff16815260200190815260200160002060006101000a81548160ff0219169083151502179055506002600860008673ffffffffffffffffffffffffffffffffffffffff1673ffffffffffffffffffffffffffffffffffffffff16815260200190815260200160002060006101000a81548160ff02191690836002811115611f6f57611f6e612ab0565b5b02179055508373ffffffffffffffffffffffffffffffffffffffff167fea6c029757711e3bf5e8958ba57d94459b2e5b84a40eed9d21e4390e1e1f6e866002604051611fbb9190612e79565b60405180910390a28373ffffffffffffffffffffffffffffffffffffffff167fcd3331a9bec0aed59a9fbe480a5b8e9f713e86e4b4105ac2628cfe4b9d6a6e7583600060405161200c929190613960565b60405180910390a250505050565b600073ffffffffffffffffffffffffffffffffffffffff168273ffffffffffffffffffffffffffffffffffffffff160361208c5760006040517fec442f050000000000000000000000000000000000000000000000000000000081526004016120839190612e22565b60405180910390fd5b61209860008383612359565b5050565b60007f7965db0b000000000000000000000000000000000000000000000000000000007bffffffffffffffffffffffffffffffffffffffffffffffffffffffff1916827bffffffffffffffffffffffffffffffffffffffffffffffffffffffff1916148061210f575061210e826124a7565b5b9050919050565b60008060003690509050600061212a612511565b9050808210158015612141575061214033610ff0565b5b156121725760003682840390809261215b93929190613993565b906121669190613a12565b60601c9250505061217f565b61217a612520565b925050505b90565b600073ffffffffffffffffffffffffffffffffffffffff168473ffffffffffffffffffffffffffffffffffffffff16036121f45760006040517fe602df050000000000000000000000000000000000000000000000000000000081526004016121eb9190612e22565b60405180910390fd5b600073ffffffffffffffffffffffffffffffffffffffff168373ffffffffffffffffffffffffffffffffffffffff16036122665760006040517f94280d6200000000000000000000000000000000000000000000000000000000815260040161225d9190612e22565b60405180910390fd5b81600160008673ffffffffffffffffffffffffffffffffffffffff1673ffffffffffffffffffffffffffffffffffffffff16815260200190815260200160002060008573ffffffffffffffffffffffffffffffffffffffff1673ffffffffffffffffffffffffffffffffffffffff168152602001908152602001600020819055508015612353578273ffffffffffffffffffffffffffffffffffffffff168473ffffffffffffffffffffffffffffffffffffffff167f8c5be1e5ebec7d5bd14f71427d1e84f3dd0314c0f7b2291e5b200ac8c7c3b9258460405161234a9190612a95565b60405180910390a35b50505050565b600073ffffffffffffffffffffffffffffffffffffffff168373ffffffffffffffffffffffffffffffffffffffff16141580156123c35750600073ffffffffffffffffffffffffffffffffffffffff168273ffffffffffffffffffffffffffffffffffffffff1614155b506123cf838383612528565b505050565b6123de82826110e3565b6124215780826040517fe2517d3f000000000000000000000000000000000000000000000000000000008152600401612418929190613a71565b60405180910390fd5b5050565b600073ffffffffffffffffffffffffffffffffffffffff168273ffffffffffffffffffffffffffffffffffffffff16036124975760006040517f96c6fd1e00000000000000000000000000000000000000000000000000000000815260040161248e9190612e22565b60405180910390fd5b6124a382600083612359565b5050565b60007f01ffc9a7000000000000000000000000000000000000000000000000000000007bffffffffffffffffffffffffffffffffffffffffffffffffffffffff1916827bffffffffffffffffffffffffffffffffffffffffffffffffffffffff1916149050919050565b600061251b61274d565b905090565b600033905090565b600073ffffffffffffffffffffffffffffffffffffffff168373ffffffffffffffffffffffffffffffffffffffff160361257a57806002600082825461256e9190613849565b9250508190555061264d565b60008060008573ffffffffffffffffffffffffffffffffffffffff1673ffffffffffffffffffffffffffffffffffffffff16815260200190815260200160002054905081811015612606578381836040517fe450d38c0000000000000000000000000000000000000000000000000000000081526004016125fd939291906138ee565b60405180910390fd5b8181036000808673ffffffffffffffffffffffffffffffffffffffff1673ffffffffffffffffffffffffffffffffffffffff16815260200190815260200160002081905550505b600073ffffffffffffffffffffffffffffffffffffffff168273ffffffffffffffffffffffffffffffffffffffff160361269657806002600082825403925050819055506126e3565b806000808473ffffffffffffffffffffffffffffffffffffffff1673ffffffffffffffffffffffffffffffffffffffff168152602001908152602001600020600082825401925050819055505b8173ffffffffffffffffffffffffffffffffffffffff168373ffffffffffffffffffffffffffffffffffffffff167fddf252ad1be2c89b69c2b068fc378daa952ba7f163c4a11628f55a4df523b3ef836040516127409190612a95565b60405180910390a3505050565b60006014905090565b6000604051905090565b600080fd5b600080fd5b60007fffffffff0000000000000000000000000000000000000000000000000000000082169050919050565b61279f8161276a565b81146127aa57600080fd5b50565b6000813590506127bc81612796565b92915050565b6000602082840312156127d8576127d7612760565b5b60006127e6848285016127ad565b91505092915050565b60008115159050919050565b612804816127ef565b82525050565b600060208201905061281f60008301846127fb565b92915050565b600073ffffffffffffffffffffffffffffffffffffffff82169050919050565b6000819050919050565b600061286a61286561286084612825565b612845565b612825565b9050919050565b600061287c8261284f565b9050919050565b600061288e82612871565b9050919050565b61289e81612883565b82525050565b60006020820190506128b96000830184612895565b92915050565b600081519050919050565b600082825260208201905092915050565b60005b838110156128f95780820151818401526020810190506128de565b60008484015250505050565b6000601f19601f8301169050919050565b6000612921826128bf565b61292b81856128ca565b935061293b8185602086016128db565b61294481612905565b840191505092915050565b600060208201905081810360008301526129698184612916565b905092915050565b600061297c82612825565b9050919050565b61298c81612971565b811461299757600080fd5b50565b6000813590506129a981612983565b92915050565b6000819050919050565b6129c2816129af565b81146129cd57600080fd5b50565b6000813590506129df816129b9565b92915050565b600080604083850312156129fc576129fb612760565b5b6000612a0a8582860161299a565b9250506020612a1b858286016129d0565b9150509250929050565b6000819050919050565b612a3881612a25565b82525050565b6000602082019050612a536000830184612a2f565b92915050565b600060208284031215612a6f57612a6e612760565b5b6000612a7d8482850161299a565b91505092915050565b612a8f816129af565b82525050565b6000602082019050612aaa6000830184612a86565b92915050565b7f4e487b7100000000000000000000000000000000000000000000000000000000600052602160045260246000fd5b60038110612af057612aef612ab0565b5b50565b6000819050612b0182612adf565b919050565b6000612b1182612af3565b9050919050565b612b2181612b06565b82525050565b6000602082019050612b3c6000830184612b18565b92915050565b600063ffffffff82169050919050565b612b5b81612b42565b82525050565b60038110612b7257612b71612ab0565b5b50565b6000819050612b8382612b61565b919050565b6000612b9382612b75565b9050919050565b612ba381612b88565b82525050565b600060c082019050612bbe6000830189612b52565b612bcb6020830188612a86565b612bd86040830187612a86565b612be56060830186612a86565b612bf26080830185612a86565b612bff60a0830184612b9a565b979650505050505050565b600080600060608486031215612c2357612c22612760565b5b6000612c318682870161299a565b9350506020612c428682870161299a565b9250506040612c53868287016129d0565b9150509250925092565b612c6681612a25565b8114612c7157600080fd5b50565b600081359050612c8381612c5d565b92915050565b600060208284031215612c9f57612c9e612760565b5b6000612cad84828501612c74565b91505092915050565b60008060408385031215612ccd57612ccc612760565b5b6000612cdb85828601612c74565b9250506020612cec8582860161299a565b9150509250929050565b600060ff82169050919050565b612d0c81612cf6565b82525050565b6000602082019050612d276000830184612d03565b92915050565b600080fd5b600080fd5b600080fd5b60008083601f840112612d5257612d51612d2d565b5b8235905067ffffffffffffffff811115612d6f57612d6e612d32565b5b602083019150836020820283011115612d8b57612d8a612d37565b5b9250929050565b60008060008060408587031215612dac57612dab612760565b5b600085013567ffffffffffffffff811115612dca57612dc9612765565b5b612dd687828801612d3c565b9450945050602085013567ffffffffffffffff811115612df957612df8612765565b5b612e0587828801612d3c565b925092505092959194509250565b612e1c81612971565b82525050565b6000602082019050612e376000830184612e13565b92915050565b6000612e4882612871565b9050919050565b612e5881612e3d565b82525050565b6000602082019050612e736000830184612e4f565b92915050565b6000602082019050612e8e6000830184612b9a565b92915050565b7f4e487b7100000000000000000000000000000000000000000000000000000000600052604160045260246000fd5b612ecc82612905565b810181811067ffffffffffffffff82111715612eeb57612eea612e94565b5b80604052505050565b6000612efe612756565b9050612f0a8282612ec3565b919050565b600067ffffffffffffffff821115612f2a57612f29612e94565b5b602082029050602081019050919050565b6000612f4e612f4984612f0f565b612ef4565b90508083825260208201905060208402830185811115612f7157612f70612d37565b5b835b81811015612f9a5780612f8688826129d0565b845260208401935050602081019050612f73565b5050509392505050565b600082601f830112612fb957612fb8612d2d565b5b8135612fc9848260208601612f3b565b91505092915050565b600080fd5b600067ffffffffffffffff821115612ff257612ff1612e94565b5b612ffb82612905565b9050602081019050919050565b82818337600083830152505050565b600061302a61302584612fd7565b612ef4565b90508281526020810184848401111561304657613045612fd2565b5b613051848285613008565b509392505050565b600082601f83011261306e5761306d612d2d565b5b813561307e848260208601613017565b91505092915050565b600080600080600060a086880312156130a3576130a2612760565b5b60006130b18882890161299a565b95505060206130c28882890161299a565b945050604086013567ffffffffffffffff8111156130e3576130e2612765565b5b6130ef88828901612fa4565b935050606086013567ffffffffffffffff8111156131105761310f612765565b5b61311c88828901612fa4565b925050608086013567ffffffffffffffff81111561313d5761313c612765565b5b61314988828901613059565b9150509295509295909350565b61315f8161276a565b82525050565b600060208201905061317a6000830184613156565b92915050565b6000806040838503121561319757613196612760565b5b60006131a58582860161299a565b92505060206131b68582860161299a565b9150509250929050565b60006020820190506131d56000830184612b52565b92915050565b600080600080600060a086880312156131f7576131f6612760565b5b60006132058882890161299a565b95505060206132168882890161299a565b9450506040613227888289016129d0565b9350506060613238888289016129d0565b925050608086013567ffffffffffffffff81111561325957613258612765565b5b61326588828901613059565b9150509295509295909350565b60008083601f84011261328857613287612d2d565b5b8235905067ffffffffffffffff8111156132a5576132a4612d32565b5b6020830191508360208202830111156132c1576132c0612d37565b5b9250929050565b6000806000604084860312156132e1576132e0612760565b5b600084013567ffffffffffffffff8111156132ff576132fe612765565b5b61330b86828701613272565b9350935050602061331e868287016129d0565b9150509250925092565b7f4e487b7100000000000000000000000000000000000000000000000000000000600052602260045260246000fd5b6000600282049050600182168061336f57607f821691505b60208210810361338257613381613328565b5b50919050565b600060408201905061339d6000830185612b52565b6133aa6020830184612e13565b9392505050565b6000815190506133c0816129b9565b92915050565b6000602082840312156133dc576133db612760565b5b60006133ea848285016133b1565b91505092915050565b7f4e487b7100000000000000000000000000000000000000000000000000000000600052601160045260246000fd5b600061342d826129af565b9150613438836129af565b92508282039050818111156134505761344f6133f3565b5b92915050565b7f4e487b7100000000000000000000000000000000000000000000000000000000600052603260045260246000fd5b600080fd5b600080fd5b600067ffffffffffffffff8211156134aa576134a9612e94565b5b6134b382612905565b9050602081019050919050565b60006134d36134ce8461348f565b612ef4565b9050828152602081018484840111156134ef576134ee612fd2565b5b6134fa8482856128db565b509392505050565b600082601f83011261351757613516612d2d565b5b81516135278482602086016134c0565b91505092915050565b600061ffff82169050919050565b61354781613530565b811461355257600080fd5b50565b6000815190506135648161353e565b92915050565b6000608082840312156135805761357f613485565b5b61358a6080612ef4565b9050600082015167ffffffffffffffff8111156135aa576135a961348a565b5b6135b684828501613502565b60008301525060206135ca84828501613555565b602083015250604082015167ffffffffffffffff8111156135ee576135ed61348a565b5b6135fa84828501613502565b604083015250606082015167ffffffffffffffff81111561361e5761361d61348a565b5b61362a84828501613502565b60608301525092915050565b6002811061364357600080fd5b50565b60008151905061365581613636565b92915050565b60008151905061366a81612c5d565b92915050565b600067ffffffffffffffff82169050919050565b61368d81613670565b811461369857600080fd5b50565b6000815190506136aa81613684565b92915050565b60008060008060008060c087890312156136cd576136cc612760565b5b600087015167ffffffffffffffff8111156136eb576136ea612765565b5b6136f789828a0161356a565b965050602061370889828a01613646565b955050604061371989828a0161365b565b945050606061372a89828a0161369b565b935050608061373b89828a0161369b565b92505060a061374c89828a016133b1565b9150509295509295509295565b61376281613530565b82525050565b600060408201905061377d6000830185613759565b61378a6020830184612b52565b9392505050565b600082825260208201905092915050565b50565b60006137b2600083613791565b91506137bd826137a2565b600082019050919050565b600060a0820190506137dd6000830187612e13565b6137ea6020830186612e13565b6137f76040830185612a86565b6138046060830184612a86565b8181036080830152613815816137a5565b905095945050505050565b60006040820190506138356000830185612a86565b6138426020830184612a86565b9392505050565b6000613854826129af565b915061385f836129af565b9250828201905080821115613877576138766133f3565b5b92915050565b6000613888826129af565b91507fffffffffffffffffffffffffffffffffffffffffffffffffffffffffffffffff82036138ba576138b96133f3565b5b600182019050919050565b60006040820190506138da6000830185612b52565b6138e76020830184612b18565b9392505050565b60006060820190506139036000830186612e13565b6139106020830185612a86565b61391d6040830184612a86565b949350505050565b6000819050919050565b600061394a61394561394084613925565b612845565b6129af565b9050919050565b61395a8161392f565b82525050565b60006040820190506139756000830185612a86565b6139826020830184613951565b9392505050565b600080fd5b600080fd5b600080858511156139a7576139a6613989565b5b838611156139b8576139b761398e565b5b6001850283019150848603905094509492505050565b600082905092915050565b60007fffffffffffffffffffffffffffffffffffffffff00000000000000000000000082169050919050565b600082821b905092915050565b6000613a1e83836139ce565b82613a2981356139d9565b92506014821015613a6957613a647fffffffffffffffffffffffffffffffffffffffff00000000000000000000000083601403600802613a05565b831692505b505092915050565b6000604082019050613a866000830185612e13565b613a936020830184612a2f565b939250505056fea2646970667358221220877efbf2941850a6c1aa163b5b98ebf9608488e468d2008c413e69601d0fa66b64736f6c63430008140033",
  "linkReferences": {},
  "deployedLinkReferences": {}
}