{
  "_format": "hh-sol-artifact-1",
  "contractName": "PTBAEFactory",
  "sourceName": "contracts/PTBAEFactory.sol",
  "abi": [
    {
      "inputs": [
        {
          "internalType": "address",
          "name": "admin",
          "type": "address"
        },
        {
          "internalType": "address",
          "name": "regulator",
          "type": "address"
        },
        {
          "internalType": "uint32",
          "name": "initialPeriod",
          "type": "uint32"
        },
        {
          "internalType": "address",
          "name": "_forwarder",
          "type": "address"
        },
        {
          "internalType": "address",
          "name": "_oracle",
          "type": "address"
        },
        {
          "internalType": "address",
          "name": "_speToken",
          "type": "address"
        }
      ],
      "stateMutability": "nonpayable",
      "type": "constructor"
    },
    {
      "inputs": [],
      "name": "AccessControlBadConfirmation",
      "type": "error"
    },
    {
      "inputs": [
        {
          "internalType": "address",
          "name": "account",
          "type": "address"
        },
        {
          "internalType": "bytes32",
          "name": "neededRole",
          "type": "bytes32"
        }
      ],
      "name": "AccessControlUnauthorizedAccount",
      "type": "error"
    },
    {
      "inputs": [],
      "name": "InvalidOracleAddress",
      "type": "error"
    },
    {
      "inputs": [],
      "name": "InvalidSPEAddress",
      "type": "error"
    },
    {
      "inputs": [
        {
          "internalType": "uint32",
          "name": "period",
          "type": "uint32"
        }
      ],
      "name": "PeriodAlreadyExists",
      "type": "error"
    },
    {
      "anonymous": false,
      "inputs": [
        {
          "indexed": false,
          "internalType": "address",
          "name": "treasury",
          "type": "address"
        },
        {
          "indexed": false,
          "internalType": "address",
          "name": "oracleSigner",
          "type": "address"
        },
        {
          "indexed": false,
          "internalType": "address",
          "name": "idrsToken",
          "type": "address"
        }
      ],
      "name": "HybridConfigUpdated",
      "type": "event"
    },
    {
      "anonymous": false,
      "inputs": [
        {
          "indexed": true,
          "internalType": "uint32",
          "name": "period",
          "type": "uint32"
        },
        {
          "indexed": false,
          "internalType": "address",
          "name": "token",
          "type": "address"
        }
      ],
      "name": "PeriodFinalized",
      "type": "event"
    },
    {
      "anonymous": false,
      "inputs": [
        {
          "indexed": true,
          "internalType": "uint32",
          "name": "period",
          "type": "uint32"
        },
        {
          "indexed": false,
          "internalType": "address",
          "name": "token",
          "type": "address"
        }
      ],
      "name": "PeriodOpened",
      "type": "event"
    },
    {
      "anonymous": false,
      "inputs": [
        {
          "indexed": true,
          "internalType": "bytes32",
          "name": "role",
          "type": "bytes32"
        },
        {
          "indexed": true,
          "internalType": "bytes32",
          "name": "previousAdminRole",
          "type": "bytes32"
        },
        {
          "indexed": true,
          "internalType": "bytes32",
          "name": "newAdminRole",
          "type": "bytes32"
        }
      ],
      "name": "RoleAdminChanged",
      "type": "event"
    },
    {
      "anonymous": false,
      "inputs": [
        {
          "indexed": true,
          "internalType": "bytes32",
          "name": "role",
          "type": "bytes32"
        },
        {
          "indexed": true,
          "internalType": "address",
          "name": "account",
          "type": "address"
        },
        {
          "indexed": true,
          "internalType": "address",
          "name": "sender",
          "type": "address"
        }
      ],
      "name": "RoleGranted",
      "type": "event"
    },
    {
      "anonymous": false,
      "inputs": [
        {
          "indexed": true,
          "internalType": "bytes32",
          "name": "role",
          "type": "bytes32"
        },
        {
          "indexed": true,
          "internalType": "address",
          "name": "account",
          "type": "address"
        },
        {
          "indexed": true,
          "internalType": "address",
          "name": "sender",
          "type": "address"
        }
      ],
      "name": "RoleRevoked",
      "type": "event"
    },
    {
      "inputs": [],
      "name": "DEFAULT_ADMIN_ROLE",
      "outputs": [
        {
          "internalType": "bytes32",
          "name": "",
          "type": "bytes32"
        }
      ],
      "stateMutability": "view",
      "type": "function"
    },
    {
      "inputs": [],
      "name": "REGULATOR_ROLE",
      "outputs": [
        {
          "internalType": "bytes32",
          "name": "",
          "type": "bytes32"
        }
      ],
      "stateMutability": "view",
      "type": "function"
    },
    {
      "inputs": [
        {
          "internalType": "uint32",
          "name": "period",
          "type": "uint32"
        }
      ],
      "name": "configureExistingPeriod",
      "outputs": [],
      "stateMutability": "nonpayable",
      "type": "function"
    },
    {
      "inputs": [],
      "name": "currentPeriod",
      "outputs": [
        {
          "internalType": "uint32",
          "name": "",
          "type": "uint32"
        }
      ],
      "stateMutability": "view",
      "type": "function"
    },
    {
      "inputs": [
        {
          "internalType": "uint32",
          "name": "period",
          "type": "uint32"
        }
      ],
      "name": "finalizePeriod",
      "outputs": [],
      "stateMutability": "nonpayable",
      "type": "function"
    },
    {
      "inputs": [
        {
          "internalType": "bytes32",
          "name": "role",
          "type": "bytes32"
        }
      ],
      "name": "getRoleAdmin",
      "outputs": [
        {
          "internalType": "bytes32",
          "name": "",
          "type": "bytes32"
        }
      ],
      "stateMutability": "view",
      "type": "function"
    },
    {
      "inputs": [
        {
          "internalType": "bytes32",
          "name": "role",
          "type": "bytes32"
        },
        {
          "internalType": "address",
          "name": "account",
          "type": "address"
        }
      ],
      "name": "grantRole",
      "outputs": [],
      "stateMutability": "nonpayable",
      "type": "function"
    },
    {
      "inputs": [
        {
          "internalType": "bytes32",
          "name": "role",
          "type": "bytes32"
        },
        {
          "internalType": "address",
          "name": "account",
          "type": "address"
        }
      ],
      "name": "hasRole",
      "outputs": [
        {
          "internalType": "bool",
          "name": "",
          "type": "bool"
        }
      ],
      "stateMutability": "view",
      "type": "function"
    },
    {
      "inputs": [],
      "name": "idrsToken",
      "outputs": [
        {
          "internalType": "address",
          "name": "",
          "type": "address"
        }
      ],
      "stateMutability": "view",
      "type": "function"
    },
    {
      "inputs": [
        {
          "internalType": "address",
          "name": "forwarder",
          "type": "address"
        }
      ],
      "name": "isTrustedForwarder",
      "outputs": [
        {
          "internalType": "bool",
          "name": "",
          "type": "bool"
        }
      ],
      "stateMutability": "view",
      "type": "function"
    },
    {
      "inputs": [
        {
          "internalType": "uint32",
          "name": "newPeriod",
          "type": "uint32"
        }
      ],
      "name": "openPeriod",
      "outputs": [],
      "stateMutability": "nonpayable",
      "type": "function"
    },
    {
      "inputs": [],
      "name": "oracle",
      "outputs": [
        {
          "internalType": "address",
          "name": "",
          "type": "address"
        }
      ],
      "stateMutability": "view",
      "type": "function"
    },
    {
      "inputs": [],
      "name": "oracleSigner",
      "outputs": [
        {
          "internalType": "address",
          "name": "",
          "type": "address"
        }
      ],
      "stateMutability": "view",
      "type": "function"
    },
    {
      "inputs": [
        {
          "internalType": "bytes32",
          "name": "role",
          "type": "bytes32"
        },
        {
          "internalType": "address",
          "name": "callerConfirmation",
          "type": "address"
        }
      ],
      "name": "renounceRole",
      "outputs": [],
      "stateMutability": "nonpayable",
      "type": "function"
    },
    {
      "inputs": [
        {
          "internalType": "bytes32",
          "name": "role",
          "type": "bytes32"
        },
        {
          "internalType": "address",
          "name": "account",
          "type": "address"
        }
      ],
      "name": "revokeRole",
      "outputs": [],
      "stateMutability": "nonpayable",
      "type": "function"
    },
    {
      "inputs": [
        {
          "internalType": "address",
          "name": "_treasury",
          "type": "address"
        },
        {
          "internalType": "address",
          "name": "_oracleSigner",
          "type": "address"
        },
        {
          "internalType": "address",
          "name": "_idrsToken",
          "type": "address"
        }
      ],
      "name": "setHybridConfig",
      "outputs": [],
      "stateMutability": "nonpayable",
      "type": "function"
    },
    {
      "inputs": [],
      "name": "speTokenAddress",
      "outputs": [
        {
          "internalType": "address",
          "name": "",
          "type": "address"
        }
      ],
      "stateMutability": "view",
      "type": "function"
    },
    {
      "inputs": [
        {
          "internalType": "bytes4",
          "name": "interfaceId",
          "type": "bytes4"
        }
      ],
      "name": "supportsInterface",
      "outputs": [
        {
          "internalType": "bool",
          "name": "",
          "type": "bool"
        }
      ],
      "stateMutability": "view",
      "type": "function"
    },
    {
      "inputs": [
        {
          "internalType": "uint32",
          "name": "",
          "type": "uint32"
        }
      ],
      "name": "tokenByPeriod",
      "outputs": [
        {
          "internalType": "address",
          "name": "",
          "type": "address"
        }
      ],
      "stateMutability": "view",
      "type": "function"
    },
    {
      "inputs": [],
      "name": "treasury",
      "outputs": [
        {
          "internalType": "address",
          "name": "",
          "type": "address"
        }
      ],
      "stateMutability": "view",
      "type": "function"
    },
    {
      "inputs": [],
      "name": "trustedForwarder",
      "outputs": [
        {
          "internalType": "address",
          "name": "",
          "type": "address"
        }
      ],
      "stateMutability": "view",
      "type": "function"
    }
  ],
  "bytecode": "0x60e06040523480156200001157600080fd5b5060405162008ec838038062008ec88339810160408190526200003491620006e2565b6001600160a01b0380841660805282166200006257604051635521068160e01b815260040160405180910390fd5b6001600160a01b0381166200008a57604051633d172d8960e11b815260040160405180910390fd5b6001600160a01b0380831660a052811660c052620000aa600087620000f2565b50620000d77f20b5f7ac978e5d6199de06401411960dfa81d2f762655f6206bdc61d46fc19e686620000f2565b50620000e684866000620001a3565b505050505050620007e4565b6000828152602081815260408083206001600160a01b038516845290915281205460ff1662000199576000838152602081815260408083206001600160a01b03861684529091529020805460ff1916600117905562000150620004cd565b6001600160a01b0316826001600160a01b0316847f2f8788117e7eff1d82e926ec794901d17c78024a50270940304540a733656f0d60405160405180910390a45060016200019d565b5060005b92915050565b6001805463ffffffff191663ffffffff85161790556000308385620001c760805190565b60a05160c051604051620001db90620006b7565b6001600160a01b039687168152948616602086015263ffffffff90931660408501529084166060840152831660808301529190911660a082015260c001604051809103906000f08015801562000235573d6000803e3d6000fd5b5063ffffffff8516600090815260026020526040902080546001600160a01b0319166001600160a01b0383161790559050620002728185620004de565b6001600160a01b03821615620002e057604051632cd0244560e01b81526001600160a01b038381166004830152821690632cd0244590602401600060405180830381600087803b158015620002c657600080fd5b505af1158015620002db573d6000803e3d6000fd5b505050505b806001600160a01b0316632f2ff15d826001600160a01b031663a217fddf6040518163ffffffff1660e01b8152600401602060405180830381865afa1580156200032e573d6000803e3d6000fd5b505050506040513d601f19601f820116820180604052508101906200035491906200076d565b6040516001600160e01b031960e084901b16815260048101919091526001600160a01b0386166024820152604401600060405180830381600087803b1580156200039d57600080fd5b505af1158015620003b2573d6000803e3d6000fd5b50505050806001600160a01b03166336568abe826001600160a01b031663a217fddf6040518163ffffffff1660e01b8152600401602060405180830381865afa15801562000404573d6000803e3d6000fd5b505050506040513d601f19601f820116820180604052508101906200042a91906200076d565b6040516001600160e01b031960e084901b1681526004810191909152306024820152604401600060405180830381600087803b1580156200046a57600080fd5b505af11580156200047f573d6000803e3d6000fd5b50506040516001600160a01b038416815263ffffffff871692507f929be4f7daefbf16218cee1dcd5724b20d4b86f59e79b37318ce08f783935bd7915060200160405180910390a250505050565b6000620004d962000640565b905090565b6003546001600160a01b0316156200055257600354604051630787a21360e51b81526001600160a01b0391821660048201529083169063f0f4426090602401600060405180830381600087803b1580156200053857600080fd5b505af11580156200054d573d6000803e3d6000fd5b505050505b6004546001600160a01b031615620005c857600480546040516328bff9db60e01b81526001600160a01b03918216928101929092528316906328bff9db90602401600060405180830381600087803b158015620005ae57600080fd5b505af1158015620005c3573d6000803e3d6000fd5b505050505b6005546001600160a01b0316156200063c57600554604051630ddd134360e01b81526001600160a01b03918216600482015290831690630ddd134390602401600060405180830381600087803b1580156200062257600080fd5b505af115801562000637573d6000803e3d6000fd5b505050505b5050565b60003660148082108015906200065c57506200065c3362000690565b156200068857620006733682840381600062000787565b6200067e91620007b3565b60601c9250505090565b339250505090565b60006200069c60805190565b6001600160a01b0316826001600160a01b0316149050919050565b613af480620053d483390190565b80516001600160a01b0381168114620006dd57600080fd5b919050565b60008060008060008060c08789031215620006fc57600080fd5b6200070787620006c5565b95506200071760208801620006c5565b9450604087015163ffffffff811681146200073157600080fd5b93506200074160608801620006c5565b92506200075160808801620006c5565b91506200076160a08801620006c5565b90509295509295509295565b6000602082840312156200078057600080fd5b5051919050565b600080858511156200079857600080fd5b83861115620007a657600080fd5b5050820193919092039150565b6001600160601b03198135818116916014851015620007dc5780818660140360031b1b83161692505b505092915050565b60805160a05160c051614b9d620008376000396000818161039d015261095d01526000818161033e015261093c0152600081816102cd015281816103130152818161091b0152610e2e0152614b9d6000f3fe60806040523480156200001157600080fd5b5060043610620001515760003560e01c8063572b6c0511620000c7578063a217fddf1162000086578063a217fddf1462000377578063c026fbe01462000380578063c89fb75a1462000397578063cee7e37514620003bf578063d547741f14620003d6578063de22bb0c14620003ed57600080fd5b8063572b6c0514620002ba57806361d027b314620002fd5780637da0a87714620003115780637dc0d1d0146200033857806391d14854146200036057600080fd5b8063248a9ca31162000114578063248a9ca314620002395780632f2ff15d146200025f57806336568abe146200027857806344987a46146200028f5780634e50df2014620002a657600080fd5b806301ffc9a71462000156578063060406181462000182578063144bf58914620001a957806315f2b78e14620001e05780631709a61b1462000225575b600080fd5b6200016d6200016736600462000e9b565b62000404565b60405190151581526020015b60405180910390f35b600154620001939063ffffffff1681565b60405163ffffffff909116815260200162000179565b620001d17f20b5f7ac978e5d6199de06401411960dfa81d2f762655f6206bdc61d46fc19e681565b60405190815260200162000179565b6200020c620001f136600462000ece565b6002602052600090815260409020546001600160a01b031681565b6040516001600160a01b03909116815260200162000179565b6004546200020c906001600160a01b031681565b620001d16200024a36600462000ef6565b60009081526020819052604090206001015490565b620002766200027036600462000f2d565b6200043c565b005b620002766200028936600462000f2d565b6200046b565b62000276620002a036600462000ece565b620004b8565b6005546200020c906001600160a01b031681565b6200016d620002cb36600462000f5c565b7f00000000000000000000000000000000000000000000000000000000000000006001600160a01b0390811691161490565b6003546200020c906001600160a01b031681565b7f00000000000000000000000000000000000000000000000000000000000000006200020c565b6200020c7f000000000000000000000000000000000000000000000000000000000000000081565b6200016d6200037136600462000f2d565b62000579565b620001d1600081565b620002766200039136600462000f7a565b620005a2565b6200020c7f000000000000000000000000000000000000000000000000000000000000000081565b62000276620003d036600462000ece565b62000634565b62000276620003e736600462000f2d565b620006ae565b62000276620003fe36600462000ece565b620006d7565b60006001600160e01b03198216637965db0b60e01b14806200043657506301ffc9a760e01b6001600160e01b03198316145b92915050565b6000828152602081905260409020600101546200045981620007ad565b620004658383620007c5565b50505050565b620004756200085f565b6001600160a01b0316816001600160a01b031614620004a75760405163334bd91960e11b815260040160405180910390fd5b620004b3828262000870565b505050565b7f20b5f7ac978e5d6199de06401411960dfa81d2f762655f6206bdc61d46fc19e6620004e481620007ad565b63ffffffff82166000908152600260205260409020546001600160a01b0316156200052f57604051637143948760e01b815263ffffffff831660048201526024015b60405180910390fd5b60006002816200054160018662000fc4565b63ffffffff1681526020810191909152604001600020546001600160a01b03169050620004b383620005726200085f565b83620008ff565b6000918252602082815260408084206001600160a01b0393909316845291905290205460ff1690565b6000620005af81620007ad565b600380546001600160a01b038681166001600160a01b0319928316811790935560048054878316908416811790915560058054928716929093168217909255604080519384526020840192909252908201527fbf29c4c15443d8e450ef704cf21169267a0585d6d99a7ea7c24273404b7dc6ed9060600160405180910390a150505050565b60006200064181620007ad565b63ffffffff82166000908152600260205260409020546001600160a01b031680620006a25760405162461bcd60e51b815260206004820152601060248201526f14195c9a5bd9081b9bdd08199bdd5b9960821b604482015260640162000526565b620004b3818462000c7c565b600082815260208190526040902060010154620006cb81620007ad565b62000465838362000870565b7f20b5f7ac978e5d6199de06401411960dfa81d2f762655f6206bdc61d46fc19e66200070381620007ad565b63ffffffff82166000908152600260205260409020546001600160a01b031680620007645760405162461bcd60e51b815260206004820152601060248201526f14195c9a5bd9081b9bdd08199bdd5b9960821b604482015260640162000526565b6040516001600160a01b038216815263ffffffff8416907f71629dc23176cf5e4a5ac8baad3b817dccea57829b26f6a1860abbf40f788d689060200160405180910390a2505050565b620007c281620007bc6200085f565b62000dde565b50565b6000620007d3838362000579565b62000856576000838152602081815260408083206001600160a01b03861684529091529020805460ff191660011790556200080d6200085f565b6001600160a01b0316826001600160a01b0316847f2f8788117e7eff1d82e926ec794901d17c78024a50270940304540a733656f0d60405160405180910390a450600162000436565b50600062000436565b60006200086b62000e1b565b905090565b60006200087e838362000579565b1562000856576000838152602081815260408083206001600160a01b03861684529091529020805460ff19169055620008b66200085f565b6001600160a01b0316826001600160a01b0316847ff6391f5c32d9c69d2a47ea670b442974b53935d1edc7fd64eb21e047a839171b60405160405180910390a450600162000436565b6001805463ffffffff191663ffffffff851617905560003083857f00000000000000000000000000000000000000000000000000000000000000007f00000000000000000000000000000000000000000000000000000000000000007f00000000000000000000000000000000000000000000000000000000000000006040516200098a9062000e8d565b6001600160a01b039687168152948616602086015263ffffffff90931660408501529084166060840152831660808301529190911660a082015260c001604051809103906000f080158015620009e4573d6000803e3d6000fd5b5063ffffffff8516600090815260026020526040902080546001600160a01b0319166001600160a01b038316179055905062000a21818562000c7c565b6001600160a01b0382161562000a8f57604051632cd0244560e01b81526001600160a01b038381166004830152821690632cd0244590602401600060405180830381600087803b15801562000a7557600080fd5b505af115801562000a8a573d6000803e3d6000fd5b505050505b806001600160a01b0316632f2ff15d826001600160a01b031663a217fddf6040518163ffffffff1660e01b8152600401602060405180830381865afa15801562000add573d6000803e3d6000fd5b505050506040513d601f19601f8201168201806040525081019062000b03919062000ff7565b6040516001600160e01b031960e084901b16815260048101919091526001600160a01b0386166024820152604401600060405180830381600087803b15801562000b4c57600080fd5b505af115801562000b61573d6000803e3d6000fd5b50505050806001600160a01b03166336568abe826001600160a01b031663a217fddf6040518163ffffffff1660e01b8152600401602060405180830381865afa15801562000bb3573d6000803e3d6000fd5b505050506040513d601f19601f8201168201806040525081019062000bd9919062000ff7565b6040516001600160e01b031960e084901b1681526004810191909152306024820152604401600060405180830381600087803b15801562000c1957600080fd5b505af115801562000c2e573d6000803e3d6000fd5b50506040516001600160a01b038416815263ffffffff871692507f929be4f7daefbf16218cee1dcd5724b20d4b86f59e79b37318ce08f783935bd7915060200160405180910390a250505050565b6003546001600160a01b03161562000cf057600354604051630787a21360e51b81526001600160a01b0391821660048201529083169063f0f4426090602401600060405180830381600087803b15801562000cd657600080fd5b505af115801562000ceb573d6000803e3d6000fd5b505050505b6004546001600160a01b03161562000d6657600480546040516328bff9db60e01b81526001600160a01b03918216928101929092528316906328bff9db90602401600060405180830381600087803b15801562000d4c57600080fd5b505af115801562000d61573d6000803e3d6000fd5b505050505b6005546001600160a01b03161562000dda57600554604051630ddd134360e01b81526001600160a01b03918216600482015290831690630ddd134390602401600060405180830381600087803b15801562000dc057600080fd5b505af115801562000dd5573d6000803e3d6000fd5b505050505b5050565b62000dea828262000579565b62000dda5760405163e2517d3f60e01b81526001600160a01b03821660048201526024810183905260440162000526565b600036601480821080159062000e5957507f00000000000000000000000000000000000000000000000000000000000000006001600160a01b031633145b1562000e855762000e703682840381600062001011565b62000e7b916200103d565b60601c9250505090565b339250505090565b613af4806200107483390190565b60006020828403121562000eae57600080fd5b81356001600160e01b03198116811462000ec757600080fd5b9392505050565b60006020828403121562000ee157600080fd5b813563ffffffff8116811462000ec757600080fd5b60006020828403121562000f0957600080fd5b5035919050565b80356001600160a01b038116811462000f2857600080fd5b919050565b6000806040838503121562000f4157600080fd5b8235915062000f536020840162000f10565b90509250929050565b60006020828403121562000f6f57600080fd5b62000ec78262000f10565b60008060006060848603121562000f9057600080fd5b62000f9b8462000f10565b925062000fab6020850162000f10565b915062000fbb6040850162000f10565b90509250925092565b63ffffffff82811682821603908082111562000ff057634e487b7160e01b600052601160045260246000fd5b5092915050565b6000602082840312156200100a57600080fd5b5051919050565b600080858511156200102257600080fd5b838611156200103057600080fd5b5050820193919092039150565b6bffffffffffffffffffffffff1981358181169160148510156200106b5780818660140360031b1b83161692505b50509291505056fe6101006040526006805460ff191690553480156200001c57600080fd5b5060405162003af438038062003af48339810160408190526200003f9162000270565b826040518060400160405280601281526020017150544241452d505520416c6c6f77616e636560701b81525060405180604001604052806005815260200164505442414560d81b81525081600390816200009a9190620003a0565b506004620000a98282620003a0565b5050506001600160a01b0390811660805263ffffffff851660a05282811660c052811660e052620000dc60008762000116565b50620001097f20b5f7ac978e5d6199de06401411960dfa81d2f762655f6206bdc61d46fc19e68662000116565b50505050505050620004c9565b60008281526005602090815260408083206001600160a01b038516845290915281205460ff16620001c15760008381526005602090815260408083206001600160a01b03861684529091529020805460ff1916600117905562000178620001cb565b6001600160a01b0316826001600160a01b0316847f2f8788117e7eff1d82e926ec794901d17c78024a50270940304540a733656f0d60405160405180910390a4506001620001c5565b5060005b92915050565b6000620001d7620001dc565b905090565b6000366014808210801590620001f85750620001f8336200022c565b1562000224576200020f368284038160006200046c565b6200021a9162000498565b60601c9250505090565b339250505090565b60006200023860805190565b6001600160a01b0316826001600160a01b0316149050919050565b80516001600160a01b03811681146200026b57600080fd5b919050565b60008060008060008060c087890312156200028a57600080fd5b620002958762000253565b9550620002a56020880162000253565b9450604087015163ffffffff81168114620002bf57600080fd5b9350620002cf6060880162000253565b9250620002df6080880162000253565b9150620002ef60a0880162000253565b90509295509295509295565b634e487b7160e01b600052604160045260246000fd5b600181811c908216806200032657607f821691505b6020821081036200034757634e487b7160e01b600052602260045260246000fd5b50919050565b601f8211156200039b57600081815260208120601f850160051c81016020861015620003765750805b601f850160051c820191505b81811015620003975782815560010162000382565b5050505b505050565b81516001600160401b03811115620003bc57620003bc620002fb565b620003d481620003cd845462000311565b846200034d565b602080601f8311600181146200040c5760008415620003f35750858301515b600019600386901b1c1916600185901b17855562000397565b600085815260208120601f198616915b828110156200043d578886015182559484019460019091019084016200041c565b50858210156200045c5787850151600019600388901b60f8161c191681555b5050505050600190811b01905550565b600080858511156200047d57600080fd5b838611156200048b57600080fd5b5050820193919092039150565b6001600160601b03198135818116916014851015620004c15780818660140360031b1b83161692505b505092915050565b60805160a05160c05160e051613550620005a4600039600081816102d20152818161199f01528181611b4e0152611bc50152600081816105950152818161094501528181610bbf01528181610df8015281816111860152818161144001526117990152600081816106f30152818161097401528181610bee01528181610d3f01528181610e27015281816110ad015281816111b30152818161146f015281816117c801528181611a1f01528181611a9a015281816121c401526122880152600081816104eb0152818161056c015261271601526135506000f3fe608060405234801561001057600080fd5b50600436106102a05760003560e01c806361d027b311610167578063b71c47a2116100ce578063ef78d4fd11610087578063ef78d4fd146106ee578063f0f442601461072a578063f23a6e611461073d578063f93278b51461075c578063f9c1f1211461076f578063fae613b61461078257600080fd5b8063b71c47a214610648578063b78b52df14610650578063bc197c8114610663578063c16ec03b1461068f578063d547741f146106a2578063dd62ed3e146106b557600080fd5b806391d148541161012057806391d14854146105da57806395d89b41146105ed5780639679f812146105f5578063a217fddf14610625578063a9059cbb1461062d578063ae4d3b5c1461064057600080fd5b806361d027b31461051b5780636e08b1271461052e57806370a08231146105415780637da0a8771461056a5780637dc0d1d0146105905780638857159a146105b757600080fd5b806323b872dd1161020b578063313ce567116101c4578063313ce5671461048b57806336568abe1461049a5780634ac32395146104ad5780634bb278f3146104c05780634e50df20146104c8578063572b6c05146104db57600080fd5b806323b872dd146103f9578063248a9ca31461040c57806328bff9db1461042f5780632aa5270e146104425780632cd02445146104655780632f2ff15d1461047857600080fd5b8063144bf5891161025d578063144bf5891461035c5780631586f91b1461037f5780631709a61b1461039f57806318160ddd146103b2578063200d2ed2146103ba57806323073b5d146103d457600080fd5b806301ffc9a7146102a55780630680a20e146102cd57806306fdde031461030c578063095ea7b3146103215780630ddd1343146103345780630f53807214610349575b600080fd5b6102b86102b3366004612a15565b6107a2565b60405190151581526020015b60405180910390f35b6102f47f000000000000000000000000000000000000000000000000000000000000000081565b6040516001600160a01b0390911681526020016102c4565b6103146107b3565b6040516102c49190612a63565b6102b861032f366004612ab2565b610845565b610347610342366004612adc565b610867565b005b610347610357366004612b43565b610895565b6103716000805160206134db83398151915281565b6040519081526020016102c4565b61037161038d366004612adc565b60076020526000908152604090205481565b600c546102f4906001600160a01b031681565b600254610371565b6006546103c79060ff1681565b6040516102c49190612baf565b6103e76103e2366004612adc565b610bb2565b6040516102c496959493929190612bcd565b6102b8610407366004612c0e565b610d92565b61037161041a366004612c4a565b60009081526005602052604090206001015490565b61034761043d366004612adc565b610dc2565b610455610450366004612adc565b610df0565b6040516102c49493929190612c63565b610347610473366004612adc565b610f61565b610347610486366004612c85565b610f8f565b604051601281526020016102c4565b6103476104a8366004612c85565b610fb4565b600e546102f4906001600160a01b031681565b610347610ffc565b600d546102f4906001600160a01b031681565b6102b86104e9366004612adc565b7f00000000000000000000000000000000000000000000000000000000000000006001600160a01b0390811691161490565b600b546102f4906001600160a01b031681565b61034761053c366004612adc565b6110e1565b61037161054f366004612adc565b6001600160a01b031660009081526020819052604090205490565b7f00000000000000000000000000000000000000000000000000000000000000006102f4565b6102f47f000000000000000000000000000000000000000000000000000000000000000081565b6102b86105c5366004612adc565b60096020526000908152604090205460ff1681565b6102b86105e8366004612c85565b61132a565b610314611355565b610618610603366004612adc565b60086020526000908152604090205460ff1681565b6040516102c49190612cb1565b610371600081565b6102b861063b366004612ab2565b611364565b61034761137c565b6103476113fa565b61034761065e366004612ab2565b61165d565b610676610671366004612e22565b611741565b6040516001600160e01b031990911681526020016102c4565b61034761069d366004612ecc565b611753565b6103476106b0366004612c85565b611fb9565b6103716106c3366004612f85565b6001600160a01b03918216600090815260016020908152604080832093909416825291909152205490565b6107157f000000000000000000000000000000000000000000000000000000000000000081565b60405163ffffffff90911681526020016102c4565b610347610738366004612adc565b611fde565b61067661074b366004612faf565b63f23a6e6160e01b95945050505050565b61034761076a366004613014565b61200c565b61034761077d366004613060565b612166565b610371610790366004612adc565b600a6020526000908152604090205481565b60006107ad826122ec565b92915050565b6060600380546107c2906130a9565b80601f01602080910402602001604051908101604052809291908181526020018280546107ee906130a9565b801561083b5780601f106108105761010080835404028352916020019161083b565b820191906000526020600020905b81548152906001019060200180831161081e57829003601f168201915b5050505050905090565b600080610850612311565b905061085d818585612320565b5060019392505050565b60006108728161232d565b50600d80546001600160a01b0319166001600160a01b0392909216919091179055565b6000805160206134db8339815191526108ad8161232d565b600260065460ff1660028111156108c6576108c6612b85565b1461090b5760405162461bcd60e51b815260206004820152601060248201526f14195c9a5bd9081b9bdd08195b99195960821b60448201526064015b60405180910390fd5b60005b82811015610bac57600084848381811061092a5761092a6130e3565b905060200201602081019061093f9190612adc565b905060007f00000000000000000000000000000000000000000000000000000000000000006001600160a01b03166345e1b42c7f0000000000000000000000000000000000000000000000000000000000000000846040518363ffffffff1660e01b81526004016109b19291906130f9565b602060405180830381865afa1580156109ce573d6000803e3d6000fd5b505050506040513d601f19601f820116820180604052508101906109f29190613118565b6001600160a01b03831660009081526007602052604090205490915081158015610a1a575080155b15610ad1576001600160a01b0383166000818152600a60209081526040808320683635c9adc5dea000009081905560088352818420805460ff1916600317905581518481529283019390935281018290529091907fa69925d3846edf00fc433c3942b4e8cbfd7cdc5651f0588d8141ba439f7e8b589060600160405180910390a2836001600160a01b03166000805160206134fb8339815191526003604051610ac39190612cb1565b60405180910390a250610b96565b600082118015610ae057508181105b15610b96576000610af18284613147565b6001600160a01b0385166000818152600a602090815260408083208590556008825291829020805460ff191660031790558151878152908101869052908101839052919250907fa69925d3846edf00fc433c3942b4e8cbfd7cdc5651f0588d8141ba439f7e8b589060600160405180910390a2836001600160a01b03166000805160206134fb8339815191526003604051610b8c9190612cb1565b60405180910390a2505b5050508080610ba49061315a565b91505061090e565b50505050565b60008060008060008060007f00000000000000000000000000000000000000000000000000000000000000006001600160a01b03166345e1b42c7f00000000000000000000000000000000000000000000000000000000000000008a6040518363ffffffff1660e01b8152600401610c2b9291906130f9565b602060405180830381865afa158015610c48573d6000803e3d6000fd5b505050506040513d601f19601f82011682018060405250810190610c6c9190613118565b6001600160a01b038916600090815260076020526040812054919250818311610c96576000610ca0565b610ca08284613147565b6001600160a01b038b1660009081526008602052604090205490915060ff16600260065460ff166002811115610cd857610cd8612b85565b03610d1a5783158015610ce9575082155b15610d025750683635c9adc5dea0000090506003610d3d565b83831015610d1257506003610d3d565b506002610d3d565b83600003610d2a57506000610d3d565b838310610d3957506002610d3d565b5060015b7f0000000000000000000000000000000000000000000000000000000000000000610d7d8c6001600160a01b031660009081526020819052604090205490565b909c909b509299509297509550909350915050565b600080610d9d612311565b9050610daa858285612341565b610db58585856123ba565b60019150505b9392505050565b6000610dcd8161232d565b50600c80546001600160a01b0319166001600160a01b0392909216919091179055565b6000806000807f00000000000000000000000000000000000000000000000000000000000000006001600160a01b03166345e1b42c7f0000000000000000000000000000000000000000000000000000000000000000876040518363ffffffff1660e01b8152600401610e649291906130f9565b602060405180830381865afa158015610e81573d6000803e3d6000fd5b505050506040513d601f19601f82011682018060405250810190610ea59190613118565b6001600160a01b0386166000908152600760205260409020549094509250600260065460ff166002811115610edc57610edc612b85565b03610f2f5783158015610eed575082155b15610f065750683635c9adc5dea0000090506003610f5a565b82841115610f2357610f188385613147565b915060039050610f5a565b50600090506002610f5a565b50506001600160a01b0383166000908152600a602090815260408083205460089092529091205460ff165b9193509193565b6000610f6c8161232d565b50600e80546001600160a01b0319166001600160a01b0392909216919091179055565b600082815260056020526040902060010154610faa8161232d565b610bac8383612419565b610fbc612311565b6001600160a01b0316816001600160a01b031614610fed5760405163334bd91960e11b815260040160405180910390fd5b610ff782826124ae565b505050565b6000805160206134db8339815191526110148161232d565b600260065460ff16600281111561102d5761102d612b85565b0361106a5760405162461bcd60e51b815260206004820152600d60248201526c105b1c9958591e48195b991959609a1b6044820152606401610902565b600680546002919060ff19166001835b02179055506006546040517f83ff33f831ff8d637dfebe12e813581690e41d25f854fb342d4a2cfe1999e62c916110d6917f00000000000000000000000000000000000000000000000000000000000000009160ff1690613173565b60405180910390a150565b806001600160a01b03166110f3612311565b6001600160a01b0316146111365760405162461bcd60e51b815260206004820152600a60248201526927b7363c9037bbb732b960b11b6044820152606401610902565b600160065460ff16600281111561114f5761114f612b85565b1461116c5760405162461bcd60e51b81526004016109029061318d565b6040516311786d0b60e21b81526000906001600160a01b037f000000000000000000000000000000000000000000000000000000000000000016906345e1b42c906111dd907f00000000000000000000000000000000000000000000000000000000000000009086906004016130f9565b602060405180830381865afa1580156111fa573d6000803e3d6000fd5b505050506040513d601f19601f8201168201806040525081019061121e9190613118565b9050600081116112405760405162461bcd60e51b8152600401610902906131b0565b6001600160a01b03821660009081526009602052604090205460ff16156112795760405162461bcd60e51b8152600401610902906131d5565b6001600160a01b0382166000818152600760209081526040808320859055600982528083208054600160ff19918216179091556008909252918290208054600292168217905590516000805160206134fb833981519152916112da91612cb1565b60405180910390a260408051828152600060208201526001600160a01b038416917fcd3331a9bec0aed59a9fbe480a5b8e9f713e86e4b4105ac2628cfe4b9d6a6e75910160405180910390a25050565b60009182526005602090815260408084206001600160a01b0393909316845291905290205460ff1690565b6060600480546107c2906130a9565b60008061136f612311565b905061085d8185856123ba565b6000805160206134db8339815191526113948161232d565b600060065460ff1660028111156113ad576113ad612b85565b146113e75760405162461bcd60e51b815260206004820152600a6024820152694e6f742061637469766560b01b6044820152606401610902565b600680546001919060ff1916828061107a565b600160065460ff16600281111561141357611413612b85565b146114305760405162461bcd60e51b81526004016109029061318d565b600061143a612311565b905060007f00000000000000000000000000000000000000000000000000000000000000006001600160a01b03166345e1b42c7f0000000000000000000000000000000000000000000000000000000000000000846040518363ffffffff1660e01b81526004016114ac9291906130f9565b602060405180830381865afa1580156114c9573d6000803e3d6000fd5b505050506040513d601f19601f820116820180604052508101906114ed9190613118565b90506000811161150f5760405162461bcd60e51b8152600401610902906131b0565b6001600160a01b03821660009081526009602052604090205460ff16156115485760405162461bcd60e51b8152600401610902906131d5565b6001600160a01b038216600090815260208190526040902054818110156115a05760405162461bcd60e51b815260206004820152600c60248201526b125b9cdd59999a58da595b9d60a21b6044820152606401610902565b6115aa8383612539565b6001600160a01b0383166000818152600760209081526040808320869055600982528083208054600160ff19918216179091556008909252918290208054600292168217905590516000805160206134fb8339815191529161160b91612cb1565b60405180910390a260408051838152600060208201526001600160a01b038516917fcd3331a9bec0aed59a9fbe480a5b8e9f713e86e4b4105ac2628cfe4b9d6a6e7591015b60405180910390a2505050565b6000805160206134db8339815191526116758161232d565b600060065460ff16600281111561168e5761168e612b85565b146116c85760405162461bcd60e51b815260206004820152600a6024820152694e6f742061637469766560b01b6044820152606401610902565b6001600160a01b038316158015906116e05750600082115b6116fc5760405162461bcd60e51b8152600401610902906131fb565b6117068383612573565b826001600160a01b03167f472f36e28bb47edb7c69c9e2ac00a77c66b505df54e9c818ac57110b0629e8c38360405161165091815260200190565b63bc197c8160e01b5b95945050505050565b600160065460ff16600281111561176c5761176c612b85565b146117895760405162461bcd60e51b81526004016109029061318d565b6000611793612311565b905060007f00000000000000000000000000000000000000000000000000000000000000006001600160a01b03166345e1b42c7f0000000000000000000000000000000000000000000000000000000000000000846040518363ffffffff1660e01b81526004016118059291906130f9565b602060405180830381865afa158015611822573d6000803e3d6000fd5b505050506040513d601f19601f820116820180604052508101906118469190613118565b9050600081116118685760405162461bcd60e51b8152600401610902906131b0565b6001600160a01b03821660009081526009602052604090205460ff16156118a15760405162461bcd60e51b8152600401610902906131d5565b600e546000906001600160a01b03161561192957600e54604051631552938760e11b81526001600160a01b03858116600483015290911690632aa5270e90602401608060405180830381865afa1580156118ff573d6000803e3d6000fd5b505050506040513d601f19601f82011682018060405250810190611923919061321c565b50925050505b60006119358284613261565b90508860005b8d811015611c505760008f8f83818110611957576119576130e3565b90506020020135905060008e8e84818110611974576119746130e3565b9050602002013590506000811115611c3b57604051630b2adfdf60e11b8152600481018390526000907f00000000000000000000000000000000000000000000000000000000000000006001600160a01b031690631655bfbe90602401600060405180830381865afa1580156119ee573d6000803e3d6000fd5b505050506040513d6000823e601f3d908101601f19168201604052611a1691908101906132e8565b505050505090507f000000000000000000000000000000000000000000000000000000000000000063ffffffff16816020015161ffff161115611a8d5760405162461bcd60e51b815260206004820152600f60248201526e56696e7461676520746f6f206e657760881b6044820152606401610902565b6002816020015161ffff167f0000000000000000000000000000000000000000000000000000000000000000611ac391906133fc565b63ffffffff161115611b0d5760405162461bcd60e51b8152602060048201526013602482015272546f6b656e204578706972656420283e32792960681b6044820152606401610902565b604051637921219560e11b81526001600160a01b038a81166004830152306024830152604482018590526064820184905260a06084830152600060a48301527f0000000000000000000000000000000000000000000000000000000000000000169063f242432a9060c401600060405180830381600087803b158015611b9257600080fd5b505af1158015611ba6573d6000803e3d6000fd5b50506040516321bea43160e11b815260048101869052602481018590527f00000000000000000000000000000000000000000000000000000000000000006001600160a01b0316925063437d48629150604401600060405180830381600087803b158015611c1357600080fd5b505af1158015611c27573d6000803e3d6000fd5b505050508185611c379190613261565b9450505b50508080611c489061315a565b91505061193b565b508815611e6f57600d546001600160a01b031615801590611c7b5750600b546001600160a01b031615155b611cb85760405162461bcd60e51b815260206004820152600e60248201526d049445253206e6f742073657475760941b6044820152606401610902565b610258611cc58842613147565b10611d025760405162461bcd60e51b815260206004820152600d60248201526c141c9a58d948195e1c1a5c9959609a1b6044820152606401610902565b611d0d8888886125a9565b611d435760405162461bcd60e51b8152602060048201526007602482015266496e762073696760c81b6044820152606401610902565b600088611d588b670de0b6b3a7640000613420565b611d629190613437565b600d54600b546040516323b872dd60e01b81526001600160a01b038a811660048301529182166024820152604481018e905292935016906323b872dd906064016020604051808303816000875af1158015611dc1573d6000803e3d6000fd5b505050506040513d601f19601f82011682018060405250810190611de59190613459565b611e1c5760405162461bcd60e51b8152602060048201526008602482015267151c998819985a5b60c21b6044820152606401610902565b611e268183613261565b604080518c8152602081018490529193506001600160a01b038816917f1479104470d59f5c1f2f509169413f8350a42155162558bf41406c763af0a7d6910160405180910390a2505b6000818311611e7f576000611e89565b611e898284613147565b90508015611efb576001600160a01b03861660009081526020819052604090205481811015611eef5760405162461bcd60e51b8152602060048201526012602482015271496e73756666696369656e7420505442414560701b6044820152606401610902565b611ef98783612539565b505b6001600160a01b0386166000818152600760209081526040808320879055600982528083208054600160ff19918216179091556008909252918290208054600292168217905590516000805160206134fb83398151915291611f5c91612cb1565b60405180910390a260408051848152600060208201526001600160a01b038816917fcd3331a9bec0aed59a9fbe480a5b8e9f713e86e4b4105ac2628cfe4b9d6a6e75910160405180910390a2505050505050505050505050505050565b600082815260056020526040902060010154611fd48161232d565b610bac83836124ae565b6000611fe98161232d565b50600b80546001600160a01b0319166001600160a01b0392909216919091179055565b6000805160206134db8339815191526120248161232d565b600060065460ff16600281111561203d5761203d612b85565b14801561204a5750600082115b801561205557508215155b6120715760405162461bcd60e51b8152600401610902906131fb565b60005b8381101561215f576000858583818110612090576120906130e3565b90506020020160208101906120a59190612adc565b6001600160a01b03161461214d576120e38585838181106120c8576120c86130e3565b90506020020160208101906120dd9190612adc565b84612573565b8484828181106120f5576120f56130e3565b905060200201602081019061210a9190612adc565b6001600160a01b03167f472f36e28bb47edb7c69c9e2ac00a77c66b505df54e9c818ac57110b0629e8c38460405161214491815260200190565b60405180910390a25b806121578161315a565b915050612074565b5050505050565b826001600160a01b0316612178612311565b6001600160a01b0316146121bb5760405162461bcd60e51b815260206004820152600a60248201526927b7363c9037bbb732b960b11b6044820152606401610902565b8063ffffffff167f000000000000000000000000000000000000000000000000000000000000000063ffffffff16111580156121f75750600082115b6122135760405162461bcd60e51b8152600401610902906131fb565b81612233846001600160a01b031660009081526020819052604090205490565b10156122705760405162461bcd60e51b815260206004820152600c60248201526b125b9cdd59999a58da595b9d60a21b6044820152606401610902565b61227a8383612539565b6040805183815263ffffffff7f0000000000000000000000000000000000000000000000000000000000000000811660208301528316918101919091526001600160a01b038416907fa47f6140edf6c4ca37503e6e7f7178c6ffbfe489fa5b085bd3c01c16bb0db6ea90606001611650565b60006001600160e01b03198216630271189760e51b14806107ad57506107ad826126cf565b600061231b612704565b905090565b610ff78383836001612770565b61233e81612339612311565b612845565b50565b6001600160a01b03838116600090815260016020908152604080832093861683529290522054600019811015610bac57818110156123ab57604051637dc7a0d960e11b81526001600160a01b03841660048201526024810182905260448101839052606401610902565b610bac84848484036000612770565b6001600160a01b0383166123e457604051634b637e8f60e11b815260006004820152602401610902565b6001600160a01b03821661240e5760405163ec442f0560e01b815260006004820152602401610902565b610ff783838361287e565b6000612425838361132a565b6124a65760008381526005602090815260408083206001600160a01b03861684529091529020805460ff1916600117905561245e612311565b6001600160a01b0316826001600160a01b0316847f2f8788117e7eff1d82e926ec794901d17c78024a50270940304540a733656f0d60405160405180910390a45060016107ad565b5060006107ad565b60006124ba838361132a565b156124a65760008381526005602090815260408083206001600160a01b03861684529091529020805460ff191690556124f1612311565b6001600160a01b0316826001600160a01b0316847ff6391f5c32d9c69d2a47ea670b442974b53935d1edc7fd64eb21e047a839171b60405160405180910390a45060016107ad565b6001600160a01b03821661256357604051634b637e8f60e11b815260006004820152602401610902565b61256f8260008361287e565b5050565b6001600160a01b03821661259d5760405163ec442f0560e01b815260006004820152602401610902565b61256f6000838361287e565b60008084846040516020016125c8929190918252602082015260400190565b60405160208183030381529060405280519060200120905060008160405160200161261f91907f19457468657265756d205369676e6564204d6573736167653a0a3332000000008152601c810191909152603c0190565b604051602081830303815290604052805190602001209050600080600061264587612889565b600c546040805160008152602081018083528a905260ff841691810191909152606081018590526080810184905293965091945092506001600160a01b03169060019060a0016020604051602081039080840390855afa1580156126ad573d6000803e3d6000fd5b505050602060405103516001600160a01b031614955050505050509392505050565b60006001600160e01b03198216637965db0b60e01b14806107ad57506301ffc9a760e01b6001600160e01b03198316146107ad565b600036601480821080159061274157507f00000000000000000000000000000000000000000000000000000000000000006001600160a01b031633145b15612768576127553682840381600061347b565b61275e916134a5565b60601c9250505090565b339250505090565b6001600160a01b03841661279a5760405163e602df0560e01b815260006004820152602401610902565b6001600160a01b0383166127c457604051634a1406b160e11b815260006004820152602401610902565b6001600160a01b0380851660009081526001602090815260408083209387168352929052208290558015610bac57826001600160a01b0316846001600160a01b03167f8c5be1e5ebec7d5bd14f71427d1e84f3dd0314c0f7b2291e5b200ac8c7c3b9258460405161283791815260200190565b60405180910390a350505050565b61284f828261132a565b61256f5760405163e2517d3f60e01b81526001600160a01b038216600482015260248101839052604401610902565b610ff78383836128eb565b600080600083516041146128cd5760405162461bcd60e51b815260206004820152600b60248201526a34b73b1039b4b3903632b760a91b6044820152606401610902565b50505060208101516040820151606090920151909260009190911a90565b6001600160a01b03831661291657806002600082825461290b9190613261565b909155506129889050565b6001600160a01b038316600090815260208190526040902054818110156129695760405163391434e360e21b81526001600160a01b03851660048201526024810182905260448101839052606401610902565b6001600160a01b03841660009081526020819052604090209082900390555b6001600160a01b0382166129a4576002805482900390556129c3565b6001600160a01b03821660009081526020819052604090208054820190555b816001600160a01b0316836001600160a01b03167fddf252ad1be2c89b69c2b068fc378daa952ba7f163c4a11628f55a4df523b3ef83604051612a0891815260200190565b60405180910390a3505050565b600060208284031215612a2757600080fd5b81356001600160e01b031981168114610dbb57600080fd5b60005b83811015612a5a578181015183820152602001612a42565b50506000910152565b6020815260008251806020840152612a82816040850160208701612a3f565b601f01601f19169190910160400192915050565b80356001600160a01b0381168114612aad57600080fd5b919050565b60008060408385031215612ac557600080fd5b612ace83612a96565b946020939093013593505050565b600060208284031215612aee57600080fd5b610dbb82612a96565b60008083601f840112612b0957600080fd5b50813567ffffffffffffffff811115612b2157600080fd5b6020830191508360208260051b8501011115612b3c57600080fd5b9250929050565b60008060208385031215612b5657600080fd5b823567ffffffffffffffff811115612b6d57600080fd5b612b7985828601612af7565b90969095509350505050565b634e487b7160e01b600052602160045260246000fd5b60038110612bab57612bab612b85565b9052565b602081016107ad8284612b9b565b60048110612bab57612bab612b85565b600060c08201905063ffffffff88168252866020830152856040830152846060830152836080830152612c0360a0830184612bbd565b979650505050505050565b600080600060608486031215612c2357600080fd5b612c2c84612a96565b9250612c3a60208501612a96565b9150604084013590509250925092565b600060208284031215612c5c57600080fd5b5035919050565b84815260208101849052604081018390526080810161174a6060830184612bbd565b60008060408385031215612c9857600080fd5b82359150612ca860208401612a96565b90509250929050565b602081016107ad8284612bbd565b634e487b7160e01b600052604160045260246000fd5b6040516080810167ffffffffffffffff81118282101715612cf857612cf8612cbf565b60405290565b604051601f8201601f1916810167ffffffffffffffff81118282101715612d2757612d27612cbf565b604052919050565b600082601f830112612d4057600080fd5b8135602067ffffffffffffffff821115612d5c57612d5c612cbf565b8160051b612d6b828201612cfe565b9283528481018201928281019087851115612d8557600080fd5b83870192505b84831015612c0357823582529183019190830190612d8b565b600067ffffffffffffffff821115612dbe57612dbe612cbf565b50601f01601f191660200190565b600082601f830112612ddd57600080fd5b8135612df0612deb82612da4565b612cfe565b818152846020838601011115612e0557600080fd5b816020850160208301376000918101602001919091529392505050565b600080600080600060a08688031215612e3a57600080fd5b612e4386612a96565b9450612e5160208701612a96565b9350604086013567ffffffffffffffff80821115612e6e57600080fd5b612e7a89838a01612d2f565b94506060880135915080821115612e9057600080fd5b612e9c89838a01612d2f565b93506080880135915080821115612eb257600080fd5b50612ebf88828901612dcc565b9150509295509295909350565b600080600080600080600080600060e08a8c031215612eea57600080fd5b893567ffffffffffffffff80821115612f0257600080fd5b612f0e8d838e01612af7565b909b50995060208c0135915080821115612f2757600080fd5b612f338d838e01612af7565b909950975060408c0135965060608c0135955060808c0135945060a08c0135935060c08c0135915080821115612f6857600080fd5b50612f758c828d01612dcc565b9150509295985092959850929598565b60008060408385031215612f9857600080fd5b612fa183612a96565b9150612ca860208401612a96565b600080600080600060a08688031215612fc757600080fd5b612fd086612a96565b9450612fde60208701612a96565b93506040860135925060608601359150608086013567ffffffffffffffff81111561300857600080fd5b612ebf88828901612dcc565b60008060006040848603121561302957600080fd5b833567ffffffffffffffff81111561304057600080fd5b61304c86828701612af7565b909790965060209590950135949350505050565b60008060006060848603121561307557600080fd5b61307e84612a96565b925060208401359150604084013563ffffffff8116811461309e57600080fd5b809150509250925092565b600181811c908216806130bd57607f821691505b6020821081036130dd57634e487b7160e01b600052602260045260246000fd5b50919050565b634e487b7160e01b600052603260045260246000fd5b63ffffffff9290921682526001600160a01b0316602082015260400190565b60006020828403121561312a57600080fd5b5051919050565b634e487b7160e01b600052601160045260246000fd5b818103818111156107ad576107ad613131565b60006001820161316c5761316c613131565b5060010190565b63ffffffff8316815260408101610dbb6020830184612b9b565b602080825260099082015268139bdd08185d591a5d60ba1b604082015260600190565b6020808252600b908201526a27379032b6b4b9b9b4b7b760a91b604082015260600190565b6020808252600c908201526b416c726561647920646f6e6560a01b604082015260600190565b602080825260079082015266125b9d985b1a5960ca1b604082015260600190565b6000806000806080858703121561323257600080fd5b84519350602085015192506040850151915060608501516004811061325657600080fd5b939692955090935050565b808201808211156107ad576107ad613131565b600082601f83011261328557600080fd5b8151613293612deb82612da4565b8181528460208386010111156132a857600080fd5b6132b9826020830160208701612a3f565b949350505050565b805160028110612aad57600080fd5b805167ffffffffffffffff81168114612aad57600080fd5b60008060008060008060c0878903121561330157600080fd5b865167ffffffffffffffff8082111561331957600080fd5b908801906080828b03121561332d57600080fd5b613335612cd5565b82518281111561334457600080fd5b6133508c828601613274565b825250602083015161ffff8116811461336857600080fd5b602082015260408301518281111561337f57600080fd5b61338b8c828601613274565b6040830152506060830151828111156133a357600080fd5b6133af8c828601613274565b60608301525097506133c6915050602088016132c1565b9450604087015193506133db606088016132d0565b92506133e9608088016132d0565b915060a087015190509295509295509295565b63ffffffff82811682821603908082111561341957613419613131565b5092915050565b80820281158282048414176107ad576107ad613131565b60008261345457634e487b7160e01b600052601260045260246000fd5b500490565b60006020828403121561346b57600080fd5b81518015158114610dbb57600080fd5b6000808585111561348b57600080fd5b8386111561349857600080fd5b5050820193919092039150565b6bffffffffffffffffffffffff1981358181169160148510156134d25780818660140360031b1b83161692505b50509291505056fe20b5f7ac978e5d6199de06401411960dfa81d2f762655f6206bdc61d46fc19e6ea6c029757711e3bf5e8958ba57d94459b2e5b84a40eed9d21e4390e1e1f6e86a2646970667358221220993e15840cba3c16feca5e2f74bc906cc30143c7e0590108fd71cac0b58770c064736f6c63430008140033a2646970667358221220441903d85b9883ba90da137ae5cba336a6701d857ff94fddde9435e739dbb86264736f6c634300081400336101006040526006805460ff191690553480156200001c57600080fd5b5060405162003af438038062003af48339810160408190526200003f9162000270565b826040518060400160405280601281526020017150544241452d505520416c6c6f77616e636560701b81525060405180604001604052806005815260200164505442414560d81b81525081600390816200009a9190620003a0565b506004620000a98282620003a0565b5050506001600160a01b0390811660805263ffffffff851660a05282811660c052811660e052620000dc60008762000116565b50620001097f20b5f7ac978e5d6199de06401411960dfa81d2f762655f6206bdc61d46fc19e68662000116565b50505050505050620004c9565b60008281526005602090815260408083206001600160a01b038516845290915281205460ff16620001c15760008381526005602090815260408083206001600160a01b03861684529091529020805460ff1916600117905562000178620001cb565b6001600160a01b0316826001600160a01b0316847f2f8788117e7eff1d82e926ec794901d17c78024a50270940304540a733656f0d60405160405180910390a4506001620001c5565b5060005b92915050565b6000620001d7620001dc565b905090565b6000366014808210801590620001f85750620001f8336200022c565b1562000224576200020f368284038160006200046c565b6200021a9162000498565b60601c9250505090565b339250505090565b60006200023860805190565b6001600160a01b0316826001600160a01b0316149050919050565b80516001600160a01b03811681146200026b57600080fd5b919050565b60008060008060008060c087890312156200028a57600080fd5b620002958762000253565b9550620002a56020880162000253565b9450604087015163ffffffff81168114620002bf57600080fd5b9350620002cf6060880162000253565b9250620002df6080880162000253565b9150620002ef60a0880162000253565b90509295509295509295565b634e487b7160e01b600052604160045260246000fd5b600181811c908216806200032657607f821691505b6020821081036200034757634e487b7160e01b600052602260045260246000fd5b50919050565b601f8211156200039b57600081815260208120601f850160051c81016020861015620003765750805b601f850160051c820191505b81811015620003975782815560010162000382565b5050505b505050565b81516001600160401b03811115620003bc57620003bc620002fb565b620003d481620003cd845462000311565b846200034d565b602080601f8311600181146200040c5760008415620003f35750858301515b600019600386901b1c1916600185901b17855562000397565b600085815260208120601f198616915b828110156200043d578886015182559484019460019091019084016200041c565b50858210156200045c5787850151600019600388901b60f8161c191681555b5050505050600190811b01905550565b600080858511156200047d57600080fd5b838611156200048b57600080fd5b5050820193919092039150565b6001600160601b03198135818116916014851015620004c15780818660140360031b1b83161692505b505092915050565b60805160a05160c05160e051613550620005a4600039600081816102d20152818161199f01528181611b4e0152611bc50152600081816105950152818161094501528181610bbf01528181610df8015281816111860152818161144001526117990152600081816106f30152818161097401528181610bee01528181610d3f01528181610e27015281816110ad015281816111b30152818161146f015281816117c801528181611a1f01528181611a9a015281816121c401526122880152600081816104eb0152818161056c015261271601526135506000f3fe608060405234801561001057600080fd5b50600436106102a05760003560e01c806361d027b311610167578063b71c47a2116100ce578063ef78d4fd11610087578063ef78d4fd146106ee578063f0f442601461072a578063f23a6e611461073d578063f93278b51461075c578063f9c1f1211461076f578063fae613b61461078257600080fd5b8063b71c47a214610648578063b78b52df14610650578063bc197c8114610663578063c16ec03b1461068f578063d547741f146106a2578063dd62ed3e146106b557600080fd5b806391d148541161012057806391d14854146105da57806395d89b41146105ed5780639679f812146105f5578063a217fddf14610625578063a9059cbb1461062d578063ae4d3b5c1461064057600080fd5b806361d027b31461051b5780636e08b1271461052e57806370a08231146105415780637da0a8771461056a5780637dc0d1d0146105905780638857159a146105b757600080fd5b806323b872dd1161020b578063313ce567116101c4578063313ce5671461048b57806336568abe1461049a5780634ac32395146104ad5780634bb278f3146104c05780634e50df20146104c8578063572b6c05146104db57600080fd5b806323b872dd146103f9578063248a9ca31461040c57806328bff9db1461042f5780632aa5270e146104425780632cd02445146104655780632f2ff15d1461047857600080fd5b8063144bf5891161025d578063144bf5891461035c5780631586f91b1461037f5780631709a61b1461039f57806318160ddd146103b2578063200d2ed2146103ba57806323073b5d146103d457600080fd5b806301ffc9a7146102a55780630680a20e146102cd57806306fdde031461030c578063095ea7b3146103215780630ddd1343146103345780630f53807214610349575b600080fd5b6102b86102b3366004612a15565b6107a2565b60405190151581526020015b60405180910390f35b6102f47f000000000000000000000000000000000000000000000000000000000000000081565b6040516001600160a01b0390911681526020016102c4565b6103146107b3565b6040516102c49190612a63565b6102b861032f366004612ab2565b610845565b610347610342366004612adc565b610867565b005b610347610357366004612b43565b610895565b6103716000805160206134db83398151915281565b6040519081526020016102c4565b61037161038d366004612adc565b60076020526000908152604090205481565b600c546102f4906001600160a01b031681565b600254610371565b6006546103c79060ff1681565b6040516102c49190612baf565b6103e76103e2366004612adc565b610bb2565b6040516102c496959493929190612bcd565b6102b8610407366004612c0e565b610d92565b61037161041a366004612c4a565b60009081526005602052604090206001015490565b61034761043d366004612adc565b610dc2565b610455610450366004612adc565b610df0565b6040516102c49493929190612c63565b610347610473366004612adc565b610f61565b610347610486366004612c85565b610f8f565b604051601281526020016102c4565b6103476104a8366004612c85565b610fb4565b600e546102f4906001600160a01b031681565b610347610ffc565b600d546102f4906001600160a01b031681565b6102b86104e9366004612adc565b7f00000000000000000000000000000000000000000000000000000000000000006001600160a01b0390811691161490565b600b546102f4906001600160a01b031681565b61034761053c366004612adc565b6110e1565b61037161054f366004612adc565b6001600160a01b031660009081526020819052604090205490565b7f00000000000000000000000000000000000000000000000000000000000000006102f4565b6102f47f000000000000000000000000000000000000000000000000000000000000000081565b6102b86105c5366004612adc565b60096020526000908152604090205460ff1681565b6102b86105e8366004612c85565b61132a565b610314611355565b610618610603366004612adc565b60086020526000908152604090205460ff1681565b6040516102c49190612cb1565b610371600081565b6102b861063b366004612ab2565b611364565b61034761137c565b6103476113fa565b61034761065e366004612ab2565b61165d565b610676610671366004612e22565b611741565b6040516001600160e01b031990911681526020016102c4565b61034761069d366004612ecc565b611753565b6103476106b0366004612c85565b611fb9565b6103716106c3366004612f85565b6001600160a01b03918216600090815260016020908152604080832093909416825291909152205490565b6107157f000000000000000000000000000000000000000000000000000000000000000081565b60405163ffffffff90911681526020016102c4565b610347610738366004612adc565b611fde565b61067661074b366004612faf565b63f23a6e6160e01b95945050505050565b61034761076a366004613014565b61200c565b61034761077d366004613060565b612166565b610371610790366004612adc565b600a6020526000908152604090205481565b60006107ad826122ec565b92915050565b6060600380546107c2906130a9565b80601f01602080910402602001604051908101604052809291908181526020018280546107ee906130a9565b801561083b5780601f106108105761010080835404028352916020019161083b565b820191906000526020600020905b81548152906001019060200180831161081e57829003601f168201915b5050505050905090565b600080610850612311565b905061085d818585612320565b5060019392505050565b60006108728161232d565b50600d80546001600160a01b0319166001600160a01b0392909216919091179055565b6000805160206134db8339815191526108ad8161232d565b600260065460ff1660028111156108c6576108c6612b85565b1461090b5760405162461bcd60e51b815260206004820152601060248201526f14195c9a5bd9081b9bdd08195b99195960821b60448201526064015b60405180910390fd5b60005b82811015610bac57600084848381811061092a5761092a6130e3565b905060200201602081019061093f9190612adc565b905060007f00000000000000000000000000000000000000000000000000000000000000006001600160a01b03166345e1b42c7f0000000000000000000000000000000000000000000000000000000000000000846040518363ffffffff1660e01b81526004016109b19291906130f9565b602060405180830381865afa1580156109ce573d6000803e3d6000fd5b505050506040513d601f19601f820116820180604052508101906109f29190613118565b6001600160a01b03831660009081526007602052604090205490915081158015610a1a575080155b15610ad1576001600160a01b0383166000818152600a60209081526040808320683635c9adc5dea000009081905560088352818420805460ff1916600317905581518481529283019390935281018290529091907fa69925d3846edf00fc433c3942b4e8cbfd7cdc5651f0588d8141ba439f7e8b589060600160405180910390a2836001600160a01b03166000805160206134fb8339815191526003604051610ac39190612cb1565b60405180910390a250610b96565b600082118015610ae057508181105b15610b96576000610af18284613147565b6001600160a01b0385166000818152600a602090815260408083208590556008825291829020805460ff191660031790558151878152908101869052908101839052919250907fa69925d3846edf00fc433c3942b4e8cbfd7cdc5651f0588d8141ba439f7e8b589060600160405180910390a2836001600160a01b03166000805160206134fb8339815191526003604051610b8c9190612cb1565b60405180910390a2505b5050508080610ba49061315a565b91505061090e565b50505050565b60008060008060008060007f00000000000000000000000000000000000000000000000000000000000000006001600160a01b03166345e1b42c7f00000000000000000000000000000000000000000000000000000000000000008a6040518363ffffffff1660e01b8152600401610c2b9291906130f9565b602060405180830381865afa158015610c48573d6000803e3d6000fd5b505050506040513d601f19601f82011682018060405250810190610c6c9190613118565b6001600160a01b038916600090815260076020526040812054919250818311610c96576000610ca0565b610ca08284613147565b6001600160a01b038b1660009081526008602052604090205490915060ff16600260065460ff166002811115610cd857610cd8612b85565b03610d1a5783158015610ce9575082155b15610d025750683635c9adc5dea0000090506003610d3d565b83831015610d1257506003610d3d565b506002610d3d565b83600003610d2a57506000610d3d565b838310610d3957506002610d3d565b5060015b7f0000000000000000000000000000000000000000000000000000000000000000610d7d8c6001600160a01b031660009081526020819052604090205490565b909c909b509299509297509550909350915050565b600080610d9d612311565b9050610daa858285612341565b610db58585856123ba565b60019150505b9392505050565b6000610dcd8161232d565b50600c80546001600160a01b0319166001600160a01b0392909216919091179055565b6000806000807f00000000000000000000000000000000000000000000000000000000000000006001600160a01b03166345e1b42c7f0000000000000000000000000000000000000000000000000000000000000000876040518363ffffffff1660e01b8152600401610e649291906130f9565b602060405180830381865afa158015610e81573d6000803e3d6000fd5b505050506040513d601f19601f82011682018060405250810190610ea59190613118565b6001600160a01b0386166000908152600760205260409020549094509250600260065460ff166002811115610edc57610edc612b85565b03610f2f5783158015610eed575082155b15610f065750683635c9adc5dea0000090506003610f5a565b82841115610f2357610f188385613147565b915060039050610f5a565b50600090506002610f5a565b50506001600160a01b0383166000908152600a602090815260408083205460089092529091205460ff165b9193509193565b6000610f6c8161232d565b50600e80546001600160a01b0319166001600160a01b0392909216919091179055565b600082815260056020526040902060010154610faa8161232d565b610bac8383612419565b610fbc612311565b6001600160a01b0316816001600160a01b031614610fed5760405163334bd91960e11b815260040160405180910390fd5b610ff782826124ae565b505050565b6000805160206134db8339815191526110148161232d565b600260065460ff16600281111561102d5761102d612b85565b0361106a5760405162461bcd60e51b815260206004820152600d60248201526c105b1c9958591e48195b991959609a1b6044820152606401610902565b600680546002919060ff19166001835b02179055506006546040517f83ff33f831ff8d637dfebe12e813581690e41d25f854fb342d4a2cfe1999e62c916110d6917f00000000000000000000000000000000000000000000000000000000000000009160ff1690613173565b60405180910390a150565b806001600160a01b03166110f3612311565b6001600160a01b0316146111365760405162461bcd60e51b815260206004820152600a60248201526927b7363c9037bbb732b960b11b6044820152606401610902565b600160065460ff16600281111561114f5761114f612b85565b1461116c5760405162461bcd60e51b81526004016109029061318d565b6040516311786d0b60e21b81526000906001600160a01b037f000000000000000000000000000000000000000000000000000000000000000016906345e1b42c906111dd907f00000000000000000000000000000000000000000000000000000000000000009086906004016130f9565b602060405180830381865afa1580156111fa573d6000803e3d6000fd5b505050506040513d601f19601f8201168201806040525081019061121e9190613118565b9050600081116112405760405162461bcd60e51b8152600401610902906131b0565b6001600160a01b03821660009081526009602052604090205460ff16156112795760405162461bcd60e51b8152600401610902906131d5565b6001600160a01b0382166000818152600760209081526040808320859055600982528083208054600160ff19918216179091556008909252918290208054600292168217905590516000805160206134fb833981519152916112da91612cb1565b60405180910390a260408051828152600060208201526001600160a01b038416917fcd3331a9bec0aed59a9fbe480a5b8e9f713e86e4b4105ac2628cfe4b9d6a6e75910160405180910390a25050565b60009182526005602090815260408084206001600160a01b0393909316845291905290205460ff1690565b6060600480546107c2906130a9565b60008061136f612311565b905061085d8185856123ba565b6000805160206134db8339815191526113948161232d565b600060065460ff1660028111156113ad576113ad612b85565b146113e75760405162461bcd60e51b815260206004820152600a6024820152694e6f742061637469766560b01b6044820152606401610902565b600680546001919060ff1916828061107a565b600160065460ff16600281111561141357611413612b85565b146114305760405162461bcd60e51b81526004016109029061318d565b600061143a612311565b905060007f00000000000000000000000000000000000000000000000000000000000000006001600160a01b03166345e1b42c7f0000000000000000000000000000000000000000000000000000000000000000846040518363ffffffff1660e01b81526004016114ac9291906130f9565b602060405180830381865afa1580156114c9573d6000803e3d6000fd5b505050506040513d601f19601f820116820180604052508101906114ed9190613118565b90506000811161150f5760405162461bcd60e51b8152600401610902906131b0565b6001600160a01b03821660009081526009602052604090205460ff16156115485760405162461bcd60e51b8152600401610902906131d5565b6001600160a01b038216600090815260208190526040902054818110156115a05760405162461bcd60e51b815260206004820152600c60248201526b125b9cdd59999a58da595b9d60a21b6044820152606401610902565b6115aa8383612539565b6001600160a01b0383166000818152600760209081526040808320869055600982528083208054600160ff19918216179091556008909252918290208054600292168217905590516000805160206134fb8339815191529161160b91612cb1565b60405180910390a260408051838152600060208201526001600160a01b038516917fcd3331a9bec0aed59a9fbe480a5b8e9f713e86e4b4105ac2628cfe4b9d6a6e7591015b60405180910390a2505050565b6000805160206134db8339815191526116758161232d565b600060065460ff16600281111561168e5761168e612b85565b146116c85760405162461bcd60e51b815260206004820152600a6024820152694e6f742061637469766560b01b6044820152606401610902565b6001600160a01b038316158015906116e05750600082115b6116fc5760405162461bcd60e51b8152600401610902906131fb565b6117068383612573565b826001600160a01b03167f472f36e28bb47edb7c69c9e2ac00a77c66b505df54e9c818ac57110b0629e8c38360405161165091815260200190565b63bc197c8160e01b5b95945050505050565b600160065460ff16600281111561176c5761176c612b85565b146117895760405162461bcd60e51b81526004016109029061318d565b6000611793612311565b905060007f00000000000000000000000000000000000000000000000000000000000000006001600160a01b03166345e1b42c7f0000000000000000000000000000000000000000000000000000000000000000846040518363ffffffff1660e01b81526004016118059291906130f9565b602060405180830381865afa158015611822573d6000803e3d6000fd5b505050506040513d601f19601f820116820180604052508101906118469190613118565b9050600081116118685760405162461bcd60e51b8152600401610902906131b0565b6001600160a01b03821660009081526009602052604090205460ff16156118a15760405162461bcd60e51b8152600401610902906131d5565b600e546000906001600160a01b03161561192957600e54604051631552938760e11b81526001600160a01b03858116600483015290911690632aa5270e90602401608060405180830381865afa1580156118ff573d6000803e3d6000fd5b505050506040513d601f19601f82011682018060405250810190611923919061321c565b50925050505b60006119358284613261565b90508860005b8d811015611c505760008f8f83818110611957576119576130e3565b90506020020135905060008e8e84818110611974576119746130e3565b9050602002013590506000811115611c3b57604051630b2adfdf60e11b8152600481018390526000907f00000000000000000000000000000000000000000000000000000000000000006001600160a01b031690631655bfbe90602401600060405180830381865afa1580156119ee573d6000803e3d6000fd5b505050506040513d6000823e601f3d908101601f19168201604052611a1691908101906132e8565b505050505090507f000000000000000000000000000000000000000000000000000000000000000063ffffffff16816020015161ffff161115611a8d5760405162461bcd60e51b815260206004820152600f60248201526e56696e7461676520746f6f206e657760881b6044820152606401610902565b6002816020015161ffff167f0000000000000000000000000000000000000000000000000000000000000000611ac391906133fc565b63ffffffff161115611b0d5760405162461bcd60e51b8152602060048201526013602482015272546f6b656e204578706972656420283e32792960681b6044820152606401610902565b604051637921219560e11b81526001600160a01b038a81166004830152306024830152604482018590526064820184905260a06084830152600060a48301527f0000000000000000000000000000000000000000000000000000000000000000169063f242432a9060c401600060405180830381600087803b158015611b9257600080fd5b505af1158015611ba6573d6000803e3d6000fd5b50506040516321bea43160e11b815260048101869052602481018590527f00000000000000000000000000000000000000000000000000000000000000006001600160a01b0316925063437d48629150604401600060405180830381600087803b158015611c1357600080fd5b505af1158015611c27573d6000803e3d6000fd5b505050508185611c379190613261565b9450505b50508080611c489061315a565b91505061193b565b508815611e6f57600d546001600160a01b031615801590611c7b5750600b546001600160a01b031615155b611cb85760405162461bcd60e51b815260206004820152600e60248201526d049445253206e6f742073657475760941b6044820152606401610902565b610258611cc58842613147565b10611d025760405162461bcd60e51b815260206004820152600d60248201526c141c9a58d948195e1c1a5c9959609a1b6044820152606401610902565b611d0d8888886125a9565b611d435760405162461bcd60e51b8152602060048201526007602482015266496e762073696760c81b6044820152606401610902565b600088611d588b670de0b6b3a7640000613420565b611d629190613437565b600d54600b546040516323b872dd60e01b81526001600160a01b038a811660048301529182166024820152604481018e905292935016906323b872dd906064016020604051808303816000875af1158015611dc1573d6000803e3d6000fd5b505050506040513d601f19601f82011682018060405250810190611de59190613459565b611e1c5760405162461bcd60e51b8152602060048201526008602482015267151c998819985a5b60c21b6044820152606401610902565b611e268183613261565b604080518c8152602081018490529193506001600160a01b038816917f1479104470d59f5c1f2f509169413f8350a42155162558bf41406c763af0a7d6910160405180910390a2505b6000818311611e7f576000611e89565b611e898284613147565b90508015611efb576001600160a01b03861660009081526020819052604090205481811015611eef5760405162461bcd60e51b8152602060048201526012602482015271496e73756666696369656e7420505442414560701b6044820152606401610902565b611ef98783612539565b505b6001600160a01b0386166000818152600760209081526040808320879055600982528083208054600160ff19918216179091556008909252918290208054600292168217905590516000805160206134fb83398151915291611f5c91612cb1565b60405180910390a260408051848152600060208201526001600160a01b038816917fcd3331a9bec0aed59a9fbe480a5b8e9f713e86e4b4105ac2628cfe4b9d6a6e75910160405180910390a2505050505050505050505050505050565b600082815260056020526040902060010154611fd48161232d565b610bac83836124ae565b6000611fe98161232d565b50600b80546001600160a01b0319166001600160a01b0392909216919091179055565b6000805160206134db8339815191526120248161232d565b600060065460ff16600281111561203d5761203d612b85565b14801561204a5750600082115b801561205557508215155b6120715760405162461bcd60e51b8152600401610902906131fb565b60005b8381101561215f576000858583818110612090576120906130e3565b90506020020160208101906120a59190612adc565b6001600160a01b03161461214d576120e38585838181106120c8576120c86130e3565b90506020020160208101906120dd9190612adc565b84612573565b8484828181106120f5576120f56130e3565b905060200201602081019061210a9190612adc565b6001600160a01b03167f472f36e28bb47edb7c69c9e2ac00a77c66b505df54e9c818ac57110b0629e8c38460405161214491815260200190565b60405180910390a25b806121578161315a565b915050612074565b5050505050565b826001600160a01b0316612178612311565b6001600160a01b0316146121bb5760405162461bcd60e51b815260206004820152600a60248201526927b7363c9037bbb732b960b11b6044820152606401610902565b8063ffffffff167f000000000000000000000000000000000000000000000000000000000000000063ffffffff16111580156121f75750600082115b6122135760405162461bcd60e51b8152600401610902906131fb565b81612233846001600160a01b031660009081526020819052604090205490565b10156122705760405162461bcd60e51b815260206004820152600c60248201526b125b9cdd59999a58da595b9d60a21b6044820152606401610902565b61227a8383612539565b6040805183815263ffffffff7f0000000000000000000000000000000000000000000000000000000000000000811660208301528316918101919091526001600160a01b038416907fa47f6140edf6c4ca37503e6e7f7178c6ffbfe489fa5b085bd3c01c16bb0db6ea90606001611650565b60006001600160e01b03198216630271189760e51b14806107ad57506107ad826126cf565b600061231b612704565b905090565b610ff78383836001612770565b61233e81612339612311565b612845565b50565b6001600160a01b03838116600090815260016020908152604080832093861683529290522054600019811015610bac57818110156123ab57604051637dc7a0d960e11b81526001600160a01b03841660048201526024810182905260448101839052606401610902565b610bac84848484036000612770565b6001600160a01b0383166123e457604051634b637e8f60e11b815260006004820152602401610902565b6001600160a01b03821661240e5760405163ec442f0560e01b815260006004820152602401610902565b610ff783838361287e565b6000612425838361132a565b6124a65760008381526005602090815260408083206001600160a01b03861684529091529020805460ff1916600117905561245e612311565b6001600160a01b0316826001600160a01b0316847f2f8788117e7eff1d82e926ec794901d17c78024a50270940304540a733656f0d60405160405180910390a45060016107ad565b5060006107ad565b60006124ba838361132a565b156124a65760008381526005602090815260408083206001600160a01b03861684529091529020805460ff191690556124f1612311565b6001600160a01b0316826001600160a01b0316847ff6391f5c32d9c69d2a47ea670b442974b53935d1edc7fd64eb21e047a839171b60405160405180910390a45060016107ad565b6001600160a01b03821661256357604051634b637e8f60e11b815260006004820152602401610902565b61256f8260008361287e565b5050565b6001600160a01b03821661259d5760405163ec442f0560e01b815260006004820152602401610902565b61256f6000838361287e565b60008084846040516020016125c8929190918252602082015260400190565b60405160208183030381529060405280519060200120905060008160405160200161261f91907f19457468657265756d205369676e6564204d6573736167653a0a3332000000008152601c810191909152603c0190565b604051602081830303815290604052805190602001209050600080600061264587612889565b600c546040805160008152602081018083528a905260ff841691810191909152606081018590526080810184905293965091945092506001600160a01b03169060019060a0016020604051602081039080840390855afa1580156126ad573d6000803e3d6000fd5b505050602060405103516001600160a01b031614955050505050509392505050565b60006001600160e01b03198216637965db0b60e01b14806107ad57506301ffc9a760e01b6001600160e01b03198316146107ad565b600036601480821080159061274157507f00000000000000000000000000000000000000000000000000000000000000006001600160a01b031633145b15612768576127553682840381600061347b565b61275e916134a5565b60601c9250505090565b339250505090565b6001600160a01b03841661279a5760405163e602df0560e01b815260006004820152602401610902565b6001600160a01b0383166127c457604051634a1406b160e11b815260006004820152602401610902565b6001600160a01b0380851660009081526001602090815260408083209387168352929052208290558015610bac57826001600160a01b0316846001600160a01b03167f8c5be1e5ebec7d5bd14f71427d1e84f3dd0314c0f7b2291e5b200ac8c7c3b9258460405161283791815260200190565b60405180910390a350505050565b61284f828261132a565b61256f5760405163e2517d3f60e01b81526001600160a01b038216600482015260248101839052604401610902565b610ff78383836128eb565b600080600083516041146128cd5760405162461bcd60e51b815260206004820152600b60248201526a34b73b1039b4b3903632b760a91b6044820152606401610902565b50505060208101516040820151606090920151909260009190911a90565b6001600160a01b03831661291657806002600082825461290b9190613261565b909155506129889050565b6001600160a01b038316600090815260208190526040902054818110156129695760405163391434e360e21b81526001600160a01b03851660048201526024810182905260448101839052606401610902565b6001600160a01b03841660009081526020819052604090209082900390555b6001600160a01b0382166129a4576002805482900390556129c3565b6001600160a01b03821660009081526020819052604090208054820190555b816001600160a01b0316836001600160a01b03167fddf252ad1be2c89b69c2b068fc378daa952ba7f163c4a11628f55a4df523b3ef83604051612a0891815260200190565b60405180910390a3505050565b600060208284031215612a2757600080fd5b81356001600160e01b031981168114610dbb57600080fd5b60005b83811015612a5a578181015183820152602001612a42565b50506000910152565b6020815260008251806020840152612a82816040850160208701612a3f565b601f01601f19169190910160400192915050565b80356001600160a01b0381168114612aad57600080fd5b919050565b60008060408385031215612ac557600080fd5b612ace83612a96565b946020939093013593505050565b600060208284031215612aee57600080fd5b610dbb82612a96565b60008083601f840112612b0957600080fd5b50813567ffffffffffffffff811115612b2157600080fd5b6020830191508360208260051b8501011115612b3c57600080fd5b9250929050565b60008060208385031215612b5657600080fd5b823567ffffffffffffffff811115612b6d57600080fd5b612b7985828601612af7565b90969095509350505050565b634e487b7160e01b600052602160045260246000fd5b60038110612bab57612bab612b85565b9052565b602081016107ad8284612b9b565b60048110612bab57612bab612b85565b600060c08201905063ffffffff88168252866020830152856040830152846060830152836080830152612c0360a0830184612bbd565b979650505050505050565b600080600060608486031215612c2357600080fd5b612c2c84612a96565b9250612c3a60208501612a96565b9150604084013590509250925092565b600060208284031215612c5c57600080fd5b5035919050565b84815260208101849052604081018390526080810161174a6060830184612bbd565b60008060408385031215612c9857600080fd5b82359150612ca860208401612a96565b90509250929050565b602081016107ad8284612bbd565b634e487b7160e01b600052604160045260246000fd5b6040516080810167ffffffffffffffff81118282101715612cf857612cf8612cbf565b60405290565b604051601f8201601f1916810167ffffffffffffffff81118282101715612d2757612d27612cbf565b604052919050565b600082601f830112612d4057600080fd5b8135602067ffffffffffffffff821115612d5c57612d5c612cbf565b8160051b612d6b828201612cfe565b9283528481018201928281019087851115612d8557600080fd5b83870192505b84831015612c0357823582529183019190830190612d8b565b600067ffffffffffffffff821115612dbe57612dbe612cbf565b50601f01601f191660200190565b600082601f830112612ddd57600080fd5b8135612df0612deb82612da4565b612cfe565b818152846020838601011115612e0557600080fd5b816020850160208301376000918101602001919091529392505050565b600080600080600060a08688031215612e3a57600080fd5b612e4386612a96565b9450612e5160208701612a96565b9350604086013567ffffffffffffffff80821115612e6e57600080fd5b612e7a89838a01612d2f565b94506060880135915080821115612e9057600080fd5b612e9c89838a01612d2f565b93506080880135915080821115612eb257600080fd5b50612ebf88828901612dcc565b9150509295509295909350565b600080600080600080600080600060e08a8c031215612eea57600080fd5b893567ffffffffffffffff80821115612f0257600080fd5b612f0e8d838e01612af7565b909b50995060208c0135915080821115612f2757600080fd5b612f338d838e01612af7565b909950975060408c0135965060608c0135955060808c0135945060a08c0135935060c08c0135915080821115612f6857600080fd5b50612f758c828d01612dcc565b9150509295985092959850929598565b60008060408385031215612f9857600080fd5b612fa183612a96565b9150612ca860208401612a96565b600080600080600060a08688031215612fc757600080fd5b612fd086612a96565b9450612fde60208701612a96565b93506040860135925060608601359150608086013567ffffffffffffffff81111561300857600080fd5b612ebf88828901612dcc565b60008060006040848603121561302957600080fd5b833567ffffffffffffffff81111561304057600080fd5b61304c86828701612af7565b909790965060209590950135949350505050565b60008060006060848603121561307557600080fd5b61307e84612a96565b925060208401359150604084013563ffffffff8116811461309e57600080fd5b809150509250925092565b600181811c908216806130bd57607f821691505b6020821081036130dd57634e487b7160e01b600052602260045260246000fd5b50919050565b634e487b7160e01b600052603260045260246000fd5b63ffffffff9290921682526001600160a01b0316602082015260400190565b60006020828403121561312a57600080fd5b5051919050565b634e487b7160e01b600052601160045260246000fd5b818103818111156107ad576107ad613131565b60006001820161316c5761316c613131565b5060010190565b63ffffffff8316815260408101610dbb6020830184612b9b565b602080825260099082015268139bdd08185d591a5d60ba1b604082015260600190565b6020808252600b908201526a27379032b6b4b9b9b4b7b760a91b604082015260600190565b6020808252600c908201526b416c726561647920646f6e6560a01b604082015260600190565b602080825260079082015266125b9d985b1a5960ca1b604082015260600190565b6000806000806080858703121561323257600080fd5b84519350602085015192506040850151915060608501516004811061325657600080fd5b939692955090935050565b808201808211156107ad576107ad613131565b600082601f83011261328557600080fd5b8151613293612deb82612da4565b8181528460208386010111156132a857600080fd5b6132b9826020830160208701612a3f565b949350505050565b805160028110612aad57600080fd5b805167ffffffffffffffff81168114612aad57600080fd5b60008060008060008060c0878903121561330157600080fd5b865167ffffffffffffffff8082111561331957600080fd5b908801906080828b03121561332d57600080fd5b613335612cd5565b82518281111561334457600080fd5b6133508c828601613274565b825250602083015161ffff8116811461336857600080fd5b602082015260408301518281111561337f57600080fd5b61338b8c828601613274565b6040830152506060830151828111156133a357600080fd5b6133af8c828601613274565b60608301525097506133c6915050602088016132c1565b9450604087015193506133db606088016132d0565b92506133e9608088016132d0565b915060a087015190509295509295509295565b63ffffffff82811682821603908082111561341957613419613131565b5092915050565b80820281158282048414176107ad576107ad613131565b60008261345457634e487b7160e01b600052601260045260246000fd5b500490565b60006020828403121561346b57600080fd5b81518015158114610dbb57600080fd5b6000808585111561348b57600080fd5b8386111561349857600080fd5b5050820193919092039150565b6bffffffffffffffffffffffff1981358181169160148510156134d25780818660140360031b1b83161692505b50509291505056fe20b5f7ac978e5d6199de06401411960dfa81d2f762655f6206bdc61d46fc19e6ea6c029757711e3bf5e8958ba57d94459b2e5b84a40eed9d21e4390e1e1f6e86a2646970667358221220993e15840cba3c16feca5e2f74bc906cc30143c7e0590108fd71cac0b58770c064736f6c63430008140033",
  "linkReferences": {},
  "deployedLinkReferences": {}
}