{
  "_format": "hh-sol-artifact-1",
  "contractName": "PTBAEAllowanceToken",
  "sourceName": "contracts/PTBAEAllowanceToken.sol",
  "abi": [
    {
      "inputs": [
        {
          "internalType": "address",
          "name": "admin",
          "type": "address"
        },
        {
          "internalType": "address",
          "name": "regulator",
          "type": "address"
        },
        {
          "internalType": "uint32",
          "name": "_period",
          "type": "uint32"
        },
        {
          "internalType": "address",
          "name": "trustedForwarder",
          "type": "address"
        }
      ],
      "stateMutability": "nonpayable",
      "type": "constructor"
    },
    {
      "inputs": [],
      "name": "AccessControlBadConfirmation",
      "type": "error"
    },
    {
      "inputs": [
        {
          "internalType": "address",
          "name": "account",
          "type": "address"
        },
        {
          "internalType": "bytes32",
          "name": "neededRole",
          "type": "bytes32"
        }
      ],
      "name": "AccessControlUnauthorizedAccount",
      "type": "error"
    },
    {
      "inputs": [
        {
          "internalType": "address",
          "name": "spender",
          "type": "address"
        },
        {
          "internalType": "uint256",
          "name": "allowance",
          "type": "uint256"
        },
        {
          "internalType": "uint256",
          "name": "needed",
          "type": "uint256"
        }
      ],
      "name": "ERC20InsufficientAllowance",
      "type": "error"
    },
    {
      "inputs": [
        {
          "internalType": "address",
          "name": "sender",
          "type": "address"
        },
        {
          "internalType": "uint256",
          "name": "balance",
          "type": "uint256"
        },
        {
          "internalType": "uint256",
          "name": "needed",
          "type": "uint256"
        }
      ],
      "name": "ERC20InsufficientBalance",
      "type": "error"
    },
    {
      "inputs": [
        {
          "internalType": "address",
          "name": "approver",
          "type": "address"
        }
      ],
      "name": "ERC20InvalidApprover",
      "type": "error"
    },
    {
      "inputs": [
        {
          "internalType": "address",
          "name": "receiver",
          "type": "address"
        }
      ],
      "name": "ERC20InvalidReceiver",
      "type": "error"
    },
    {
      "inputs": [
        {
          "internalType": "address",
          "name": "sender",
          "type": "address"
        }
      ],
      "name": "ERC20InvalidSender",
      "type": "error"
    },
    {
      "inputs": [
        {
          "internalType": "address",
          "name": "spender",
          "type": "address"
        }
      ],
      "name": "ERC20InvalidSpender",
      "type": "error"
    },
    {
      "anonymous": false,
      "inputs": [
        {
          "indexed": true,
          "internalType": "address",
          "name": "to",
          "type": "address"
        },
        {
          "indexed": false,
          "internalType": "uint256",
          "name": "amount",
          "type": "uint256"
        }
      ],
      "name": "Allocated",
      "type": "event"
    },
    {
      "anonymous": false,
      "inputs": [
        {
          "indexed": true,
          "internalType": "address",
          "name": "owner",
          "type": "address"
        },
        {
          "indexed": true,
          "internalType": "address",
          "name": "spender",
          "type": "address"
        },
        {
          "indexed": false,
          "internalType": "uint256",
          "name": "value",
          "type": "uint256"
        }
      ],
      "name": "Approval",
      "type": "event"
    },
    {
      "anonymous": false,
      "inputs": [
        {
          "indexed": false,
          "internalType": "uint32",
          "name": "period",
          "type": "uint32"
        }
      ],
      "name": "PeriodEnded",
      "type": "event"
    },
    {
      "anonymous": false,
      "inputs": [
        {
          "indexed": true,
          "internalType": "bytes32",
          "name": "role",
          "type": "bytes32"
        },
        {
          "indexed": true,
          "internalType": "bytes32",
          "name": "previousAdminRole",
          "type": "bytes32"
        },
        {
          "indexed": true,
          "internalType": "bytes32",
          "name": "newAdminRole",
          "type": "bytes32"
        }
      ],
      "name": "RoleAdminChanged",
      "type": "event"
    },
    {
      "anonymous": false,
      "inputs": [
        {
          "indexed": true,
          "internalType": "bytes32",
          "name": "role",
          "type": "bytes32"
        },
        {
          "indexed": true,
          "internalType": "address",
          "name": "account",
          "type": "address"
        },
        {
          "indexed": true,
          "internalType": "address",
          "name": "sender",
          "type": "address"
        }
      ],
      "name": "RoleGranted",
      "type": "event"
    },
    {
      "anonymous": false,
      "inputs": [
        {
          "indexed": true,
          "internalType": "bytes32",
          "name": "role",
          "type": "bytes32"
        },
        {
          "indexed": true,
          "internalType": "address",
          "name": "account",
          "type": "address"
        },
        {
          "indexed": true,
          "internalType": "address",
          "name": "sender",
          "type": "address"
        }
      ],
      "name": "RoleRevoked",
      "type": "event"
    },
    {
      "anonymous": false,
      "inputs": [
        {
          "indexed": true,
          "internalType": "address",
          "name": "from",
          "type": "address"
        },
        {
          "indexed": false,
          "internalType": "uint256",
          "name": "amount",
          "type": "uint256"
        }
      ],
      "name": "Surrendered",
      "type": "event"
    },
    {
      "anonymous": false,
      "inputs": [
        {
          "indexed": true,
          "internalType": "address",
          "name": "from",
          "type": "address"
        },
        {
          "indexed": true,
          "internalType": "address",
          "name": "to",
          "type": "address"
        },
        {
          "indexed": false,
          "internalType": "uint256",
          "name": "value",
          "type": "uint256"
        }
      ],
      "name": "Transfer",
      "type": "event"
    },
    {
      "inputs": [],
      "name": "DEFAULT_ADMIN_ROLE",
      "outputs": [
        {
          "internalType": "bytes32",
          "name": "",
          "type": "bytes32"
        }
      ],
      "stateMutability": "view",
      "type": "function"
    },
    {
      "inputs": [],
      "name": "REGULATOR_ROLE",
      "outputs": [
        {
          "internalType": "bytes32",
          "name": "",
          "type": "bytes32"
        }
      ],
      "stateMutability": "view",
      "type": "function"
    },
    {
      "inputs": [
        {
          "internalType": "address",
          "name": "to",
          "type": "address"
        },
        {
          "internalType": "uint256",
          "name": "amount",
          "type": "uint256"
        }
      ],
      "name": "allocate",
      "outputs": [],
      "stateMutability": "nonpayable",
      "type": "function"
    },
    {
      "inputs": [
        {
          "internalType": "address",
          "name": "owner",
          "type": "address"
        },
        {
          "internalType": "address",
          "name": "spender",
          "type": "address"
        }
      ],
      "name": "allowance",
      "outputs": [
        {
          "internalType": "uint256",
          "name": "",
          "type": "uint256"
        }
      ],
      "stateMutability": "view",
      "type": "function"
    },
    {
      "inputs": [
        {
          "internalType": "address",
          "name": "spender",
          "type": "address"
        },
        {
          "internalType": "uint256",
          "name": "value",
          "type": "uint256"
        }
      ],
      "name": "approve",
      "outputs": [
        {
          "internalType": "bool",
          "name": "",
          "type": "bool"
        }
      ],
      "stateMutability": "nonpayable",
      "type": "function"
    },
    {
      "inputs": [
        {
          "internalType": "address",
          "name": "account",
          "type": "address"
        }
      ],
      "name": "balanceOf",
      "outputs": [
        {
          "internalType": "uint256",
          "name": "",
          "type": "uint256"
        }
      ],
      "stateMutability": "view",
      "type": "function"
    },
    {
      "inputs": [
        {
          "internalType": "address[]",
          "name": "recipients",
          "type": "address[]"
        },
        {
          "internalType": "uint256",
          "name": "amount",
          "type": "uint256"
        }
      ],
      "name": "batchAllocate",
      "outputs": [],
      "stateMutability": "nonpayable",
      "type": "function"
    },
    {
      "inputs": [],
      "name": "decimals",
      "outputs": [
        {
          "internalType": "uint8",
          "name": "",
          "type": "uint8"
        }
      ],
      "stateMutability": "view",
      "type": "function"
    },
    {
      "inputs": [],
      "name": "endPeriod",
      "outputs": [],
      "stateMutability": "nonpayable",
      "type": "function"
    },
    {
      "inputs": [
        {
          "internalType": "address",
          "name": "account",
          "type": "address"
        }
      ],
      "name": "getCompliance",
      "outputs": [
        {
          "internalType": "uint32",
          "name": "p",
          "type": "uint32"
        },
        {
          "internalType": "uint256",
          "name": "balance",
          "type": "uint256"
        },
        {
          "internalType": "uint256",
          "name": "surrenderedAmt",
          "type": "uint256"
        }
      ],
      "stateMutability": "view",
      "type": "function"
    },
    {
      "inputs": [
        {
          "internalType": "bytes32",
          "name": "role",
          "type": "bytes32"
        }
      ],
      "name": "getRoleAdmin",
      "outputs": [
        {
          "internalType": "bytes32",
          "name": "",
          "type": "bytes32"
        }
      ],
      "stateMutability": "view",
      "type": "function"
    },
    {
      "inputs": [
        {
          "internalType": "bytes32",
          "name": "role",
          "type": "bytes32"
        },
        {
          "internalType": "address",
          "name": "account",
          "type": "address"
        }
      ],
      "name": "grantRole",
      "outputs": [],
      "stateMutability": "nonpayable",
      "type": "function"
    },
    {
      "inputs": [
        {
          "internalType": "bytes32",
          "name": "role",
          "type": "bytes32"
        },
        {
          "internalType": "address",
          "name": "account",
          "type": "address"
        }
      ],
      "name": "hasRole",
      "outputs": [
        {
          "internalType": "bool",
          "name": "",
          "type": "bool"
        }
      ],
      "stateMutability": "view",
      "type": "function"
    },
    {
      "inputs": [],
      "name": "isEnded",
      "outputs": [
        {
          "internalType": "bool",
          "name": "",
          "type": "bool"
        }
      ],
      "stateMutability": "view",
      "type": "function"
    },
    {
      "inputs": [
        {
          "internalType": "address",
          "name": "forwarder",
          "type": "address"
        }
      ],
      "name": "isTrustedForwarder",
      "outputs": [
        {
          "internalType": "bool",
          "name": "",
          "type": "bool"
        }
      ],
      "stateMutability": "view",
      "type": "function"
    },
    {
      "inputs": [],
      "name": "name",
      "outputs": [
        {
          "internalType": "string",
          "name": "",
          "type": "string"
        }
      ],
      "stateMutability": "view",
      "type": "function"
    },
    {
      "inputs": [],
      "name": "period",
      "outputs": [
        {
          "internalType": "uint32",
          "name": "",
          "type": "uint32"
        }
      ],
      "stateMutability": "view",
      "type": "function"
    },
    {
      "inputs": [
        {
          "internalType": "bytes32",
          "name": "role",
          "type": "bytes32"
        },
        {
          "internalType": "address",
          "name": "callerConfirmation",
          "type": "address"
        }
      ],
      "name": "renounceRole",
      "outputs": [],
      "stateMutability": "nonpayable",
      "type": "function"
    },
    {
      "inputs": [
        {
          "internalType": "bytes32",
          "name": "role",
          "type": "bytes32"
        },
        {
          "internalType": "address",
          "name": "account",
          "type": "address"
        }
      ],
      "name": "revokeRole",
      "outputs": [],
      "stateMutability": "nonpayable",
      "type": "function"
    },
    {
      "inputs": [
        {
          "internalType": "bytes4",
          "name": "interfaceId",
          "type": "bytes4"
        }
      ],
      "name": "supportsInterface",
      "outputs": [
        {
          "internalType": "bool",
          "name": "",
          "type": "bool"
        }
      ],
      "stateMutability": "view",
      "type": "function"
    },
    {
      "inputs": [
        {
          "internalType": "uint256",
          "name": "amount",
          "type": "uint256"
        }
      ],
      "name": "surrender",
      "outputs": [],
      "stateMutability": "nonpayable",
      "type": "function"
    },
    {
      "inputs": [
        {
          "internalType": "address",
          "name": "",
          "type": "address"
        }
      ],
      "name": "surrendered",
      "outputs": [
        {
          "internalType": "uint256",
          "name": "",
          "type": "uint256"
        }
      ],
      "stateMutability": "view",
      "type": "function"
    },
    {
      "inputs": [],
      "name": "symbol",
      "outputs": [
        {
          "internalType": "string",
          "name": "",
          "type": "string"
        }
      ],
      "stateMutability": "view",
      "type": "function"
    },
    {
      "inputs": [],
      "name": "totalSupply",
      "outputs": [
        {
          "internalType": "uint256",
          "name": "",
          "type": "uint256"
        }
      ],
      "stateMutability": "view",
      "type": "function"
    },
    {
      "inputs": [
        {
          "internalType": "address",
          "name": "to",
          "type": "address"
        },
        {
          "internalType": "uint256",
          "name": "value",
          "type": "uint256"
        }
      ],
      "name": "transfer",
      "outputs": [
        {
          "internalType": "bool",
          "name": "",
          "type": "bool"
        }
      ],
      "stateMutability": "nonpayable",
      "type": "function"
    },
    {
      "inputs": [
        {
          "internalType": "address",
          "name": "from",
          "type": "address"
        },
        {
          "internalType": "address",
          "name": "to",
          "type": "address"
        },
        {
          "internalType": "uint256",
          "name": "value",
          "type": "uint256"
        }
      ],
      "name": "transferFrom",
      "outputs": [
        {
          "internalType": "bool",
          "name": "",
          "type": "bool"
        }
      ],
      "stateMutability": "nonpayable",
      "type": "function"
    },
    {
      "inputs": [],
      "name": "trustedForwarder",
      "outputs": [
        {
          "internalType": "address",
          "name": "",
          "type": "address"
        }
      ],
      "stateMutability": "view",
      "type": "function"
    }
  ],
  "bytecode": "0x60c06040526000600660006101000a81548160ff0219169083151502179055503480156200002c57600080fd5b5060405162002f7b38038062002f7b8339818101604052810190620000529190620004b6565b806040518060400160405280601281526020017f50544241452d505520416c6c6f77616e636500000000000000000000000000008152506040518060400160405280600581526020017f50544241450000000000000000000000000000000000000000000000000000008152508160039081620000d09190620007a2565b508060049081620000e29190620007a2565b5050508073ffffffffffffffffffffffffffffffffffffffff1660808173ffffffffffffffffffffffffffffffffffffffff1681525050508163ffffffff1660a08163ffffffff1681525050620001436000801b856200018160201b60201c565b50620001767f20b5f7ac978e5d6199de06401411960dfa81d2f762655f6206bdc61d46fc19e6846200018160201b60201c565b505050505062000971565b60006200019583836200028560201b60201c565b6200027a5760016005600085815260200190815260200160002060000160008473ffffffffffffffffffffffffffffffffffffffff1673ffffffffffffffffffffffffffffffffffffffff16815260200190815260200160002060006101000a81548160ff02191690831515021790555062000216620002f060201b60201c565b73ffffffffffffffffffffffffffffffffffffffff168273ffffffffffffffffffffffffffffffffffffffff16847f2f8788117e7eff1d82e926ec794901d17c78024a50270940304540a733656f0d60405160405180910390a4600190506200027f565b600090505b92915050565b60006005600084815260200190815260200160002060000160008373ffffffffffffffffffffffffffffffffffffffff1673ffffffffffffffffffffffffffffffffffffffff16815260200190815260200160002060009054906101000a900460ff16905092915050565b6000620003026200030760201b60201c565b905090565b600080600036905090506000620003236200039260201b60201c565b90508082101580156200034357506200034233620003a960201b60201c565b5b156200037a57600036828403908092620003609392919062000893565b906200036d91906200090b565b60601c925050506200038f565b6200038a620003f060201b60201c565b925050505b90565b6000620003a4620003f860201b60201c565b905090565b6000620003bb6200040160201b60201c565b73ffffffffffffffffffffffffffffffffffffffff168273ffffffffffffffffffffffffffffffffffffffff16149050919050565b600033905090565b60006014905090565b6000608051905090565b600080fd5b600073ffffffffffffffffffffffffffffffffffffffff82169050919050565b60006200043d8262000410565b9050919050565b6200044f8162000430565b81146200045b57600080fd5b50565b6000815190506200046f8162000444565b92915050565b600063ffffffff82169050919050565b620004908162000475565b81146200049c57600080fd5b50565b600081519050620004b08162000485565b92915050565b60008060008060808587031215620004d357620004d26200040b565b5b6000620004e3878288016200045e565b9450506020620004f6878288016200045e565b935050604062000509878288016200049f565b92505060606200051c878288016200045e565b91505092959194509250565b600081519050919050565b7f4e487b7100000000000000000000000000000000000000000000000000000000600052604160045260246000fd5b7f4e487b7100000000000000000000000000000000000000000000000000000000600052602260045260246000fd5b60006002820490506001821680620005aa57607f821691505b602082108103620005c057620005bf62000562565b5b50919050565b60008190508160005260206000209050919050565b60006020601f8301049050919050565b600082821b905092915050565b6000600883026200062a7fffffffffffffffffffffffffffffffffffffffffffffffffffffffffffffffff82620005eb565b620006368683620005eb565b95508019841693508086168417925050509392505050565b6000819050919050565b6000819050919050565b6000620006836200067d62000677846200064e565b62000658565b6200064e565b9050919050565b6000819050919050565b6200069f8362000662565b620006b7620006ae826200068a565b848454620005f8565b825550505050565b600090565b620006ce620006bf565b620006db81848462000694565b505050565b5b818110156200070357620006f7600082620006c4565b600181019050620006e1565b5050565b601f82111562000752576200071c81620005c6565b6200072784620005db565b8101602085101562000737578190505b6200074f6200074685620005db565b830182620006e0565b50505b505050565b600082821c905092915050565b6000620007776000198460080262000757565b1980831691505092915050565b600062000792838362000764565b9150826002028217905092915050565b620007ad8262000528565b67ffffffffffffffff811115620007c957620007c862000533565b5b620007d5825462000591565b620007e282828562000707565b600060209050601f8311600181146200081a576000841562000805578287015190505b62000811858262000784565b86555062000881565b601f1984166200082a86620005c6565b60005b8281101562000854578489015182556001820191506020850194506020810190506200082d565b8683101562000874578489015162000870601f89168262000764565b8355505b6001600288020188555050505b505050505050565b600080fd5b600080fd5b60008085851115620008aa57620008a962000889565b5b83861115620008be57620008bd6200088e565b5b6001850283019150848603905094509492505050565b600082905092915050565b60007fffffffffffffffffffffffffffffffffffffffff00000000000000000000000082169050919050565b6000620009198383620008d4565b82620009268135620008df565b925060148210156200096957620009647fffffffffffffffffffffffffffffffffffffffff00000000000000000000000083601403600802620005eb565b831692505b505092915050565b60805160a0516125d6620009a560003960008181610694015281816108f50152610d0a0152600061097801526125d66000f3fe608060405234801561001057600080fd5b50600436106101a95760003560e01c80635faa65ff116100f9578063a9059cbb11610097578063dd62ed3e11610071578063dd62ed3e146104fa578063ef78d4fd1461052a578063f93278b514610548578063fd61d10b14610564576101a9565b8063a9059cbb14610492578063b78b52df146104c2578063d547741f146104de576101a9565b806391d14854116100d357806391d148541461040857806395d89b4114610438578063a217fddf14610456578063a4fd6f5614610474576101a9565b80635faa65ff146103b057806370a08231146103ba5780637da0a877146103ea576101a9565b806323073b5d116101665780632f2ff15d116101405780632f2ff15d1461032a578063313ce5671461034657806336568abe14610364578063572b6c0514610380576101a9565b806323073b5d1461029857806323b872dd146102ca578063248a9ca3146102fa576101a9565b806301ffc9a7146101ae57806306fdde03146101de578063095ea7b3146101fc578063144bf5891461022c5780631586f91b1461024a57806318160ddd1461027a575b600080fd5b6101c860048036038101906101c39190611b32565b610580565b6040516101d59190611b7a565b60405180910390f35b6101e6610592565b6040516101f39190611c25565b60405180910390f35b61021660048036038101906102119190611cdb565b610624565b6040516102239190611b7a565b60405180910390f35b610234610647565b6040516102419190611d34565b60405180910390f35b610264600480360381019061025f9190611d4f565b61066b565b6040516102719190611d8b565b60405180910390f35b610282610683565b60405161028f9190611d8b565b60405180910390f35b6102b260048036038101906102ad9190611d4f565b61068d565b6040516102c193929190611dc5565b60405180910390f35b6102e460048036038101906102df9190611dfc565b610709565b6040516102f19190611b7a565b60405180910390f35b610314600480360381019061030f9190611e7b565b610738565b6040516103219190611d34565b60405180910390f35b610344600480360381019061033f9190611ea8565b610758565b005b61034e61077a565b60405161035b9190611f04565b60405180910390f35b61037e60048036038101906103799190611ea8565b610783565b005b61039a60048036038101906103959190611d4f565b6107fe565b6040516103a79190611b7a565b60405180910390f35b6103b861083d565b005b6103d460048036038101906103cf9190611d4f565b61092c565b6040516103e19190611d8b565b60405180910390f35b6103f2610974565b6040516103ff9190611f2e565b60405180910390f35b610422600480360381019061041d9190611ea8565b61099c565b60405161042f9190611b7a565b60405180910390f35b610440610a07565b60405161044d9190611c25565b60405180910390f35b61045e610a99565b60405161046b9190611d34565b60405180910390f35b61047c610aa0565b6040516104899190611b7a565b60405180910390f35b6104ac60048036038101906104a79190611cdb565b610ab3565b6040516104b99190611b7a565b60405180910390f35b6104dc60048036038101906104d79190611cdb565b610ad6565b005b6104f860048036038101906104f39190611ea8565b610c5f565b005b610514600480360381019061050f9190611f49565b610c81565b6040516105219190611d8b565b60405180910390f35b610532610d08565b60405161053f9190611f89565b60405180910390f35b610562600480360381019061055d9190612009565b610d2c565b005b61057e60048036038101906105799190612069565b610f11565b005b600061058b8261106c565b9050919050565b6060600380546105a1906120c5565b80601f01602080910402602001604051908101604052809291908181526020018280546105cd906120c5565b801561061a5780601f106105ef5761010080835404028352916020019161061a565b820191906000526020600020905b8154815290600101906020018083116105fd57829003601f168201915b5050505050905090565b60008061062f6110e6565b905061063c8185856110f5565b600191505092915050565b7f20b5f7ac978e5d6199de06401411960dfa81d2f762655f6206bdc61d46fc19e681565b60076020528060005260406000206000915090505481565b6000600254905090565b60008060007f00000000000000000000000000000000000000000000000000000000000000006106bc8561092c565b600760008773ffffffffffffffffffffffffffffffffffffffff1673ffffffffffffffffffffffffffffffffffffffff168152602001908152602001600020549250925092509193909250565b6000806107146110e6565b9050610721858285611107565b61072c85858561119c565b60019150509392505050565b600060056000838152602001908152602001600020600101549050919050565b61076182610738565b61076a81611290565b61077483836112a4565b50505050565b60006012905090565b61078b6110e6565b73ffffffffffffffffffffffffffffffffffffffff168173ffffffffffffffffffffffffffffffffffffffff16146107ef576040517f6697b23200000000000000000000000000000000000000000000000000000000815260040160405180910390fd5b6107f98282611396565b505050565b6000610808610974565b73ffffffffffffffffffffffffffffffffffffffff168273ffffffffffffffffffffffffffffffffffffffff16149050919050565b7f20b5f7ac978e5d6199de06401411960dfa81d2f762655f6206bdc61d46fc19e661086781611290565b600660009054906101000a900460ff16156108b7576040517f08c379a00000000000000000000000000000000000000000000000000000000081526004016108ae90612142565b60405180910390fd5b6001600660006101000a81548160ff0219169083151502179055507fc66aa3c8b4cc617360e764cf591350c8e8a49c0d2b5ef155cc54cc9853df96547f00000000000000000000000000000000000000000000000000000000000000006040516109219190611f89565b60405180910390a150565b60008060008373ffffffffffffffffffffffffffffffffffffffff1673ffffffffffffffffffffffffffffffffffffffff168152602001908152602001600020549050919050565b60007f0000000000000000000000000000000000000000000000000000000000000000905090565b60006005600084815260200190815260200160002060000160008373ffffffffffffffffffffffffffffffffffffffff1673ffffffffffffffffffffffffffffffffffffffff16815260200190815260200160002060009054906101000a900460ff16905092915050565b606060048054610a16906120c5565b80601f0160208091040260200160405190810160405280929190818152602001828054610a42906120c5565b8015610a8f5780601f10610a6457610100808354040283529160200191610a8f565b820191906000526020600020905b815481529060010190602001808311610a7257829003601f168201915b5050505050905090565b6000801b81565b600660009054906101000a900460ff1681565b600080610abe6110e6565b9050610acb81858561119c565b600191505092915050565b7f20b5f7ac978e5d6199de06401411960dfa81d2f762655f6206bdc61d46fc19e6610b0081611290565b600660009054906101000a900460ff1615610b50576040517f08c379a0000000000000000000000000000000000000000000000000000000008152600401610b47906121ae565b60405180910390fd5b600073ffffffffffffffffffffffffffffffffffffffff168373ffffffffffffffffffffffffffffffffffffffff1603610bbf576040517f08c379a0000000000000000000000000000000000000000000000000000000008152600401610bb69061221a565b60405180910390fd5b60008211610c02576040517f08c379a0000000000000000000000000000000000000000000000000000000008152600401610bf990612286565b60405180910390fd5b610c0c8383611489565b8273ffffffffffffffffffffffffffffffffffffffff167f472f36e28bb47edb7c69c9e2ac00a77c66b505df54e9c818ac57110b0629e8c383604051610c529190611d8b565b60405180910390a2505050565b610c6882610738565b610c7181611290565b610c7b8383611396565b50505050565b6000600160008473ffffffffffffffffffffffffffffffffffffffff1673ffffffffffffffffffffffffffffffffffffffff16815260200190815260200160002060008373ffffffffffffffffffffffffffffffffffffffff1673ffffffffffffffffffffffffffffffffffffffff16815260200190815260200160002054905092915050565b7f000000000000000000000000000000000000000000000000000000000000000081565b7f20b5f7ac978e5d6199de06401411960dfa81d2f762655f6206bdc61d46fc19e6610d5681611290565b600660009054906101000a900460ff1615610da6576040517f08c379a0000000000000000000000000000000000000000000000000000000008152600401610d9d906121ae565b60405180910390fd5b60008211610de9576040517f08c379a0000000000000000000000000000000000000000000000000000000008152600401610de090612286565b60405180910390fd5b60008484905011610e2f576040517f08c379a0000000000000000000000000000000000000000000000000000000008152600401610e26906122f2565b60405180910390fd5b60005b84849050811015610f0a576000858583818110610e5257610e51612312565b5b9050602002016020810190610e679190611d4f565b9050600073ffffffffffffffffffffffffffffffffffffffff168173ffffffffffffffffffffffffffffffffffffffff1614610ef657610ea78185611489565b8073ffffffffffffffffffffffffffffffffffffffff167f472f36e28bb47edb7c69c9e2ac00a77c66b505df54e9c818ac57110b0629e8c385604051610eed9190611d8b565b60405180910390a25b508080610f0290612370565b915050610e32565b5050505050565b60008111610f54576040517f08c379a0000000000000000000000000000000000000000000000000000000008152600401610f4b90612286565b60405180910390fd5b80610f65610f606110e6565b61092c565b1015610fa6576040517f08c379a0000000000000000000000000000000000000000000000000000000008152600401610f9d90612404565b60405180910390fd5b610fb7610fb16110e6565b8261150b565b8060076000610fc46110e6565b73ffffffffffffffffffffffffffffffffffffffff1673ffffffffffffffffffffffffffffffffffffffff168152602001908152602001600020600082825461100d9190612424565b9250508190555061101c6110e6565b73ffffffffffffffffffffffffffffffffffffffff167faf0940ae03ab6ebed23efcabc6968bf05f3f50d29eb2f59dd577d1a772ddb8c7826040516110619190611d8b565b60405180910390a250565b60007f7965db0b000000000000000000000000000000000000000000000000000000007bffffffffffffffffffffffffffffffffffffffffffffffffffffffff1916827bffffffffffffffffffffffffffffffffffffffffffffffffffffffff191614806110df57506110de8261158d565b5b9050919050565b60006110f06115f7565b905090565b6111028383836001611663565b505050565b60006111138484610c81565b90507fffffffffffffffffffffffffffffffffffffffffffffffffffffffffffffffff8110156111965781811015611186578281836040517ffb8f41b200000000000000000000000000000000000000000000000000000000815260040161117d93929190612458565b60405180910390fd5b61119584848484036000611663565b5b50505050565b600073ffffffffffffffffffffffffffffffffffffffff168373ffffffffffffffffffffffffffffffffffffffff160361120e5760006040517f96c6fd1e0000000000000000000000000000000000000000000000000000000081526004016112059190611f2e565b60405180910390fd5b600073ffffffffffffffffffffffffffffffffffffffff168273ffffffffffffffffffffffffffffffffffffffff16036112805760006040517fec442f050000000000000000000000000000000000000000000000000000000081526004016112779190611f2e565b60405180910390fd5b61128b83838361183a565b505050565b6112a18161129c6110e6565b611a5f565b50565b60006112b0838361099c565b61138b5760016005600085815260200190815260200160002060000160008473ffffffffffffffffffffffffffffffffffffffff1673ffffffffffffffffffffffffffffffffffffffff16815260200190815260200160002060006101000a81548160ff0219169083151502179055506113286110e6565b73ffffffffffffffffffffffffffffffffffffffff168273ffffffffffffffffffffffffffffffffffffffff16847f2f8788117e7eff1d82e926ec794901d17c78024a50270940304540a733656f0d60405160405180910390a460019050611390565b600090505b92915050565b60006113a2838361099c565b1561147e5760006005600085815260200190815260200160002060000160008473ffffffffffffffffffffffffffffffffffffffff1673ffffffffffffffffffffffffffffffffffffffff16815260200190815260200160002060006101000a81548160ff02191690831515021790555061141b6110e6565b73ffffffffffffffffffffffffffffffffffffffff168273ffffffffffffffffffffffffffffffffffffffff16847ff6391f5c32d9c69d2a47ea670b442974b53935d1edc7fd64eb21e047a839171b60405160405180910390a460019050611483565b600090505b92915050565b600073ffffffffffffffffffffffffffffffffffffffff168273ffffffffffffffffffffffffffffffffffffffff16036114fb5760006040517fec442f050000000000000000000000000000000000000000000000000000000081526004016114f29190611f2e565b60405180910390fd5b6115076000838361183a565b5050565b600073ffffffffffffffffffffffffffffffffffffffff168273ffffffffffffffffffffffffffffffffffffffff160361157d5760006040517f96c6fd1e0000000000000000000000000000000000000000000000000000000081526004016115749190611f2e565b60405180910390fd5b6115898260008361183a565b5050565b60007f01ffc9a7000000000000000000000000000000000000000000000000000000007bffffffffffffffffffffffffffffffffffffffffffffffffffffffff1916827bffffffffffffffffffffffffffffffffffffffffffffffffffffffff1916149050919050565b60008060003690509050600061160b611ab0565b90508082101580156116225750611621336107fe565b5b156116535760003682840390809261163c93929190612499565b906116479190612518565b60601c92505050611660565b61165b611abf565b925050505b90565b600073ffffffffffffffffffffffffffffffffffffffff168473ffffffffffffffffffffffffffffffffffffffff16036116d55760006040517fe602df050000000000000000000000000000000000000000000000000000000081526004016116cc9190611f2e565b60405180910390fd5b600073ffffffffffffffffffffffffffffffffffffffff168373ffffffffffffffffffffffffffffffffffffffff16036117475760006040517f94280d6200000000000000000000000000000000000000000000000000000000815260040161173e9190611f2e565b60405180910390fd5b81600160008673ffffffffffffffffffffffffffffffffffffffff1673ffffffffffffffffffffffffffffffffffffffff16815260200190815260200160002060008573ffffffffffffffffffffffffffffffffffffffff1673ffffffffffffffffffffffffffffffffffffffff168152602001908152602001600020819055508015611834578273ffffffffffffffffffffffffffffffffffffffff168473ffffffffffffffffffffffffffffffffffffffff167f8c5be1e5ebec7d5bd14f71427d1e84f3dd0314c0f7b2291e5b200ac8c7c3b9258460405161182b9190611d8b565b60405180910390a35b50505050565b600073ffffffffffffffffffffffffffffffffffffffff168373ffffffffffffffffffffffffffffffffffffffff160361188c5780600260008282546118809190612424565b9250508190555061195f565b60008060008573ffffffffffffffffffffffffffffffffffffffff1673ffffffffffffffffffffffffffffffffffffffff16815260200190815260200160002054905081811015611918578381836040517fe450d38c00000000000000000000000000000000000000000000000000000000815260040161190f93929190612458565b60405180910390fd5b8181036000808673ffffffffffffffffffffffffffffffffffffffff1673ffffffffffffffffffffffffffffffffffffffff16815260200190815260200160002081905550505b600073ffffffffffffffffffffffffffffffffffffffff168273ffffffffffffffffffffffffffffffffffffffff16036119a857806002600082825403925050819055506119f5565b806000808473ffffffffffffffffffffffffffffffffffffffff1673ffffffffffffffffffffffffffffffffffffffff168152602001908152602001600020600082825401925050819055505b8173ffffffffffffffffffffffffffffffffffffffff168373ffffffffffffffffffffffffffffffffffffffff167fddf252ad1be2c89b69c2b068fc378daa952ba7f163c4a11628f55a4df523b3ef83604051611a529190611d8b565b60405180910390a3505050565b611a69828261099c565b611aac5780826040517fe2517d3f000000000000000000000000000000000000000000000000000000008152600401611aa3929190612577565b60405180910390fd5b5050565b6000611aba611ac7565b905090565b600033905090565b60006014905090565b600080fd5b600080fd5b60007fffffffff0000000000000000000000000000000000000000000000000000000082169050919050565b611b0f81611ada565b8114611b1a57600080fd5b50565b600081359050611b2c81611b06565b92915050565b600060208284031215611b4857611b47611ad0565b5b6000611b5684828501611b1d565b91505092915050565b60008115159050919050565b611b7481611b5f565b82525050565b6000602082019050611b8f6000830184611b6b565b92915050565b600081519050919050565b600082825260208201905092915050565b60005b83811015611bcf578082015181840152602081019050611bb4565b60008484015250505050565b6000601f19601f8301169050919050565b6000611bf782611b95565b611c018185611ba0565b9350611c11818560208601611bb1565b611c1a81611bdb565b840191505092915050565b60006020820190508181036000830152611c3f8184611bec565b905092915050565b600073ffffffffffffffffffffffffffffffffffffffff82169050919050565b6000611c7282611c47565b9050919050565b611c8281611c67565b8114611c8d57600080fd5b50565b600081359050611c9f81611c79565b92915050565b6000819050919050565b611cb881611ca5565b8114611cc357600080fd5b50565b600081359050611cd581611caf565b92915050565b60008060408385031215611cf257611cf1611ad0565b5b6000611d0085828601611c90565b9250506020611d1185828601611cc6565b9150509250929050565b6000819050919050565b611d2e81611d1b565b82525050565b6000602082019050611d496000830184611d25565b92915050565b600060208284031215611d6557611d64611ad0565b5b6000611d7384828501611c90565b91505092915050565b611d8581611ca5565b82525050565b6000602082019050611da06000830184611d7c565b92915050565b600063ffffffff82169050919050565b611dbf81611da6565b82525050565b6000606082019050611dda6000830186611db6565b611de76020830185611d7c565b611df46040830184611d7c565b949350505050565b600080600060608486031215611e1557611e14611ad0565b5b6000611e2386828701611c90565b9350506020611e3486828701611c90565b9250506040611e4586828701611cc6565b9150509250925092565b611e5881611d1b565b8114611e6357600080fd5b50565b600081359050611e7581611e4f565b92915050565b600060208284031215611e9157611e90611ad0565b5b6000611e9f84828501611e66565b91505092915050565b60008060408385031215611ebf57611ebe611ad0565b5b6000611ecd85828601611e66565b9250506020611ede85828601611c90565b9150509250929050565b600060ff82169050919050565b611efe81611ee8565b82525050565b6000602082019050611f196000830184611ef5565b92915050565b611f2881611c67565b82525050565b6000602082019050611f436000830184611f1f565b92915050565b60008060408385031215611f6057611f5f611ad0565b5b6000611f6e85828601611c90565b9250506020611f7f85828601611c90565b9150509250929050565b6000602082019050611f9e6000830184611db6565b92915050565b600080fd5b600080fd5b600080fd5b60008083601f840112611fc957611fc8611fa4565b5b8235905067ffffffffffffffff811115611fe657611fe5611fa9565b5b60208301915083602082028301111561200257612001611fae565b5b9250929050565b60008060006040848603121561202257612021611ad0565b5b600084013567ffffffffffffffff8111156120405761203f611ad5565b5b61204c86828701611fb3565b9350935050602061205f86828701611cc6565b9150509250925092565b60006020828403121561207f5761207e611ad0565b5b600061208d84828501611cc6565b91505092915050565b7f4e487b7100000000000000000000000000000000000000000000000000000000600052602260045260246000fd5b600060028204905060018216806120dd57607f821691505b6020821081036120f0576120ef612096565b5b50919050565b7f616c726561647920656e64656400000000000000000000000000000000000000600082015250565b600061212c600d83611ba0565b9150612137826120f6565b602082019050919050565b6000602082019050818103600083015261215b8161211f565b9050919050565b7f706572696f6420656e6465640000000000000000000000000000000000000000600082015250565b6000612198600c83611ba0565b91506121a382612162565b602082019050919050565b600060208201905081810360008301526121c78161218b565b9050919050565b7f746f3d3000000000000000000000000000000000000000000000000000000000600082015250565b6000612204600483611ba0565b915061220f826121ce565b602082019050919050565b60006020820190508181036000830152612233816121f7565b9050919050565b7f616d6f756e743d30000000000000000000000000000000000000000000000000600082015250565b6000612270600883611ba0565b915061227b8261223a565b602082019050919050565b6000602082019050818103600083015261229f81612263565b9050919050565b7f6e6f20726563697069656e747300000000000000000000000000000000000000600082015250565b60006122dc600d83611ba0565b91506122e7826122a6565b602082019050919050565b6000602082019050818103600083015261230b816122cf565b9050919050565b7f4e487b7100000000000000000000000000000000000000000000000000000000600052603260045260246000fd5b7f4e487b7100000000000000000000000000000000000000000000000000000000600052601160045260246000fd5b600061237b82611ca5565b91507fffffffffffffffffffffffffffffffffffffffffffffffffffffffffffffffff82036123ad576123ac612341565b5b600182019050919050565b7f696e73756666696369656e740000000000000000000000000000000000000000600082015250565b60006123ee600c83611ba0565b91506123f9826123b8565b602082019050919050565b6000602082019050818103600083015261241d816123e1565b9050919050565b600061242f82611ca5565b915061243a83611ca5565b925082820190508082111561245257612451612341565b5b92915050565b600060608201905061246d6000830186611f1f565b61247a6020830185611d7c565b6124876040830184611d7c565b949350505050565b600080fd5b600080fd5b600080858511156124ad576124ac61248f565b5b838611156124be576124bd612494565b5b6001850283019150848603905094509492505050565b600082905092915050565b60007fffffffffffffffffffffffffffffffffffffffff00000000000000000000000082169050919050565b600082821b905092915050565b600061252483836124d4565b8261252f81356124df565b9250601482101561256f5761256a7fffffffffffffffffffffffffffffffffffffffff0000000000000000000000008360140360080261250b565b831692505b505092915050565b600060408201905061258c6000830185611f1f565b6125996020830184611d25565b939250505056fea2646970667358221220f3e5d1b8ec1c426d10a934aa6e6e55d413ba9662fbf0457e8607410819e7fe4764736f6c63430008140033",
  "linkReferences": {},
  "deployedLinkReferences": {}
}