{
  "_format": "hh-sol-artifact-1",
  "contractName": "PTBAEAllowanceToken",
  "sourceName": "contracts/PTBAEAllowanceToken.sol",
  "abi": [
    {
      "inputs": [
        {
          "internalType": "address",
          "name": "admin",
          "type": "address"
        },
        {
          "internalType": "address",
          "name": "regulator",
          "type": "address"
        },
        {
          "internalType": "uint32",
          "name": "_period",
          "type": "uint32"
        },
        {
          "internalType": "address",
          "name": "trustedForwarder",
          "type": "address"
        },
        {
          "internalType": "address",
          "name": "_oracle",
          "type": "address"
        }
      ],
      "stateMutability": "nonpayable",
      "type": "constructor"
    },
    {
      "inputs": [],
      "name": "AccessControlBadConfirmation",
      "type": "error"
    },
    {
      "inputs": [
        {
          "internalType": "address",
          "name": "account",
          "type": "address"
        },
        {
          "internalType": "bytes32",
          "name": "neededRole",
          "type": "bytes32"
        }
      ],
      "name": "AccessControlUnauthorizedAccount",
      "type": "error"
    },
    {
      "inputs": [
        {
          "internalType": "address",
          "name": "spender",
          "type": "address"
        },
        {
          "internalType": "uint256",
          "name": "allowance",
          "type": "uint256"
        },
        {
          "internalType": "uint256",
          "name": "needed",
          "type": "uint256"
        }
      ],
      "name": "ERC20InsufficientAllowance",
      "type": "error"
    },
    {
      "inputs": [
        {
          "internalType": "address",
          "name": "sender",
          "type": "address"
        },
        {
          "internalType": "uint256",
          "name": "balance",
          "type": "uint256"
        },
        {
          "internalType": "uint256",
          "name": "needed",
          "type": "uint256"
        }
      ],
      "name": "ERC20InsufficientBalance",
      "type": "error"
    },
    {
      "inputs": [
        {
          "internalType": "address",
          "name": "approver",
          "type": "address"
        }
      ],
      "name": "ERC20InvalidApprover",
      "type": "error"
    },
    {
      "inputs": [
        {
          "internalType": "address",
          "name": "receiver",
          "type": "address"
        }
      ],
      "name": "ERC20InvalidReceiver",
      "type": "error"
    },
    {
      "inputs": [
        {
          "internalType": "address",
          "name": "sender",
          "type": "address"
        }
      ],
      "name": "ERC20InvalidSender",
      "type": "error"
    },
    {
      "inputs": [
        {
          "internalType": "address",
          "name": "spender",
          "type": "address"
        }
      ],
      "name": "ERC20InvalidSpender",
      "type": "error"
    },
    {
      "anonymous": false,
      "inputs": [
        {
          "indexed": true,
          "internalType": "address",
          "name": "to",
          "type": "address"
        },
        {
          "indexed": false,
          "internalType": "uint256",
          "name": "amount",
          "type": "uint256"
        }
      ],
      "name": "Allocated",
      "type": "event"
    },
    {
      "anonymous": false,
      "inputs": [
        {
          "indexed": true,
          "internalType": "address",
          "name": "owner",
          "type": "address"
        },
        {
          "indexed": true,
          "internalType": "address",
          "name": "spender",
          "type": "address"
        },
        {
          "indexed": false,
          "internalType": "uint256",
          "name": "value",
          "type": "uint256"
        }
      ],
      "name": "Approval",
      "type": "event"
    },
    {
      "anonymous": false,
      "inputs": [
        {
          "indexed": true,
          "internalType": "address",
          "name": "user",
          "type": "address"
        },
        {
          "indexed": false,
          "internalType": "enum PTBAEAllowanceToken.ComplianceStatus",
          "name": "status",
          "type": "uint8"
        }
      ],
      "name": "ComplianceUpdated",
      "type": "event"
    },
    {
      "anonymous": false,
      "inputs": [
        {
          "indexed": true,
          "internalType": "bytes32",
          "name": "role",
          "type": "bytes32"
        },
        {
          "indexed": true,
          "internalType": "bytes32",
          "name": "previousAdminRole",
          "type": "bytes32"
        },
        {
          "indexed": true,
          "internalType": "bytes32",
          "name": "newAdminRole",
          "type": "bytes32"
        }
      ],
      "name": "RoleAdminChanged",
      "type": "event"
    },
    {
      "anonymous": false,
      "inputs": [
        {
          "indexed": true,
          "internalType": "bytes32",
          "name": "role",
          "type": "bytes32"
        },
        {
          "indexed": true,
          "internalType": "address",
          "name": "account",
          "type": "address"
        },
        {
          "indexed": true,
          "internalType": "address",
          "name": "sender",
          "type": "address"
        }
      ],
      "name": "RoleGranted",
      "type": "event"
    },
    {
      "anonymous": false,
      "inputs": [
        {
          "indexed": true,
          "internalType": "bytes32",
          "name": "role",
          "type": "bytes32"
        },
        {
          "indexed": true,
          "internalType": "address",
          "name": "account",
          "type": "address"
        },
        {
          "indexed": true,
          "internalType": "address",
          "name": "sender",
          "type": "address"
        }
      ],
      "name": "RoleRevoked",
      "type": "event"
    },
    {
      "anonymous": false,
      "inputs": [
        {
          "indexed": false,
          "internalType": "uint32",
          "name": "period",
          "type": "uint32"
        },
        {
          "indexed": false,
          "internalType": "enum PTBAEAllowanceToken.PeriodStatus",
          "name": "status",
          "type": "uint8"
        }
      ],
      "name": "StatusChanged",
      "type": "event"
    },
    {
      "anonymous": false,
      "inputs": [
        {
          "indexed": true,
          "internalType": "address",
          "name": "from",
          "type": "address"
        },
        {
          "indexed": false,
          "internalType": "uint256",
          "name": "amount",
          "type": "uint256"
        },
        {
          "indexed": false,
          "internalType": "uint256",
          "name": "remaining",
          "type": "uint256"
        }
      ],
      "name": "Surrendered",
      "type": "event"
    },
    {
      "anonymous": false,
      "inputs": [
        {
          "indexed": true,
          "internalType": "address",
          "name": "from",
          "type": "address"
        },
        {
          "indexed": true,
          "internalType": "address",
          "name": "to",
          "type": "address"
        },
        {
          "indexed": false,
          "internalType": "uint256",
          "name": "value",
          "type": "uint256"
        }
      ],
      "name": "Transfer",
      "type": "event"
    },
    {
      "inputs": [],
      "name": "DEFAULT_ADMIN_ROLE",
      "outputs": [
        {
          "internalType": "bytes32",
          "name": "",
          "type": "bytes32"
        }
      ],
      "stateMutability": "view",
      "type": "function"
    },
    {
      "inputs": [],
      "name": "REGULATOR_ROLE",
      "outputs": [
        {
          "internalType": "bytes32",
          "name": "",
          "type": "bytes32"
        }
      ],
      "stateMutability": "view",
      "type": "function"
    },
    {
      "inputs": [
        {
          "internalType": "address",
          "name": "to",
          "type": "address"
        },
        {
          "internalType": "uint256",
          "name": "amount",
          "type": "uint256"
        }
      ],
      "name": "allocate",
      "outputs": [],
      "stateMutability": "nonpayable",
      "type": "function"
    },
    {
      "inputs": [
        {
          "internalType": "address",
          "name": "owner",
          "type": "address"
        },
        {
          "internalType": "address",
          "name": "spender",
          "type": "address"
        }
      ],
      "name": "allowance",
      "outputs": [
        {
          "internalType": "uint256",
          "name": "",
          "type": "uint256"
        }
      ],
      "stateMutability": "view",
      "type": "function"
    },
    {
      "inputs": [
        {
          "internalType": "address",
          "name": "spender",
          "type": "address"
        },
        {
          "internalType": "uint256",
          "name": "value",
          "type": "uint256"
        }
      ],
      "name": "approve",
      "outputs": [
        {
          "internalType": "bool",
          "name": "",
          "type": "bool"
        }
      ],
      "stateMutability": "nonpayable",
      "type": "function"
    },
    {
      "inputs": [
        {
          "internalType": "address",
          "name": "account",
          "type": "address"
        }
      ],
      "name": "balanceOf",
      "outputs": [
        {
          "internalType": "uint256",
          "name": "",
          "type": "uint256"
        }
      ],
      "stateMutability": "view",
      "type": "function"
    },
    {
      "inputs": [
        {
          "internalType": "address[]",
          "name": "recipients",
          "type": "address[]"
        },
        {
          "internalType": "uint256",
          "name": "amount",
          "type": "uint256"
        }
      ],
      "name": "batchAllocate",
      "outputs": [],
      "stateMutability": "nonpayable",
      "type": "function"
    },
    {
      "inputs": [
        {
          "internalType": "address",
          "name": "",
          "type": "address"
        }
      ],
      "name": "complianceStatus",
      "outputs": [
        {
          "internalType": "enum PTBAEAllowanceToken.ComplianceStatus",
          "name": "",
          "type": "uint8"
        }
      ],
      "stateMutability": "view",
      "type": "function"
    },
    {
      "inputs": [],
      "name": "decimals",
      "outputs": [
        {
          "internalType": "uint8",
          "name": "",
          "type": "uint8"
        }
      ],
      "stateMutability": "view",
      "type": "function"
    },
    {
      "inputs": [],
      "name": "finalize",
      "outputs": [],
      "stateMutability": "nonpayable",
      "type": "function"
    },
    {
      "inputs": [
        {
          "internalType": "address",
          "name": "account",
          "type": "address"
        }
      ],
      "name": "getCompliance",
      "outputs": [
        {
          "internalType": "uint32",
          "name": "p",
          "type": "uint32"
        },
        {
          "internalType": "uint256",
          "name": "balance",
          "type": "uint256"
        },
        {
          "internalType": "uint256",
          "name": "surrenderedAmt",
          "type": "uint256"
        },
        {
          "internalType": "uint256",
          "name": "verifiedEmission",
          "type": "uint256"
        },
        {
          "internalType": "uint256",
          "name": "debt",
          "type": "uint256"
        },
        {
          "internalType": "enum PTBAEAllowanceToken.ComplianceStatus",
          "name": "cStatus",
          "type": "uint8"
        }
      ],
      "stateMutability": "view",
      "type": "function"
    },
    {
      "inputs": [
        {
          "internalType": "bytes32",
          "name": "role",
          "type": "bytes32"
        }
      ],
      "name": "getRoleAdmin",
      "outputs": [
        {
          "internalType": "bytes32",
          "name": "",
          "type": "bytes32"
        }
      ],
      "stateMutability": "view",
      "type": "function"
    },
    {
      "inputs": [
        {
          "internalType": "bytes32",
          "name": "role",
          "type": "bytes32"
        },
        {
          "internalType": "address",
          "name": "account",
          "type": "address"
        }
      ],
      "name": "grantRole",
      "outputs": [],
      "stateMutability": "nonpayable",
      "type": "function"
    },
    {
      "inputs": [
        {
          "internalType": "bytes32",
          "name": "role",
          "type": "bytes32"
        },
        {
          "internalType": "address",
          "name": "account",
          "type": "address"
        }
      ],
      "name": "hasRole",
      "outputs": [
        {
          "internalType": "bool",
          "name": "",
          "type": "bool"
        }
      ],
      "stateMutability": "view",
      "type": "function"
    },
    {
      "inputs": [
        {
          "internalType": "address",
          "name": "",
          "type": "address"
        }
      ],
      "name": "hasSurrendered",
      "outputs": [
        {
          "internalType": "bool",
          "name": "",
          "type": "bool"
        }
      ],
      "stateMutability": "view",
      "type": "function"
    },
    {
      "inputs": [
        {
          "internalType": "address",
          "name": "forwarder",
          "type": "address"
        }
      ],
      "name": "isTrustedForwarder",
      "outputs": [
        {
          "internalType": "bool",
          "name": "",
          "type": "bool"
        }
      ],
      "stateMutability": "view",
      "type": "function"
    },
    {
      "inputs": [],
      "name": "name",
      "outputs": [
        {
          "internalType": "string",
          "name": "",
          "type": "string"
        }
      ],
      "stateMutability": "view",
      "type": "function"
    },
    {
      "inputs": [],
      "name": "oracle",
      "outputs": [
        {
          "internalType": "contract IMRVOracle",
          "name": "",
          "type": "address"
        }
      ],
      "stateMutability": "view",
      "type": "function"
    },
    {
      "inputs": [],
      "name": "period",
      "outputs": [
        {
          "internalType": "uint32",
          "name": "",
          "type": "uint32"
        }
      ],
      "stateMutability": "view",
      "type": "function"
    },
    {
      "inputs": [
        {
          "internalType": "bytes32",
          "name": "role",
          "type": "bytes32"
        },
        {
          "internalType": "address",
          "name": "callerConfirmation",
          "type": "address"
        }
      ],
      "name": "renounceRole",
      "outputs": [],
      "stateMutability": "nonpayable",
      "type": "function"
    },
    {
      "inputs": [
        {
          "internalType": "bytes32",
          "name": "role",
          "type": "bytes32"
        },
        {
          "internalType": "address",
          "name": "account",
          "type": "address"
        }
      ],
      "name": "revokeRole",
      "outputs": [],
      "stateMutability": "nonpayable",
      "type": "function"
    },
    {
      "inputs": [],
      "name": "setAudit",
      "outputs": [],
      "stateMutability": "nonpayable",
      "type": "function"
    },
    {
      "inputs": [],
      "name": "status",
      "outputs": [
        {
          "internalType": "enum PTBAEAllowanceToken.PeriodStatus",
          "name": "",
          "type": "uint8"
        }
      ],
      "stateMutability": "view",
      "type": "function"
    },
    {
      "inputs": [
        {
          "internalType": "bytes4",
          "name": "interfaceId",
          "type": "bytes4"
        }
      ],
      "name": "supportsInterface",
      "outputs": [
        {
          "internalType": "bool",
          "name": "",
          "type": "bool"
        }
      ],
      "stateMutability": "view",
      "type": "function"
    },
    {
      "inputs": [],
      "name": "surrender",
      "outputs": [],
      "stateMutability": "nonpayable",
      "type": "function"
    },
    {
      "inputs": [
        {
          "internalType": "address",
          "name": "",
          "type": "address"
        }
      ],
      "name": "surrendered",
      "outputs": [
        {
          "internalType": "uint256",
          "name": "",
          "type": "uint256"
        }
      ],
      "stateMutability": "view",
      "type": "function"
    },
    {
      "inputs": [],
      "name": "symbol",
      "outputs": [
        {
          "internalType": "string",
          "name": "",
          "type": "string"
        }
      ],
      "stateMutability": "view",
      "type": "function"
    },
    {
      "inputs": [],
      "name": "totalSupply",
      "outputs": [
        {
          "internalType": "uint256",
          "name": "",
          "type": "uint256"
        }
      ],
      "stateMutability": "view",
      "type": "function"
    },
    {
      "inputs": [
        {
          "internalType": "address",
          "name": "to",
          "type": "address"
        },
        {
          "internalType": "uint256",
          "name": "value",
          "type": "uint256"
        }
      ],
      "name": "transfer",
      "outputs": [
        {
          "internalType": "bool",
          "name": "",
          "type": "bool"
        }
      ],
      "stateMutability": "nonpayable",
      "type": "function"
    },
    {
      "inputs": [
        {
          "internalType": "address",
          "name": "from",
          "type": "address"
        },
        {
          "internalType": "address",
          "name": "to",
          "type": "address"
        },
        {
          "internalType": "uint256",
          "name": "value",
          "type": "uint256"
        }
      ],
      "name": "transferFrom",
      "outputs": [
        {
          "internalType": "bool",
          "name": "",
          "type": "bool"
        }
      ],
      "stateMutability": "nonpayable",
      "type": "function"
    },
    {
      "inputs": [],
      "name": "trustedForwarder",
      "outputs": [
        {
          "internalType": "address",
          "name": "",
          "type": "address"
        }
      ],
      "stateMutability": "view",
      "type": "function"
    }
  ],
  "bytecode": "0x60e06040526000600660006101000a81548160ff021916908360028111156200002d576200002c62000453565b5b02179055503480156200003f57600080fd5b5060405162003d3b38038062003d3b83398181016040528101906200006591906200052d565b816040518060400160405280601281526020017f50544241452d505520416c6c6f77616e636500000000000000000000000000008152506040518060400160405280600581526020017f50544241450000000000000000000000000000000000000000000000000000008152508160039081620000e391906200082f565b508060049081620000f591906200082f565b5050508073ffffffffffffffffffffffffffffffffffffffff1660808173ffffffffffffffffffffffffffffffffffffffff1681525050508263ffffffff1660a08163ffffffff16815250508073ffffffffffffffffffffffffffffffffffffffff1660c08173ffffffffffffffffffffffffffffffffffffffff16815250506200018a6000801b86620001c960201b60201c565b50620001bd7f20b5f7ac978e5d6199de06401411960dfa81d2f762655f6206bdc61d46fc19e685620001c960201b60201c565b505050505050620009fe565b6000620001dd8383620002cd60201b60201c565b620002c25760016005600085815260200190815260200160002060000160008473ffffffffffffffffffffffffffffffffffffffff1673ffffffffffffffffffffffffffffffffffffffff16815260200190815260200160002060006101000a81548160ff0219169083151502179055506200025e6200033860201b60201c565b73ffffffffffffffffffffffffffffffffffffffff168273ffffffffffffffffffffffffffffffffffffffff16847f2f8788117e7eff1d82e926ec794901d17c78024a50270940304540a733656f0d60405160405180910390a460019050620002c7565b600090505b92915050565b60006005600084815260200190815260200160002060000160008373ffffffffffffffffffffffffffffffffffffffff1673ffffffffffffffffffffffffffffffffffffffff16815260200190815260200160002060009054906101000a900460ff16905092915050565b60006200034a6200034f60201b60201c565b905090565b6000806000369050905060006200036b620003da60201b60201c565b90508082101580156200038b57506200038a33620003f160201b60201c565b5b15620003c257600036828403908092620003a89392919062000920565b90620003b5919062000998565b60601c92505050620003d7565b620003d26200043860201b60201c565b925050505b90565b6000620003ec6200044060201b60201c565b905090565b6000620004036200044960201b60201c565b73ffffffffffffffffffffffffffffffffffffffff168273ffffffffffffffffffffffffffffffffffffffff16149050919050565b600033905090565b60006014905090565b6000608051905090565b7f4e487b7100000000000000000000000000000000000000000000000000000000600052602160045260246000fd5b600080fd5b600073ffffffffffffffffffffffffffffffffffffffff82169050919050565b6000620004b48262000487565b9050919050565b620004c681620004a7565b8114620004d257600080fd5b50565b600081519050620004e681620004bb565b92915050565b600063ffffffff82169050919050565b6200050781620004ec565b81146200051357600080fd5b50565b6000815190506200052781620004fc565b92915050565b600080600080600060a086880312156200054c576200054b62000482565b5b60006200055c88828901620004d5565b95505060206200056f88828901620004d5565b9450506040620005828882890162000516565b93505060606200059588828901620004d5565b9250506080620005a888828901620004d5565b9150509295509295909350565b600081519050919050565b7f4e487b7100000000000000000000000000000000000000000000000000000000600052604160045260246000fd5b7f4e487b7100000000000000000000000000000000000000000000000000000000600052602260045260246000fd5b600060028204905060018216806200063757607f821691505b6020821081036200064d576200064c620005ef565b5b50919050565b60008190508160005260206000209050919050565b60006020601f8301049050919050565b600082821b905092915050565b600060088302620006b77fffffffffffffffffffffffffffffffffffffffffffffffffffffffffffffffff8262000678565b620006c3868362000678565b95508019841693508086168417925050509392505050565b6000819050919050565b6000819050919050565b6000620007106200070a6200070484620006db565b620006e5565b620006db565b9050919050565b6000819050919050565b6200072c83620006ef565b620007446200073b8262000717565b84845462000685565b825550505050565b600090565b6200075b6200074c565b6200076881848462000721565b505050565b5b8181101562000790576200078460008262000751565b6001810190506200076e565b5050565b601f821115620007df57620007a98162000653565b620007b48462000668565b81016020851015620007c4578190505b620007dc620007d38562000668565b8301826200076d565b50505b505050565b600082821c905092915050565b60006200080460001984600802620007e4565b1980831691505092915050565b60006200081f8383620007f1565b9150826002028217905092915050565b6200083a82620005b5565b67ffffffffffffffff811115620008565762000855620005c0565b5b6200086282546200061e565b6200086f82828562000794565b600060209050601f831160018114620008a7576000841562000892578287015190505b6200089e858262000811565b8655506200090e565b601f198416620008b78662000653565b60005b82811015620008e157848901518255600182019150602085019450602081019050620008ba565b86831015620009015784890151620008fd601f891682620007f1565b8355505b6001600288020188555050505b505050505050565b600080fd5b600080fd5b6000808585111562000937576200093662000916565b5b838611156200094b576200094a6200091b565b5b6001850283019150848603905094509492505050565b600082905092915050565b60007fffffffffffffffffffffffffffffffffffffffff00000000000000000000000082169050919050565b6000620009a6838362000961565b82620009b381356200096c565b92506014821015620009f657620009f17fffffffffffffffffffffffffffffffffffffffff0000000000000000000000008360140360080262000678565b831692505b505092915050565b60805160a05160c0516132dc62000a5f6000396000818161076201528181610c1b0152610f5401526000818161079e015281816108fb01528181610b2201528181610e9201528181610f90015261157501526000610bf501526132dc6000f3fe608060405234801561001057600080fd5b50600436106101e55760003560e01c806370a082311161010f578063a9059cbb116100a2578063d547741f11610071578063d547741f146105af578063dd62ed3e146105cb578063ef78d4fd146105fb578063f93278b514610619576101e5565b8063a9059cbb1461054f578063ae4d3b5c1461057f578063b71c47a214610589578063b78b52df14610593576101e5565b806391d14854116100de57806391d14854146104b357806395d89b41146104e35780639679f81214610501578063a217fddf14610531576101e5565b806370a08231146104175780637da0a877146104475780637dc0d1d0146104655780638857159a14610483576101e5565b806323073b5d11610187578063313ce56711610156578063313ce567146103a357806336568abe146103c15780634bb278f3146103dd578063572b6c05146103e7576101e5565b806323073b5d146102f257806323b872dd14610327578063248a9ca3146103575780632f2ff15d14610387576101e5565b8063144bf589116101c3578063144bf589146102685780631586f91b1461028657806318160ddd146102b6578063200d2ed2146102d4576101e5565b806301ffc9a7146101ea57806306fdde031461021a578063095ea7b314610238575b600080fd5b61020460048036038101906101ff919061235e565b610635565b60405161021191906123a6565b60405180910390f35b610222610647565b60405161022f9190612451565b60405180910390f35b610252600480360381019061024d9190612507565b6106d9565b60405161025f91906123a6565b60405180910390f35b6102706106fc565b60405161027d9190612560565b60405180910390f35b6102a0600480360381019061029b919061257b565b610720565b6040516102ad91906125b7565b60405180910390f35b6102be610738565b6040516102cb91906125b7565b60405180910390f35b6102dc610742565b6040516102e99190612649565b60405180910390f35b61030c6004803603810190610307919061257b565b610755565b60405161031e969594939291906126cb565b60405180910390f35b610341600480360381019061033c919061272c565b610940565b60405161034e91906123a6565b60405180910390f35b610371600480360381019061036c91906127ab565b61096f565b60405161037e9190612560565b60405180910390f35b6103a1600480360381019061039c91906127d8565b61098f565b005b6103ab6109b1565b6040516103b89190612834565b60405180910390f35b6103db60048036038101906103d691906127d8565b6109ba565b005b6103e5610a35565b005b61040160048036038101906103fc919061257b565b610b6a565b60405161040e91906123a6565b60405180910390f35b610431600480360381019061042c919061257b565b610ba9565b60405161043e91906125b7565b60405180910390f35b61044f610bf1565b60405161045c919061285e565b60405180910390f35b61046d610c19565b60405161047a91906128d8565b60405180910390f35b61049d6004803603810190610498919061257b565b610c3d565b6040516104aa91906123a6565b60405180910390f35b6104cd60048036038101906104c891906127d8565b610c5d565b6040516104da91906123a6565b60405180910390f35b6104eb610cc8565b6040516104f89190612451565b60405180910390f35b61051b6004803603810190610516919061257b565b610d5a565b60405161052891906128f3565b60405180910390f35b610539610d7a565b6040516105469190612560565b60405180910390f35b61056960048036038101906105649190612507565b610d81565b60405161057691906123a6565b60405180910390f35b610587610da4565b005b610591610eda565b005b6105ad60048036038101906105a89190612507565b61131b565b005b6105c960048036038101906105c491906127d8565b6114ca565b005b6105e560048036038101906105e0919061290e565b6114ec565b6040516105f291906125b7565b60405180910390f35b610603611573565b604051610610919061294e565b60405180910390f35b610633600480360381019061062e91906129ce565b611597565b005b6000610640826117a2565b9050919050565b60606003805461065690612a5d565b80601f016020809104026020016040519081016040528092919081815260200182805461068290612a5d565b80156106cf5780601f106106a4576101008083540402835291602001916106cf565b820191906000526020600020905b8154815290600101906020018083116106b257829003601f168201915b5050505050905090565b6000806106e461181c565b90506106f181858561182b565b600191505092915050565b7f20b5f7ac978e5d6199de06401411960dfa81d2f762655f6206bdc61d46fc19e681565b60076020528060005260406000206000915090505481565b6000600254905090565b600660009054906101000a900460ff1681565b60008060008060008060007f000000000000000000000000000000000000000000000000000000000000000073ffffffffffffffffffffffffffffffffffffffff166345e1b42c7f00000000000000000000000000000000000000000000000000000000000000008a6040518363ffffffff1660e01b81526004016107db929190612a8e565b602060405180830381865afa1580156107f8573d6000803e3d6000fd5b505050506040513d601f19601f8201168201806040525081019061081c9190612acc565b90506000600760008a73ffffffffffffffffffffffffffffffffffffffff1673ffffffffffffffffffffffffffffffffffffffff168152602001908152602001600020549050600081831161087257600061087f565b818361087e9190612b28565b5b90506000600860008c73ffffffffffffffffffffffffffffffffffffffff1673ffffffffffffffffffffffffffffffffffffffff16815260200190815260200160002060009054906101000a900460ff169050600084036108e357600090506108f9565b8383106108f357600290506108f8565b600190505b5b7f00000000000000000000000000000000000000000000000000000000000000006109238c610ba9565b848685859950995099509950995099505050505091939550919395565b60008061094b61181c565b905061095885828561183d565b6109638585856118d2565b60019150509392505050565b600060056000838152602001908152602001600020600101549050919050565b6109988261096f565b6109a1816119c6565b6109ab83836119da565b50505050565b60006012905090565b6109c261181c565b73ffffffffffffffffffffffffffffffffffffffff168173ffffffffffffffffffffffffffffffffffffffff1614610a26576040517f6697b23200000000000000000000000000000000000000000000000000000000815260040160405180910390fd5b610a308282611acc565b505050565b7f20b5f7ac978e5d6199de06401411960dfa81d2f762655f6206bdc61d46fc19e6610a5f816119c6565b600280811115610a7257610a716125d2565b5b600660009054906101000a900460ff166002811115610a9457610a936125d2565b5b03610ad4576040517f08c379a0000000000000000000000000000000000000000000000000000000008152600401610acb90612ba8565b60405180910390fd5b6002600660006101000a81548160ff02191690836002811115610afa57610af96125d2565b5b02179055507f83ff33f831ff8d637dfebe12e813581690e41d25f854fb342d4a2cfe1999e62c7f0000000000000000000000000000000000000000000000000000000000000000600660009054906101000a900460ff16604051610b5f929190612bc8565b60405180910390a150565b6000610b74610bf1565b73ffffffffffffffffffffffffffffffffffffffff168273ffffffffffffffffffffffffffffffffffffffff16149050919050565b60008060008373ffffffffffffffffffffffffffffffffffffffff1673ffffffffffffffffffffffffffffffffffffffff168152602001908152602001600020549050919050565b60007f0000000000000000000000000000000000000000000000000000000000000000905090565b7f000000000000000000000000000000000000000000000000000000000000000081565b60096020528060005260406000206000915054906101000a900460ff1681565b60006005600084815260200190815260200160002060000160008373ffffffffffffffffffffffffffffffffffffffff1673ffffffffffffffffffffffffffffffffffffffff16815260200190815260200160002060009054906101000a900460ff16905092915050565b606060048054610cd790612a5d565b80601f0160208091040260200160405190810160405280929190818152602001828054610d0390612a5d565b8015610d505780601f10610d2557610100808354040283529160200191610d50565b820191906000526020600020905b815481529060010190602001808311610d3357829003601f168201915b5050505050905090565b60086020528060005260406000206000915054906101000a900460ff1681565b6000801b81565b600080610d8c61181c565b9050610d998185856118d2565b600191505092915050565b7f20b5f7ac978e5d6199de06401411960dfa81d2f762655f6206bdc61d46fc19e6610dce816119c6565b60006002811115610de257610de16125d2565b5b600660009054906101000a900460ff166002811115610e0457610e036125d2565b5b14610e44576040517f08c379a0000000000000000000000000000000000000000000000000000000008152600401610e3b90612c3d565b60405180910390fd5b6001600660006101000a81548160ff02191690836002811115610e6a57610e696125d2565b5b02179055507f83ff33f831ff8d637dfebe12e813581690e41d25f854fb342d4a2cfe1999e62c7f0000000000000000000000000000000000000000000000000000000000000000600660009054906101000a900460ff16604051610ecf929190612bc8565b60405180910390a150565b60016002811115610eee57610eed6125d2565b5b600660009054906101000a900460ff166002811115610f1057610f0f6125d2565b5b14610f50576040517f08c379a0000000000000000000000000000000000000000000000000000000008152600401610f4790612ccf565b60405180910390fd5b60007f000000000000000000000000000000000000000000000000000000000000000073ffffffffffffffffffffffffffffffffffffffff166345e1b42c7f0000000000000000000000000000000000000000000000000000000000000000610fb761181c565b6040518363ffffffff1660e01b8152600401610fd4929190612a8e565b602060405180830381865afa158015610ff1573d6000803e3d6000fd5b505050506040513d601f19601f820116820180604052508101906110159190612acc565b90506000811161105a576040517f08c379a000000000000000000000000000000000000000000000000000000000815260040161105190612d3b565b60405180910390fd5b6009600061106661181c565b73ffffffffffffffffffffffffffffffffffffffff1673ffffffffffffffffffffffffffffffffffffffff16815260200190815260200160002060009054906101000a900460ff16156110ee576040517f08c379a00000000000000000000000000000000000000000000000000000000081526004016110e590612da7565b60405180910390fd5b806110ff6110fa61181c565b610ba9565b1015611140576040517f08c379a000000000000000000000000000000000000000000000000000000000815260040161113790612e13565b60405180910390fd5b61115161114b61181c565b82611bbf565b806007600061115e61181c565b73ffffffffffffffffffffffffffffffffffffffff1673ffffffffffffffffffffffffffffffffffffffff168152602001908152602001600020819055506001600960006111aa61181c565b73ffffffffffffffffffffffffffffffffffffffff1673ffffffffffffffffffffffffffffffffffffffff16815260200190815260200160002060006101000a81548160ff02191690831515021790555060026008600061120961181c565b73ffffffffffffffffffffffffffffffffffffffff1673ffffffffffffffffffffffffffffffffffffffff16815260200190815260200160002060006101000a81548160ff02191690836002811115611265576112646125d2565b5b021790555061127261181c565b73ffffffffffffffffffffffffffffffffffffffff167fea6c029757711e3bf5e8958ba57d94459b2e5b84a40eed9d21e4390e1e1f6e8660026040516112b891906128f3565b60405180910390a26112c861181c565b73ffffffffffffffffffffffffffffffffffffffff167fcd3331a9bec0aed59a9fbe480a5b8e9f713e86e4b4105ac2628cfe4b9d6a6e75826000604051611310929190612e6e565b60405180910390a250565b7f20b5f7ac978e5d6199de06401411960dfa81d2f762655f6206bdc61d46fc19e6611345816119c6565b60006002811115611359576113586125d2565b5b600660009054906101000a900460ff16600281111561137b5761137a6125d2565b5b146113bb576040517f08c379a00000000000000000000000000000000000000000000000000000000081526004016113b290612ee3565b60405180910390fd5b600073ffffffffffffffffffffffffffffffffffffffff168373ffffffffffffffffffffffffffffffffffffffff160361142a576040517f08c379a000000000000000000000000000000000000000000000000000000000815260040161142190612f4f565b60405180910390fd5b6000821161146d576040517f08c379a000000000000000000000000000000000000000000000000000000000815260040161146490612fbb565b60405180910390fd5b6114778383611c41565b8273ffffffffffffffffffffffffffffffffffffffff167f472f36e28bb47edb7c69c9e2ac00a77c66b505df54e9c818ac57110b0629e8c3836040516114bd91906125b7565b60405180910390a2505050565b6114d38261096f565b6114dc816119c6565b6114e68383611acc565b50505050565b6000600160008473ffffffffffffffffffffffffffffffffffffffff1673ffffffffffffffffffffffffffffffffffffffff16815260200190815260200160002060008373ffffffffffffffffffffffffffffffffffffffff1673ffffffffffffffffffffffffffffffffffffffff16815260200190815260200160002054905092915050565b7f000000000000000000000000000000000000000000000000000000000000000081565b7f20b5f7ac978e5d6199de06401411960dfa81d2f762655f6206bdc61d46fc19e66115c1816119c6565b600060028111156115d5576115d46125d2565b5b600660009054906101000a900460ff1660028111156115f7576115f66125d2565b5b14611637576040517f08c379a000000000000000000000000000000000000000000000000000000000815260040161162e90612ee3565b60405180910390fd5b6000821161167a576040517f08c379a000000000000000000000000000000000000000000000000000000000815260040161167190612fbb565b60405180910390fd5b600084849050116116c0576040517f08c379a00000000000000000000000000000000000000000000000000000000081526004016116b790613027565b60405180910390fd5b60005b8484905081101561179b5760008585838181106116e3576116e2613047565b5b90506020020160208101906116f8919061257b565b9050600073ffffffffffffffffffffffffffffffffffffffff168173ffffffffffffffffffffffffffffffffffffffff1614611787576117388185611c41565b8073ffffffffffffffffffffffffffffffffffffffff167f472f36e28bb47edb7c69c9e2ac00a77c66b505df54e9c818ac57110b0629e8c38560405161177e91906125b7565b60405180910390a25b50808061179390613076565b9150506116c3565b5050505050565b60007f7965db0b000000000000000000000000000000000000000000000000000000007bffffffffffffffffffffffffffffffffffffffffffffffffffffffff1916827bffffffffffffffffffffffffffffffffffffffffffffffffffffffff19161480611815575061181482611cc3565b5b9050919050565b6000611826611d2d565b905090565b6118388383836001611d99565b505050565b600061184984846114ec565b90507fffffffffffffffffffffffffffffffffffffffffffffffffffffffffffffffff8110156118cc57818110156118bc578281836040517ffb8f41b20000000000000000000000000000000000000000000000000000000081526004016118b3939291906130be565b60405180910390fd5b6118cb84848484036000611d99565b5b50505050565b600073ffffffffffffffffffffffffffffffffffffffff168373ffffffffffffffffffffffffffffffffffffffff16036119445760006040517f96c6fd1e00000000000000000000000000000000000000000000000000000000815260040161193b919061285e565b60405180910390fd5b600073ffffffffffffffffffffffffffffffffffffffff168273ffffffffffffffffffffffffffffffffffffffff16036119b65760006040517fec442f050000000000000000000000000000000000000000000000000000000081526004016119ad919061285e565b60405180910390fd5b6119c1838383611f70565b505050565b6119d7816119d261181c565b612066565b50565b60006119e68383610c5d565b611ac15760016005600085815260200190815260200160002060000160008473ffffffffffffffffffffffffffffffffffffffff1673ffffffffffffffffffffffffffffffffffffffff16815260200190815260200160002060006101000a81548160ff021916908315150217905550611a5e61181c565b73ffffffffffffffffffffffffffffffffffffffff168273ffffffffffffffffffffffffffffffffffffffff16847f2f8788117e7eff1d82e926ec794901d17c78024a50270940304540a733656f0d60405160405180910390a460019050611ac6565b600090505b92915050565b6000611ad88383610c5d565b15611bb45760006005600085815260200190815260200160002060000160008473ffffffffffffffffffffffffffffffffffffffff1673ffffffffffffffffffffffffffffffffffffffff16815260200190815260200160002060006101000a81548160ff021916908315150217905550611b5161181c565b73ffffffffffffffffffffffffffffffffffffffff168273ffffffffffffffffffffffffffffffffffffffff16847ff6391f5c32d9c69d2a47ea670b442974b53935d1edc7fd64eb21e047a839171b60405160405180910390a460019050611bb9565b600090505b92915050565b600073ffffffffffffffffffffffffffffffffffffffff168273ffffffffffffffffffffffffffffffffffffffff1603611c315760006040517f96c6fd1e000000000000000000000000000000000000000000000000000000008152600401611c28919061285e565b60405180910390fd5b611c3d82600083611f70565b5050565b600073ffffffffffffffffffffffffffffffffffffffff168273ffffffffffffffffffffffffffffffffffffffff1603611cb35760006040517fec442f05000000000000000000000000000000000000000000000000000000008152600401611caa919061285e565b60405180910390fd5b611cbf60008383611f70565b5050565b60007f01ffc9a7000000000000000000000000000000000000000000000000000000007bffffffffffffffffffffffffffffffffffffffffffffffffffffffff1916827bffffffffffffffffffffffffffffffffffffffffffffffffffffffff1916149050919050565b600080600036905090506000611d416120b7565b9050808210158015611d585750611d5733610b6a565b5b15611d8957600036828403908092611d72939291906130ff565b90611d7d919061317e565b60601c92505050611d96565b611d916120c6565b925050505b90565b600073ffffffffffffffffffffffffffffffffffffffff168473ffffffffffffffffffffffffffffffffffffffff1603611e0b5760006040517fe602df05000000000000000000000000000000000000000000000000000000008152600401611e02919061285e565b60405180910390fd5b600073ffffffffffffffffffffffffffffffffffffffff168373ffffffffffffffffffffffffffffffffffffffff1603611e7d5760006040517f94280d62000000000000000000000000000000000000000000000000000000008152600401611e74919061285e565b60405180910390fd5b81600160008673ffffffffffffffffffffffffffffffffffffffff1673ffffffffffffffffffffffffffffffffffffffff16815260200190815260200160002060008573ffffffffffffffffffffffffffffffffffffffff1673ffffffffffffffffffffffffffffffffffffffff168152602001908152602001600020819055508015611f6a578273ffffffffffffffffffffffffffffffffffffffff168473ffffffffffffffffffffffffffffffffffffffff167f8c5be1e5ebec7d5bd14f71427d1e84f3dd0314c0f7b2291e5b200ac8c7c3b92584604051611f6191906125b7565b60405180910390a35b50505050565b600073ffffffffffffffffffffffffffffffffffffffff168373ffffffffffffffffffffffffffffffffffffffff1614158015611fda5750600073ffffffffffffffffffffffffffffffffffffffff168273ffffffffffffffffffffffffffffffffffffffff1614155b156120565760006002811115611ff357611ff26125d2565b5b600660009054906101000a900460ff166002811115612015576120146125d2565b5b14612055576040517f08c379a000000000000000000000000000000000000000000000000000000000815260040161204c90613229565b60405180910390fd5b5b6120618383836120ce565b505050565b6120708282610c5d565b6120b35780826040517fe2517d3f0000000000000000000000000000000000000000000000000000000081526004016120aa929190613249565b60405180910390fd5b5050565b60006120c16122f3565b905090565b600033905090565b600073ffffffffffffffffffffffffffffffffffffffff168373ffffffffffffffffffffffffffffffffffffffff16036121205780600260008282546121149190613272565b925050819055506121f3565b60008060008573ffffffffffffffffffffffffffffffffffffffff1673ffffffffffffffffffffffffffffffffffffffff168152602001908152602001600020549050818110156121ac578381836040517fe450d38c0000000000000000000000000000000000000000000000000000000081526004016121a3939291906130be565b60405180910390fd5b8181036000808673ffffffffffffffffffffffffffffffffffffffff1673ffffffffffffffffffffffffffffffffffffffff16815260200190815260200160002081905550505b600073ffffffffffffffffffffffffffffffffffffffff168273ffffffffffffffffffffffffffffffffffffffff160361223c5780600260008282540392505081905550612289565b806000808473ffffffffffffffffffffffffffffffffffffffff1673ffffffffffffffffffffffffffffffffffffffff168152602001908152602001600020600082825401925050819055505b8173ffffffffffffffffffffffffffffffffffffffff168373ffffffffffffffffffffffffffffffffffffffff167fddf252ad1be2c89b69c2b068fc378daa952ba7f163c4a11628f55a4df523b3ef836040516122e691906125b7565b60405180910390a3505050565b60006014905090565b600080fd5b600080fd5b60007fffffffff0000000000000000000000000000000000000000000000000000000082169050919050565b61233b81612306565b811461234657600080fd5b50565b60008135905061235881612332565b92915050565b600060208284031215612374576123736122fc565b5b600061238284828501612349565b91505092915050565b60008115159050919050565b6123a08161238b565b82525050565b60006020820190506123bb6000830184612397565b92915050565b600081519050919050565b600082825260208201905092915050565b60005b838110156123fb5780820151818401526020810190506123e0565b60008484015250505050565b6000601f19601f8301169050919050565b6000612423826123c1565b61242d81856123cc565b935061243d8185602086016123dd565b61244681612407565b840191505092915050565b6000602082019050818103600083015261246b8184612418565b905092915050565b600073ffffffffffffffffffffffffffffffffffffffff82169050919050565b600061249e82612473565b9050919050565b6124ae81612493565b81146124b957600080fd5b50565b6000813590506124cb816124a5565b92915050565b6000819050919050565b6124e4816124d1565b81146124ef57600080fd5b50565b600081359050612501816124db565b92915050565b6000806040838503121561251e5761251d6122fc565b5b600061252c858286016124bc565b925050602061253d858286016124f2565b9150509250929050565b6000819050919050565b61255a81612547565b82525050565b60006020820190506125756000830184612551565b92915050565b600060208284031215612591576125906122fc565b5b600061259f848285016124bc565b91505092915050565b6125b1816124d1565b82525050565b60006020820190506125cc60008301846125a8565b92915050565b7f4e487b7100000000000000000000000000000000000000000000000000000000600052602160045260246000fd5b60038110612612576126116125d2565b5b50565b600081905061262382612601565b919050565b600061263382612615565b9050919050565b61264381612628565b82525050565b600060208201905061265e600083018461263a565b92915050565b600063ffffffff82169050919050565b61267d81612664565b82525050565b60038110612694576126936125d2565b5b50565b60008190506126a582612683565b919050565b60006126b582612697565b9050919050565b6126c5816126aa565b82525050565b600060c0820190506126e06000830189612674565b6126ed60208301886125a8565b6126fa60408301876125a8565b61270760608301866125a8565b61271460808301856125a8565b61272160a08301846126bc565b979650505050505050565b600080600060608486031215612745576127446122fc565b5b6000612753868287016124bc565b9350506020612764868287016124bc565b9250506040612775868287016124f2565b9150509250925092565b61278881612547565b811461279357600080fd5b50565b6000813590506127a58161277f565b92915050565b6000602082840312156127c1576127c06122fc565b5b60006127cf84828501612796565b91505092915050565b600080604083850312156127ef576127ee6122fc565b5b60006127fd85828601612796565b925050602061280e858286016124bc565b9150509250929050565b600060ff82169050919050565b61282e81612818565b82525050565b60006020820190506128496000830184612825565b92915050565b61285881612493565b82525050565b6000602082019050612873600083018461284f565b92915050565b6000819050919050565b600061289e61289961289484612473565b612879565b612473565b9050919050565b60006128b082612883565b9050919050565b60006128c2826128a5565b9050919050565b6128d2816128b7565b82525050565b60006020820190506128ed60008301846128c9565b92915050565b600060208201905061290860008301846126bc565b92915050565b60008060408385031215612925576129246122fc565b5b6000612933858286016124bc565b9250506020612944858286016124bc565b9150509250929050565b60006020820190506129636000830184612674565b92915050565b600080fd5b600080fd5b600080fd5b60008083601f84011261298e5761298d612969565b5b8235905067ffffffffffffffff8111156129ab576129aa61296e565b5b6020830191508360208202830111156129c7576129c6612973565b5b9250929050565b6000806000604084860312156129e7576129e66122fc565b5b600084013567ffffffffffffffff811115612a0557612a04612301565b5b612a1186828701612978565b93509350506020612a24868287016124f2565b9150509250925092565b7f4e487b7100000000000000000000000000000000000000000000000000000000600052602260045260246000fd5b60006002820490506001821680612a7557607f821691505b602082108103612a8857612a87612a2e565b5b50919050565b6000604082019050612aa36000830185612674565b612ab0602083018461284f565b9392505050565b600081519050612ac6816124db565b92915050565b600060208284031215612ae257612ae16122fc565b5b6000612af084828501612ab7565b91505092915050565b7f4e487b7100000000000000000000000000000000000000000000000000000000600052601160045260246000fd5b6000612b33826124d1565b9150612b3e836124d1565b9250828203905081811115612b5657612b55612af9565b5b92915050565b7f616c726561647920656e64656400000000000000000000000000000000000000600082015250565b6000612b92600d836123cc565b9150612b9d82612b5c565b602082019050919050565b60006020820190508181036000830152612bc181612b85565b9050919050565b6000604082019050612bdd6000830185612674565b612bea602083018461263a565b9392505050565b7f6e6f742061637469766500000000000000000000000000000000000000000000600082015250565b6000612c27600a836123cc565b9150612c3282612bf1565b602082019050919050565b60006020820190508181036000830152612c5681612c1a565b9050919050565b7f73757272656e646572206f6e6c7920616c6c6f77656420696e2061756469742060008201527f7068617365000000000000000000000000000000000000000000000000000000602082015250565b6000612cb96025836123cc565b9150612cc482612c5d565b604082019050919050565b60006020820190508181036000830152612ce881612cac565b9050919050565b7f6e6f20766572696669656420656d697373696f6e206461746100000000000000600082015250565b6000612d256019836123cc565b9150612d3082612cef565b602082019050919050565b60006020820190508181036000830152612d5481612d18565b9050919050565b7f616c72656164792073757272656e646572656400000000000000000000000000600082015250565b6000612d916013836123cc565b9150612d9c82612d5b565b602082019050919050565b60006020820190508181036000830152612dc081612d84565b9050919050565b7f696e73756666696369656e742062616c616e6365000000000000000000000000600082015250565b6000612dfd6014836123cc565b9150612e0882612dc7565b602082019050919050565b60006020820190508181036000830152612e2c81612df0565b9050919050565b6000819050919050565b6000612e58612e53612e4e84612e33565b612879565b6124d1565b9050919050565b612e6881612e3d565b82525050565b6000604082019050612e8360008301856125a8565b612e906020830184612e5f565b9392505050565b7f706572696f64206e6f7420616374697665000000000000000000000000000000600082015250565b6000612ecd6011836123cc565b9150612ed882612e97565b602082019050919050565b60006020820190508181036000830152612efc81612ec0565b9050919050565b7f746f3d3000000000000000000000000000000000000000000000000000000000600082015250565b6000612f396004836123cc565b9150612f4482612f03565b602082019050919050565b60006020820190508181036000830152612f6881612f2c565b9050919050565b7f616d6f756e743d30000000000000000000000000000000000000000000000000600082015250565b6000612fa56008836123cc565b9150612fb082612f6f565b602082019050919050565b60006020820190508181036000830152612fd481612f98565b9050919050565b7f6e6f20726563697069656e747300000000000000000000000000000000000000600082015250565b6000613011600d836123cc565b915061301c82612fdb565b602082019050919050565b6000602082019050818103600083015261304081613004565b9050919050565b7f4e487b7100000000000000000000000000000000000000000000000000000000600052603260045260246000fd5b6000613081826124d1565b91507fffffffffffffffffffffffffffffffffffffffffffffffffffffffffffffffff82036130b3576130b2612af9565b5b600182019050919050565b60006060820190506130d3600083018661284f565b6130e060208301856125a8565b6130ed60408301846125a8565b949350505050565b600080fd5b600080fd5b60008085851115613113576131126130f5565b5b83861115613124576131236130fa565b5b6001850283019150848603905094509492505050565b600082905092915050565b60007fffffffffffffffffffffffffffffffffffffffff00000000000000000000000082169050919050565b600082821b905092915050565b600061318a838361313a565b826131958135613145565b925060148210156131d5576131d07fffffffffffffffffffffffffffffffffffffffff00000000000000000000000083601403600802613171565b831692505b505092915050565b7f7472616e73666572207265737472696374656400000000000000000000000000600082015250565b60006132136013836123cc565b915061321e826131dd565b602082019050919050565b6000602082019050818103600083015261324281613206565b9050919050565b600060408201905061325e600083018561284f565b61326b6020830184612551565b9392505050565b600061327d826124d1565b9150613288836124d1565b92508282019050808211156132a05761329f612af9565b5b9291505056fea26469706673582212204125141b325f80d4bbbe699a799b5ba659270df8411f01dbfdc6f66d534eb08564736f6c63430008140033",
  "linkReferences": {},
  "deployedLinkReferences": {}
}