{
  "_format": "hh-sol-artifact-1",
  "contractName": "PTBAEFactory",
  "sourceName": "contracts/PTBAEFactory.sol",
  "abi": [
    {
      "inputs": [
        {
          "internalType": "address",
          "name": "admin",
          "type": "address"
        },
        {
          "internalType": "address",
          "name": "regulator",
          "type": "address"
        },
        {
          "internalType": "uint32",
          "name": "initialPeriod",
          "type": "uint32"
        },
        {
          "internalType": "address",
          "name": "_forwarder",
          "type": "address"
        },
        {
          "internalType": "address",
          "name": "_oracle",
          "type": "address"
        },
        {
          "internalType": "address",
          "name": "_speToken",
          "type": "address"
        }
      ],
      "stateMutability": "nonpayable",
      "type": "constructor"
    },
    {
      "inputs": [],
      "name": "AccessControlBadConfirmation",
      "type": "error"
    },
    {
      "inputs": [
        {
          "internalType": "address",
          "name": "account",
          "type": "address"
        },
        {
          "internalType": "bytes32",
          "name": "neededRole",
          "type": "bytes32"
        }
      ],
      "name": "AccessControlUnauthorizedAccount",
      "type": "error"
    },
    {
      "anonymous": false,
      "inputs": [
        {
          "indexed": true,
          "internalType": "uint32",
          "name": "period",
          "type": "uint32"
        },
        {
          "indexed": false,
          "internalType": "address",
          "name": "token",
          "type": "address"
        }
      ],
      "name": "PeriodOpened",
      "type": "event"
    },
    {
      "anonymous": false,
      "inputs": [
        {
          "indexed": true,
          "internalType": "bytes32",
          "name": "role",
          "type": "bytes32"
        },
        {
          "indexed": true,
          "internalType": "bytes32",
          "name": "previousAdminRole",
          "type": "bytes32"
        },
        {
          "indexed": true,
          "internalType": "bytes32",
          "name": "newAdminRole",
          "type": "bytes32"
        }
      ],
      "name": "RoleAdminChanged",
      "type": "event"
    },
    {
      "anonymous": false,
      "inputs": [
        {
          "indexed": true,
          "internalType": "bytes32",
          "name": "role",
          "type": "bytes32"
        },
        {
          "indexed": true,
          "internalType": "address",
          "name": "account",
          "type": "address"
        },
        {
          "indexed": true,
          "internalType": "address",
          "name": "sender",
          "type": "address"
        }
      ],
      "name": "RoleGranted",
      "type": "event"
    },
    {
      "anonymous": false,
      "inputs": [
        {
          "indexed": true,
          "internalType": "bytes32",
          "name": "role",
          "type": "bytes32"
        },
        {
          "indexed": true,
          "internalType": "address",
          "name": "account",
          "type": "address"
        },
        {
          "indexed": true,
          "internalType": "address",
          "name": "sender",
          "type": "address"
        }
      ],
      "name": "RoleRevoked",
      "type": "event"
    },
    {
      "inputs": [],
      "name": "DEFAULT_ADMIN_ROLE",
      "outputs": [
        {
          "internalType": "bytes32",
          "name": "",
          "type": "bytes32"
        }
      ],
      "stateMutability": "view",
      "type": "function"
    },
    {
      "inputs": [],
      "name": "REGULATOR_ROLE",
      "outputs": [
        {
          "internalType": "bytes32",
          "name": "",
          "type": "bytes32"
        }
      ],
      "stateMutability": "view",
      "type": "function"
    },
    {
      "inputs": [],
      "name": "currentPeriod",
      "outputs": [
        {
          "internalType": "uint32",
          "name": "",
          "type": "uint32"
        }
      ],
      "stateMutability": "view",
      "type": "function"
    },
    {
      "inputs": [
        {
          "internalType": "bytes32",
          "name": "role",
          "type": "bytes32"
        }
      ],
      "name": "getRoleAdmin",
      "outputs": [
        {
          "internalType": "bytes32",
          "name": "",
          "type": "bytes32"
        }
      ],
      "stateMutability": "view",
      "type": "function"
    },
    {
      "inputs": [
        {
          "internalType": "bytes32",
          "name": "role",
          "type": "bytes32"
        },
        {
          "internalType": "address",
          "name": "account",
          "type": "address"
        }
      ],
      "name": "grantRole",
      "outputs": [],
      "stateMutability": "nonpayable",
      "type": "function"
    },
    {
      "inputs": [
        {
          "internalType": "bytes32",
          "name": "role",
          "type": "bytes32"
        },
        {
          "internalType": "address",
          "name": "account",
          "type": "address"
        }
      ],
      "name": "hasRole",
      "outputs": [
        {
          "internalType": "bool",
          "name": "",
          "type": "bool"
        }
      ],
      "stateMutability": "view",
      "type": "function"
    },
    {
      "inputs": [
        {
          "internalType": "address",
          "name": "forwarder",
          "type": "address"
        }
      ],
      "name": "isTrustedForwarder",
      "outputs": [
        {
          "internalType": "bool",
          "name": "",
          "type": "bool"
        }
      ],
      "stateMutability": "view",
      "type": "function"
    },
    {
      "inputs": [
        {
          "internalType": "uint32",
          "name": "newPeriod",
          "type": "uint32"
        }
      ],
      "name": "openPeriod",
      "outputs": [],
      "stateMutability": "nonpayable",
      "type": "function"
    },
    {
      "inputs": [],
      "name": "oracle",
      "outputs": [
        {
          "internalType": "address",
          "name": "",
          "type": "address"
        }
      ],
      "stateMutability": "view",
      "type": "function"
    },
    {
      "inputs": [
        {
          "internalType": "bytes32",
          "name": "role",
          "type": "bytes32"
        },
        {
          "internalType": "address",
          "name": "callerConfirmation",
          "type": "address"
        }
      ],
      "name": "renounceRole",
      "outputs": [],
      "stateMutability": "nonpayable",
      "type": "function"
    },
    {
      "inputs": [
        {
          "internalType": "bytes32",
          "name": "role",
          "type": "bytes32"
        },
        {
          "internalType": "address",
          "name": "account",
          "type": "address"
        }
      ],
      "name": "revokeRole",
      "outputs": [],
      "stateMutability": "nonpayable",
      "type": "function"
    },
    {
      "inputs": [],
      "name": "speTokenAddress",
      "outputs": [
        {
          "internalType": "address",
          "name": "",
          "type": "address"
        }
      ],
      "stateMutability": "view",
      "type": "function"
    },
    {
      "inputs": [
        {
          "internalType": "bytes4",
          "name": "interfaceId",
          "type": "bytes4"
        }
      ],
      "name": "supportsInterface",
      "outputs": [
        {
          "internalType": "bool",
          "name": "",
          "type": "bool"
        }
      ],
      "stateMutability": "view",
      "type": "function"
    },
    {
      "inputs": [
        {
          "internalType": "uint32",
          "name": "",
          "type": "uint32"
        }
      ],
      "name": "tokenByPeriod",
      "outputs": [
        {
          "internalType": "address",
          "name": "",
          "type": "address"
        }
      ],
      "stateMutability": "view",
      "type": "function"
    },
    {
      "inputs": [],
      "name": "trustedForwarder",
      "outputs": [
        {
          "internalType": "address",
          "name": "",
          "type": "address"
        }
      ],
      "stateMutability": "view",
      "type": "function"
    }
  ],
  "bytecode": "0x60e06040523480156200001157600080fd5b506040516200b30c3803806200b30c83398181016040528101906200003791906200067f565b828073ffffffffffffffffffffffffffffffffffffffff1660808173ffffffffffffffffffffffffffffffffffffffff168152505050600073ffffffffffffffffffffffffffffffffffffffff168273ffffffffffffffffffffffffffffffffffffffff1603620000df576040517f08c379a0000000000000000000000000000000000000000000000000000000008152600401620000d6906200077c565b60405180910390fd5b600073ffffffffffffffffffffffffffffffffffffffff168173ffffffffffffffffffffffffffffffffffffffff160362000151576040517f08c379a00000000000000000000000000000000000000000000000000000000081526004016200014890620007ee565b60405180910390fd5b8173ffffffffffffffffffffffffffffffffffffffff1660a08173ffffffffffffffffffffffffffffffffffffffff16815250508073ffffffffffffffffffffffffffffffffffffffff1660c08173ffffffffffffffffffffffffffffffffffffffff1681525050620001ce6000801b876200022060201b60201c565b50620002017f20b5f7ac978e5d6199de06401411960dfa81d2f762655f6206bdc61d46fc19e6866200022060201b60201c565b506200021484866200032360201b60201c565b505050505050620009b1565b60006200023483836200044160201b60201c565b6200031857600160008085815260200190815260200160002060000160008473ffffffffffffffffffffffffffffffffffffffff1673ffffffffffffffffffffffffffffffffffffffff16815260200190815260200160002060006101000a81548160ff021916908315150217905550620002b4620004ab60201b60201c565b73ffffffffffffffffffffffffffffffffffffffff168273ffffffffffffffffffffffffffffffffffffffff16847f2f8788117e7eff1d82e926ec794901d17c78024a50270940304540a733656f0d60405160405180910390a4600190506200031d565b600090505b92915050565b81600160006101000a81548163ffffffff021916908363ffffffff160217905550600081828462000359620004c260201b60201c565b60a05160c0516040516200036d90620005c6565b6200037e9695949392919062000832565b604051809103906000f0801580156200039b573d6000803e3d6000fd5b50905080600260008563ffffffff1663ffffffff16815260200190815260200160002060006101000a81548173ffffffffffffffffffffffffffffffffffffffff021916908373ffffffffffffffffffffffffffffffffffffffff1602179055508263ffffffff167f929be4f7daefbf16218cee1dcd5724b20d4b86f59e79b37318ce08f783935bd7826040516200043491906200089f565b60405180910390a2505050565b600080600084815260200190815260200160002060000160008373ffffffffffffffffffffffffffffffffffffffff1673ffffffffffffffffffffffffffffffffffffffff16815260200190815260200160002060009054906101000a900460ff16905092915050565b6000620004bd620004cc60201b60201c565b905090565b6000608051905090565b600080600036905090506000620004e86200055760201b60201c565b905080821015801562000508575062000507336200056e60201b60201c565b5b156200053f576000368284039080926200052593929190620008c6565b906200053291906200094b565b60601c9250505062000554565b6200054f620005b560201b60201c565b925050505b90565b600062000569620005bd60201b60201c565b905090565b600062000580620004c260201b60201c565b73ffffffffffffffffffffffffffffffffffffffff168273ffffffffffffffffffffffffffffffffffffffff16149050919050565b600033905090565b60006014905090565b614bc7806200674583390190565b600080fd5b600073ffffffffffffffffffffffffffffffffffffffff82169050919050565b60006200060682620005d9565b9050919050565b6200061881620005f9565b81146200062457600080fd5b50565b60008151905062000638816200060d565b92915050565b600063ffffffff82169050919050565b62000659816200063e565b81146200066557600080fd5b50565b60008151905062000679816200064e565b92915050565b60008060008060008060c087890312156200069f576200069e620005d4565b5b6000620006af89828a0162000627565b9650506020620006c289828a0162000627565b9550506040620006d589828a0162000668565b9450506060620006e889828a0162000627565b9350506080620006fb89828a0162000627565b92505060a06200070e89828a0162000627565b9150509295509295509295565b600082825260208201905092915050565b7f6f7261636c653d30000000000000000000000000000000000000000000000000600082015250565b6000620007646008836200071b565b915062000771826200072c565b602082019050919050565b60006020820190508181036000830152620007978162000755565b9050919050565b7f7370653d30000000000000000000000000000000000000000000000000000000600082015250565b6000620007d66005836200071b565b9150620007e3826200079e565b602082019050919050565b600060208201905081810360008301526200080981620007c7565b9050919050565b6200081b81620005f9565b82525050565b6200082c816200063e565b82525050565b600060c08201905062000849600083018962000810565b62000858602083018862000810565b62000867604083018762000821565b62000876606083018662000810565b62000885608083018562000810565b6200089460a083018462000810565b979650505050505050565b6000602082019050620008b6600083018462000810565b92915050565b600080fd5b600080fd5b60008085851115620008dd57620008dc620008bc565b5b83861115620008f157620008f0620008c1565b5b6001850283019150848603905094509492505050565b600082905092915050565b60007fffffffffffffffffffffffffffffffffffffffff00000000000000000000000082169050919050565b600082821b905092915050565b600062000959838362000907565b8262000966813562000912565b92506014821015620009a957620009a47fffffffffffffffffffffffffffffffffffffffff000000000000000000000000836014036008026200093e565b831692505b505092915050565b60805160a05160c051615d56620009ef600039600081816107120152610a3101526000818161067d0152610a10015260006106570152615d566000f3fe60806040523480156200001157600080fd5b50600436106200010c5760003560e01c806344987a4611620000a557806391d14854116200006f57806391d1485414620002d1578063a217fddf1462000307578063c89fb75a1462000329578063d547741f146200034b576200010c565b806344987a461462000237578063572b6c0514620002575780637da0a877146200028d5780637dc0d1d014620002af576200010c565b806315f2b78e11620000e757806315f2b78e146200018b578063248a9ca314620001c15780632f2ff15d14620001f757806336568abe1462000217576200010c565b806301ffc9a71462000111578063060406181462000147578063144bf5891462000169575b600080fd5b6200012f600480360381019062000129919062000c93565b6200036b565b6040516200013e919062000ce2565b60405180910390f35b62000151620003e8565b60405162000160919062000d20565b60405180910390f35b62000173620003fe565b60405162000182919062000d58565b60405180910390f35b620001a96004803603810190620001a3919062000da6565b62000422565b604051620001b8919062000e1d565b60405180910390f35b620001df6004803603810190620001d9919062000e6b565b62000455565b604051620001ee919062000d58565b60405180910390f35b6200021560048036038101906200020f919062000ece565b62000474565b005b6200023560048036038101906200022f919062000ece565b6200049c565b005b6200025560048036038101906200024f919062000da6565b6200051c565b005b6200027560048036038101906200026f919062000f15565b62000612565b60405162000284919062000ce2565b60405180910390f35b6200029762000653565b604051620002a6919062000e1d565b60405180910390f35b620002b96200067b565b604051620002c8919062000e1d565b60405180910390f35b620002ef6004803603810190620002e9919062000ece565b6200069f565b604051620002fe919062000ce2565b60405180910390f35b6200031162000709565b60405162000320919062000d58565b60405180910390f35b6200033362000710565b60405162000342919062000e1d565b60405180910390f35b62000369600480360381019062000363919062000ece565b62000734565b005b60007f7965db0b000000000000000000000000000000000000000000000000000000007bffffffffffffffffffffffffffffffffffffffffffffffffffffffff1916827bffffffffffffffffffffffffffffffffffffffffffffffffffffffff19161480620003e15750620003e0826200075c565b5b9050919050565b600160009054906101000a900463ffffffff1681565b7f20b5f7ac978e5d6199de06401411960dfa81d2f762655f6206bdc61d46fc19e681565b60026020528060005260406000206000915054906101000a900473ffffffffffffffffffffffffffffffffffffffff1681565b6000806000838152602001908152602001600020600101549050919050565b6200047f8262000455565b6200048a81620007c6565b620004968383620007de565b50505050565b620004a6620008d5565b73ffffffffffffffffffffffffffffffffffffffff168173ffffffffffffffffffffffffffffffffffffffff16146200050b576040517f6697b23200000000000000000000000000000000000000000000000000000000815260040160405180910390fd5b620005178282620008e6565b505050565b7f20b5f7ac978e5d6199de06401411960dfa81d2f762655f6206bdc61d46fc19e66200054881620007c6565b600073ffffffffffffffffffffffffffffffffffffffff16600260008463ffffffff1663ffffffff16815260200190815260200160002060009054906101000a900473ffffffffffffffffffffffffffffffffffffffff1673ffffffffffffffffffffffffffffffffffffffff1614620005f9576040517f08c379a0000000000000000000000000000000000000000000000000000000008152600401620005f09062000fa8565b60405180910390fd5b6200060e8262000608620008d5565b620009de565b5050565b60006200061e62000653565b73ffffffffffffffffffffffffffffffffffffffff168273ffffffffffffffffffffffffffffffffffffffff16149050919050565b60007f0000000000000000000000000000000000000000000000000000000000000000905090565b7f000000000000000000000000000000000000000000000000000000000000000081565b600080600084815260200190815260200160002060000160008373ffffffffffffffffffffffffffffffffffffffff1673ffffffffffffffffffffffffffffffffffffffff16815260200190815260200160002060009054906101000a900460ff16905092915050565b6000801b81565b7f000000000000000000000000000000000000000000000000000000000000000081565b6200073f8262000455565b6200074a81620007c6565b620007568383620008e6565b50505050565b60007f01ffc9a7000000000000000000000000000000000000000000000000000000007bffffffffffffffffffffffffffffffffffffffffffffffffffffffff1916827bffffffffffffffffffffffffffffffffffffffffffffffffffffffff1916149050919050565b620007db81620007d5620008d5565b62000b32565b50565b6000620007ec83836200069f565b620008ca57600160008085815260200190815260200160002060000160008473ffffffffffffffffffffffffffffffffffffffff1673ffffffffffffffffffffffffffffffffffffffff16815260200190815260200160002060006101000a81548160ff02191690831515021790555062000866620008d5565b73ffffffffffffffffffffffffffffffffffffffff168273ffffffffffffffffffffffffffffffffffffffff16847f2f8788117e7eff1d82e926ec794901d17c78024a50270940304540a733656f0d60405160405180910390a460019050620008cf565b600090505b92915050565b6000620008e162000b88565b905090565b6000620008f483836200069f565b15620009d357600080600085815260200190815260200160002060000160008473ffffffffffffffffffffffffffffffffffffffff1673ffffffffffffffffffffffffffffffffffffffff16815260200190815260200160002060006101000a81548160ff0219169083151502179055506200096f620008d5565b73ffffffffffffffffffffffffffffffffffffffff168273ffffffffffffffffffffffffffffffffffffffff16847ff6391f5c32d9c69d2a47ea670b442974b53935d1edc7fd64eb21e047a839171b60405160405180910390a460019050620009d8565b600090505b92915050565b81600160006101000a81548163ffffffff021916908363ffffffff160217905550600081828462000a0e62000653565b7f00000000000000000000000000000000000000000000000000000000000000007f000000000000000000000000000000000000000000000000000000000000000060405162000a5e9062000c23565b62000a6f9695949392919062000fca565b604051809103906000f08015801562000a8c573d6000803e3d6000fd5b50905080600260008563ffffffff1663ffffffff16815260200190815260200160002060006101000a81548173ffffffffffffffffffffffffffffffffffffffff021916908373ffffffffffffffffffffffffffffffffffffffff1602179055508263ffffffff167f929be4f7daefbf16218cee1dcd5724b20d4b86f59e79b37318ce08f783935bd78260405162000b25919062000e1d565b60405180910390a2505050565b62000b3e82826200069f565b62000b845780826040517fe2517d3f00000000000000000000000000000000000000000000000000000000815260040162000b7b92919062001037565b60405180910390fd5b5050565b60008060003690509050600062000b9e62000c01565b905080821015801562000bb8575062000bb73362000612565b5b1562000bef5760003682840390809262000bd5939291906200106e565b9062000be29190620010f3565b60601c9250505062000bfe565b62000bf962000c12565b925050505b90565b600062000c0d62000c1a565b905090565b600033905090565b60006014905090565b614bc7806200115a83390190565b600080fd5b60007fffffffff0000000000000000000000000000000000000000000000000000000082169050919050565b62000c6d8162000c36565b811462000c7957600080fd5b50565b60008135905062000c8d8162000c62565b92915050565b60006020828403121562000cac5762000cab62000c31565b5b600062000cbc8482850162000c7c565b91505092915050565b60008115159050919050565b62000cdc8162000cc5565b82525050565b600060208201905062000cf9600083018462000cd1565b92915050565b600063ffffffff82169050919050565b62000d1a8162000cff565b82525050565b600060208201905062000d37600083018462000d0f565b92915050565b6000819050919050565b62000d528162000d3d565b82525050565b600060208201905062000d6f600083018462000d47565b92915050565b62000d808162000cff565b811462000d8c57600080fd5b50565b60008135905062000da08162000d75565b92915050565b60006020828403121562000dbf5762000dbe62000c31565b5b600062000dcf8482850162000d8f565b91505092915050565b600073ffffffffffffffffffffffffffffffffffffffff82169050919050565b600062000e058262000dd8565b9050919050565b62000e178162000df8565b82525050565b600060208201905062000e34600083018462000e0c565b92915050565b62000e458162000d3d565b811462000e5157600080fd5b50565b60008135905062000e658162000e3a565b92915050565b60006020828403121562000e845762000e8362000c31565b5b600062000e948482850162000e54565b91505092915050565b62000ea88162000df8565b811462000eb457600080fd5b50565b60008135905062000ec88162000e9d565b92915050565b6000806040838503121562000ee85762000ee762000c31565b5b600062000ef88582860162000e54565b925050602062000f0b8582860162000eb7565b9150509250929050565b60006020828403121562000f2e5762000f2d62000c31565b5b600062000f3e8482850162000eb7565b91505092915050565b600082825260208201905092915050565b7f706572696f642065786973747300000000000000000000000000000000000000600082015250565b600062000f90600d8362000f47565b915062000f9d8262000f58565b602082019050919050565b6000602082019050818103600083015262000fc38162000f81565b9050919050565b600060c08201905062000fe1600083018962000e0c565b62000ff0602083018862000e0c565b62000fff604083018762000d0f565b6200100e606083018662000e0c565b6200101d608083018562000e0c565b6200102c60a083018462000e0c565b979650505050505050565b60006040820190506200104e600083018562000e0c565b6200105d602083018462000d47565b9392505050565b600080fd5b600080fd5b6000808585111562001085576200108462001064565b5b8386111562001099576200109862001069565b5b6001850283019150848603905094509492505050565b600082905092915050565b60007fffffffffffffffffffffffffffffffffffffffff00000000000000000000000082169050919050565b600082821b905092915050565b6000620011018383620010af565b826200110e8135620010ba565b9250601482101562001151576200114c7fffffffffffffffffffffffffffffffffffffffff00000000000000000000000083601403600802620010e6565b831692505b50509291505056fe6101006040526000600660006101000a81548160ff021916908360028111156200002e576200002d62000489565b5b02179055503480156200004057600080fd5b5060405162004bc738038062004bc7833981810160405281019062000066919062000563565b826040518060400160405280601281526020017f50544241452d505520416c6c6f77616e636500000000000000000000000000008152506040518060400160405280600581526020017f50544241450000000000000000000000000000000000000000000000000000008152508160039081620000e4919062000879565b508060049081620000f6919062000879565b5050508073ffffffffffffffffffffffffffffffffffffffff1660808173ffffffffffffffffffffffffffffffffffffffff1681525050508363ffffffff1660a08163ffffffff16815250508173ffffffffffffffffffffffffffffffffffffffff1660c08173ffffffffffffffffffffffffffffffffffffffff16815250508073ffffffffffffffffffffffffffffffffffffffff1660e08173ffffffffffffffffffffffffffffffffffffffff1681525050620001bf6000801b87620001ff60201b60201c565b50620001f27f20b5f7ac978e5d6199de06401411960dfa81d2f762655f6206bdc61d46fc19e686620001ff60201b60201c565b5050505050505062000a48565b60006200021383836200030360201b60201c565b620002f85760016005600085815260200190815260200160002060000160008473ffffffffffffffffffffffffffffffffffffffff1673ffffffffffffffffffffffffffffffffffffffff16815260200190815260200160002060006101000a81548160ff021916908315150217905550620002946200036e60201b60201c565b73ffffffffffffffffffffffffffffffffffffffff168273ffffffffffffffffffffffffffffffffffffffff16847f2f8788117e7eff1d82e926ec794901d17c78024a50270940304540a733656f0d60405160405180910390a460019050620002fd565b600090505b92915050565b60006005600084815260200190815260200160002060000160008373ffffffffffffffffffffffffffffffffffffffff1673ffffffffffffffffffffffffffffffffffffffff16815260200190815260200160002060009054906101000a900460ff16905092915050565b6000620003806200038560201b60201c565b905090565b600080600036905090506000620003a16200041060201b60201c565b9050808210158015620003c15750620003c0336200042760201b60201c565b5b15620003f857600036828403908092620003de939291906200096a565b90620003eb9190620009e2565b60601c925050506200040d565b620004086200046e60201b60201c565b925050505b90565b6000620004226200047660201b60201c565b905090565b6000620004396200047f60201b60201c565b73ffffffffffffffffffffffffffffffffffffffff168273ffffffffffffffffffffffffffffffffffffffff16149050919050565b600033905090565b60006014905090565b6000608051905090565b7f4e487b7100000000000000000000000000000000000000000000000000000000600052602160045260246000fd5b600080fd5b600073ffffffffffffffffffffffffffffffffffffffff82169050919050565b6000620004ea82620004bd565b9050919050565b620004fc81620004dd565b81146200050857600080fd5b50565b6000815190506200051c81620004f1565b92915050565b600063ffffffff82169050919050565b6200053d8162000522565b81146200054957600080fd5b50565b6000815190506200055d8162000532565b92915050565b60008060008060008060c08789031215620005835762000582620004b8565b5b60006200059389828a016200050b565b9650506020620005a689828a016200050b565b9550506040620005b989828a016200054c565b9450506060620005cc89828a016200050b565b9350506080620005df89828a016200050b565b92505060a0620005f289828a016200050b565b9150509295509295509295565b600081519050919050565b7f4e487b7100000000000000000000000000000000000000000000000000000000600052604160045260246000fd5b7f4e487b7100000000000000000000000000000000000000000000000000000000600052602260045260246000fd5b600060028204905060018216806200068157607f821691505b60208210810362000697576200069662000639565b5b50919050565b60008190508160005260206000209050919050565b60006020601f8301049050919050565b600082821b905092915050565b600060088302620007017fffffffffffffffffffffffffffffffffffffffffffffffffffffffffffffffff82620006c2565b6200070d8683620006c2565b95508019841693508086168417925050509392505050565b6000819050919050565b6000819050919050565b60006200075a620007546200074e8462000725565b6200072f565b62000725565b9050919050565b6000819050919050565b620007768362000739565b6200078e620007858262000761565b848454620006cf565b825550505050565b600090565b620007a562000796565b620007b28184846200076b565b505050565b5b81811015620007da57620007ce6000826200079b565b600181019050620007b8565b5050565b601f8211156200082957620007f3816200069d565b620007fe84620006b2565b810160208510156200080e578190505b620008266200081d85620006b2565b830182620007b7565b50505b505050565b600082821c905092915050565b60006200084e600019846008026200082e565b1980831691505092915050565b60006200086983836200083b565b9150826002028217905092915050565b6200088482620005ff565b67ffffffffffffffff811115620008a0576200089f6200060a565b5b620008ac825462000668565b620008b9828285620007de565b600060209050601f831160018114620008f15760008415620008dc578287015190505b620008e885826200085b565b86555062000958565b601f19841662000901866200069d565b60005b828110156200092b5784890151825560018201915060208501945060208101905062000904565b868310156200094b578489015162000947601f8916826200083b565b8355505b6001600288020188555050505b505050505050565b600080fd5b600080fd5b6000808585111562000981576200098062000960565b5b8386111562000995576200099462000965565b5b6001850283019150848603905094509492505050565b600082905092915050565b60007fffffffffffffffffffffffffffffffffffffffff00000000000000000000000082169050919050565b6000620009f08383620009ab565b82620009fd8135620009b6565b9250601482101562000a405762000a3b7fffffffffffffffffffffffffffffffffffffffff00000000000000000000000083601403600802620006c2565b831692505b505092915050565b60805160a05160c05160e0516140f862000acf6000396000818161070f01528181610c3601528181610d4d0152610de501526000818161084c015281816110940152611caf015260008181610888015281816109e501528181610cdc01528181610f9b0152818161130b015281816115d60152611ceb0152600061106e01526140f86000f3fe608060405234801561001057600080fd5b50600436106102115760003560e01c806370a0823111610125578063ae4d3b5c116100ad578063d547741f1161007c578063d547741f14610645578063dd62ed3e14610661578063ef78d4fd14610691578063f23a6e61146106af578063f93278b5146106df57610211565b8063ae4d3b5c146105e5578063b71c47a2146105ef578063b78b52df146105f9578063bc197c811461061557610211565b806391d14854116100f457806391d148541461051957806395d89b41146105495780639679f81214610567578063a217fddf14610597578063a9059cbb146105b557610211565b806370a082311461047d5780637da0a877146104ad5780637dc0d1d0146104cb5780638857159a146104e957610211565b806323073b5d116101a8578063313ce56711610177578063313ce567146103ed57806336568abe1461040b57806340f4afd6146104275780634bb278f314610443578063572b6c051461044d57610211565b806323073b5d1461033c57806323b872dd14610371578063248a9ca3146103a15780632f2ff15d146103d157610211565b8063144bf589116101e4578063144bf589146102b25780631586f91b146102d057806318160ddd14610300578063200d2ed21461031e57610211565b806301ffc9a7146102165780630680a20e1461024657806306fdde0314610264578063095ea7b314610282575b600080fd5b610230600480360381019061022b9190612880565b6106fb565b60405161023d91906128c8565b60405180910390f35b61024e61070d565b60405161025b9190612962565b60405180910390f35b61026c610731565b6040516102799190612a0d565b60405180910390f35b61029c60048036038101906102979190612aa3565b6107c3565b6040516102a991906128c8565b60405180910390f35b6102ba6107e6565b6040516102c79190612afc565b60405180910390f35b6102ea60048036038101906102e59190612b17565b61080a565b6040516102f79190612b53565b60405180910390f35b610308610822565b6040516103159190612b53565b60405180910390f35b61032661082c565b6040516103339190612be5565b60405180910390f35b61035660048036038101906103519190612b17565b61083f565b60405161036896959493929190612c67565b60405180910390f35b61038b60048036038101906103869190612cc8565b610a2a565b60405161039891906128c8565b60405180910390f35b6103bb60048036038101906103b69190612d47565b610a59565b6040516103c89190612afc565b60405180910390f35b6103eb60048036038101906103e69190612d74565b610a79565b005b6103f5610a9b565b6040516104029190612dd0565b60405180910390f35b61042560048036038101906104209190612d74565b610aa4565b005b610441600480360381019061043c9190612e50565b610b1f565b005b61044b610eae565b005b61046760048036038101906104629190612b17565b610fe3565b60405161047491906128c8565b60405180910390f35b61049760048036038101906104929190612b17565b611022565b6040516104a49190612b53565b60405180910390f35b6104b561106a565b6040516104c29190612ee0565b60405180910390f35b6104d3611092565b6040516104e09190612f1c565b60405180910390f35b61050360048036038101906104fe9190612b17565b6110b6565b60405161051091906128c8565b60405180910390f35b610533600480360381019061052e9190612d74565b6110d6565b60405161054091906128c8565b60405180910390f35b610551611141565b60405161055e9190612a0d565b60405180910390f35b610581600480360381019061057c9190612b17565b6111d3565b60405161058e9190612f37565b60405180910390f35b61059f6111f3565b6040516105ac9190612afc565b60405180910390f35b6105cf60048036038101906105ca9190612aa3565b6111fa565b6040516105dc91906128c8565b60405180910390f35b6105ed61121d565b005b6105f7611353565b005b610613600480360381019061060e9190612aa3565b611367565b005b61062f600480360381019061062a9190613145565b611516565b60405161063c9190613223565b60405180910390f35b61065f600480360381019061065a9190612d74565b61152b565b005b61067b6004803603810190610676919061323e565b61154d565b6040516106889190612b53565b60405180910390f35b6106996115d4565b6040516106a6919061327e565b60405180910390f35b6106c960048036038101906106c49190613299565b6115f8565b6040516106d69190613223565b60405180910390f35b6106f960048036038101906106f49190613386565b61160d565b005b600061070682611818565b9050919050565b7f000000000000000000000000000000000000000000000000000000000000000081565b60606003805461074090613415565b80601f016020809104026020016040519081016040528092919081815260200182805461076c90613415565b80156107b95780601f1061078e576101008083540402835291602001916107b9565b820191906000526020600020905b81548152906001019060200180831161079c57829003601f168201915b5050505050905090565b6000806107ce611892565b90506107db8185856118a1565b600191505092915050565b7f20b5f7ac978e5d6199de06401411960dfa81d2f762655f6206bdc61d46fc19e681565b60076020528060005260406000206000915090505481565b6000600254905090565b600660009054906101000a900460ff1681565b60008060008060008060007f000000000000000000000000000000000000000000000000000000000000000073ffffffffffffffffffffffffffffffffffffffff166345e1b42c7f00000000000000000000000000000000000000000000000000000000000000008a6040518363ffffffff1660e01b81526004016108c5929190613446565b602060405180830381865afa1580156108e2573d6000803e3d6000fd5b505050506040513d601f19601f820116820180604052508101906109069190613484565b90506000600760008a73ffffffffffffffffffffffffffffffffffffffff1673ffffffffffffffffffffffffffffffffffffffff168152602001908152602001600020549050600081831161095c576000610969565b818361096891906134e0565b5b90506000600860008c73ffffffffffffffffffffffffffffffffffffffff1673ffffffffffffffffffffffffffffffffffffffff16815260200190815260200160002060009054906101000a900460ff169050600084036109cd57600090506109e3565b8383106109dd57600290506109e2565b600190505b5b7f0000000000000000000000000000000000000000000000000000000000000000610a0d8c611022565b848685859950995099509950995099505050505091939550919395565b600080610a35611892565b9050610a428582856118b3565b610a4d858585611948565b60019150509392505050565b600060056000838152602001908152602001600020600101549050919050565b610a8282610a59565b610a8b81611a3c565b610a958383611a50565b50505050565b60006012905090565b610aac611892565b73ffffffffffffffffffffffffffffffffffffffff168173ffffffffffffffffffffffffffffffffffffffff1614610b10576040517f6697b23200000000000000000000000000000000000000000000000000000000815260040160405180910390fd5b610b1a8282611b42565b505050565b6000828290508585905014610b69576040517f08c379a0000000000000000000000000000000000000000000000000000000008152600401610b6090613560565b60405180910390fd5b60016002811115610b7d57610b7c612b6e565b5b600660009054906101000a900460ff166002811115610b9f57610b9e612b6e565b5b14610bdf576040517f08c379a0000000000000000000000000000000000000000000000000000000008152600401610bd6906135f2565b60405180910390fd5b60005b85859050811015610e95576000868683818110610c0257610c01613612565b5b9050602002013590506000858584818110610c2057610c1f613612565b5b9050602002013590506000811115610e805760007f000000000000000000000000000000000000000000000000000000000000000073ffffffffffffffffffffffffffffffffffffffff16631655bfbe846040518263ffffffff1660e01b8152600401610c8d9190612b53565b600060405180830381865afa158015610caa573d6000803e3d6000fd5b505050506040513d6000823e3d601f19601f82011682018060405250810190610cd3919061386c565b505050505090507f000000000000000000000000000000000000000000000000000000000000000063ffffffff16816020015161ffff161115610d4b576040517f08c379a0000000000000000000000000000000000000000000000000000000008152600401610d4290613961565b60405180910390fd5b7f000000000000000000000000000000000000000000000000000000000000000073ffffffffffffffffffffffffffffffffffffffff1663f242432a610d8f611892565b3086866040518563ffffffff1660e01b8152600401610db194939291906139b8565b600060405180830381600087803b158015610dcb57600080fd5b505af1158015610ddf573d6000803e3d6000fd5b505050507f000000000000000000000000000000000000000000000000000000000000000073ffffffffffffffffffffffffffffffffffffffff1663437d486284846040518363ffffffff1660e01b8152600401610e3e929190613a10565b600060405180830381600087803b158015610e5857600080fd5b505af1158015610e6c573d6000803e3d6000fd5b505050508185610e7c9190613a39565b9450505b50508080610e8d90613a6d565b915050610be2565b50610ea7610ea1611892565b82611c35565b5050505050565b7f20b5f7ac978e5d6199de06401411960dfa81d2f762655f6206bdc61d46fc19e6610ed881611a3c565b600280811115610eeb57610eea612b6e565b5b600660009054906101000a900460ff166002811115610f0d57610f0c612b6e565b5b03610f4d576040517f08c379a0000000000000000000000000000000000000000000000000000000008152600401610f4490613b01565b60405180910390fd5b6002600660006101000a81548160ff02191690836002811115610f7357610f72612b6e565b5b02179055507f83ff33f831ff8d637dfebe12e813581690e41d25f854fb342d4a2cfe1999e62c7f0000000000000000000000000000000000000000000000000000000000000000600660009054906101000a900460ff16604051610fd8929190613b21565b60405180910390a150565b6000610fed61106a565b73ffffffffffffffffffffffffffffffffffffffff168273ffffffffffffffffffffffffffffffffffffffff16149050919050565b60008060008373ffffffffffffffffffffffffffffffffffffffff1673ffffffffffffffffffffffffffffffffffffffff168152602001908152602001600020549050919050565b60007f0000000000000000000000000000000000000000000000000000000000000000905090565b7f000000000000000000000000000000000000000000000000000000000000000081565b60096020528060005260406000206000915054906101000a900460ff1681565b60006005600084815260200190815260200160002060000160008373ffffffffffffffffffffffffffffffffffffffff1673ffffffffffffffffffffffffffffffffffffffff16815260200190815260200160002060009054906101000a900460ff16905092915050565b60606004805461115090613415565b80601f016020809104026020016040519081016040528092919081815260200182805461117c90613415565b80156111c95780601f1061119e576101008083540402835291602001916111c9565b820191906000526020600020905b8154815290600101906020018083116111ac57829003601f168201915b5050505050905090565b60086020528060005260406000206000915054906101000a900460ff1681565b6000801b81565b600080611205611892565b9050611212818585611948565b600191505092915050565b7f20b5f7ac978e5d6199de06401411960dfa81d2f762655f6206bdc61d46fc19e661124781611a3c565b6000600281111561125b5761125a612b6e565b5b600660009054906101000a900460ff16600281111561127d5761127c612b6e565b5b146112bd576040517f08c379a00000000000000000000000000000000000000000000000000000000081526004016112b490613b96565b60405180910390fd5b6001600660006101000a81548160ff021916908360028111156112e3576112e2612b6e565b5b02179055507f83ff33f831ff8d637dfebe12e813581690e41d25f854fb342d4a2cfe1999e62c7f0000000000000000000000000000000000000000000000000000000000000000600660009054906101000a900460ff16604051611348929190613b21565b60405180910390a150565b61136561135e611892565b6000611c35565b565b7f20b5f7ac978e5d6199de06401411960dfa81d2f762655f6206bdc61d46fc19e661139181611a3c565b600060028111156113a5576113a4612b6e565b5b600660009054906101000a900460ff1660028111156113c7576113c6612b6e565b5b14611407576040517f08c379a00000000000000000000000000000000000000000000000000000000081526004016113fe90613c02565b60405180910390fd5b600073ffffffffffffffffffffffffffffffffffffffff168373ffffffffffffffffffffffffffffffffffffffff1603611476576040517f08c379a000000000000000000000000000000000000000000000000000000000815260040161146d90613c6e565b60405180910390fd5b600082116114b9576040517f08c379a00000000000000000000000000000000000000000000000000000000081526004016114b090613cda565b60405180910390fd5b6114c3838361205d565b8273ffffffffffffffffffffffffffffffffffffffff167f472f36e28bb47edb7c69c9e2ac00a77c66b505df54e9c818ac57110b0629e8c3836040516115099190612b53565b60405180910390a2505050565b600063bc197c8160e01b905095945050505050565b61153482610a59565b61153d81611a3c565b6115478383611b42565b50505050565b6000600160008473ffffffffffffffffffffffffffffffffffffffff1673ffffffffffffffffffffffffffffffffffffffff16815260200190815260200160002060008373ffffffffffffffffffffffffffffffffffffffff1673ffffffffffffffffffffffffffffffffffffffff16815260200190815260200160002054905092915050565b7f000000000000000000000000000000000000000000000000000000000000000081565b600063f23a6e6160e01b905095945050505050565b7f20b5f7ac978e5d6199de06401411960dfa81d2f762655f6206bdc61d46fc19e661163781611a3c565b6000600281111561164b5761164a612b6e565b5b600660009054906101000a900460ff16600281111561166d5761166c612b6e565b5b146116ad576040517f08c379a00000000000000000000000000000000000000000000000000000000081526004016116a490613c02565b60405180910390fd5b600082116116f0576040517f08c379a00000000000000000000000000000000000000000000000000000000081526004016116e790613cda565b60405180910390fd5b60008484905011611736576040517f08c379a000000000000000000000000000000000000000000000000000000000815260040161172d90613d46565b60405180910390fd5b60005b8484905081101561181157600085858381811061175957611758613612565b5b905060200201602081019061176e9190612b17565b9050600073ffffffffffffffffffffffffffffffffffffffff168173ffffffffffffffffffffffffffffffffffffffff16146117fd576117ae818561205d565b8073ffffffffffffffffffffffffffffffffffffffff167f472f36e28bb47edb7c69c9e2ac00a77c66b505df54e9c818ac57110b0629e8c3856040516117f49190612b53565b60405180910390a25b50808061180990613a6d565b915050611739565b5050505050565b60007f4e2312e0000000000000000000000000000000000000000000000000000000007bffffffffffffffffffffffffffffffffffffffffffffffffffffffff1916827bffffffffffffffffffffffffffffffffffffffffffffffffffffffff1916148061188b575061188a826120df565b5b9050919050565b600061189c612159565b905090565b6118ae83838360016121c5565b505050565b60006118bf848461154d565b90507fffffffffffffffffffffffffffffffffffffffffffffffffffffffffffffffff8110156119425781811015611932578281836040517ffb8f41b200000000000000000000000000000000000000000000000000000000815260040161192993929190613d66565b60405180910390fd5b611941848484840360006121c5565b5b50505050565b600073ffffffffffffffffffffffffffffffffffffffff168373ffffffffffffffffffffffffffffffffffffffff16036119ba5760006040517f96c6fd1e0000000000000000000000000000000000000000000000000000000081526004016119b19190612ee0565b60405180910390fd5b600073ffffffffffffffffffffffffffffffffffffffff168273ffffffffffffffffffffffffffffffffffffffff1603611a2c5760006040517fec442f05000000000000000000000000000000000000000000000000000000008152600401611a239190612ee0565b60405180910390fd5b611a3783838361239c565b505050565b611a4d81611a48611892565b612492565b50565b6000611a5c83836110d6565b611b375760016005600085815260200190815260200160002060000160008473ffffffffffffffffffffffffffffffffffffffff1673ffffffffffffffffffffffffffffffffffffffff16815260200190815260200160002060006101000a81548160ff021916908315150217905550611ad4611892565b73ffffffffffffffffffffffffffffffffffffffff168273ffffffffffffffffffffffffffffffffffffffff16847f2f8788117e7eff1d82e926ec794901d17c78024a50270940304540a733656f0d60405160405180910390a460019050611b3c565b600090505b92915050565b6000611b4e83836110d6565b15611c2a5760006005600085815260200190815260200160002060000160008473ffffffffffffffffffffffffffffffffffffffff1673ffffffffffffffffffffffffffffffffffffffff16815260200190815260200160002060006101000a81548160ff021916908315150217905550611bc7611892565b73ffffffffffffffffffffffffffffffffffffffff168273ffffffffffffffffffffffffffffffffffffffff16847ff6391f5c32d9c69d2a47ea670b442974b53935d1edc7fd64eb21e047a839171b60405160405180910390a460019050611c2f565b600090505b92915050565b60016002811115611c4957611c48612b6e565b5b600660009054906101000a900460ff166002811115611c6b57611c6a612b6e565b5b14611cab576040517f08c379a0000000000000000000000000000000000000000000000000000000008152600401611ca2906135f2565b60405180910390fd5b60007f000000000000000000000000000000000000000000000000000000000000000073ffffffffffffffffffffffffffffffffffffffff166345e1b42c7f0000000000000000000000000000000000000000000000000000000000000000856040518363ffffffff1660e01b8152600401611d28929190613446565b602060405180830381865afa158015611d45573d6000803e3d6000fd5b505050506040513d601f19601f82011682018060405250810190611d699190613484565b905060008111611dae576040517f08c379a0000000000000000000000000000000000000000000000000000000008152600401611da590613de9565b60405180910390fd5b600960008473ffffffffffffffffffffffffffffffffffffffff1673ffffffffffffffffffffffffffffffffffffffff16815260200190815260200160002060009054906101000a900460ff1615611e3b576040517f08c379a0000000000000000000000000000000000000000000000000000000008152600401611e3290613e55565b60405180910390fd5b600082821115611e54578282611e5191906134e0565b90505b6000811115611eb35780611e6785611022565b1015611ea8576040517f08c379a0000000000000000000000000000000000000000000000000000000008152600401611e9f90613ec1565b60405180910390fd5b611eb284826124e3565b5b81600760008673ffffffffffffffffffffffffffffffffffffffff1673ffffffffffffffffffffffffffffffffffffffff168152602001908152602001600020819055506001600960008673ffffffffffffffffffffffffffffffffffffffff1673ffffffffffffffffffffffffffffffffffffffff16815260200190815260200160002060006101000a81548160ff0219169083151502179055506002600860008673ffffffffffffffffffffffffffffffffffffffff1673ffffffffffffffffffffffffffffffffffffffff16815260200190815260200160002060006101000a81548160ff02191690836002811115611fb257611fb1612b6e565b5b02179055508373ffffffffffffffffffffffffffffffffffffffff167fea6c029757711e3bf5e8958ba57d94459b2e5b84a40eed9d21e4390e1e1f6e866002604051611ffe9190612f37565b60405180910390a28373ffffffffffffffffffffffffffffffffffffffff167fcd3331a9bec0aed59a9fbe480a5b8e9f713e86e4b4105ac2628cfe4b9d6a6e7583600060405161204f929190613f1c565b60405180910390a250505050565b600073ffffffffffffffffffffffffffffffffffffffff168273ffffffffffffffffffffffffffffffffffffffff16036120cf5760006040517fec442f050000000000000000000000000000000000000000000000000000000081526004016120c69190612ee0565b60405180910390fd5b6120db6000838361239c565b5050565b60007f7965db0b000000000000000000000000000000000000000000000000000000007bffffffffffffffffffffffffffffffffffffffffffffffffffffffff1916827bffffffffffffffffffffffffffffffffffffffffffffffffffffffff19161480612152575061215182612565565b5b9050919050565b60008060003690509050600061216d6125cf565b9050808210158015612184575061218333610fe3565b5b156121b55760003682840390809261219e93929190613f4f565b906121a99190613fce565b60601c925050506121c2565b6121bd6125de565b925050505b90565b600073ffffffffffffffffffffffffffffffffffffffff168473ffffffffffffffffffffffffffffffffffffffff16036122375760006040517fe602df0500000000000000000000000000000000000000000000000000000000815260040161222e9190612ee0565b60405180910390fd5b600073ffffffffffffffffffffffffffffffffffffffff168373ffffffffffffffffffffffffffffffffffffffff16036122a95760006040517f94280d620000000000000000000000000000000000000000000000000000000081526004016122a09190612ee0565b60405180910390fd5b81600160008673ffffffffffffffffffffffffffffffffffffffff1673ffffffffffffffffffffffffffffffffffffffff16815260200190815260200160002060008573ffffffffffffffffffffffffffffffffffffffff1673ffffffffffffffffffffffffffffffffffffffff168152602001908152602001600020819055508015612396578273ffffffffffffffffffffffffffffffffffffffff168473ffffffffffffffffffffffffffffffffffffffff167f8c5be1e5ebec7d5bd14f71427d1e84f3dd0314c0f7b2291e5b200ac8c7c3b9258460405161238d9190612b53565b60405180910390a35b50505050565b600073ffffffffffffffffffffffffffffffffffffffff168373ffffffffffffffffffffffffffffffffffffffff16141580156124065750600073ffffffffffffffffffffffffffffffffffffffff168273ffffffffffffffffffffffffffffffffffffffff1614155b15612482576000600281111561241f5761241e612b6e565b5b600660009054906101000a900460ff16600281111561244157612440612b6e565b5b14612481576040517f08c379a000000000000000000000000000000000000000000000000000000000815260040161247890614079565b60405180910390fd5b5b61248d8383836125e6565b505050565b61249c82826110d6565b6124df5780826040517fe2517d3f0000000000000000000000000000000000000000000000000000000081526004016124d6929190614099565b60405180910390fd5b5050565b600073ffffffffffffffffffffffffffffffffffffffff168273ffffffffffffffffffffffffffffffffffffffff16036125555760006040517f96c6fd1e00000000000000000000000000000000000000000000000000000000815260040161254c9190612ee0565b60405180910390fd5b6125618260008361239c565b5050565b60007f01ffc9a7000000000000000000000000000000000000000000000000000000007bffffffffffffffffffffffffffffffffffffffffffffffffffffffff1916827bffffffffffffffffffffffffffffffffffffffffffffffffffffffff1916149050919050565b60006125d961280b565b905090565b600033905090565b600073ffffffffffffffffffffffffffffffffffffffff168373ffffffffffffffffffffffffffffffffffffffff160361263857806002600082825461262c9190613a39565b9250508190555061270b565b60008060008573ffffffffffffffffffffffffffffffffffffffff1673ffffffffffffffffffffffffffffffffffffffff168152602001908152602001600020549050818110156126c4578381836040517fe450d38c0000000000000000000000000000000000000000000000000000000081526004016126bb93929190613d66565b60405180910390fd5b8181036000808673ffffffffffffffffffffffffffffffffffffffff1673ffffffffffffffffffffffffffffffffffffffff16815260200190815260200160002081905550505b600073ffffffffffffffffffffffffffffffffffffffff168273ffffffffffffffffffffffffffffffffffffffff160361275457806002600082825403925050819055506127a1565b806000808473ffffffffffffffffffffffffffffffffffffffff1673ffffffffffffffffffffffffffffffffffffffff168152602001908152602001600020600082825401925050819055505b8173ffffffffffffffffffffffffffffffffffffffff168373ffffffffffffffffffffffffffffffffffffffff167fddf252ad1be2c89b69c2b068fc378daa952ba7f163c4a11628f55a4df523b3ef836040516127fe9190612b53565b60405180910390a3505050565b60006014905090565b6000604051905090565b600080fd5b600080fd5b60007fffffffff0000000000000000000000000000000000000000000000000000000082169050919050565b61285d81612828565b811461286857600080fd5b50565b60008135905061287a81612854565b92915050565b6000602082840312156128965761289561281e565b5b60006128a48482850161286b565b91505092915050565b60008115159050919050565b6128c2816128ad565b82525050565b60006020820190506128dd60008301846128b9565b92915050565b600073ffffffffffffffffffffffffffffffffffffffff82169050919050565b6000819050919050565b600061292861292361291e846128e3565b612903565b6128e3565b9050919050565b600061293a8261290d565b9050919050565b600061294c8261292f565b9050919050565b61295c81612941565b82525050565b60006020820190506129776000830184612953565b92915050565b600081519050919050565b600082825260208201905092915050565b60005b838110156129b757808201518184015260208101905061299c565b60008484015250505050565b6000601f19601f8301169050919050565b60006129df8261297d565b6129e98185612988565b93506129f9818560208601612999565b612a02816129c3565b840191505092915050565b60006020820190508181036000830152612a2781846129d4565b905092915050565b6000612a3a826128e3565b9050919050565b612a4a81612a2f565b8114612a5557600080fd5b50565b600081359050612a6781612a41565b92915050565b6000819050919050565b612a8081612a6d565b8114612a8b57600080fd5b50565b600081359050612a9d81612a77565b92915050565b60008060408385031215612aba57612ab961281e565b5b6000612ac885828601612a58565b9250506020612ad985828601612a8e565b9150509250929050565b6000819050919050565b612af681612ae3565b82525050565b6000602082019050612b116000830184612aed565b92915050565b600060208284031215612b2d57612b2c61281e565b5b6000612b3b84828501612a58565b91505092915050565b612b4d81612a6d565b82525050565b6000602082019050612b686000830184612b44565b92915050565b7f4e487b7100000000000000000000000000000000000000000000000000000000600052602160045260246000fd5b60038110612bae57612bad612b6e565b5b50565b6000819050612bbf82612b9d565b919050565b6000612bcf82612bb1565b9050919050565b612bdf81612bc4565b82525050565b6000602082019050612bfa6000830184612bd6565b92915050565b600063ffffffff82169050919050565b612c1981612c00565b82525050565b60038110612c3057612c2f612b6e565b5b50565b6000819050612c4182612c1f565b919050565b6000612c5182612c33565b9050919050565b612c6181612c46565b82525050565b600060c082019050612c7c6000830189612c10565b612c896020830188612b44565b612c966040830187612b44565b612ca36060830186612b44565b612cb06080830185612b44565b612cbd60a0830184612c58565b979650505050505050565b600080600060608486031215612ce157612ce061281e565b5b6000612cef86828701612a58565b9350506020612d0086828701612a58565b9250506040612d1186828701612a8e565b9150509250925092565b612d2481612ae3565b8114612d2f57600080fd5b50565b600081359050612d4181612d1b565b92915050565b600060208284031215612d5d57612d5c61281e565b5b6000612d6b84828501612d32565b91505092915050565b60008060408385031215612d8b57612d8a61281e565b5b6000612d9985828601612d32565b9250506020612daa85828601612a58565b9150509250929050565b600060ff82169050919050565b612dca81612db4565b82525050565b6000602082019050612de56000830184612dc1565b92915050565b600080fd5b600080fd5b600080fd5b60008083601f840112612e1057612e0f612deb565b5b8235905067ffffffffffffffff811115612e2d57612e2c612df0565b5b602083019150836020820283011115612e4957612e48612df5565b5b9250929050565b60008060008060408587031215612e6a57612e6961281e565b5b600085013567ffffffffffffffff811115612e8857612e87612823565b5b612e9487828801612dfa565b9450945050602085013567ffffffffffffffff811115612eb757612eb6612823565b5b612ec387828801612dfa565b925092505092959194509250565b612eda81612a2f565b82525050565b6000602082019050612ef56000830184612ed1565b92915050565b6000612f068261292f565b9050919050565b612f1681612efb565b82525050565b6000602082019050612f316000830184612f0d565b92915050565b6000602082019050612f4c6000830184612c58565b92915050565b7f4e487b7100000000000000000000000000000000000000000000000000000000600052604160045260246000fd5b612f8a826129c3565b810181811067ffffffffffffffff82111715612fa957612fa8612f52565b5b80604052505050565b6000612fbc612814565b9050612fc88282612f81565b919050565b600067ffffffffffffffff821115612fe857612fe7612f52565b5b602082029050602081019050919050565b600061300c61300784612fcd565b612fb2565b9050808382526020820190506020840283018581111561302f5761302e612df5565b5b835b8181101561305857806130448882612a8e565b845260208401935050602081019050613031565b5050509392505050565b600082601f83011261307757613076612deb565b5b8135613087848260208601612ff9565b91505092915050565b600080fd5b600067ffffffffffffffff8211156130b0576130af612f52565b5b6130b9826129c3565b9050602081019050919050565b82818337600083830152505050565b60006130e86130e384613095565b612fb2565b90508281526020810184848401111561310457613103613090565b5b61310f8482856130c6565b509392505050565b600082601f83011261312c5761312b612deb565b5b813561313c8482602086016130d5565b91505092915050565b600080600080600060a086880312156131615761316061281e565b5b600061316f88828901612a58565b955050602061318088828901612a58565b945050604086013567ffffffffffffffff8111156131a1576131a0612823565b5b6131ad88828901613062565b935050606086013567ffffffffffffffff8111156131ce576131cd612823565b5b6131da88828901613062565b925050608086013567ffffffffffffffff8111156131fb576131fa612823565b5b61320788828901613117565b9150509295509295909350565b61321d81612828565b82525050565b60006020820190506132386000830184613214565b92915050565b600080604083850312156132555761325461281e565b5b600061326385828601612a58565b925050602061327485828601612a58565b9150509250929050565b60006020820190506132936000830184612c10565b92915050565b600080600080600060a086880312156132b5576132b461281e565b5b60006132c388828901612a58565b95505060206132d488828901612a58565b94505060406132e588828901612a8e565b93505060606132f688828901612a8e565b925050608086013567ffffffffffffffff81111561331757613316612823565b5b61332388828901613117565b9150509295509295909350565b60008083601f84011261334657613345612deb565b5b8235905067ffffffffffffffff81111561336357613362612df0565b5b60208301915083602082028301111561337f5761337e612df5565b5b9250929050565b60008060006040848603121561339f5761339e61281e565b5b600084013567ffffffffffffffff8111156133bd576133bc612823565b5b6133c986828701613330565b935093505060206133dc86828701612a8e565b9150509250925092565b7f4e487b7100000000000000000000000000000000000000000000000000000000600052602260045260246000fd5b6000600282049050600182168061342d57607f821691505b6020821081036134405761343f6133e6565b5b50919050565b600060408201905061345b6000830185612c10565b6134686020830184612ed1565b9392505050565b60008151905061347e81612a77565b92915050565b60006020828403121561349a5761349961281e565b5b60006134a88482850161346f565b91505092915050565b7f4e487b7100000000000000000000000000000000000000000000000000000000600052601160045260246000fd5b60006134eb82612a6d565b91506134f683612a6d565b925082820390508181111561350e5761350d6134b1565b5b92915050565b7f6c656e677468206d69736d617463680000000000000000000000000000000000600082015250565b600061354a600f83612988565b915061355582613514565b602082019050919050565b600060208201905081810360008301526135798161353d565b9050919050565b7f73757272656e646572206f6e6c7920616c6c6f77656420696e2061756469742060008201527f7068617365000000000000000000000000000000000000000000000000000000602082015250565b60006135dc602583612988565b91506135e782613580565b604082019050919050565b6000602082019050818103600083015261360b816135cf565b9050919050565b7f4e487b7100000000000000000000000000000000000000000000000000000000600052603260045260246000fd5b600080fd5b600080fd5b600067ffffffffffffffff82111561366657613665612f52565b5b61366f826129c3565b9050602081019050919050565b600061368f61368a8461364b565b612fb2565b9050828152602081018484840111156136ab576136aa613090565b5b6136b6848285612999565b509392505050565b600082601f8301126136d3576136d2612deb565b5b81516136e384826020860161367c565b91505092915050565b600061ffff82169050919050565b613703816136ec565b811461370e57600080fd5b50565b600081519050613720816136fa565b92915050565b60006080828403121561373c5761373b613641565b5b6137466080612fb2565b9050600082015167ffffffffffffffff81111561376657613765613646565b5b613772848285016136be565b600083015250602061378684828501613711565b602083015250604082015167ffffffffffffffff8111156137aa576137a9613646565b5b6137b6848285016136be565b604083015250606082015167ffffffffffffffff8111156137da576137d9613646565b5b6137e6848285016136be565b60608301525092915050565b600281106137ff57600080fd5b50565b600081519050613811816137f2565b92915050565b60008151905061382681612d1b565b92915050565b600067ffffffffffffffff82169050919050565b6138498161382c565b811461385457600080fd5b50565b60008151905061386681613840565b92915050565b60008060008060008060c087890312156138895761388861281e565b5b600087015167ffffffffffffffff8111156138a7576138a6612823565b5b6138b389828a01613726565b96505060206138c489828a01613802565b95505060406138d589828a01613817565b94505060606138e689828a01613857565b93505060806138f789828a01613857565b92505060a061390889828a0161346f565b9150509295509295509295565b7f746f6b656e2076696e7461676520746f6f206e65770000000000000000000000600082015250565b600061394b601583612988565b915061395682613915565b602082019050919050565b6000602082019050818103600083015261397a8161393e565b9050919050565b600082825260208201905092915050565b50565b60006139a2600083613981565b91506139ad82613992565b600082019050919050565b600060a0820190506139cd6000830187612ed1565b6139da6020830186612ed1565b6139e76040830185612b44565b6139f46060830184612b44565b8181036080830152613a0581613995565b905095945050505050565b6000604082019050613a256000830185612b44565b613a326020830184612b44565b9392505050565b6000613a4482612a6d565b9150613a4f83612a6d565b9250828201905080821115613a6757613a666134b1565b5b92915050565b6000613a7882612a6d565b91507fffffffffffffffffffffffffffffffffffffffffffffffffffffffffffffffff8203613aaa57613aa96134b1565b5b600182019050919050565b7f616c726561647920656e64656400000000000000000000000000000000000000600082015250565b6000613aeb600d83612988565b9150613af682613ab5565b602082019050919050565b60006020820190508181036000830152613b1a81613ade565b9050919050565b6000604082019050613b366000830185612c10565b613b436020830184612bd6565b9392505050565b7f6e6f742061637469766500000000000000000000000000000000000000000000600082015250565b6000613b80600a83612988565b9150613b8b82613b4a565b602082019050919050565b60006020820190508181036000830152613baf81613b73565b9050919050565b7f706572696f64206e6f7420616374697665000000000000000000000000000000600082015250565b6000613bec601183612988565b9150613bf782613bb6565b602082019050919050565b60006020820190508181036000830152613c1b81613bdf565b9050919050565b7f746f3d3000000000000000000000000000000000000000000000000000000000600082015250565b6000613c58600483612988565b9150613c6382613c22565b602082019050919050565b60006020820190508181036000830152613c8781613c4b565b9050919050565b7f616d6f756e743d30000000000000000000000000000000000000000000000000600082015250565b6000613cc4600883612988565b9150613ccf82613c8e565b602082019050919050565b60006020820190508181036000830152613cf381613cb7565b9050919050565b7f6e6f20726563697069656e747300000000000000000000000000000000000000600082015250565b6000613d30600d83612988565b9150613d3b82613cfa565b602082019050919050565b60006020820190508181036000830152613d5f81613d23565b9050919050565b6000606082019050613d7b6000830186612ed1565b613d886020830185612b44565b613d956040830184612b44565b949350505050565b7f6e6f20766572696669656420656d697373696f6e206461746100000000000000600082015250565b6000613dd3601983612988565b9150613dde82613d9d565b602082019050919050565b60006020820190508181036000830152613e0281613dc6565b9050919050565b7f616c72656164792073757272656e646572656400000000000000000000000000600082015250565b6000613e3f601383612988565b9150613e4a82613e09565b602082019050919050565b60006020820190508181036000830152613e6e81613e32565b9050919050565b7f696e73756666696369656e742050544241452062616c616e6365000000000000600082015250565b6000613eab601a83612988565b9150613eb682613e75565b602082019050919050565b60006020820190508181036000830152613eda81613e9e565b9050919050565b6000819050919050565b6000613f06613f01613efc84613ee1565b612903565b612a6d565b9050919050565b613f1681613eeb565b82525050565b6000604082019050613f316000830185612b44565b613f3e6020830184613f0d565b9392505050565b600080fd5b600080fd5b60008085851115613f6357613f62613f45565b5b83861115613f7457613f73613f4a565b5b6001850283019150848603905094509492505050565b600082905092915050565b60007fffffffffffffffffffffffffffffffffffffffff00000000000000000000000082169050919050565b600082821b905092915050565b6000613fda8383613f8a565b82613fe58135613f95565b92506014821015614025576140207fffffffffffffffffffffffffffffffffffffffff00000000000000000000000083601403600802613fc1565b831692505b505092915050565b7f7472616e73666572207265737472696374656400000000000000000000000000600082015250565b6000614063601383612988565b915061406e8261402d565b602082019050919050565b6000602082019050818103600083015261409281614056565b9050919050565b60006040820190506140ae6000830185612ed1565b6140bb6020830184612aed565b939250505056fea2646970667358221220f992103ca87e60804658422330b64da63fe8ab2f282c72df1917307cfa55111364736f6c63430008140033a2646970667358221220af46ac8945a8eb7d30e09f365d1585acccdff974c36a64cb2a18d8c8eb7c76ee64736f6c634300081400336101006040526000600660006101000a81548160ff021916908360028111156200002e576200002d62000489565b5b02179055503480156200004057600080fd5b5060405162004bc738038062004bc7833981810160405281019062000066919062000563565b826040518060400160405280601281526020017f50544241452d505520416c6c6f77616e636500000000000000000000000000008152506040518060400160405280600581526020017f50544241450000000000000000000000000000000000000000000000000000008152508160039081620000e4919062000879565b508060049081620000f6919062000879565b5050508073ffffffffffffffffffffffffffffffffffffffff1660808173ffffffffffffffffffffffffffffffffffffffff1681525050508363ffffffff1660a08163ffffffff16815250508173ffffffffffffffffffffffffffffffffffffffff1660c08173ffffffffffffffffffffffffffffffffffffffff16815250508073ffffffffffffffffffffffffffffffffffffffff1660e08173ffffffffffffffffffffffffffffffffffffffff1681525050620001bf6000801b87620001ff60201b60201c565b50620001f27f20b5f7ac978e5d6199de06401411960dfa81d2f762655f6206bdc61d46fc19e686620001ff60201b60201c565b5050505050505062000a48565b60006200021383836200030360201b60201c565b620002f85760016005600085815260200190815260200160002060000160008473ffffffffffffffffffffffffffffffffffffffff1673ffffffffffffffffffffffffffffffffffffffff16815260200190815260200160002060006101000a81548160ff021916908315150217905550620002946200036e60201b60201c565b73ffffffffffffffffffffffffffffffffffffffff168273ffffffffffffffffffffffffffffffffffffffff16847f2f8788117e7eff1d82e926ec794901d17c78024a50270940304540a733656f0d60405160405180910390a460019050620002fd565b600090505b92915050565b60006005600084815260200190815260200160002060000160008373ffffffffffffffffffffffffffffffffffffffff1673ffffffffffffffffffffffffffffffffffffffff16815260200190815260200160002060009054906101000a900460ff16905092915050565b6000620003806200038560201b60201c565b905090565b600080600036905090506000620003a16200041060201b60201c565b9050808210158015620003c15750620003c0336200042760201b60201c565b5b15620003f857600036828403908092620003de939291906200096a565b90620003eb9190620009e2565b60601c925050506200040d565b620004086200046e60201b60201c565b925050505b90565b6000620004226200047660201b60201c565b905090565b6000620004396200047f60201b60201c565b73ffffffffffffffffffffffffffffffffffffffff168273ffffffffffffffffffffffffffffffffffffffff16149050919050565b600033905090565b60006014905090565b6000608051905090565b7f4e487b7100000000000000000000000000000000000000000000000000000000600052602160045260246000fd5b600080fd5b600073ffffffffffffffffffffffffffffffffffffffff82169050919050565b6000620004ea82620004bd565b9050919050565b620004fc81620004dd565b81146200050857600080fd5b50565b6000815190506200051c81620004f1565b92915050565b600063ffffffff82169050919050565b6200053d8162000522565b81146200054957600080fd5b50565b6000815190506200055d8162000532565b92915050565b60008060008060008060c08789031215620005835762000582620004b8565b5b60006200059389828a016200050b565b9650506020620005a689828a016200050b565b9550506040620005b989828a016200054c565b9450506060620005cc89828a016200050b565b9350506080620005df89828a016200050b565b92505060a0620005f289828a016200050b565b9150509295509295509295565b600081519050919050565b7f4e487b7100000000000000000000000000000000000000000000000000000000600052604160045260246000fd5b7f4e487b7100000000000000000000000000000000000000000000000000000000600052602260045260246000fd5b600060028204905060018216806200068157607f821691505b60208210810362000697576200069662000639565b5b50919050565b60008190508160005260206000209050919050565b60006020601f8301049050919050565b600082821b905092915050565b600060088302620007017fffffffffffffffffffffffffffffffffffffffffffffffffffffffffffffffff82620006c2565b6200070d8683620006c2565b95508019841693508086168417925050509392505050565b6000819050919050565b6000819050919050565b60006200075a620007546200074e8462000725565b6200072f565b62000725565b9050919050565b6000819050919050565b620007768362000739565b6200078e620007858262000761565b848454620006cf565b825550505050565b600090565b620007a562000796565b620007b28184846200076b565b505050565b5b81811015620007da57620007ce6000826200079b565b600181019050620007b8565b5050565b601f8211156200082957620007f3816200069d565b620007fe84620006b2565b810160208510156200080e578190505b620008266200081d85620006b2565b830182620007b7565b50505b505050565b600082821c905092915050565b60006200084e600019846008026200082e565b1980831691505092915050565b60006200086983836200083b565b9150826002028217905092915050565b6200088482620005ff565b67ffffffffffffffff811115620008a0576200089f6200060a565b5b620008ac825462000668565b620008b9828285620007de565b600060209050601f831160018114620008f15760008415620008dc578287015190505b620008e885826200085b565b86555062000958565b601f19841662000901866200069d565b60005b828110156200092b5784890151825560018201915060208501945060208101905062000904565b868310156200094b578489015162000947601f8916826200083b565b8355505b6001600288020188555050505b505050505050565b600080fd5b600080fd5b6000808585111562000981576200098062000960565b5b8386111562000995576200099462000965565b5b6001850283019150848603905094509492505050565b600082905092915050565b60007fffffffffffffffffffffffffffffffffffffffff00000000000000000000000082169050919050565b6000620009f08383620009ab565b82620009fd8135620009b6565b9250601482101562000a405762000a3b7fffffffffffffffffffffffffffffffffffffffff00000000000000000000000083601403600802620006c2565b831692505b505092915050565b60805160a05160c05160e0516140f862000acf6000396000818161070f01528181610c3601528181610d4d0152610de501526000818161084c015281816110940152611caf015260008181610888015281816109e501528181610cdc01528181610f9b0152818161130b015281816115d60152611ceb0152600061106e01526140f86000f3fe608060405234801561001057600080fd5b50600436106102115760003560e01c806370a0823111610125578063ae4d3b5c116100ad578063d547741f1161007c578063d547741f14610645578063dd62ed3e14610661578063ef78d4fd14610691578063f23a6e61146106af578063f93278b5146106df57610211565b8063ae4d3b5c146105e5578063b71c47a2146105ef578063b78b52df146105f9578063bc197c811461061557610211565b806391d14854116100f457806391d148541461051957806395d89b41146105495780639679f81214610567578063a217fddf14610597578063a9059cbb146105b557610211565b806370a082311461047d5780637da0a877146104ad5780637dc0d1d0146104cb5780638857159a146104e957610211565b806323073b5d116101a8578063313ce56711610177578063313ce567146103ed57806336568abe1461040b57806340f4afd6146104275780634bb278f314610443578063572b6c051461044d57610211565b806323073b5d1461033c57806323b872dd14610371578063248a9ca3146103a15780632f2ff15d146103d157610211565b8063144bf589116101e4578063144bf589146102b25780631586f91b146102d057806318160ddd14610300578063200d2ed21461031e57610211565b806301ffc9a7146102165780630680a20e1461024657806306fdde0314610264578063095ea7b314610282575b600080fd5b610230600480360381019061022b9190612880565b6106fb565b60405161023d91906128c8565b60405180910390f35b61024e61070d565b60405161025b9190612962565b60405180910390f35b61026c610731565b6040516102799190612a0d565b60405180910390f35b61029c60048036038101906102979190612aa3565b6107c3565b6040516102a991906128c8565b60405180910390f35b6102ba6107e6565b6040516102c79190612afc565b60405180910390f35b6102ea60048036038101906102e59190612b17565b61080a565b6040516102f79190612b53565b60405180910390f35b610308610822565b6040516103159190612b53565b60405180910390f35b61032661082c565b6040516103339190612be5565b60405180910390f35b61035660048036038101906103519190612b17565b61083f565b60405161036896959493929190612c67565b60405180910390f35b61038b60048036038101906103869190612cc8565b610a2a565b60405161039891906128c8565b60405180910390f35b6103bb60048036038101906103b69190612d47565b610a59565b6040516103c89190612afc565b60405180910390f35b6103eb60048036038101906103e69190612d74565b610a79565b005b6103f5610a9b565b6040516104029190612dd0565b60405180910390f35b61042560048036038101906104209190612d74565b610aa4565b005b610441600480360381019061043c9190612e50565b610b1f565b005b61044b610eae565b005b61046760048036038101906104629190612b17565b610fe3565b60405161047491906128c8565b60405180910390f35b61049760048036038101906104929190612b17565b611022565b6040516104a49190612b53565b60405180910390f35b6104b561106a565b6040516104c29190612ee0565b60405180910390f35b6104d3611092565b6040516104e09190612f1c565b60405180910390f35b61050360048036038101906104fe9190612b17565b6110b6565b60405161051091906128c8565b60405180910390f35b610533600480360381019061052e9190612d74565b6110d6565b60405161054091906128c8565b60405180910390f35b610551611141565b60405161055e9190612a0d565b60405180910390f35b610581600480360381019061057c9190612b17565b6111d3565b60405161058e9190612f37565b60405180910390f35b61059f6111f3565b6040516105ac9190612afc565b60405180910390f35b6105cf60048036038101906105ca9190612aa3565b6111fa565b6040516105dc91906128c8565b60405180910390f35b6105ed61121d565b005b6105f7611353565b005b610613600480360381019061060e9190612aa3565b611367565b005b61062f600480360381019061062a9190613145565b611516565b60405161063c9190613223565b60405180910390f35b61065f600480360381019061065a9190612d74565b61152b565b005b61067b6004803603810190610676919061323e565b61154d565b6040516106889190612b53565b60405180910390f35b6106996115d4565b6040516106a6919061327e565b60405180910390f35b6106c960048036038101906106c49190613299565b6115f8565b6040516106d69190613223565b60405180910390f35b6106f960048036038101906106f49190613386565b61160d565b005b600061070682611818565b9050919050565b7f000000000000000000000000000000000000000000000000000000000000000081565b60606003805461074090613415565b80601f016020809104026020016040519081016040528092919081815260200182805461076c90613415565b80156107b95780601f1061078e576101008083540402835291602001916107b9565b820191906000526020600020905b81548152906001019060200180831161079c57829003601f168201915b5050505050905090565b6000806107ce611892565b90506107db8185856118a1565b600191505092915050565b7f20b5f7ac978e5d6199de06401411960dfa81d2f762655f6206bdc61d46fc19e681565b60076020528060005260406000206000915090505481565b6000600254905090565b600660009054906101000a900460ff1681565b60008060008060008060007f000000000000000000000000000000000000000000000000000000000000000073ffffffffffffffffffffffffffffffffffffffff166345e1b42c7f00000000000000000000000000000000000000000000000000000000000000008a6040518363ffffffff1660e01b81526004016108c5929190613446565b602060405180830381865afa1580156108e2573d6000803e3d6000fd5b505050506040513d601f19601f820116820180604052508101906109069190613484565b90506000600760008a73ffffffffffffffffffffffffffffffffffffffff1673ffffffffffffffffffffffffffffffffffffffff168152602001908152602001600020549050600081831161095c576000610969565b818361096891906134e0565b5b90506000600860008c73ffffffffffffffffffffffffffffffffffffffff1673ffffffffffffffffffffffffffffffffffffffff16815260200190815260200160002060009054906101000a900460ff169050600084036109cd57600090506109e3565b8383106109dd57600290506109e2565b600190505b5b7f0000000000000000000000000000000000000000000000000000000000000000610a0d8c611022565b848685859950995099509950995099505050505091939550919395565b600080610a35611892565b9050610a428582856118b3565b610a4d858585611948565b60019150509392505050565b600060056000838152602001908152602001600020600101549050919050565b610a8282610a59565b610a8b81611a3c565b610a958383611a50565b50505050565b60006012905090565b610aac611892565b73ffffffffffffffffffffffffffffffffffffffff168173ffffffffffffffffffffffffffffffffffffffff1614610b10576040517f6697b23200000000000000000000000000000000000000000000000000000000815260040160405180910390fd5b610b1a8282611b42565b505050565b6000828290508585905014610b69576040517f08c379a0000000000000000000000000000000000000000000000000000000008152600401610b6090613560565b60405180910390fd5b60016002811115610b7d57610b7c612b6e565b5b600660009054906101000a900460ff166002811115610b9f57610b9e612b6e565b5b14610bdf576040517f08c379a0000000000000000000000000000000000000000000000000000000008152600401610bd6906135f2565b60405180910390fd5b60005b85859050811015610e95576000868683818110610c0257610c01613612565b5b9050602002013590506000858584818110610c2057610c1f613612565b5b9050602002013590506000811115610e805760007f000000000000000000000000000000000000000000000000000000000000000073ffffffffffffffffffffffffffffffffffffffff16631655bfbe846040518263ffffffff1660e01b8152600401610c8d9190612b53565b600060405180830381865afa158015610caa573d6000803e3d6000fd5b505050506040513d6000823e3d601f19601f82011682018060405250810190610cd3919061386c565b505050505090507f000000000000000000000000000000000000000000000000000000000000000063ffffffff16816020015161ffff161115610d4b576040517f08c379a0000000000000000000000000000000000000000000000000000000008152600401610d4290613961565b60405180910390fd5b7f000000000000000000000000000000000000000000000000000000000000000073ffffffffffffffffffffffffffffffffffffffff1663f242432a610d8f611892565b3086866040518563ffffffff1660e01b8152600401610db194939291906139b8565b600060405180830381600087803b158015610dcb57600080fd5b505af1158015610ddf573d6000803e3d6000fd5b505050507f000000000000000000000000000000000000000000000000000000000000000073ffffffffffffffffffffffffffffffffffffffff1663437d486284846040518363ffffffff1660e01b8152600401610e3e929190613a10565b600060405180830381600087803b158015610e5857600080fd5b505af1158015610e6c573d6000803e3d6000fd5b505050508185610e7c9190613a39565b9450505b50508080610e8d90613a6d565b915050610be2565b50610ea7610ea1611892565b82611c35565b5050505050565b7f20b5f7ac978e5d6199de06401411960dfa81d2f762655f6206bdc61d46fc19e6610ed881611a3c565b600280811115610eeb57610eea612b6e565b5b600660009054906101000a900460ff166002811115610f0d57610f0c612b6e565b5b03610f4d576040517f08c379a0000000000000000000000000000000000000000000000000000000008152600401610f4490613b01565b60405180910390fd5b6002600660006101000a81548160ff02191690836002811115610f7357610f72612b6e565b5b02179055507f83ff33f831ff8d637dfebe12e813581690e41d25f854fb342d4a2cfe1999e62c7f0000000000000000000000000000000000000000000000000000000000000000600660009054906101000a900460ff16604051610fd8929190613b21565b60405180910390a150565b6000610fed61106a565b73ffffffffffffffffffffffffffffffffffffffff168273ffffffffffffffffffffffffffffffffffffffff16149050919050565b60008060008373ffffffffffffffffffffffffffffffffffffffff1673ffffffffffffffffffffffffffffffffffffffff168152602001908152602001600020549050919050565b60007f0000000000000000000000000000000000000000000000000000000000000000905090565b7f000000000000000000000000000000000000000000000000000000000000000081565b60096020528060005260406000206000915054906101000a900460ff1681565b60006005600084815260200190815260200160002060000160008373ffffffffffffffffffffffffffffffffffffffff1673ffffffffffffffffffffffffffffffffffffffff16815260200190815260200160002060009054906101000a900460ff16905092915050565b60606004805461115090613415565b80601f016020809104026020016040519081016040528092919081815260200182805461117c90613415565b80156111c95780601f1061119e576101008083540402835291602001916111c9565b820191906000526020600020905b8154815290600101906020018083116111ac57829003601f168201915b5050505050905090565b60086020528060005260406000206000915054906101000a900460ff1681565b6000801b81565b600080611205611892565b9050611212818585611948565b600191505092915050565b7f20b5f7ac978e5d6199de06401411960dfa81d2f762655f6206bdc61d46fc19e661124781611a3c565b6000600281111561125b5761125a612b6e565b5b600660009054906101000a900460ff16600281111561127d5761127c612b6e565b5b146112bd576040517f08c379a00000000000000000000000000000000000000000000000000000000081526004016112b490613b96565b60405180910390fd5b6001600660006101000a81548160ff021916908360028111156112e3576112e2612b6e565b5b02179055507f83ff33f831ff8d637dfebe12e813581690e41d25f854fb342d4a2cfe1999e62c7f0000000000000000000000000000000000000000000000000000000000000000600660009054906101000a900460ff16604051611348929190613b21565b60405180910390a150565b61136561135e611892565b6000611c35565b565b7f20b5f7ac978e5d6199de06401411960dfa81d2f762655f6206bdc61d46fc19e661139181611a3c565b600060028111156113a5576113a4612b6e565b5b600660009054906101000a900460ff1660028111156113c7576113c6612b6e565b5b14611407576040517f08c379a00000000000000000000000000000000000000000000000000000000081526004016113fe90613c02565b60405180910390fd5b600073ffffffffffffffffffffffffffffffffffffffff168373ffffffffffffffffffffffffffffffffffffffff1603611476576040517f08c379a000000000000000000000000000000000000000000000000000000000815260040161146d90613c6e565b60405180910390fd5b600082116114b9576040517f08c379a00000000000000000000000000000000000000000000000000000000081526004016114b090613cda565b60405180910390fd5b6114c3838361205d565b8273ffffffffffffffffffffffffffffffffffffffff167f472f36e28bb47edb7c69c9e2ac00a77c66b505df54e9c818ac57110b0629e8c3836040516115099190612b53565b60405180910390a2505050565b600063bc197c8160e01b905095945050505050565b61153482610a59565b61153d81611a3c565b6115478383611b42565b50505050565b6000600160008473ffffffffffffffffffffffffffffffffffffffff1673ffffffffffffffffffffffffffffffffffffffff16815260200190815260200160002060008373ffffffffffffffffffffffffffffffffffffffff1673ffffffffffffffffffffffffffffffffffffffff16815260200190815260200160002054905092915050565b7f000000000000000000000000000000000000000000000000000000000000000081565b600063f23a6e6160e01b905095945050505050565b7f20b5f7ac978e5d6199de06401411960dfa81d2f762655f6206bdc61d46fc19e661163781611a3c565b6000600281111561164b5761164a612b6e565b5b600660009054906101000a900460ff16600281111561166d5761166c612b6e565b5b146116ad576040517f08c379a00000000000000000000000000000000000000000000000000000000081526004016116a490613c02565b60405180910390fd5b600082116116f0576040517f08c379a00000000000000000000000000000000000000000000000000000000081526004016116e790613cda565b60405180910390fd5b60008484905011611736576040517f08c379a000000000000000000000000000000000000000000000000000000000815260040161172d90613d46565b60405180910390fd5b60005b8484905081101561181157600085858381811061175957611758613612565b5b905060200201602081019061176e9190612b17565b9050600073ffffffffffffffffffffffffffffffffffffffff168173ffffffffffffffffffffffffffffffffffffffff16146117fd576117ae818561205d565b8073ffffffffffffffffffffffffffffffffffffffff167f472f36e28bb47edb7c69c9e2ac00a77c66b505df54e9c818ac57110b0629e8c3856040516117f49190612b53565b60405180910390a25b50808061180990613a6d565b915050611739565b5050505050565b60007f4e2312e0000000000000000000000000000000000000000000000000000000007bffffffffffffffffffffffffffffffffffffffffffffffffffffffff1916827bffffffffffffffffffffffffffffffffffffffffffffffffffffffff1916148061188b575061188a826120df565b5b9050919050565b600061189c612159565b905090565b6118ae83838360016121c5565b505050565b60006118bf848461154d565b90507fffffffffffffffffffffffffffffffffffffffffffffffffffffffffffffffff8110156119425781811015611932578281836040517ffb8f41b200000000000000000000000000000000000000000000000000000000815260040161192993929190613d66565b60405180910390fd5b611941848484840360006121c5565b5b50505050565b600073ffffffffffffffffffffffffffffffffffffffff168373ffffffffffffffffffffffffffffffffffffffff16036119ba5760006040517f96c6fd1e0000000000000000000000000000000000000000000000000000000081526004016119b19190612ee0565b60405180910390fd5b600073ffffffffffffffffffffffffffffffffffffffff168273ffffffffffffffffffffffffffffffffffffffff1603611a2c5760006040517fec442f05000000000000000000000000000000000000000000000000000000008152600401611a239190612ee0565b60405180910390fd5b611a3783838361239c565b505050565b611a4d81611a48611892565b612492565b50565b6000611a5c83836110d6565b611b375760016005600085815260200190815260200160002060000160008473ffffffffffffffffffffffffffffffffffffffff1673ffffffffffffffffffffffffffffffffffffffff16815260200190815260200160002060006101000a81548160ff021916908315150217905550611ad4611892565b73ffffffffffffffffffffffffffffffffffffffff168273ffffffffffffffffffffffffffffffffffffffff16847f2f8788117e7eff1d82e926ec794901d17c78024a50270940304540a733656f0d60405160405180910390a460019050611b3c565b600090505b92915050565b6000611b4e83836110d6565b15611c2a5760006005600085815260200190815260200160002060000160008473ffffffffffffffffffffffffffffffffffffffff1673ffffffffffffffffffffffffffffffffffffffff16815260200190815260200160002060006101000a81548160ff021916908315150217905550611bc7611892565b73ffffffffffffffffffffffffffffffffffffffff168273ffffffffffffffffffffffffffffffffffffffff16847ff6391f5c32d9c69d2a47ea670b442974b53935d1edc7fd64eb21e047a839171b60405160405180910390a460019050611c2f565b600090505b92915050565b60016002811115611c4957611c48612b6e565b5b600660009054906101000a900460ff166002811115611c6b57611c6a612b6e565b5b14611cab576040517f08c379a0000000000000000000000000000000000000000000000000000000008152600401611ca2906135f2565b60405180910390fd5b60007f000000000000000000000000000000000000000000000000000000000000000073ffffffffffffffffffffffffffffffffffffffff166345e1b42c7f0000000000000000000000000000000000000000000000000000000000000000856040518363ffffffff1660e01b8152600401611d28929190613446565b602060405180830381865afa158015611d45573d6000803e3d6000fd5b505050506040513d601f19601f82011682018060405250810190611d699190613484565b905060008111611dae576040517f08c379a0000000000000000000000000000000000000000000000000000000008152600401611da590613de9565b60405180910390fd5b600960008473ffffffffffffffffffffffffffffffffffffffff1673ffffffffffffffffffffffffffffffffffffffff16815260200190815260200160002060009054906101000a900460ff1615611e3b576040517f08c379a0000000000000000000000000000000000000000000000000000000008152600401611e3290613e55565b60405180910390fd5b600082821115611e54578282611e5191906134e0565b90505b6000811115611eb35780611e6785611022565b1015611ea8576040517f08c379a0000000000000000000000000000000000000000000000000000000008152600401611e9f90613ec1565b60405180910390fd5b611eb284826124e3565b5b81600760008673ffffffffffffffffffffffffffffffffffffffff1673ffffffffffffffffffffffffffffffffffffffff168152602001908152602001600020819055506001600960008673ffffffffffffffffffffffffffffffffffffffff1673ffffffffffffffffffffffffffffffffffffffff16815260200190815260200160002060006101000a81548160ff0219169083151502179055506002600860008673ffffffffffffffffffffffffffffffffffffffff1673ffffffffffffffffffffffffffffffffffffffff16815260200190815260200160002060006101000a81548160ff02191690836002811115611fb257611fb1612b6e565b5b02179055508373ffffffffffffffffffffffffffffffffffffffff167fea6c029757711e3bf5e8958ba57d94459b2e5b84a40eed9d21e4390e1e1f6e866002604051611ffe9190612f37565b60405180910390a28373ffffffffffffffffffffffffffffffffffffffff167fcd3331a9bec0aed59a9fbe480a5b8e9f713e86e4b4105ac2628cfe4b9d6a6e7583600060405161204f929190613f1c565b60405180910390a250505050565b600073ffffffffffffffffffffffffffffffffffffffff168273ffffffffffffffffffffffffffffffffffffffff16036120cf5760006040517fec442f050000000000000000000000000000000000000000000000000000000081526004016120c69190612ee0565b60405180910390fd5b6120db6000838361239c565b5050565b60007f7965db0b000000000000000000000000000000000000000000000000000000007bffffffffffffffffffffffffffffffffffffffffffffffffffffffff1916827bffffffffffffffffffffffffffffffffffffffffffffffffffffffff19161480612152575061215182612565565b5b9050919050565b60008060003690509050600061216d6125cf565b9050808210158015612184575061218333610fe3565b5b156121b55760003682840390809261219e93929190613f4f565b906121a99190613fce565b60601c925050506121c2565b6121bd6125de565b925050505b90565b600073ffffffffffffffffffffffffffffffffffffffff168473ffffffffffffffffffffffffffffffffffffffff16036122375760006040517fe602df0500000000000000000000000000000000000000000000000000000000815260040161222e9190612ee0565b60405180910390fd5b600073ffffffffffffffffffffffffffffffffffffffff168373ffffffffffffffffffffffffffffffffffffffff16036122a95760006040517f94280d620000000000000000000000000000000000000000000000000000000081526004016122a09190612ee0565b60405180910390fd5b81600160008673ffffffffffffffffffffffffffffffffffffffff1673ffffffffffffffffffffffffffffffffffffffff16815260200190815260200160002060008573ffffffffffffffffffffffffffffffffffffffff1673ffffffffffffffffffffffffffffffffffffffff168152602001908152602001600020819055508015612396578273ffffffffffffffffffffffffffffffffffffffff168473ffffffffffffffffffffffffffffffffffffffff167f8c5be1e5ebec7d5bd14f71427d1e84f3dd0314c0f7b2291e5b200ac8c7c3b9258460405161238d9190612b53565b60405180910390a35b50505050565b600073ffffffffffffffffffffffffffffffffffffffff168373ffffffffffffffffffffffffffffffffffffffff16141580156124065750600073ffffffffffffffffffffffffffffffffffffffff168273ffffffffffffffffffffffffffffffffffffffff1614155b15612482576000600281111561241f5761241e612b6e565b5b600660009054906101000a900460ff16600281111561244157612440612b6e565b5b14612481576040517f08c379a000000000000000000000000000000000000000000000000000000000815260040161247890614079565b60405180910390fd5b5b61248d8383836125e6565b505050565b61249c82826110d6565b6124df5780826040517fe2517d3f0000000000000000000000000000000000000000000000000000000081526004016124d6929190614099565b60405180910390fd5b5050565b600073ffffffffffffffffffffffffffffffffffffffff168273ffffffffffffffffffffffffffffffffffffffff16036125555760006040517f96c6fd1e00000000000000000000000000000000000000000000000000000000815260040161254c9190612ee0565b60405180910390fd5b6125618260008361239c565b5050565b60007f01ffc9a7000000000000000000000000000000000000000000000000000000007bffffffffffffffffffffffffffffffffffffffffffffffffffffffff1916827bffffffffffffffffffffffffffffffffffffffffffffffffffffffff1916149050919050565b60006125d961280b565b905090565b600033905090565b600073ffffffffffffffffffffffffffffffffffffffff168373ffffffffffffffffffffffffffffffffffffffff160361263857806002600082825461262c9190613a39565b9250508190555061270b565b60008060008573ffffffffffffffffffffffffffffffffffffffff1673ffffffffffffffffffffffffffffffffffffffff168152602001908152602001600020549050818110156126c4578381836040517fe450d38c0000000000000000000000000000000000000000000000000000000081526004016126bb93929190613d66565b60405180910390fd5b8181036000808673ffffffffffffffffffffffffffffffffffffffff1673ffffffffffffffffffffffffffffffffffffffff16815260200190815260200160002081905550505b600073ffffffffffffffffffffffffffffffffffffffff168273ffffffffffffffffffffffffffffffffffffffff160361275457806002600082825403925050819055506127a1565b806000808473ffffffffffffffffffffffffffffffffffffffff1673ffffffffffffffffffffffffffffffffffffffff168152602001908152602001600020600082825401925050819055505b8173ffffffffffffffffffffffffffffffffffffffff168373ffffffffffffffffffffffffffffffffffffffff167fddf252ad1be2c89b69c2b068fc378daa952ba7f163c4a11628f55a4df523b3ef836040516127fe9190612b53565b60405180910390a3505050565b60006014905090565b6000604051905090565b600080fd5b600080fd5b60007fffffffff0000000000000000000000000000000000000000000000000000000082169050919050565b61285d81612828565b811461286857600080fd5b50565b60008135905061287a81612854565b92915050565b6000602082840312156128965761289561281e565b5b60006128a48482850161286b565b91505092915050565b60008115159050919050565b6128c2816128ad565b82525050565b60006020820190506128dd60008301846128b9565b92915050565b600073ffffffffffffffffffffffffffffffffffffffff82169050919050565b6000819050919050565b600061292861292361291e846128e3565b612903565b6128e3565b9050919050565b600061293a8261290d565b9050919050565b600061294c8261292f565b9050919050565b61295c81612941565b82525050565b60006020820190506129776000830184612953565b92915050565b600081519050919050565b600082825260208201905092915050565b60005b838110156129b757808201518184015260208101905061299c565b60008484015250505050565b6000601f19601f8301169050919050565b60006129df8261297d565b6129e98185612988565b93506129f9818560208601612999565b612a02816129c3565b840191505092915050565b60006020820190508181036000830152612a2781846129d4565b905092915050565b6000612a3a826128e3565b9050919050565b612a4a81612a2f565b8114612a5557600080fd5b50565b600081359050612a6781612a41565b92915050565b6000819050919050565b612a8081612a6d565b8114612a8b57600080fd5b50565b600081359050612a9d81612a77565b92915050565b60008060408385031215612aba57612ab961281e565b5b6000612ac885828601612a58565b9250506020612ad985828601612a8e565b9150509250929050565b6000819050919050565b612af681612ae3565b82525050565b6000602082019050612b116000830184612aed565b92915050565b600060208284031215612b2d57612b2c61281e565b5b6000612b3b84828501612a58565b91505092915050565b612b4d81612a6d565b82525050565b6000602082019050612b686000830184612b44565b92915050565b7f4e487b7100000000000000000000000000000000000000000000000000000000600052602160045260246000fd5b60038110612bae57612bad612b6e565b5b50565b6000819050612bbf82612b9d565b919050565b6000612bcf82612bb1565b9050919050565b612bdf81612bc4565b82525050565b6000602082019050612bfa6000830184612bd6565b92915050565b600063ffffffff82169050919050565b612c1981612c00565b82525050565b60038110612c3057612c2f612b6e565b5b50565b6000819050612c4182612c1f565b919050565b6000612c5182612c33565b9050919050565b612c6181612c46565b82525050565b600060c082019050612c7c6000830189612c10565b612c896020830188612b44565b612c966040830187612b44565b612ca36060830186612b44565b612cb06080830185612b44565b612cbd60a0830184612c58565b979650505050505050565b600080600060608486031215612ce157612ce061281e565b5b6000612cef86828701612a58565b9350506020612d0086828701612a58565b9250506040612d1186828701612a8e565b9150509250925092565b612d2481612ae3565b8114612d2f57600080fd5b50565b600081359050612d4181612d1b565b92915050565b600060208284031215612d5d57612d5c61281e565b5b6000612d6b84828501612d32565b91505092915050565b60008060408385031215612d8b57612d8a61281e565b5b6000612d9985828601612d32565b9250506020612daa85828601612a58565b9150509250929050565b600060ff82169050919050565b612dca81612db4565b82525050565b6000602082019050612de56000830184612dc1565b92915050565b600080fd5b600080fd5b600080fd5b60008083601f840112612e1057612e0f612deb565b5b8235905067ffffffffffffffff811115612e2d57612e2c612df0565b5b602083019150836020820283011115612e4957612e48612df5565b5b9250929050565b60008060008060408587031215612e6a57612e6961281e565b5b600085013567ffffffffffffffff811115612e8857612e87612823565b5b612e9487828801612dfa565b9450945050602085013567ffffffffffffffff811115612eb757612eb6612823565b5b612ec387828801612dfa565b925092505092959194509250565b612eda81612a2f565b82525050565b6000602082019050612ef56000830184612ed1565b92915050565b6000612f068261292f565b9050919050565b612f1681612efb565b82525050565b6000602082019050612f316000830184612f0d565b92915050565b6000602082019050612f4c6000830184612c58565b92915050565b7f4e487b7100000000000000000000000000000000000000000000000000000000600052604160045260246000fd5b612f8a826129c3565b810181811067ffffffffffffffff82111715612fa957612fa8612f52565b5b80604052505050565b6000612fbc612814565b9050612fc88282612f81565b919050565b600067ffffffffffffffff821115612fe857612fe7612f52565b5b602082029050602081019050919050565b600061300c61300784612fcd565b612fb2565b9050808382526020820190506020840283018581111561302f5761302e612df5565b5b835b8181101561305857806130448882612a8e565b845260208401935050602081019050613031565b5050509392505050565b600082601f83011261307757613076612deb565b5b8135613087848260208601612ff9565b91505092915050565b600080fd5b600067ffffffffffffffff8211156130b0576130af612f52565b5b6130b9826129c3565b9050602081019050919050565b82818337600083830152505050565b60006130e86130e384613095565b612fb2565b90508281526020810184848401111561310457613103613090565b5b61310f8482856130c6565b509392505050565b600082601f83011261312c5761312b612deb565b5b813561313c8482602086016130d5565b91505092915050565b600080600080600060a086880312156131615761316061281e565b5b600061316f88828901612a58565b955050602061318088828901612a58565b945050604086013567ffffffffffffffff8111156131a1576131a0612823565b5b6131ad88828901613062565b935050606086013567ffffffffffffffff8111156131ce576131cd612823565b5b6131da88828901613062565b925050608086013567ffffffffffffffff8111156131fb576131fa612823565b5b61320788828901613117565b9150509295509295909350565b61321d81612828565b82525050565b60006020820190506132386000830184613214565b92915050565b600080604083850312156132555761325461281e565b5b600061326385828601612a58565b925050602061327485828601612a58565b9150509250929050565b60006020820190506132936000830184612c10565b92915050565b600080600080600060a086880312156132b5576132b461281e565b5b60006132c388828901612a58565b95505060206132d488828901612a58565b94505060406132e588828901612a8e565b93505060606132f688828901612a8e565b925050608086013567ffffffffffffffff81111561331757613316612823565b5b61332388828901613117565b9150509295509295909350565b60008083601f84011261334657613345612deb565b5b8235905067ffffffffffffffff81111561336357613362612df0565b5b60208301915083602082028301111561337f5761337e612df5565b5b9250929050565b60008060006040848603121561339f5761339e61281e565b5b600084013567ffffffffffffffff8111156133bd576133bc612823565b5b6133c986828701613330565b935093505060206133dc86828701612a8e565b9150509250925092565b7f4e487b7100000000000000000000000000000000000000000000000000000000600052602260045260246000fd5b6000600282049050600182168061342d57607f821691505b6020821081036134405761343f6133e6565b5b50919050565b600060408201905061345b6000830185612c10565b6134686020830184612ed1565b9392505050565b60008151905061347e81612a77565b92915050565b60006020828403121561349a5761349961281e565b5b60006134a88482850161346f565b91505092915050565b7f4e487b7100000000000000000000000000000000000000000000000000000000600052601160045260246000fd5b60006134eb82612a6d565b91506134f683612a6d565b925082820390508181111561350e5761350d6134b1565b5b92915050565b7f6c656e677468206d69736d617463680000000000000000000000000000000000600082015250565b600061354a600f83612988565b915061355582613514565b602082019050919050565b600060208201905081810360008301526135798161353d565b9050919050565b7f73757272656e646572206f6e6c7920616c6c6f77656420696e2061756469742060008201527f7068617365000000000000000000000000000000000000000000000000000000602082015250565b60006135dc602583612988565b91506135e782613580565b604082019050919050565b6000602082019050818103600083015261360b816135cf565b9050919050565b7f4e487b7100000000000000000000000000000000000000000000000000000000600052603260045260246000fd5b600080fd5b600080fd5b600067ffffffffffffffff82111561366657613665612f52565b5b61366f826129c3565b9050602081019050919050565b600061368f61368a8461364b565b612fb2565b9050828152602081018484840111156136ab576136aa613090565b5b6136b6848285612999565b509392505050565b600082601f8301126136d3576136d2612deb565b5b81516136e384826020860161367c565b91505092915050565b600061ffff82169050919050565b613703816136ec565b811461370e57600080fd5b50565b600081519050613720816136fa565b92915050565b60006080828403121561373c5761373b613641565b5b6137466080612fb2565b9050600082015167ffffffffffffffff81111561376657613765613646565b5b613772848285016136be565b600083015250602061378684828501613711565b602083015250604082015167ffffffffffffffff8111156137aa576137a9613646565b5b6137b6848285016136be565b604083015250606082015167ffffffffffffffff8111156137da576137d9613646565b5b6137e6848285016136be565b60608301525092915050565b600281106137ff57600080fd5b50565b600081519050613811816137f2565b92915050565b60008151905061382681612d1b565b92915050565b600067ffffffffffffffff82169050919050565b6138498161382c565b811461385457600080fd5b50565b60008151905061386681613840565b92915050565b60008060008060008060c087890312156138895761388861281e565b5b600087015167ffffffffffffffff8111156138a7576138a6612823565b5b6138b389828a01613726565b96505060206138c489828a01613802565b95505060406138d589828a01613817565b94505060606138e689828a01613857565b93505060806138f789828a01613857565b92505060a061390889828a0161346f565b9150509295509295509295565b7f746f6b656e2076696e7461676520746f6f206e65770000000000000000000000600082015250565b600061394b601583612988565b915061395682613915565b602082019050919050565b6000602082019050818103600083015261397a8161393e565b9050919050565b600082825260208201905092915050565b50565b60006139a2600083613981565b91506139ad82613992565b600082019050919050565b600060a0820190506139cd6000830187612ed1565b6139da6020830186612ed1565b6139e76040830185612b44565b6139f46060830184612b44565b8181036080830152613a0581613995565b905095945050505050565b6000604082019050613a256000830185612b44565b613a326020830184612b44565b9392505050565b6000613a4482612a6d565b9150613a4f83612a6d565b9250828201905080821115613a6757613a666134b1565b5b92915050565b6000613a7882612a6d565b91507fffffffffffffffffffffffffffffffffffffffffffffffffffffffffffffffff8203613aaa57613aa96134b1565b5b600182019050919050565b7f616c726561647920656e64656400000000000000000000000000000000000000600082015250565b6000613aeb600d83612988565b9150613af682613ab5565b602082019050919050565b60006020820190508181036000830152613b1a81613ade565b9050919050565b6000604082019050613b366000830185612c10565b613b436020830184612bd6565b9392505050565b7f6e6f742061637469766500000000000000000000000000000000000000000000600082015250565b6000613b80600a83612988565b9150613b8b82613b4a565b602082019050919050565b60006020820190508181036000830152613baf81613b73565b9050919050565b7f706572696f64206e6f7420616374697665000000000000000000000000000000600082015250565b6000613bec601183612988565b9150613bf782613bb6565b602082019050919050565b60006020820190508181036000830152613c1b81613bdf565b9050919050565b7f746f3d3000000000000000000000000000000000000000000000000000000000600082015250565b6000613c58600483612988565b9150613c6382613c22565b602082019050919050565b60006020820190508181036000830152613c8781613c4b565b9050919050565b7f616d6f756e743d30000000000000000000000000000000000000000000000000600082015250565b6000613cc4600883612988565b9150613ccf82613c8e565b602082019050919050565b60006020820190508181036000830152613cf381613cb7565b9050919050565b7f6e6f20726563697069656e747300000000000000000000000000000000000000600082015250565b6000613d30600d83612988565b9150613d3b82613cfa565b602082019050919050565b60006020820190508181036000830152613d5f81613d23565b9050919050565b6000606082019050613d7b6000830186612ed1565b613d886020830185612b44565b613d956040830184612b44565b949350505050565b7f6e6f20766572696669656420656d697373696f6e206461746100000000000000600082015250565b6000613dd3601983612988565b9150613dde82613d9d565b602082019050919050565b60006020820190508181036000830152613e0281613dc6565b9050919050565b7f616c72656164792073757272656e646572656400000000000000000000000000600082015250565b6000613e3f601383612988565b9150613e4a82613e09565b602082019050919050565b60006020820190508181036000830152613e6e81613e32565b9050919050565b7f696e73756666696369656e742050544241452062616c616e6365000000000000600082015250565b6000613eab601a83612988565b9150613eb682613e75565b602082019050919050565b60006020820190508181036000830152613eda81613e9e565b9050919050565b6000819050919050565b6000613f06613f01613efc84613ee1565b612903565b612a6d565b9050919050565b613f1681613eeb565b82525050565b6000604082019050613f316000830185612b44565b613f3e6020830184613f0d565b9392505050565b600080fd5b600080fd5b60008085851115613f6357613f62613f45565b5b83861115613f7457613f73613f4a565b5b6001850283019150848603905094509492505050565b600082905092915050565b60007fffffffffffffffffffffffffffffffffffffffff00000000000000000000000082169050919050565b600082821b905092915050565b6000613fda8383613f8a565b82613fe58135613f95565b92506014821015614025576140207fffffffffffffffffffffffffffffffffffffffff00000000000000000000000083601403600802613fc1565b831692505b505092915050565b7f7472616e73666572207265737472696374656400000000000000000000000000600082015250565b6000614063601383612988565b915061406e8261402d565b602082019050919050565b6000602082019050818103600083015261409281614056565b9050919050565b60006040820190506140ae6000830185612ed1565b6140bb6020830184612aed565b939250505056fea2646970667358221220f992103ca87e60804658422330b64da63fe8ab2f282c72df1917307cfa55111364736f6c63430008140033",
  "linkReferences": {},
  "deployedLinkReferences": {}
}