{
  "_format": "hh-sol-artifact-1",
  "contractName": "SPEGRKToken",
  "sourceName": "contracts/SPEGRKToken.sol",
  "abi": [
    {
      "inputs": [
        {
          "internalType": "string",
          "name": "uri_",
          "type": "string"
        },
        {
          "internalType": "address",
          "name": "admin",
          "type": "address"
        },
        {
          "internalType": "address",
          "name": "regulator",
          "type": "address"
        },
        {
          "internalType": "address",
          "name": "oracleAddress",
          "type": "address"
        },
        {
          "internalType": "address",
          "name": "trustedForwarder",
          "type": "address"
        }
      ],
      "stateMutability": "nonpayable",
      "type": "constructor"
    },
    {
      "inputs": [],
      "name": "AccessControlBadConfirmation",
      "type": "error"
    },
    {
      "inputs": [
        {
          "internalType": "address",
          "name": "account",
          "type": "address"
        },
        {
          "internalType": "bytes32",
          "name": "neededRole",
          "type": "bytes32"
        }
      ],
      "name": "AccessControlUnauthorizedAccount",
      "type": "error"
    },
    {
      "inputs": [
        {
          "internalType": "uint256",
          "name": "tokenId",
          "type": "uint256"
        }
      ],
      "name": "AlreadyRetired",
      "type": "error"
    },
    {
      "inputs": [
        {
          "internalType": "bytes32",
          "name": "attestationId",
          "type": "bytes32"
        }
      ],
      "name": "AttestationAlreadyUsed",
      "type": "error"
    },
    {
      "inputs": [
        {
          "internalType": "address",
          "name": "sender",
          "type": "address"
        },
        {
          "internalType": "uint256",
          "name": "balance",
          "type": "uint256"
        },
        {
          "internalType": "uint256",
          "name": "needed",
          "type": "uint256"
        },
        {
          "internalType": "uint256",
          "name": "tokenId",
          "type": "uint256"
        }
      ],
      "name": "ERC1155InsufficientBalance",
      "type": "error"
    },
    {
      "inputs": [
        {
          "internalType": "address",
          "name": "approver",
          "type": "address"
        }
      ],
      "name": "ERC1155InvalidApprover",
      "type": "error"
    },
    {
      "inputs": [
        {
          "internalType": "uint256",
          "name": "idsLength",
          "type": "uint256"
        },
        {
          "internalType": "uint256",
          "name": "valuesLength",
          "type": "uint256"
        }
      ],
      "name": "ERC1155InvalidArrayLength",
      "type": "error"
    },
    {
      "inputs": [
        {
          "internalType": "address",
          "name": "operator",
          "type": "address"
        }
      ],
      "name": "ERC1155InvalidOperator",
      "type": "error"
    },
    {
      "inputs": [
        {
          "internalType": "address",
          "name": "receiver",
          "type": "address"
        }
      ],
      "name": "ERC1155InvalidReceiver",
      "type": "error"
    },
    {
      "inputs": [
        {
          "internalType": "address",
          "name": "sender",
          "type": "address"
        }
      ],
      "name": "ERC1155InvalidSender",
      "type": "error"
    },
    {
      "inputs": [
        {
          "internalType": "address",
          "name": "operator",
          "type": "address"
        },
        {
          "internalType": "address",
          "name": "owner",
          "type": "address"
        }
      ],
      "name": "ERC1155MissingApprovalForAll",
      "type": "error"
    },
    {
      "inputs": [
        {
          "internalType": "uint256",
          "name": "available",
          "type": "uint256"
        },
        {
          "internalType": "uint256",
          "name": "required",
          "type": "uint256"
        }
      ],
      "name": "InsufficientBalance",
      "type": "error"
    },
    {
      "inputs": [],
      "name": "InvalidAmount",
      "type": "error"
    },
    {
      "inputs": [
        {
          "internalType": "bytes32",
          "name": "attestationId",
          "type": "bytes32"
        }
      ],
      "name": "InvalidAttestation",
      "type": "error"
    },
    {
      "inputs": [],
      "name": "InvalidRecipient",
      "type": "error"
    },
    {
      "inputs": [
        {
          "internalType": "bytes32",
          "name": "expected",
          "type": "bytes32"
        },
        {
          "internalType": "bytes32",
          "name": "actual",
          "type": "bytes32"
        }
      ],
      "name": "MetadataMismatch",
      "type": "error"
    },
    {
      "inputs": [
        {
          "internalType": "uint256",
          "name": "tokenId",
          "type": "uint256"
        }
      ],
      "name": "TokenAlreadyIssued",
      "type": "error"
    },
    {
      "anonymous": false,
      "inputs": [
        {
          "indexed": true,
          "internalType": "address",
          "name": "account",
          "type": "address"
        },
        {
          "indexed": true,
          "internalType": "address",
          "name": "operator",
          "type": "address"
        },
        {
          "indexed": false,
          "internalType": "bool",
          "name": "approved",
          "type": "bool"
        }
      ],
      "name": "ApprovalForAll",
      "type": "event"
    },
    {
      "anonymous": false,
      "inputs": [
        {
          "indexed": true,
          "internalType": "bytes32",
          "name": "role",
          "type": "bytes32"
        },
        {
          "indexed": true,
          "internalType": "bytes32",
          "name": "previousAdminRole",
          "type": "bytes32"
        },
        {
          "indexed": true,
          "internalType": "bytes32",
          "name": "newAdminRole",
          "type": "bytes32"
        }
      ],
      "name": "RoleAdminChanged",
      "type": "event"
    },
    {
      "anonymous": false,
      "inputs": [
        {
          "indexed": true,
          "internalType": "bytes32",
          "name": "role",
          "type": "bytes32"
        },
        {
          "indexed": true,
          "internalType": "address",
          "name": "account",
          "type": "address"
        },
        {
          "indexed": true,
          "internalType": "address",
          "name": "sender",
          "type": "address"
        }
      ],
      "name": "RoleGranted",
      "type": "event"
    },
    {
      "anonymous": false,
      "inputs": [
        {
          "indexed": true,
          "internalType": "bytes32",
          "name": "role",
          "type": "bytes32"
        },
        {
          "indexed": true,
          "internalType": "address",
          "name": "account",
          "type": "address"
        },
        {
          "indexed": true,
          "internalType": "address",
          "name": "sender",
          "type": "address"
        }
      ],
      "name": "RoleRevoked",
      "type": "event"
    },
    {
      "anonymous": false,
      "inputs": [
        {
          "indexed": true,
          "internalType": "uint256",
          "name": "tokenId",
          "type": "uint256"
        },
        {
          "indexed": true,
          "internalType": "address",
          "name": "to",
          "type": "address"
        },
        {
          "indexed": false,
          "internalType": "uint256",
          "name": "amount",
          "type": "uint256"
        },
        {
          "indexed": false,
          "internalType": "bytes32",
          "name": "attestationId",
          "type": "bytes32"
        }
      ],
      "name": "SPEIssued",
      "type": "event"
    },
    {
      "anonymous": false,
      "inputs": [
        {
          "indexed": true,
          "internalType": "uint256",
          "name": "tokenId",
          "type": "uint256"
        },
        {
          "indexed": true,
          "internalType": "address",
          "name": "holder",
          "type": "address"
        },
        {
          "indexed": false,
          "internalType": "uint256",
          "name": "amount",
          "type": "uint256"
        }
      ],
      "name": "SPERetired",
      "type": "event"
    },
    {
      "anonymous": false,
      "inputs": [
        {
          "indexed": true,
          "internalType": "address",
          "name": "operator",
          "type": "address"
        },
        {
          "indexed": true,
          "internalType": "address",
          "name": "from",
          "type": "address"
        },
        {
          "indexed": true,
          "internalType": "address",
          "name": "to",
          "type": "address"
        },
        {
          "indexed": false,
          "internalType": "uint256[]",
          "name": "ids",
          "type": "uint256[]"
        },
        {
          "indexed": false,
          "internalType": "uint256[]",
          "name": "values",
          "type": "uint256[]"
        }
      ],
      "name": "TransferBatch",
      "type": "event"
    },
    {
      "anonymous": false,
      "inputs": [
        {
          "indexed": true,
          "internalType": "address",
          "name": "operator",
          "type": "address"
        },
        {
          "indexed": true,
          "internalType": "address",
          "name": "from",
          "type": "address"
        },
        {
          "indexed": true,
          "internalType": "address",
          "name": "to",
          "type": "address"
        },
        {
          "indexed": false,
          "internalType": "uint256",
          "name": "id",
          "type": "uint256"
        },
        {
          "indexed": false,
          "internalType": "uint256",
          "name": "value",
          "type": "uint256"
        }
      ],
      "name": "TransferSingle",
      "type": "event"
    },
    {
      "anonymous": false,
      "inputs": [
        {
          "indexed": false,
          "internalType": "string",
          "name": "value",
          "type": "string"
        },
        {
          "indexed": true,
          "internalType": "uint256",
          "name": "id",
          "type": "uint256"
        }
      ],
      "name": "URI",
      "type": "event"
    },
    {
      "inputs": [],
      "name": "DEFAULT_ADMIN_ROLE",
      "outputs": [
        {
          "internalType": "bytes32",
          "name": "",
          "type": "bytes32"
        }
      ],
      "stateMutability": "view",
      "type": "function"
    },
    {
      "inputs": [],
      "name": "REGULATOR_ROLE",
      "outputs": [
        {
          "internalType": "bytes32",
          "name": "",
          "type": "bytes32"
        }
      ],
      "stateMutability": "view",
      "type": "function"
    },
    {
      "inputs": [
        {
          "internalType": "address",
          "name": "account",
          "type": "address"
        },
        {
          "internalType": "uint256",
          "name": "id",
          "type": "uint256"
        }
      ],
      "name": "balanceOf",
      "outputs": [
        {
          "internalType": "uint256",
          "name": "",
          "type": "uint256"
        }
      ],
      "stateMutability": "view",
      "type": "function"
    },
    {
      "inputs": [
        {
          "internalType": "address[]",
          "name": "accounts",
          "type": "address[]"
        },
        {
          "internalType": "uint256[]",
          "name": "ids",
          "type": "uint256[]"
        }
      ],
      "name": "balanceOfBatch",
      "outputs": [
        {
          "internalType": "uint256[]",
          "name": "",
          "type": "uint256[]"
        }
      ],
      "stateMutability": "view",
      "type": "function"
    },
    {
      "inputs": [
        {
          "internalType": "uint256",
          "name": "",
          "type": "uint256"
        }
      ],
      "name": "docHash",
      "outputs": [
        {
          "internalType": "bytes32",
          "name": "",
          "type": "bytes32"
        }
      ],
      "stateMutability": "view",
      "type": "function"
    },
    {
      "inputs": [
        {
          "internalType": "bytes32",
          "name": "role",
          "type": "bytes32"
        }
      ],
      "name": "getRoleAdmin",
      "outputs": [
        {
          "internalType": "bytes32",
          "name": "",
          "type": "bytes32"
        }
      ],
      "stateMutability": "view",
      "type": "function"
    },
    {
      "inputs": [
        {
          "internalType": "uint256",
          "name": "tokenId",
          "type": "uint256"
        }
      ],
      "name": "getUnit",
      "outputs": [
        {
          "components": [
            {
              "internalType": "string",
              "name": "projectId",
              "type": "string"
            },
            {
              "internalType": "uint16",
              "name": "vintageYear",
              "type": "uint16"
            },
            {
              "internalType": "string",
              "name": "methodology",
              "type": "string"
            },
            {
              "internalType": "string",
              "name": "registryRef",
              "type": "string"
            }
          ],
          "internalType": "struct SPEGRKToken.UnitMeta",
          "name": "meta",
          "type": "tuple"
        },
        {
          "internalType": "enum SPEGRKToken.Status",
          "name": "st",
          "type": "uint8"
        },
        {
          "internalType": "bytes32",
          "name": "mrvDocHash",
          "type": "bytes32"
        },
        {
          "internalType": "uint64",
          "name": "issued",
          "type": "uint64"
        },
        {
          "internalType": "uint64",
          "name": "retired",
          "type": "uint64"
        },
        {
          "internalType": "uint256",
          "name": "supply",
          "type": "uint256"
        }
      ],
      "stateMutability": "view",
      "type": "function"
    },
    {
      "inputs": [
        {
          "internalType": "bytes32",
          "name": "role",
          "type": "bytes32"
        },
        {
          "internalType": "address",
          "name": "account",
          "type": "address"
        }
      ],
      "name": "grantRole",
      "outputs": [],
      "stateMutability": "nonpayable",
      "type": "function"
    },
    {
      "inputs": [
        {
          "internalType": "bytes32",
          "name": "role",
          "type": "bytes32"
        },
        {
          "internalType": "address",
          "name": "account",
          "type": "address"
        }
      ],
      "name": "hasRole",
      "outputs": [
        {
          "internalType": "bool",
          "name": "",
          "type": "bool"
        }
      ],
      "stateMutability": "view",
      "type": "function"
    },
    {
      "inputs": [
        {
          "internalType": "address",
          "name": "account",
          "type": "address"
        },
        {
          "internalType": "address",
          "name": "operator",
          "type": "address"
        }
      ],
      "name": "isApprovedForAll",
      "outputs": [
        {
          "internalType": "bool",
          "name": "",
          "type": "bool"
        }
      ],
      "stateMutability": "view",
      "type": "function"
    },
    {
      "inputs": [
        {
          "internalType": "address",
          "name": "forwarder",
          "type": "address"
        }
      ],
      "name": "isTrustedForwarder",
      "outputs": [
        {
          "internalType": "bool",
          "name": "",
          "type": "bool"
        }
      ],
      "stateMutability": "view",
      "type": "function"
    },
    {
      "inputs": [
        {
          "internalType": "uint256",
          "name": "tokenId",
          "type": "uint256"
        },
        {
          "internalType": "address",
          "name": "to",
          "type": "address"
        },
        {
          "internalType": "uint256",
          "name": "amount",
          "type": "uint256"
        },
        {
          "components": [
            {
              "internalType": "string",
              "name": "projectId",
              "type": "string"
            },
            {
              "internalType": "uint16",
              "name": "vintageYear",
              "type": "uint16"
            },
            {
              "internalType": "string",
              "name": "methodology",
              "type": "string"
            },
            {
              "internalType": "string",
              "name": "registryRef",
              "type": "string"
            }
          ],
          "internalType": "struct SPEGRKToken.UnitMeta",
          "name": "meta",
          "type": "tuple"
        },
        {
          "internalType": "bytes32",
          "name": "attestationId",
          "type": "bytes32"
        }
      ],
      "name": "issueSPE",
      "outputs": [],
      "stateMutability": "nonpayable",
      "type": "function"
    },
    {
      "inputs": [
        {
          "internalType": "uint256",
          "name": "",
          "type": "uint256"
        }
      ],
      "name": "issuedAt",
      "outputs": [
        {
          "internalType": "uint64",
          "name": "",
          "type": "uint64"
        }
      ],
      "stateMutability": "view",
      "type": "function"
    },
    {
      "inputs": [],
      "name": "oracle",
      "outputs": [
        {
          "internalType": "contract MRVOracle",
          "name": "",
          "type": "address"
        }
      ],
      "stateMutability": "view",
      "type": "function"
    },
    {
      "inputs": [
        {
          "internalType": "bytes32",
          "name": "role",
          "type": "bytes32"
        },
        {
          "internalType": "address",
          "name": "callerConfirmation",
          "type": "address"
        }
      ],
      "name": "renounceRole",
      "outputs": [],
      "stateMutability": "nonpayable",
      "type": "function"
    },
    {
      "inputs": [
        {
          "internalType": "uint256",
          "name": "tokenId",
          "type": "uint256"
        },
        {
          "internalType": "uint256",
          "name": "amount",
          "type": "uint256"
        }
      ],
      "name": "retireSPE",
      "outputs": [],
      "stateMutability": "nonpayable",
      "type": "function"
    },
    {
      "inputs": [
        {
          "internalType": "uint256",
          "name": "",
          "type": "uint256"
        }
      ],
      "name": "retiredAt",
      "outputs": [
        {
          "internalType": "uint64",
          "name": "",
          "type": "uint64"
        }
      ],
      "stateMutability": "view",
      "type": "function"
    },
    {
      "inputs": [
        {
          "internalType": "bytes32",
          "name": "role",
          "type": "bytes32"
        },
        {
          "internalType": "address",
          "name": "account",
          "type": "address"
        }
      ],
      "name": "revokeRole",
      "outputs": [],
      "stateMutability": "nonpayable",
      "type": "function"
    },
    {
      "inputs": [
        {
          "internalType": "address",
          "name": "from",
          "type": "address"
        },
        {
          "internalType": "address",
          "name": "to",
          "type": "address"
        },
        {
          "internalType": "uint256[]",
          "name": "ids",
          "type": "uint256[]"
        },
        {
          "internalType": "uint256[]",
          "name": "values",
          "type": "uint256[]"
        },
        {
          "internalType": "bytes",
          "name": "data",
          "type": "bytes"
        }
      ],
      "name": "safeBatchTransferFrom",
      "outputs": [],
      "stateMutability": "nonpayable",
      "type": "function"
    },
    {
      "inputs": [
        {
          "internalType": "address",
          "name": "from",
          "type": "address"
        },
        {
          "internalType": "address",
          "name": "to",
          "type": "address"
        },
        {
          "internalType": "uint256",
          "name": "id",
          "type": "uint256"
        },
        {
          "internalType": "uint256",
          "name": "value",
          "type": "uint256"
        },
        {
          "internalType": "bytes",
          "name": "data",
          "type": "bytes"
        }
      ],
      "name": "safeTransferFrom",
      "outputs": [],
      "stateMutability": "nonpayable",
      "type": "function"
    },
    {
      "inputs": [
        {
          "internalType": "address",
          "name": "operator",
          "type": "address"
        },
        {
          "internalType": "bool",
          "name": "approved",
          "type": "bool"
        }
      ],
      "name": "setApprovalForAll",
      "outputs": [],
      "stateMutability": "nonpayable",
      "type": "function"
    },
    {
      "inputs": [
        {
          "internalType": "uint256",
          "name": "",
          "type": "uint256"
        }
      ],
      "name": "status",
      "outputs": [
        {
          "internalType": "enum SPEGRKToken.Status",
          "name": "",
          "type": "uint8"
        }
      ],
      "stateMutability": "view",
      "type": "function"
    },
    {
      "inputs": [
        {
          "internalType": "bytes4",
          "name": "interfaceId",
          "type": "bytes4"
        }
      ],
      "name": "supportsInterface",
      "outputs": [
        {
          "internalType": "bool",
          "name": "",
          "type": "bool"
        }
      ],
      "stateMutability": "view",
      "type": "function"
    },
    {
      "inputs": [
        {
          "internalType": "uint256",
          "name": "",
          "type": "uint256"
        }
      ],
      "name": "totalSupply",
      "outputs": [
        {
          "internalType": "uint256",
          "name": "",
          "type": "uint256"
        }
      ],
      "stateMutability": "view",
      "type": "function"
    },
    {
      "inputs": [],
      "name": "trustedForwarder",
      "outputs": [
        {
          "internalType": "address",
          "name": "",
          "type": "address"
        }
      ],
      "stateMutability": "view",
      "type": "function"
    },
    {
      "inputs": [
        {
          "internalType": "uint256",
          "name": "",
          "type": "uint256"
        }
      ],
      "name": "unitMeta",
      "outputs": [
        {
          "internalType": "string",
          "name": "projectId",
          "type": "string"
        },
        {
          "internalType": "uint16",
          "name": "vintageYear",
          "type": "uint16"
        },
        {
          "internalType": "string",
          "name": "methodology",
          "type": "string"
        },
        {
          "internalType": "string",
          "name": "registryRef",
          "type": "string"
        }
      ],
      "stateMutability": "view",
      "type": "function"
    },
    {
      "inputs": [
        {
          "internalType": "uint256",
          "name": "",
          "type": "uint256"
        }
      ],
      "name": "uri",
      "outputs": [
        {
          "internalType": "string",
          "name": "",
          "type": "string"
        }
      ],
      "stateMutability": "view",
      "type": "function"
    },
    {
      "inputs": [
        {
          "internalType": "bytes32",
          "name": "",
          "type": "bytes32"
        }
      ],
      "name": "usedAttestations",
      "outputs": [
        {
          "internalType": "bool",
          "name": "",
          "type": "bool"
        }
      ],
      "stateMutability": "view",
      "type": "function"
    }
  ],
  "bytecode": "0x60a06040523480156200001157600080fd5b5060405162004d9038038062004d908339818101604052810190620000379190620005ac565b80856200004a816200011560201b60201c565b508073ffffffffffffffffffffffffffffffffffffffff1660808173ffffffffffffffffffffffffffffffffffffffff168152505050620000956000801b856200012a60201b60201c565b50620000c87f20b5f7ac978e5d6199de06401411960dfa81d2f762655f6206bdc61d46fc19e6846200012a60201b60201c565b5081600a60006101000a81548173ffffffffffffffffffffffffffffffffffffffff021916908373ffffffffffffffffffffffffffffffffffffffff160217905550505050505062000a6d565b80600290816200012691906200089e565b5050565b60006200013e83836200022e60201b60201c565b620002235760016003600085815260200190815260200160002060000160008473ffffffffffffffffffffffffffffffffffffffff1673ffffffffffffffffffffffffffffffffffffffff16815260200190815260200160002060006101000a81548160ff021916908315150217905550620001bf6200029960201b60201c565b73ffffffffffffffffffffffffffffffffffffffff168273ffffffffffffffffffffffffffffffffffffffff16847f2f8788117e7eff1d82e926ec794901d17c78024a50270940304540a733656f0d60405160405180910390a46001905062000228565b600090505b92915050565b60006003600084815260200190815260200160002060000160008373ffffffffffffffffffffffffffffffffffffffff1673ffffffffffffffffffffffffffffffffffffffff16815260200190815260200160002060009054906101000a900460ff16905092915050565b6000620002ab620002b060201b60201c565b905090565b600080600036905090506000620002cc6200033b60201b60201c565b9050808210158015620002ec5750620002eb336200035260201b60201c565b5b15620003235760003682840390809262000309939291906200098f565b9062000316919062000a07565b60601c9250505062000338565b620003336200039960201b60201c565b925050505b90565b60006200034d620003a160201b60201c565b905090565b600062000364620003aa60201b60201c565b73ffffffffffffffffffffffffffffffffffffffff168273ffffffffffffffffffffffffffffffffffffffff16149050919050565b600033905090565b60006014905090565b6000608051905090565b6000604051905090565b600080fd5b600080fd5b600080fd5b600080fd5b6000601f19601f8301169050919050565b7f4e487b7100000000000000000000000000000000000000000000000000000000600052604160045260246000fd5b6200041d82620003d2565b810181811067ffffffffffffffff821117156200043f576200043e620003e3565b5b80604052505050565b600062000454620003b4565b905062000462828262000412565b919050565b600067ffffffffffffffff821115620004855762000484620003e3565b5b6200049082620003d2565b9050602081019050919050565b60005b83811015620004bd578082015181840152602081019050620004a0565b60008484015250505050565b6000620004e0620004da8462000467565b62000448565b905082815260208101848484011115620004ff57620004fe620003cd565b5b6200050c8482856200049d565b509392505050565b600082601f8301126200052c576200052b620003c8565b5b81516200053e848260208601620004c9565b91505092915050565b600073ffffffffffffffffffffffffffffffffffffffff82169050919050565b6000620005748262000547565b9050919050565b620005868162000567565b81146200059257600080fd5b50565b600081519050620005a6816200057b565b92915050565b600080600080600060a08688031215620005cb57620005ca620003be565b5b600086015167ffffffffffffffff811115620005ec57620005eb620003c3565b5b620005fa8882890162000514565b95505060206200060d8882890162000595565b9450506040620006208882890162000595565b9350506060620006338882890162000595565b9250506080620006468882890162000595565b9150509295509295909350565b600081519050919050565b7f4e487b7100000000000000000000000000000000000000000000000000000000600052602260045260246000fd5b60006002820490506001821680620006a657607f821691505b602082108103620006bc57620006bb6200065e565b5b50919050565b60008190508160005260206000209050919050565b60006020601f8301049050919050565b600082821b905092915050565b600060088302620007267fffffffffffffffffffffffffffffffffffffffffffffffffffffffffffffffff82620006e7565b620007328683620006e7565b95508019841693508086168417925050509392505050565b6000819050919050565b6000819050919050565b60006200077f6200077962000773846200074a565b62000754565b6200074a565b9050919050565b6000819050919050565b6200079b836200075e565b620007b3620007aa8262000786565b848454620006f4565b825550505050565b600090565b620007ca620007bb565b620007d781848462000790565b505050565b5b81811015620007ff57620007f3600082620007c0565b600181019050620007dd565b5050565b601f8211156200084e576200081881620006c2565b6200082384620006d7565b8101602085101562000833578190505b6200084b6200084285620006d7565b830182620007dc565b50505b505050565b600082821c905092915050565b6000620008736000198460080262000853565b1980831691505092915050565b60006200088e838362000860565b9150826002028217905092915050565b620008a98262000653565b67ffffffffffffffff811115620008c557620008c4620003e3565b5b620008d182546200068d565b620008de82828562000803565b600060209050601f83116001811462000916576000841562000901578287015190505b6200090d858262000880565b8655506200097d565b601f1984166200092686620006c2565b60005b82811015620009505784890151825560018201915060208501945060208101905062000929565b868310156200097057848901516200096c601f89168262000860565b8355505b6001600288020188555050505b505050505050565b600080fd5b600080fd5b60008085851115620009a657620009a562000985565b5b83861115620009ba57620009b96200098a565b5b6001850283019150848603905094509492505050565b600082905092915050565b60007fffffffffffffffffffffffffffffffffffffffff00000000000000000000000082169050919050565b600062000a158383620009d0565b8262000a228135620009db565b9250601482101562000a655762000a607fffffffffffffffffffffffffffffffffffffffff00000000000000000000000083601403600802620006e7565b831692505b505092915050565b60805161430762000a89600039600061144101526143076000f3fe608060405234801561001057600080fd5b50600436106101c35760003560e01c8063572b6c05116100f9578063a217fddf11610097578063d547741f11610071578063d547741f1461058d578063e985e9c5146105a9578063eaf724d8146105d9578063f242432a1461060c576101c3565b8063a217fddf14610523578063a22cb46514610541578063bd85b0391461055d576101c3565b80637da0a877116100d35780637da0a877146104875780637dc0d1d0146104a557806391d14854146104c35780639f37e2fd146104f3576101c3565b8063572b6c05146103f75780635a553572146104275780636fb1bf0d14610457576101c3565b80632f2ff15d1161016657806342d21ef71161014057806342d21ef71461035f578063437d48621461038f5780634e1273f4146103ab578063517c3603146103db576101c3565b80632f2ff15d146102f757806336568abe1461031357806341562f1e1461032f576101c3565b8063144bf589116101a2578063144bf589146102585780631655bfbe14610276578063248a9ca3146102ab5780632eb2c2d6146102db576101c3565b8062fdd58e146101c857806301ffc9a7146101f85780630e89341c14610228575b600080fd5b6101e260048036038101906101dd9190612ad8565b610628565b6040516101ef9190612b27565b60405180910390f35b610212600480360381019061020d9190612b9a565b610682565b60405161021f9190612be2565b60405180910390f35b610242600480360381019061023d9190612bfd565b610694565b60405161024f9190612cba565b60405180910390f35b610260610728565b60405161026d9190612cf5565b60405180910390f35b610290600480360381019061028b9190612bfd565b61074c565b6040516102a296959493929190612e82565b60405180910390f35b6102c560048036038101906102c09190612f16565b6109fe565b6040516102d29190612cf5565b60405180910390f35b6102f560048036038101906102f09190613140565b610a1e565b005b610311600480360381019061030c919061320f565b610ac6565b005b61032d6004803603810190610328919061320f565b610ae8565b005b61034960048036038101906103449190612bfd565b610b63565b604051610356919061324f565b60405180910390f35b61037960048036038101906103749190612bfd565b610b8a565b604051610386919061326a565b60405180910390f35b6103a960048036038101906103a49190613285565b610baa565b005b6103c560048036038101906103c09190613388565b610df2565b6040516103d291906134be565b60405180910390f35b6103f560048036038101906103f09190613504565b610f01565b005b610411600480360381019061040c919061359b565b6113c6565b60405161041e9190612be2565b60405180910390f35b610441600480360381019061043c9190612f16565b611405565b60405161044e9190612be2565b60405180910390f35b610471600480360381019061046c9190612bfd565b611425565b60405161047e9190612cf5565b60405180910390f35b61048f61143d565b60405161049c91906135d7565b60405180910390f35b6104ad611465565b6040516104ba9190613651565b60405180910390f35b6104dd60048036038101906104d8919061320f565b61148b565b6040516104ea9190612be2565b60405180910390f35b61050d60048036038101906105089190612bfd565b6114f6565b60405161051a919061324f565b60405180910390f35b61052b61151d565b6040516105389190612cf5565b60405180910390f35b61055b60048036038101906105569190613698565b611524565b005b61057760048036038101906105729190612bfd565b61153a565b6040516105849190612b27565b60405180910390f35b6105a760048036038101906105a2919061320f565b611552565b005b6105c360048036038101906105be91906136d8565b611574565b6040516105d09190612be2565b60405180910390f35b6105f360048036038101906105ee9190612bfd565b611608565b6040516106039493929190613727565b60405180910390f35b61062660048036038101906106219190613781565b6117de565b005b600080600083815260200190815260200160002060008473ffffffffffffffffffffffffffffffffffffffff1673ffffffffffffffffffffffffffffffffffffffff16815260200190815260200160002054905092915050565b600061068d82611886565b9050919050565b6060600280546106a390613847565b80601f01602080910402602001604051908101604052809291908181526020018280546106cf90613847565b801561071c5780601f106106f15761010080835404028352916020019161071c565b820191906000526020600020905b8154815290600101906020018083116106ff57829003601f168201915b50505050509050919050565b7f20b5f7ac978e5d6199de06401411960dfa81d2f762655f6206bdc61d46fc19e681565b610754612a04565b60008060008060006004600088815260200190815260200160002060405180608001604052908160008201805461078a90613847565b80601f01602080910402602001604051908101604052809291908181526020018280546107b690613847565b80156108035780601f106107d857610100808354040283529160200191610803565b820191906000526020600020905b8154815290600101906020018083116107e657829003601f168201915b505050505081526020016001820160009054906101000a900461ffff1661ffff1661ffff16815260200160028201805461083c90613847565b80601f016020809104026020016040519081016040528092919081815260200182805461086890613847565b80156108b55780601f1061088a576101008083540402835291602001916108b5565b820191906000526020600020905b81548152906001019060200180831161089857829003601f168201915b505050505081526020016003820180546108ce90613847565b80601f01602080910402602001604051908101604052809291908181526020018280546108fa90613847565b80156109475780601f1061091c57610100808354040283529160200191610947565b820191906000526020600020905b81548152906001019060200180831161092a57829003601f168201915b50505050508152505095506005600088815260200190815260200160002060009054906101000a900460ff169450600660008881526020019081526020016000205493506007600088815260200190815260200160002060009054906101000a900467ffffffffffffffff1692506008600088815260200190815260200160002060009054906101000a900467ffffffffffffffff1691506009600088815260200190815260200160002054905091939550919395565b600060036000838152602001908152602001600020600101549050919050565b6000610a28611900565b90508073ffffffffffffffffffffffffffffffffffffffff168673ffffffffffffffffffffffffffffffffffffffff1614158015610a6d5750610a6b8682611574565b155b15610ab15780866040517fe237d922000000000000000000000000000000000000000000000000000000008152600401610aa8929190613878565b60405180910390fd5b610abe868686868661190f565b505050505050565b610acf826109fe565b610ad881611a07565b610ae28383611a1b565b50505050565b610af0611900565b73ffffffffffffffffffffffffffffffffffffffff168173ffffffffffffffffffffffffffffffffffffffff1614610b54576040517f6697b23200000000000000000000000000000000000000000000000000000000815260040160405180910390fd5b610b5e8282611b0d565b505050565b60086020528060005260406000206000915054906101000a900467ffffffffffffffff1681565b60056020528060005260406000206000915054906101000a900460ff1681565b60008103610be4576040517f2c5211c600000000000000000000000000000000000000000000000000000000815260040160405180910390fd5b60006001811115610bf857610bf7612de8565b5b6005600084815260200190815260200160002060009054906101000a900460ff166001811115610c2b57610c2a612de8565b5b14610c6d57816040517f0d5f568d000000000000000000000000000000000000000000000000000000008152600401610c649190612b27565b60405180910390fd5b6000610c80610c7a611900565b84610628565b905081811015610cc95780826040517fcf479181000000000000000000000000000000000000000000000000000000008152600401610cc09291906138a1565b60405180910390fd5b610cdb610cd4611900565b8484611c00565b81600960008581526020019081526020016000206000828254610cfe91906138f9565b92505081905550610d0d611900565b73ffffffffffffffffffffffffffffffffffffffff16837f879d3119c4b795ef52faad4d0f5bccc9da39e3dd23f5c04dff39d2cd7902e04e84604051610d539190612b27565b60405180910390a36000600960008581526020019081526020016000205403610ded5760016005600085815260200190815260200160002060006101000a81548160ff02191690836001811115610dad57610dac612de8565b5b0217905550426008600085815260200190815260200160002060006101000a81548167ffffffffffffffff021916908367ffffffffffffffff1602179055505b505050565b60608151835114610e3e57815183516040517f5b059991000000000000000000000000000000000000000000000000000000008152600401610e359291906138a1565b60405180910390fd5b6000835167ffffffffffffffff811115610e5b57610e5a612f48565b5b604051908082528060200260200182016040528015610e895781602001602082028036833780820191505090505b50905060005b8451811015610ef657610ec6610eae8287611ca790919063ffffffff16565b610ec18387611cbb90919063ffffffff16565b610628565b828281518110610ed957610ed861392d565b5b60200260200101818152505080610eef9061395c565b9050610e8f565b508091505092915050565b7f20b5f7ac978e5d6199de06401411960dfa81d2f762655f6206bdc61d46fc19e6610f2b81611a07565b600073ffffffffffffffffffffffffffffffffffffffff168573ffffffffffffffffffffffffffffffffffffffff1603610f91576040517f9c8d2cd200000000000000000000000000000000000000000000000000000000815260040160405180910390fd5b60008403610fcb576040517f2c5211c600000000000000000000000000000000000000000000000000000000815260040160405180910390fd5b60006007600088815260200190815260200160002060009054906101000a900467ffffffffffffffff1667ffffffffffffffff161461104157856040517fd2a337cb0000000000000000000000000000000000000000000000000000000081526004016110389190612b27565b60405180910390fd5b6000806000600a60009054906101000a900473ffffffffffffffffffffffffffffffffffffffff1673ffffffffffffffffffffffffffffffffffffffff1663a3112a64866040518263ffffffff1660e01b81526004016110a19190612cf5565b608060405180830381865afa1580156110be573d6000803e3d6000fd5b505050506040513d601f19601f820116820180604052508101906110e291906139fa565b509250925092508061112b57846040517fe38bc3320000000000000000000000000000000000000000000000000000000081526004016111229190612cf5565b60405180910390fd5b600b600086815260200190815260200160002060009054906101000a900460ff161561118e57846040517f6d873cf10000000000000000000000000000000000000000000000000000000081526004016111859190612cf5565b60405180910390fd5b60008680600001906111a09190613a70565b8860200160208101906111b39190613aff565b8980604001906111c39190613a70565b8b80606001906111d39190613a70565b6040516020016111e99796959493929190613b59565b6040516020818303038152906040528051906020012090508281146112475782816040517fcb7a474800000000000000000000000000000000000000000000000000000000815260040161123e929190613bb9565b60405180910390fd5b86600460008c815260200190815260200160002081816112679190613f8d565b90505083600660008c8152602001908152602001600020819055506000600560008c815260200190815260200160002060006101000a81548160ff021916908360018111156112b9576112b8612de8565b5b021790555042600760008c815260200190815260200160002060006101000a81548167ffffffffffffffff021916908367ffffffffffffffff1602179055506001600b600088815260200190815260200160002060006101000a81548160ff02191690831515021790555061133f898b8a60405180602001604052806000815250611ccf565b87600960008c815260200190815260200160002060008282546113629190613f9b565b925050819055508873ffffffffffffffffffffffffffffffffffffffff168a7f3c97ec92fc87a519e7bb3db22d1c35276500b8736eddafb68b4596ff3c2971d88a896040516113b2929190613fcf565b60405180910390a350505050505050505050565b60006113d061143d565b73ffffffffffffffffffffffffffffffffffffffff168273ffffffffffffffffffffffffffffffffffffffff16149050919050565b600b6020528060005260406000206000915054906101000a900460ff1681565b60066020528060005260406000206000915090505481565b60007f0000000000000000000000000000000000000000000000000000000000000000905090565b600a60009054906101000a900473ffffffffffffffffffffffffffffffffffffffff1681565b60006003600084815260200190815260200160002060000160008373ffffffffffffffffffffffffffffffffffffffff1673ffffffffffffffffffffffffffffffffffffffff16815260200190815260200160002060009054906101000a900460ff16905092915050565b60076020528060005260406000206000915054906101000a900467ffffffffffffffff1681565b6000801b81565b61153661152f611900565b8383611d68565b5050565b60096020528060005260406000206000915090505481565b61155b826109fe565b61156481611a07565b61156e8383611b0d565b50505050565b6000600160008473ffffffffffffffffffffffffffffffffffffffff1673ffffffffffffffffffffffffffffffffffffffff16815260200190815260200160002060008373ffffffffffffffffffffffffffffffffffffffff1673ffffffffffffffffffffffffffffffffffffffff16815260200190815260200160002060009054906101000a900460ff16905092915050565b600460205280600052604060002060009150905080600001805461162b90613847565b80601f016020809104026020016040519081016040528092919081815260200182805461165790613847565b80156116a45780601f10611679576101008083540402835291602001916116a4565b820191906000526020600020905b81548152906001019060200180831161168757829003601f168201915b5050505050908060010160009054906101000a900461ffff16908060020180546116cd90613847565b80601f01602080910402602001604051908101604052809291908181526020018280546116f990613847565b80156117465780601f1061171b57610100808354040283529160200191611746565b820191906000526020600020905b81548152906001019060200180831161172957829003601f168201915b50505050509080600301805461175b90613847565b80601f016020809104026020016040519081016040528092919081815260200182805461178790613847565b80156117d45780601f106117a9576101008083540402835291602001916117d4565b820191906000526020600020905b8154815290600101906020018083116117b757829003601f168201915b5050505050905084565b60006117e8611900565b90508073ffffffffffffffffffffffffffffffffffffffff168673ffffffffffffffffffffffffffffffffffffffff161415801561182d575061182b8682611574565b155b156118715780866040517fe237d922000000000000000000000000000000000000000000000000000000008152600401611868929190613878565b60405180910390fd5b61187e8686868686611ed8565b505050505050565b60007f7965db0b000000000000000000000000000000000000000000000000000000007bffffffffffffffffffffffffffffffffffffffffffffffffffffffff1916827bffffffffffffffffffffffffffffffffffffffffffffffffffffffff191614806118f957506118f882611fe3565b5b9050919050565b600061190a6120c5565b905090565b600073ffffffffffffffffffffffffffffffffffffffff168473ffffffffffffffffffffffffffffffffffffffff16036119815760006040517f57f447ce00000000000000000000000000000000000000000000000000000000815260040161197891906135d7565b60405180910390fd5b600073ffffffffffffffffffffffffffffffffffffffff168573ffffffffffffffffffffffffffffffffffffffff16036119f35760006040517f01a835140000000000000000000000000000000000000000000000000000000081526004016119ea91906135d7565b60405180910390fd5b611a008585858585612131565b5050505050565b611a1881611a13611900565b6121e3565b50565b6000611a27838361148b565b611b025760016003600085815260200190815260200160002060000160008473ffffffffffffffffffffffffffffffffffffffff1673ffffffffffffffffffffffffffffffffffffffff16815260200190815260200160002060006101000a81548160ff021916908315150217905550611a9f611900565b73ffffffffffffffffffffffffffffffffffffffff168273ffffffffffffffffffffffffffffffffffffffff16847f2f8788117e7eff1d82e926ec794901d17c78024a50270940304540a733656f0d60405160405180910390a460019050611b07565b600090505b92915050565b6000611b19838361148b565b15611bf55760006003600085815260200190815260200160002060000160008473ffffffffffffffffffffffffffffffffffffffff1673ffffffffffffffffffffffffffffffffffffffff16815260200190815260200160002060006101000a81548160ff021916908315150217905550611b92611900565b73ffffffffffffffffffffffffffffffffffffffff168273ffffffffffffffffffffffffffffffffffffffff16847ff6391f5c32d9c69d2a47ea670b442974b53935d1edc7fd64eb21e047a839171b60405160405180910390a460019050611bfa565b600090505b92915050565b600073ffffffffffffffffffffffffffffffffffffffff168373ffffffffffffffffffffffffffffffffffffffff1603611c725760006040517f01a83514000000000000000000000000000000000000000000000000000000008152600401611c6991906135d7565b60405180910390fd5b600080611c7f8484612234565b91509150611ca0856000848460405180602001604052806000815250612131565b5050505050565b600060208202602084010151905092915050565b600060208202602084010151905092915050565b600073ffffffffffffffffffffffffffffffffffffffff168473ffffffffffffffffffffffffffffffffffffffff1603611d415760006040517f57f447ce000000000000000000000000000000000000000000000000000000008152600401611d3891906135d7565b60405180910390fd5b600080611d4e8585612234565b91509150611d60600087848487612131565b505050505050565b600073ffffffffffffffffffffffffffffffffffffffff168273ffffffffffffffffffffffffffffffffffffffff1603611dda5760006040517fced3e100000000000000000000000000000000000000000000000000000000008152600401611dd191906135d7565b60405180910390fd5b80600160008573ffffffffffffffffffffffffffffffffffffffff1673ffffffffffffffffffffffffffffffffffffffff16815260200190815260200160002060008473ffffffffffffffffffffffffffffffffffffffff1673ffffffffffffffffffffffffffffffffffffffff16815260200190815260200160002060006101000a81548160ff0219169083151502179055508173ffffffffffffffffffffffffffffffffffffffff168373ffffffffffffffffffffffffffffffffffffffff167f17307eab39ab6107e8899845ad3d59bd9653f200f220920489ca2b5937696c3183604051611ecb9190612be2565b60405180910390a3505050565b600073ffffffffffffffffffffffffffffffffffffffff168473ffffffffffffffffffffffffffffffffffffffff1603611f4a5760006040517f57f447ce000000000000000000000000000000000000000000000000000000008152600401611f4191906135d7565b60405180910390fd5b600073ffffffffffffffffffffffffffffffffffffffff168573ffffffffffffffffffffffffffffffffffffffff1603611fbc5760006040517f01a83514000000000000000000000000000000000000000000000000000000008152600401611fb391906135d7565b60405180910390fd5b600080611fc98585612234565b91509150611fda8787848487612131565b50505050505050565b60007fd9b67a26000000000000000000000000000000000000000000000000000000007bffffffffffffffffffffffffffffffffffffffffffffffffffffffff1916827bffffffffffffffffffffffffffffffffffffffffffffffffffffffff191614806120ae57507f0e89341c000000000000000000000000000000000000000000000000000000007bffffffffffffffffffffffffffffffffffffffffffffffffffffffff1916827bffffffffffffffffffffffffffffffffffffffffffffffffffffffff1916145b806120be57506120bd82612264565b5b9050919050565b6000806000369050905060006120d96122ce565b90508082101580156120f057506120ef336113c6565b5b156121215760003682840390809261210a93929190614002565b906121159190614074565b60601c9250505061212e565b6121296122dd565b925050505b90565b61213d858585856122e5565b600073ffffffffffffffffffffffffffffffffffffffff168473ffffffffffffffffffffffffffffffffffffffff16146121dc57600061217b611900565b905060018451036121cb57600061219c600086611cbb90919063ffffffff16565b905060006121b4600086611cbb90919063ffffffff16565b90506121c4838989858589612693565b50506121da565b6121d9818787878787612847565b5b505b5050505050565b6121ed828261148b565b6122305780826040517fe2517d3f0000000000000000000000000000000000000000000000000000000081526004016122279291906140d3565b60405180910390fd5b5050565b60608060405191506001825283602083015260408201905060018152826020820152604081016040529250929050565b60007f01ffc9a7000000000000000000000000000000000000000000000000000000007bffffffffffffffffffffffffffffffffffffffffffffffffffffffff1916827bffffffffffffffffffffffffffffffffffffffffffffffffffffffff1916149050919050565b60006122d86129fb565b905090565b600033905090565b805182511461232f57815181516040517f5b0599910000000000000000000000000000000000000000000000000000000081526004016123269291906138a1565b60405180910390fd5b6000612339611900565b905060005b835181101561254e57600061235c8286611cbb90919063ffffffff16565b905060006123738386611cbb90919063ffffffff16565b9050600073ffffffffffffffffffffffffffffffffffffffff168873ffffffffffffffffffffffffffffffffffffffff16146124a057600080600084815260200190815260200160002060008a73ffffffffffffffffffffffffffffffffffffffff1673ffffffffffffffffffffffffffffffffffffffff1681526020019081526020016000205490508181101561244857888183856040517f03dee4c500000000000000000000000000000000000000000000000000000000815260040161243f94939291906140fc565b60405180910390fd5b81810360008085815260200190815260200160002060008b73ffffffffffffffffffffffffffffffffffffffff1673ffffffffffffffffffffffffffffffffffffffff16815260200190815260200160002081905550505b600073ffffffffffffffffffffffffffffffffffffffff168773ffffffffffffffffffffffffffffffffffffffff161461253b578060008084815260200190815260200160002060008973ffffffffffffffffffffffffffffffffffffffff1673ffffffffffffffffffffffffffffffffffffffff16815260200190815260200160002060008282546125339190613f9b565b925050819055505b5050806125479061395c565b905061233e565b50600183510361260d57600061256e600085611cbb90919063ffffffff16565b90506000612586600085611cbb90919063ffffffff16565b90508573ffffffffffffffffffffffffffffffffffffffff168773ffffffffffffffffffffffffffffffffffffffff168473ffffffffffffffffffffffffffffffffffffffff167fc3d58168c5ae7397731d063d5bbf3d657854427343f4c083240f7aacaa2d0f6285856040516125fe9291906138a1565b60405180910390a4505061268c565b8373ffffffffffffffffffffffffffffffffffffffff168573ffffffffffffffffffffffffffffffffffffffff168273ffffffffffffffffffffffffffffffffffffffff167f4a39dc06d4c0dbc64b70af90fd698a233a518aa5d07e595d983b8c0526c8f7fb8686604051612683929190614141565b60405180910390a45b5050505050565b60008473ffffffffffffffffffffffffffffffffffffffff163b111561283f578373ffffffffffffffffffffffffffffffffffffffff1663f23a6e6187878686866040518663ffffffff1660e01b81526004016126f49594939291906141cd565b6020604051808303816000875af192505050801561273057506040513d601f19601f8201168201806040525081019061272d919061423c565b60015b6127b4573d8060008114612760576040519150601f19603f3d011682016040523d82523d6000602084013e612765565b606091505b5060008151036127ac57846040517f57f447ce0000000000000000000000000000000000000000000000000000000081526004016127a391906135d7565b60405180910390fd5b805160208201fd5b63f23a6e6160e01b7bffffffffffffffffffffffffffffffffffffffffffffffffffffffff1916817bffffffffffffffffffffffffffffffffffffffffffffffffffffffff19161461283d57846040517f57f447ce00000000000000000000000000000000000000000000000000000000815260040161283491906135d7565b60405180910390fd5b505b505050505050565b60008473ffffffffffffffffffffffffffffffffffffffff163b11156129f3578373ffffffffffffffffffffffffffffffffffffffff1663bc197c8187878686866040518663ffffffff1660e01b81526004016128a8959493929190614269565b6020604051808303816000875af19250505080156128e457506040513d601f19601f820116820180604052508101906128e1919061423c565b60015b612968573d8060008114612914576040519150601f19603f3d011682016040523d82523d6000602084013e612919565b606091505b50600081510361296057846040517f57f447ce00000000000000000000000000000000000000000000000000000000815260040161295791906135d7565b60405180910390fd5b805160208201fd5b63bc197c8160e01b7bffffffffffffffffffffffffffffffffffffffffffffffffffffffff1916817bffffffffffffffffffffffffffffffffffffffffffffffffffffffff1916146129f157846040517f57f447ce0000000000000000000000000000000000000000000000000000000081526004016129e891906135d7565b60405180910390fd5b505b505050505050565b60006014905090565b604051806080016040528060608152602001600061ffff16815260200160608152602001606081525090565b6000604051905090565b600080fd5b600080fd5b600073ffffffffffffffffffffffffffffffffffffffff82169050919050565b6000612a6f82612a44565b9050919050565b612a7f81612a64565b8114612a8a57600080fd5b50565b600081359050612a9c81612a76565b92915050565b6000819050919050565b612ab581612aa2565b8114612ac057600080fd5b50565b600081359050612ad281612aac565b92915050565b60008060408385031215612aef57612aee612a3a565b5b6000612afd85828601612a8d565b9250506020612b0e85828601612ac3565b9150509250929050565b612b2181612aa2565b82525050565b6000602082019050612b3c6000830184612b18565b92915050565b60007fffffffff0000000000000000000000000000000000000000000000000000000082169050919050565b612b7781612b42565b8114612b8257600080fd5b50565b600081359050612b9481612b6e565b92915050565b600060208284031215612bb057612baf612a3a565b5b6000612bbe84828501612b85565b91505092915050565b60008115159050919050565b612bdc81612bc7565b82525050565b6000602082019050612bf76000830184612bd3565b92915050565b600060208284031215612c1357612c12612a3a565b5b6000612c2184828501612ac3565b91505092915050565b600081519050919050565b600082825260208201905092915050565b60005b83811015612c64578082015181840152602081019050612c49565b60008484015250505050565b6000601f19601f8301169050919050565b6000612c8c82612c2a565b612c968185612c35565b9350612ca6818560208601612c46565b612caf81612c70565b840191505092915050565b60006020820190508181036000830152612cd48184612c81565b905092915050565b6000819050919050565b612cef81612cdc565b82525050565b6000602082019050612d0a6000830184612ce6565b92915050565b600082825260208201905092915050565b6000612d2c82612c2a565b612d368185612d10565b9350612d46818560208601612c46565b612d4f81612c70565b840191505092915050565b600061ffff82169050919050565b612d7181612d5a565b82525050565b60006080830160008301518482036000860152612d948282612d21565b9150506020830151612da96020860182612d68565b5060408301518482036040860152612dc18282612d21565b91505060608301518482036060860152612ddb8282612d21565b9150508091505092915050565b7f4e487b7100000000000000000000000000000000000000000000000000000000600052602160045260246000fd5b60028110612e2857612e27612de8565b5b50565b6000819050612e3982612e17565b919050565b6000612e4982612e2b565b9050919050565b612e5981612e3e565b82525050565b600067ffffffffffffffff82169050919050565b612e7c81612e5f565b82525050565b600060c0820190508181036000830152612e9c8189612d77565b9050612eab6020830188612e50565b612eb86040830187612ce6565b612ec56060830186612e73565b612ed26080830185612e73565b612edf60a0830184612b18565b979650505050505050565b612ef381612cdc565b8114612efe57600080fd5b50565b600081359050612f1081612eea565b92915050565b600060208284031215612f2c57612f2b612a3a565b5b6000612f3a84828501612f01565b91505092915050565b600080fd5b7f4e487b7100000000000000000000000000000000000000000000000000000000600052604160045260246000fd5b612f8082612c70565b810181811067ffffffffffffffff82111715612f9f57612f9e612f48565b5b80604052505050565b6000612fb2612a30565b9050612fbe8282612f77565b919050565b600067ffffffffffffffff821115612fde57612fdd612f48565b5b602082029050602081019050919050565b600080fd5b600061300761300284612fc3565b612fa8565b9050808382526020820190506020840283018581111561302a57613029612fef565b5b835b81811015613053578061303f8882612ac3565b84526020840193505060208101905061302c565b5050509392505050565b600082601f83011261307257613071612f43565b5b8135613082848260208601612ff4565b91505092915050565b600080fd5b600067ffffffffffffffff8211156130ab576130aa612f48565b5b6130b482612c70565b9050602081019050919050565b82818337600083830152505050565b60006130e36130de84613090565b612fa8565b9050828152602081018484840111156130ff576130fe61308b565b5b61310a8482856130c1565b509392505050565b600082601f83011261312757613126612f43565b5b81356131378482602086016130d0565b91505092915050565b600080600080600060a0868803121561315c5761315b612a3a565b5b600061316a88828901612a8d565b955050602061317b88828901612a8d565b945050604086013567ffffffffffffffff81111561319c5761319b612a3f565b5b6131a88882890161305d565b935050606086013567ffffffffffffffff8111156131c9576131c8612a3f565b5b6131d58882890161305d565b925050608086013567ffffffffffffffff8111156131f6576131f5612a3f565b5b61320288828901613112565b9150509295509295909350565b6000806040838503121561322657613225612a3a565b5b600061323485828601612f01565b925050602061324585828601612a8d565b9150509250929050565b60006020820190506132646000830184612e73565b92915050565b600060208201905061327f6000830184612e50565b92915050565b6000806040838503121561329c5761329b612a3a565b5b60006132aa85828601612ac3565b92505060206132bb85828601612ac3565b9150509250929050565b600067ffffffffffffffff8211156132e0576132df612f48565b5b602082029050602081019050919050565b60006133046132ff846132c5565b612fa8565b9050808382526020820190506020840283018581111561332757613326612fef565b5b835b81811015613350578061333c8882612a8d565b845260208401935050602081019050613329565b5050509392505050565b600082601f83011261336f5761336e612f43565b5b813561337f8482602086016132f1565b91505092915050565b6000806040838503121561339f5761339e612a3a565b5b600083013567ffffffffffffffff8111156133bd576133bc612a3f565b5b6133c98582860161335a565b925050602083013567ffffffffffffffff8111156133ea576133e9612a3f565b5b6133f68582860161305d565b9150509250929050565b600081519050919050565b600082825260208201905092915050565b6000819050602082019050919050565b61343581612aa2565b82525050565b6000613447838361342c565b60208301905092915050565b6000602082019050919050565b600061346b82613400565b613475818561340b565b93506134808361341c565b8060005b838110156134b1578151613498888261343b565b97506134a383613453565b925050600181019050613484565b5085935050505092915050565b600060208201905081810360008301526134d88184613460565b905092915050565b600080fd5b6000608082840312156134fb576134fa6134e0565b5b81905092915050565b600080600080600060a086880312156135205761351f612a3a565b5b600061352e88828901612ac3565b955050602061353f88828901612a8d565b945050604061355088828901612ac3565b935050606086013567ffffffffffffffff81111561357157613570612a3f565b5b61357d888289016134e5565b925050608061358e88828901612f01565b9150509295509295909350565b6000602082840312156135b1576135b0612a3a565b5b60006135bf84828501612a8d565b91505092915050565b6135d181612a64565b82525050565b60006020820190506135ec60008301846135c8565b92915050565b6000819050919050565b600061361761361261360d84612a44565b6135f2565b612a44565b9050919050565b6000613629826135fc565b9050919050565b600061363b8261361e565b9050919050565b61364b81613630565b82525050565b60006020820190506136666000830184613642565b92915050565b61367581612bc7565b811461368057600080fd5b50565b6000813590506136928161366c565b92915050565b600080604083850312156136af576136ae612a3a565b5b60006136bd85828601612a8d565b92505060206136ce85828601613683565b9150509250929050565b600080604083850312156136ef576136ee612a3a565b5b60006136fd85828601612a8d565b925050602061370e85828601612a8d565b9150509250929050565b61372181612d5a565b82525050565b600060808201905081810360008301526137418187612c81565b90506137506020830186613718565b81810360408301526137628185612c81565b905081810360608301526137768184612c81565b905095945050505050565b600080600080600060a0868803121561379d5761379c612a3a565b5b60006137ab88828901612a8d565b95505060206137bc88828901612a8d565b94505060406137cd88828901612ac3565b93505060606137de88828901612ac3565b925050608086013567ffffffffffffffff8111156137ff576137fe612a3f565b5b61380b88828901613112565b9150509295509295909350565b7f4e487b7100000000000000000000000000000000000000000000000000000000600052602260045260246000fd5b6000600282049050600182168061385f57607f821691505b60208210810361387257613871613818565b5b50919050565b600060408201905061388d60008301856135c8565b61389a60208301846135c8565b9392505050565b60006040820190506138b66000830185612b18565b6138c36020830184612b18565b9392505050565b7f4e487b7100000000000000000000000000000000000000000000000000000000600052601160045260246000fd5b600061390482612aa2565b915061390f83612aa2565b9250828203905081811115613927576139266138ca565b5b92915050565b7f4e487b7100000000000000000000000000000000000000000000000000000000600052603260045260246000fd5b600061396782612aa2565b91507fffffffffffffffffffffffffffffffffffffffffffffffffffffffffffffffff8203613999576139986138ca565b5b600182019050919050565b6000815190506139b381612eea565b92915050565b6000815190506139c88161366c565b92915050565b6139d781612e5f565b81146139e257600080fd5b50565b6000815190506139f4816139ce565b92915050565b60008060008060808587031215613a1457613a13612a3a565b5b6000613a22878288016139a4565b9450506020613a33878288016139a4565b9350506040613a44878288016139b9565b9250506060613a55878288016139e5565b91505092959194509250565b600080fd5b600080fd5b600080fd5b60008083356001602003843603038112613a8d57613a8c613a61565b5b80840192508235915067ffffffffffffffff821115613aaf57613aae613a66565b5b602083019250600182023603831315613acb57613aca613a6b565b5b509250929050565b613adc81612d5a565b8114613ae757600080fd5b50565b600081359050613af981613ad3565b92915050565b600060208284031215613b1557613b14612a3a565b5b6000613b2384828501613aea565b91505092915050565b6000613b388385612c35565b9350613b458385846130c1565b613b4e83612c70565b840190509392505050565b60006080820190508181036000830152613b7481898b613b2c565b9050613b836020830188613718565b8181036040830152613b96818688613b2c565b90508181036060830152613bab818486613b2c565b905098975050505050505050565b6000604082019050613bce6000830185612ce6565b613bdb6020830184612ce6565b9392505050565b600082905092915050565b60008190508160005260206000209050919050565b60006020601f8301049050919050565b600082821b905092915050565b600060088302613c4f7fffffffffffffffffffffffffffffffffffffffffffffffffffffffffffffffff82613c12565b613c598683613c12565b95508019841693508086168417925050509392505050565b6000613c8c613c87613c8284612aa2565b6135f2565b612aa2565b9050919050565b6000819050919050565b613ca683613c71565b613cba613cb282613c93565b848454613c1f565b825550505050565b600090565b613ccf613cc2565b613cda818484613c9d565b505050565b5b81811015613cfe57613cf3600082613cc7565b600181019050613ce0565b5050565b601f821115613d4357613d1481613bed565b613d1d84613c02565b81016020851015613d2c578190505b613d40613d3885613c02565b830182613cdf565b50505b505050565b600082821c905092915050565b6000613d6660001984600802613d48565b1980831691505092915050565b6000613d7f8383613d55565b9150826002028217905092915050565b613d998383613be2565b67ffffffffffffffff811115613db257613db1612f48565b5b613dbc8254613847565b613dc7828285613d02565b6000601f831160018114613df65760008415613de4578287013590505b613dee8582613d73565b865550613e56565b601f198416613e0486613bed565b60005b82811015613e2c57848901358255600182019150602085019450602081019050613e07565b86831015613e495784890135613e45601f891682613d55565b8355505b6001600288020188555050505b50505050505050565b613e6a838383613d8f565b505050565b60008135613e7c81613ad3565b80915050919050565b60008160001b9050919050565b600061ffff613ea084613e85565b9350801983169250808416831791505092915050565b6000613ed1613ecc613ec784612d5a565b6135f2565b612d5a565b9050919050565b6000819050919050565b613eeb82613eb6565b613efe613ef782613ed8565b8354613e92565b8255505050565b6000810160008301613f178185613a70565b613f22818386613e5f565b50505050600181016020830180613f3881613e6f565b9050613f448184613ee2565b5050506002810160408301613f598185613a70565b613f64818386613e5f565b505050506003810160608301613f7a8185613a70565b613f85818386613e5f565b505050505050565b613f978282613f05565b5050565b6000613fa682612aa2565b9150613fb183612aa2565b9250828201905080821115613fc957613fc86138ca565b5b92915050565b6000604082019050613fe46000830185612b18565b613ff16020830184612ce6565b9392505050565b600080fd5b600080fd5b6000808585111561401657614015613ff8565b5b8386111561402757614026613ffd565b5b6001850283019150848603905094509492505050565b600082905092915050565b60007fffffffffffffffffffffffffffffffffffffffff00000000000000000000000082169050919050565b6000614080838361403d565b8261408b8135614048565b925060148210156140cb576140c67fffffffffffffffffffffffffffffffffffffffff00000000000000000000000083601403600802613c12565b831692505b505092915050565b60006040820190506140e860008301856135c8565b6140f56020830184612ce6565b9392505050565b600060808201905061411160008301876135c8565b61411e6020830186612b18565b61412b6040830185612b18565b6141386060830184612b18565b95945050505050565b6000604082019050818103600083015261415b8185613460565b9050818103602083015261416f8184613460565b90509392505050565b600081519050919050565b600082825260208201905092915050565b600061419f82614178565b6141a98185614183565b93506141b9818560208601612c46565b6141c281612c70565b840191505092915050565b600060a0820190506141e260008301886135c8565b6141ef60208301876135c8565b6141fc6040830186612b18565b6142096060830185612b18565b818103608083015261421b8184614194565b90509695505050505050565b60008151905061423681612b6e565b92915050565b60006020828403121561425257614251612a3a565b5b600061426084828501614227565b91505092915050565b600060a08201905061427e60008301886135c8565b61428b60208301876135c8565b818103604083015261429d8186613460565b905081810360608301526142b18185613460565b905081810360808301526142c58184614194565b9050969550505050505056fea26469706673582212200b529f19f2953202774d4594e99ac738e868b6b66fd331878cbf355b481c2e1564736f6c63430008140033",
  "linkReferences": {},
  "deployedLinkReferences": {}
}