{
  "_format": "hh-sol-artifact-1",
  "contractName": "SPEGRKToken",
  "sourceName": "contracts/SPEGRKToken.sol",
  "abi": [
    {
      "inputs": [
        {
          "internalType": "string",
          "name": "uri_",
          "type": "string"
        },
        {
          "internalType": "address",
          "name": "admin",
          "type": "address"
        },
        {
          "internalType": "address",
          "name": "regulator",
          "type": "address"
        },
        {
          "internalType": "address",
          "name": "oracleAddress",
          "type": "address"
        },
        {
          "internalType": "address",
          "name": "trustedForwarder",
          "type": "address"
        }
      ],
      "stateMutability": "nonpayable",
      "type": "constructor"
    },
    {
      "inputs": [],
      "name": "AccessControlBadConfirmation",
      "type": "error"
    },
    {
      "inputs": [
        {
          "internalType": "address",
          "name": "account",
          "type": "address"
        },
        {
          "internalType": "bytes32",
          "name": "neededRole",
          "type": "bytes32"
        }
      ],
      "name": "AccessControlUnauthorizedAccount",
      "type": "error"
    },
    {
      "inputs": [
        {
          "internalType": "address",
          "name": "sender",
          "type": "address"
        },
        {
          "internalType": "uint256",
          "name": "balance",
          "type": "uint256"
        },
        {
          "internalType": "uint256",
          "name": "needed",
          "type": "uint256"
        },
        {
          "internalType": "uint256",
          "name": "tokenId",
          "type": "uint256"
        }
      ],
      "name": "ERC1155InsufficientBalance",
      "type": "error"
    },
    {
      "inputs": [
        {
          "internalType": "address",
          "name": "approver",
          "type": "address"
        }
      ],
      "name": "ERC1155InvalidApprover",
      "type": "error"
    },
    {
      "inputs": [
        {
          "internalType": "uint256",
          "name": "idsLength",
          "type": "uint256"
        },
        {
          "internalType": "uint256",
          "name": "valuesLength",
          "type": "uint256"
        }
      ],
      "name": "ERC1155InvalidArrayLength",
      "type": "error"
    },
    {
      "inputs": [
        {
          "internalType": "address",
          "name": "operator",
          "type": "address"
        }
      ],
      "name": "ERC1155InvalidOperator",
      "type": "error"
    },
    {
      "inputs": [
        {
          "internalType": "address",
          "name": "receiver",
          "type": "address"
        }
      ],
      "name": "ERC1155InvalidReceiver",
      "type": "error"
    },
    {
      "inputs": [
        {
          "internalType": "address",
          "name": "sender",
          "type": "address"
        }
      ],
      "name": "ERC1155InvalidSender",
      "type": "error"
    },
    {
      "inputs": [
        {
          "internalType": "address",
          "name": "operator",
          "type": "address"
        },
        {
          "internalType": "address",
          "name": "owner",
          "type": "address"
        }
      ],
      "name": "ERC1155MissingApprovalForAll",
      "type": "error"
    },
    {
      "anonymous": false,
      "inputs": [
        {
          "indexed": true,
          "internalType": "address",
          "name": "account",
          "type": "address"
        },
        {
          "indexed": true,
          "internalType": "address",
          "name": "operator",
          "type": "address"
        },
        {
          "indexed": false,
          "internalType": "bool",
          "name": "approved",
          "type": "bool"
        }
      ],
      "name": "ApprovalForAll",
      "type": "event"
    },
    {
      "anonymous": false,
      "inputs": [
        {
          "indexed": true,
          "internalType": "bytes32",
          "name": "role",
          "type": "bytes32"
        },
        {
          "indexed": true,
          "internalType": "bytes32",
          "name": "previousAdminRole",
          "type": "bytes32"
        },
        {
          "indexed": true,
          "internalType": "bytes32",
          "name": "newAdminRole",
          "type": "bytes32"
        }
      ],
      "name": "RoleAdminChanged",
      "type": "event"
    },
    {
      "anonymous": false,
      "inputs": [
        {
          "indexed": true,
          "internalType": "bytes32",
          "name": "role",
          "type": "bytes32"
        },
        {
          "indexed": true,
          "internalType": "address",
          "name": "account",
          "type": "address"
        },
        {
          "indexed": true,
          "internalType": "address",
          "name": "sender",
          "type": "address"
        }
      ],
      "name": "RoleGranted",
      "type": "event"
    },
    {
      "anonymous": false,
      "inputs": [
        {
          "indexed": true,
          "internalType": "bytes32",
          "name": "role",
          "type": "bytes32"
        },
        {
          "indexed": true,
          "internalType": "address",
          "name": "account",
          "type": "address"
        },
        {
          "indexed": true,
          "internalType": "address",
          "name": "sender",
          "type": "address"
        }
      ],
      "name": "RoleRevoked",
      "type": "event"
    },
    {
      "anonymous": false,
      "inputs": [
        {
          "indexed": true,
          "internalType": "uint256",
          "name": "tokenId",
          "type": "uint256"
        },
        {
          "indexed": true,
          "internalType": "address",
          "name": "to",
          "type": "address"
        },
        {
          "indexed": false,
          "internalType": "uint256",
          "name": "amount",
          "type": "uint256"
        },
        {
          "indexed": false,
          "internalType": "bytes32",
          "name": "attestationId",
          "type": "bytes32"
        }
      ],
      "name": "SPEIssued",
      "type": "event"
    },
    {
      "anonymous": false,
      "inputs": [
        {
          "indexed": true,
          "internalType": "uint256",
          "name": "tokenId",
          "type": "uint256"
        },
        {
          "indexed": true,
          "internalType": "address",
          "name": "holder",
          "type": "address"
        },
        {
          "indexed": false,
          "internalType": "uint256",
          "name": "amount",
          "type": "uint256"
        }
      ],
      "name": "SPERetired",
      "type": "event"
    },
    {
      "anonymous": false,
      "inputs": [
        {
          "indexed": true,
          "internalType": "address",
          "name": "operator",
          "type": "address"
        },
        {
          "indexed": true,
          "internalType": "address",
          "name": "from",
          "type": "address"
        },
        {
          "indexed": true,
          "internalType": "address",
          "name": "to",
          "type": "address"
        },
        {
          "indexed": false,
          "internalType": "uint256[]",
          "name": "ids",
          "type": "uint256[]"
        },
        {
          "indexed": false,
          "internalType": "uint256[]",
          "name": "values",
          "type": "uint256[]"
        }
      ],
      "name": "TransferBatch",
      "type": "event"
    },
    {
      "anonymous": false,
      "inputs": [
        {
          "indexed": true,
          "internalType": "address",
          "name": "operator",
          "type": "address"
        },
        {
          "indexed": true,
          "internalType": "address",
          "name": "from",
          "type": "address"
        },
        {
          "indexed": true,
          "internalType": "address",
          "name": "to",
          "type": "address"
        },
        {
          "indexed": false,
          "internalType": "uint256",
          "name": "id",
          "type": "uint256"
        },
        {
          "indexed": false,
          "internalType": "uint256",
          "name": "value",
          "type": "uint256"
        }
      ],
      "name": "TransferSingle",
      "type": "event"
    },
    {
      "anonymous": false,
      "inputs": [
        {
          "indexed": false,
          "internalType": "string",
          "name": "value",
          "type": "string"
        },
        {
          "indexed": true,
          "internalType": "uint256",
          "name": "id",
          "type": "uint256"
        }
      ],
      "name": "URI",
      "type": "event"
    },
    {
      "inputs": [],
      "name": "DEFAULT_ADMIN_ROLE",
      "outputs": [
        {
          "internalType": "bytes32",
          "name": "",
          "type": "bytes32"
        }
      ],
      "stateMutability": "view",
      "type": "function"
    },
    {
      "inputs": [],
      "name": "REGULATOR_ROLE",
      "outputs": [
        {
          "internalType": "bytes32",
          "name": "",
          "type": "bytes32"
        }
      ],
      "stateMutability": "view",
      "type": "function"
    },
    {
      "inputs": [
        {
          "internalType": "address",
          "name": "account",
          "type": "address"
        },
        {
          "internalType": "uint256",
          "name": "id",
          "type": "uint256"
        }
      ],
      "name": "balanceOf",
      "outputs": [
        {
          "internalType": "uint256",
          "name": "",
          "type": "uint256"
        }
      ],
      "stateMutability": "view",
      "type": "function"
    },
    {
      "inputs": [
        {
          "internalType": "address[]",
          "name": "accounts",
          "type": "address[]"
        },
        {
          "internalType": "uint256[]",
          "name": "ids",
          "type": "uint256[]"
        }
      ],
      "name": "balanceOfBatch",
      "outputs": [
        {
          "internalType": "uint256[]",
          "name": "",
          "type": "uint256[]"
        }
      ],
      "stateMutability": "view",
      "type": "function"
    },
    {
      "inputs": [
        {
          "internalType": "uint256",
          "name": "",
          "type": "uint256"
        }
      ],
      "name": "docHash",
      "outputs": [
        {
          "internalType": "bytes32",
          "name": "",
          "type": "bytes32"
        }
      ],
      "stateMutability": "view",
      "type": "function"
    },
    {
      "inputs": [
        {
          "internalType": "bytes32",
          "name": "role",
          "type": "bytes32"
        }
      ],
      "name": "getRoleAdmin",
      "outputs": [
        {
          "internalType": "bytes32",
          "name": "",
          "type": "bytes32"
        }
      ],
      "stateMutability": "view",
      "type": "function"
    },
    {
      "inputs": [
        {
          "internalType": "uint256",
          "name": "tokenId",
          "type": "uint256"
        }
      ],
      "name": "getUnit",
      "outputs": [
        {
          "components": [
            {
              "internalType": "string",
              "name": "projectId",
              "type": "string"
            },
            {
              "internalType": "uint16",
              "name": "vintageYear",
              "type": "uint16"
            },
            {
              "internalType": "string",
              "name": "methodology",
              "type": "string"
            },
            {
              "internalType": "string",
              "name": "registryRef",
              "type": "string"
            }
          ],
          "internalType": "struct SPEGRKToken.UnitMeta",
          "name": "meta",
          "type": "tuple"
        },
        {
          "internalType": "enum SPEGRKToken.Status",
          "name": "st",
          "type": "uint8"
        },
        {
          "internalType": "bytes32",
          "name": "mrvDocHash",
          "type": "bytes32"
        },
        {
          "internalType": "uint64",
          "name": "issued",
          "type": "uint64"
        },
        {
          "internalType": "uint64",
          "name": "retired",
          "type": "uint64"
        },
        {
          "internalType": "uint256",
          "name": "supply",
          "type": "uint256"
        }
      ],
      "stateMutability": "view",
      "type": "function"
    },
    {
      "inputs": [
        {
          "internalType": "bytes32",
          "name": "role",
          "type": "bytes32"
        },
        {
          "internalType": "address",
          "name": "account",
          "type": "address"
        }
      ],
      "name": "grantRole",
      "outputs": [],
      "stateMutability": "nonpayable",
      "type": "function"
    },
    {
      "inputs": [
        {
          "internalType": "bytes32",
          "name": "role",
          "type": "bytes32"
        },
        {
          "internalType": "address",
          "name": "account",
          "type": "address"
        }
      ],
      "name": "hasRole",
      "outputs": [
        {
          "internalType": "bool",
          "name": "",
          "type": "bool"
        }
      ],
      "stateMutability": "view",
      "type": "function"
    },
    {
      "inputs": [
        {
          "internalType": "address",
          "name": "account",
          "type": "address"
        },
        {
          "internalType": "address",
          "name": "operator",
          "type": "address"
        }
      ],
      "name": "isApprovedForAll",
      "outputs": [
        {
          "internalType": "bool",
          "name": "",
          "type": "bool"
        }
      ],
      "stateMutability": "view",
      "type": "function"
    },
    {
      "inputs": [
        {
          "internalType": "address",
          "name": "forwarder",
          "type": "address"
        }
      ],
      "name": "isTrustedForwarder",
      "outputs": [
        {
          "internalType": "bool",
          "name": "",
          "type": "bool"
        }
      ],
      "stateMutability": "view",
      "type": "function"
    },
    {
      "inputs": [
        {
          "internalType": "uint256",
          "name": "tokenId",
          "type": "uint256"
        },
        {
          "internalType": "address",
          "name": "to",
          "type": "address"
        },
        {
          "internalType": "uint256",
          "name": "amount",
          "type": "uint256"
        },
        {
          "components": [
            {
              "internalType": "string",
              "name": "projectId",
              "type": "string"
            },
            {
              "internalType": "uint16",
              "name": "vintageYear",
              "type": "uint16"
            },
            {
              "internalType": "string",
              "name": "methodology",
              "type": "string"
            },
            {
              "internalType": "string",
              "name": "registryRef",
              "type": "string"
            }
          ],
          "internalType": "struct SPEGRKToken.UnitMeta",
          "name": "meta",
          "type": "tuple"
        },
        {
          "internalType": "bytes32",
          "name": "attestationId",
          "type": "bytes32"
        }
      ],
      "name": "issueSPE",
      "outputs": [],
      "stateMutability": "nonpayable",
      "type": "function"
    },
    {
      "inputs": [
        {
          "internalType": "uint256",
          "name": "",
          "type": "uint256"
        }
      ],
      "name": "issuedAt",
      "outputs": [
        {
          "internalType": "uint64",
          "name": "",
          "type": "uint64"
        }
      ],
      "stateMutability": "view",
      "type": "function"
    },
    {
      "inputs": [],
      "name": "oracle",
      "outputs": [
        {
          "internalType": "contract MRVOracle",
          "name": "",
          "type": "address"
        }
      ],
      "stateMutability": "view",
      "type": "function"
    },
    {
      "inputs": [
        {
          "internalType": "bytes32",
          "name": "role",
          "type": "bytes32"
        },
        {
          "internalType": "address",
          "name": "callerConfirmation",
          "type": "address"
        }
      ],
      "name": "renounceRole",
      "outputs": [],
      "stateMutability": "nonpayable",
      "type": "function"
    },
    {
      "inputs": [
        {
          "internalType": "uint256",
          "name": "tokenId",
          "type": "uint256"
        },
        {
          "internalType": "uint256",
          "name": "amount",
          "type": "uint256"
        }
      ],
      "name": "retireSPE",
      "outputs": [],
      "stateMutability": "nonpayable",
      "type": "function"
    },
    {
      "inputs": [
        {
          "internalType": "uint256",
          "name": "",
          "type": "uint256"
        }
      ],
      "name": "retiredAt",
      "outputs": [
        {
          "internalType": "uint64",
          "name": "",
          "type": "uint64"
        }
      ],
      "stateMutability": "view",
      "type": "function"
    },
    {
      "inputs": [
        {
          "internalType": "bytes32",
          "name": "role",
          "type": "bytes32"
        },
        {
          "internalType": "address",
          "name": "account",
          "type": "address"
        }
      ],
      "name": "revokeRole",
      "outputs": [],
      "stateMutability": "nonpayable",
      "type": "function"
    },
    {
      "inputs": [
        {
          "internalType": "address",
          "name": "from",
          "type": "address"
        },
        {
          "internalType": "address",
          "name": "to",
          "type": "address"
        },
        {
          "internalType": "uint256[]",
          "name": "ids",
          "type": "uint256[]"
        },
        {
          "internalType": "uint256[]",
          "name": "values",
          "type": "uint256[]"
        },
        {
          "internalType": "bytes",
          "name": "data",
          "type": "bytes"
        }
      ],
      "name": "safeBatchTransferFrom",
      "outputs": [],
      "stateMutability": "nonpayable",
      "type": "function"
    },
    {
      "inputs": [
        {
          "internalType": "address",
          "name": "from",
          "type": "address"
        },
        {
          "internalType": "address",
          "name": "to",
          "type": "address"
        },
        {
          "internalType": "uint256",
          "name": "id",
          "type": "uint256"
        },
        {
          "internalType": "uint256",
          "name": "value",
          "type": "uint256"
        },
        {
          "internalType": "bytes",
          "name": "data",
          "type": "bytes"
        }
      ],
      "name": "safeTransferFrom",
      "outputs": [],
      "stateMutability": "nonpayable",
      "type": "function"
    },
    {
      "inputs": [
        {
          "internalType": "address",
          "name": "operator",
          "type": "address"
        },
        {
          "internalType": "bool",
          "name": "approved",
          "type": "bool"
        }
      ],
      "name": "setApprovalForAll",
      "outputs": [],
      "stateMutability": "nonpayable",
      "type": "function"
    },
    {
      "inputs": [
        {
          "internalType": "uint256",
          "name": "",
          "type": "uint256"
        }
      ],
      "name": "status",
      "outputs": [
        {
          "internalType": "enum SPEGRKToken.Status",
          "name": "",
          "type": "uint8"
        }
      ],
      "stateMutability": "view",
      "type": "function"
    },
    {
      "inputs": [
        {
          "internalType": "bytes4",
          "name": "interfaceId",
          "type": "bytes4"
        }
      ],
      "name": "supportsInterface",
      "outputs": [
        {
          "internalType": "bool",
          "name": "",
          "type": "bool"
        }
      ],
      "stateMutability": "view",
      "type": "function"
    },
    {
      "inputs": [
        {
          "internalType": "uint256",
          "name": "",
          "type": "uint256"
        }
      ],
      "name": "totalSupply",
      "outputs": [
        {
          "internalType": "uint256",
          "name": "",
          "type": "uint256"
        }
      ],
      "stateMutability": "view",
      "type": "function"
    },
    {
      "inputs": [],
      "name": "trustedForwarder",
      "outputs": [
        {
          "internalType": "address",
          "name": "",
          "type": "address"
        }
      ],
      "stateMutability": "view",
      "type": "function"
    },
    {
      "inputs": [
        {
          "internalType": "uint256",
          "name": "",
          "type": "uint256"
        }
      ],
      "name": "unitMeta",
      "outputs": [
        {
          "internalType": "string",
          "name": "projectId",
          "type": "string"
        },
        {
          "internalType": "uint16",
          "name": "vintageYear",
          "type": "uint16"
        },
        {
          "internalType": "string",
          "name": "methodology",
          "type": "string"
        },
        {
          "internalType": "string",
          "name": "registryRef",
          "type": "string"
        }
      ],
      "stateMutability": "view",
      "type": "function"
    },
    {
      "inputs": [
        {
          "internalType": "uint256",
          "name": "",
          "type": "uint256"
        }
      ],
      "name": "uri",
      "outputs": [
        {
          "internalType": "string",
          "name": "",
          "type": "string"
        }
      ],
      "stateMutability": "view",
      "type": "function"
    },
    {
      "inputs": [
        {
          "internalType": "bytes32",
          "name": "",
          "type": "bytes32"
        }
      ],
      "name": "usedAttestations",
      "outputs": [
        {
          "internalType": "bool",
          "name": "",
          "type": "bool"
        }
      ],
      "stateMutability": "view",
      "type": "function"
    }
  ],
  "bytecode": "0x60a06040523480156200001157600080fd5b50604051620050cc380380620050cc8339818101604052810190620000379190620005ac565b80856200004a816200011560201b60201c565b508073ffffffffffffffffffffffffffffffffffffffff1660808173ffffffffffffffffffffffffffffffffffffffff168152505050620000956000801b856200012a60201b60201c565b50620000c87f20b5f7ac978e5d6199de06401411960dfa81d2f762655f6206bdc61d46fc19e6846200012a60201b60201c565b5081600a60006101000a81548173ffffffffffffffffffffffffffffffffffffffff021916908373ffffffffffffffffffffffffffffffffffffffff160217905550505050505062000a6d565b80600290816200012691906200089e565b5050565b60006200013e83836200022e60201b60201c565b620002235760016003600085815260200190815260200160002060000160008473ffffffffffffffffffffffffffffffffffffffff1673ffffffffffffffffffffffffffffffffffffffff16815260200190815260200160002060006101000a81548160ff021916908315150217905550620001bf6200029960201b60201c565b73ffffffffffffffffffffffffffffffffffffffff168273ffffffffffffffffffffffffffffffffffffffff16847f2f8788117e7eff1d82e926ec794901d17c78024a50270940304540a733656f0d60405160405180910390a46001905062000228565b600090505b92915050565b60006003600084815260200190815260200160002060000160008373ffffffffffffffffffffffffffffffffffffffff1673ffffffffffffffffffffffffffffffffffffffff16815260200190815260200160002060009054906101000a900460ff16905092915050565b6000620002ab620002b060201b60201c565b905090565b600080600036905090506000620002cc6200033b60201b60201c565b9050808210158015620002ec5750620002eb336200035260201b60201c565b5b15620003235760003682840390809262000309939291906200098f565b9062000316919062000a07565b60601c9250505062000338565b620003336200039960201b60201c565b925050505b90565b60006200034d620003a160201b60201c565b905090565b600062000364620003aa60201b60201c565b73ffffffffffffffffffffffffffffffffffffffff168273ffffffffffffffffffffffffffffffffffffffff16149050919050565b600033905090565b60006014905090565b6000608051905090565b6000604051905090565b600080fd5b600080fd5b600080fd5b600080fd5b6000601f19601f8301169050919050565b7f4e487b7100000000000000000000000000000000000000000000000000000000600052604160045260246000fd5b6200041d82620003d2565b810181811067ffffffffffffffff821117156200043f576200043e620003e3565b5b80604052505050565b600062000454620003b4565b905062000462828262000412565b919050565b600067ffffffffffffffff821115620004855762000484620003e3565b5b6200049082620003d2565b9050602081019050919050565b60005b83811015620004bd578082015181840152602081019050620004a0565b60008484015250505050565b6000620004e0620004da8462000467565b62000448565b905082815260208101848484011115620004ff57620004fe620003cd565b5b6200050c8482856200049d565b509392505050565b600082601f8301126200052c576200052b620003c8565b5b81516200053e848260208601620004c9565b91505092915050565b600073ffffffffffffffffffffffffffffffffffffffff82169050919050565b6000620005748262000547565b9050919050565b620005868162000567565b81146200059257600080fd5b50565b600081519050620005a6816200057b565b92915050565b600080600080600060a08688031215620005cb57620005ca620003be565b5b600086015167ffffffffffffffff811115620005ec57620005eb620003c3565b5b620005fa8882890162000514565b95505060206200060d8882890162000595565b9450506040620006208882890162000595565b9350506060620006338882890162000595565b9250506080620006468882890162000595565b9150509295509295909350565b600081519050919050565b7f4e487b7100000000000000000000000000000000000000000000000000000000600052602260045260246000fd5b60006002820490506001821680620006a657607f821691505b602082108103620006bc57620006bb6200065e565b5b50919050565b60008190508160005260206000209050919050565b60006020601f8301049050919050565b600082821b905092915050565b600060088302620007267fffffffffffffffffffffffffffffffffffffffffffffffffffffffffffffffff82620006e7565b620007328683620006e7565b95508019841693508086168417925050509392505050565b6000819050919050565b6000819050919050565b60006200077f6200077962000773846200074a565b62000754565b6200074a565b9050919050565b6000819050919050565b6200079b836200075e565b620007b3620007aa8262000786565b848454620006f4565b825550505050565b600090565b620007ca620007bb565b620007d781848462000790565b505050565b5b81811015620007ff57620007f3600082620007c0565b600181019050620007dd565b5050565b601f8211156200084e576200081881620006c2565b6200082384620006d7565b8101602085101562000833578190505b6200084b6200084285620006d7565b830182620007dc565b50505b505050565b600082821c905092915050565b6000620008736000198460080262000853565b1980831691505092915050565b60006200088e838362000860565b9150826002028217905092915050565b620008a98262000653565b67ffffffffffffffff811115620008c557620008c4620003e3565b5b620008d182546200068d565b620008de82828562000803565b600060209050601f83116001811462000916576000841562000901578287015190505b6200090d858262000880565b8655506200097d565b601f1984166200092686620006c2565b60005b82811015620009505784890151825560018201915060208501945060208101905062000929565b868310156200097057848901516200096c601f89168262000860565b8355505b6001600288020188555050505b505050505050565b600080fd5b600080fd5b60008085851115620009a657620009a562000985565b5b83861115620009ba57620009b96200098a565b5b6001850283019150848603905094509492505050565b600082905092915050565b60007fffffffffffffffffffffffffffffffffffffffff00000000000000000000000082169050919050565b600062000a158383620009d0565b8262000a228135620009db565b9250601482101562000a655762000a607fffffffffffffffffffffffffffffffffffffffff00000000000000000000000083601403600802620006e7565b831692505b505092915050565b60805161464362000a89600039600061144601526146436000f3fe608060405234801561001057600080fd5b50600436106101c35760003560e01c8063572b6c05116100f9578063a217fddf11610097578063d547741f11610071578063d547741f1461058d578063e985e9c5146105a9578063eaf724d8146105d9578063f242432a1461060c576101c3565b8063a217fddf14610523578063a22cb46514610541578063bd85b0391461055d576101c3565b80637da0a877116100d35780637da0a877146104875780637dc0d1d0146104a557806391d14854146104c35780639f37e2fd146104f3576101c3565b8063572b6c05146103f75780635a553572146104275780636fb1bf0d14610457576101c3565b80632f2ff15d1161016657806342d21ef71161014057806342d21ef71461035f578063437d48621461038f5780634e1273f4146103ab578063517c3603146103db576101c3565b80632f2ff15d146102f757806336568abe1461031357806341562f1e1461032f576101c3565b8063144bf589116101a2578063144bf589146102585780631655bfbe14610276578063248a9ca3146102ab5780632eb2c2d6146102db576101c3565b8062fdd58e146101c857806301ffc9a7146101f85780630e89341c14610228575b600080fd5b6101e260048036038101906101dd9190612add565b610628565b6040516101ef9190612b2c565b60405180910390f35b610212600480360381019061020d9190612b9f565b610682565b60405161021f9190612be7565b60405180910390f35b610242600480360381019061023d9190612c02565b610694565b60405161024f9190612cbf565b60405180910390f35b610260610728565b60405161026d9190612cfa565b60405180910390f35b610290600480360381019061028b9190612c02565b61074c565b6040516102a296959493929190612e87565b60405180910390f35b6102c560048036038101906102c09190612f1b565b6109fe565b6040516102d29190612cfa565b60405180910390f35b6102f560048036038101906102f09190613145565b610a1e565b005b610311600480360381019061030c9190613214565b610ac6565b005b61032d60048036038101906103289190613214565b610ae8565b005b61034960048036038101906103449190612c02565b610b63565b6040516103569190613254565b60405180910390f35b61037960048036038101906103749190612c02565b610b8a565b604051610386919061326f565b60405180910390f35b6103a960048036038101906103a4919061328a565b610baa565b005b6103c560048036038101906103c0919061338d565b610def565b6040516103d291906134c3565b60405180910390f35b6103f560048036038101906103f09190613509565b610efe565b005b610411600480360381019061040c91906135a0565b6113cb565b60405161041e9190612be7565b60405180910390f35b610441600480360381019061043c9190612f1b565b61140a565b60405161044e9190612be7565b60405180910390f35b610471600480360381019061046c9190612c02565b61142a565b60405161047e9190612cfa565b60405180910390f35b61048f611442565b60405161049c91906135dc565b60405180910390f35b6104ad61146a565b6040516104ba9190613656565b60405180910390f35b6104dd60048036038101906104d89190613214565b611490565b6040516104ea9190612be7565b60405180910390f35b61050d60048036038101906105089190612c02565b6114fb565b60405161051a9190613254565b60405180910390f35b61052b611522565b6040516105389190612cfa565b60405180910390f35b61055b6004803603810190610556919061369d565b611529565b005b61057760048036038101906105729190612c02565b61153f565b6040516105849190612b2c565b60405180910390f35b6105a760048036038101906105a29190613214565b611557565b005b6105c360048036038101906105be91906136dd565b611579565b6040516105d09190612be7565b60405180910390f35b6105f360048036038101906105ee9190612c02565b61160d565b604051610603949392919061372c565b60405180910390f35b61062660048036038101906106219190613786565b6117e3565b005b600080600083815260200190815260200160002060008473ffffffffffffffffffffffffffffffffffffffff1673ffffffffffffffffffffffffffffffffffffffff16815260200190815260200160002054905092915050565b600061068d8261188b565b9050919050565b6060600280546106a39061384c565b80601f01602080910402602001604051908101604052809291908181526020018280546106cf9061384c565b801561071c5780601f106106f15761010080835404028352916020019161071c565b820191906000526020600020905b8154815290600101906020018083116106ff57829003601f168201915b50505050509050919050565b7f20b5f7ac978e5d6199de06401411960dfa81d2f762655f6206bdc61d46fc19e681565b610754612a09565b60008060008060006004600088815260200190815260200160002060405180608001604052908160008201805461078a9061384c565b80601f01602080910402602001604051908101604052809291908181526020018280546107b69061384c565b80156108035780601f106107d857610100808354040283529160200191610803565b820191906000526020600020905b8154815290600101906020018083116107e657829003601f168201915b505050505081526020016001820160009054906101000a900461ffff1661ffff1661ffff16815260200160028201805461083c9061384c565b80601f01602080910402602001604051908101604052809291908181526020018280546108689061384c565b80156108b55780601f1061088a576101008083540402835291602001916108b5565b820191906000526020600020905b81548152906001019060200180831161089857829003601f168201915b505050505081526020016003820180546108ce9061384c565b80601f01602080910402602001604051908101604052809291908181526020018280546108fa9061384c565b80156109475780601f1061091c57610100808354040283529160200191610947565b820191906000526020600020905b81548152906001019060200180831161092a57829003601f168201915b50505050508152505095506005600088815260200190815260200160002060009054906101000a900460ff169450600660008881526020019081526020016000205493506007600088815260200190815260200160002060009054906101000a900467ffffffffffffffff1692506008600088815260200190815260200160002060009054906101000a900467ffffffffffffffff1691506009600088815260200190815260200160002054905091939550919395565b600060036000838152602001908152602001600020600101549050919050565b6000610a28611905565b90508073ffffffffffffffffffffffffffffffffffffffff168673ffffffffffffffffffffffffffffffffffffffff1614158015610a6d5750610a6b8682611579565b155b15610ab15780866040517fe237d922000000000000000000000000000000000000000000000000000000008152600401610aa892919061387d565b60405180910390fd5b610abe8686868686611914565b505050505050565b610acf826109fe565b610ad881611a0c565b610ae28383611a20565b50505050565b610af0611905565b73ffffffffffffffffffffffffffffffffffffffff168173ffffffffffffffffffffffffffffffffffffffff1614610b54576040517f6697b23200000000000000000000000000000000000000000000000000000000815260040160405180910390fd5b610b5e8282611b12565b505050565b60086020528060005260406000206000915054906101000a900467ffffffffffffffff1681565b60056020528060005260406000206000915054906101000a900460ff1681565b60008111610bed576040517f08c379a0000000000000000000000000000000000000000000000000000000008152600401610be4906138f2565b60405180910390fd5b60006001811115610c0157610c00612ded565b5b6005600084815260200190815260200160002060009054906101000a900460ff166001811115610c3457610c33612ded565b5b14610c74576040517f08c379a0000000000000000000000000000000000000000000000000000000008152600401610c6b9061395e565b60405180910390fd5b80610c86610c80611905565b84610628565b1015610cc7576040517f08c379a0000000000000000000000000000000000000000000000000000000008152600401610cbe906139ca565b60405180910390fd5b610cd9610cd2611905565b8383611c05565b80600960008481526020019081526020016000206000828254610cfc9190613a19565b92505081905550610d0b611905565b73ffffffffffffffffffffffffffffffffffffffff16827f879d3119c4b795ef52faad4d0f5bccc9da39e3dd23f5c04dff39d2cd7902e04e83604051610d519190612b2c565b60405180910390a36000600960008481526020019081526020016000205403610deb5760016005600084815260200190815260200160002060006101000a81548160ff02191690836001811115610dab57610daa612ded565b5b0217905550426008600084815260200190815260200160002060006101000a81548167ffffffffffffffff021916908367ffffffffffffffff1602179055505b5050565b60608151835114610e3b57815183516040517f5b059991000000000000000000000000000000000000000000000000000000008152600401610e32929190613a4d565b60405180910390fd5b6000835167ffffffffffffffff811115610e5857610e57612f4d565b5b604051908082528060200260200182016040528015610e865781602001602082028036833780820191505090505b50905060005b8451811015610ef357610ec3610eab8287611cac90919063ffffffff16565b610ebe8387611cc090919063ffffffff16565b610628565b828281518110610ed657610ed5613a76565b5b60200260200101818152505080610eec90613aa5565b9050610e8c565b508091505092915050565b7f20b5f7ac978e5d6199de06401411960dfa81d2f762655f6206bdc61d46fc19e6610f2881611a0c565b600073ffffffffffffffffffffffffffffffffffffffff168573ffffffffffffffffffffffffffffffffffffffff1603610f97576040517f08c379a0000000000000000000000000000000000000000000000000000000008152600401610f8e90613b39565b60405180910390fd5b60008411610fda576040517f08c379a0000000000000000000000000000000000000000000000000000000008152600401610fd1906138f2565b60405180910390fd5b60006007600088815260200190815260200160002060009054906101000a900467ffffffffffffffff1667ffffffffffffffff161461104e576040517f08c379a000000000000000000000000000000000000000000000000000000000815260040161104590613ba5565b60405180910390fd5b6000806000600a60009054906101000a900473ffffffffffffffffffffffffffffffffffffffff1673ffffffffffffffffffffffffffffffffffffffff1663a3112a64866040518263ffffffff1660e01b81526004016110ae9190612cfa565b608060405180830381865afa1580156110cb573d6000803e3d6000fd5b505050506040513d601f19601f820116820180604052508101906110ef9190613c1b565b5092509250925080611136576040517f08c379a000000000000000000000000000000000000000000000000000000000815260040161112d90613cce565b60405180910390fd5b600b600086815260200190815260200160002060009054906101000a900460ff1615611197576040517f08c379a000000000000000000000000000000000000000000000000000000000815260040161118e90613d3a565b60405180910390fd5b60008680600001906111a99190613d69565b8860200160208101906111bc9190613df8565b8980604001906111cc9190613d69565b8b80606001906111dc9190613d69565b6040516020016111f29796959493929190613e52565b60405160208183030381529060405280519060200120905082811461124c576040517f08c379a000000000000000000000000000000000000000000000000000000000815260040161124390613efe565b60405180910390fd5b86600460008c8152602001908152602001600020818161126c91906142c9565b90505083600660008c8152602001908152602001600020819055506000600560008c815260200190815260200160002060006101000a81548160ff021916908360018111156112be576112bd612ded565b5b021790555042600760008c815260200190815260200160002060006101000a81548167ffffffffffffffff021916908367ffffffffffffffff1602179055506001600b600088815260200190815260200160002060006101000a81548160ff021916908315150217905550611344898b8a60405180602001604052806000815250611cd4565b87600960008c8152602001908152602001600020600082825461136791906142d7565b925050819055508873ffffffffffffffffffffffffffffffffffffffff168a7f3c97ec92fc87a519e7bb3db22d1c35276500b8736eddafb68b4596ff3c2971d88a896040516113b792919061430b565b60405180910390a350505050505050505050565b60006113d5611442565b73ffffffffffffffffffffffffffffffffffffffff168273ffffffffffffffffffffffffffffffffffffffff16149050919050565b600b6020528060005260406000206000915054906101000a900460ff1681565b60066020528060005260406000206000915090505481565b60007f0000000000000000000000000000000000000000000000000000000000000000905090565b600a60009054906101000a900473ffffffffffffffffffffffffffffffffffffffff1681565b60006003600084815260200190815260200160002060000160008373ffffffffffffffffffffffffffffffffffffffff1673ffffffffffffffffffffffffffffffffffffffff16815260200190815260200160002060009054906101000a900460ff16905092915050565b60076020528060005260406000206000915054906101000a900467ffffffffffffffff1681565b6000801b81565b61153b611534611905565b8383611d6d565b5050565b60096020528060005260406000206000915090505481565b611560826109fe565b61156981611a0c565b6115738383611b12565b50505050565b6000600160008473ffffffffffffffffffffffffffffffffffffffff1673ffffffffffffffffffffffffffffffffffffffff16815260200190815260200160002060008373ffffffffffffffffffffffffffffffffffffffff1673ffffffffffffffffffffffffffffffffffffffff16815260200190815260200160002060009054906101000a900460ff16905092915050565b60046020528060005260406000206000915090508060000180546116309061384c565b80601f016020809104026020016040519081016040528092919081815260200182805461165c9061384c565b80156116a95780601f1061167e576101008083540402835291602001916116a9565b820191906000526020600020905b81548152906001019060200180831161168c57829003601f168201915b5050505050908060010160009054906101000a900461ffff16908060020180546116d29061384c565b80601f01602080910402602001604051908101604052809291908181526020018280546116fe9061384c565b801561174b5780601f106117205761010080835404028352916020019161174b565b820191906000526020600020905b81548152906001019060200180831161172e57829003601f168201915b5050505050908060030180546117609061384c565b80601f016020809104026020016040519081016040528092919081815260200182805461178c9061384c565b80156117d95780601f106117ae576101008083540402835291602001916117d9565b820191906000526020600020905b8154815290600101906020018083116117bc57829003601f168201915b5050505050905084565b60006117ed611905565b90508073ffffffffffffffffffffffffffffffffffffffff168673ffffffffffffffffffffffffffffffffffffffff161415801561183257506118308682611579565b155b156118765780866040517fe237d92200000000000000000000000000000000000000000000000000000000815260040161186d92919061387d565b60405180910390fd5b6118838686868686611edd565b505050505050565b60007f7965db0b000000000000000000000000000000000000000000000000000000007bffffffffffffffffffffffffffffffffffffffffffffffffffffffff1916827bffffffffffffffffffffffffffffffffffffffffffffffffffffffff191614806118fe57506118fd82611fe8565b5b9050919050565b600061190f6120ca565b905090565b600073ffffffffffffffffffffffffffffffffffffffff168473ffffffffffffffffffffffffffffffffffffffff16036119865760006040517f57f447ce00000000000000000000000000000000000000000000000000000000815260040161197d91906135dc565b60405180910390fd5b600073ffffffffffffffffffffffffffffffffffffffff168573ffffffffffffffffffffffffffffffffffffffff16036119f85760006040517f01a835140000000000000000000000000000000000000000000000000000000081526004016119ef91906135dc565b60405180910390fd5b611a058585858585612136565b5050505050565b611a1d81611a18611905565b6121e8565b50565b6000611a2c8383611490565b611b075760016003600085815260200190815260200160002060000160008473ffffffffffffffffffffffffffffffffffffffff1673ffffffffffffffffffffffffffffffffffffffff16815260200190815260200160002060006101000a81548160ff021916908315150217905550611aa4611905565b73ffffffffffffffffffffffffffffffffffffffff168273ffffffffffffffffffffffffffffffffffffffff16847f2f8788117e7eff1d82e926ec794901d17c78024a50270940304540a733656f0d60405160405180910390a460019050611b0c565b600090505b92915050565b6000611b1e8383611490565b15611bfa5760006003600085815260200190815260200160002060000160008473ffffffffffffffffffffffffffffffffffffffff1673ffffffffffffffffffffffffffffffffffffffff16815260200190815260200160002060006101000a81548160ff021916908315150217905550611b97611905565b73ffffffffffffffffffffffffffffffffffffffff168273ffffffffffffffffffffffffffffffffffffffff16847ff6391f5c32d9c69d2a47ea670b442974b53935d1edc7fd64eb21e047a839171b60405160405180910390a460019050611bff565b600090505b92915050565b600073ffffffffffffffffffffffffffffffffffffffff168373ffffffffffffffffffffffffffffffffffffffff1603611c775760006040517f01a83514000000000000000000000000000000000000000000000000000000008152600401611c6e91906135dc565b60405180910390fd5b600080611c848484612239565b91509150611ca5856000848460405180602001604052806000815250612136565b5050505050565b600060208202602084010151905092915050565b600060208202602084010151905092915050565b600073ffffffffffffffffffffffffffffffffffffffff168473ffffffffffffffffffffffffffffffffffffffff1603611d465760006040517f57f447ce000000000000000000000000000000000000000000000000000000008152600401611d3d91906135dc565b60405180910390fd5b600080611d538585612239565b91509150611d65600087848487612136565b505050505050565b600073ffffffffffffffffffffffffffffffffffffffff168273ffffffffffffffffffffffffffffffffffffffff1603611ddf5760006040517fced3e100000000000000000000000000000000000000000000000000000000008152600401611dd691906135dc565b60405180910390fd5b80600160008573ffffffffffffffffffffffffffffffffffffffff1673ffffffffffffffffffffffffffffffffffffffff16815260200190815260200160002060008473ffffffffffffffffffffffffffffffffffffffff1673ffffffffffffffffffffffffffffffffffffffff16815260200190815260200160002060006101000a81548160ff0219169083151502179055508173ffffffffffffffffffffffffffffffffffffffff168373ffffffffffffffffffffffffffffffffffffffff167f17307eab39ab6107e8899845ad3d59bd9653f200f220920489ca2b5937696c3183604051611ed09190612be7565b60405180910390a3505050565b600073ffffffffffffffffffffffffffffffffffffffff168473ffffffffffffffffffffffffffffffffffffffff1603611f4f5760006040517f57f447ce000000000000000000000000000000000000000000000000000000008152600401611f4691906135dc565b60405180910390fd5b600073ffffffffffffffffffffffffffffffffffffffff168573ffffffffffffffffffffffffffffffffffffffff1603611fc15760006040517f01a83514000000000000000000000000000000000000000000000000000000008152600401611fb891906135dc565b60405180910390fd5b600080611fce8585612239565b91509150611fdf8787848487612136565b50505050505050565b60007fd9b67a26000000000000000000000000000000000000000000000000000000007bffffffffffffffffffffffffffffffffffffffffffffffffffffffff1916827bffffffffffffffffffffffffffffffffffffffffffffffffffffffff191614806120b357507f0e89341c000000000000000000000000000000000000000000000000000000007bffffffffffffffffffffffffffffffffffffffffffffffffffffffff1916827bffffffffffffffffffffffffffffffffffffffffffffffffffffffff1916145b806120c357506120c282612269565b5b9050919050565b6000806000369050905060006120de6122d3565b90508082101580156120f557506120f4336113cb565b5b156121265760003682840390809261210f9392919061433e565b9061211a91906143b0565b60601c92505050612133565b61212e6122e2565b925050505b90565b612142858585856122ea565b600073ffffffffffffffffffffffffffffffffffffffff168473ffffffffffffffffffffffffffffffffffffffff16146121e1576000612180611905565b905060018451036121d05760006121a1600086611cc090919063ffffffff16565b905060006121b9600086611cc090919063ffffffff16565b90506121c9838989858589612698565b50506121df565b6121de81878787878761284c565b5b505b5050505050565b6121f28282611490565b6122355780826040517fe2517d3f00000000000000000000000000000000000000000000000000000000815260040161222c92919061440f565b60405180910390fd5b5050565b60608060405191506001825283602083015260408201905060018152826020820152604081016040529250929050565b60007f01ffc9a7000000000000000000000000000000000000000000000000000000007bffffffffffffffffffffffffffffffffffffffffffffffffffffffff1916827bffffffffffffffffffffffffffffffffffffffffffffffffffffffff1916149050919050565b60006122dd612a00565b905090565b600033905090565b805182511461233457815181516040517f5b05999100000000000000000000000000000000000000000000000000000000815260040161232b929190613a4d565b60405180910390fd5b600061233e611905565b905060005b83518110156125535760006123618286611cc090919063ffffffff16565b905060006123788386611cc090919063ffffffff16565b9050600073ffffffffffffffffffffffffffffffffffffffff168873ffffffffffffffffffffffffffffffffffffffff16146124a557600080600084815260200190815260200160002060008a73ffffffffffffffffffffffffffffffffffffffff1673ffffffffffffffffffffffffffffffffffffffff1681526020019081526020016000205490508181101561244d57888183856040517f03dee4c50000000000000000000000000000000000000000000000000000000081526004016124449493929190614438565b60405180910390fd5b81810360008085815260200190815260200160002060008b73ffffffffffffffffffffffffffffffffffffffff1673ffffffffffffffffffffffffffffffffffffffff16815260200190815260200160002081905550505b600073ffffffffffffffffffffffffffffffffffffffff168773ffffffffffffffffffffffffffffffffffffffff1614612540578060008084815260200190815260200160002060008973ffffffffffffffffffffffffffffffffffffffff1673ffffffffffffffffffffffffffffffffffffffff168152602001908152602001600020600082825461253891906142d7565b925050819055505b50508061254c90613aa5565b9050612343565b506001835103612612576000612573600085611cc090919063ffffffff16565b9050600061258b600085611cc090919063ffffffff16565b90508573ffffffffffffffffffffffffffffffffffffffff168773ffffffffffffffffffffffffffffffffffffffff168473ffffffffffffffffffffffffffffffffffffffff167fc3d58168c5ae7397731d063d5bbf3d657854427343f4c083240f7aacaa2d0f628585604051612603929190613a4d565b60405180910390a45050612691565b8373ffffffffffffffffffffffffffffffffffffffff168573ffffffffffffffffffffffffffffffffffffffff168273ffffffffffffffffffffffffffffffffffffffff167f4a39dc06d4c0dbc64b70af90fd698a233a518aa5d07e595d983b8c0526c8f7fb868660405161268892919061447d565b60405180910390a45b5050505050565b60008473ffffffffffffffffffffffffffffffffffffffff163b1115612844578373ffffffffffffffffffffffffffffffffffffffff1663f23a6e6187878686866040518663ffffffff1660e01b81526004016126f9959493929190614509565b6020604051808303816000875af192505050801561273557506040513d601f19601f820116820180604052508101906127329190614578565b60015b6127b9573d8060008114612765576040519150601f19603f3d011682016040523d82523d6000602084013e61276a565b606091505b5060008151036127b157846040517f57f447ce0000000000000000000000000000000000000000000000000000000081526004016127a891906135dc565b60405180910390fd5b805160208201fd5b63f23a6e6160e01b7bffffffffffffffffffffffffffffffffffffffffffffffffffffffff1916817bffffffffffffffffffffffffffffffffffffffffffffffffffffffff19161461284257846040517f57f447ce00000000000000000000000000000000000000000000000000000000815260040161283991906135dc565b60405180910390fd5b505b505050505050565b60008473ffffffffffffffffffffffffffffffffffffffff163b11156129f8578373ffffffffffffffffffffffffffffffffffffffff1663bc197c8187878686866040518663ffffffff1660e01b81526004016128ad9594939291906145a5565b6020604051808303816000875af19250505080156128e957506040513d601f19601f820116820180604052508101906128e69190614578565b60015b61296d573d8060008114612919576040519150601f19603f3d011682016040523d82523d6000602084013e61291e565b606091505b50600081510361296557846040517f57f447ce00000000000000000000000000000000000000000000000000000000815260040161295c91906135dc565b60405180910390fd5b805160208201fd5b63bc197c8160e01b7bffffffffffffffffffffffffffffffffffffffffffffffffffffffff1916817bffffffffffffffffffffffffffffffffffffffffffffffffffffffff1916146129f657846040517f57f447ce0000000000000000000000000000000000000000000000000000000081526004016129ed91906135dc565b60405180910390fd5b505b505050505050565b60006014905090565b604051806080016040528060608152602001600061ffff16815260200160608152602001606081525090565b6000604051905090565b600080fd5b600080fd5b600073ffffffffffffffffffffffffffffffffffffffff82169050919050565b6000612a7482612a49565b9050919050565b612a8481612a69565b8114612a8f57600080fd5b50565b600081359050612aa181612a7b565b92915050565b6000819050919050565b612aba81612aa7565b8114612ac557600080fd5b50565b600081359050612ad781612ab1565b92915050565b60008060408385031215612af457612af3612a3f565b5b6000612b0285828601612a92565b9250506020612b1385828601612ac8565b9150509250929050565b612b2681612aa7565b82525050565b6000602082019050612b416000830184612b1d565b92915050565b60007fffffffff0000000000000000000000000000000000000000000000000000000082169050919050565b612b7c81612b47565b8114612b8757600080fd5b50565b600081359050612b9981612b73565b92915050565b600060208284031215612bb557612bb4612a3f565b5b6000612bc384828501612b8a565b91505092915050565b60008115159050919050565b612be181612bcc565b82525050565b6000602082019050612bfc6000830184612bd8565b92915050565b600060208284031215612c1857612c17612a3f565b5b6000612c2684828501612ac8565b91505092915050565b600081519050919050565b600082825260208201905092915050565b60005b83811015612c69578082015181840152602081019050612c4e565b60008484015250505050565b6000601f19601f8301169050919050565b6000612c9182612c2f565b612c9b8185612c3a565b9350612cab818560208601612c4b565b612cb481612c75565b840191505092915050565b60006020820190508181036000830152612cd98184612c86565b905092915050565b6000819050919050565b612cf481612ce1565b82525050565b6000602082019050612d0f6000830184612ceb565b92915050565b600082825260208201905092915050565b6000612d3182612c2f565b612d3b8185612d15565b9350612d4b818560208601612c4b565b612d5481612c75565b840191505092915050565b600061ffff82169050919050565b612d7681612d5f565b82525050565b60006080830160008301518482036000860152612d998282612d26565b9150506020830151612dae6020860182612d6d565b5060408301518482036040860152612dc68282612d26565b91505060608301518482036060860152612de08282612d26565b9150508091505092915050565b7f4e487b7100000000000000000000000000000000000000000000000000000000600052602160045260246000fd5b60028110612e2d57612e2c612ded565b5b50565b6000819050612e3e82612e1c565b919050565b6000612e4e82612e30565b9050919050565b612e5e81612e43565b82525050565b600067ffffffffffffffff82169050919050565b612e8181612e64565b82525050565b600060c0820190508181036000830152612ea18189612d7c565b9050612eb06020830188612e55565b612ebd6040830187612ceb565b612eca6060830186612e78565b612ed76080830185612e78565b612ee460a0830184612b1d565b979650505050505050565b612ef881612ce1565b8114612f0357600080fd5b50565b600081359050612f1581612eef565b92915050565b600060208284031215612f3157612f30612a3f565b5b6000612f3f84828501612f06565b91505092915050565b600080fd5b7f4e487b7100000000000000000000000000000000000000000000000000000000600052604160045260246000fd5b612f8582612c75565b810181811067ffffffffffffffff82111715612fa457612fa3612f4d565b5b80604052505050565b6000612fb7612a35565b9050612fc38282612f7c565b919050565b600067ffffffffffffffff821115612fe357612fe2612f4d565b5b602082029050602081019050919050565b600080fd5b600061300c61300784612fc8565b612fad565b9050808382526020820190506020840283018581111561302f5761302e612ff4565b5b835b8181101561305857806130448882612ac8565b845260208401935050602081019050613031565b5050509392505050565b600082601f83011261307757613076612f48565b5b8135613087848260208601612ff9565b91505092915050565b600080fd5b600067ffffffffffffffff8211156130b0576130af612f4d565b5b6130b982612c75565b9050602081019050919050565b82818337600083830152505050565b60006130e86130e384613095565b612fad565b90508281526020810184848401111561310457613103613090565b5b61310f8482856130c6565b509392505050565b600082601f83011261312c5761312b612f48565b5b813561313c8482602086016130d5565b91505092915050565b600080600080600060a0868803121561316157613160612a3f565b5b600061316f88828901612a92565b955050602061318088828901612a92565b945050604086013567ffffffffffffffff8111156131a1576131a0612a44565b5b6131ad88828901613062565b935050606086013567ffffffffffffffff8111156131ce576131cd612a44565b5b6131da88828901613062565b925050608086013567ffffffffffffffff8111156131fb576131fa612a44565b5b61320788828901613117565b9150509295509295909350565b6000806040838503121561322b5761322a612a3f565b5b600061323985828601612f06565b925050602061324a85828601612a92565b9150509250929050565b60006020820190506132696000830184612e78565b92915050565b60006020820190506132846000830184612e55565b92915050565b600080604083850312156132a1576132a0612a3f565b5b60006132af85828601612ac8565b92505060206132c085828601612ac8565b9150509250929050565b600067ffffffffffffffff8211156132e5576132e4612f4d565b5b602082029050602081019050919050565b6000613309613304846132ca565b612fad565b9050808382526020820190506020840283018581111561332c5761332b612ff4565b5b835b8181101561335557806133418882612a92565b84526020840193505060208101905061332e565b5050509392505050565b600082601f83011261337457613373612f48565b5b81356133848482602086016132f6565b91505092915050565b600080604083850312156133a4576133a3612a3f565b5b600083013567ffffffffffffffff8111156133c2576133c1612a44565b5b6133ce8582860161335f565b925050602083013567ffffffffffffffff8111156133ef576133ee612a44565b5b6133fb85828601613062565b9150509250929050565b600081519050919050565b600082825260208201905092915050565b6000819050602082019050919050565b61343a81612aa7565b82525050565b600061344c8383613431565b60208301905092915050565b6000602082019050919050565b600061347082613405565b61347a8185613410565b935061348583613421565b8060005b838110156134b657815161349d8882613440565b97506134a883613458565b925050600181019050613489565b5085935050505092915050565b600060208201905081810360008301526134dd8184613465565b905092915050565b600080fd5b600060808284031215613500576134ff6134e5565b5b81905092915050565b600080600080600060a0868803121561352557613524612a3f565b5b600061353388828901612ac8565b955050602061354488828901612a92565b945050604061355588828901612ac8565b935050606086013567ffffffffffffffff81111561357657613575612a44565b5b613582888289016134ea565b925050608061359388828901612f06565b9150509295509295909350565b6000602082840312156135b6576135b5612a3f565b5b60006135c484828501612a92565b91505092915050565b6135d681612a69565b82525050565b60006020820190506135f160008301846135cd565b92915050565b6000819050919050565b600061361c61361761361284612a49565b6135f7565b612a49565b9050919050565b600061362e82613601565b9050919050565b600061364082613623565b9050919050565b61365081613635565b82525050565b600060208201905061366b6000830184613647565b92915050565b61367a81612bcc565b811461368557600080fd5b50565b60008135905061369781613671565b92915050565b600080604083850312156136b4576136b3612a3f565b5b60006136c285828601612a92565b92505060206136d385828601613688565b9150509250929050565b600080604083850312156136f4576136f3612a3f565b5b600061370285828601612a92565b925050602061371385828601612a92565b9150509250929050565b61372681612d5f565b82525050565b600060808201905081810360008301526137468187612c86565b9050613755602083018661371d565b81810360408301526137678185612c86565b9050818103606083015261377b8184612c86565b905095945050505050565b600080600080600060a086880312156137a2576137a1612a3f565b5b60006137b088828901612a92565b95505060206137c188828901612a92565b94505060406137d288828901612ac8565b93505060606137e388828901612ac8565b925050608086013567ffffffffffffffff81111561380457613803612a44565b5b61381088828901613117565b9150509295509295909350565b7f4e487b7100000000000000000000000000000000000000000000000000000000600052602260045260246000fd5b6000600282049050600182168061386457607f821691505b6020821081036138775761387661381d565b5b50919050565b600060408201905061389260008301856135cd565b61389f60208301846135cd565b9392505050565b7f616d6f756e743d30000000000000000000000000000000000000000000000000600082015250565b60006138dc600883612c3a565b91506138e7826138a6565b602082019050919050565b6000602082019050818103600083015261390b816138cf565b9050919050565b7f616c726561647920726574697265640000000000000000000000000000000000600082015250565b6000613948600f83612c3a565b915061395382613912565b602082019050919050565b600060208201905081810360008301526139778161393b565b9050919050565b7f696e73756666696369656e740000000000000000000000000000000000000000600082015250565b60006139b4600c83612c3a565b91506139bf8261397e565b602082019050919050565b600060208201905081810360008301526139e3816139a7565b9050919050565b7f4e487b7100000000000000000000000000000000000000000000000000000000600052601160045260246000fd5b6000613a2482612aa7565b9150613a2f83612aa7565b9250828203905081811115613a4757613a466139ea565b5b92915050565b6000604082019050613a626000830185612b1d565b613a6f6020830184612b1d565b9392505050565b7f4e487b7100000000000000000000000000000000000000000000000000000000600052603260045260246000fd5b6000613ab082612aa7565b91507fffffffffffffffffffffffffffffffffffffffffffffffffffffffffffffffff8203613ae257613ae16139ea565b5b600182019050919050565b7f746f3d3000000000000000000000000000000000000000000000000000000000600082015250565b6000613b23600483612c3a565b9150613b2e82613aed565b602082019050919050565b60006020820190508181036000830152613b5281613b16565b9050919050565b7f746f6b656e496420616c72656164792069737375656400000000000000000000600082015250565b6000613b8f601683612c3a565b9150613b9a82613b59565b602082019050919050565b60006020820190508181036000830152613bbe81613b82565b9050919050565b600081519050613bd481612eef565b92915050565b600081519050613be981613671565b92915050565b613bf881612e64565b8114613c0357600080fd5b50565b600081519050613c1581613bef565b92915050565b60008060008060808587031215613c3557613c34612a3f565b5b6000613c4387828801613bc5565b9450506020613c5487828801613bc5565b9350506040613c6587828801613bda565b9250506060613c7687828801613c06565b91505092959194509250565b7f696e76616c6964206174746573746174696f6e00000000000000000000000000600082015250565b6000613cb8601383612c3a565b9150613cc382613c82565b602082019050919050565b60006020820190508181036000830152613ce781613cab565b9050919050565b7f6174746573746174696f6e207573656400000000000000000000000000000000600082015250565b6000613d24601083612c3a565b9150613d2f82613cee565b602082019050919050565b60006020820190508181036000830152613d5381613d17565b9050919050565b600080fd5b600080fd5b600080fd5b60008083356001602003843603038112613d8657613d85613d5a565b5b80840192508235915067ffffffffffffffff821115613da857613da7613d5f565b5b602083019250600182023603831315613dc457613dc3613d64565b5b509250929050565b613dd581612d5f565b8114613de057600080fd5b50565b600081359050613df281613dcc565b92915050565b600060208284031215613e0e57613e0d612a3f565b5b6000613e1c84828501613de3565b91505092915050565b6000613e318385612c3a565b9350613e3e8385846130c6565b613e4783612c75565b840190509392505050565b60006080820190508181036000830152613e6d81898b613e25565b9050613e7c602083018861371d565b8181036040830152613e8f818688613e25565b90508181036060830152613ea4818486613e25565b905098975050505050505050565b7f6d657461206d69736d6174636800000000000000000000000000000000000000600082015250565b6000613ee8600d83612c3a565b9150613ef382613eb2565b602082019050919050565b60006020820190508181036000830152613f1781613edb565b9050919050565b600082905092915050565b60008190508160005260206000209050919050565b60006020601f8301049050919050565b600082821b905092915050565b600060088302613f8b7fffffffffffffffffffffffffffffffffffffffffffffffffffffffffffffffff82613f4e565b613f958683613f4e565b95508019841693508086168417925050509392505050565b6000613fc8613fc3613fbe84612aa7565b6135f7565b612aa7565b9050919050565b6000819050919050565b613fe283613fad565b613ff6613fee82613fcf565b848454613f5b565b825550505050565b600090565b61400b613ffe565b614016818484613fd9565b505050565b5b8181101561403a5761402f600082614003565b60018101905061401c565b5050565b601f82111561407f5761405081613f29565b61405984613f3e565b81016020851015614068578190505b61407c61407485613f3e565b83018261401b565b50505b505050565b600082821c905092915050565b60006140a260001984600802614084565b1980831691505092915050565b60006140bb8383614091565b9150826002028217905092915050565b6140d58383613f1e565b67ffffffffffffffff8111156140ee576140ed612f4d565b5b6140f8825461384c565b61410382828561403e565b6000601f8311600181146141325760008415614120578287013590505b61412a85826140af565b865550614192565b601f19841661414086613f29565b60005b8281101561416857848901358255600182019150602085019450602081019050614143565b868310156141855784890135614181601f891682614091565b8355505b6001600288020188555050505b50505050505050565b6141a68383836140cb565b505050565b600081356141b881613dcc565b80915050919050565b60008160001b9050919050565b600061ffff6141dc846141c1565b9350801983169250808416831791505092915050565b600061420d61420861420384612d5f565b6135f7565b612d5f565b9050919050565b6000819050919050565b614227826141f2565b61423a61423382614214565b83546141ce565b8255505050565b60008101600083016142538185613d69565b61425e81838661419b565b50505050600181016020830180614274816141ab565b9050614280818461421e565b50505060028101604083016142958185613d69565b6142a081838661419b565b5050505060038101606083016142b68185613d69565b6142c181838661419b565b505050505050565b6142d38282614241565b5050565b60006142e282612aa7565b91506142ed83612aa7565b9250828201905080821115614305576143046139ea565b5b92915050565b60006040820190506143206000830185612b1d565b61432d6020830184612ceb565b9392505050565b600080fd5b600080fd5b6000808585111561435257614351614334565b5b8386111561436357614362614339565b5b6001850283019150848603905094509492505050565b600082905092915050565b60007fffffffffffffffffffffffffffffffffffffffff00000000000000000000000082169050919050565b60006143bc8383614379565b826143c78135614384565b92506014821015614407576144027fffffffffffffffffffffffffffffffffffffffff00000000000000000000000083601403600802613f4e565b831692505b505092915050565b600060408201905061442460008301856135cd565b6144316020830184612ceb565b9392505050565b600060808201905061444d60008301876135cd565b61445a6020830186612b1d565b6144676040830185612b1d565b6144746060830184612b1d565b95945050505050565b600060408201905081810360008301526144978185613465565b905081810360208301526144ab8184613465565b90509392505050565b600081519050919050565b600082825260208201905092915050565b60006144db826144b4565b6144e581856144bf565b93506144f5818560208601612c4b565b6144fe81612c75565b840191505092915050565b600060a08201905061451e60008301886135cd565b61452b60208301876135cd565b6145386040830186612b1d565b6145456060830185612b1d565b818103608083015261455781846144d0565b90509695505050505050565b60008151905061457281612b73565b92915050565b60006020828403121561458e5761458d612a3f565b5b600061459c84828501614563565b91505092915050565b600060a0820190506145ba60008301886135cd565b6145c760208301876135cd565b81810360408301526145d98186613465565b905081810360608301526145ed8185613465565b9050818103608083015261460181846144d0565b9050969550505050505056fea264697066735822122046e5b436329b57ef0bd00301e307f1f3bef2d300538e5c9b82d28fa4ffd7738c64736f6c63430008140033",
  "linkReferences": {},
  "deployedLinkReferences": {}
}