{
  "_format": "hh-sol-artifact-1",
  "contractName": "SPEGRKToken",
  "sourceName": "contracts/SPEGRKToken.sol",
  "abi": [
    {
      "inputs": [
        {
          "internalType": "string",
          "name": "uri_",
          "type": "string"
        },
        {
          "internalType": "address",
          "name": "admin",
          "type": "address"
        },
        {
          "internalType": "address",
          "name": "regulator",
          "type": "address"
        },
        {
          "internalType": "address",
          "name": "oracleAddress",
          "type": "address"
        }
      ],
      "stateMutability": "nonpayable",
      "type": "constructor"
    },
    {
      "inputs": [],
      "name": "AccessControlBadConfirmation",
      "type": "error"
    },
    {
      "inputs": [
        {
          "internalType": "address",
          "name": "account",
          "type": "address"
        },
        {
          "internalType": "bytes32",
          "name": "neededRole",
          "type": "bytes32"
        }
      ],
      "name": "AccessControlUnauthorizedAccount",
      "type": "error"
    },
    {
      "inputs": [
        {
          "internalType": "address",
          "name": "sender",
          "type": "address"
        },
        {
          "internalType": "uint256",
          "name": "balance",
          "type": "uint256"
        },
        {
          "internalType": "uint256",
          "name": "needed",
          "type": "uint256"
        },
        {
          "internalType": "uint256",
          "name": "tokenId",
          "type": "uint256"
        }
      ],
      "name": "ERC1155InsufficientBalance",
      "type": "error"
    },
    {
      "inputs": [
        {
          "internalType": "address",
          "name": "approver",
          "type": "address"
        }
      ],
      "name": "ERC1155InvalidApprover",
      "type": "error"
    },
    {
      "inputs": [
        {
          "internalType": "uint256",
          "name": "idsLength",
          "type": "uint256"
        },
        {
          "internalType": "uint256",
          "name": "valuesLength",
          "type": "uint256"
        }
      ],
      "name": "ERC1155InvalidArrayLength",
      "type": "error"
    },
    {
      "inputs": [
        {
          "internalType": "address",
          "name": "operator",
          "type": "address"
        }
      ],
      "name": "ERC1155InvalidOperator",
      "type": "error"
    },
    {
      "inputs": [
        {
          "internalType": "address",
          "name": "receiver",
          "type": "address"
        }
      ],
      "name": "ERC1155InvalidReceiver",
      "type": "error"
    },
    {
      "inputs": [
        {
          "internalType": "address",
          "name": "sender",
          "type": "address"
        }
      ],
      "name": "ERC1155InvalidSender",
      "type": "error"
    },
    {
      "inputs": [
        {
          "internalType": "address",
          "name": "operator",
          "type": "address"
        },
        {
          "internalType": "address",
          "name": "owner",
          "type": "address"
        }
      ],
      "name": "ERC1155MissingApprovalForAll",
      "type": "error"
    },
    {
      "anonymous": false,
      "inputs": [
        {
          "indexed": true,
          "internalType": "address",
          "name": "account",
          "type": "address"
        },
        {
          "indexed": true,
          "internalType": "address",
          "name": "operator",
          "type": "address"
        },
        {
          "indexed": false,
          "internalType": "bool",
          "name": "approved",
          "type": "bool"
        }
      ],
      "name": "ApprovalForAll",
      "type": "event"
    },
    {
      "anonymous": false,
      "inputs": [
        {
          "indexed": true,
          "internalType": "bytes32",
          "name": "role",
          "type": "bytes32"
        },
        {
          "indexed": true,
          "internalType": "bytes32",
          "name": "previousAdminRole",
          "type": "bytes32"
        },
        {
          "indexed": true,
          "internalType": "bytes32",
          "name": "newAdminRole",
          "type": "bytes32"
        }
      ],
      "name": "RoleAdminChanged",
      "type": "event"
    },
    {
      "anonymous": false,
      "inputs": [
        {
          "indexed": true,
          "internalType": "bytes32",
          "name": "role",
          "type": "bytes32"
        },
        {
          "indexed": true,
          "internalType": "address",
          "name": "account",
          "type": "address"
        },
        {
          "indexed": true,
          "internalType": "address",
          "name": "sender",
          "type": "address"
        }
      ],
      "name": "RoleGranted",
      "type": "event"
    },
    {
      "anonymous": false,
      "inputs": [
        {
          "indexed": true,
          "internalType": "bytes32",
          "name": "role",
          "type": "bytes32"
        },
        {
          "indexed": true,
          "internalType": "address",
          "name": "account",
          "type": "address"
        },
        {
          "indexed": true,
          "internalType": "address",
          "name": "sender",
          "type": "address"
        }
      ],
      "name": "RoleRevoked",
      "type": "event"
    },
    {
      "anonymous": false,
      "inputs": [
        {
          "indexed": true,
          "internalType": "uint256",
          "name": "tokenId",
          "type": "uint256"
        },
        {
          "indexed": true,
          "internalType": "address",
          "name": "to",
          "type": "address"
        },
        {
          "indexed": false,
          "internalType": "uint256",
          "name": "amount",
          "type": "uint256"
        },
        {
          "indexed": false,
          "internalType": "bytes32",
          "name": "attestationId",
          "type": "bytes32"
        }
      ],
      "name": "SPEIssued",
      "type": "event"
    },
    {
      "anonymous": false,
      "inputs": [
        {
          "indexed": true,
          "internalType": "uint256",
          "name": "tokenId",
          "type": "uint256"
        },
        {
          "indexed": true,
          "internalType": "address",
          "name": "holder",
          "type": "address"
        },
        {
          "indexed": false,
          "internalType": "uint256",
          "name": "amount",
          "type": "uint256"
        }
      ],
      "name": "SPERetired",
      "type": "event"
    },
    {
      "anonymous": false,
      "inputs": [
        {
          "indexed": true,
          "internalType": "address",
          "name": "operator",
          "type": "address"
        },
        {
          "indexed": true,
          "internalType": "address",
          "name": "from",
          "type": "address"
        },
        {
          "indexed": true,
          "internalType": "address",
          "name": "to",
          "type": "address"
        },
        {
          "indexed": false,
          "internalType": "uint256[]",
          "name": "ids",
          "type": "uint256[]"
        },
        {
          "indexed": false,
          "internalType": "uint256[]",
          "name": "values",
          "type": "uint256[]"
        }
      ],
      "name": "TransferBatch",
      "type": "event"
    },
    {
      "anonymous": false,
      "inputs": [
        {
          "indexed": true,
          "internalType": "address",
          "name": "operator",
          "type": "address"
        },
        {
          "indexed": true,
          "internalType": "address",
          "name": "from",
          "type": "address"
        },
        {
          "indexed": true,
          "internalType": "address",
          "name": "to",
          "type": "address"
        },
        {
          "indexed": false,
          "internalType": "uint256",
          "name": "id",
          "type": "uint256"
        },
        {
          "indexed": false,
          "internalType": "uint256",
          "name": "value",
          "type": "uint256"
        }
      ],
      "name": "TransferSingle",
      "type": "event"
    },
    {
      "anonymous": false,
      "inputs": [
        {
          "indexed": false,
          "internalType": "string",
          "name": "value",
          "type": "string"
        },
        {
          "indexed": true,
          "internalType": "uint256",
          "name": "id",
          "type": "uint256"
        }
      ],
      "name": "URI",
      "type": "event"
    },
    {
      "inputs": [],
      "name": "DEFAULT_ADMIN_ROLE",
      "outputs": [
        {
          "internalType": "bytes32",
          "name": "",
          "type": "bytes32"
        }
      ],
      "stateMutability": "view",
      "type": "function"
    },
    {
      "inputs": [],
      "name": "REGULATOR_ROLE",
      "outputs": [
        {
          "internalType": "bytes32",
          "name": "",
          "type": "bytes32"
        }
      ],
      "stateMutability": "view",
      "type": "function"
    },
    {
      "inputs": [
        {
          "internalType": "address",
          "name": "account",
          "type": "address"
        },
        {
          "internalType": "uint256",
          "name": "id",
          "type": "uint256"
        }
      ],
      "name": "balanceOf",
      "outputs": [
        {
          "internalType": "uint256",
          "name": "",
          "type": "uint256"
        }
      ],
      "stateMutability": "view",
      "type": "function"
    },
    {
      "inputs": [
        {
          "internalType": "address[]",
          "name": "accounts",
          "type": "address[]"
        },
        {
          "internalType": "uint256[]",
          "name": "ids",
          "type": "uint256[]"
        }
      ],
      "name": "balanceOfBatch",
      "outputs": [
        {
          "internalType": "uint256[]",
          "name": "",
          "type": "uint256[]"
        }
      ],
      "stateMutability": "view",
      "type": "function"
    },
    {
      "inputs": [
        {
          "internalType": "uint256",
          "name": "",
          "type": "uint256"
        }
      ],
      "name": "docHash",
      "outputs": [
        {
          "internalType": "bytes32",
          "name": "",
          "type": "bytes32"
        }
      ],
      "stateMutability": "view",
      "type": "function"
    },
    {
      "inputs": [
        {
          "internalType": "bytes32",
          "name": "role",
          "type": "bytes32"
        }
      ],
      "name": "getRoleAdmin",
      "outputs": [
        {
          "internalType": "bytes32",
          "name": "",
          "type": "bytes32"
        }
      ],
      "stateMutability": "view",
      "type": "function"
    },
    {
      "inputs": [
        {
          "internalType": "uint256",
          "name": "tokenId",
          "type": "uint256"
        }
      ],
      "name": "getUnit",
      "outputs": [
        {
          "components": [
            {
              "internalType": "string",
              "name": "projectId",
              "type": "string"
            },
            {
              "internalType": "uint16",
              "name": "vintageYear",
              "type": "uint16"
            },
            {
              "internalType": "string",
              "name": "methodology",
              "type": "string"
            },
            {
              "internalType": "string",
              "name": "registryRef",
              "type": "string"
            }
          ],
          "internalType": "struct SPEGRKToken.UnitMeta",
          "name": "meta",
          "type": "tuple"
        },
        {
          "internalType": "enum SPEGRKToken.Status",
          "name": "st",
          "type": "uint8"
        },
        {
          "internalType": "bytes32",
          "name": "mrvDocHash",
          "type": "bytes32"
        },
        {
          "internalType": "uint64",
          "name": "issued",
          "type": "uint64"
        },
        {
          "internalType": "uint64",
          "name": "retired",
          "type": "uint64"
        },
        {
          "internalType": "uint256",
          "name": "supply",
          "type": "uint256"
        }
      ],
      "stateMutability": "view",
      "type": "function"
    },
    {
      "inputs": [
        {
          "internalType": "bytes32",
          "name": "role",
          "type": "bytes32"
        },
        {
          "internalType": "address",
          "name": "account",
          "type": "address"
        }
      ],
      "name": "grantRole",
      "outputs": [],
      "stateMutability": "nonpayable",
      "type": "function"
    },
    {
      "inputs": [
        {
          "internalType": "bytes32",
          "name": "role",
          "type": "bytes32"
        },
        {
          "internalType": "address",
          "name": "account",
          "type": "address"
        }
      ],
      "name": "hasRole",
      "outputs": [
        {
          "internalType": "bool",
          "name": "",
          "type": "bool"
        }
      ],
      "stateMutability": "view",
      "type": "function"
    },
    {
      "inputs": [
        {
          "internalType": "address",
          "name": "account",
          "type": "address"
        },
        {
          "internalType": "address",
          "name": "operator",
          "type": "address"
        }
      ],
      "name": "isApprovedForAll",
      "outputs": [
        {
          "internalType": "bool",
          "name": "",
          "type": "bool"
        }
      ],
      "stateMutability": "view",
      "type": "function"
    },
    {
      "inputs": [
        {
          "internalType": "uint256",
          "name": "tokenId",
          "type": "uint256"
        },
        {
          "internalType": "address",
          "name": "to",
          "type": "address"
        },
        {
          "internalType": "uint256",
          "name": "amount",
          "type": "uint256"
        },
        {
          "components": [
            {
              "internalType": "string",
              "name": "projectId",
              "type": "string"
            },
            {
              "internalType": "uint16",
              "name": "vintageYear",
              "type": "uint16"
            },
            {
              "internalType": "string",
              "name": "methodology",
              "type": "string"
            },
            {
              "internalType": "string",
              "name": "registryRef",
              "type": "string"
            }
          ],
          "internalType": "struct SPEGRKToken.UnitMeta",
          "name": "meta",
          "type": "tuple"
        },
        {
          "internalType": "bytes32",
          "name": "attestationId",
          "type": "bytes32"
        }
      ],
      "name": "issueSPE",
      "outputs": [],
      "stateMutability": "nonpayable",
      "type": "function"
    },
    {
      "inputs": [
        {
          "internalType": "uint256",
          "name": "",
          "type": "uint256"
        }
      ],
      "name": "issuedAt",
      "outputs": [
        {
          "internalType": "uint64",
          "name": "",
          "type": "uint64"
        }
      ],
      "stateMutability": "view",
      "type": "function"
    },
    {
      "inputs": [],
      "name": "oracle",
      "outputs": [
        {
          "internalType": "contract MRVOracle",
          "name": "",
          "type": "address"
        }
      ],
      "stateMutability": "view",
      "type": "function"
    },
    {
      "inputs": [
        {
          "internalType": "bytes32",
          "name": "role",
          "type": "bytes32"
        },
        {
          "internalType": "address",
          "name": "callerConfirmation",
          "type": "address"
        }
      ],
      "name": "renounceRole",
      "outputs": [],
      "stateMutability": "nonpayable",
      "type": "function"
    },
    {
      "inputs": [
        {
          "internalType": "uint256",
          "name": "tokenId",
          "type": "uint256"
        },
        {
          "internalType": "uint256",
          "name": "amount",
          "type": "uint256"
        }
      ],
      "name": "retireSPE",
      "outputs": [],
      "stateMutability": "nonpayable",
      "type": "function"
    },
    {
      "inputs": [
        {
          "internalType": "uint256",
          "name": "",
          "type": "uint256"
        }
      ],
      "name": "retiredAt",
      "outputs": [
        {
          "internalType": "uint64",
          "name": "",
          "type": "uint64"
        }
      ],
      "stateMutability": "view",
      "type": "function"
    },
    {
      "inputs": [
        {
          "internalType": "bytes32",
          "name": "role",
          "type": "bytes32"
        },
        {
          "internalType": "address",
          "name": "account",
          "type": "address"
        }
      ],
      "name": "revokeRole",
      "outputs": [],
      "stateMutability": "nonpayable",
      "type": "function"
    },
    {
      "inputs": [
        {
          "internalType": "address",
          "name": "from",
          "type": "address"
        },
        {
          "internalType": "address",
          "name": "to",
          "type": "address"
        },
        {
          "internalType": "uint256[]",
          "name": "ids",
          "type": "uint256[]"
        },
        {
          "internalType": "uint256[]",
          "name": "values",
          "type": "uint256[]"
        },
        {
          "internalType": "bytes",
          "name": "data",
          "type": "bytes"
        }
      ],
      "name": "safeBatchTransferFrom",
      "outputs": [],
      "stateMutability": "nonpayable",
      "type": "function"
    },
    {
      "inputs": [
        {
          "internalType": "address",
          "name": "from",
          "type": "address"
        },
        {
          "internalType": "address",
          "name": "to",
          "type": "address"
        },
        {
          "internalType": "uint256",
          "name": "id",
          "type": "uint256"
        },
        {
          "internalType": "uint256",
          "name": "value",
          "type": "uint256"
        },
        {
          "internalType": "bytes",
          "name": "data",
          "type": "bytes"
        }
      ],
      "name": "safeTransferFrom",
      "outputs": [],
      "stateMutability": "nonpayable",
      "type": "function"
    },
    {
      "inputs": [
        {
          "internalType": "address",
          "name": "operator",
          "type": "address"
        },
        {
          "internalType": "bool",
          "name": "approved",
          "type": "bool"
        }
      ],
      "name": "setApprovalForAll",
      "outputs": [],
      "stateMutability": "nonpayable",
      "type": "function"
    },
    {
      "inputs": [
        {
          "internalType": "uint256",
          "name": "",
          "type": "uint256"
        }
      ],
      "name": "status",
      "outputs": [
        {
          "internalType": "enum SPEGRKToken.Status",
          "name": "",
          "type": "uint8"
        }
      ],
      "stateMutability": "view",
      "type": "function"
    },
    {
      "inputs": [
        {
          "internalType": "bytes4",
          "name": "interfaceId",
          "type": "bytes4"
        }
      ],
      "name": "supportsInterface",
      "outputs": [
        {
          "internalType": "bool",
          "name": "",
          "type": "bool"
        }
      ],
      "stateMutability": "view",
      "type": "function"
    },
    {
      "inputs": [
        {
          "internalType": "uint256",
          "name": "",
          "type": "uint256"
        }
      ],
      "name": "totalSupply",
      "outputs": [
        {
          "internalType": "uint256",
          "name": "",
          "type": "uint256"
        }
      ],
      "stateMutability": "view",
      "type": "function"
    },
    {
      "inputs": [
        {
          "internalType": "uint256",
          "name": "",
          "type": "uint256"
        }
      ],
      "name": "unitMeta",
      "outputs": [
        {
          "internalType": "string",
          "name": "projectId",
          "type": "string"
        },
        {
          "internalType": "uint16",
          "name": "vintageYear",
          "type": "uint16"
        },
        {
          "internalType": "string",
          "name": "methodology",
          "type": "string"
        },
        {
          "internalType": "string",
          "name": "registryRef",
          "type": "string"
        }
      ],
      "stateMutability": "view",
      "type": "function"
    },
    {
      "inputs": [
        {
          "internalType": "uint256",
          "name": "",
          "type": "uint256"
        }
      ],
      "name": "uri",
      "outputs": [
        {
          "internalType": "string",
          "name": "",
          "type": "string"
        }
      ],
      "stateMutability": "view",
      "type": "function"
    },
    {
      "inputs": [
        {
          "internalType": "bytes32",
          "name": "",
          "type": "bytes32"
        }
      ],
      "name": "usedAttestations",
      "outputs": [
        {
          "internalType": "bool",
          "name": "",
          "type": "bool"
        }
      ],
      "stateMutability": "view",
      "type": "function"
    }
  ],
  "bytecode": "0x60806040523480156200001157600080fd5b5060405162004bdd38038062004bdd833981810160405281019062000037919062000462565b836200004981620000de60201b60201c565b506200005f6000801b84620000f360201b60201c565b50620000927f20b5f7ac978e5d6199de06401411960dfa81d2f762655f6206bdc61d46fc19e683620000f360201b60201c565b5080600a60006101000a81548173ffffffffffffffffffffffffffffffffffffffff021916908373ffffffffffffffffffffffffffffffffffffffff1602179055505050505062000825565b8060029081620000ef91906200073e565b5050565b6000620001078383620001f760201b60201c565b620001ec5760016003600085815260200190815260200160002060000160008473ffffffffffffffffffffffffffffffffffffffff1673ffffffffffffffffffffffffffffffffffffffff16815260200190815260200160002060006101000a81548160ff021916908315150217905550620001886200026260201b60201c565b73ffffffffffffffffffffffffffffffffffffffff168273ffffffffffffffffffffffffffffffffffffffff16847f2f8788117e7eff1d82e926ec794901d17c78024a50270940304540a733656f0d60405160405180910390a460019050620001f1565b600090505b92915050565b60006003600084815260200190815260200160002060000160008373ffffffffffffffffffffffffffffffffffffffff1673ffffffffffffffffffffffffffffffffffffffff16815260200190815260200160002060009054906101000a900460ff16905092915050565b600033905090565b6000604051905090565b600080fd5b600080fd5b600080fd5b600080fd5b6000601f19601f8301169050919050565b7f4e487b7100000000000000000000000000000000000000000000000000000000600052604160045260246000fd5b620002d38262000288565b810181811067ffffffffffffffff82111715620002f557620002f462000299565b5b80604052505050565b60006200030a6200026a565b9050620003188282620002c8565b919050565b600067ffffffffffffffff8211156200033b576200033a62000299565b5b620003468262000288565b9050602081019050919050565b60005b838110156200037357808201518184015260208101905062000356565b60008484015250505050565b60006200039662000390846200031d565b620002fe565b905082815260208101848484011115620003b557620003b462000283565b5b620003c284828562000353565b509392505050565b600082601f830112620003e257620003e16200027e565b5b8151620003f48482602086016200037f565b91505092915050565b600073ffffffffffffffffffffffffffffffffffffffff82169050919050565b60006200042a82620003fd565b9050919050565b6200043c816200041d565b81146200044857600080fd5b50565b6000815190506200045c8162000431565b92915050565b600080600080608085870312156200047f576200047e62000274565b5b600085015167ffffffffffffffff811115620004a0576200049f62000279565b5b620004ae87828801620003ca565b9450506020620004c1878288016200044b565b9350506040620004d4878288016200044b565b9250506060620004e7878288016200044b565b91505092959194509250565b600081519050919050565b7f4e487b7100000000000000000000000000000000000000000000000000000000600052602260045260246000fd5b600060028204905060018216806200054657607f821691505b6020821081036200055c576200055b620004fe565b5b50919050565b60008190508160005260206000209050919050565b60006020601f8301049050919050565b600082821b905092915050565b600060088302620005c67fffffffffffffffffffffffffffffffffffffffffffffffffffffffffffffffff8262000587565b620005d2868362000587565b95508019841693508086168417925050509392505050565b6000819050919050565b6000819050919050565b60006200061f620006196200061384620005ea565b620005f4565b620005ea565b9050919050565b6000819050919050565b6200063b83620005fe565b620006536200064a8262000626565b84845462000594565b825550505050565b600090565b6200066a6200065b565b6200067781848462000630565b505050565b5b818110156200069f576200069360008262000660565b6001810190506200067d565b5050565b601f821115620006ee57620006b88162000562565b620006c38462000577565b81016020851015620006d3578190505b620006eb620006e28562000577565b8301826200067c565b50505b505050565b600082821c905092915050565b60006200071360001984600802620006f3565b1980831691505092915050565b60006200072e838362000700565b9150826002028217905092915050565b6200074982620004f3565b67ffffffffffffffff81111562000765576200076462000299565b5b6200077182546200052d565b6200077e828285620006a3565b600060209050601f831160018114620007b65760008415620007a1578287015190505b620007ad858262000720565b8655506200081d565b601f198416620007c68662000562565b60005b82811015620007f057848901518255600182019150602085019450602081019050620007c9565b868310156200081057848901516200080c601f89168262000700565b8355505b6001600288020188555050505b505050505050565b6143a880620008356000396000f3fe608060405234801561001057600080fd5b506004361061018d5760003560e01c8063517c3603116100de578063a217fddf11610097578063d547741f11610071578063d547741f14610509578063e985e9c514610525578063eaf724d814610555578063f242432a146105885761018d565b8063a217fddf1461049f578063a22cb465146104bd578063bd85b039146104d95761018d565b8063517c3603146103a55780635a553572146103c15780636fb1bf0d146103f15780637dc0d1d01461042157806391d148541461043f5780639f37e2fd1461046f5761018d565b80632eb2c2d61161014b57806341562f1e1161012557806341562f1e146102f957806342d21ef714610329578063437d4862146103595780634e1273f4146103755761018d565b80632eb2c2d6146102a55780632f2ff15d146102c157806336568abe146102dd5761018d565b8062fdd58e1461019257806301ffc9a7146101c25780630e89341c146101f2578063144bf589146102225780631655bfbe14610240578063248a9ca314610275575b600080fd5b6101ac60048036038101906101a7919061294a565b6105a4565b6040516101b99190612999565b60405180910390f35b6101dc60048036038101906101d79190612a0c565b6105fe565b6040516101e99190612a54565b60405180910390f35b61020c60048036038101906102079190612a6f565b610610565b6040516102199190612b2c565b60405180910390f35b61022a6106a4565b6040516102379190612b67565b60405180910390f35b61025a60048036038101906102559190612a6f565b6106c8565b60405161026c96959493929190612cf4565b60405180910390f35b61028f600480360381019061028a9190612d88565b61097a565b60405161029c9190612b67565b60405180910390f35b6102bf60048036038101906102ba9190612fb2565b61099a565b005b6102db60048036038101906102d69190613081565b610a42565b005b6102f760048036038101906102f29190613081565b610a64565b005b610313600480360381019061030e9190612a6f565b610adf565b60405161032091906130c1565b60405180910390f35b610343600480360381019061033e9190612a6f565b610b06565b60405161035091906130dc565b60405180910390f35b610373600480360381019061036e91906130f7565b610b26565b005b61038f600480360381019061038a91906131fa565b610d56565b60405161039c9190613330565b60405180910390f35b6103bf60048036038101906103ba9190613376565b610e65565b005b6103db60048036038101906103d69190612d88565b611332565b6040516103e89190612a54565b60405180910390f35b61040b60048036038101906104069190612a6f565b611352565b6040516104189190612b67565b60405180910390f35b61042961136a565b604051610436919061346c565b60405180910390f35b61045960048036038101906104549190613081565b611390565b6040516104669190612a54565b60405180910390f35b61048960048036038101906104849190612a6f565b6113fb565b60405161049691906130c1565b60405180910390f35b6104a7611422565b6040516104b49190612b67565b60405180910390f35b6104d760048036038101906104d291906134b3565b611429565b005b6104f360048036038101906104ee9190612a6f565b61143f565b6040516105009190612999565b60405180910390f35b610523600480360381019061051e9190613081565b611457565b005b61053f600480360381019061053a91906134f3565b611479565b60405161054c9190612a54565b60405180910390f35b61056f600480360381019061056a9190612a6f565b61150d565b60405161057f9493929190613542565b60405180910390f35b6105a2600480360381019061059d919061359c565b6116e3565b005b600080600083815260200190815260200160002060008473ffffffffffffffffffffffffffffffffffffffff1673ffffffffffffffffffffffffffffffffffffffff16815260200190815260200160002054905092915050565b60006106098261178b565b9050919050565b60606002805461061f90613662565b80601f016020809104026020016040519081016040528092919081815260200182805461064b90613662565b80156106985780601f1061066d57610100808354040283529160200191610698565b820191906000526020600020905b81548152906001019060200180831161067b57829003601f168201915b50505050509050919050565b7f20b5f7ac978e5d6199de06401411960dfa81d2f762655f6206bdc61d46fc19e681565b6106d0612876565b60008060008060006004600088815260200190815260200160002060405180608001604052908160008201805461070690613662565b80601f016020809104026020016040519081016040528092919081815260200182805461073290613662565b801561077f5780601f106107545761010080835404028352916020019161077f565b820191906000526020600020905b81548152906001019060200180831161076257829003601f168201915b505050505081526020016001820160009054906101000a900461ffff1661ffff1661ffff1681526020016002820180546107b890613662565b80601f01602080910402602001604051908101604052809291908181526020018280546107e490613662565b80156108315780601f1061080657610100808354040283529160200191610831565b820191906000526020600020905b81548152906001019060200180831161081457829003601f168201915b5050505050815260200160038201805461084a90613662565b80601f016020809104026020016040519081016040528092919081815260200182805461087690613662565b80156108c35780601f10610898576101008083540402835291602001916108c3565b820191906000526020600020905b8154815290600101906020018083116108a657829003601f168201915b50505050508152505095506005600088815260200190815260200160002060009054906101000a900460ff169450600660008881526020019081526020016000205493506007600088815260200190815260200160002060009054906101000a900467ffffffffffffffff1692506008600088815260200190815260200160002060009054906101000a900467ffffffffffffffff1691506009600088815260200190815260200160002054905091939550919395565b600060036000838152602001908152602001600020600101549050919050565b60006109a4611805565b90508073ffffffffffffffffffffffffffffffffffffffff168673ffffffffffffffffffffffffffffffffffffffff16141580156109e957506109e78682611479565b155b15610a2d5780866040517fe237d922000000000000000000000000000000000000000000000000000000008152600401610a249291906136a2565b60405180910390fd5b610a3a868686868661180d565b505050505050565b610a4b8261097a565b610a5481611905565b610a5e8383611919565b50505050565b610a6c611805565b73ffffffffffffffffffffffffffffffffffffffff168173ffffffffffffffffffffffffffffffffffffffff1614610ad0576040517f6697b23200000000000000000000000000000000000000000000000000000000815260040160405180910390fd5b610ada8282611a0b565b505050565b60086020528060005260406000206000915054906101000a900467ffffffffffffffff1681565b60056020528060005260406000206000915054906101000a900460ff1681565b60008111610b69576040517f08c379a0000000000000000000000000000000000000000000000000000000008152600401610b6090613717565b60405180910390fd5b60006001811115610b7d57610b7c612c5a565b5b6005600084815260200190815260200160002060009054906101000a900460ff166001811115610bb057610baf612c5a565b5b14610bf0576040517f08c379a0000000000000000000000000000000000000000000000000000000008152600401610be790613783565b60405180910390fd5b80610bfb33846105a4565b1015610c3c576040517f08c379a0000000000000000000000000000000000000000000000000000000008152600401610c33906137ef565b60405180910390fd5b610c47338383611afe565b80600960008481526020019081526020016000206000828254610c6a919061383e565b925050819055503373ffffffffffffffffffffffffffffffffffffffff16827f879d3119c4b795ef52faad4d0f5bccc9da39e3dd23f5c04dff39d2cd7902e04e83604051610cb89190612999565b60405180910390a36000600960008481526020019081526020016000205403610d525760016005600084815260200190815260200160002060006101000a81548160ff02191690836001811115610d1257610d11612c5a565b5b0217905550426008600084815260200190815260200160002060006101000a81548167ffffffffffffffff021916908367ffffffffffffffff1602179055505b5050565b60608151835114610da257815183516040517f5b059991000000000000000000000000000000000000000000000000000000008152600401610d99929190613872565b60405180910390fd5b6000835167ffffffffffffffff811115610dbf57610dbe612dba565b5b604051908082528060200260200182016040528015610ded5781602001602082028036833780820191505090505b50905060005b8451811015610e5a57610e2a610e128287611ba590919063ffffffff16565b610e258387611bb990919063ffffffff16565b6105a4565b828281518110610e3d57610e3c61389b565b5b60200260200101818152505080610e53906138ca565b9050610df3565b508091505092915050565b7f20b5f7ac978e5d6199de06401411960dfa81d2f762655f6206bdc61d46fc19e6610e8f81611905565b600073ffffffffffffffffffffffffffffffffffffffff168573ffffffffffffffffffffffffffffffffffffffff1603610efe576040517f08c379a0000000000000000000000000000000000000000000000000000000008152600401610ef59061395e565b60405180910390fd5b60008411610f41576040517f08c379a0000000000000000000000000000000000000000000000000000000008152600401610f3890613717565b60405180910390fd5b60006007600088815260200190815260200160002060009054906101000a900467ffffffffffffffff1667ffffffffffffffff1614610fb5576040517f08c379a0000000000000000000000000000000000000000000000000000000008152600401610fac906139ca565b60405180910390fd5b6000806000600a60009054906101000a900473ffffffffffffffffffffffffffffffffffffffff1673ffffffffffffffffffffffffffffffffffffffff1663a3112a64866040518263ffffffff1660e01b81526004016110159190612b67565b608060405180830381865afa158015611032573d6000803e3d6000fd5b505050506040513d601f19601f820116820180604052508101906110569190613a40565b509250925092508061109d576040517f08c379a000000000000000000000000000000000000000000000000000000000815260040161109490613af3565b60405180910390fd5b600b600086815260200190815260200160002060009054906101000a900460ff16156110fe576040517f08c379a00000000000000000000000000000000000000000000000000000000081526004016110f590613b5f565b60405180910390fd5b60008680600001906111109190613b8e565b8860200160208101906111239190613c1d565b8980604001906111339190613b8e565b8b80606001906111439190613b8e565b6040516020016111599796959493929190613c77565b6040516020818303038152906040528051906020012090508281146111b3576040517f08c379a00000000000000000000000000000000000000000000000000000000081526004016111aa90613d23565b60405180910390fd5b86600460008c815260200190815260200160002081816111d391906140ee565b90505083600660008c8152602001908152602001600020819055506000600560008c815260200190815260200160002060006101000a81548160ff0219169083600181111561122557611224612c5a565b5b021790555042600760008c815260200190815260200160002060006101000a81548167ffffffffffffffff021916908367ffffffffffffffff1602179055506001600b600088815260200190815260200160002060006101000a81548160ff0219169083151502179055506112ab898b8a60405180602001604052806000815250611bcd565b87600960008c815260200190815260200160002060008282546112ce91906140fc565b925050819055508873ffffffffffffffffffffffffffffffffffffffff168a7f3c97ec92fc87a519e7bb3db22d1c35276500b8736eddafb68b4596ff3c2971d88a8960405161131e929190614130565b60405180910390a350505050505050505050565b600b6020528060005260406000206000915054906101000a900460ff1681565b60066020528060005260406000206000915090505481565b600a60009054906101000a900473ffffffffffffffffffffffffffffffffffffffff1681565b60006003600084815260200190815260200160002060000160008373ffffffffffffffffffffffffffffffffffffffff1673ffffffffffffffffffffffffffffffffffffffff16815260200190815260200160002060009054906101000a900460ff16905092915050565b60076020528060005260406000206000915054906101000a900467ffffffffffffffff1681565b6000801b81565b61143b611434611805565b8383611c66565b5050565b60096020528060005260406000206000915090505481565b6114608261097a565b61146981611905565b6114738383611a0b565b50505050565b6000600160008473ffffffffffffffffffffffffffffffffffffffff1673ffffffffffffffffffffffffffffffffffffffff16815260200190815260200160002060008373ffffffffffffffffffffffffffffffffffffffff1673ffffffffffffffffffffffffffffffffffffffff16815260200190815260200160002060009054906101000a900460ff16905092915050565b600460205280600052604060002060009150905080600001805461153090613662565b80601f016020809104026020016040519081016040528092919081815260200182805461155c90613662565b80156115a95780601f1061157e576101008083540402835291602001916115a9565b820191906000526020600020905b81548152906001019060200180831161158c57829003601f168201915b5050505050908060010160009054906101000a900461ffff16908060020180546115d290613662565b80601f01602080910402602001604051908101604052809291908181526020018280546115fe90613662565b801561164b5780601f106116205761010080835404028352916020019161164b565b820191906000526020600020905b81548152906001019060200180831161162e57829003601f168201915b50505050509080600301805461166090613662565b80601f016020809104026020016040519081016040528092919081815260200182805461168c90613662565b80156116d95780601f106116ae576101008083540402835291602001916116d9565b820191906000526020600020905b8154815290600101906020018083116116bc57829003601f168201915b5050505050905084565b60006116ed611805565b90508073ffffffffffffffffffffffffffffffffffffffff168673ffffffffffffffffffffffffffffffffffffffff161415801561173257506117308682611479565b155b156117765780866040517fe237d92200000000000000000000000000000000000000000000000000000000815260040161176d9291906136a2565b60405180910390fd5b6117838686868686611dd6565b505050505050565b60007f7965db0b000000000000000000000000000000000000000000000000000000007bffffffffffffffffffffffffffffffffffffffffffffffffffffffff1916827bffffffffffffffffffffffffffffffffffffffffffffffffffffffff191614806117fe57506117fd82611ee1565b5b9050919050565b600033905090565b600073ffffffffffffffffffffffffffffffffffffffff168473ffffffffffffffffffffffffffffffffffffffff160361187f5760006040517f57f447ce0000000000000000000000000000000000000000000000000000000081526004016118769190614159565b60405180910390fd5b600073ffffffffffffffffffffffffffffffffffffffff168573ffffffffffffffffffffffffffffffffffffffff16036118f15760006040517f01a835140000000000000000000000000000000000000000000000000000000081526004016118e89190614159565b60405180910390fd5b6118fe8585858585611fc3565b5050505050565b61191681611911611805565b612075565b50565b60006119258383611390565b611a005760016003600085815260200190815260200160002060000160008473ffffffffffffffffffffffffffffffffffffffff1673ffffffffffffffffffffffffffffffffffffffff16815260200190815260200160002060006101000a81548160ff02191690831515021790555061199d611805565b73ffffffffffffffffffffffffffffffffffffffff168273ffffffffffffffffffffffffffffffffffffffff16847f2f8788117e7eff1d82e926ec794901d17c78024a50270940304540a733656f0d60405160405180910390a460019050611a05565b600090505b92915050565b6000611a178383611390565b15611af35760006003600085815260200190815260200160002060000160008473ffffffffffffffffffffffffffffffffffffffff1673ffffffffffffffffffffffffffffffffffffffff16815260200190815260200160002060006101000a81548160ff021916908315150217905550611a90611805565b73ffffffffffffffffffffffffffffffffffffffff168273ffffffffffffffffffffffffffffffffffffffff16847ff6391f5c32d9c69d2a47ea670b442974b53935d1edc7fd64eb21e047a839171b60405160405180910390a460019050611af8565b600090505b92915050565b600073ffffffffffffffffffffffffffffffffffffffff168373ffffffffffffffffffffffffffffffffffffffff1603611b705760006040517f01a83514000000000000000000000000000000000000000000000000000000008152600401611b679190614159565b60405180910390fd5b600080611b7d84846120c6565b91509150611b9e856000848460405180602001604052806000815250611fc3565b5050505050565b600060208202602084010151905092915050565b600060208202602084010151905092915050565b600073ffffffffffffffffffffffffffffffffffffffff168473ffffffffffffffffffffffffffffffffffffffff1603611c3f5760006040517f57f447ce000000000000000000000000000000000000000000000000000000008152600401611c369190614159565b60405180910390fd5b600080611c4c85856120c6565b91509150611c5e600087848487611fc3565b505050505050565b600073ffffffffffffffffffffffffffffffffffffffff168273ffffffffffffffffffffffffffffffffffffffff1603611cd85760006040517fced3e100000000000000000000000000000000000000000000000000000000008152600401611ccf9190614159565b60405180910390fd5b80600160008573ffffffffffffffffffffffffffffffffffffffff1673ffffffffffffffffffffffffffffffffffffffff16815260200190815260200160002060008473ffffffffffffffffffffffffffffffffffffffff1673ffffffffffffffffffffffffffffffffffffffff16815260200190815260200160002060006101000a81548160ff0219169083151502179055508173ffffffffffffffffffffffffffffffffffffffff168373ffffffffffffffffffffffffffffffffffffffff167f17307eab39ab6107e8899845ad3d59bd9653f200f220920489ca2b5937696c3183604051611dc99190612a54565b60405180910390a3505050565b600073ffffffffffffffffffffffffffffffffffffffff168473ffffffffffffffffffffffffffffffffffffffff1603611e485760006040517f57f447ce000000000000000000000000000000000000000000000000000000008152600401611e3f9190614159565b60405180910390fd5b600073ffffffffffffffffffffffffffffffffffffffff168573ffffffffffffffffffffffffffffffffffffffff1603611eba5760006040517f01a83514000000000000000000000000000000000000000000000000000000008152600401611eb19190614159565b60405180910390fd5b600080611ec785856120c6565b91509150611ed88787848487611fc3565b50505050505050565b60007fd9b67a26000000000000000000000000000000000000000000000000000000007bffffffffffffffffffffffffffffffffffffffffffffffffffffffff1916827bffffffffffffffffffffffffffffffffffffffffffffffffffffffff19161480611fac57507f0e89341c000000000000000000000000000000000000000000000000000000007bffffffffffffffffffffffffffffffffffffffffffffffffffffffff1916827bffffffffffffffffffffffffffffffffffffffffffffffffffffffff1916145b80611fbc5750611fbb826120f6565b5b9050919050565b611fcf85858585612160565b600073ffffffffffffffffffffffffffffffffffffffff168473ffffffffffffffffffffffffffffffffffffffff161461206e57600061200d611805565b9050600184510361205d57600061202e600086611bb990919063ffffffff16565b90506000612046600086611bb990919063ffffffff16565b905061205683898985858961250e565b505061206c565b61206b8187878787876126c2565b5b505b5050505050565b61207f8282611390565b6120c25780826040517fe2517d3f0000000000000000000000000000000000000000000000000000000081526004016120b9929190614174565b60405180910390fd5b5050565b60608060405191506001825283602083015260408201905060018152826020820152604081016040529250929050565b60007f01ffc9a7000000000000000000000000000000000000000000000000000000007bffffffffffffffffffffffffffffffffffffffffffffffffffffffff1916827bffffffffffffffffffffffffffffffffffffffffffffffffffffffff1916149050919050565b80518251146121aa57815181516040517f5b0599910000000000000000000000000000000000000000000000000000000081526004016121a1929190613872565b60405180910390fd5b60006121b4611805565b905060005b83518110156123c95760006121d78286611bb990919063ffffffff16565b905060006121ee8386611bb990919063ffffffff16565b9050600073ffffffffffffffffffffffffffffffffffffffff168873ffffffffffffffffffffffffffffffffffffffff161461231b57600080600084815260200190815260200160002060008a73ffffffffffffffffffffffffffffffffffffffff1673ffffffffffffffffffffffffffffffffffffffff168152602001908152602001600020549050818110156122c357888183856040517f03dee4c50000000000000000000000000000000000000000000000000000000081526004016122ba949392919061419d565b60405180910390fd5b81810360008085815260200190815260200160002060008b73ffffffffffffffffffffffffffffffffffffffff1673ffffffffffffffffffffffffffffffffffffffff16815260200190815260200160002081905550505b600073ffffffffffffffffffffffffffffffffffffffff168773ffffffffffffffffffffffffffffffffffffffff16146123b6578060008084815260200190815260200160002060008973ffffffffffffffffffffffffffffffffffffffff1673ffffffffffffffffffffffffffffffffffffffff16815260200190815260200160002060008282546123ae91906140fc565b925050819055505b5050806123c2906138ca565b90506121b9565b5060018351036124885760006123e9600085611bb990919063ffffffff16565b90506000612401600085611bb990919063ffffffff16565b90508573ffffffffffffffffffffffffffffffffffffffff168773ffffffffffffffffffffffffffffffffffffffff168473ffffffffffffffffffffffffffffffffffffffff167fc3d58168c5ae7397731d063d5bbf3d657854427343f4c083240f7aacaa2d0f628585604051612479929190613872565b60405180910390a45050612507565b8373ffffffffffffffffffffffffffffffffffffffff168573ffffffffffffffffffffffffffffffffffffffff168273ffffffffffffffffffffffffffffffffffffffff167f4a39dc06d4c0dbc64b70af90fd698a233a518aa5d07e595d983b8c0526c8f7fb86866040516124fe9291906141e2565b60405180910390a45b5050505050565b60008473ffffffffffffffffffffffffffffffffffffffff163b11156126ba578373ffffffffffffffffffffffffffffffffffffffff1663f23a6e6187878686866040518663ffffffff1660e01b815260040161256f95949392919061426e565b6020604051808303816000875af19250505080156125ab57506040513d601f19601f820116820180604052508101906125a891906142dd565b60015b61262f573d80600081146125db576040519150601f19603f3d011682016040523d82523d6000602084013e6125e0565b606091505b50600081510361262757846040517f57f447ce00000000000000000000000000000000000000000000000000000000815260040161261e9190614159565b60405180910390fd5b805160208201fd5b63f23a6e6160e01b7bffffffffffffffffffffffffffffffffffffffffffffffffffffffff1916817bffffffffffffffffffffffffffffffffffffffffffffffffffffffff1916146126b857846040517f57f447ce0000000000000000000000000000000000000000000000000000000081526004016126af9190614159565b60405180910390fd5b505b505050505050565b60008473ffffffffffffffffffffffffffffffffffffffff163b111561286e578373ffffffffffffffffffffffffffffffffffffffff1663bc197c8187878686866040518663ffffffff1660e01b815260040161272395949392919061430a565b6020604051808303816000875af192505050801561275f57506040513d601f19601f8201168201806040525081019061275c91906142dd565b60015b6127e3573d806000811461278f576040519150601f19603f3d011682016040523d82523d6000602084013e612794565b606091505b5060008151036127db57846040517f57f447ce0000000000000000000000000000000000000000000000000000000081526004016127d29190614159565b60405180910390fd5b805160208201fd5b63bc197c8160e01b7bffffffffffffffffffffffffffffffffffffffffffffffffffffffff1916817bffffffffffffffffffffffffffffffffffffffffffffffffffffffff19161461286c57846040517f57f447ce0000000000000000000000000000000000000000000000000000000081526004016128639190614159565b60405180910390fd5b505b505050505050565b604051806080016040528060608152602001600061ffff16815260200160608152602001606081525090565b6000604051905090565b600080fd5b600080fd5b600073ffffffffffffffffffffffffffffffffffffffff82169050919050565b60006128e1826128b6565b9050919050565b6128f1816128d6565b81146128fc57600080fd5b50565b60008135905061290e816128e8565b92915050565b6000819050919050565b61292781612914565b811461293257600080fd5b50565b6000813590506129448161291e565b92915050565b60008060408385031215612961576129606128ac565b5b600061296f858286016128ff565b925050602061298085828601612935565b9150509250929050565b61299381612914565b82525050565b60006020820190506129ae600083018461298a565b92915050565b60007fffffffff0000000000000000000000000000000000000000000000000000000082169050919050565b6129e9816129b4565b81146129f457600080fd5b50565b600081359050612a06816129e0565b92915050565b600060208284031215612a2257612a216128ac565b5b6000612a30848285016129f7565b91505092915050565b60008115159050919050565b612a4e81612a39565b82525050565b6000602082019050612a696000830184612a45565b92915050565b600060208284031215612a8557612a846128ac565b5b6000612a9384828501612935565b91505092915050565b600081519050919050565b600082825260208201905092915050565b60005b83811015612ad6578082015181840152602081019050612abb565b60008484015250505050565b6000601f19601f8301169050919050565b6000612afe82612a9c565b612b088185612aa7565b9350612b18818560208601612ab8565b612b2181612ae2565b840191505092915050565b60006020820190508181036000830152612b468184612af3565b905092915050565b6000819050919050565b612b6181612b4e565b82525050565b6000602082019050612b7c6000830184612b58565b92915050565b600082825260208201905092915050565b6000612b9e82612a9c565b612ba88185612b82565b9350612bb8818560208601612ab8565b612bc181612ae2565b840191505092915050565b600061ffff82169050919050565b612be381612bcc565b82525050565b60006080830160008301518482036000860152612c068282612b93565b9150506020830151612c1b6020860182612bda565b5060408301518482036040860152612c338282612b93565b91505060608301518482036060860152612c4d8282612b93565b9150508091505092915050565b7f4e487b7100000000000000000000000000000000000000000000000000000000600052602160045260246000fd5b60028110612c9a57612c99612c5a565b5b50565b6000819050612cab82612c89565b919050565b6000612cbb82612c9d565b9050919050565b612ccb81612cb0565b82525050565b600067ffffffffffffffff82169050919050565b612cee81612cd1565b82525050565b600060c0820190508181036000830152612d0e8189612be9565b9050612d1d6020830188612cc2565b612d2a6040830187612b58565b612d376060830186612ce5565b612d446080830185612ce5565b612d5160a083018461298a565b979650505050505050565b612d6581612b4e565b8114612d7057600080fd5b50565b600081359050612d8281612d5c565b92915050565b600060208284031215612d9e57612d9d6128ac565b5b6000612dac84828501612d73565b91505092915050565b600080fd5b7f4e487b7100000000000000000000000000000000000000000000000000000000600052604160045260246000fd5b612df282612ae2565b810181811067ffffffffffffffff82111715612e1157612e10612dba565b5b80604052505050565b6000612e246128a2565b9050612e308282612de9565b919050565b600067ffffffffffffffff821115612e5057612e4f612dba565b5b602082029050602081019050919050565b600080fd5b6000612e79612e7484612e35565b612e1a565b90508083825260208201905060208402830185811115612e9c57612e9b612e61565b5b835b81811015612ec55780612eb18882612935565b845260208401935050602081019050612e9e565b5050509392505050565b600082601f830112612ee457612ee3612db5565b5b8135612ef4848260208601612e66565b91505092915050565b600080fd5b600067ffffffffffffffff821115612f1d57612f1c612dba565b5b612f2682612ae2565b9050602081019050919050565b82818337600083830152505050565b6000612f55612f5084612f02565b612e1a565b905082815260208101848484011115612f7157612f70612efd565b5b612f7c848285612f33565b509392505050565b600082601f830112612f9957612f98612db5565b5b8135612fa9848260208601612f42565b91505092915050565b600080600080600060a08688031215612fce57612fcd6128ac565b5b6000612fdc888289016128ff565b9550506020612fed888289016128ff565b945050604086013567ffffffffffffffff81111561300e5761300d6128b1565b5b61301a88828901612ecf565b935050606086013567ffffffffffffffff81111561303b5761303a6128b1565b5b61304788828901612ecf565b925050608086013567ffffffffffffffff811115613068576130676128b1565b5b61307488828901612f84565b9150509295509295909350565b60008060408385031215613098576130976128ac565b5b60006130a685828601612d73565b92505060206130b7858286016128ff565b9150509250929050565b60006020820190506130d66000830184612ce5565b92915050565b60006020820190506130f16000830184612cc2565b92915050565b6000806040838503121561310e5761310d6128ac565b5b600061311c85828601612935565b925050602061312d85828601612935565b9150509250929050565b600067ffffffffffffffff82111561315257613151612dba565b5b602082029050602081019050919050565b600061317661317184613137565b612e1a565b9050808382526020820190506020840283018581111561319957613198612e61565b5b835b818110156131c257806131ae88826128ff565b84526020840193505060208101905061319b565b5050509392505050565b600082601f8301126131e1576131e0612db5565b5b81356131f1848260208601613163565b91505092915050565b60008060408385031215613211576132106128ac565b5b600083013567ffffffffffffffff81111561322f5761322e6128b1565b5b61323b858286016131cc565b925050602083013567ffffffffffffffff81111561325c5761325b6128b1565b5b61326885828601612ecf565b9150509250929050565b600081519050919050565b600082825260208201905092915050565b6000819050602082019050919050565b6132a781612914565b82525050565b60006132b9838361329e565b60208301905092915050565b6000602082019050919050565b60006132dd82613272565b6132e7818561327d565b93506132f28361328e565b8060005b8381101561332357815161330a88826132ad565b9750613315836132c5565b9250506001810190506132f6565b5085935050505092915050565b6000602082019050818103600083015261334a81846132d2565b905092915050565b600080fd5b60006080828403121561336d5761336c613352565b5b81905092915050565b600080600080600060a08688031215613392576133916128ac565b5b60006133a088828901612935565b95505060206133b1888289016128ff565b94505060406133c288828901612935565b935050606086013567ffffffffffffffff8111156133e3576133e26128b1565b5b6133ef88828901613357565b925050608061340088828901612d73565b9150509295509295909350565b6000819050919050565b600061343261342d613428846128b6565b61340d565b6128b6565b9050919050565b600061344482613417565b9050919050565b600061345682613439565b9050919050565b6134668161344b565b82525050565b6000602082019050613481600083018461345d565b92915050565b61349081612a39565b811461349b57600080fd5b50565b6000813590506134ad81613487565b92915050565b600080604083850312156134ca576134c96128ac565b5b60006134d8858286016128ff565b92505060206134e98582860161349e565b9150509250929050565b6000806040838503121561350a576135096128ac565b5b6000613518858286016128ff565b9250506020613529858286016128ff565b9150509250929050565b61353c81612bcc565b82525050565b6000608082019050818103600083015261355c8187612af3565b905061356b6020830186613533565b818103604083015261357d8185612af3565b905081810360608301526135918184612af3565b905095945050505050565b600080600080600060a086880312156135b8576135b76128ac565b5b60006135c6888289016128ff565b95505060206135d7888289016128ff565b94505060406135e888828901612935565b93505060606135f988828901612935565b925050608086013567ffffffffffffffff81111561361a576136196128b1565b5b61362688828901612f84565b9150509295509295909350565b7f4e487b7100000000000000000000000000000000000000000000000000000000600052602260045260246000fd5b6000600282049050600182168061367a57607f821691505b60208210810361368d5761368c613633565b5b50919050565b61369c816128d6565b82525050565b60006040820190506136b76000830185613693565b6136c46020830184613693565b9392505050565b7f616d6f756e743d30000000000000000000000000000000000000000000000000600082015250565b6000613701600883612aa7565b915061370c826136cb565b602082019050919050565b60006020820190508181036000830152613730816136f4565b9050919050565b7f616c726561647920726574697265640000000000000000000000000000000000600082015250565b600061376d600f83612aa7565b915061377882613737565b602082019050919050565b6000602082019050818103600083015261379c81613760565b9050919050565b7f696e73756666696369656e740000000000000000000000000000000000000000600082015250565b60006137d9600c83612aa7565b91506137e4826137a3565b602082019050919050565b60006020820190508181036000830152613808816137cc565b9050919050565b7f4e487b7100000000000000000000000000000000000000000000000000000000600052601160045260246000fd5b600061384982612914565b915061385483612914565b925082820390508181111561386c5761386b61380f565b5b92915050565b6000604082019050613887600083018561298a565b613894602083018461298a565b9392505050565b7f4e487b7100000000000000000000000000000000000000000000000000000000600052603260045260246000fd5b60006138d582612914565b91507fffffffffffffffffffffffffffffffffffffffffffffffffffffffffffffffff82036139075761390661380f565b5b600182019050919050565b7f746f3d3000000000000000000000000000000000000000000000000000000000600082015250565b6000613948600483612aa7565b915061395382613912565b602082019050919050565b600060208201905081810360008301526139778161393b565b9050919050565b7f746f6b656e496420616c72656164792069737375656400000000000000000000600082015250565b60006139b4601683612aa7565b91506139bf8261397e565b602082019050919050565b600060208201905081810360008301526139e3816139a7565b9050919050565b6000815190506139f981612d5c565b92915050565b600081519050613a0e81613487565b92915050565b613a1d81612cd1565b8114613a2857600080fd5b50565b600081519050613a3a81613a14565b92915050565b60008060008060808587031215613a5a57613a596128ac565b5b6000613a68878288016139ea565b9450506020613a79878288016139ea565b9350506040613a8a878288016139ff565b9250506060613a9b87828801613a2b565b91505092959194509250565b7f696e76616c6964206174746573746174696f6e00000000000000000000000000600082015250565b6000613add601383612aa7565b9150613ae882613aa7565b602082019050919050565b60006020820190508181036000830152613b0c81613ad0565b9050919050565b7f6174746573746174696f6e207573656400000000000000000000000000000000600082015250565b6000613b49601083612aa7565b9150613b5482613b13565b602082019050919050565b60006020820190508181036000830152613b7881613b3c565b9050919050565b600080fd5b600080fd5b600080fd5b60008083356001602003843603038112613bab57613baa613b7f565b5b80840192508235915067ffffffffffffffff821115613bcd57613bcc613b84565b5b602083019250600182023603831315613be957613be8613b89565b5b509250929050565b613bfa81612bcc565b8114613c0557600080fd5b50565b600081359050613c1781613bf1565b92915050565b600060208284031215613c3357613c326128ac565b5b6000613c4184828501613c08565b91505092915050565b6000613c568385612aa7565b9350613c63838584612f33565b613c6c83612ae2565b840190509392505050565b60006080820190508181036000830152613c9281898b613c4a565b9050613ca16020830188613533565b8181036040830152613cb4818688613c4a565b90508181036060830152613cc9818486613c4a565b905098975050505050505050565b7f6d657461206d69736d6174636800000000000000000000000000000000000000600082015250565b6000613d0d600d83612aa7565b9150613d1882613cd7565b602082019050919050565b60006020820190508181036000830152613d3c81613d00565b9050919050565b600082905092915050565b60008190508160005260206000209050919050565b60006020601f8301049050919050565b600082821b905092915050565b600060088302613db07fffffffffffffffffffffffffffffffffffffffffffffffffffffffffffffffff82613d73565b613dba8683613d73565b95508019841693508086168417925050509392505050565b6000613ded613de8613de384612914565b61340d565b612914565b9050919050565b6000819050919050565b613e0783613dd2565b613e1b613e1382613df4565b848454613d80565b825550505050565b600090565b613e30613e23565b613e3b818484613dfe565b505050565b5b81811015613e5f57613e54600082613e28565b600181019050613e41565b5050565b601f821115613ea457613e7581613d4e565b613e7e84613d63565b81016020851015613e8d578190505b613ea1613e9985613d63565b830182613e40565b50505b505050565b600082821c905092915050565b6000613ec760001984600802613ea9565b1980831691505092915050565b6000613ee08383613eb6565b9150826002028217905092915050565b613efa8383613d43565b67ffffffffffffffff811115613f1357613f12612dba565b5b613f1d8254613662565b613f28828285613e63565b6000601f831160018114613f575760008415613f45578287013590505b613f4f8582613ed4565b865550613fb7565b601f198416613f6586613d4e565b60005b82811015613f8d57848901358255600182019150602085019450602081019050613f68565b86831015613faa5784890135613fa6601f891682613eb6565b8355505b6001600288020188555050505b50505050505050565b613fcb838383613ef0565b505050565b60008135613fdd81613bf1565b80915050919050565b60008160001b9050919050565b600061ffff61400184613fe6565b9350801983169250808416831791505092915050565b600061403261402d61402884612bcc565b61340d565b612bcc565b9050919050565b6000819050919050565b61404c82614017565b61405f61405882614039565b8354613ff3565b8255505050565b60008101600083016140788185613b8e565b614083818386613fc0565b5050505060018101602083018061409981613fd0565b90506140a58184614043565b50505060028101604083016140ba8185613b8e565b6140c5818386613fc0565b5050505060038101606083016140db8185613b8e565b6140e6818386613fc0565b505050505050565b6140f88282614066565b5050565b600061410782612914565b915061411283612914565b925082820190508082111561412a5761412961380f565b5b92915050565b6000604082019050614145600083018561298a565b6141526020830184612b58565b9392505050565b600060208201905061416e6000830184613693565b92915050565b60006040820190506141896000830185613693565b6141966020830184612b58565b9392505050565b60006080820190506141b26000830187613693565b6141bf602083018661298a565b6141cc604083018561298a565b6141d9606083018461298a565b95945050505050565b600060408201905081810360008301526141fc81856132d2565b9050818103602083015261421081846132d2565b90509392505050565b600081519050919050565b600082825260208201905092915050565b600061424082614219565b61424a8185614224565b935061425a818560208601612ab8565b61426381612ae2565b840191505092915050565b600060a0820190506142836000830188613693565b6142906020830187613693565b61429d604083018661298a565b6142aa606083018561298a565b81810360808301526142bc8184614235565b90509695505050505050565b6000815190506142d7816129e0565b92915050565b6000602082840312156142f3576142f26128ac565b5b6000614301848285016142c8565b91505092915050565b600060a08201905061431f6000830188613693565b61432c6020830187613693565b818103604083015261433e81866132d2565b9050818103606083015261435281856132d2565b905081810360808301526143668184614235565b9050969550505050505056fea2646970667358221220975413180683f89d11aa01089e6efed77bb2ea440ca3871b2816c7984fca7fa664736f6c63430008140033",
  "linkReferences": {},
  "deployedLinkReferences": {}
}