{
  "_format": "hh-sol-artifact-1",
  "contractName": "SPEGRKToken",
  "sourceName": "contracts/SPEGRKToken.sol",
  "abi": [
    {
      "inputs": [
        {
          "internalType": "string",
          "name": "uri_",
          "type": "string"
        },
        {
          "internalType": "address",
          "name": "admin",
          "type": "address"
        },
        {
          "internalType": "address",
          "name": "regulator",
          "type": "address"
        },
        {
          "internalType": "address",
          "name": "oracleAddress",
          "type": "address"
        },
        {
          "internalType": "address",
          "name": "trustedForwarder",
          "type": "address"
        }
      ],
      "stateMutability": "nonpayable",
      "type": "constructor"
    },
    {
      "inputs": [],
      "name": "AccessControlBadConfirmation",
      "type": "error"
    },
    {
      "inputs": [
        {
          "internalType": "address",
          "name": "account",
          "type": "address"
        },
        {
          "internalType": "bytes32",
          "name": "neededRole",
          "type": "bytes32"
        }
      ],
      "name": "AccessControlUnauthorizedAccount",
      "type": "error"
    },
    {
      "inputs": [
        {
          "internalType": "uint256",
          "name": "tokenId",
          "type": "uint256"
        }
      ],
      "name": "AlreadyRetired",
      "type": "error"
    },
    {
      "inputs": [
        {
          "internalType": "address",
          "name": "sender",
          "type": "address"
        },
        {
          "internalType": "uint256",
          "name": "balance",
          "type": "uint256"
        },
        {
          "internalType": "uint256",
          "name": "needed",
          "type": "uint256"
        },
        {
          "internalType": "uint256",
          "name": "tokenId",
          "type": "uint256"
        }
      ],
      "name": "ERC1155InsufficientBalance",
      "type": "error"
    },
    {
      "inputs": [
        {
          "internalType": "address",
          "name": "approver",
          "type": "address"
        }
      ],
      "name": "ERC1155InvalidApprover",
      "type": "error"
    },
    {
      "inputs": [
        {
          "internalType": "uint256",
          "name": "idsLength",
          "type": "uint256"
        },
        {
          "internalType": "uint256",
          "name": "valuesLength",
          "type": "uint256"
        }
      ],
      "name": "ERC1155InvalidArrayLength",
      "type": "error"
    },
    {
      "inputs": [
        {
          "internalType": "address",
          "name": "operator",
          "type": "address"
        }
      ],
      "name": "ERC1155InvalidOperator",
      "type": "error"
    },
    {
      "inputs": [
        {
          "internalType": "address",
          "name": "receiver",
          "type": "address"
        }
      ],
      "name": "ERC1155InvalidReceiver",
      "type": "error"
    },
    {
      "inputs": [
        {
          "internalType": "address",
          "name": "sender",
          "type": "address"
        }
      ],
      "name": "ERC1155InvalidSender",
      "type": "error"
    },
    {
      "inputs": [
        {
          "internalType": "address",
          "name": "operator",
          "type": "address"
        },
        {
          "internalType": "address",
          "name": "owner",
          "type": "address"
        }
      ],
      "name": "ERC1155MissingApprovalForAll",
      "type": "error"
    },
    {
      "inputs": [
        {
          "internalType": "uint256",
          "name": "available",
          "type": "uint256"
        },
        {
          "internalType": "uint256",
          "name": "required",
          "type": "uint256"
        }
      ],
      "name": "InsufficientBalance",
      "type": "error"
    },
    {
      "inputs": [],
      "name": "InvalidAmount",
      "type": "error"
    },
    {
      "inputs": [
        {
          "internalType": "bytes32",
          "name": "attestationId",
          "type": "bytes32"
        }
      ],
      "name": "InvalidAttestation",
      "type": "error"
    },
    {
      "inputs": [],
      "name": "InvalidRecipient",
      "type": "error"
    },
    {
      "inputs": [
        {
          "internalType": "bytes32",
          "name": "expected",
          "type": "bytes32"
        },
        {
          "internalType": "bytes32",
          "name": "actual",
          "type": "bytes32"
        }
      ],
      "name": "MetadataMismatch",
      "type": "error"
    },
    {
      "inputs": [
        {
          "internalType": "uint256",
          "name": "tokenId",
          "type": "uint256"
        }
      ],
      "name": "TokenAlreadyIssued",
      "type": "error"
    },
    {
      "anonymous": false,
      "inputs": [
        {
          "indexed": true,
          "internalType": "address",
          "name": "account",
          "type": "address"
        },
        {
          "indexed": true,
          "internalType": "address",
          "name": "operator",
          "type": "address"
        },
        {
          "indexed": false,
          "internalType": "bool",
          "name": "approved",
          "type": "bool"
        }
      ],
      "name": "ApprovalForAll",
      "type": "event"
    },
    {
      "anonymous": false,
      "inputs": [
        {
          "indexed": true,
          "internalType": "bytes32",
          "name": "role",
          "type": "bytes32"
        },
        {
          "indexed": true,
          "internalType": "bytes32",
          "name": "previousAdminRole",
          "type": "bytes32"
        },
        {
          "indexed": true,
          "internalType": "bytes32",
          "name": "newAdminRole",
          "type": "bytes32"
        }
      ],
      "name": "RoleAdminChanged",
      "type": "event"
    },
    {
      "anonymous": false,
      "inputs": [
        {
          "indexed": true,
          "internalType": "bytes32",
          "name": "role",
          "type": "bytes32"
        },
        {
          "indexed": true,
          "internalType": "address",
          "name": "account",
          "type": "address"
        },
        {
          "indexed": true,
          "internalType": "address",
          "name": "sender",
          "type": "address"
        }
      ],
      "name": "RoleGranted",
      "type": "event"
    },
    {
      "anonymous": false,
      "inputs": [
        {
          "indexed": true,
          "internalType": "bytes32",
          "name": "role",
          "type": "bytes32"
        },
        {
          "indexed": true,
          "internalType": "address",
          "name": "account",
          "type": "address"
        },
        {
          "indexed": true,
          "internalType": "address",
          "name": "sender",
          "type": "address"
        }
      ],
      "name": "RoleRevoked",
      "type": "event"
    },
    {
      "anonymous": false,
      "inputs": [
        {
          "indexed": true,
          "internalType": "uint256",
          "name": "tokenId",
          "type": "uint256"
        },
        {
          "indexed": true,
          "internalType": "address",
          "name": "to",
          "type": "address"
        },
        {
          "indexed": false,
          "internalType": "uint256",
          "name": "amount",
          "type": "uint256"
        },
        {
          "indexed": false,
          "internalType": "bytes32",
          "name": "attestationId",
          "type": "bytes32"
        }
      ],
      "name": "SPEIssued",
      "type": "event"
    },
    {
      "anonymous": false,
      "inputs": [
        {
          "indexed": true,
          "internalType": "uint256",
          "name": "tokenId",
          "type": "uint256"
        },
        {
          "indexed": true,
          "internalType": "address",
          "name": "holder",
          "type": "address"
        },
        {
          "indexed": false,
          "internalType": "uint256",
          "name": "amount",
          "type": "uint256"
        }
      ],
      "name": "SPERetired",
      "type": "event"
    },
    {
      "anonymous": false,
      "inputs": [
        {
          "indexed": true,
          "internalType": "address",
          "name": "operator",
          "type": "address"
        },
        {
          "indexed": true,
          "internalType": "address",
          "name": "from",
          "type": "address"
        },
        {
          "indexed": true,
          "internalType": "address",
          "name": "to",
          "type": "address"
        },
        {
          "indexed": false,
          "internalType": "uint256[]",
          "name": "ids",
          "type": "uint256[]"
        },
        {
          "indexed": false,
          "internalType": "uint256[]",
          "name": "values",
          "type": "uint256[]"
        }
      ],
      "name": "TransferBatch",
      "type": "event"
    },
    {
      "anonymous": false,
      "inputs": [
        {
          "indexed": true,
          "internalType": "address",
          "name": "operator",
          "type": "address"
        },
        {
          "indexed": true,
          "internalType": "address",
          "name": "from",
          "type": "address"
        },
        {
          "indexed": true,
          "internalType": "address",
          "name": "to",
          "type": "address"
        },
        {
          "indexed": false,
          "internalType": "uint256",
          "name": "id",
          "type": "uint256"
        },
        {
          "indexed": false,
          "internalType": "uint256",
          "name": "value",
          "type": "uint256"
        }
      ],
      "name": "TransferSingle",
      "type": "event"
    },
    {
      "anonymous": false,
      "inputs": [
        {
          "indexed": false,
          "internalType": "string",
          "name": "value",
          "type": "string"
        },
        {
          "indexed": true,
          "internalType": "uint256",
          "name": "id",
          "type": "uint256"
        }
      ],
      "name": "URI",
      "type": "event"
    },
    {
      "inputs": [],
      "name": "DEFAULT_ADMIN_ROLE",
      "outputs": [
        {
          "internalType": "bytes32",
          "name": "",
          "type": "bytes32"
        }
      ],
      "stateMutability": "view",
      "type": "function"
    },
    {
      "inputs": [],
      "name": "REGULATOR_ROLE",
      "outputs": [
        {
          "internalType": "bytes32",
          "name": "",
          "type": "bytes32"
        }
      ],
      "stateMutability": "view",
      "type": "function"
    },
    {
      "inputs": [
        {
          "internalType": "address",
          "name": "account",
          "type": "address"
        },
        {
          "internalType": "uint256",
          "name": "id",
          "type": "uint256"
        }
      ],
      "name": "balanceOf",
      "outputs": [
        {
          "internalType": "uint256",
          "name": "",
          "type": "uint256"
        }
      ],
      "stateMutability": "view",
      "type": "function"
    },
    {
      "inputs": [
        {
          "internalType": "address[]",
          "name": "accounts",
          "type": "address[]"
        },
        {
          "internalType": "uint256[]",
          "name": "ids",
          "type": "uint256[]"
        }
      ],
      "name": "balanceOfBatch",
      "outputs": [
        {
          "internalType": "uint256[]",
          "name": "",
          "type": "uint256[]"
        }
      ],
      "stateMutability": "view",
      "type": "function"
    },
    {
      "inputs": [
        {
          "internalType": "uint256",
          "name": "",
          "type": "uint256"
        }
      ],
      "name": "docHash",
      "outputs": [
        {
          "internalType": "bytes32",
          "name": "",
          "type": "bytes32"
        }
      ],
      "stateMutability": "view",
      "type": "function"
    },
    {
      "inputs": [
        {
          "internalType": "bytes32",
          "name": "role",
          "type": "bytes32"
        }
      ],
      "name": "getRoleAdmin",
      "outputs": [
        {
          "internalType": "bytes32",
          "name": "",
          "type": "bytes32"
        }
      ],
      "stateMutability": "view",
      "type": "function"
    },
    {
      "inputs": [
        {
          "internalType": "uint256",
          "name": "tokenId",
          "type": "uint256"
        }
      ],
      "name": "getUnit",
      "outputs": [
        {
          "components": [
            {
              "internalType": "string",
              "name": "projectId",
              "type": "string"
            },
            {
              "internalType": "uint16",
              "name": "vintageYear",
              "type": "uint16"
            },
            {
              "internalType": "string",
              "name": "methodology",
              "type": "string"
            },
            {
              "internalType": "string",
              "name": "registryRef",
              "type": "string"
            }
          ],
          "internalType": "struct SPEGRKToken.UnitMeta",
          "name": "meta",
          "type": "tuple"
        },
        {
          "internalType": "enum SPEGRKToken.Status",
          "name": "st",
          "type": "uint8"
        },
        {
          "internalType": "bytes32",
          "name": "mrvDocHash",
          "type": "bytes32"
        },
        {
          "internalType": "uint64",
          "name": "issued",
          "type": "uint64"
        },
        {
          "internalType": "uint64",
          "name": "retired",
          "type": "uint64"
        },
        {
          "internalType": "uint256",
          "name": "supply",
          "type": "uint256"
        }
      ],
      "stateMutability": "view",
      "type": "function"
    },
    {
      "inputs": [
        {
          "internalType": "bytes32",
          "name": "role",
          "type": "bytes32"
        },
        {
          "internalType": "address",
          "name": "account",
          "type": "address"
        }
      ],
      "name": "grantRole",
      "outputs": [],
      "stateMutability": "nonpayable",
      "type": "function"
    },
    {
      "inputs": [
        {
          "internalType": "bytes32",
          "name": "role",
          "type": "bytes32"
        },
        {
          "internalType": "address",
          "name": "account",
          "type": "address"
        }
      ],
      "name": "hasRole",
      "outputs": [
        {
          "internalType": "bool",
          "name": "",
          "type": "bool"
        }
      ],
      "stateMutability": "view",
      "type": "function"
    },
    {
      "inputs": [
        {
          "internalType": "address",
          "name": "account",
          "type": "address"
        },
        {
          "internalType": "address",
          "name": "operator",
          "type": "address"
        }
      ],
      "name": "isApprovedForAll",
      "outputs": [
        {
          "internalType": "bool",
          "name": "",
          "type": "bool"
        }
      ],
      "stateMutability": "view",
      "type": "function"
    },
    {
      "inputs": [
        {
          "internalType": "address",
          "name": "forwarder",
          "type": "address"
        }
      ],
      "name": "isTrustedForwarder",
      "outputs": [
        {
          "internalType": "bool",
          "name": "",
          "type": "bool"
        }
      ],
      "stateMutability": "view",
      "type": "function"
    },
    {
      "inputs": [
        {
          "internalType": "uint256",
          "name": "tokenId",
          "type": "uint256"
        },
        {
          "internalType": "address",
          "name": "to",
          "type": "address"
        },
        {
          "internalType": "uint256",
          "name": "amount",
          "type": "uint256"
        },
        {
          "components": [
            {
              "internalType": "string",
              "name": "projectId",
              "type": "string"
            },
            {
              "internalType": "uint16",
              "name": "vintageYear",
              "type": "uint16"
            },
            {
              "internalType": "string",
              "name": "methodology",
              "type": "string"
            },
            {
              "internalType": "string",
              "name": "registryRef",
              "type": "string"
            }
          ],
          "internalType": "struct SPEGRKToken.UnitMeta",
          "name": "meta",
          "type": "tuple"
        },
        {
          "internalType": "bytes32",
          "name": "attestationId",
          "type": "bytes32"
        }
      ],
      "name": "issueSPE",
      "outputs": [],
      "stateMutability": "nonpayable",
      "type": "function"
    },
    {
      "inputs": [
        {
          "internalType": "uint256",
          "name": "",
          "type": "uint256"
        }
      ],
      "name": "issuedAt",
      "outputs": [
        {
          "internalType": "uint64",
          "name": "",
          "type": "uint64"
        }
      ],
      "stateMutability": "view",
      "type": "function"
    },
    {
      "inputs": [],
      "name": "oracle",
      "outputs": [
        {
          "internalType": "contract MRVOracle",
          "name": "",
          "type": "address"
        }
      ],
      "stateMutability": "view",
      "type": "function"
    },
    {
      "inputs": [
        {
          "internalType": "bytes32",
          "name": "role",
          "type": "bytes32"
        },
        {
          "internalType": "address",
          "name": "callerConfirmation",
          "type": "address"
        }
      ],
      "name": "renounceRole",
      "outputs": [],
      "stateMutability": "nonpayable",
      "type": "function"
    },
    {
      "inputs": [
        {
          "internalType": "uint256",
          "name": "tokenId",
          "type": "uint256"
        },
        {
          "internalType": "uint256",
          "name": "amount",
          "type": "uint256"
        }
      ],
      "name": "retireSPE",
      "outputs": [],
      "stateMutability": "nonpayable",
      "type": "function"
    },
    {
      "inputs": [
        {
          "internalType": "uint256",
          "name": "",
          "type": "uint256"
        }
      ],
      "name": "retiredAt",
      "outputs": [
        {
          "internalType": "uint64",
          "name": "",
          "type": "uint64"
        }
      ],
      "stateMutability": "view",
      "type": "function"
    },
    {
      "inputs": [
        {
          "internalType": "bytes32",
          "name": "role",
          "type": "bytes32"
        },
        {
          "internalType": "address",
          "name": "account",
          "type": "address"
        }
      ],
      "name": "revokeRole",
      "outputs": [],
      "stateMutability": "nonpayable",
      "type": "function"
    },
    {
      "inputs": [
        {
          "internalType": "address",
          "name": "from",
          "type": "address"
        },
        {
          "internalType": "address",
          "name": "to",
          "type": "address"
        },
        {
          "internalType": "uint256[]",
          "name": "ids",
          "type": "uint256[]"
        },
        {
          "internalType": "uint256[]",
          "name": "values",
          "type": "uint256[]"
        },
        {
          "internalType": "bytes",
          "name": "data",
          "type": "bytes"
        }
      ],
      "name": "safeBatchTransferFrom",
      "outputs": [],
      "stateMutability": "nonpayable",
      "type": "function"
    },
    {
      "inputs": [
        {
          "internalType": "address",
          "name": "from",
          "type": "address"
        },
        {
          "internalType": "address",
          "name": "to",
          "type": "address"
        },
        {
          "internalType": "uint256",
          "name": "id",
          "type": "uint256"
        },
        {
          "internalType": "uint256",
          "name": "value",
          "type": "uint256"
        },
        {
          "internalType": "bytes",
          "name": "data",
          "type": "bytes"
        }
      ],
      "name": "safeTransferFrom",
      "outputs": [],
      "stateMutability": "nonpayable",
      "type": "function"
    },
    {
      "inputs": [
        {
          "internalType": "address",
          "name": "operator",
          "type": "address"
        },
        {
          "internalType": "bool",
          "name": "approved",
          "type": "bool"
        }
      ],
      "name": "setApprovalForAll",
      "outputs": [],
      "stateMutability": "nonpayable",
      "type": "function"
    },
    {
      "inputs": [
        {
          "internalType": "uint256",
          "name": "",
          "type": "uint256"
        }
      ],
      "name": "status",
      "outputs": [
        {
          "internalType": "enum SPEGRKToken.Status",
          "name": "",
          "type": "uint8"
        }
      ],
      "stateMutability": "view",
      "type": "function"
    },
    {
      "inputs": [
        {
          "internalType": "bytes4",
          "name": "interfaceId",
          "type": "bytes4"
        }
      ],
      "name": "supportsInterface",
      "outputs": [
        {
          "internalType": "bool",
          "name": "",
          "type": "bool"
        }
      ],
      "stateMutability": "view",
      "type": "function"
    },
    {
      "inputs": [
        {
          "internalType": "uint256",
          "name": "",
          "type": "uint256"
        }
      ],
      "name": "totalSupply",
      "outputs": [
        {
          "internalType": "uint256",
          "name": "",
          "type": "uint256"
        }
      ],
      "stateMutability": "view",
      "type": "function"
    },
    {
      "inputs": [],
      "name": "trustedForwarder",
      "outputs": [
        {
          "internalType": "address",
          "name": "",
          "type": "address"
        }
      ],
      "stateMutability": "view",
      "type": "function"
    },
    {
      "inputs": [
        {
          "internalType": "uint256",
          "name": "",
          "type": "uint256"
        }
      ],
      "name": "unitMeta",
      "outputs": [
        {
          "internalType": "string",
          "name": "projectId",
          "type": "string"
        },
        {
          "internalType": "uint16",
          "name": "vintageYear",
          "type": "uint16"
        },
        {
          "internalType": "string",
          "name": "methodology",
          "type": "string"
        },
        {
          "internalType": "string",
          "name": "registryRef",
          "type": "string"
        }
      ],
      "stateMutability": "view",
      "type": "function"
    },
    {
      "inputs": [
        {
          "internalType": "uint256",
          "name": "",
          "type": "uint256"
        }
      ],
      "name": "uri",
      "outputs": [
        {
          "internalType": "string",
          "name": "",
          "type": "string"
        }
      ],
      "stateMutability": "view",
      "type": "function"
    }
  ],
  "bytecode": "0x60a06040523480156200001157600080fd5b5060405162002cef38038062002cef833981016040819052620000349162000236565b80856200004181620000b4565b506001600160a01b03166080526200005b600085620000c6565b50620000887f20b5f7ac978e5d6199de06401411960dfa81d2f762655f6206bdc61d46fc19e684620000c6565b5050600a80546001600160a01b0319166001600160a01b0392909216919091179055506200050e915050565b6002620000c28282620003e5565b5050565b60008281526003602090815260408083206001600160a01b038516845290915281205460ff16620001715760008381526003602090815260408083206001600160a01b03861684529091529020805460ff19166001179055620001286200017b565b6001600160a01b0316826001600160a01b0316847f2f8788117e7eff1d82e926ec794901d17c78024a50270940304540a733656f0d60405160405180910390a450600162000175565b5060005b92915050565b6000620001876200018c565b905090565b6000366014808210801590620001a85750620001a833620001dc565b15620001d457620001bf36828403816000620004b1565b620001ca91620004dd565b60601c9250505090565b339250505090565b6000620001e860805190565b6001600160a01b0316826001600160a01b0316149050919050565b634e487b7160e01b600052604160045260246000fd5b80516001600160a01b03811681146200023157600080fd5b919050565b600080600080600060a086880312156200024f57600080fd5b85516001600160401b03808211156200026757600080fd5b818801915088601f8301126200027c57600080fd5b81518181111562000291576200029162000203565b604051601f8201601f19908116603f01168101908382118183101715620002bc57620002bc62000203565b81604052828152602093508b84848701011115620002d957600080fd5b600091505b82821015620002fd5784820184015181830185015290830190620002de565b60008484830101528099505050506200031881890162000219565b955050506200032a6040870162000219565b92506200033a6060870162000219565b91506200034a6080870162000219565b90509295509295909350565b600181811c908216806200036b57607f821691505b6020821081036200038c57634e487b7160e01b600052602260045260246000fd5b50919050565b601f821115620003e057600081815260208120601f850160051c81016020861015620003bb5750805b601f850160051c820191505b81811015620003dc57828155600101620003c7565b5050505b505050565b81516001600160401b0381111562000401576200040162000203565b620004198162000412845462000356565b8462000392565b602080601f831160018114620004515760008415620004385750858301515b600019600386901b1c1916600185901b178555620003dc565b600085815260208120601f198616915b82811015620004825788860151825594840194600190910190840162000461565b5085821015620004a15787850151600019600388901b60f8161c191681555b5050505050600190811b01905550565b60008085851115620004c257600080fd5b83861115620004d057600080fd5b5050820193919092039150565b6001600160601b03198135818116916014851015620005065780818660140360031b1b83161692505b505092915050565b6080516127b76200053860003960008181610387015281816103d901526115ad01526127b76000f3fe608060405234801561001057600080fd5b50600436106101a85760003560e01c8063517c3603116100f9578063a217fddf11610097578063d547741f11610071578063d547741f1461049b578063e985e9c5146104ae578063eaf724d8146104c1578063f242432a146104e457600080fd5b8063a217fddf14610460578063a22cb46514610468578063bd85b0391461047b57600080fd5b80637da0a877116100d35780637da0a877146103d75780637dc0d1d01461041157806391d14854146104245780639f37e2fd1461043757600080fd5b8063517c360314610364578063572b6c05146103775780636fb1bf0d146103b757600080fd5b80632eb2c2d61161016657806341562f1e1161014057806341562f1e146102c057806342d21ef714610301578063437d4862146103315780634e1273f41461034457600080fd5b80632eb2c2d6146102855780632f2ff15d1461029a57806336568abe146102ad57600080fd5b8062fdd58e146101ad57806301ffc9a7146101d35780630e89341c146101f6578063144bf589146102165780631655bfbe1461023d578063248a9ca314610262575b600080fd5b6101c06101bb366004611aee565b6104f7565b6040519081526020015b60405180910390f35b6101e66101e1366004611b2e565b61051f565b60405190151581526020016101ca565b610209610204366004611b52565b61052a565b6040516101ca9190611bb1565b6101c07f20b5f7ac978e5d6199de06401411960dfa81d2f762655f6206bdc61d46fc19e681565b61025061024b366004611b52565b6105be565b6040516101ca96959493929190611bfc565b6101c0610270366004611b52565b60009081526003602052604090206001015490565b610298610293366004611df1565b610835565b005b6102986102a8366004611e9a565b6108b5565b6102986102bb366004611e9a565b6108e0565b6102e96102ce366004611b52565b6008602052600090815260409020546001600160401b031681565b6040516001600160401b0390911681526020016101ca565b61032461030f366004611b52565b60056020526000908152604090205460ff1681565b6040516101ca9190611ec6565b61029861033f366004611ed4565b610928565b610357610352366004611ef6565b610aa6565b6040516101ca9190611ff0565b610298610372366004612003565b610b7a565b6101e6610385366004612070565b7f00000000000000000000000000000000000000000000000000000000000000006001600160a01b0390811691161490565b6101c06103c5366004611b52565b60066020526000908152604090205481565b7f00000000000000000000000000000000000000000000000000000000000000005b6040516001600160a01b0390911681526020016101ca565b600a546103f9906001600160a01b031681565b6101e6610432366004611e9a565b610ec2565b6102e9610445366004611b52565b6007602052600090815260409020546001600160401b031681565b6101c0600081565b610298610476366004612099565b610eed565b6101c0610489366004611b52565b60096020526000908152604090205481565b6102986104a9366004611e9a565b610f03565b6101e66104bc3660046120d0565b610f28565b6104d46104cf366004611b52565b610f56565b6040516101ca94939291906120fa565b6102986104f2366004612148565b611120565b6000818152602081815260408083206001600160a01b03861684529091529020545b92915050565b600061051982611193565b606060028054610539906121ac565b80601f0160208091040260200160405190810160405280929190818152602001828054610565906121ac565b80156105b25780601f10610587576101008083540402835291602001916105b2565b820191906000526020600020905b81548152906001019060200180831161059557829003601f168201915b50505050509050919050565b6105ed604051806080016040528060608152602001600061ffff16815260200160608152602001606081525090565b6000828152600460209081526040808320600583528184205460068452828520546007855283862054600886528487205460099096528487205485516080810190965284548897889788978897909660ff9091169590946001600160401b039182169491909316929190879082908290610666906121ac565b80601f0160208091040260200160405190810160405280929190818152602001828054610692906121ac565b80156106df5780601f106106b4576101008083540402835291602001916106df565b820191906000526020600020905b8154815290600101906020018083116106c257829003601f168201915b5050509183525050600182015461ffff16602082015260028201805460409092019161070a906121ac565b80601f0160208091040260200160405190810160405280929190818152602001828054610736906121ac565b80156107835780601f1061075857610100808354040283529160200191610783565b820191906000526020600020905b81548152906001019060200180831161076657829003601f168201915b5050505050815260200160038201805461079c906121ac565b80601f01602080910402602001604051908101604052809291908181526020018280546107c8906121ac565b80156108155780601f106107ea57610100808354040283529160200191610815565b820191906000526020600020905b8154815290600101906020018083116107f857829003601f168201915b505050505081525050955095509550955095509550955091939550919395565b600061083f6111b8565b9050806001600160a01b0316866001600160a01b03161415801561086a57506108688682610f28565b155b156108a05760405163711bec9160e11b81526001600160a01b038083166004830152871660248201526044015b60405180910390fd5b6108ad86868686866111c7565b505050505050565b6000828152600360205260409020600101546108d08161122e565b6108da8383611242565b50505050565b6108e86111b8565b6001600160a01b0316816001600160a01b0316146109195760405163334bd91960e11b815260040160405180910390fd5b61092382826112d7565b505050565b806000036109495760405163162908e360e11b815260040160405180910390fd5b60008281526005602052604081205460ff16600181111561096c5761096c611bc4565b1461098d57604051630d5f568d60e01b815260048101839052602401610897565b60006109a061099a6111b8565b846104f7565b9050818110156109cd5760405163cf47918160e01b81526004810182905260248101839052604401610897565b6109df6109d86111b8565b8484611362565b600083815260096020526040812080548492906109fd9084906121fc565b90915550610a0b90506111b8565b6001600160a01b0316837f879d3119c4b795ef52faad4d0f5bccc9da39e3dd23f5c04dff39d2cd7902e04e84604051610a4691815260200190565b60405180910390a360008381526009602052604081205490036109235750506000908152600560209081526040808320805460ff191660011790556008909152902080546001600160401b03421667ffffffffffffffff19909116179055565b60608151835114610ad75781518351604051635b05999160e01b815260048101929092526024820152604401610897565b600083516001600160401b03811115610af257610af2611cae565b604051908082528060200260200182016040528015610b1b578160200160208202803683370190505b50905060005b8451811015610b7257602080820286010151610b45906020808402870101516104f7565b828281518110610b5757610b5761220f565b6020908102919091010152610b6b81612225565b9050610b21565b509392505050565b7f20b5f7ac978e5d6199de06401411960dfa81d2f762655f6206bdc61d46fc19e6610ba48161122e565b6001600160a01b038516610bcb57604051634e46966960e11b815260040160405180910390fd5b83600003610bec5760405163162908e360e11b815260040160405180910390fd5b6000868152600760205260409020546001600160401b031615610c255760405163d2a337cb60e01b815260048101879052602401610897565b600a546040516328c44a9960e21b8152600481018490526000916001600160a01b03169063a3112a649060240160e060405180830381865afa158015610c6f573d6000803e3d6000fd5b505050506040513d601f19601f82011682018060405250810190610c939190612260565b90508060600151610cba576040516371c5e19960e11b815260048101849052602401610897565b80518514610cdb5760405163162908e360e11b815260040160405180910390fd5b6000610ce785806122fe565b610cf7604088016020890161235b565b610d0460408901896122fe565b610d1160608b018b6122fe565b604051602001610d2797969594939291906123a1565b60405160208183030381529060405280519060200120905081604001518114610d745781604001518160405163196f48e960e31b8152600401610897929190918252602082015260400190565b600a546040516337535ea760e21b8152600481018690526001600160a01b039091169063dd4d7a9c90602401600060405180830381600087803b158015610dba57600080fd5b505af1158015610dce573d6000803e3d6000fd5b5050506000898152600460205260409020869150610dec8282612507565b505060208281015160008a81526006835260408082209290925560058352818120805460ff1916905560078352818120805467ffffffffffffffff1916426001600160401b031617905581519283019091528152610e4f9088908a9089906113ca565b60008881526009602052604081208054889290610e6d90849061262c565b909155505060408051878152602081018690526001600160a01b038916918a917f3c97ec92fc87a519e7bb3db22d1c35276500b8736eddafb68b4596ff3c2971d8910160405180910390a35050505050505050565b60009182526003602090815260408084206001600160a01b0393909316845291905290205460ff1690565b610eff610ef86111b8565b8383611427565b5050565b600082815260036020526040902060010154610f1e8161122e565b6108da83836112d7565b6001600160a01b03918216600090815260016020908152604080832093909416825291909152205460ff1690565b600460205260009081526040902080548190610f71906121ac565b80601f0160208091040260200160405190810160405280929190818152602001828054610f9d906121ac565b8015610fea5780601f10610fbf57610100808354040283529160200191610fea565b820191906000526020600020905b815481529060010190602001808311610fcd57829003601f168201915b5050506001840154600285018054949561ffff90921694919350915061100f906121ac565b80601f016020809104026020016040519081016040528092919081815260200182805461103b906121ac565b80156110885780601f1061105d57610100808354040283529160200191611088565b820191906000526020600020905b81548152906001019060200180831161106b57829003601f168201915b50505050509080600301805461109d906121ac565b80601f01602080910402602001604051908101604052809291908181526020018280546110c9906121ac565b80156111165780601f106110eb57610100808354040283529160200191611116565b820191906000526020600020905b8154815290600101906020018083116110f957829003601f168201915b5050505050905084565b600061112a6111b8565b9050806001600160a01b0316866001600160a01b03161415801561115557506111538682610f28565b155b156111865760405163711bec9160e11b81526001600160a01b03808316600483015287166024820152604401610897565b6108ad86868686866114bd565b60006001600160e01b03198216637965db0b60e01b148061051957506105198261154b565b60006111c261159b565b905090565b6001600160a01b0384166111f157604051632bfa23e760e11b815260006004820152602401610897565b6001600160a01b03851661121a57604051626a0d4560e21b815260006004820152602401610897565b6112278585858585611607565b5050505050565b61123f8161123a6111b8565b611664565b50565b600061124e8383610ec2565b6112cf5760008381526003602090815260408083206001600160a01b03861684529091529020805460ff191660011790556112876111b8565b6001600160a01b0316826001600160a01b0316847f2f8788117e7eff1d82e926ec794901d17c78024a50270940304540a733656f0d60405160405180910390a4506001610519565b506000610519565b60006112e38383610ec2565b156112cf5760008381526003602090815260408083206001600160a01b03861684529091529020805460ff1916905561131a6111b8565b6001600160a01b0316826001600160a01b0316847ff6391f5c32d9c69d2a47ea670b442974b53935d1edc7fd64eb21e047a839171b60405160405180910390a4506001610519565b6001600160a01b03831661138b57604051626a0d4560e21b815260006004820152602401610897565b604080516001808252602082018590528183019081526060820184905260a0820190925260006080820181815291929161122791879185908590611607565b6001600160a01b0384166113f457604051632bfa23e760e11b815260006004820152602401610897565b604080516001808252602082018690528183019081526060820185905260808201909252906108ad600087848487611607565b6001600160a01b0382166114505760405162ced3e160e81b815260006004820152602401610897565b6001600160a01b03838116600081815260016020908152604080832094871680845294825291829020805460ff191686151590811790915591519182527f17307eab39ab6107e8899845ad3d59bd9653f200f220920489ca2b5937696c31910160405180910390a3505050565b6001600160a01b0384166114e757604051632bfa23e760e11b815260006004820152602401610897565b6001600160a01b03851661151057604051626a0d4560e21b815260006004820152602401610897565b604080516001808252602082018690528183019081526060820185905260808201909252906115428787848487611607565b50505050505050565b60006001600160e01b03198216636cdb3d1360e11b148061157c57506001600160e01b031982166303a24d0760e21b145b8061051957506301ffc9a760e01b6001600160e01b0319831614610519565b60003660148082108015906115d857507f00000000000000000000000000000000000000000000000000000000000000006001600160a01b031633145b156115ff576115ec3682840381600061263f565b6115f591612669565b60601c9250505090565b339250505090565b6116138585858561169d565b6001600160a01b0384161561122757600061162c6111b8565b90508351600103611656576020848101519084015161164f8389898585896118c5565b50506108ad565b6108ad8187878787876119e9565b61166e8282610ec2565b610eff5760405163e2517d3f60e01b81526001600160a01b038216600482015260248101839052604401610897565b80518251146116cc5781518151604051635b05999160e01b815260048101929092526024820152604401610897565b60006116d66111b8565b905060005b83518110156117e6576020818102858101820151908501909101516001600160a01b0388161561178e576000828152602081815260408083206001600160a01b038c16845290915290205481811015611767576040516303dee4c560e01b81526001600160a01b038a166004820152602481018290526044810183905260648101849052608401610897565b6000838152602081815260408083206001600160a01b038d16845290915290209082900390555b6001600160a01b038716156117d3576000828152602081815260408083206001600160a01b038b168452909152812080548392906117cd90849061262c565b90915550505b5050806117df90612225565b90506116db565b5082516001036118675760208301516000906020840151909150856001600160a01b0316876001600160a01b0316846001600160a01b03167fc3d58168c5ae7397731d063d5bbf3d657854427343f4c083240f7aacaa2d0f628585604051611858929190918252602082015260400190565b60405180910390a45050611227565b836001600160a01b0316856001600160a01b0316826001600160a01b03167f4a39dc06d4c0dbc64b70af90fd698a233a518aa5d07e595d983b8c0526c8f7fb86866040516118b692919061269e565b60405180910390a45050505050565b6001600160a01b0384163b156108ad5760405163f23a6e6160e01b81526001600160a01b0385169063f23a6e619061190990899089908890889088906004016126cc565b6020604051808303816000875af1925050508015611944575060408051601f3d908101601f1916820190925261194191810190612706565b60015b6119ad573d808015611972576040519150601f19603f3d011682016040523d82523d6000602084013e611977565b606091505b5080516000036119a557604051632bfa23e760e11b81526001600160a01b0386166004820152602401610897565b805160208201fd5b6001600160e01b0319811663f23a6e6160e01b1461154257604051632bfa23e760e11b81526001600160a01b0386166004820152602401610897565b6001600160a01b0384163b156108ad5760405163bc197c8160e01b81526001600160a01b0385169063bc197c8190611a2d9089908990889088908890600401612723565b6020604051808303816000875af1925050508015611a68575060408051601f3d908101601f19168201909252611a6591810190612706565b60015b611a96573d808015611972576040519150601f19603f3d011682016040523d82523d6000602084013e611977565b6001600160e01b0319811663bc197c8160e01b1461154257604051632bfa23e760e11b81526001600160a01b0386166004820152602401610897565b80356001600160a01b0381168114611ae957600080fd5b919050565b60008060408385031215611b0157600080fd5b611b0a83611ad2565b946020939093013593505050565b6001600160e01b03198116811461123f57600080fd5b600060208284031215611b4057600080fd5b8135611b4b81611b18565b9392505050565b600060208284031215611b6457600080fd5b5035919050565b6000815180845260005b81811015611b9157602081850181015186830182015201611b75565b506000602082860101526020601f19601f83011685010191505092915050565b602081526000611b4b6020830184611b6b565b634e487b7160e01b600052602160045260246000fd5b60028110611bf857634e487b7160e01b600052602160045260246000fd5b9052565b60c0815260008751608060c0840152611c19610140840182611b6b565b905061ffff60208a01511660e0840152604089015160bf198085840301610100860152611c468383611b6b565b925060608b01519150808584030161012086015250611c658282611b6b565b92505050611c766020830188611bda565b856040830152611c9160608301866001600160401b03169052565b6001600160401b0393909316608082015260a00152949350505050565b634e487b7160e01b600052604160045260246000fd5b604051601f8201601f191681016001600160401b0381118282101715611cec57611cec611cae565b604052919050565b60006001600160401b03821115611d0d57611d0d611cae565b5060051b60200190565b600082601f830112611d2857600080fd5b81356020611d3d611d3883611cf4565b611cc4565b82815260059290921b84018101918181019086841115611d5c57600080fd5b8286015b84811015611d775780358352918301918301611d60565b509695505050505050565b600082601f830112611d9357600080fd5b81356001600160401b03811115611dac57611dac611cae565b611dbf601f8201601f1916602001611cc4565b818152846020838601011115611dd457600080fd5b816020850160208301376000918101602001919091529392505050565b600080600080600060a08688031215611e0957600080fd5b611e1286611ad2565b9450611e2060208701611ad2565b935060408601356001600160401b0380821115611e3c57600080fd5b611e4889838a01611d17565b94506060880135915080821115611e5e57600080fd5b611e6a89838a01611d17565b93506080880135915080821115611e8057600080fd5b50611e8d88828901611d82565b9150509295509295909350565b60008060408385031215611ead57600080fd5b82359150611ebd60208401611ad2565b90509250929050565b602081016105198284611bda565b60008060408385031215611ee757600080fd5b50508035926020909101359150565b60008060408385031215611f0957600080fd5b82356001600160401b0380821115611f2057600080fd5b818501915085601f830112611f3457600080fd5b81356020611f44611d3883611cf4565b82815260059290921b84018101918181019089841115611f6357600080fd5b948201945b83861015611f8857611f7986611ad2565b82529482019490820190611f68565b96505086013592505080821115611f9e57600080fd5b50611fab85828601611d17565b9150509250929050565b600081518084526020808501945080840160005b83811015611fe557815187529582019590820190600101611fc9565b509495945050505050565b602081526000611b4b6020830184611fb5565b600080600080600060a0868803121561201b57600080fd5b8535945061202b60208701611ad2565b93506040860135925060608601356001600160401b0381111561204d57600080fd5b86016080818903121561205f57600080fd5b949793965091946080013592915050565b60006020828403121561208257600080fd5b611b4b82611ad2565b801515811461123f57600080fd5b600080604083850312156120ac57600080fd5b6120b583611ad2565b915060208301356120c58161208b565b809150509250929050565b600080604083850312156120e357600080fd5b6120ec83611ad2565b9150611ebd60208401611ad2565b60808152600061210d6080830187611b6b565b61ffff8616602084015282810360408401526121298186611b6b565b9050828103606084015261213d8185611b6b565b979650505050505050565b600080600080600060a0868803121561216057600080fd5b61216986611ad2565b945061217760208701611ad2565b9350604086013592506060860135915060808601356001600160401b038111156121a057600080fd5b611e8d88828901611d82565b600181811c908216806121c057607f821691505b6020821081036121e057634e487b7160e01b600052602260045260246000fd5b50919050565b634e487b7160e01b600052601160045260246000fd5b81810381811115610519576105196121e6565b634e487b7160e01b600052603260045260246000fd5b600060018201612237576122376121e6565b5060010190565b8051611ae98161208b565b80516001600160401b0381168114611ae957600080fd5b600060e0828403121561227257600080fd5b60405160e081018181106001600160401b038211171561229457612294611cae565b806040525082518152602083015160208201526040830151604082015260608301516122bf8161208b565b60608201526122d06080840161223e565b60808201526122e160a08401612249565b60a08201526122f260c08401612249565b60c08201529392505050565b6000808335601e1984360301811261231557600080fd5b8301803591506001600160401b0382111561232f57600080fd5b60200191503681900382131561234457600080fd5b9250929050565b61ffff8116811461123f57600080fd5b60006020828403121561236d57600080fd5b8135611b4b8161234b565b81835281816020850137506000828201602090810191909152601f909101601f19169091010190565b6080815260006123b560808301898b612378565b61ffff8816602084015282810360408401526123d2818789612378565b905082810360608401526123e7818587612378565b9a9950505050505050505050565b601f82111561092357600081815260208120601f850160051c8101602086101561241c5750805b601f850160051c820191505b818110156108ad57828155600101612428565b6001600160401b0383111561245257612452611cae565b6124668361246083546121ac565b836123f5565b6000601f84116001811461249a57600085156124825750838201355b600019600387901b1c1916600186901b178355611227565b600083815260209020601f19861690835b828110156124cb57868501358255602094850194600190920191016124ab565b50868210156124e85760001960f88860031b161c19848701351681555b505060018560011b0183555050505050565b600081356105198161234b565b61251182836122fe565b6001600160401b0381111561252857612528611cae565b61253c8161253685546121ac565b856123f5565b6000601f82116001811461257057600083156125585750838201355b600019600385901b1c1916600184901b1785556125ca565b600085815260209020601f19841690835b828110156125a15786850135825560209485019460019092019101612581565b50848210156125be5760001960f88660031b161c19848701351681555b505060018360011b0185555b505050506125f46125dd602084016124fa565b6001830161ffff821661ffff198254161781555050565b61260160408301836122fe565b61260f81836002860161243b565b505061261e60608301836122fe565b6108da81836003860161243b565b80820180821115610519576105196121e6565b6000808585111561264f57600080fd5b8386111561265c57600080fd5b5050820193919092039150565b6bffffffffffffffffffffffff1981358181169160148510156126965780818660140360031b1b83161692505b505092915050565b6040815260006126b16040830185611fb5565b82810360208401526126c38185611fb5565b95945050505050565b6001600160a01b03868116825285166020820152604081018490526060810183905260a06080820181905260009061213d90830184611b6b565b60006020828403121561271857600080fd5b8151611b4b81611b18565b6001600160a01b0386811682528516602082015260a06040820181905260009061274f90830186611fb5565b82810360608401526127618186611fb5565b905082810360808401526127758185611b6b565b9897505050505050505056fea26469706673582212207e125ad2d810b20689dfb68cb82c7e39f306056807530fc3f8591d997052234664736f6c63430008140033",
  "linkReferences": {},
  "deployedLinkReferences": {}
}